:100000000C94FD100C942E110C942E110C942E11A6
:100010000C942E110C942E110C942E110C942E1164
:100020000C942E110C942E110C942E110C942E1154
:100030000C942E110C942E110C942E110C942E1144
:100040000C942E110C94E2A70C942E110C942E11EA
:100050000C942E110C942E110C94E5710C94C33D4C
:100060000C942E110C9496340C942E110C942E1189
:100070000C942E110C942E110C942E110C942E1104
:100080000C942E110C942E110C942E110C942E11F4
:100090000C942E110C942E110C942E110C942E11E4
:1000A0000C942E110C942E110C942E110C942E11D4
:1000B0000C942E110C942E110C942E110C942E11C4
:1000C0000C942E110C942E110C942E110C942E11B4
:1000D0000C942E110C942E110C942E110C942E11A4
:1000E0000C942E114B974E973D97419747978597C4
:1000F000529756975C97609764976A976E97729736
:10010000859778977C9780974D99529957996199DF
:100110006B99E49975997D9985998F999999A39986
:10012000B299BC99E499C699D099DA99084AD73B13
:100130003BCE016E84BCBFFDC12F3D6C74319ABDB6
:1001400056833DDA3D00C77F11BED9E4BB4C3E91DA
:100150006BAAAABE000000803F05A84CCDB2D44EC9
:10016000B93836A9020C50B9918688083CA6AAAACB
:100170002ABE000000803F004E414E494E4954596E
:10018000494E46CDCCCC3D0AD7233C17B7D1387762
:10019000CC2B329595E6241FB14F0A000020410078
:1001A00000C84200401C4620BCBE4CCA1B0E5AAEC2
:1001B000C59D74434F4D4D554E49434154494F4E93
:1001C0000044525952554E004552524F5253004925
:1001D0004E464F004543484F0020746F6F206C6FB0
:1001E0006E6720657874727573696F6E20707265C2
:1001F00076656E7465640A0020636F6C64206578B0
:1002000074727573696F6E2070726576656E746551
:10021000640A0047322F47332062616420706172A4
:10022000616D65746572730A00536C6565702E2E7E
:100230002E00416E7963756269632069332B2072E9
:10024000656164792E00526573756D696E67207003
:1002500072696E7400436C69636B20746F20726501
:1002600073756D652E2E2E004E6F206D6F76652E88
:1002700000456E642066696C65206C6973740A00C1
:10028000426567696E2066696C65206C6973740AE3
:10029000005344207072696E74696E6720627974CD
:1002A0006520004E6F74205344207072696E74692B
:1002B0006E670A0046696C652064656C65746564E8
:1002C0003A0044656C6574696F6E206661696C659F
:1002D000642C2046696C653A20006F70656E20665C
:1002E00061696C65642C2046696C653A200025695B
:1002F000730025696D2025697300256968202569CB
:100300006D202569730025696420256968202569A9
:100310006D20256973002569792025696420256988
:10032000682025696D20256973005072696E7420FC
:1003300074696D653A200050726F7465637465640A
:100340002050696E0A0045256920257300416E79A9
:1003500063756269632069332B2072656164792E4D
:1003600000D401CF01C801C101B3016F666600442A
:10037000454255473A004B494C4C45442E20006FAE
:100380006B0048656174696E6720646F6E652E004E
:100390003F0A0020573A0045256920257300416E29
:1003A0007963756269632069332B207265616479B2
:1003B0002E0042656420646F6E652E003F0A0020A7
:1003C000573A004265642048656174696E672E0083
:1003D000416E7963756269632069332B204F6666CD
:1003E0002E004649524D574152455F4E414D453AC8
:1003F0004D61726C696E20312E312E322028476992
:10040000746875622920534F555243455F434F44EA
:10041000455F55524C3A68747470733A2F2F676970
:10042000746875622E636F6D2F4D61726C696E46D4
:1004300069726D776172652F4D61726C696E2050C3
:10044000524F544F434F4C5F56455253494F4E3ACB
:10045000312E30204D414348494E455F5459504557
:100460003A416E7963756269632069332B20455880
:100470005452554445525F434F554E543A312055DE
:100480005549443A63656465326132662D343161A1
:10049000322D343734382D396231322D633535639E
:1004A00036326633363766660A007A5F6D696E3AB1
:1004B0002000795F6D696E3A2000785F6D696E3A51
:1004C00020005265706F7274696E6720656E647388
:1004D000746F70207374617475730A004D31343514
:1004E00020533C696E6465783E206F7574206F669A
:1004F0002072616E67652028302D31290A0053650E
:100500007474696E672054726176656C2041636310
:10051000656C65726174696F6E3A2000536574741E
:10052000696E67205265747261637420416363650C
:100530006C65726174696F6E3A20005365747469FA
:100540006E67205072696E7420416363656C6572DA
:100550006174696F6E3A200053657474696E672028
:100560005072696E7420616E642054726176656C9D
:1005700020416363656C65726174696F6E3A200037
:10058000205A00205900580020204D61783A200060
:10059000205A00205900580020204D696E3A200052
:1005A0004F6E20004F666600536F667420656E6460
:1005B00073746F70733A200020643A0020693A0027
:1005C00020703A0043290A0061626C656420286D3E
:1005D000696E2074656D702000436F6C64206578CF
:1005E00074727564657320617265200023646566AA
:1005F000696E65202044454641554C545F4B64204C
:100600000023646566696E65202044454641554C6B
:10061000545F4B69200023646566696E6520204441
:10062000454641554C545F4B702000504944204191
:1006300075746F74756E652066696E69736865643C
:10064000212050757420746865206C617374204B90
:10065000702C204B6920616E64204B6420636F6EA8
:100660007374616E74732066726F6D2062656C6F57
:100670007720696E746F20436F6E6669677572616B
:1006800074696F6E2E680A00504944204175746F7A
:1006900074756E65206661696C6564212074696D8E
:1006A000656F75740A00504944204175746F747504
:1006B0006E65206661696C6564212054656D7065A6
:1006C00072617475726520746F6F20686967680A5B
:1006D00000204B643A2000204B693A2000204B70E8
:1006E0003A20000A20436C617373696320504944C7
:1006F000200A002054753A2000204B753A20002033
:100700006D61783A2000206D696E3A200020643ACD
:10071000200020626961733A20004F666673657439
:1007200073206170706C696564004572723A205480
:100730006F6F206661722100546F6F2066617220B6
:1007400066726F6D207265666572656E6365207096
:100750006F696E740A00454550524F4D20646973AD
:1007600061626C65640A004E6F2063617365206C82
:10077000696768740A004163746976652045787416
:1007800072756465723A2000556E6B6E6F776E20DD
:10079000636F6D6D616E643A2022004E6F204C696C
:1007A0006E65204E756D626572207769746820638E
:1007B0006865636B73756D2C204C617374204C6994
:1007C0006E653A20004B494C4C45442E2000535452
:1007D0004F505045442E20005072696E746572204F
:1007E00073746F707065642064756520746F206524
:1007F00072726F72732E2046697820746865206566
:1008000072726F7220616E6420757365204D393984
:100810003920746F20726573746172742E202854AD
:10082000656D70657261747572652069732072659B
:100830007365742E20536574206974206166746535
:10084000722072657374617274696E67290A004E52
:100850006F20436865636B73756D207769746820DA
:100860006C696E65206E756D6265722C204C6173CB
:1008700074204C696E653A2000636865636B73751C
:100880006D206D69736D617463682C204C617374A5
:10089000204C696E653A20004C696E65204E756D7E
:1008A000626572206973206E6F74204C61737420CE
:1008B0004C696E65204E756D6265722B312C204C33
:1008C000617374204C696E653A20004D31313000FF
:1008D0004D3331004D383420582059205A204500DE
:1008E00053442072656164206572726F720A00441D
:1008F0006F6E65207072696E74696E672066696CD0
:10090000650A0020496E76616C69642065787472AE
:1009100075646572200000005C4300005C430000C9
:100920007A430000000000000000000000002042A8
:10093000403A0020403A00202F0020423A00202F69
:100940000020543A00205A3A0020593A0020436FC0
:10095000756E7420583A0020453A00205A3A00201B
:10096000593A00583A0043616E6E6F7420656E7498
:100970006572207375626469723A2000052E2E003C
:100980004D61696E004D61782054656D703A20317B
:100990003130004D696E2054656D703A2035005439
:1009A0004265643A4550434F53203130304B004D3F
:1009B00061782054656D703A20323630004D696E92
:1009C0002054656D703A20350054303A204550432C
:1009D0004F53203130304B00506F77657220537584
:1009E00070706C793A2047656E6572696300507269
:1009F0006F746F636F6C3A20312E30004261756402
:100A00003A203235303030300052414D5053203191
:100A10002E33004578747275646572733A20310024
:100A2000687474703A2F2F6D61726C696E66772EE0
:100A30006F726700416E7963756269632069332B59
:100A400000323031372D30352D33302031323A30CD
:100A50003000312E312E32004D61726C696E0054BF
:100A60006865726D6973746F727300426F6172644E
:100A700020496E666F005072696E74657220496E0F
:100A8000666F004D61696E004B494C4C45442E2009
:100A900000202D20496E76616C696420657874723F
:100AA00075646572206E756D62657220210A002D75
:100AB0002D2D2D2D2D007C4D61726C696E7C002DCD
:100AC0002D2D2D2D2D00687474703A2F2F6D6172AD
:100AD0006C696E66772E6F726700687474703A2F57
:100AE0002F6D61726C696E66772E6F7267002031B0
:100AF0002E312E32002020506C616E6E6572427570
:100B00006666657242797465733A200020467265A4
:100B100065204D656D6F72793A2000436F6D706985
:100B20006C65643A204A616E2031382032303139A8
:100B30000A00207C20417574686F723A20546F62FD
:100B40006961732052656974686D656965720A0030
:100B5000323031372D30352D33302031323A30308C
:100B600000204C61737420557064617465643A2090
:100B700000312E312E320A004D61726C696E0020F8
:100B8000536F6674776172652052657365740A00ED
:100B9000205761746368646F672052657365740AD7
:100BA000002042726F776E206F75742052657365F6
:100BB000740A002045787465726E616C205265730A
:100BC00065740A00506F77657255700A007374611E
:100BD00072740A006572726F722077726974696E3E
:100BE0006720746F2066696C650A00456E647374D3
:100BF0006F70732025632025632025632025630003
:100C0000205A3A0020593A0020583A00656E647321
:100C1000746F7073206869743A2000446F6E6520A9
:100C2000736176696E672066696C652E0A004D32C5
:100C30003900526573746F7265206661696C736107
:100C400066650046696C616D656E74004D6F746910
:100C50006F6E0054656D7065726174757265004DDC
:100C600061696E005072656865617420414253206D
:100C7000636F6E66005072656865617420504C4108
:100C800020636F6E66005049442D44005049442D46
:100C900044005049442D49005049442D49005049D1
:100CA000442D50005049442D5000200220466163DD
:100CB000740020022046616374002002204D617898
:100CC000002002204D6178002002204D6178002034
:100CD00002204D696E002002204D696E0020022026
:100CE0004D696E004F6666004F6E20004175746F4F
:100CF00074656D700046616E2073706565640046B2
:100D0000616E2073706565640042656400426564CD
:100D1000004E6F7A7A6C65004E6F7A7A6C6500438C
:100D20006F6E74726F6C0042656400426564004EC1
:100D30006F7A7A6C65004E6F7A7A6C650046616EE8
:100D40002073706565640046616E2073706565642C
:100D50000054656D706572617475726500565472E9
:100D60006176206D696E005654726176206D696EF1
:100D7000005654726176206D696E00566D696E0082
:100D8000566D696E00566D696E00566D617820452E
:100D900000566D6178204500566D617820450056FB
:100DA0006D6178205A00566D6178205A00566D6149
:100DB00078205A00566D6178205900566D61782070
:100DC0005900566D6178205900566D6178205800A1
:100DD000566D6178205800566D61782058004D6F2F
:100DE00074696F6E005072656865617420504C4183
:100DF00020456E64005072656865617420504C41F6
:100E000020426564005072656865617420504C41F1
:100E1000005072657061726500507265686561743A
:100E20002041425320456E640050726568656174CC
:100E300020414253204265640050726568656174C8
:100E4000204142530050726570617265004D34322A
:100E500038005072656865617420504C4100436FE2
:100E60006F6C646F776E00507265686561742041C5
:100E700042530044697361626C65207374657070DD
:100E8000657273004D38340053657420686F6D656A
:100E9000206F666673657473004175746F20686FA8
:100EA0006D6500473238004D6F7665206178697353
:100EB000004D61696E004D6F76652058004D6F766C
:100EC000652059004D6F7665205A0045787472751B
:100ED000646572004D6F766520302E316D6D004D6A
:100EE0006F766520316D6D004D6F76652031306D08
:100EF0006D004D6F76652061786973004578747276
:100F000075646572004D6F7665205A004D6F766589
:100F10002059004D6F7665205800457874727564CD
:100F20006572004D6F7665205A004D6F76652059C9
:100F3000004D6F76652058005072657061726500D3
:100F400053442063617264206F6B0A006F70656E9A
:100F5000526F6F74206661696C65640A00766F6C0D
:100F6000756D652E696E6974206661696C65640AC9
:100F700000534420696E6974206661696C0A0061DF
:100F800075746F25692E67004D3234004D32332061
:100F900025730057726974696E6720746F206669E3
:100FA0006C653A20006F70656E206661696C6564DF
:100FB0002C2046696C653A20006F70656E20666172
:100FC000696C65642C2046696C653A200046696C42
:100FD000652073656C65637465640A002053697AE3
:100FE000653A200046696C65206F70656E65643AED
:100FF00020006F70656E206661696C65642C204608
:10100000696C653A20002066696C653A20004E6F75
:101010007720002220706F73002220706172656E4D
:10102000743A2200535542524F5554494E4520437D
:10103000414C4C207461726765743A22004B494CF4
:101040004C45442E2000747279696E6720746F20BD
:1010500063616C6C207375622D67636F64652066D5
:10106000696C6573207769746820746F6F206D6197
:101070006E79206C6576656C732E204D4158206C1E
:101080006576656C2069733A004572726F723A003A
:101090007C3C3E5E2B3D3F2F5B5D3B2C2A225C005F
:1010A00025753A2530327500253032753A253032B3
:1010B00075002D2D2D005344005A00590058000191
:1010C00020005072696E7420706175736564000051
:1010D0005072696E742061626F72746564004E6F45
:1010E0002053442063617264005072696E742066FC
:1010F000726F6D2053440053746F70207072696E6C
:10110000740041626F7574205072696E746572006C
:10111000526573756D65207072696E7400506175EB
:101120007365207072696E7400436F6E74726F6CB9
:1011300000507265706172650054756E6500496E8D
:10114000666F2073637265656E00466C6F7700464C
:101150006C6F770046616E20737065656400466150
:101160006E207370656564004265640042656400CA
:101170004E6F7A7A6C65004E6F7A7A6C65005370A8
:10118000656564005370656564004D61696E00417A
:101190006D6178204500416D6178204500416D61A9
:1011A00078205A00416D6178205A00416D617820A5
:1011B0005900416D6178205900416D6178205800D7
:1011C000416D6178205800412D74726176656C0024
:1011D000412D74726176656C00412D726574726187
:1011E000637400412D7265747261637400416363BE
:1011F000656C00416363656C004D6F74696F6E00D0
:1012000056652D6A65726B0056652D6A65726B00B6
:1012100056652D6A65726B00567A2D6A65726B0091
:10122000567A2D6A65726B0056792D6A65726B006D
:1012300056792D6A65726B0056792D6A65726B005E
:1012400056782D6A65726B0056782D6A65726B0050
:1012500056782D6A65726B004D6F74696F6E00452C
:1012600073746570732F6D6D004573746570732FA3
:101270006D6D005A73746570732F6D6D005A7374C1
:101280006570732F6D6D005973746570732F6D6D7C
:10129000005973746570732F6D6D005873746570A9
:1012A000732F6D6D005873746570732F6D6D004DE5
:1012B0006F74696F6E0053746570732F6D6D004AA3
:1012C00065726B00416363656C65726174696F6E12
:1012D0000056656C6F6369747900436F6E74726F4A
:1012E0006C0046696C2E204469612E0046696C2EA4
:1012F000204469612E004F6666004F6E2000452035
:10130000696E206D6D3300436F6E74726F6C006296
:1013100065640A002C2073797374656D2073746F93
:101320007070656421204865617465725F49443A54
:10133000200048656174696E67206661696C656448
:101340000048656174696E67206661696C65640058
:1013500048656174696E67206661696C6564004800
:10136000656174696E67206661696C65640070010F
:101370002C0190012701B0012201C0011D01F001E3
:1013800018011002130130020E01600209019002DF
:101390000401C002FF000003FA004003F5008003CF
:1013A000F000D003EB002004E6007004E100E0044C
:1013B000DC004005D700C005D2004006CD00D006B5
:1013C000C8008007C3003008BE00F008B900C0099B
:1013D000B400B00AAF00B00BAA00D00CA500000EFC
:1013E000A000500F9B00C0109600501291000014F6
:1013F0008C00C0158700B0178200B0197D00D01B8B
:101400007800001E730040206E0090226900F024D6
:10141000640040275F0090295A00E02B5500102EF1
:10142000500020304B0010324600E0334100903530
:101430003C001037370070383200A0392D00B03A28
:101440002800A03B2300603C1E00103D1900903D89
:101450001400103E0F00703E0A00C03E0500003F21
:101460000000403FFBFF803FF6FFC03FF1FF5448C4
:1014700045524D414C2052554E41574159005468F8
:1014800065726D616C2052756E617761790045728D
:10149000723A204D494E54454D5020424544004536
:1014A00072723A204D494E54454D50004D494E54AC
:1014B000454D5020747269676765726564004572B6
:1014C000723A204D415854454D5020424544004504
:1014D00072723A204D415854454D50004D41585478
:1014E000454D502074726967676572656400486194
:1014F0007264636F6465642044656661756C742012
:1015000053657474696E6773204C6F616465640A17
:101510000020440020490020204D3330312050006D
:101520005049442073657474696E67733A0A0020E9
:10153000460020420020480020204D313435205301
:10154000004D6174657269616C20686561747570C5
:1015500020706172616D65746572733A0A00205A79
:101560000020590020204D323036205800486F6D41
:1015700065206F66667365743A0A00204500205A3C
:101580000020590020580020420020540020204D07
:10159000323035205300416476616E6365643A20D1
:1015A000533C6D696E5F66656564726174653E206B
:1015B000543C6D696E5F74726176656C5F666565DB
:1015C00064726174653E20423C6D696E5F7365674D
:1015D0006D656E745F74696D655F6D733E20583C18
:1015E0006D61785F78795F6A65726B3E205A3C6DF9
:1015F00061785F7A5F6A65726B3E20453C6D617809
:101600005F655F6A65726B3E0A00205400205200DD
:1016100020204D323034205000416363656C657288
:101620006174696F6E2028756E6974732F73322927
:101630003A20503C7072696E745F616363656C3E02
:1016400020523C726574726163745F616363656CA0
:101650003E20543C74726176656C5F616363656CB7
:101660003E0A00204500205A0020590020204D321B
:1016700030312058004D6178696D756D204163638C
:10168000656C65726174696F6E2028756E6974731C
:101690002F7332293A0A00204500205A00205900B1
:1016A00020204D3230332058004D6178696D756DC2
:1016B000206665656472617465732028756E69744F
:1016C000732F73293A0A00204500205A0020590040
:1016D00020204D3932205800537465707320706596
:1016E0007220756E69743A0A0020204D3230302025
:1016F00044300A0020204D3230302044002044691C
:101700007361626C65640A0046696C616D656E7434
:101710002073657474696E67733A0020204D31340C
:10172000392043203B20556E69747320696E204335
:10173000656C736975730A002020473231202020C0
:10174000203B20556E69747320696E206D6D0A0010
:1017500020746F6F206C6F6E67206578747275737C
:10176000696F6E2070726576656E7465640A00201C
:10177000636F6C6420657874727573696F6E207026
:10178000726576656E7465640A00436172642072E6
:10179000656D6F766564004361726420696E736580
:1017A000727465640000002100240027002A002DC7
:1017B000003000330001010000040107010A0100AC
:1017C000002200250028002B002E003100340002EA
:1017D000010000050108010B010000200023002684
:1017E0000029002C002F0032000001000003010638
:1017F0000109010505050507050808080802020298
:10180000020A0A080804040404010101010101019B
:10181000010303030303030303040707070C0C0C72
:101820000C0C0C0C0C02020202060606060606064A
:10183000060B0B0B0B0B0B0B0B01021020200808E7
:101840001020401020408002010201080402010122
:10185000020408102040808040201008040201800B
:101860000402018040201008040201080402010162
:10187000020408102040800102040810204080006B
:10188000000A0B02090C0D0E0807030401000000FA
:101890000000000000000000000000000000000048
:1018A0000000000000000000000000121110000005
:1018B0000000000000000000000000000000000028
:1018C000000000000043616E6E6F74206F70656EE3
:1018D0002073756264697220006563686F3A004B1B
:1018E000494C4C45442E20004B494C4C20636175BB
:1018F000736564206279204B494C4C206275747486
:101900006F6E2F70696E0A004B494C4C45442E2077
:10191000004B494C4C2063617573656420627920EB
:10192000746F6F206D75636820696E61637469768A
:10193000652074696D65202D2063757272656E7403
:1019400020636F6D6D616E643A2000506C65617349
:1019500065207265736574005052494E544552209B
:1019600048414C544544005072696E746572206859
:10197000616C7465642E206B696C6C28292063612E
:101980006C6C6564210A00656E7175657565696EBC
:10199000672022000000000000000000000000009E
:1019A0005761726E696E673A20486F6D696E672085
:1019B00042756D702044697669736F72203C2031E6
:1019C0000A000000A0400000A0400000004000000D
:1019D0005C4300005C4300007A43FFFFFF24F4D423
:1019E0003050C38E20C2A24017828B7011127A91A0
:1019F0000D816CD90AA861E108C758660761514397
:101A0000061E4B5D05C145A7041A411104093D9806
:101A100003713931034036DB0265339102D430540F
:101A200002802E1D02632CEE01752AC501B028A08C
:101A300001102781018F2564012B244B01E0223402
:101A400001AC211F018D200D01801FFC00841EEDC3
:101A500000971DDF00B81CD200E61BC600201BBC8F
:101A600000641AB200B219A8000A19A0006A1899F5
:101A700000D117910040178B00B516840031167EF7
:101A800000B31579003A157300C7146F0058146A33
:101A900000EE1366008813630025135E00C7125B17
:101AA000006C12570015125400C111510070114FF3
:101AB0000021114B00D61049008D104700461044FC
:101AC0000002104200C00F4000800F3E00420F3C59
:101AD00000060F3B00CB0E3800930E37005C0E352E
:101AE00000270E3400F30D3200C10D3100900D308F
:101AF00000600D2E00320D2D00050D2C00D90C2B91
:101B000000AE0C2900850C29005C0C2700350C2741
:101B1000000E0C2600E80B2400C40B2400A00B23AD
:101B2000007D0B23005A0B2100390B2100180B20DC
:101B300000F80A1F00D90A1E00BB0A1E009D0A1DDC
:101B400000800A1D00630A1C00470A1B002C0A1BA8
:101B500000110A1A00F7091A00DD091900C4091951
:101B600000AB091900920917007B091800630917D7
:101B7000004C09160036091600200916000A09153E
:101B800000F5081500E0081400CC081400B808148B
:101B900000A4081400900813007D0812006B0813BD
:101BA00000580812004608120034081100230811DA
:101BB000001208110001081100F0071000E00710E2
:101BC00000D0071000C0071000B0070F00A10710D9
:101BD0000091070E0083070F0074070F0065070EC2
:101BE0000057070E0049070E003B070D002E070E99
:101BF0000020070D0013070D0006070D00F9060C65
:101C000000ED060D00E0060C00D4060C00C8060C22
:101C100000BC060C00B0060C00A4060B0099060CD4
:101C2000008D060B0082060B0077060B006C060B7E
:101C30000061060A0057060B004C060A0042060A1D
:101C40000038060A002E060A0024060A001A060AB0
:101C5000001006090007060A00FD050900F4050941
:101C600000EB050900E2050900D9050900D00509C6
:101C700000C7050900BE050900B5050800AD050847
:101C800000A50509009C050800940508008C0508BE
:101C900000840508007C050800740508006C050731
:101CA00000650508005D050700560508004E05079C
:101CB0000047050700400508003805070031050703
:101CC000002A050700230507001C05060016050766
:101CD000000F0507000805060002050700FB0406C3
:101CE00000F5040700EE040600E8040600E204071D
:101CF00000DB040600D5040600CF040600C9040674
:101D000000C3040600BD040600B7040600B10405C4
:101D100000AC040600A6040600A00405009B04060F
:101D20000095040500900406008A0405008504055A
:101D300000800406007A040500750405007004059F
:101D4000006B04050066040500610405005C0405E1
:101D50000057040500520405004D04050048040521
:101D600000430405003E0404003A04050035040560
:101D700000300404002C040500270404002304059B
:101D8000001E0404001A04040016040500110404D3
:101D9000000D040400090405000404040000040408
:101DA00000FC030400F8030400F4030400F003043F
:101DB00000EC030400E8030400E4030400E003046F
:101DC00000DC030400D8030400D4030400D003049F
:101DD00000CC030400C8030300C503030024F4047B
:101DE000D9201BC40C5C0E9804C4095F02650771FE
:101DF00001F405F900FB04B30048048700C103693E
:101E0000005803550003034500BE023A0084023126
:101E10000053022A002902250004022000E4011CCC
:101E200000C8011900AF01170098011400840113C4
:101E300000710110006101100051010E0043010DFD
:101E40000036010B002B010B0020010B00150109CE
:101E5000000C01090003010800FB000800F3000862
:101E600000EB000700E4000600DE000600D80006D4
:101E700000D2000600CC000500C7000500C2000526
:101E800000BD000400B9000400B5000400B1000466
:101E900000AD000400A9000400A5000300A2000397
:101EA000009F0004009B00030098000300950002BF
:101EB0000093000300900003008D0002008B0003DC
:101EC00000880002008600020084000300810002F6
:101ED000007F0002007D0002007B0002007900020A
:101EE0000077000100760002007400020072000119
:101EF00000710002006F0002006D0001006C000222
:101F0000006A00010069000200670001006600012C
:101F10000065000100640002006200010061000130
:101F200000600001005F0002005D0001005C000134
:101F3000005B0001005A0001005900010058000137
:101F40000057000100560001005500010054000137
:101F50000053000000530001005200010051000135
:101F600000500001004F0001004E0000004E000133
:101F7000004D0001004C0001004B0000004B00012F
:101F8000004A00010049000100480000004800012B
:101F90000047000100460000004600010045000027
:101FA000004500010044000100430000004300011F
:101FB0000042000000420001004100000041000119
:101FC00000400001003F0000003F0001003E000013
:101FD000003E0001003D0000003D0001003C00000B
:101FE000003C0000003C0001003B0000003B000101
:101FF000003A0000003A00010039000000390001F9
:1020000000380000003800000038000100370000F0
:1020100000370001003600000036000000360001E5
:1020200000350000003500000035000100340000DC
:1020300000340000003400010033000000330000D1
:1020400000330001003200000032000000320001C5
:1020500000310000003100000031000100300000BC
:102060000030000000300001002F0000002F0000B1
:10207000002F0000002F0001002E0000002E0000A5
:10208000002E0001002D0000002D0000002D00009A
:10209000002D0001002C0000002C0000002C00008E
:1020A000002C0001002B0000002B0000002B000082
:1020B000002B0001002A0000002A0000002A000076
:1020C000002A00010029000000290000002900006A
:1020D000002900000029000100280000002800005D
:1020E0000028000000280000002800010027000050
:1020F0000027000000270000002700000027000143
:102100000026000000260000002600000026000037
:102110000026000100250000002500000025000029
:10212000002500000025000000250001002400001B
:10213000002400000024000000240000002400010E
:102140000023000000230000002300000023000003
:1021500000230000002300000023000100220000F3
:1021600000220000002200000022000000220000E7
:1021700000220001002100000021000000210000D9
:1021800000210000002100000021000000210001CA
:1021900000200000002000000020000000200000BF
:1021A00000200000002000000020000000200001AE
:1021B000001F0000001F0000001F0000001F0000A3
:1021C000001F0000001F0000001F0001001E000093
:1021D000001E0000001E0000001E0000004D3834EC
:1021E00020582059205A204500526573656E643A84
:1021F00020006F6B0000F2B7F3B811241FBECFEFC1
:10220000D1E2DEBFCDBF00E00CBF14E0A0E0B2E041
:10221000E6E5FAE801E00BBF02C007900D92A63692
:10222000B107D9F723E1A6E6B4E001C01D92A034BE
:10223000B207E1F710E1CCEFD0E100E006C0219752
:102240000109802FFE010E948EC4CB3FD10780E0A0
:102250000807A9F70E94D0AF0C941AC50C9400008F
:102260002F923F924F925F926F927F928F929F92A6
:10227000AF92BF92CF92DF92EF92FF920F931F9394
:10228000CF93DF93CDB7DEB7CA57D1090FB6F89415
:10229000DEBF0FBECDBF0091C30620E6029F8001C6
:1022A00011240D5B1A4F80913D0A80FF1AC0E9EDA1
:1022B000F8E184917F013FEFE31AF30A811102C034
:1022C000780104C00E94602FF701F3CFD7018D91F0
:1022D0007D01882319F00E94602FF8CF8AE00E94C8
:1022E000602F10928B0410928A048FE380938E04E7
:1022F00010928D0410928C0410928004109281042C
:102300001092820410928304F80180810F5F1F4FA6
:102310008032D1F38E34B1F4818190ED980F9A30F0
:1023200020F08D3211F08B3269F43296DF01319654
:102330002C9120532A30D0F3CD01FC01019620814D
:102340002032D9F3F0939C0DE0939B0D7F01BFEFFA
:10235000EB1AFB0A10816AE270E0C7010E94E2C436
:10236000009731F0FC01319780818032E1F31182D6
:102370001D3429F0143519F0173409F0C5C0F701E0
:1023800080812FEFE21AF20A8032C9F380538A303B
:1023900008F0BAC010938E0420918C0430918D0403
:1023A0004AE03196429FC001439F900D1124DF0106
:1023B00011972C91022E000C330B20533109280F5A
:1023C000391F808180538A3060F330938D042093CD
:1023D0008C04CF01FC01019640814032D9F31D34B9
:1023E00091F42E313105C9F03CF427313105A9F0C3
:1023F0002C31310541F411C02537310571F0203AF7
:1024000043E0340751F000919B0D60918A04709174
:102410008B0488248394912C45C0F0938B04E09323
:102420008A0472C0413209F447C0AFEBA40FAA314D
:1024300008F065C0518140EDF42EF50EB9E0BF15EE
:1024400008F44EC0FC01EA2EF12C670143E0D5945C
:10245000C7944A95E1F7A60140585B4F6A014A2F9D
:102460004770D40102C0AA0FBB1F4A95E2F7AD0125
:10247000D6015C91452B4C93309709F43EC0E01B8C
:10248000A7014A595B4FDA01EC93AC01FA014F5FA7
:102490005F4F90819F7DD1F7CF01FC010196408174
:1024A0004032D9F3CF01019640814111BBCF7093E7
:1024B0008B0460938A0428C01D3409F0B6CF203203
:1024C000310509F0B2CF90938B0480938A0463E2C4
:1024D00070E00E94E2C40097B9F0DC011C9214C0C5
:1024E000B3EDFB2EF50EAA24A394AF1408F0AACFE7
:1024F0005B3211F00C94A626A5CFE0E0C1CF6115A8
:10250000710519F6BF01C1CF80918E048D3409F495
:10251000E0C3843511F40C946E26873411F00C94CA
:10252000892680918C0490918D048430910509F462
:10253000D9C25CF497FF02C00C94A32620917602C6
:10254000823091050CF013C117C08A35910509F44A
:102550000FC344F44C9711F00C94A3260E94C65567
:102560000C94A3268B35910509F406C38C3591058F
:1025700009F407C30C94A326222311F40C94A32678
:102580000E94E02E8091C502882321F08FE197E020
:102590000E9426A30E94552F80913D0A83FD96C07C
:1025A000C0902B07D0902C07E0902D07F0902E07BD
:1025B00020911B0730911C0740911D0750911E0769
:1025C000C701B6010E9486BD882309F47FC08091AF
:1025D000380A811137C08091BB029091BC02BC01C6
:1025E00080E090E00E948ABD9B01AC01609175097A
:1025F0007091760980917709909178090E9486BD43
:1026000087FF20C0C0921B07D0921C07E0921D07D5
:10261000F0921E07E9EDF8E184918F010F5F1F4FE3
:10262000882321F00E94602FF801F6CFE8EFF1E057
:1026300084918F010F5F1F4F882321F00E94602F2C
:10264000F801F6CFC0902B07D0902C07E0902D0713
:10265000F0902E0720911B0730911C0740911D0719
:1026600050911E07C701B6010E9486C10E94CBC2CD
:1026700097FF07C090958095709561957F4F8F4F1C
:102680009F4F693C71058105910504F1C0921B07BC
:10269000D0921C07E0921D07F0921E07E9EDF8E1C9
:1026A00084918F010F5F1F4F882321F00E94602FBC
:1026B000F801F6CFE9EDF1E084918F010F5F1F4F34
:1026C000882321F00E94602FF801F6CF20911F0788
:1026D00030912007409121075091220760910F0708
:1026E0007091100780911107909112070E9486BD8A
:1026F00081111DC0209123073091240740912507A7
:102700005091260760911307709114078091150767
:10271000909116070E9486BD811109C060912C021C
:1027200070912D0280912E0290912F021AC060911B
:102730002A0270912B02072E000C880B990B0E9425
:102740008CBD20912C0230912D0240912E0250918F
:102750002F020E94EBBD2AE037ED43E25CE30E94CA
:10276000EBBD0E94732C0E94692C0C94A32622239B
:1027700011F40C94A32611E0029709F010E00E94D6
:10278000E02E19821A821B821C821D821E821F82E9
:10279000188682E50E94B62E882309F454C10E944F
:1027A000832E6B017C0120910F073091100740911F
:1027B0001107509112072BAF3CAF4DAF5EAF809029
:1027C000130790901407A0901507B09016078091FA
:1027D0001F0790912007A0912107B091220723960F
:1027E0008CAF9DAFAEAFBFAF239720912307309141
:1027F0002407409125075091260727962CAF3DAF1F
:102800004EAF5FAF279720E030E0A901C701B601C6
:102810000E9486BD882309F42CC12BAD3CAD4DAD83
:102820005EAD23966CAD7DAD8EAD9FAD23970E94BE
:1028300086BD81110DC0A501940127966CAD7DADBB
:102840008EAD9FAD27970E9486BD882309F411C1E4
:1028500020E030E0A901C701B6010E9486BD881FB3
:102860008827881F18130BC080E090E0A0E8BFE322
:1028700067968CAF9DAFAEAFBFAF67970AC020E041
:1028800030E040E85FEB67962CAF3DAF4EAF5FAFF7
:1028900067972BAD3CAD4DAD5EAD23966CAD7DAD78
:1028A0008EAD9FAD23970E9486C12F966CAF7DAFF2
:1028B0008EAF9FAF2F97A501940127966CAD7DAD8C
:1028C0008EAD9FAD27970E9486C163966CAF7DAF9A
:1028D0008EAF9FAF63972F962CAD3DAD4EAD5FADE4
:1028E0002F97CA01B9010E94EBBD2B013C016396F1
:1028F0002CAD3DAD4EAD5FAD6397CA01B9010E94ED
:10290000EBBD9B01AC01C301B2010E9487C10E94D3
:10291000F2C32B966CAF7DAF8EAF9FAF2B9720E0AD
:1029200030E040E05FE30E94EBBD2B013C01A701DA
:102930009601C701B6010E94EBBD6B017C01A301AA
:102940009201C301B2010E94EBBD9B01AC01C70122
:10295000B6010E9486C10E94F2C39B01AC0167963A
:102960006CAD7DAD8EAD9FAD67970E94EBBD6B01E9
:102970007C0123962CAD3DAD4EAD5FAD23976BAD85
:102980007CAD8DAD9EAD0E9487C120E030E040E07F
:102990005FE30E94EBBD2B013C0163966CAD7DAD06
:1029A0008EAD9FAD639790582B962CAD3DAD4EAD3F
:1029B0005FAD2B970E9463C29B01AC01C701B601BA
:1029C0000E94EBBD9B01AC01C301B2010E9487C113
:1029D0002BAD3CAD4DAD5EAD0E9486C169837A835F
:1029E0008B839C8327962CAD3DAD4EAD5FAD279775
:1029F000C501B4010E9487C120E030E040E05FE300
:102A00000E94EBBD2B013C012B962CAD3DAD4EAD94
:102A10005FAD2B972F966CAD7DAD8EAD9FAD2F9793
:102A20000E9463C29B01AC01C701B6010E94EBBDCD
:102A30009B01AC01C301B2010E9487C1A5019401B1
:102A40000E9486C112C089E40E94B62E882331F00C
:102A50000E94832E69837A838B839C838AE40E94FD
:102A6000B62E882331F00E94832E6D837E838F8360
:102A7000988720E030E0A90169817A818B819C816F
:102A80000E9486BD81110BC020E030E0A9016D815C
:102A90007E818F8198850E9486BD882349F0612FB1
:102AA000CE0101960E94319A0E94552F0C94A326C4
:102AB000E9E8F0E184918F010F5F1F4F882321F037
:102AC0000E94602FF801F6CFE3E1F2E084918F01DC
:102AD0000F5F1F4F882311F40C94A3260E94602FD0
:102AE000F801F4CF80E50E94B62E882329F00E94D9
:102AF000432E6B017C0103C0C12CD12C760183E5F0
:102B00000E94B62E882361F00E94832E20E030E0E0
:102B10004AE754E40E94EBBD0E94D0C26B017C01E5
:102B20000E94AC760E94552F80919D0D90919E0D34
:102B3000A0919F0DB091A00DC80ED91EEA1EFB1EDC
:102B400080913202811105C060E089E292E00E942A
:102B500053940E94259ADC01CB018C199D09AE0982
:102B6000BF09B7FD02C00C94A3260E9440A5F1CF77
:102B7000109289040C94A32681E0809389040C941C
:102B8000A32685E40E94B62EB82E811102C00E94B1
:102B9000AC76FFEC8F2EF2E09F2EAFE0CA2EA7E0BE
:102BA000DA2EB5EAEB2EBDE0FB2E00E010E0A12C02
:102BB000D4018D914D010E94B62E8823F1F1F601CA
:102BC0002081318142815381EA962FAFEA97EB96BB
:102BD0003FAFEB97E8964FAFE897E9965FAFE9977D
:102BE0000E94832ED6016D937D938D939C931397B2
:102BF000EA962FADEA97EB963FADEB97E8964FAD8F
:102C0000E897E9965FADE99703301105B1F00E94AE
:102C100086C19B01AC01F701608171818281938142
:102C20000E9487C1D7016D937D938D939C931397D9
:102C3000C8010E94F12DAA24A3940F5F1F4FB4E096
:102C4000CB0ED11CE4E0EE0EF11C0430110509F0AE
:102C5000AFCFAA2019F00E94262D37C0BB20A9F1C2
:102C6000C0901B07D0901C07E0901D07F0901E0736
:102C70002091C0093091C1094091C2095091C30906
:102C8000C701B6010E94EBBD0E94B8C36093DC0A85
:102C90007093DD0A8093DE0A9093DF0AC701B601C4
:102CA0000E94CBC22FB7F8946093DC097093DD09C2
:102CB0008093DE099093DF092FBF1092CC0A109207
:102CC000CD0A1092CE0A1092CF0A0E9470330C9453
:102CD000A32680918C0490918D048F36910509F480
:102CE00083C50CF0B3C08A32910509F4C2C40CF05C
:102CF0005EC08731910509F454C28CF5823191058B
:102D000009F4A5C6FCF497FF02C00C94A3268230F8
:102D100091050CF477C1419711F00C94A32660E063
:102D200088E692E00E9453945F988A989FB7F8943F
:102D3000809108018E7F809308019FBF4798129869
:102D40000C94A3268531910509F421C20CF023C20D
:102D5000449711F00C94A326E0E8F2E0D5C18B3142
:102D6000910509F447C23CF48931910509F42EC25A
:102D70000CF421C231C28E31910509F477C274F48A
:102D80004C9711F00C94A32640E060E080918A04F7
:102D900090918B040E94BD500C94A3268F31910515
:102DA00009F4C1C3809709F479C30C94A32685352F
:102DB000910509F47FC604F58135910509F42BC608
:102DC0008CF48C34910509F49DC48D34910509F47B
:102DD0009DC48B34910511F00C94A3260E94865556
:102DE0000C94A3268335910509F42CC60CF02FC64C
:102DF000109288040C94A3268A36910509F4D6C54E
:102E0000ACF48836910509F485C40CF07BC58C358B
:102E1000910511F00C94A3268FECC82E82E0D82ED9
:102E200094EBE92E99E0F92E10E05FC68C369105FF
:102E300009F446C50CF4DDC58D36910509F47CC551
:102E40008E36910509F4BDC40C94A326833D9105EB
:102E500011F40C9487200CF06DC08C38910509F4A6
:102E600033C534F58537910509F4D3C68CF4823720
:102E7000910509F4BAC68337910509F4BCC68037B9
:102E8000910511F00C94A32686E793E00E94F3A429
:102E90008837910509F42AC78937910509F42DC7A8
:102EA0008737910511F00C94A326E2ECF4E0BAC642
:102EB000893C910509F4E5C774F48E3B910509F44A
:102EC00059C5883C910509F494C78139910511F0E1
:102ED0000C94A32618C78C3C910511F40C94791F0F
:102EE0007CF48B3C910511F00C94A3264BEDE42E61
:102EF00046E0F42E0FEC12E054E0D52ED00EE9C7D8
:102F00008D3C910511F40C94E31F8E3C910511F05A
:102F10000C94A3269FECA92E92E0B92E2FE0C22E8E
:102F200027E0D22E36E1E32E35E0F32E00E010E06C
:102F30000C944E208039F1E09F0711F40C94282561
:102F400084F58C3231E0930711F40C9472218CF4E7
:102F50008D3D910511F40C942C21823E910511F4C4
:102F60000C9445218C3D910511F00C94A3260C94F2
:102F70001F218E3251E0950711F40C943A2214F47B
:102F80000C949B218F32B1E09B0711F40C948E229C
:102F90008336914011F00C94A326E9E8F0E10C94FB
:102FA0004726853FF1E09F0711F40C943226ACF4DC
:102FB0008C3A31E0930711F40C942B25843F41E0C7
:102FC000940711F40C9419268A39914011F00C944D
:102FD000A3260E94302D0C94A326873FA1E09A07D8
:102FE00011F40C943B2614F40C943826803AE3E058
:102FF0009E0709F48BC2873E934011F40C945E2621
:103000000C94A326A0908A04B0908B0480E50E94C3
:10301000B62E882359F00E94432E6B017C0111E0EB
:10302000672B682B692B31F410E004C010E0C12C31
:10303000D12C760183E50E94B62E8823F1F00E9400
:10304000832E20E030E04AE754E40E94EBBD0E946A
:10305000D0C26B017C01111112C0672B682B692B48
:1030600071F4A114B10459F0D5018C91882339F081
:1030700061E0C5010E94729407C0112391F360E0E2
:1030800085E592E00E94539481E08093660A0E9455
:10309000AC760E94552FC114D104E104F104E9F08B
:1030A00080919D0D90919E0DA0919F0DB091A00DCE
:1030B000C80ED91EEA1EFB1E0E94259ADC01CB0118
:1030C0008C199D09AE09BF09B7FF1AC08091660A25
:1030D0008823B1F00E9440A5EFCF8091660A882333
:1030E00019F00E9440A5F9CF8091100B60E0882371
:1030F00019F086E492E002C082E392E00E945394C9
:103100001092660A0C94A32684918F010F5F1F4FC3
:10311000882321F00E94602FF801F6CF1092960DBF
:103120001092950D40E050E0BA0181E49BE00E94CE
:103130009E588BE1E1E4FBE0DE01159601900D92D3
:103140008A95E1F780913F0B9091400B9C838B8394
:103150008FE993E09A83898340E050E0BE016F5F7E
:103160007F4F84E694E00E94A39FCE0101960E94C7
:10317000D9A4E1E7F2E084918F010F5F1F4F88230C
:1031800011F40C94A3260E94602FF801F4CF0E9442
:10319000EF530C94A3261092100B1092110B0C9469
:1031A000A32640E061E080918A0490918B040E9404
:1031B000BD500C94A3268091110B882319F081E057
:1031C0008093100B0E9486550C94A3261092100B2E
:1031D0000E94F9560C94A3268091110B882311F4B8
:1031E0000C94A32683E50E94B62E81110C94AE2682
:1031F0000C94A3268091110B882351F1E1E9F2E0B0
:1032000084918F010F5F1F4F882321F00E94602F50
:10321000F801F6CF60918C0D70918D0D80918E0D1F
:1032200090918F0D4AE00E94672F8FE20E94602FDD
:103230006091880D7091890D80918A0D90918B0D10
:103240004AE00E94672F8AE00E94602F0C94A32618
:10325000E3EAF2E084918F010F5F1F4F882311F49E
:103260000C94A3260E94602FF801F4CF8091110BDB
:10327000882311F40C94A3268BED9CE00E945C58EB
:103280008BED9CE00E94EF5E10920F0B10920E0BE4
:10329000E0908A04F0908B048091110B882311F444
:1032A0000C94A3260E944E9E1D8218861C821B82AF
:1032B0008FE993E09A8389838DE39BE090935D0B84
:1032C00080935C0BF70180818F3209F068C06FE258
:1032D00070E0C7010E94E2C48C010F5F1F4F9E0186
:1032E0002F5F3F4F49010115110509F45EC06FE2E0
:1032F00070E0C8010E94E2C46C01009709F456C056
:103300000817190708F052C05C01A01AB10AA501FC
:10331000B801CE0180960E940BC5E0E2F0E0EC0F10
:10332000FD1FEA0DFB1D10828E01005E1F4FD801AC
:103330008D918D01882319F00E94602FF8CF8AE0CB
:103340000E94602F60915C0B70915D0B611571059F
:1033500011F06C5F7F4F21E0AE01405E5F4FCE0108
:1033600005960E94F75E811112C0BE01605E7F4F1C
:103370008AED92E00E9491808EE20E94602F8AE0A6
:103380000E94602FC4010E94D9A40C94A32690929D
:103390005D0B80925C0B86010F5F1F4FA4CF8EE503
:1033A0009BE090935D0B80935C0B870160915C0BBD
:1033B00070915D0B6115710511F06C5F7F4F18A264
:1033C0001BA222E0A801CE0180960E94F75E811127
:1033D00002C0F12C1EC0CE0180960E94BC9D8823A5
:1033E000C1F36CA57DA58EA59FA541E00E948D7EB1
:1033F000882379F3E8A9B0E2EB9FF0011124E35CA4
:10340000F84F309731F385EE80831BA20E941C5841
:10341000F82ECE0180960E944F2FFF2009F1E4EB99
:10342000F2E084917F012FEFE21AF20A882321F063
:103430000E94602FF701F5CFD8018D918D0188236F
:1034400019F00E94602FF8CF8AE00E94602F10923E
:103450008C0D10928D0D10928E0D10928F0D18C044
:10346000E2ECF2E084917F01BFEFEB1AFB0A8823C4
:1034700021F00E94602FF701F5CFF80181918F01B3
:10348000882319F00E94602FF8CF8EE20E94602FEF
:10349000CE0101960E94D9A40C94A3268091100B12
:1034A00081110E94AC76E0908A04F0908B0480E554
:1034B0000E94B62E182F8091110B882311F40C94C2
:1034C000A326412F61E0C7010E94BD5083E50E9401
:1034D000B62E882381F00E94532EAB01BC0140938D
:1034E0008C0D50938D0D60938E0D70938F0D8BED21
:1034F0009CE00E949E588091110B882319F081E076
:103500008093100B11110C94A3265CCE80918A0439
:1035100090918B0421E020930F0B40E060E00E942B
:10352000BD500C94A3260E946E9FECE3CE2ED12CAE
:10353000E12CF12CA70196010E944BC1762E672E3B
:10354000CA01B901A70196010E944BC16B017C0120
:10355000CA01B90128E130E040E050E00E944BC1CF
:103560004B015C01C9016DE671E00E944BC48E0104
:103570000F5F1F4F6115710599F06F927F92DF9277
:10358000CF929F928F929F938F937F936F9386E1B9
:1035900093E09F938F931F930F930E941FBD12C0C0
:1035A0000097B1F06F927F92DF92CF929F928F92AD
:1035B0009F938F9386E093E09F938F931F930F9336
:1035C0000E941FBD0FB6F894DEBF0FBECDBF36C040
:1035D00081149104A104B10479F06F927F92DF927B
:1035E000CF929F928F928AEF92E09F938F931F9337
:1035F0000F930E941FBDE6CFC114D104E104F10472
:1036000069F06F927F92DF92CF9282EF92E09F9368
:103610008F931F930F930E941FBDD4CF6F927F9201
:103620008EEE92E09F938F931F930F930E941FBD86
:103630000F900F900F900F900F900F9060E0C801C7
:103640000E947294E9EDF8E184917F01BFEFEB1ADB
:10365000FB0A882321F00E94602FF701F5CFB80103
:103660008AE293E00E9491808AE00E94602F0C948D
:10367000A32683E50E94B62E882311F40C94A3267A
:103680000E94532E4B015C016F3F710519F010F041
:103690000C94A32680E50E94B62E882339F00E9460
:1036A000532E8B0177FF04C00C94A3260DE010E08D
:1036B000F02EE3EDF2E0C80199272191319128170E
:1036C000390731F023E0E932F207B9F70C94BE264E
:1036D000E9E8F0E184918F010F5F1F4F882321F00B
:1036E0000E94602FF801F6CFE7E3F3E084918F01A9
:1036F0000F5F1F4F882311F40C94A3260E94602FA4
:10370000F801F4CF0E94F9560C94A3260E94599E0A
:103710000C94A32688E690E00E94E72F81110C9478
:10372000A32680913D0A83FF02C00C94A32683E563
:103730000E94B62E882309F440C00E94832E0E9466
:10374000CBC27093980A6093970A80E00E9406713A
:103750000E94832E20E030E04AEA52E40E9486BDB7
:1037600018163CF00E94599E60E08DE493E00E94A0
:1037700053940E94832E20917509309176094091CF
:103780007709509178090E94ADC31816B4F48CEDF6
:1037900093E09F938F938091840490E001969F9390
:1037A0008F9386E493E09F938F931F920E946B55B3
:1037B0000FB6F894DEBF0FBECDBF0E94DAB40C94F2
:1037C000A3268EE40E94B62E882311F40C94A3261F
:1037D0000E94532E609336137093371380933813DF
:1037E000909339130C94A32683E50E94B62E882368
:1037F00019F00E94632E01C080E080933D0AE9ED3C
:10380000F8E184918F010F5F1F4F882321F00E9400
:10381000602FF801F6CFEFE6F3E084918F010F5FA0
:103820001F4F882321F00E94602FF801F6CF80916E
:103830003D0A8823A1F161E6C62E63E0D62EE12C75
:10384000F12C20E080913D0A90E00E2C02C095956D
:1038500087950A94E2F780FF17C0BB24B394B20E99
:10386000222319F08CE20E94602FF60125913491F9
:10387000F901849189010F5F1F4F882321F00E9475
:10388000602F9801F5CF2B2DFFEFEF1AFF0A32E0E2
:10389000C30ED11C45E0E416F104A1F60CC0EBE622
:1038A000F3E084918F010F5F1F4F882321F00E9466
:1038B000602FF801F6CF8AE00E94602F0C94A326B7
:1038C00010926F020C94A32680913D0A83FF02C0E0
:1038D0000C94A32683E50E94B62E882311F40C9441
:1038E000A3260E94832E0E94CBC26F36710514F06E
:1038F0006EE670E07093960A6093950A0E94BB7022
:103900000C94A32689E690E00E94E72F81110C9485
:10391000D52BEFE7F3E084918F010F5F1F4F8823D2
:1039200021F00E94602FF801F6CF0E9420348AE037
:103930000E94602F0C94D52B8DE690E00E94E72F1B
:1039400081110C94A32680913D0A83FF02C00C9440
:10395000A32683E50E94B62E24968FAF249781116B
:103960000C94D22682E50E94B62E81110C94D226A8
:103970000C94A32680913D0A83FF02C00C94A326D9
:1039800060E083EC93E00E94539483E50E94B62E9E
:1039900024968FAF249781110C946A2882E50E94A7
:1039A000B62E81110C946A280C94A32683E50E94FC
:1039B000B62E882321F00E94532E8B0102C00FEFF8
:1039C00010E080E50E94B62E882331F00E94532E2D
:1039D000672B11F00C94A326C8010F3F110519F0B5
:1039E00010F08FEF90E090939A0A8093990A0C94CC
:1039F000A32680E50E94B62E811106C010929A0A75
:103A00001092990A0C94A3260E94532E672B11F052
:103A10000C94A326F3CF0E9451710E94AC760E94B1
:103A2000E1A410929A0A1092990A68EE73E080E07D
:103A300090E00E94DE9360E080ED93E00E9453945A
:103A40000C94A32681E0809388040C94A32683E53C
:103A50000E94B62E8823A1F00E94832E20E030E041
:103A60004AE754E40E94EBBD0E94D0C26093C602B4
:103A70007093C7028093C8029093C9020C94A32646
:103A800088E50E94B62E81110C94D32989E50E9405
:103A9000B62E81110C94D3298AE50E94B62E81118D
:103AA0000C94D32985E40E94B62E81110C94D3295D
:103AB0000C94F92983E50E94B62E882311F40C9406
:103AC000A3260E94832E20E030E04AE754E40E94BF
:103AD000EBBD0E94D0C26093A10D7093A20D8093A4
:103AE000A30D9093A40D0C94A326D6018D916D0186
:103AF0000E94B62E882309F46DC0133009F063C00C
:103B00000E94832E4B015C0120E030E040EA51E44A
:103B10000E9486BD87FF4EC0A50194016091C00937
:103B20007091C1098091C2099091C3090E9463C23A
:103B30002B013C019B01AC016091B0097091B1096E
:103B40008091B2099091B3090E94EBBD6093B009D6
:103B50007093B1098093B2099093B309A3019201C4
:103B60006091E7067091E8068091E9069091EA0677
:103B70000E94EBBD6093E7067093E8068093E90628
:103B80009093EA0660914A0A70914B0A80914C0A20
:103B900090914D0A0E948ABDA30192010E94EBBD43
:103BA0000E94D0C260934A0A70934B0A80934C0AD9
:103BB00090934D0A8092C0099092C109A092C209C7
:103BC000B092C30907C00E94832EF70160837183FE
:103BD000828393831F5FF4E0EF0EF11C143009F031
:103BE00084CF0E94E6810C94A3260E94AC760E94AA
:103BF00070330C94A326E2EEF3E084918F010F5F03
:103C00001F4F882311F40C94A3260E94602FF80103
:103C1000F4CF60E080918A0490918B040E947294AA
:103C20000C94A32684918F010F5F1F4F882321F0EE
:103C30000E94602FF801F6CFEAEBF4E084918F0147
:103C40000F5F1F4F882321F00E94602FF801F6CFED
:103C5000659B03C009EC13E002C00EEC13E0D80131
:103C60008D918D01882319F00E94602FF8CF8AE092
:103C70000E94602FE2EBF4E084918F010F5F1F4FF1
:103C8000882321F00E94602FF801F6CF8091030174
:103C900081FF03C009EC13E002C00EEC13E0F80151
:103CA00081918F01882319F00E94602FF8CF8AE05C
:103CB0000E94602FEAEAF4E084918F010F5F1F4FAA
:103CC000882321F00E94602FF801F6CF4B9B03C0A0
:103CD00009EC13E002C00EEC13E0D8018D918D01C8
:103CE000882309F4E8CD0E94602FF7CF81E080930C
:103CF000300280930E070C94A3261092300210928B
:103D00000E070C94A32683E50E94B62E8823F9F0B3
:103D10000E94532E162F6230D8F0E9E8F0E184912A
:103D20008F010F5F1F4F882321F00E94602FF80141
:103D3000F6CFECEDF4E084918F010F5F1F4F8823E5
:103D400011F40C94A3260E94602FF801F4CF10E028
:103D500088E40E94B62E8823A9F00E94532EE12FFA
:103D6000F0E06A3A710534F0663F71052CF065EFBA
:103D700070E002C06AEA70E0EE0FFF1FE553F94FF2
:103D80007183608386E40E94B62E8823B1F00E947E
:103D9000532EE12FF0E0EE0FFF1FE153F94F718337
:103DA00060836F3F710519F014F06FEF70E077FFDB
:103DB00002C060E070E07183608382E40E94B62EEE
:103DC000882309F4C0C70E94532EE12FF0E065302C
:103DD000710534F0603671052CF06FE570E002C0BB
:103DE00065E070E0EE0FFF1FE953F94F71836083C8
:103DF000AAC788EC90E00E94E72F8111A4C784E451
:103E00000E94B62E8823D1F10E94832E11E020E07B
:103E100030E0A9010E9486BD811101C010E010931D
:103E2000C409112359F10091840410E00E94832EEB
:103E3000000F111F000F111FF801EE58FD4F608396
:103E400071838283938320E030E0A9016091720244
:103E50007091730280917402909175020E9486BDE8
:103E600081110CC080E090E0A0E4B0E48093720285
:103E700090937302A0937402B09375020E948CA178
:103E800062C768E8E62E69E0F62E0FEC12E074E0F7
:103E9000D72ED00EF80181918F010E94B62E882373
:103EA00051F00E94832E0E94D0C2D7016D937D9362
:103EB0008D939C931397B4E0EB0EF11CD012EACFD4
:103EC0000E94B98040C7B4E0EB0EF11CD01609F493
:103ED0003AC7F80181918F010E94B62E882399F389
:103EE0000E94832ED7016D937D938D939C9313979E
:103EF000EACF83E50E94B62E8823D9F00E94832E54
:103F0000AB01BC014093A0095093A1096093A209A1
:103F10007093A309409398095093990960939A0963
:103F200070939B0988E595E00E945B808AE00E947F
:103F3000602F80E50E94B62E882399F00E94832E80
:103F4000AB01BC014093A0095093A1096093A20961
:103F50007093A3098BE395E00E945B808AE00E9446
:103F6000602F82E50E94B62E882399F00E94832E4E
:103F7000AB01BC0140939C0950939D0960939E093D
:103F800070939F098CE195E00E945B808AE00E941B
:103F9000602F84E50E94B62E882309F4D4C60E94BF
:103FA000832EAB01BC01409398095093990960930B
:103FB0009A0970939B098EEF94E00E945B808AE0DF
:103FC0000E94602FC0C683E50E94B62E882351F060
:103FD0000E94832E6093D7067093D8068093D906EB
:103FE0009093DA0684E50E94B62E882351F00E9451
:103FF000832E6093D3067093D4068093D506909356
:10400000D60682E40E94B62E882351F00E94432EE9
:104010006093390A70933A0A80933B0A90933C0A62
:1040200088E50E94B62E882351F00E94832E60936B
:10403000A4097093A5098093A6099093A70989E51F
:104040000E94B62E882351F00E94832E6093A80907
:104050007093A9098093AA099093AB098AE50E94FD
:10406000B62E882351F00E94832E6093AC09709382
:10407000AD098093AE099093AF0985E40E94B62EF6
:10408000882309F460C60E94832E6093B009709360
:10409000B1098093B2099093B30955C6F501819196
:1040A0005F010E94B62E882311F10E94832E2B01FE
:1040B0003C01D7012D913D914D915C910E9486C1AB
:1040C0009B01AC01F60160817181828193810E9424
:1040D00087C1D6016D937D938D939C931397F701C0
:1040E0004082518262827382C8010E94F12D0F5F6B
:1040F0001F4FF4E0CF0ED11C24E0E20EF11C033080
:10410000110561F60E94262D0E9470331CC6E9ED50
:10411000F8E184918F010F5F1F4F882321F00E94E7
:10412000602FF801F6CF83E50E94B62E882321F098
:104130000E94742E8093C502E8EAF5E084918F0115
:104140000F5F1F4F882321F00E94602FF801F6CFE8
:104150008091C502811103C0E4EAF5E002C0E0EA03
:10416000F5E084918F010F5F1F4F882321F00E949B
:10417000602FF801F6CFE8E9F5E084918F010F5F39
:104180001F4F882321F00E94602FF801F6CF409145
:10419000F7065091F8066091F9067091FA0686E9E3
:1041A00095E00E945B804091FB065091FC06609177
:1041B000FD067091FE0683E995E00E945B804091C8
:1041C000FF0650910007609101077091020780E996
:1041D00095E00E945B80E8E8F5E084918F010F5F35
:1041E0001F4F882321F00E94602FF801F6CF4091E5
:1041F0001E0250911F02609120027091210286E8F8
:1042000095E00E945B8040912202509123026091D0
:1042100024027091250283E895E00E945B80409122
:10422000260250912702609128027091290280E8AD
:1042300095E00E945B808AE00E94602F84C583E540
:104240000E94B62E882309F47EC50E94532E7093D7
:104250002B0260932A0277C58DED90E00E94E72F34
:10426000811171C583E50E94B62E882309F46BC5C0
:104270000091840410E00E94532E000F111FF801DA
:10428000E059FD4F718360835EC580E50E94B62EC4
:10429000882309F458C50E94532EF62EC62ED72E19
:1042A00083E50E94B62E882321F00E94532E8B01B5
:1042B00002C00FEF1FEFC8010196039708F043C536
:1042C000D7FC41C5E3EDF2E08F2D90E021913191D3
:1042D0002817390709F437C533E0E932F307B1F796
:1042E0000C94AE2B83E50E94B62E882319F00E9411
:1042F000532E02C064E071E079A368A380E50E94B8
:10430000B62E882339F00E94532E693843E1740792
:1043100030F402C068EE73E07A83698304C088E8F1
:1043200093E19A838983BE01605E7F4FCE0101963F
:104330000E94375508C585E40E94B62E811110C031
:1043400080E50E94B62E882399F00E94832E609308
:10435000060270930702809308029093090208C036
:104360000E94532E161617065CF7E9E8F0E171C0BB
:1043700089E40E94B62E882381F00E94832E2CEAC5
:1043800035EC47E25EE30E94EBBD60930E02709352
:104390000F02809310029093110284E40E94B62EC3
:1043A000882381F00E94832E2CEA35EC47E25EE3FD
:1043B0000E9463C260930A0270930B0280930C0206
:1043C00090930D02E9EDF8E184918F010F5F1F4F8B
:1043D000882321F00E94602FF801F6CF4091060259
:1043E00050910702609108027091090280EC95E0FB
:1043F0000E945B802CEA35EC47E25EE360910E029E
:1044000070910F0280911002909111020E9463C27C
:10441000AB01BC018CEB95E00E943E802CEA35ECB0
:1044200047E25EE360910A0270910B0280910C02F8
:1044300090910D020E94EBBDAB01BC0188EB95E0B1
:104440000E943E808AE00E94602F7DC40E94602FFF
:10445000F80184918F010F5F1F4F8111F7CF07EE95
:1044600013E0D8018D918D01882309F424CA0E949C
:10447000602FF7CF83E50E94B62E182F882371F0A6
:104480000E94832E0E94D0C27093BC026093BB0234
:1044900021E0672B09F020E02093380A80E50E9494
:1044A000B62E882359F02091BB023091BC02232BF9
:1044B00011F00E94742E8093380A45C4111143C430
:1044C000E9EDF8E184918F010F5F1F4F882321F000
:1044D0000E94602FF801F6CF8091380A811103C045
:1044E00068ED73E002C06BEC73E089ED95E00E942B
:1044F00091806091BB027091BC0288EC95E00E94B3
:104500007880E4ECF5E084918F010F5F1F4F8823E2
:1045100009F419C40E94602FF801F5CF85E40E94C8
:10452000B62E882321F00E94532E8B0102C000E09A
:1045300010E083E40E94B62E882339F00E94532EA7
:10454000E3967FAF6EAFE39706C0E5E0F0E0E39659
:10455000FFAFEEAFE39785E50E94B62EA8968FAF2A
:10456000A897882329F00E94742EA8968FAFA89749
:1045700083E50E94B62E882331F00E94832E0E948C
:10458000CBC27B0105C017FD09C0B6E9EB2EF12CAB
:104590000115110531F41092840403C0A6E4EA2E3B
:1045A000F12C0E94259A4B015C01012B19F408EFB4
:1045B00013E00BC00BE014E0D8018D918D0188232E
:1045C00009F479C90E94602FF7CFF80181918F011A
:1045D000882319F00E94602FF8CFB701FF0C880BD9
:1045E000990B0E948CBD28966FAF28972C967FAFB1
:1045F0002C9760968FAF609764969FAF64978AE020
:104600000E94602F0E9451718FE78093E20981E040
:1046100080936F02AD968CAE9DAEAEAEBFAEAD9741
:10462000E7968CAE9DAEAEAEBFAEE79768961FAE76
:104630006897F0E46996FFAF69972CE16A962FAF0F
:104640006A9736E46B963FAF6B976C961FAE6C978C
:104650006D961FAE6D976E961FAE6E976F961FAEDE
:104660006F97A7961CAE1DAE1EAE1FAEA797A39662
:104670001CAE1DAE1EAE1FAEA397C12CD12C760171
:10468000FFE74F2E512C612C712C8FE790E0A0E0BA
:10469000B0E023968CAF9DAFAEAFBFAF2397E1964E
:1046A0001CAE1DAE1EAE1FAEE19791E0A9969FAF66
:1046B000A99725961FAE1EAE2597212C312C00E020
:1046C00010E080916F02882309F4BBC10E94259AF3
:1046D0006BAF7CAF8DAF9EAF8091E009882309F46A
:1046E000C5C00E94E9742090750930907609009148
:1046F0007709109178099101A8016C966FAD6C97BC
:104700006D967FAD6D976E968FAD6E976F969FADE0
:104710006F970E9486BD87FF0CC06C962FAE6C977A
:104720006D963FAE6D976E960FAF6E976F961FAFFB
:104730006F979101A80168966FAD689769967FADF4
:1047400069976A968FAD6A976B969FAD6B970E943B
:10475000ADC3181664F468962FAE689769963FAE9D
:1047600069976A960FAF6A976B961FAF6B97A9967A
:10477000AFADA99728962FAD28972C963FAD2C97D3
:1047800060964FAD609764965FAD6497B101C801C4
:10479000AA2309F451C00E94ADC318160CF066C0DC
:1047A0004BAD5CAD6DAD7EAD481959096A097B0909
:1047B000DB01CA0188589341A109B109B7FD56C070
:1047C00023968CAD9DADAEADBFAD239784199509F1
:1047D000A609B709B595A795979587958093E2099E
:1047E000E1964CAF5DAF6EAF7FAFE1972896BFAD5E
:1047F00028976C96BFAF6C972C96EFAD2C976D9663
:10480000EFAF6D976096FFAD60976E96FFAF6E97B6
:1048100064962FAD64976F962FAF6F978BAD9CAD5D
:10482000ADADBEADAD968CAF9DAFAEAFBFAFAD97EA
:10483000A9961FAEA9971AC00E9486BD87FF16C011
:104840008BAD9CADADADBEADAD962CAD3DAD4EAD21
:104850005FADAD97821B930BA40BB50BAC01BD01F3
:10486000485853416109710977FFC8C520E030E01D
:1048700040EA51E428966FAD28972C967FAD2C978F
:1048800060968FAD609764969FAD64970E9487C1D4
:104890009B01AC01B101C8010E94ADC318166CF4B4
:1048A000E6EAF6E084918F010F5F1F4F882309F439
:1048B0004AC20E94602FF801F5CF80E398EFAFEF76
:1048C000BFEFE7962CAD3DAD4EAD5FADE797821BD8
:1048D000930BA40BB50B2BAD3CAD4DAD5EAD820F74
:1048E000931FA41FB51FB7FD0FC00E9420348AE09C
:1048F0000E94602F8BAD9CADADADBEADE7968CAF89
:104900009DAFAEAFBFAFE7978BAD9CADADADBEADCC
:10491000880F991FAA1FBB1FAD962CAD3DAD4EADA4
:104920005FADAD97821B930BA40BB50B881999094A
:10493000AA09BB0981389F44A241B10568F0E8E8A3
:10494000F6E084918F010F5F1F4F882309F4FBC1AC
:104950000E94602FF801F5CF25964EAD5FAD2597EB
:10496000E3968EAD9FADE397841795070CF066C074
:10497000EBE2F6E084918F010F5F1F4F882321F057
:104980000E94602FF801F6CFB701A60186E196E0FC
:104990000E945B808AE00E94602FA3964CAD5DADC3
:1049A0006EAD7FADA39781E096E00E945B808AE0C8
:1049B0000E94602FA7964CAD5DAD6EAD7FADA79701
:1049C0008CEE95E00E945B808AE00E94602FA896A2
:1049D000AFACA897AA2009F4B6C1C0920602D09243
:1049E0000702E0920802F09209022CEA35EC47E255
:1049F0005EE3A3966CAD7DAD8EAD9FADA3970E9497
:104A0000EBBD60930E0270930F028093100290939F
:104A100011022CEA35EC47E25EE3A7966CAD7DAD62
:104A20008EAD9FADA7970E9463C260930A027093F8
:104A30000B0280930C0290930D0285C10E94839417
:104A400040CE80916F0281117EC10E9451717BC165
:104A50000E94AC7678C186E1C82E85E0D82E9FE012
:104A6000E92E97E0F92E2DE7222E29E0322E00E0E4
:104A700010E091012D5739403CAF2BAFD1018D9102
:104A80001D01882309F4A4C0F801E25EFD4F2081D6
:104A9000318142815381F801E950F94F6081718180
:104AA000828193810E9487C120E030E040E05FE393
:104AB0000E94EBBD9B01AC01F70160817181828195
:104AC00093810E94ADC3181644F4C8018C56964ECB
:104AD0000E94EB2D4B015C0103C0812C912C5401F1
:104AE000D7014D905D906D907C90F801E15DF84F9D
:104AF0002081318142815381C301B2010E9486C16C
:104B00009B01AC01C501B4010E9486C14B015C014F
:104B100020E030E040EA51EC0E94ADC387FD29C09F
:104B200020E030E040EA51E4C501B4010E9486BDB6
:104B30001816FCF0F6012081318142815381C501B4
:104B4000B4010E9486C19B01AC01C301B2010E9465
:104B500087C1D7016D937D938D939C931397F60135
:104B600080829182A282B3828BAD9CAD0E94F12D96
:104B70002FC0E9E8F0E184918F010F5F1F4F882378
:104B800021F00E94602FF801F6CFE8E3F7E084916E
:104B90008F010F5F1F4F882321F00E94602FF801C3
:104BA000F6CF61E08AE297E00E9453940E94626F20
:104BB00088E290E09A83898388EC90E099A388A3A7
:104BC000BE016F5F7F4FCE0180960E943755BBC0FC
:104BD000F4E0CF0ED11C0C5F1F4F24E0E20EF11C5D
:104BE0000C30110509F045CF31D70E94703360E0D9
:104BF0008AE197E00E94539483E992E099A388A305
:104C000004E610E01A830983BE01605E7F4FCE0187
:104C100001960E9437558AEB92E099A388A31A83E4
:104C20000983BE01605E7F4FCE0101960E94375519
:104C30008AC0E9E8F0E184918F010F5F1F4F88235C
:104C400021F00E94602FF801F6CFE6E5F7E08491AD
:104C50008F010F5F1F4F882309F475C00E94602FDA
:104C6000F801F5CF0E941A7D80E00E94A8796BC000
:104C70000E941A7D68C083E50E94B62E882321F029
:104C80000E94742E91E089270E94A8795CC08491CB
:104C90008F010F5F1F4F882321F00E94602FF801C2
:104CA000F6CFE7E6F7E084918F010F5F1F4F88236F
:104CB00009F449C00E94602FF801F5CF81E080938C
:104CC000760210923C0783E50E94B62E882309F4F1
:104CD00042C50E94742E811136C03DC580918C045E
:104CE0008093A30AE9EDF8E184918F010F5F1F4FD4
:104CF000882321F00E94602FF801F6CF6091A30A6B
:104D000070E086E797E00E9478808AE00E94602F3A
:104D10001AC0E9EDF8E184918F010F5F1F4F8823DE
:104D200021F00E94602FF801F6CF60919B0D7091E9
:104D30009C0D88E897E00E94918082E20E94602F9B
:104D40008AE00E94602F0E94BAAE2FC561157105DE
:104D500009F4BF01E0E0F0E00C942312A4D7AB010A
:104D6000BC0140938C0D50938D0D60938E0D70930C
:104D70008F0D8BED9CE00E949E58E5CF61E08F2D5A
:104D80000E94EA98682D8F2D0E94BB98B4018F2D48
:104D90000E94269909301105B1F690929A0A8092E4
:104DA000990AD1CFB0D70E94CBC27093980A609372
:104DB000970A80E00E940671A6D720E030E04AEA18
:104DC00052E40E9486BD181644F00E94599E60E08D
:104DD0008EE993E00E94539402C00E948655609130
:104DE000970A7091980A072E000C880B990B0E9465
:104DF0008CBD2091750930917609409177095091C9
:104E000078090E94ADC31816B4F48CED93E09F931B
:104E10008F938091840490E001969F938F9387E90C
:104E200093E09F938F931F920E946B550FB6F89457
:104E3000DEBF0FBECDBF0E94DAB481E080936F0267
:104E400023961CAE1DAE1EAE1FAE23972B961CAE36
:104E50001DAE1EAE1FAE2B971BAE2C961FAE2C9711
:104E60009CE360969FAF6097ACE16496AFAF6497A8
:104E7000B6E46896BFAF6897C12CD12C40E8E42E09
:104E80005FEBF52E812C912C54016091970A709163
:104E9000980A072E000C880B990B0E948CBD162FC8
:104EA000072F782E692E262F372F482F592FB6011E
:104EB000C7010E9486BD882321F120917509309198
:104EC00076094091770950917809612F702F872DCD
:104ED000962D0E9486BD881F8827881F8BAF249639
:104EE000EFAC2497EE2089F0882379F080916F024F
:104EF000882309F428CF60E082E893E00E9453946D
:104F000022CF1C2D0D2D7E2C6F2C0E94259A6B011B
:104F10007C01DC01CB012B962CAD3DAD4EAD5FADE0
:104F20002B97821B930BA40BB50BB7FD44C0D70185
:104F3000C60188519C4FAF4FBF4F2B968CAF9DAF92
:104F4000AEAFBFAF2B970E942034E3E9F3E084912A
:104F50002F019FEF491A590A882319F0B1D7F2019E
:104F6000F6CF81149104A104B104C9F0D501C401A4
:104F7000805F984DAF4FBF4FBC01CD016C197D09CB
:104F80008E099F0928EE33E040E050E00E944BC1BB
:104F9000CA01B9010E94CD2F8AE092D70CC0E0E986
:104FA000F3E084912F01AFEF4A1A5A0A882319F0CF
:104FB00087D7F201F6CF0E9440A577D720907509D8
:104FC0003090760940907709509078099101A201BC
:104FD000612F702F872D962D0E9486C19F77811497
:104FE0009104A104B10449F420E030E040E85FE31B
:104FF0000E9486BD87FF0BC008C020E030E040E47F
:1050000050E40E94ADC3181614F446015701BBAD1D
:10501000BB2309F443C023962CAD3DAD4EAD5FAD2F
:105020002397211531054105510541F0D701C601EE
:10503000821B930BA40BB50BB7FD30C09101A201ED
:105040002C966FAD2C9760967FAD609764968FAD70
:10505000649768969FAD68970E9486C120E030E013
:1050600040EC5FE30E9486BD87FD40CFD701C601BB
:10507000805A9541AF4FBF4F23968CAF9DAFAEAFD7
:10508000BFAF23972C962FAE2C9760963FAE6097BC
:1050900064964FAE649768965FAE689780916F0292
:1050A000882309F423CF81149104A104B10429F4C5
:1050B000C12ED02EE72CF62CE8CE90E1C91A97E24B
:1050C000D90AE108F108C818D908EA08FB08F7FE70
:1050D0000DCFEECF18D60E94CBC26F36710514F0FB
:1050E0006EE670E07093960A6093950A0E94BB701A
:1050F0000AD620E030E040EA50E40E94ADC3181622
:1051000014F40E94865581E080936F028091A30A77
:105110008093840423961CAE1DAE1EAE1FAE239753
:105120002B961CAE1DAE1EAE1FAE2B971BAE2C9643
:105130001FAE2C97ACE36096AFAF6097BCE164966E
:10514000BFAF6497E6E46896EFAF6897C12CD12CA7
:1051500020E8E22E3FEBF32E812C912C540160913C
:10516000950A7091960A072E000C880B990B0E94E5
:105170008CBD162F072F782E692E262F372F482FFC
:10518000592FB601C7010E9486BD882321F12091C5
:10519000790930917A0940917B0950917C09612FFE
:1051A000702F872D962D0E9486BD881F8827881F07
:1051B0008BAF2496EFAC2497EE2089F0882379F00A
:1051C00080916F02882309F4BECD60E082EB93E00A
:1051D0000E945394B8CD1C2D0D2D7E2C6F2C0E9457
:1051E000259A6B017C01DC01CB012B962CAD3DADEA
:1051F0004EAD5FAD2B97821B930BA40BB50BB7FD88
:1052000043C0D701C60188519C4FAF4FBF4F2B966B
:105210008CAF9DAFAEAFBFAF2B970E942034EFEBAA
:10522000F3E084912F019FEF491A590A882319F05E
:1052300047D6F201F6CF81149104A104B104C1F064
:10524000D501C401805F984DAF4FBF4FBC01CD0168
:105250006C197D098E099F0928EE33E040E050E08B
:105260000E944BC1CA01B90198D68AE029D60CC068
:10527000ECEBF3E084912F01AFEF4A1A5A0A88232E
:1052800019F01ED6F201F6CF0E9440A50ED620904E
:10529000790930907A0940907B0950907C099101FE
:1052A000A201612F702F872D962D0E9486C19F77B6
:1052B00081149104A104B10449F420E030E040E8F5
:1052C0005FE30E9486BD87FF0BC008C020E030E08E
:1052D00040E450E40E94ADC3181614F4460157018F
:1052E000BBADBB2309F443C023962CAD3DAD4EAD01
:1052F0005FAD2397211531054105510541F0D701D7
:10530000C601821B930BA40BB50BB7FD30C09101F6
:10531000A2012C966FAD2C9760967FAD6097649636
:105320008FAD649768969FAD68970E9486C120E014
:1053300030E040EC5FE30E9486BD87FD41CFD7019E
:10534000C601805A9541AF4FBF4F23968CAF9DAF9A
:10535000AEAFBFAF23972C962FAE2C9760963FAE83
:10536000609764964FAE649768965FAE6897809139
:105370006F02882309F424CF81149104A104B1049D
:1053800029F4C12ED02EE72CF62CE9CE90E1C91AD3
:1053900097E2D90AE108F108C818D908EA08FB0819
:1053A000F7FE0ECFEECF0E94AC7688E5DFD48823DF
:1053B00019F05F9A1092130589E5D8D4882319F063
:1053C0008A9A109214058AE5D1D4882359F09FB7A0
:1053D000F894809108018160809308019FBF479AEB
:1053E0001092150585E4C2D4882309F4ACCC129A36
:1053F000AACC0E94AC760E94E1A4A5CC2596AEACC6
:10540000BFAC25971A141B040CF06BC1E1968CAC51
:105410009DACAEACBFACE197880E991EAA1EBB1E18
:10542000E1962CAD3DAD4EAD5FADE197281B390B3C
:105430004A0B5B0BCA01B901A30192010E943CC156
:10544000A50194010E9472C423964CAC5DAC6EAC75
:105450007FAC2397420E531E641E751E34E1431623
:105460005104610471041CF14CEE441651046104B2
:1054700071043CF450E845165104610471043CF198
:1054800005C06BEE462E512C612C712C23964CAE30
:105490005DAE6EAE7FAE23978EEF90E0A0E0B0E001
:1054A00084199509A609B7092C013D0116C024E10C
:1054B00030E040E050E023962CAF3DAF4EAF5FAF01
:1054C000239754E1452E512C612C712C06C0239654
:1054D0004CAE5DAE6EAE7FAE2397E2E1F7E0849115
:1054E0009F012F5F3F4F882379F0EA962FAFEA970D
:1054F000EB963FAFEB97E4D4EA962FADEA97EB96A5
:105500003FADEB97F901EBCF23966CAD7DAD8EAD42
:105510009FAD239742D5EDE0F7E084919F012F5F87
:105520003F4F882379F0EA962FAFEA97EB963FAF8B
:10553000EB97C6D4EA962FADEA97EB963FADEB9783
:10554000F901EBCFC301B20128D568964FAD68973A
:1055500069965FAD69976A966FAD6A976B967FADF6
:105560006B9786E097E00E945B806C964FAD6C97DE
:105570006D965FAD6D976E966FAD6E976F967FADC2
:105580006F978FEF96E00E945B8025964EAD5FADE2
:105590002597433051050CF4A4C0C301B2010E9409
:1055A0008CBD20E030E040E850E40E94EBBD6B0190
:1055B0007C0168962FAD689769963FAD69976A96AA
:1055C0004FAD6A976B965FAD6B976C966FAD6C97AE
:1055D0006D967FAD6D976E968FAD6E976F969FAD02
:1055E0006F970E9486C12BED3FE049E450E40E9492
:1055F000EBBD20E030E040E05FE30E94EBBD9B01AB
:10560000AC01C701B6010E9463C26B017C01C501F8
:10561000B4010E948CBD2FE632E143E85AE30E94B8
:10562000EBBD4B015C01B701A60189EF96E00E943A
:105630005B80B501A40183EF96E00E945B802AE9BC
:1056400039E949E15FE3C701B6010E94EBBD6B0197
:105650007C019B01AC010E9487C1A50194010E94BD
:1056600063C2A3966CAF7DAF8EAF9FAFA397A5012A
:105670009401C701B6010E94EBBD20E030E040E09C
:105680005EE30E94EBBDA7966CAF7DAF8EAF9FAF80
:10569000A797E3EEF6E084915F015FEFA51AB50AE4
:1056A000882319F00DD4F501F6CFB701A6018DEDD1
:1056B00096E00E945B80A3964CAD5DAD6EAD7FAD74
:1056C000A39787ED96E00E945B80A7964CAD5DADF9
:1056D0006EAD7FADA79781ED96E00E945B808AE07A
:1056E000EFD323968CAD9DADAEADBFAD2397840DAA
:1056F000951DA61DB71DB595A79597958795809380
:10570000E20925968EAD9FAD2597019625969FAF10
:105710008EAF25972896AFAC28976896AFAE68975E
:105720002C96BFAC2C976996BFAE69976096AFACCC
:1057300060976A96AFAE6A976496BFAC64976B96B3
:10574000BFAE6B978BAC9CACADACBEAC21E0A99668
:105750002FAFA9978BC80E94D9AEF5CA0E94AC762C
:1057600060E08F2D0E94EA980F3F3FEF130759F436
:105770008F2D0E94939831E020E0892B09F030E0D2
:10578000032F122F05C00130110561F000E010E079
:105790008F2D0E9493988017910709F4D4CA0E9414
:1057A00040A5F6CF01E010E0F3CFC658DF4F0FB6AB
:1057B000F894DEBF0FBECDBFDF91CF911F910F9147
:1057C000FF90EF90DF90CF90BF90AF909F908F9021
:1057D0007F906F905F904F903F902F9008959091A1
:1057E0008009E92FF0E0EE5DFA4F80839F5F9430EF
:1057F00018F49093800902C0109280098091C40629
:105800008F5F8093C40608958FB7F89490913513F5
:1058100020913413291759F0E92FF0E0EC54FD4E94
:10582000208130E09F5F9F779093351302C02FEF68
:105830003FEF8FBFC90108950F931F93CF93DF935D
:10584000EC010E94259A0E811F812885398501155A
:1058500011052105310559F52C852223A9F13A8539
:1058600021502C8721E0230F2A874D85241301C066
:105870001A86FE0124E0329FE00DF11D11240685F9
:105880001785208931890A831B832C833D83DC01A2
:10589000CB01800F911FA11DB11D8E839F83A8870F
:1058A000B9878C819D81892B79F0409A0DC0DC01EC
:1058B000CB01801B910BA20BB30BB7FD05C0409829
:1058C0001E821F8218861986DF91CF911F910F913A
:1058D000089580E1EFE1F7E0AFE0B7E001900D92CD
:1058E0008A95E1F70895CF92EF92FF920F931F935D
:1058F000C090A30A7B018C012BE237E047E257E01E
:1059000063E277E08FE197E00E9410821F910F9190
:10591000FF90EF90CF900895CF92EF92FF920F9368
:105920001F93E0902C02F0902D0200912E02109116
:105930002F02C090A30A2BE137E047E157E063E173
:1059400077E08FE097E00E9410821F910F91FF9007
:10595000EF90CF900895CF93FC0180818B33A1F01D
:105960008091C406843080F4C62FBF0180918009E5
:1059700020E6829FC00111248D5B9A4F0E94F6C4DD
:105980008C2F2DDF81E001C080E0CF910895DF9260
:10599000EF92FF920F931F93CF93DF93CDB7DEB7B4
:1059A0006E970FB6F894DEBF0FBECDBF6091480969
:1059B000709149096115710501F14DE150E0CE0189
:1059C00001967C010E94F6BC1E8EF7018F010E1914
:1059D0001F09D190DD2019F09AE0D912F7CFF70115
:1059E000E00FF11F108260E0C701B5DF882329F0C6
:1059F000C7010E94B8A4811109C081E02091480923
:105A000030914909232BA1F480E012C0DD2049F038
:105A10000F5F1F4F8091480990914909080F191F86
:105A200002C000E010E01093490900934809E5CF57
:105A30006E960FB6F894DEBF0FBECDBFDF91CF914B
:105A40001F910F91FF90EF90DF9008952BE137E0C9
:105A500047E157E063E177E08FE097E00C94238122
:105A600088E893E1909391128093901280916F0057
:105A70008D7F80936F009091E00A8091E10A9817E2
:105A800019F00E94D5A7F7CF1092CF091092CE0936
:105A900080916F00826080936F008FB7F8941092AE
:105AA0005B0A10925C0A10925D0A10925E0A8FBF28
:105AB0000E94AC7680E090E00E948E766093FA04BB
:105AC0007093FB048093FC049093FD0481E090E0CC
:105AD0000E948E766093FE047093FF04809300050D
