:100000000C94E0100C9411110C9411110C9411111A
:100010000C9411110C9411110C9411110C941111D8
:100020000C9411110C9411110C9411110C941111C8
:100030000C9411110C9411110C9411110C941111B8
:100040000C9411110C94118E0C9411110C9411112B
:100050000C9411110C9411110C94AE980C94BDA237
:100060000C9411110C9455380C9411110C9411111D
:100070000C9411110C9411110C9411110C94111178
:100080000C9411110C9411110C9411110C94111168
:100090000C9411110C9411110C9411110C94111158
:1000A0000C9411110C9411110C9411110C94111148
:1000B0000C9411110C9411110C9411110C94111138
:1000C0000C9411110C9411110C9411110C94111128
:1000D0000C9411110C9411110C9411110C94111118
:1000E0000C94111188A08BA07AA07EA084A0C2A03D
:1000F0008FA093A099A09DA0A1A0A7A0ABA0AFA006
:10010000C2A0B5A0B9A0BDA0D9A1DEA1E3A1EDA177
:10011000F7A170A201A209A211A21BA225A22FA2DF
:100120003EA248A270A252A25CA266A2084AD73B95
:100130003BCE016E84BCBFFDC12F3D6C74319ABDB6
:1001400056833DDA3D00C77F11BED9E4BB4C3E91DA
:100150006BAAAABE000000803F05A84CCDB2D44EC9
:10016000B93836A9020C50B9918688083CA6AAAACB
:100170002ABE000000803F004E414E494E4954596E
:10018000494E46CDCCCC3D0AD7233C17B7D1387762
:10019000CC2B329595E6241FB14F0A000020410078
:1001A00000C84200401C4620BCBE4CCA1B0E5AAEC2
:1001B000C59D74434F4D4D554E49434154494F4E93
:1001C0000044525952554E004552524F5253004925
:1001D0004E464F004543484F0020746F6F206C6FB0
:1001E0006E6720657874727573696F6E20707265C2
:1001F00076656E7465640A0020636F6C64206578B0
:1002000074727573696F6E2070726576656E746551
:10021000640A0047322F47332062616420706172A4
:10022000616D65746572730A00456E642066696C61
:1002300065206C6973740A00426567696E2066699F
:100240006C65206C6973740A005344207072696E87
:1002500074696E67206279746520004E6F74205354
:1002600044207072696E74696E670A0046696C6535
:100270002064656C657465643A0044656C657469F6
:100280006F6E206661696C65642C2046696C653A06
:1002900020006F70656E206661696C65642C204675
:1002A000696C653A20002569730025696D20256910
:1002B00073002569682025696D202569730025690B
:1002C00064202569682025696D20256973002569EA
:1002D0007920256964202569682025696D202569B4
:1002E00073005072696E742074696D653A20005015
:1002F000726F7465637465642050696E0A004525E9
:1003000069202573003344205072696E7465722031
:1003100072656164792E00D401CF01C801C101B3B7
:10032000016F66660044454255473A004B494C4CC4
:1003300045442E20006F6B0048656174696E67202C
:10034000646F6E652E003F0A0020573A004525690C
:10035000202573003344205072696E7465722072D8
:10036000656164792E0042656420646F6E652E00BD
:100370003F0A0020573A004265642048656174696D
:100380006E672E003344205072696E746572204F80
:1003900066662E004649524D574152455F4E414DCB
:1003A000453A4D61726C696E20312E312E32202813
:1003B0004769746875622920534F555243455F431E
:1003C0004F44455F55524C3A68747470733A2F2FFE
:1003D0006769746875622E636F6D2F4D61726C6909
:1003E0006E4669726D776172652F4D61726C696ED0
:1003F0002050524F544F434F4C5F56455253494F34
:100400004E3A312E30204D414348494E455F5459B4
:1004100050453A3344205072696E746572204558D5
:100420005452554445525F434F554E543A3120552E
:100430005549443A63656465326132662D343161F1
:10044000322D343734382D396231322D63353563EE
:1004500036326633363766660A007A5F6D696E3A01
:100460002000795F6D696E3A2000785F6D696E3AA1
:1004700020005265706F7274696E6720656E6473D8
:10048000746F70207374617475730A004D31343564
:1004900020533C696E6465783E206F7574206F66EA
:1004A0002072616E67652028302D31290A0053655E
:1004B0007474696E672054726176656C2041636361
:1004C000656C65726174696F6E3A2000536574746F
:1004D000696E67205265747261637420416363655D
:1004E0006C65726174696F6E3A200053657474694B
:1004F0006E67205072696E7420416363656C65722B
:100500006174696F6E3A200053657474696E672078
:100510005072696E7420616E642054726176656CED
:1005200020416363656C65726174696F6E3A200087
:10053000205A00205900580020204D61783A2000B0
:10054000205A00205900580020204D696E3A2000A2
:100550004F6E20004F666600536F667420656E64B0
:1005600073746F70733A200020643A0020693A0077
:1005700020703A0043290A0061626C656420286D8E
:10058000696E2074656D702000436F6C642065781F
:1005900074727564657320617265200023646566FA
:1005A000696E65202044454641554C545F4B64209C
:1005B0000023646566696E65202044454641554CBC
:1005C000545F4B69200023646566696E6520204492
:1005D000454641554C545F4B7020005049442041E2
:1005E00075746F74756E652066696E69736865648D
:1005F000212050757420746865206C617374204BE1
:10060000702C204B6920616E64204B6420636F6EF8
:100610007374616E74732066726F6D2062656C6FA7
:100620007720696E746F20436F6E666967757261BB
:1006300074696F6E2E680A00504944204175746FCA
:1006400074756E65206661696C6564212074696DDE
:10065000656F75740A00504944204175746F747554
:100660006E65206661696C6564212054656D7065F6
:1006700072617475726520746F6F20686967680AAB
:1006800000204B643A2000204B693A2000204B7038
:100690003A20000A20436C61737369632050494417
:1006A000200A002054753A2000204B753A20002083
:1006B0006D61783A2000206D696E3A200020643A1E
:1006C000200020626961733A20004F66667365748A
:1006D00073206170706C696564004572723A2054D1
:1006E0006F6F206661722100546F6F206661722007
:1006F00066726F6D207265666572656E63652070E7
:100700006F696E740A00454550524F4D20646973FD
:1007100061626C65640A004E6F2063617365206CD2
:10072000696768740A004163746976652045787466
:1007300072756465723A2000556E6B6E6F776E202D
:10074000636F6D6D616E643A2022004E6F204C69BC
:100750006E65204E756D62657220776974682063DE
:100760006865636B73756D2C204C617374204C69E4
:100770006E653A20004B494C4C45442E20005354A2
:100780004F505045442E20005072696E746572209F
:1007900073746F707065642064756520746F206574
:1007A00072726F72732E20466978207468652065B6
:1007B00072726F7220616E6420757365204D3939D5
:1007C0003920746F20726573746172742E202854FE
:1007D000656D7065726174757265206973207265EC
:1007E0007365742E20536574206974206166746586
:1007F000722072657374617274696E67290A004EA3
:100800006F20436865636B73756D2077697468202A
:100810006C696E65206E756D6265722C204C61731B
:1008200074204C696E653A2000636865636B73756C
:100830006D206D69736D617463682C204C617374F5
:10084000204C696E653A20004C696E65204E756DCE
:10085000626572206973206E6F74204C617374201E
:100860004C696E65204E756D6265722B312C204C83
:10087000617374204C696E653A20004D313130004F
:100880004D3331004D383420582059205A2045002E
:1008900053442072656164206572726F720A00446D
:1008A0006F6E65207072696E74696E672066696C20
:1008B000650A0020496E76616C69642065787472FF
:1008C00075646572200000005C4300005C4300001A
:1008D0007A43000000000000000000000000536C9C
:1008E0006565702E2E2E003344205072696E74653B
:1008F000722072656164792E00526573756D696E40
:1009000067207072696E7400436C69636B20746F4A
:1009100020726573756D652E2E2E004E6F206D6FE3
:1009200076652E002042403A0020403A00202F00F9
:1009300020423A00202F0020543A00205A3A00204A
:10094000593A0020436F756E7420583A0020453A9A
:1009500000205A3A0020593A00583A005344206384
:10096000617264206F6B0A006F70656E526F6F74F6
:10097000206661696C65640A00766F6C756D652E22
:10098000696E6974206661696C65640A005344206D
:10099000696E6974206661696C0A006175746F25FF
:1009A000692E67004D3234004D32332025730057D5
:1009B000726974696E6720746F2066696C653A208D
:1009C000006F70656E206661696C65642C204669F5
:1009D0006C653A20006F70656E206661696C6564B5
:1009E0002C2046696C653A200046696C6520736569
:1009F0006C65637465640A002053697A653A200067
:100A000046696C65206F70656E65643A20006F7092
:100A1000656E206661696C65642C2046696C653A78
:100A200020002066696C653A20004E6F7720002216
:100A300020706F73002220706172656E743A22001C
:100A4000535542524F5554494E452043414C4C203A
:100A50007461726765743A22004B494C4C45442ED0
:100A60002000747279696E6720746F2063616C6C0A
:100A7000207375622D67636F64652066696C6573AA
:100A8000207769746820746F6F206D616E79206CB7
:100A90006576656C732E204D4158206C6576656CCB
:100AA0002069733A004572726F723A004B494C4CA0
:100AB00045442E2000202D20496E76616C6964200B
:100AC0006578747275646572206E756D62657220EA
:100AD000210A002D2D2D2D2D2D007C4D61726C696C
:100AE0006E7C002D2D2D2D2D2D00687474703A2FE5
:100AF0002F6D61726C696E66772E6F726700687415
:100B000074703A2F2F6D61726C696E66772E6F72FA
:100B1000670020312E312E32002020506C616E6E25
:100B2000657242756666657242797465733A200033
:100B30002046726565204D656D6F72793A200043DD
:100B40006F6D70696C65643A204A616E203138209F
:100B5000323031390A00207C20417574686F723A56
:100B600020546F626961732052656974686D6569AC
:100B700065720A00323031372D30352D3330203157
:100B8000323A303000204C617374205570646174C7
:100B900065643A2000312E312E320A004D61726CAC
:100BA000696E0020536F66747761726520526573B9
:100BB00065740A00205761746368646F672052652A
:100BC0007365740A002042726F776E206F7574200F
:100BD00052657365740A002045787465726E616CA5
:100BE0002052657365740A00506F77657255700AFC
:100BF0000073746172740A006572726F722077728A
:100C00006974696E6720746F2066696C650A0045B7
:100C10006E6473746F7073202563202563202563D1
:100C200020256300205A3A0020593A0020583A0003
:100C3000656E6473746F7073206869743A20004441
:100C40006F6E6520736176696E672066696C652ECC
:100C50000A004D323900436172642072656D6F760F
:100C60006564004361726420696E736572746564C3
:100C700000466C6F7700466C6F770046616E20739C
:100C8000706565640046616E207370656564004E32
:100C90006F7A7A6C65004E6F7A7A6C650053706576
:100CA0006564005370656564004D61696E00507243
:100CB000656865617420504C4120456E6400507237
:100CC000656865617420504C412042656400507233
:100CD000656865617420504C4100507265706172A6
:100CE0006500507265686561742041425320456E0D
:100CF000640050726568656174204142532042650A
:100D000064005072656865617420414253005072FE
:100D10006570617265004D343238005072656865E7
:100D2000617420504C4100436F6F6C646F776E00AC
:100D30005072656865617420414253004469736173
:100D4000626C65207374657070657273004D383421
:100D50000053657420686F6D65206F6666736574F7
:100D600073004175746F20686F6D650047323800FD
:100D70004D6F76652061786973004D61696E004D35
:100D80006F76652058004D6F76652059004D6F765F
:100D900065205A004578747275646572004D6F76EF
:100DA0006520302E316D6D004D6F766520316D6D93
:100DB000004D6F76652031306D6D004D6F7665208A
:100DC00061786973004578747275646572004D6F5F
:100DD0007665205A004D6F76652059004D6F766517
:100DE0002058004578747275646572004D6F7665A1
:100DF000205A004D6F76652059004D6F766520585A
:100E0000005072657061726500526573746F72652F
:100E1000206661696C736166650046696C616D6529
:100E20006E74004D6F74696F6E0054656D706572FD
:100E30006174757265004D61696E00507265686518
:100E400061742041425320636F6E66005072656882
:100E500065617420504C4120636F6E6600504944B8
:100E60002D44005049442D44005049442D49005020
:100E700049442D49005049442D50005049442D50BB
:100E800000200220466163740020022046616374E2
:100E9000002002204D6178002002204D6178002062
:100EA00002204D6178002002204D696E0020022052
:100EB0004D696E002002204D696E004F6666004F3E
:100EC0006E20004175746F74656D700046616E2010
:100ED00073706565640046616E20737065656400BB
:100EE0004E6F7A7A6C65004E6F7A7A6C6500436F4C
:100EF0006E74726F6C0042656400426564004E6FF0
:100F00007A7A6C65004E6F7A7A6C650046616E2065
:100F100073706565640046616E207370656564007A
:100F200054656D70657261747572650056652D6AE1
:100F300065726B0056652D6A65726B0056652D6A89
:100F400065726B00567A2D6A65726B00567A2D6A4F
:100F500065726B0056792D6A65726B0056792D6A41
:100F600065726B0056792D6A65726B0056782D6A32
:100F700065726B0056782D6A65726B0056782D6A23
:100F800065726B004D6F74696F6E004573746570A8
:100F9000732F6D6D004573746570732F6D6D005AFE
:100FA00073746570732F6D6D005A73746570732F51
:100FB0006D6D005973746570732F6D6D0059737486
:100FC0006570732F6D6D005873746570732F6D6D40
:100FD000005873746570732F6D6D004D6F74696F79
:100FE0006E0053746570732F6D6D004A65726B00EF
:100FF000416363656C65726174696F6E0056656C00
:101000006F6369747900436F6E74726F6C00466928
:101010006C2E204469612E0046696C2E2044696163
:101020002E004F6666004F6E20004520696E206DD1
:101030006D3300436F6E74726F6C0043616E6E6F40
:101040007420656E746572207375626469723A20EB
:1010500000052E2E004D61696E0048617264636F59
:101060006465642044656661756C742053657474AE
:10107000696E6773204C6F616465640A00204400E8
:1010800020490020204D3330312050005049442069
:1010900073657474696E67733A0A002046002042D3
:1010A0000020480020204D3134352053004D61741C
:1010B000657269616C206865617475702070617219
:1010C000616D65746572733A0A00205A00205900F8
:1010D00020204D323036205800486F6D65206F66F5
:1010E000667365743A0A00204500205A00205900B2
:1010F00020580020420020540020204D323035205E
:101100005300416476616E6365643A20533C6D69B7
:101110006E5F66656564726174653E20543C6D69FE
:101120006E5F74726176656C5F666565647261742A
:10113000653E20423C6D696E5F7365676D656E74D8
:101140005F74696D655F6D733E20583C6D61785FBB
:1011500078795F6A65726B3E205A3C6D61785F7A80
:101160005F6A65726B3E20453C6D61785F655F6AC2
:1011700065726B3E0A0020540020520020204D3240
:101180003034205000416363656C65726174696F2F
:101190006E2028756E6974732F7332293A20503C83
:1011A0007072696E745F616363656C3E20523C725D
:1011B0006574726163745F616363656C3E20543C67
:1011C00074726176656C5F616363656C3E0A0020D2
:1011D0004500205A0020590020204D32303120583F
:1011E000004D6178696D756D20416363656C657252
:1011F0006174696F6E2028756E6974732F7332295C
:101200003A0A00204500205A0020590020204D3283
:1012100030332058004D6178696D756D20666565C5
:101220006472617465732028756E6974732F7329F5
:101230003A0A00204500205A0020590020204D394C
:101240003220580053746570732070657220756E7B
:1012500069743A0A0020204D3230302044300A00B0
:1012600020204D3230302044002044697361626C8C
:1012700065640A0046696C616D656E7420736574FF
:1012800074696E67733A0020204D31343920432051
:101290003B20556E69747320696E2043656C7369D9
:1012A00075730A002020473231202020203B205532
:1012B0006E69747320696E206D6D0A0020746F6F03
:1012C000206C6F6E6720657874727573696F6E201D
:1012D00070726576656E7465640A0020636F6C6475
:1012E00020657874727573696F6E207072657665AB
:1012F0006E7465640A0025753A2530327500253014
:1013000032753A25303275002D2D2D005344005A88
:1013100000590058000120005072696E74207061FD
:101320007573656400005072696E742061626F723B
:10133000746564004E6F20534420636172640050F2
:1013400072696E742066726F6D2053440053746F1F
:1013500070207072696E7400526573756D652070CF
:1013600072696E740041626F7574205072696E7498
:101370006572005061757365207072696E74004308
:101380006F6E74726F6C005072657061726500549C
:10139000756E6500496E666F2073637265656E00D9
:1013A00043616E6E6F74206F70656E20737562643A
:1013B000697220006563686F3A00544845524D4198
:1013C0004C2052554E4157415900546865726D6129
:1013D0006C2052756E61776179007C3C3E5E2B3DDE
:1013E0003F2F5B5D3B2C2A225C0024F4D43050C399
:1013F0008E20C2A24017828B7011127A910D816CDF
:10140000D90AA861E108C7586607615143061E4B17
:101410005D05C145A7041A411104093D98037139BE
:1014200031034036DB0265339102D4305402802E02
:101430001D02632CEE01752AC501B028A0011027FA
:1014400081018F2564012B244B01E0223401AC2162
:101450001F018D200D01801FFC00841EED00971DD3
:10146000DF00B81CD200E61BC600201BBC00641ABB
:10147000B200B219A8000A19A0006A189900D11781
:10148000910040178B00B516840031167E00B3150D
:1014900079003A157300C7146F0058146A00EE13F0
:1014A00066008813630025135E00C7125B006C1290
:1014B000570015125400C111510070114F00211135
:1014C0004B00D61049008D10470046104400021012
:1014D0004200C00F4000800F3E00420F3C00060F4C
:1014E0003B00CB0E3800930E37005C0E3500270E04
:1014F0003400F30D3200C10D3100900D3000600D4D
:101500002E00320D2D00050D2C00D90C2B00AE0C39
:101510002900850C29005C0C2700350C27000E0CD7
:101520002600E80B2400C40B2400A00B23007D0B35
:1015300023005A0B2100390B2100180B2000F80A58
:101540001F00D90A1E00BB0A1E009D0A1D00800A4A
:101550001D00630A1C00470A1B002C0A1B00110A0D
:101560001A00F7091A00DD091900C4091900AB09AE
:101570001900920917007B091800630917004C092C
:10158000160036091600200916000A091500F5088C
:101590001500E0081400CC081400B8081400A408D2
:1015A0001400900813007D0812006B0813005808FF
:1015B0001200460812003408110023081100120816
:1015C000110001081100F0071000E0071000D0071B
:1015D0001000C0071000B0070F00A107100091070E
:1015E0000E0083070F0074070F0065070E005707F2
:1015F0000E0049070E003B070D002E070E002007C6
:101600000D0013070D0006070D00F9060C00ED068E
:101610000D00E0060C00D4060C00C8060C00BC0649
:101620000C00B0060C00A4060B0099060C008D06F9
:101630000B0082060B0077060B006C060B006106A0
:101640000A0057060B004C060A0042060A0038063C
:101650000A002E060A0024060A001A060A001006CE
:10166000090007060A00FD050900F4050900EB055D
:101670000900E2050900D9050900D0050900C705E0
:101680000900BE050900B5050800AD050800A5055F
:1016900009009C050800940508008C0508008405D5
:1016A00008007C050800740508006C050700650546
:1016B00008005D050700560508004E0507004705B0
:1016C00007004005080038050700310507002A0516
:1016D0000700230507001C050600160507000F0577
:1016E00007000805060002050700FB040600F504D4
:1016F0000700EE040600E8040600E2040700DB042D
:101700000600D5040600CF040600C9040600C30481
:101710000600BD040600B7040600B1040500AC04D1
:101720000600A6040600A00405009B04060095041C
:101730000500900406008A04050085040500800465
:1017400006007A04050075040500700405006B04AA
:10175000050066040500610405005C0405005704EB
:101760000500520405004D0405004804050043042B
:1017700005003E0404003A04050035040500300469
:1017800004002C04050027040400230405001E04A3
:1017900004001A04040016040500110404000D04DA
:1017A0000400090405000404040000040400FC0310
:1017B0000400F8030400F4030400F0030400EC0345
:1017C0000400E8030400E4030400E0030400DC0375
:1017D0000400D8030400D4030400D0030400CC03A5
:1017E0000400C8030300C503030024F404D9201B2C
:1017F000C40C5C0E9804C4095F0265077101F4050E
:10180000F900FB04B30048048700C10369005803D2
:10181000550003034500BE023A0084023100530222
:101820002A002902250004022000E4011C00C8014E
:101830001900AF0117009801140084011300710111
:1018400010006101100051010E0043010D0036012E
:101850000B002B010B0020010B00150109000C01EE
:10186000090003010800FB000800F3000800EB007A
:101870000700E4000600DE000600D8000600D200E3
:101880000600CC000500C7000500C2000500BD0031
:101890000400B9000400B5000400B1000400AD006C
:1018A0000400A9000400A5000300A20003009F009B
:1018B00004009B00030098000300950002009300C1
:1018C0000300900003008D0002008B0003008800DD
:1018D00002008600020084000300810002007F00F5
:1018E00002007D0002007B00020079000200770008
:1018F0000100760002007400020072000100710015
:1019000002006F0002006D0001006C0002006A001E
:101910000100690002006700010066000100650027
:10192000010064000200620001006100010060002B
:1019300001005F0002005D0001005C0001005B002F
:1019400001005A0001005900010058000100570031
:101950000100560001005500010054000100530031
:10196000000053000100520001005100010050002E
:1019700001004F0001004E0000004E0001004D002C
:1019800001004C0001004B0000004B0001004A0028
:101990000100490001004800000048000100470024
:1019A000010046000000460001004500000045001F
:1019B0000100440001004300000043000100420018
:1019C0000000420001004100000041000100400011
:1019D00001003F0000003F0001003E0000003E000B
:1019E00001003D0000003D0001003C0000003C0003
:1019F00000003C0001003B0000003B0001003A00F9
:101A000000003A00010039000000390001003800F0
:101A100000003800000038000100370000003700E7
:101A200001003600000036000000360001003500DD
:101A300000003500000035000100340000003400D3
:101A400000003400010033000000330000003300C8
:101A500001003200000032000000320001003100BD
:101A600000003100000031000100300000003000B3
:101A70000000300001002F0000002F0000002F00A8
:101A800000002F0001002E0000002E0000002E009C
:101A900001002D0000002D0000002D0000002D0091
:101AA00001002C0000002C0000002C0000002C0085
:101AB00001002B0000002B0000002B0000002B0079
:101AC00001002A0000002A0000002A0000002A006D
:101AD0000100290000002900000029000000290061
:101AE0000000290001002800000028000000280054
:101AF0000000280000002800010027000000270047
:101B00000000270000002700000027000100260039
:101B1000000026000000260000002600000026002D
:101B20000100250000002500000025000000250020
:101B30000000250000002500010024000000240012
:101B40000000240000002400000024000100230005
:101B500000002300000023000000230000002300F9
:101B600000002300000023000100220000002200EA
:101B700000002200000022000000220000002200DD
:101B800001002100000021000000210000002100D0
:101B900000002100000021000000210001002000C1
:101BA00000002000000020000000200000002000B5
:101BB00000002000000020000000200001001F00A5
:101BC00000001F0000001F0000001F0000001F0099
:101BD00000001F0000001F0001001E0000001E008A
:101BE00000001E0000001E0000004D383420582068
:101BF00059205A2045006265640A002C20737973CD
:101C000074656D2073746F70706564212048656120
:101C10007465725F49443A200048656174696E6773
:101C2000206661696C65640048656174696E67204F
:101C30006661696C65640070012C0190012701B038
:101C4000012201C0011D01F0011801100213013031
:101C5000020E016002090190020401C002FF0000AF
:101C600003FA004003F5008003F000D003EB0020EE
:101C700004E6007004E100E004DC004005D700C089
:101C800005D2004006CD00D006C8008007C3003052
:101C900008BE00F008B900C009B400B00AAF00B037
:101CA0000BAA00D00CA500000EA000500F9B00C096
:101CB0001096005012910000148C00C0158700B0DF
:101CC000178200B0197D00D01B7800001E73004001
:101CD000206E0090226900F024640040275F00908D
:101CE000295A00E02B5500102E500020304B0010D8
:101CF000324600E033410090353C00103737007029
:101D0000383200A0392D00B03A2800A03B230060F3
:101D10003C1E00103D1900903D1400103E0F007055
:101D20003E0A00C03E0500003F0000403FFBFF8030
:101D30003FF6FFC03FF1FF4572723A204D494E54C5
:101D4000454D5020424544004572723A204D494E5F
:101D500054454D50004D494E54454D5020747269C4
:101D6000676765726564004572723A204D41585448
:101D7000454D5020424544004572723A204D41582D
:101D800054454D50004D415854454D502074726992
:101D900067676572656400526573656E643A20001A
:101DA0006F6B004B494C4C45442E20004B494C4C2A
:101DB00020636175736564206279204B494C4C2027
:101DC000627574746F6E2F70696E0A004B494C4CCB
:101DD00045442E20004B494C4C206361757365646B
:101DE00020627920746F6F206D75636820696E6161
:101DF00063746976652074696D65202D2063757242
:101E000072656E7420636F6D6D616E643A20005070
:101E10006C65617365207265736574005052494E3C
:101E20005445522048414C544544005072696E74E8
:101E300065722068616C7465642E206B696C6C2817
:101E4000292063616C6C6564210A00656E7175659B
:101E50007565696E67202200000000000000000028
:101E6000000000005761726E696E673A20486F6D1E
:101E7000696E672042756D702044697669736F7270
:101E8000203C20310A000000A0400000A0400000DB
:101E9000004000005C4300005C4300007A43FFFF09
:101EA000FF00002100240027002A002D003000330D
:101EB0000001010000040107010A010000220025C1
:101EC0000028002B002E0031003400020100000524
:101ED0000108010B01000020002300260029002C2E
:101EE000002F003200000100000301060109010576
:101EF000050505070508080808020202020A0A0883
:101F000008040404040101010101010101030303A8
:101F10000303030303040707070C0C0C0C0C0C0C45
:101F20000C0202020206060606060606060B0B0B4C
:101F30000B0B0B0B0B010210202008081020401087
:101F4000204080020102010804020101020408107D
:101F5000204080804020100804020180040201809B
:101F600040201008040201080402010102040810C4
:101F7000204080010204081020408000000A0B026B
:101F8000090C0D0E0807030401000000000000000A
:101F90000000000000000000000000000000000041
:101FA00000000000000000121110000000000000FE
:101FB0000000000000000000000000000000000021
:101FC000005654726176206D696E005654726176C7
:101FD000206D696E005654726176206D696E0056F0
:101FE0006D696E00566D696E00566D696E00566DB6
:101FF0006178204500566D6178204500566D617806
:10200000204500566D6178205A00566D6178205A3F
:1020100000566D6178205A00566D6178205900563F
:102020006D6178205900566D6178205900566D61B8
:1020300078205800566D6178205800566D617820E0
:1020400058004D6F74696F6E00416D6178204500D6
:10205000416D6178204500416D6178205A00416DE5
:102060006178205A00416D6178205900416D617896
:10207000205900416D6178205800416D61782058E9
:1020800000412D74726176656C00412D7472617629
:10209000656C00412D7265747261637400412D722C
:1020A00065747261637400416363656C00416363CE
:1020B000656C004D6F74696F6E004D6178205465DA
:1020C0006D703A20313530004D696E2054656D7069
:1020D0003A203500544265643A4550434F5320310D
:1020E00030304B004D61782054656D703A203237A6
:1020F00035004D696E2054656D703A2035005430BE
:102100003A204550434F53203130304B00506F77C9
:10211000657220537570706C793A2047656E6572F0
:1021200069630050726F746F636F6C3A20312E30A8
:1021300000426175643A203235303030300052410F
:102140004D505320312E330045787472756465729A
:10215000733A203100687474703A2F2F6D61726C7D
:10216000696E66772E6F7267003344205072696E15
:1021700074657200323031372D30352D33302031D7
:10218000323A303000312E312E32004D61726C699E
:102190006E00546865726D6973746F727300426F7C
:1021A00061726420496E666F005072696E74657268
:1021B00020496E666F004D61696E0000DBB5DCB6CC
:1021C00011241FBECFEFD1E2DEBFCDBF00E00CBFB8
:1021D00014E0A0E0B2E0EEEAF8E801E00BBF02C0D4
:1021E00007900D92A636B107D9F723E1A6E6B4E031
:1021F00001C01D92A433B207E1F710E1CFEDD0E1A9
:1022000000E006C021970109802FFE010E94C0C393
:10221000CE3DD10780E00807A9F70E9451AF0C948A
:1022200046C40C9400002F923F924F925F926F929F
:102230007F928F929F92AF92BF92CF92DF92EF9256
:10224000FF920F931F93CF93DF93CDB7DEB7CF5895
:10225000D1090FB6F894DEBF0FBECDBF00912009A3
:1022600020E6029F800111240056184F8091A20998
:1022700080FF1AC0E4EBF3E184917F013FEFE31AA2
:10228000F30A811102C0780104C00E942133F701D2
:10229000F3CFD7018D917D01882319F00E9421335E
:1022A000F8CF8AE00E9421331092850410928404B2
:1022B0008FE380938F0410928E0410928D041092FD
:1022C0008004109281041092820410928304F80119
:1022D00080810F5F1F4F8032D1F38E34B1F4818142
:1022E00090ED980F9A3020F08D3211F08B3269F416
:1022F0003296DF0131962C9120532A30D0F3CD0154
:10230000FC01019620812032D9F3F093C612E093AC
:10231000C5127F01BFEFEB1AFB0A10816AE270E081
:10232000C7010E940EC4009731F0FC0131978081F3
:102330008032E1F311821D3429F0143519F017347D
:1023400009F0B4C0F70180812FEFE21AF20A80325F
:10235000C9F380538A3008F0A9C010938F042091EC
:102360008D0430918E044AE03196429FC001439F14
:10237000900D1124DF0111972C91022E000C330BCC
:1023800020533109280F391F808180538A3060F330
:1023900030938E0420938D04CF01FC01019640817F
:1023A0004032D9F31D34B9F42E31310579F03CF4C3
:1023B0002731310559F02C31310569F407C0253733
:1023C000310521F0203A43E0340729F4F0938504E5
:1023D000E09384046BC010928504109284045091A1
:1023E000C512AA24A394B12CCF01019640814423A5
:1023F00009F45CC0413299F41D3489F4203231056E
:1024000071F4909385048093840463E270E00E94E9
:102410000EC4009709F44AC0DC011C9247C0415425
:102420004A3160F5618170ED760F7A3040F073EDDE
:10243000760F723020F06B3211F00C946D29BC01D4
:10244000E42FF0E07F0103E0F594E7940A95E1F7CB
:10245000D701A058BB4F4770650101C0CC0C4A950D
:10246000EAF74C91C42ACC926115710511F0651BF5
:1024700001C060E0EA59FB4F60830AC060918404A8
:1024800070918504672B21F4F0938504E093840414
:10249000BC01FB016F5F7F4F90819F7DD1F7CF0122
:1024A000FC01019640814032D9F39ECF80918F0488
:1024B0008D3409F449C7843511F40C9434298734D8
:1024C00011F00C94502980918D0490918E048430E9
:1024D000910509F473C65CF497FF02C00C946A2955
:1024E00020918602823091050CF013C117C08A3505
:1024F000910509F467C644F44C9711F00C946A29CD
:102500000E943B3F0C946A298B35910509F45EC605
:102510008C35910509F45FC60C946A29222311F4C5
:102520000C946A290E94CF3180915D02882321F0AA
:1025300089E395E00E94B49B0E9444328091A209F5
:1025400083FD96C0C0904505D0904605E0904705B4
:10255000F0904805209135053091360540913705BA
:1025600050913805C701B6010E94B8BC882309F410
:102570007FC080919D09811137C080917A0290912E
:102580007B02BC0180E090E00E94BCBC9B01AC01DE
:102590006091BC097091BD098091BE099091BF09FD
:1025A0000E94B8BC87FF20C0C0923505D092360586
:1025B000E0923705F0923805E4EBF3E184918F0166
:1025C0000F5F1F4F882321F00E942133F801F6CFBF
:1025D000E8EFF1E084918F010F5F1F4F882321F016
:1025E0000E942133F801F6CFC0904505D0904605F2
:1025F000E0904705F090480520913505309136056B
:102600004091370550913805C701B6010E94B8C006
:102610000E94FDC197FF07C09095809570956195C8
:102620007F4F8F4F9F4F693C71058105910504F1E4
:10263000C0923505D0923605E0923705F092380504
:10264000E4EBF3E184918F010F5F1F4F882321F0AA
:102650000E942133F801F6CFE9EDF1E084918F017A
:102660000F5F1F4F882321F00E942133F801F6CF1E
:102670002091390530913A0540913B0550913C0538
:102680006091290570912A0580912B0590912C0568
:102690000E94B8BC81111DC020913D0530913E05BE
:1026A00040913F055091400560912D0570912E0598
:1026B00080912F05909130050E94B8BC811109C00E
:1026C00060910402709105028091060290910702C8
:1026D0001AC06091020270910302072E000C880B51
:1026E000990B0E94BEBC20910402309105024091DA
:1026F0000602509107020E941DBD2AE037ED43E219
:102700005CE30E941DBD0E94622F0E94582F0C9412
:102710006A29222311F40C946A2911E0029709F026
:1027200010E00E94CF3182E50E94A531882309F490
:1027300052C10E9472316B017C014090290550907A
:102740002A0560902B0570902C0520912D05309165
:102750002E0540912F05509130052BAF3CAF4DAF6A
:102760005EAF8091390590913A05A0913B05B091FB
:102770003C0523968CAF9DAFAEAFBFAF23972091A2
:102780003D0530913E0540913F05509140052B9607
:102790002CAF3DAF4EAF5FAF2B9720E030E0A901EB
:1027A000C701B6010E94B8BC882309F4EDC4A30197
:1027B000920123966CAD7DAD8EAD9FAD23970E94A7
:1027C000B8BC81110FC02BAD3CAD4DAD5EAD2B96AD
:1027D0006CAD7DAD8EAD9FAD2B970E94B8BC8823AC
:1027E00009F4D2C420E030E0A901C701B6010E947B
:1027F000B8BC881F8827881F18130BC080E090E0A2
:10280000A0E8BFE367968CAF9DAFAEAFBFAF679751
:102810000AC020E030E040E85FEB67962CAF3DAFA8
:102820004EAF5FAF6797A301920123966CAD7DAD6C
:102830008EAD9FAD23970E94B8C02F966CAF7DAF31
:102840008EAF9FAF2F972BAD3CAD4DAD5EAD2B96B0
:102850006CAD7DAD8EAD9FAD2B970E94B8C06396D9
:102860006CAF7DAF8EAF9FAF63972F962CAD3DAD14
:102870004EAD5FAD2F97CA01B9010E941DBD4B013E
:102880005C0163962CAD3DAD4EAD5FAD6397CA0163
:10289000B9010E941DBD9B01AC01C501B4010E949C
:1028A000B9C00E9424C327966CAF7DAF8EAF9FAF97
:1028B000279720E030E040E05FE30E941DBD4B0120
:1028C0005C01A7019601C701B6010E941DBD6B0105
:1028D0007C01A5019401C501B4010E941DBD9B01AD
:1028E000AC01C701B6010E94B8C00E9424C39B017D
:1028F000AC0167966CAD7DAD8EAD9FAD67970E94C4
:102900001DBD4B015C0123962CAD3DAD4EAD5FADC1
:102910002397C301B2010E94B9C020E030E040E03B
:102920005FE30E941DBD6B017C0163966CAD7DADC4
:102930008EAD9FAD6397905827962CAD3DAD4EADB3
:102940005FAD27970E9495C19B01AC01C501B40101
:102950000E941DBD9B01AC01C701B6010E94B9C018
:10296000A30192010E94B8C06B017C012B962CAD93
:102970003DAD4EAD5FAD2B976BAD7CAD8DAD9EADDE
:102980000E94B9C020E030E040E05FE30E941DBD3E
:102990002B013C0127962CAD3DAD4EAD5FAD279789
:1029A0002F966CAD7DAD8EAD9FAD2F970E9495C1DA
:1029B0009B01AC01C501B4010E941DBD9B01AC018E
:1029C000C301B2010E94B9C02BAD3CAD4DAD5EADAF
:1029D0000E94B8C014C089E40E94A531882329F060
:1029E0000E9472316B017C0103C0C12CD12C760195
:1029F0008AE40E94A5318823F9F00E9472312B9657
:102A00006CAF7DAF8EAF9FAF2B9720E030E0A90178
:102A1000C701B6010E94B8BC81111EC020E030E0A1
:102A2000A9012B966CAD7DAD8EAD9FAD2B970E940D
:102A3000B8BC811111C0A8C320E030E0A901C701D2
:102A4000B6010E94B8BC882309F49EC32B961CAE25
:102A50001DAE1EAE1FAE2B97D701C601B0588BAF6F
:102A60009CAFADAFBEAF2B962CAD3DAD4EAD5FADC7
:102A70002B97505823962CAF3DAF4EAF5FAF2397A7
:102A80009C01AD01BC01CD010E941DBD4B015C014B
:102A900023962CAD3DAD4EAD5FAD2397CA01B90174
:102AA0000E941DBD9B01AC01C501B4010E94B9C0CB
:102AB0000E9424C3A7966CAF7DAF8EAF9FAFA79740
:102AC0008091290590912A05A0912B05B0912C05A4
:102AD00027968CAF9DAFAEAFBFAF2797A7019601EA
:102AE000BC01CD010E94B9C067966CAF7DAF8EAFBF
:102AF0009FAF679720912D0530912E0540912F05AE
:102B0000509130052F962CAF3DAF4EAF5FAF2F9752
:102B10002B962CAD3DAD4EAD5FAD2B972F966CAD8A
:102B20007DAD8EAD9FAD2F970E94B9C06B966CAFF7
:102B30007DAF8EAF9FAF6B978091390590913A052D
:102B4000A0913B05B0913C056F968CAF9DAFAEAFA9
:102B5000BFAF6F9767962CAD3DAD4EAD5FAD67973C
:102B6000BC01CD010E94B8C06B017C0120913D05E4
:102B700030913E0540913F0550914005A3962CAF02
:102B80003DAF4EAF5FAFA3976B962CAD3DAD4EAD55
:102B90005FAD6B97A3966CAD7DAD8EAD9FADA397EA
:102BA0000E94B8C04B015C018091310590913205C3
:102BB000A0913305B0913405AF968CAF9DAFAEAF09
:102BC000BFAFAF979C01AD01609141057091420587
:102BD00080914305909144050E94B8C063966CAF04
:102BE0007DAF8EAF9FAF639720913505309136054D
:102BF0004091370550913805E3962CAF3DAF4EAF6D
:102C00005FAFE39760914505709146058091470558
:102C1000909148050E94B8C0AB966CAF7DAF8EAF67
:102C20009FAFAB97A70196016BAD7CAD8DAD9EAD0F
:102C30000E941DBD2B013C01A501940123966CADA2
:102C40007DAD8EAD9FAD23970E941DBD9B01AC0154
:102C5000C301B2010E94B9C02B013C01A50194013E
:102C60006BAD7CAD8DAD9EAD0E941DBD4B015C0179
:102C7000A701960123966CAD7DAD8EAD9FAD2397D8
:102C80000E941DBD9B01AC01C501B4010E94B8C0EA
:102C9000A30192010E942CC16B017C0120E030E075
:102CA000A9010E94B8BC87FF0AC02BED3FE049ECA8
:102CB00050E4C701B6010E94B9C06B017C01112329
:102CC00051F02BED3FE049EC50E4C701B6010E9402
:102CD000B8C06B017C0120E030E0A901C701B6015A
:102CE0000E94B8BC81112AC06F962CAD3DAD4EAD8F
:102CF0005FAD6F9727966CAD7DAD8EAD9FAD27977D
:102D00000E94B8BC81111AC0A3962CAD3DAD4EAD4A
:102D10005FADA3972F966CAD7DAD8EAD9FAD2F9718
:102D20000E94B8BC81110AC02BED3FE049EC50E491
:102D3000C701B6010E94B9C06B017C01A7962CADFA
:102D40003DAD4EAD5FADA797C701B6010E941DBD59
:102D50009B01AC010E941DBD4B015C0163962CAD33
:102D60003DAD4EAD5FAD6397CA01B9010E941DBD77
:102D70009B01AC01C501B4010E94B9C00E9424C3EB
:102D80004B015C012FE632E143E85AE30E94B8BCF4
:102D900087FDF6C1C501B4010E942EC20E9402C285
:102DA0002D967FAF6EAF2D97672B31F481E090E0C9
:102DB0002D969FAF8EAF2D972D96AEADBFAD2D97B3
:102DC000BD0180E090E00E94BCBC4B015C019B0116
:102DD000AC01C701B6010E9495C127966CAF7DAFCB
:102DE0008EAF9FAF2797A501940163966CAD7DAD23
:102DF0008EAD9FAD63970E9495C1A7966CAF7DAFD6
:102E00008EAF9FAFA797A5019401AB966CAD7DAD3A
:102E10008EAD9FADAB970E9495C1AB966CAF7DAF69
:102E20008EAF9FAFAB9727962CAD3DAD4EAD5FAD4E
:102E30002797CA01B9010E941DBD20E030E040E0A3
:102E40005FE30E941DBD9B01AC0160E070E080E883
:102E50009FE30E94B8C063966CAF7DAF8EAF9FAF0B
:102E60006397AF962CAD3DAD4EAD5FADAF97298763
:102E70003A874B875C87E3968CAD9DADAEADBFAD19
:102E8000E3978D879E87AF87B88B60910202709120
:102E90000302072E000C880B990B0E94BEBC2091E8
:102EA00004023091050240910602509107020E94EF
:102EB0001DBD2AE037ED43E25CE30E941DBD6F9625
:102EC0006CAF7DAF8EAF9FAF6F970E94B1A29B0199
:102ED000AC0128533F4F4F4F5F4FA3962CAF3DAFF0
:102EE0004EAF5FAFA3974BAC5CAC6DAC7EAC222415
:102EF0002394312CD12C2D968EAD9FAD2D97281675
:102F0000390609F429C10E94279A0E94B1A2DC0166
:102F1000CB01A3962CAD3DAD4EAD5FADA397821B0B
:102F2000930BA40BB50BB7FD10C00E94B1A29B017F
:102F3000AC0128533F4F4F4F5F4FA3962CAF3DAF8F
:102F40004EAF5FAFA3970E94D09DD39438E13D155B
:102F50000CF44BC063962CAD3DAD4EAD5FAD6397A9
:102F600023966CAD7DAD8EAD9FAD23970E941DBDA8
:102F70004B015C0127962CAD3DAD4EAD5FAD279763
:102F8000B201C3010E941DBDA50194010E94B9C0F8
:102F90007B018C0163962CAD3DAD4EAD5FAD63976B
:102FA000B201C3010E941DBD4B015C0127962CADEF
:102FB0003DAD4EAD5FAD279723966CAD7DAD8EAD2B
:102FC0009FAD23970E941DBD9B01AC01C501B401BB
:102FD0000E94B8C02B013C01C701D80123968CAFD9
:102FE0009DAFAEAFBFAF239756C0B10180E090E078
:102FF0000E94BCBC27962CAD3DAD4EAD5FAD279772
:103000000E941DBD4B015C010E9492C16B017C01BD
:10301000C501B4010E941AC34B015C01A7019601CE
:103020006BAD7CAD8DAD9EAD0E941DBD2B013C01F5
:10303000A50194012B966CAD7DAD8EAD9FAD2B9708
:103040000E941DBD9B01AC01C301B2010E94B9C029
:103050002B013C01A50194016BAD7CAD8DAD9EAD06
:103060000E941DBD4B015C01A70196012B966CAD22
:103070007DAD8EAD9FAD2B970E941DBD9B01AC0118
:10308000C501B4010E94B8C023966CAF7DAF8EAF6E
:103090009FAF2397D12C9201A30167966CAD7DADB4
:1030A0008EAD9FAD67970E94B9C069837A838B8389
:1030B0009C8323962CAD3DAD4EAD5FAD23976B96B3
:1030C0006CAD7DAD8EAD9FAD6B970E94B9C06D8329
:1030D0007E838F839887A7962CAD3DAD4EAD5FADB7
:1030E000A79769857A858B859C850E94B9C0698779
:1030F0007A878B879C87AB962CAD3DAD4EAD5FAD8F
:10310000AB976D857E858F8598890E94B9C06D8744
:103110007E878F87988B80915D02882321F0CE0176
:1031200001960E94B49BC09087046F96ECACFDACF6
:103130000EAD1FAD6F979E01235F3F4FAE01475FFE
:103140005F4FBE016B5F7F4FCE0101960E94EE7014
:103150004FEF241A340ACFCEC09087046F96ECACA0
:10316000FDAC0EAD1FAD6F9725E435E041E455E0B1
:103170006DE375E089E395E00E94EE700E94582FA0
:103180000E9444320C946A29E5EAFAE084918F01A6
:103190000F5F1F4F882321F00E942133F801F6CFE3
:1031A000E3E1F2E084918F010F5F1F4F882311F458
:1031B0000C946A290E942133F801F4CF0E94D9327D
:1031C0000C946A2910928C040C946A2981E08093F3
:1031D0008C040C946A2985E40E94A531B82E8111D3
:1031E00002C00E94BE8DFFEC8F2EF2E09F2EA9E25E
:1031F000CA2EA5E0DA2EBFECEB2EB2E1FB2E00E0EA
:1032000010E0A12CD4018D914D010E94A53188239D
:1032100009F44EC0F6012081318142815381C257A9
:10322000DF4F2883CE58D040C157DF4F3883CF5867
:10323000D040C457DF4F4883CC58D040C357DF4FEE
:103240005883CD58D0400E947231D6016D937D9342
:103250008D939C931397C257DF4F2881CE58D0404F
:10326000C157DF4F3881CF58D040C457DF4F488116
:10327000CC58D040C357DF4F5881CD58D040033091
:103280001105B1F00E94B8C09B01AC01F70160814B
:103290007181828193810E94B9C0D7016D937D9322
:1032A0008D939C931397C8010E94E030AA24A394A5
:1032B0000F5F1F4FB4E0CB0ED11CE4E0EE0EF11C0B
:1032C0000430110509F09ECFAA2019F00E94153094
:1032D00037C0BB20A9F1C0903505D0903605E090ED
:1032E0003705F0903805209191093091920940916D
:1032F000930950919409C701B6010E941DBD0E9417
:10330000EAC260932B0A70932C0A80932D0A909343
:103310002E0AC701B6010E94FDC12FB7F894609331
:10332000F9117093FA118093FB119093FC112FBF48
:1033300010921B0A10921C0A10921D0A10921E0A6B
:103340000E942F370C946A2980918D0490918E04ED
:103350008F36910509F4F3C40CF0A4C08A329105AC
:1033600009F432C40CF04FC08731910509F4C5C18E
:1033700014F58231910509F413C684F497FF02C055
:103380000C946A29823091050CF466C1419711F0C2
:103390000C946A290E94462F0C946A298531910564
:1033A00009F4A1C10CF0A3C1449711F00C946A294F
:1033B000E8E3F2E055C18B31910509F4C7C13CF453
:1033C0008931910509F4AEC10CF4A1C1B1C18E31AE
:1033D000910509F4F7C174F44C9711F00C946A2923
:1033E00040E060E080918404909185040E94383A26
:1033F0000C946A298F31910509F440C3809709F430
:10340000F8C20C946A298535910509F400C604F5C3
:103410008135910509F4A8C58CF48C34910509F423
:103420001CC48D34910509F41CC48B34910511F032
:103430000C946A290E94FB3E0C946A2983359105FD
:1034400009F4A9C50CF0ACC510928B040C946A2940
:103450008A36910509F453C5ACF48836910509F410
:1034600004C40CF0F8C48C35910511F00C946A2951
:103470008FECC82E82E0D82E95E8E92E99E0F92E3F
:1034800010E0E0C58C36910509F4C5C40CF45AC5AA
:103490008D36910509F4F9C48E36910509F43CC4C2
:1034A0000C946A29833D910511F40C9435230CF09A
:1034B0006BC08C38910509F4B2C434F58537910599
:1034C00009F454C68CF48237910509F43BC683375E
:1034D000910509F43DC68037910511F00C946A29D5
:1034E0008CE293E00E94819D8837910509F4ABC678
:1034F0008937910509F4AEC68737910511F00C9410
:103500006A29E2E7F4E03BC6893C910509F467C704
:1035100074F48E3B910509F4D6C4883C910509F4F6
:1035200016C78139910511F00C946A2999C68C3C13
:10353000910509F48CC77CF48B3C910511F00C9437
:103540006A294AEFE42E42E1F42E0FEC12E054E037
:10355000D52ED00E6CC78D3C910509F4E2C78E3C88
:10356000910511F00C946A299FECA92E92E0B92ED6
:1035700029E2C22E25E0D22E33E7E32E37E0F32EE8
:1035800000E010E00C94FC228039F1E09F0711F478
:103590000C94EE2784F58C3231E0930711F40C94EF
:1035A00020248CF48D3D910511F40C94DA23823E95
:1035B000910511F40C94F3238C3D910511F00C94BA
:1035C0006A290C94CD238E3251E0950711F40C94A6
:1035D000E82414F40C9449248F32B1E09B0711F4D1
:1035E0000C943C258336914011F00C946A29E5EA4D
:1035F000FAE00C940D29853FF1E09F0711F40C943B
:10360000F828ACF48C3A31E0930711F40C94F127CC
:10361000843F41E0940711F40C94DF288A399140EB
:1036200011F00C946A290E941F300C946A29873F7C
:10363000A1E09A0711F40C94012914F40C94FE28CB
:10364000803AE3E09E0709F40CC2873E934011F4F0
:103650000C9424290C946A290E944F320C946A29F4
:1036600084918F010F5F1F4F882321F00E94213327
:10367000F801F6CF1092E50C1092E40C40E050E017
:10368000BA0180E99AE00E9489A78BE1E0E9FAE0BB
:10369000DE01159601900D928A95E1F780918E0AD0
:1036A00090918F0A9C838B838FE993E09A8389831F
:1036B00040E050E0BE016F5F7F4F84E694E00E94DF
:1036C0002786CE0101960E94679DE9E2F2E084918F
:1036D0008F010F5F1F4F882311F40C946A290E94F9
:1036E0002133F801F4CF0E94643D0C946A291092B2
:1036F0005F0A1092600A0C946A2940E061E08091B0
:103700008404909185040E94383A0C946A2980912F
:10371000600A882319F081E080935F0A0E94FB3ED3
:103720000C946A2910925F0A0E946E400C946A29D8
:103730008091600A882311F40C946A2983E50E9421
:10374000A53181110C947B290C946A298091600A1F
:10375000882351F1E9E4F2E084918F010F5F1F4F5C
:10376000882321F00E942133F801F6CF6091DB0C11
:103770007091DC0C8091DD0C9091DE0C4AE00E948F
:1037800028338FE20E9421336091D70C7091D80CBE
:103790008091D90C9091DA0C4AE00E9428338AE09B
:1037A0000E9421330C946A29EBE5F2E084918F01A9
:1037B0000F5F1F4F882311F40C946A290E94213354
:1037C000F801F4CF8091600A882311F40C946A29DF
:1037D0008AE29CE00E9446A78AE29CE00E947C88E4
:1037E00010925E0A10925D0AE0908404F0908504C5
:1037F0008091600A882311F40C946A290E9406843F
:103800001D8218861C821B828FE993E09A8389832C
:103810008CE89AE09093AC0A8093AB0AD7018C9124
:103820008F3209F067C06FE270E0C7010E940EC4DA
:103830008C010F5F1F4FFE0131964F0101151105DD
:1038400009F45EC06FE270E0C8010E940EC46C0112
:10385000009709F456C00817190708F052C05C0118
:10386000A01AB10AA501B801CE0180960E9437C402
:10387000E0E2F0E0EC0FFD1FEA0DFB1D10828E016F
:10388000005E1F4FD8018D918D01882319F00E9491
:103890002133F8CF8AE00E9421336091AB0A709106
:1038A000AC0A6115710511F06C5F7F4F21E0AE012C
:1038B000405E5F4FCE0105960E946E8C811112C052
:1038C000BE01605E7F4F82E992E00E946F6F8EE2E0
:1038D0000E9421338AE00E942133C4010E94679D27
:1038E0000C946A299092AC0A8092AB0A86010F5F11
:1038F0001F4FA4CF8DEA9AE09093AC0A8093AB0A55
:1039000087016091AB0A7091AC0A6115710511F0E5
:103910006C5F7F4F18A21BA222E0A801CE01809607
:103920000E946E8C811102C0F12C1EC0CE018096C7
:103930000E9474838823C1F36CA57DA58EA59FA5E5
:1039400041E00E944F6D882379F3E8A9B0E2EB9F34
:10395000F0011124E95AFA4F309731F385EE808354
:103960001BA20E940F6DF82ECE0180960E943E325F
:10397000FF2009F1ECE6F2E084917F012FEFE21ADB
:10398000F20A882321F00E942133F701F5CFD801F4
:103990008D918D01882319F00E942133F8CF8AE0A0
:1039A0000E9421331092DB0C1092DC0C1092DD0C83
:1039B0001092DE0C18C0EAE7F2E084917F01BFEFBD
:1039C000EB1AFB0A882321F00E942133F701F5CF7F
:1039D000F80181918F01882319F00E942133F8CFDB
:1039E0008EE20E942133CE0101960E94679D0C94C5
:1039F0006A2980915F0A81110E94BE8DE090840443
:103A0000F090850480E50E94A531182F8091600A0E
:103A1000882311F40C946A29412F61E0C7010E94A8
:103A2000383A83E50E94A531882381F00E94423113
:103A3000AB01BC014093DB0C5093DC0C6093DD0CBC
:103A40007093DE0C8AE29CE00E9489A78091600A54
:103A5000882319F081E080935F0A11110C946A2980
:103A60005DCE809184049091850421E020935E0ACC
:103A700040E060E00E94383A0C946A290E94F18587
:103A8000ECE3CE2ED12CE12CF12CA70196010E9463
:103A90007DC0762E672ECA01B901A70196010E944A
:103AA0007DC06B017C01CA01B90128E130E040E032
:103AB00050E00E947DC04B015C01C9016DE671E0E0
:103AC0000E947DC38E010F5F1F4F6115710599F034
:103AD0006F927F92DF92CF929F928F929F938F935C
:103AE0007F936F938EEC92E09F938F931F930F932E
:103AF0000E9451BC12C00097B1F06F927F92DF928A
:103B0000CF929F928F929F938F938EEB92E09F9391
:103B10008F931F930F930E9451BC0FB6F894DEBF92
:103B20000FBECDBF36C081149104A104B10479F059
:103B30006F927F92DF92CF929F928F9282EB92E070
:103B40009F938F931F930F930E9451BCE6CFC11494
:103B5000D104E104F10469F06F927F92DF92CF9279
:103B60008AEA92E09F938F931F930F930E9451BC18
:103B7000D4CF6F927F9286EA92E09F938F931F93A8
:103B80000F930E9451BC0F900F900F900F900F90C9
:103B90000F9060E0C8010E945F4BE4EBF3E1849179
:103BA0007F01BFEFEB1AFB0A882321F00E9421332B
:103BB000F701F5CFB80182EE92E00E946F6F8AE0C4
:103BC0000E9421330C946A2983E50E94A531882341
:103BD00011F40C946A290E9442314B015C016F3F41
:103BE000710519F010F00C946A2980E50E94A53146
:103BF000882339F00E9442318B0177FF04C00C9476
:103C00006A290DE010E0F02EE3EDF2E0C8019927FB
:103C1000219131912817390731F023E0E932F20779
:103C2000B9F70C948B29E5EAFAE084918F010F5FD4
:103C30001F4F882321F00E942133F801F6CFEFEEC9
:103C4000F2E084918F010F5F1F4F882311F40C94D1
:103C50006A290E942133F801F4CF0E946E400C942F
:103C60006A290E9410840C946A2988E690E00E94D8
:103C7000A83381110C946A298091A20983FF02C0A4
:103C80000C946A2983E50E94A531882309F440C079
:103C90000E9472310E94FDC170931B0560931A054A
:103CA00080E00E9410970E94723120E030E04AEAE2
:103CB00052E40E94B8BC18163CF00E94108460E0E8
:103CC00085E093E00E94404B0E9472312091BC0934
:103CD0003091BD094091BE095091BF090E94DFC2D9
:103CE0001816B4F48CED93E09F938F938091860423
:103CF00090E001969F938F938EEF92E09F938F9326
:103D00001F920E94E03E0FB6F894DEBF0FBECDBFFB
:103D10000E948CB50C946A298EE40E94A5318823F8
:103D200011F40C946A290E9442316093C11270937D
:103D3000C2128093C3129093C4120C946A2983E533
:103D40000E94A531882319F00E94523101C080E001
:103D50008093A209E4EBF3E184918F010F5F1F4F81
:103D6000882321F00E942133F801F6CFE5E2F3E049
:103D700084918F010F5F1F4F882321F00E94213310
:103D8000F801F6CF8091A2098823A1F167E1C62E40
:103D900063E0D62EE12CF12C20E08091A20990E086
:103DA0000E2C02C0959587950A94E2F780FF17C004
:103DB000BB24B394B20E222319F08CE20E9421336B
:103DC000F60125913491F901849189010F5F1F4F0C
:103DD000882321F00E9421339801F5CF2B2DFFEF8E
:103DE000EF1AFF0A32E0C30ED11C45E0E416F104DD
:103DF000A1F60CC0E1E2F3E084918F010F5F1F4F49
:103E0000882321F00E942133F801F6CF8AE00E9436
:103E100021330C946A29109280020C946A298091B3
:103E2000A20983FF02C00C946A2983E50E94A53190
:103E3000882311F40C946A290E9472310E94FDC1FA
:103E40006739710514F066E970E070931F0560939F
:103E50001E050C946A2989E690E00E94A83381111E
:103E60000C94B22EE5E3F3E084918F010F5F1F4FB6
:103E7000882321F00E942133F801F6CF0E94DF371A
:103E80008AE00E9421330C94B22E8DE690E00E94CD
:103E9000A83381110C946A298091A20983FF02C082
:103EA0000C946A2983E50E94A53128968FAF289744
:103EB00081110C949F2982E50E94A53181110C94F7
:103EC0009F290C946A298091A20983FF02C00C9457
:103ED0006A2960E087E793E00E94404B83E50E94F7
:103EE000A53128968FAF289781110C943A2B82E543
:103EF0000E94A53181110C943A2B0C946A2983E518
:103F00000E94A531882321F00E9442318B0102C01A
:103F10000FEF10E080E50E94A531882331F00E9468
:103F20004231672B11F00C946A29C8010F3F11052B
:103F300019F010F08FEF90E090931D0580931C0511
:103F40000C946A2980E50E94A531811106C0109267
:103F50001D0510921C050C946A290E944231672BA2
:103F600011F00C946A29F3CF0E945B970E94BE8DDA
:103F70000E946F9D10921D0510921C0568EE73E063
:103F800080E090E00E94C84A60E084E893E00E94EC
:103F9000404B0C946A2981E080938B040C946A292D
:103FA00083E50E94A5318823A1F00E94723120E0B0
:103FB00030E04AE754E40E941DBD0E9402C26093B3
:103FC000CB027093CC028093CD029093CE020C94DE
:103FD0006A2988E50E94A53181110C94A12C89E5FC
:103FE0000E94A53181110C94A12C8AE50E94A53173
:103FF00081110C94A12C85E40E94A53181110C94AF
:10400000A12C0E94BE8D0E946F9D0C946A2983E5AD
:104010000E94A531882311F40C946A290E94723100
:1040200020E030E04AE754E40E941DBD0E9402C235
:104030006093CB127093CC128093CD129093CE12DA
:104040000C946A29D6018D916D010E94A5318823B7
:1040500009F46DC0133009F063C00E9472314B0146
:104060005C0120E030E040EA51E40E94B8BC87FFE8
:104070004EC0A501940160919109709192098091BF
:104080009309909194090E9495C12B013C019B01D9
:10409000AC016091810970918209809183099091AE
:1040A00084090E941DBD60938109709382098093E9
:1040B000830990938409A301920160910613709182
:1040C000071380910813909109130E941DBD6093FE
:1040D000061370930713809308139093091360914C
:1040E000AF097091B0098091B1099091B2090E9415
:1040F000BCBCA30192010E941DBD0E9402C260933C
:10410000AF097093B0098093B1099093B20980927E
:10411000910990929209A0929309B092940907C0D4
:104120000E947231F70160837183828393831F5FE2
:10413000F4E0EF0EF11C143009F084CF0E94C4703B
:104140000C946A290E94BE8D0E942F370C946A2914
:10415000E4E9F3E084918F010F5F1F4F882311F48E
:104160000C946A290E942133F801F4CF60E0809119
:104170008404909185040E945F4B0C946A29849179
:104180008F010F5F1F4F882321F00E942133F80118
:10419000F6CFEAE6F4E084918F010F5F1F4F88238A
:1041A00021F00E942133F801F6CF659B03C009EC92
:1041B00013E002C00EEC13E0D8018D918D0188232D
:1041C00019F00E942133F8CF8AE00E942133E2E601
:1041D000F4E084918F010F5F1F4F882321F00E942C
:1041E0002133F801F6CF8091030181FF03C009EC70
:1041F00013E002C00EEC13E0F80181918F018823D7
:1042000019F00E942133F8CF8AE00E942133EAE5B9
:10421000F4E084918F010F5F1F4F882321F00E94EB
:104220002133F801F6CF4B9B03C009EC13E002C029
:104230000EEC13E0D8018D918D01882309F4E6CDB1
:104240000E942133F7CF81E08093080280932805F4
:104250000C946A2910920802109228050C946A297D
:1042600083E50E94A5318823F9F00E944231162F80
:104270006230D8F0E5EAFAE084918F010F5F1F4FBA
:10428000882321F00E942133F801F6CFECE8F4E016
:1042900084918F010F5F1F4F882311F40C946A29BA
:1042A0000E942133F801F4CF10E088E40E94A53188
:1042B0008823B1F00E944231E12FF0E06A3A7105A3
:1042C0003CF06530B1E07B072CF064E071E002C0A7
:1042D0006AEA70E0EE0FFF1FEF59F64F71836083BB
:1042E00086E40E94A5318823B1F00E944231E12F7B
:1042F000F0E0EE0FFF1FEB59F64F718360836F3FC5
:10430000710519F014F06FEF70E077FF02C060E004
:1043100070E07183608382E40E94A531882309F4F0
:10432000D9C70E944231E12FF0E06530710534F0C9
:10433000683871052CF067E870E002C065E070E055
:10434000EE0FFF1FE35AF64F71836083C3C788ECFB
:1043500090E00E94A8338111BDC784E40E94A5317A
:104360008823D1F10E94723111E020E030E0A901F0
:104370000E94B8BC811101C010E01093950911236F
:1043800059F10091860410E00E947231000F111F54
:10439000000F111FF801EA58FD4F6083718382837B
:1043A000938320E030E0A90160917602709177025A
:1043B00080917802909179020E94B8BC81110CC062
:1043C00080E090E0A0E4B0E48093760290937702DE
:1043D000A0937802B09379020E94689B7BC76AE041
:1043E000E62E63E1F62E0FEC12E074E0D72ED00E2D
:1043F000F80181918F010E94A531882351F00E941C
:1044000072310E9402C2D7016D937D938D939C936C
:104410001397B4E0EB0EF11CD012EACF0E94976F15
:1044200059C7B4E0EB0EF11CD01609F453C7F801DC
:1044300081918F010E94A531882399F30E947231E6
:10444000D7016D937D938D939C931397EACF83E56A
:104450000E94A5318823D9F00E947231AB01BC01C2
:1044600040932213509323136093241370932513C6
:1044700040931A1350931B1360931C1370931D13D6
:1044800088E095E00E94396F8AE00E94213380E540
:104490000E94A531882399F00E947231AB01BC01C2
:1044A0004093221350932313609324137093251386
:1044B0008BEE94E00E94396F8AE00E94213382E5FE
:1044C0000E94A531882399F00E947231AB01BC0192
:1044D00040931E1350931F13609320137093211366
:1044E0008CEC94E00E94396F8AE00E94213384E5CD
:1044F0000E94A531882309F4EDC60E947231AB01F8
:10450000BC0140931A1350931B1360931C137093B8
:104510001D138EEA94E00E94396F8AE00E942133D5
:10452000D9C683E50E94A531882351F00E947231DB
:104530006093F6127093F7128093F8129093F91229
:1045400084E50E94A531882351F00E947231609366
:10455000F2127093F3128093F4129093F51282E4A6
:104560000E94A531882351F00E94323160939E0948
:1045700070939F098093A0099093A10988E50E94F8
:10458000A531882351F00E947231609375097093B0
:104590007609809377099093780989E50E94A5317F
:1045A000882351F00E9472316093790970937A09DF
:1045B00080937B0990937C098AE50E94A53188232A
:1045C00051F00E94723160937D0970937E0980934F
:1045D0007F099093800985E40E94A531882309F41E
:1045E00079C60E9472316093810970938209809329
:1045F0008309909384096EC6F50181915F010E9441
:10460000A531882311F10E9472312B013C01D701A1
:104610002D913D914D915C910E94B8C09B01AC01E0
:10462000F60160817181828193810E94B9C0D601B7
:104630006D937D938D939C931397F70140825182E4
:1046400062827382C8010E94E0300F5F1F4FF4E066
:10465000CF0ED11C24E0E20EF11C0330110561F6EF
:104660000E9415300E942F3735C6E4EBF3E18491A8
:104670008F010F5F1F4F882321F00E942133F80123
:10468000F6CF83E50E94A531882321F00E94633193
:1046900080935D02E8E5F5E084918F010F5F1F4F85
:1046A000882321F00E942133F801F6CF80915D022A
:1046B000811103C0E4E5F5E002C0E0E5F5E0849196
:1046C0008F010F5F1F4F882321F00E942133F801D3
:1046D000F6CFE8E4F5E084918F010F5F1F4F882348
:1046E00021F00E942133F801F6CF40914509509105
:1046F0004609609147097091480986E495E00E9457
:10470000396F4091490950914A0960914B09709164
:104710004C0983E495E00E94396F40914D09509116
:104720004E0960914F097091500980E495E00E9414
:10473000396FE8E3F5E084918F010F5F1F4F882305
:1047400021F00E942133F801F6CF4091510250919F
:104750005202609153027091540286E395E00E94E8
:10476000396F4091550250915602609157027091F5
:10477000580283E395E00E94396F409159025091AD
:104780005A0260915B0270915C0280E395E00E94A6
:10479000396F8AE00E9421339DC583E50E94A531CF
:1047A000882309F497C50E944231709303026093F5
:1047B000020290C58DED90E00E94A83381118AC558
:1047C00083E50E94A531882309F484C500918604FD
:1047D00010E00E944231000F111FF801E15BFD4F14
:1047E0007183608377C580E50E94A531882309F431
:1047F00071C50E944231F62EC62ED72E83E50E9447
:10480000A531882321F00E9442318B0102C00FEFB5
:104810001FEFC8010196039708F05CC5D7FC5AC585
:10482000E3EDF2E08F2D90E02191319128173907C7
:1048300009F450C533E0E932F307B1F70C948B2E3D
:1048400083E50E94A531882319F00E94423102C0FD
:1048500064E071E079A368A380E50E94A531882314
:1048600039F00E944231693843E1740730F402C0E4
:1048700068EE73E07A83698304C088E893E19A83E1
:104880008983BE01605E7F4FCE0101960E94AC3EDF
:1048900021C585E40E94A531811110C080E50E94E8
:1048A000A531882399F00E94723160935E02709363
:1048B0005F02809360029093610208C00E944231BF
:1048C000161617065CF7E5EAFAE071C089E40E9463
:1048D000A531882381F00E9472312CEA35EC47E241
:1048E0005EE30E941DBD6093660270936702809331
:1048F00068029093690284E40E94A531882381F0C4
:104900000E9472312CEA35EC47E25EE30E9495C1C9
:1049100060936202709363028093640290936502D5
:10492000E4EBF3E184918F010F5F1F4F882321F0A7
:104930000E942133F801F6CF40915E0250915F0250
:10494000609160027091610280E795E00E94396F8A
:104950002CEA35EC47E25EE36091660270916702F3
:1049600080916802909169020E9495C1AB01BC01DF
:104970008CE695E00E941C6F2CEA35EC47E25EE382
:10498000609162027091630280916402909165026D
:104990000E941DBDAB01BC0188E695E00E941C6F22
:1049A0008AE00E94213396C40E942133F801849149
:1049B0008F010F5F1F4F8111F7CF07EE13E0D80172
:1049C0008D918D01882309F421CA0E942133F7CFEC
:1049D00083E50E94A531182F882371F00E9472315F
:1049E0000E9402C270937B0260937A0221E0672BDF
:1049F00009F020E020939D0980E50E94A5318823DD
:104A000059F020917A0230917B02232B11F00E9401
:104A1000633180939D095EC411115CC4E4EBF3E142
:104A200084918F010F5F1F4F882321F00E94213353
:104A3000F801F6CF80919D09811103C068ED73E004
:104A400002C06BEC73E089E895E00E946F6F6091A3
:104A50007A0270917B0288E795E00E94566FE4E746
:104A6000F5E084918F010F5F1F4F882309F432C452
:104A70000E942133F801F5CF85E40E94A5318823F7
:104A800021F00E9442318B0102C000E010E083E47B
:104A90000E94A531882349F00E944231CA57DF4F56
:104AA00079836883C658D04008C0E5E0F0E0CA5773
:104AB000DF4FF983E883C658D04085E50E94A531D1
:104AC000ED968FAFED97882329F00E946331ED9624
:104AD0008FAFED9783E50E94A531882331F00E94C6
:104AE00072310E94FDC17B0105C017FD09C0B6E906
:104AF000EB2EF12C0115110531F41092860403C040
:104B0000A6E4EA2EF12C0E94B1A24B015C01012B1C
:104B100019F408EF13E00BC00BE014E0D8018D91FD
:104B20008D01882309F472C90E942133F7CFF8015F
:104B300081918F01882319F00E942133F8CFB701AA
:104B4000FF0C880B990B0E94BEBC24966FAF249774
:104B50002C967FAF2C9760968FAF609764969FAF2F
:104B600064978AE00E9421330E945B978FE78093CD
:104B7000FF1181E080938002C258DF4F88829982C2
:104B8000AA82BB82CE57D040C857DF4F8882998215
:104B9000AA82BB82C858D04068961FAE6897F0E4DE
:104BA0006C96FFAF6C972CE1A0962FAFA09736E4E0
:104BB000AC963FAFAC97E0961FAEE097A4961FAEC1
:104BC000A497A8961FAEA897E4961FAEE497EC961C
:104BD0001CAE1DAE1EAE1FAEEC97E8961CAE1DAE11
:104BE0001EAE1FAEE897C12CD12C7601FFE74F2EE9
:104BF000512C612C712C8FE790E0A0E0B0E023965F
:104C00008CAF9DAFAEAFBFAF2397CE57DF4F1882AB
:104C100019821A821B82C258D04091E0EE969FAF53
:104C2000EE9729961FAE1EAE2997212C312C00E05D
:104C300010E080918002882309F4C9C10E94B1A2CA
:104C40006BAF7CAF8DAF9EAF8091FD11882309F4CF
:104C5000CBC00E9420982090BC093090BD090091E3
:104C6000BE091091BF099101A801E0966FADE097D0
:104C7000A4967FADA497A8968FADA897E4969FAD14
:104C8000E4970E94B8BC87FF0CC0E0962FAEE09777
:104C9000A4963FAEA497A8960FAFA897E4961FAF2F
:104CA000E4979101A80168966FAD68976C967FAD07
:104CB0006C97A0968FADA097AC969FADAC970E94D5
:104CC000DFC2181664F468962FAE68976C963FAEF4
:104CD0006C97A0960FAFA097AC961FAFAC97EE96CF
:104CE000AFADEE9724962FAD24972C963FAD2C9721
:104CF00060964FAD609764965FAD6497B101C8014F
:104D0000AA2309F455C00E94DFC218160CF06CC02B
:104D10004BAD5CAD6DAD7EAD481959096A097B0993
:104D2000DB01CA0188589341A109B109B7FD5CC0F4
:104D300023968CAD9DADAEADBFAD2397841995097B
:104D4000A609B709B595A795979587958093FF1103
:104D5000CE57DF4F488359836A837B83C258D04044
:104D60002496BFAD2497E096BFAFE0972C96EFADA9
:104D70002C97A496EFAFA4976096FFAD6097A89686
:104D8000FFAFA89764962FAD6497E4962FAFE49792
:104D90008BAD9CADADADBEADC258DF4F888399835E
:104DA000AA83BB83CE57D040EE961FAEEE971CC0B1
:104DB0000E94B8BC87FF18C08BAD9CADADADBEAD39
:104DC000C258DF4F288139814A815B81CE57D0405C
:104DD000821B930BA40BB50BAC01BD01485853418A
:104DE0006109710977FFD3C520E030E040EA51E462
:104DF00024966FAD24972C967FAD2C9760968FAD3F
:104E0000609764969FAD64970E94B9C09B01AC0106
:104E1000B101C8010E94DFC218166CF4E6E5F6E0A5
:104E200084918F010F5F1F4F882309F453C20E94A2
:104E30002133F801F5CF80E398EFAFEFBFEFC8570C
:104E4000DF4F288139814A815B81C858D040821B5D
:104E5000930BA40BB50B2BAD3CAD4DAD5EAD820FEE
:104E6000931FA41FB51FB7FD11C00E94DF378AE052
:104E70000E9421338BAD9CADADADBEADC857DF4FA9
:104E800088839983AA83BB83C858D0408BAD9CADDF
:104E9000ADADBEAD880F991FAA1FBB1FC258DF4F13
:104EA000288139814A815B81CE57D040821B930B88
:104EB000A40BB50B88199909AA09BB0981389F442D
:104EC000A241B10568F0E8E3F6E084918F010F5F3D
:104ED0001F4F882309F4FEC10E942133F801F5CF4A
:104EE00029964EAD5FAD2997CA57DF4F88819981CA
:104EF000C658D040841795070CF066C0EBEDF5E07E
:104F000084918F010F5F1F4F882321F00E9421336E
:104F1000F801F6CFB701A60186EC95E00E94396F43
:104F20008AE00E942133E8964CAD5DAD6EAD7FAD59
:104F3000E89781EB95E00E94396F8AE00E94213367
:104F4000EC964CAD5DAD6EAD7FADEC978CE995E028
:104F50000E94396F8AE00E942133ED969FADED9754
:104F6000992309F4B7C1C0925E02D0925F02E09229
:104F70006002F09261022CEA35EC47E25EE3E896CB
:104F80006CAD7DAD8EAD9FADE8970E941DBD609369
:104F900066027093670280936802909369022CEA1C
:104FA00035EC47E25EE3EC966CAD7DAD8EAD9FAD2A
:104FB000EC970E9495C160936202709363028093A4
:104FC00064029093650286C10E94704B32CE80913C
:104FD000800281117FC10E945B977CC10E94BE8DBF
:104FE00079C183E7C82E87E0D82E99E2E92E95E0B3
:104FF000F92E24EC222E29E0322E00E010E0D1011F
:10500000A45CB940BCAFABAFF10181911F01882313
:1050100009F4A4C0F801EF5AFD4F2081318142818B
:105020005381F801EB5BF64F60817181828193813E
:105030000E94B9C020E030E040E05FE30E941DBD67
:105040009B01AC01D7016D917D918D919C910E9446
:10505000DFC2181644F4C801885A914E0E94DA3013
:105060004B015C0103C0812C912C5401F70140805D
:10507000518062807380F801E75BFA4F20813181B3
:1050800042815381C301B2010E94B8C09B01AC01AF
:10509000C501B4010E94B8C04B015C0120E030E0C2
:1050A00040EA51EC0E94DFC287FD29C020E030E0D9
:1050B00040EA51E4C501B4010E94B8BC1816FCF0E6
:1050C000D6012D913D914D915C91C501B4010E9495
:1050D000B8C09B01AC01C301B2010E94B9C0F70185
:1050E0006083718382839383D6018D929D92AD926A
:1050F000BC9213978BAD9CAD0E94E0302FC0E5EAC7
:10510000FAE084918F010F5F1F4F882321F00E94E6
:105110002133F801F6CFE8EEF6E084918F010F5FBE
:105120001F4F882321F00E942133F801F6CF61E060
:105130008AED96E00E94404B0E94E97D88E290E073
:105140009A83898388EC90E099A388A3BE016F5F5E
:105150007F4FCE0180960E94AC3EBCC0B4E0CB0E27
:10516000D11C0C5F1F4FE4E0EE0EF11C0C3011055A
:1051700009F045CF5AD70E942F3760E08AEC96E0BD
:105180000E94404B83E992E099A388A304E610E0D3
:105190001A830983BE01605E7F4FCE0101960E9493
:1051A000AC3E8AEB92E099A388A31A830983BE01DF
:1051B000605E7F4FCE0101960E94AC3E8BC0E5EA57
:1051C000FAE084918F010F5F1F4F882321F00E9426
:1051D0002133F801F6CFE6E0F7E084918F010F5F0D
:1051E0001F4F882309F476C00E942133F801F5CFC0
:1051F0000E949C6B80E00E942F686CC00E949C6B98
:1052000069C083E50E94A531882321F00E946331A3
:1052100091E089270E942F685DC084918F010F5F04
:105220001F4F882321F00E942133F801F6CFE7E1D8
:10523000F7E084918F010F5F1F4F882309F44AC064
:105240000E942133F801F5CF81E08093860210920D
:10525000560583E50E94A531882309F459C50E94AB
:105260006331811137C054C5E0908D04F0908E04F5
:10527000E0928704E4EBF3E184918F010F5F1F4F0D
:10528000882321F00E942133F801F6CFB701772758
:1052900086E297E00E94566F8AE00E9421331AC08E
:1052A000E4EBF3E184918F010F5F1F4F882321F01E
:1052B0000E942133F801F6CF6091C5127091C61299
:1052C00088E397E00E946F6F82E20E9421338AE0B8
:1052D0000E9421330E9424A045C5609184047091EE
:1052E0008504672B21F4F0938504E093840460E047
:1052F00070E00C942012C6D7AB01BC014093DB0CCC
:105300005093DC0C6093DD0C7093DE0C8AE29CE021
:105310000E9489A7DFCF61E08F2D0E9476A1682DC2
:105320008F2D0E9447A1B4018F2D0E94B2A1093098
:10533000110581F690921D0580921C05CBCFD2D726
:105340000E94FDC170931B0560931A0580E00E94C6
:105350001097C8D720E030E04AEA52E40E94B8BC77
:10536000181644F00E94108460E084E593E00E94E7
:10537000404B02C00E94FB3E60911A0570911B05D4
:10538000072E000C880B990B0E94BEBC2091BC0913
:105390003091BD094091BE095091BF090E94DFC202
:1053A0001816B4F48CED93E09F938F93809186044C
:1053B00090E001969F938F938DE493E09F938F935A
:1053C0001F920E94E03E0FB6F894DEBF0FBECDBF25
:1053D0000E948CB581E08093800223961CAE1DAEA6
:1053E0001EAE1FAE239727961CAE1DAE1EAE1FAE7F
:1053F00027971BAE2C961FAE2C979CE360969FAF11
:105400006097ACE16496AFAF6497B6E46896BFAFBF
:105410006897C12CD12C40E8E42E5FEBF52E812C4F
:10542000912C540160911A0570911B05072E000CF8
:10543000880B990B0E94BEBC162F072F782E692E61
:10544000262F372F482F592FB601C7010E94B8BC0D
:10545000882321F12091BC093091BD094091BE09FA
:105460005091BF09612F702F872D962D0E94B8BCD7
:10547000881F8827881F8BAF2896EFAD2897EE23CB
:1054800089F0882379F080918002882309F422CF63
:1054900060E088E393E00E94404B1CCF1C2D0D2D53
:1054A0007E2C6F2C0E94B1A26B017C01DC01CB0130
:1054B00027962CAD3DAD4EAD5FAD2797821B930B6C
:1054C000A40BB50BB7FD47C0D701C60188519C4F4F
:1054D000AF4FBF4F27968CAF9DAFAEAFBFAF2797F3
:1054E0000E94DF37E9E4F3E084912F019FEF491A2E
:1054F000590A882321F00E942133F201F5CF81144B
:105500009104A104B104D1F0D501C401805F984D8C
:10551000AF4FBF4FBC01CD016C197D098E099F09AA
:1055200028EE33E040E050E00E947DC0CA01B9019E
:105530000E948E338AE00E9421330DC0E6E4F3E03E
:1055400084912F01AFEF4A1A5A0A882321F00E9452
:105550002133F201F5CF0E94D09D96D72090BC094F
:105560003090BD094090BE095090BF099101A20141
:10557000612F702F872D962D0E94B8C09F778114C0
:105580009104A104B10449F420E030E040E85FE375
:105590000E94B8BC87FF0BC008C020E030E040E4A8
:1055A00050E40E94DFC2181614F446015701BBAD47
:1055B000BB2309F443C023962CAD3DAD4EAD5FAD8A
:1055C0002397211531054105510541F0D701C60149
:1055D000821B930BA40BB50BB7FD30C09101A20148
:1055E0002C966FAD2C9760967FAD609764968FADCB
:1055F000649768969FAD68970E94B8C020E030E03D
:1056000040EC5FE30E94B8BC87FD3DCFD701C601E7
:10561000805A9541AF4FBF4F23968CAF9DAFAEAF31
:10562000BFAF23972C962FAE2C9760963FAE609716
:1056300064964FAE649768965FAE689780918002DB
:10564000882309F420CF81149104A104B10429F422
:10565000C12ED02EE72CF62CE5CE90E1C91A97E2A8
:10566000D90AE108F108C818D908EA08FB08F7FECA
:105670000ACFEECF37D60E94FDC16739710514F00D
:1056800066E970E070931F0560931E052BD620E03D
:1056900030E040EA50E40E94DFC2181614F40E9481
:1056A000FB3E81E080938002809187048093860492
:1056B00023961CAE1DAE1EAE1FAE239727961CAEC2
:1056C0001DAE1EAE1FAE27971BAE2C961FAE2C979D
:1056D000ACE36096AFAF6097BCE16496BFAF6497F0
:1056E000E6E46896EFAF6897C12CD12C20E8E22E53
:1056F0003FEBF32E812C912C540160911E0570918B
:105700001F05072E000C880B990B0E94BEBC162F9C
:10571000072F782E692E262F372F482F592FB601A5
:10572000C7010E94B8BC882321F12091C0093091A3
:10573000C1094091C2095091C309612F702F872D73
:10574000962D0E94B8BC881F8827881F8BAF28968B
:10575000FFAD2897FF2389F0882379F0809180029C
:10576000882309F4B7CD60E086E693E00E94404BC1
:10577000B1CD1C2D0D2D7E2C6F2C0E94B1A26B0182
:105780007C01DC01CB0127962CAD3DAD4EAD5FAD6C
:105790002797821B930BA40BB50BB7FD43C0D70112
:1057A000C60188519C4FAF4FBF4F27968CAF9DAF1E
:1057B000AEAFBFAF27970E94DF37E3E7F3E08491F6
:1057C0002F019FEF491A590A882319F03AD7F2019D
:1057D000F6CF81149104A104B104C1F0D501C40134
:1057E000805F984DAF4FBF4FBC01CD016C197D0953
:1057F0008E099F0928EE33E040E050E00E947DC012
:10580000CA01B9018BD78AE01CD70CC0E0E7F3E0EE
:1058100084912F01AFEF4A1A5A0A882319F011D741
:10582000F201F6CF0E94D09D2FD62090C009309073
:10583000C1094090C2095090C3099101A201612F92
:10584000702F872D962D0E94B8C09F7781149104E8
:10585000A104B10449F420E030E040E85FE30E9495
:10586000B8BC87FF0BC008C020E030E040E450E443
:105870000E94DFC2181614F446015701BBADBB23CA
:1058800009F443C023962CAD3DAD4EAD5FAD2397DB
:10589000211531054105510541F0D701C601821B93
:1058A000930BA40BB50BB7FD30C09101A2012C9650
:1058B0006FAD2C9760967FAD609764968FAD6497BF
:1058C00068969FAD68970E94B8C020E030E040EC39
:1058D0005FE30E94B8BC87FD41CFD701C601805A63
:1058E0009541AF4FBF4F23968CAF9DAFAEAFBFAFCB
:1058F00023972C962FAE2C9760963FAE60976496B8
:105900004FAE649768965FAE689780918002882357
:1059100009F424CF81149104A104B10429F4C12E07
:10592000D02EE72CF62CE9CE90E1C91A97E2D90ADD
:10593000E108F108C818D908EA08FB08F7FE0ECFFD
:10594000EECF0E94BE8D88E500D5882319F05F9ABE
:105950001092700789E5F9D4882319F08A9A109279
:1059600071078AE5F2D4882359F09FB7F8948091A3
:1059700008018160809308019FBF479A10927207C7
:1059800085E4E3D4882309F4A5CC129AA3CC299604
:105990004EAD5FAD2997141615060CF07FC1CE579A
:1059A000DF4F88809980AA80BB80C258D040880E83
:1059B000991EAA1EBB1ECE57DF4F288139814A810E
:1059C0005B81C258D040281B390B4A0B5B0BCA01C4
:1059D000B901A30192010E946EC0A50194010E9429
:1059E000A4C323964CAC5DAC6EAC7FAC2397420E47
:1059F000531E641E751E34E1431651046104710484
:105A00001CF14CEE44165104610471043CF450E85E
:105A100045165104610471043CF105C06BEE462E3D
:105A2000512C612C712C23964CAE5DAE6EAE7FAEC8
:105A300023978EEF90E0A0E0B0E084199509A609C5
:105A4000B7092C013D0116C024E130E040E050E0F0
:105A500023962CAF3DAF4EAF5FAF239754E1452E59
:105A6000512C612C712C06C023964CAE5DAE6EAEEF
:105A70007FAE2397E2ECF6E084919F012F5F3F4FCA
:105A80008823B9F0C257DF4F2883CE58D040C15782
:105A9000DF4F3883CF58D040D4D5C257DF4F28814D
:105AA000CE58D040C157DF4F3881CF58D040F90190
:105AB000E3CF23966CAD7DAD8EAD9FAD23972ED6F3
:105AC000EDEBF6E084919F012F5F3F4F8823B9F003
:105AD000C257DF4F2883CE58D040C157DF4F38839D
