:100000000C9441130C9472130C9472130C9472138D
:100010000C9472130C9472130C9472130C9472134C
:100020000C9472130C9472130C9472130C9472133C
:100030000C9472130C9472130C9472130C9472132C
:100040000C9472130C94FD490C9472130C9472135B
:100050000C9472130C9472130C9478860C9496740E
:100060000C9472130C94AF3A0C9472130C94721398
:100070000C9472130C9472130C9472130C947213EC
:100080000C9472130C9472130C9472130C947213DC
:100090000C9472130C9472130C9472130C947213CC
:1000A0000C9472130C9472130C9472130C947213BC
:1000B0000C9472130C9472130C9472130C947213AC
:1000C0000C9472130C9472130C9472130C9472139C
:1000D0000C9472130C9472130C9472130C9472138C
:1000E0000C947213B273B773BC73C673D073497434
:1000F000DA73E273EA73F473FE730874177421748D
:1001000049742B7435743F7477C27AC269C26DC268
:1001100073C2B1C27EC282C288C28CC290C296C271
:100120009AC29EC2B1C2A4C2A8C2ACC2084AD73BFE
:100130003BCE016E84BCBFFDC12F3D6C74319ABDB6
:1001400056833DDA3D00C77F11BED9E4BB4C3E91DA
:100150006BAAAABE000000803F05A84CCDB2D44EC9
:10016000B93836A9020C50B9918688083CA6AAAACB
:100170002ABE000000803F004E414E494E4954596E
:10018000494E46CDCCCC3D0AD7233C17B7D1387762
:10019000CC2B329595E6241FB14F0A000020410078
:1001A00000C84200401C4620BCBE4CCA1B0E5AAEC2
:1001B000C59D74434F4D4D554E49434154494F4E93
:1001C0000044525952554E004552524F5253004925
:1001D0004E464F004543484F0047322F4733206279
:1001E000616420706172616D65746572730A005399
:1001F0006C6565702E2E2E0059206F7574206F6609
:100200002072616E67652028312D33292E0A00582F
:10021000206F7574206F662072616E6765202831CB
:100220002D33292E0A004D6573682070726F626944
:100230006E6720646F6E652E0A00537461727420BD
:100240006D6573682070726F62696E67207769747C
:100250006820224732392053312220666972737434
:100260002E0A004732380A4732392053320053747D
:100270006174653A20004D65736820626564206C86
:100280006576656C696E6720686173206E6F2064A7
:100290006174612E0A0053206F7574206F6620729E
:1002A000616E67652028302D35292E0A004D657353
:1002B0006820706F696E742063616E6E6F74206267
:1002C00065207265736F6C7665640A00416E7963B0
:1002D000756269632069332B2072656164792E0031
:1002E000526573756D696E67207072696E74004334
:1002F0006C69636B20746F20726573756D652E2E4B
:100300002E00456E642066696C65206C6973740A02
:1003100000426567696E2066696C65206C6973745C
:100320000A002569730025696D2025697300256918
:10033000682025696D202569730025696420256979
:10034000682025696D202569730025697920256954
:1003500064202569682025696D2025697300507225
:10036000696E742074696D653A200050726F74650F
:10037000637465642050696E0A0045256920257301
:1003800000416E7963756269632069332B20726561
:100390006164792E00D401CF01C801C101B3016F9E
:1003A00066660044454255473A004B494C4C45442B
:1003B0002E200048656174696E6720646F6E652E3B
:1003C0000020573A0045256920257300416E796366
:1003D000756269632069332B2072656164792E0030
:1003E00042656420646F6E652E0020573A004265B6
:1003F000642048656174696E672E00416E7963758B
:100400006269632069332B204F66662E007A5F6D28
:10041000696E3A2000795F6D696E3A2000785F6DF1
:10042000696E3A20005265706F7274696E6720655C
:100430006E6473746F70207374617475730A000056
:100440000136372603FF3C3D380EFF2E303E12FFAB
:10045000FF0C0809FFFF071A1C18FFFF08440AFFDA
:100460004324221EFFFFFFFFFFFF20643A002069A4
:100470003A0020703A0043290A0061626C656420EA
:10048000286D696E2074656D702000436F6C642068
:1004900065787472756465732061726520002364E9
:1004A0006566696E65202044454641554C545F4B56
:1004B00064200023646566696E65202044454641DA
:1004C000554C545F4B69200023646566696E652056
:1004D0002044454641554C545F4B702000504944E0
:1004E000204175746F74756E652066696E697368F6
:1004F0006564212050757420746865206C61737484
:10050000204B702C204B6920616E64204B6420636B
:100510006F6E7374616E74732066726F6D206265A6
:100520006C6F7720696E746F20436F6E66696775B4
:10053000726174696F6E2E680A00504944204175DB
:10054000746F74756E65206661696C6564212074D2
:10055000696D656F75740A00504944204175746F68
:1005600074756E65206661696C6564212054656DE3
:10057000706572617475726520746F6F2068696749
:10058000680A00204B643A2000204B693A20002082
:100590004B703A20000A20436C61737369632050EA
:1005A0004944200A002054753A2000204B753A2017
:1005B00000206D61783A2000206D696E3A2000209D
:1005C000643A200020626961733A20004F66660A2F
:1005D000004661646520486569676874200042656B
:1005E00064204C6576656C696E6720004661696CB5
:1005F000656420746F20656E61626C65204265647D
:10060000204C6576656C696E670A004D65736820DD
:10061000426564204C6576656C20646174613A0AB9
:10062000004D65736820706F696E742063616E6E33
:100630006F74206265207265736F6C7665640A0062
:100640004D34323120696E636F727265637420704D
:100650006172616D657465722075736167650A000A
:100660004F666673657473206170706C69656400B1
:100670004572723A20546F6F206661722100546F88
:100680006F206661722066726F6D2072656665729A
:10069000656E636520706F696E740A00454550523F
:1006A0004F4D2064697361626C65640A004E6F206F
:1006B00063617365206C696768740A0041637469DB
:1006C00076652045787472756465723A2000556EBF
:1006D0006B6E6F776E20636F6D6D616E643A202272
:1006E000004E6F204C696E65204E756D62657220FC
:1006F0007769746820636865636B73756D2C204C33
:10070000617374204C696E653A20004B494C4C452E
:10071000442E200053544F505045442E2000507218
:10072000696E7465722073746F707065642064758F
:100730006520746F206572726F72732E204669781F
:1007400020746865206572726F7220616E64207516
:100750007365204D39393920746F20726573746167
:1007600072742E202854656D70657261747572659F
:100770002069732072657365742E20536574206937
:100780007420616674657220726573746172746935
:100790006E67290A004E6F20436865636B73756D41
:1007A0002077697468206C696E65206E756D62656E
:1007B000722C204C617374204C696E653A20006382
:1007C0006865636B73756D206D69736D61746368C3
:1007D0002C204C617374204C696E653A20004C6982
:1007E0006E65204E756D626572206973206E6F7440
:1007F000204C617374204C696E65204E756D626586
:10080000722B312C204C617374204C696E653A2038
:10081000004D313130004D3331004D3834205820F7
:1008200059205A2045005344207265616420657246
:10083000726F720A00446F6E65207072696E74691F
:100840006E672066696C650A0020496E76616C6986
:100850006420657874727564657220000000000081
:10086000000000000000000000005C4300005C434A
:1008700000007A43206E6F7420656E746572656443
:100880002E0A000A4D6561737572656420706F6988
:100890006E74733A0A005A206F66667365743A2064
:1008A000004E756D20582C593A20332C330A004ED7
:1008B0006F206D6F76652E005344207072696E74E0
:1008C000696E67206279746520004E6F742053440E
:1008D000207072696E74696E670A0050726568658F
:1008E00061742041425320636F6E660050726568E8
:1008F00065617420504C4120636F6E66005049441E
:100900002D44005049442D44005049442D49005085
:1009100049442D49005049442D50005049442D5020
:100920000020022046616374002002204661637447
:10093000002002204D6178002002204D61780020C7
:1009400002204D6178002002204D696E00200220B7
:100950004D696E002002204D696E004F6666004FA3
:100960006E20004175746F74656D700046616E2075
:1009700073706565640046616E2073706565640020
:1009800046616E207370656564004265640042656F
:1009900064004E6F7A7A6C65004E6F7A7A6C6500EF
:1009A000436F6E74726F6C00426564004265640050
:1009B000426564004E6F7A7A6C65004E6F7A7A6C8D
:1009C00065004E6F7A7A6C650046616E20737065C3
:1009D00065640046616E2073706565640046616EF3
:1009E0002073706565640054656D7065726174751F
:1009F0007265005654726176206D696E00565472AD
:100A00006176206D696E005654726176206D696E54
:100A100000566D696E00566D696E00566D696E0008
:100A2000566D6178204500566D6178204500566D01
:100A30006178204500566D6178205A00566D6178C6
:100A4000205A00566D6178205A00566D6178205901
:100A500000566D6178205900566D61782059005616
:100A60006D6178205800566D6178205800566D6190
:100A7000782058004D6F74696F6E00416D61782069
:100A80004500416D6178204500416D6178205A0034
:100A9000416D6178205A00416D6178205900416DA7
:100AA0006178205900416D6178205800416D61786E
:100AB000205800412D74726176656C00412D74726E
:100AC0006176656C00412D726574726163740041DA
:100AD0002D7265747261637400416363656C0041DB
:100AE0006363656C004D6F74696F6E0024F4D430DD
:100AF00050C38E20C2A24017828B7011127A910DC2
:100B0000816CD90AA861E108C7586607615143069C
:100B10001E4B5D05C145A7041A411104093D980308
:100B2000713931034036DB0265339102D43054020F
:100B3000802E1D02632CEE01752AC501B028A0018C
:100B4000102781018F2564012B244B01E022340101
:100B5000AC211F018D200D01801FFC00841EED00C3
:100B6000971DDF00B81CD200E61BC600201BBC008E
:100B7000641AB200B219A8000A19A0006A189900F4
:100B8000D117910040178B00B516840031167E00F6
:100B9000B31579003A157300C7146F0058146A0032
:100BA000EE1366008813630025135E00C7125B0016
:100BB0006C12570015125400C111510070114F00F2
:100BC00021114B00D61049008D10470046104400FB
:100BD00002104200C00F4000800F3E00420F3C0058
:100BE000060F3B00CB0E3800930E37005C0E35002D
:100BF000270E3400F30D3200C10D3100900D30008E
:100C0000600D2E00320D2D00050D2C00D90C2B008F
:100C1000AE0C2900850C29005C0C2700350C270040
:100C20000E0C2600E80B2400C40B2400A00B2300AC
:100C30007D0B23005A0B2100390B2100180B2000DB
:100C4000F80A1F00D90A1E00BB0A1E009D0A1D00DB
:100C5000800A1D00630A1C00470A1B002C0A1B00A7
:100C6000110A1A00F7091A00DD091900C409190050
:100C7000AB091900920917007B09180063091700D6
:100C80004C09160036091600200916000A0915003D
:100C9000F5081500E0081400CC081400B80814008A
:100CA000A4081400900813007D0812006B081300BC
:100CB00058081200460812003408110023081100D9
:100CC0001208110001081100F0071000E0071000E1
:100CD000D0071000C0071000B0070F00A1071000D8
:100CE00091070E0083070F0074070F0065070E00C1
:100CF00057070E0049070E003B070D002E070E0098
:100D000020070D0013070D0006070D00F9060C0063
:100D1000ED060D00E0060C00D4060C00C8060C0021
:100D2000BC060C00B0060C00A4060B0099060C00D3
:100D30008D060B0082060B0077060B006C060B007D
:100D400061060A0057060B004C060A0042060A001C
:100D500038060A002E060A0024060A001A060A00AF
:100D60001006090007060A00FD050900F405090040
:100D7000EB050900E2050900D9050900D0050900C5
:100D8000C7050900BE050900B5050800AD05080046
:100D9000A50509009C050800940508008C050800BD
:100DA000840508007C050800740508006C05070030
:100DB000650508005D050700560508004E0507009B
:100DC0004705070040050800380507003105070002
:100DD0002A050700230507001C0506001605070065
:100DE0000F0507000805060002050700FB040600C2
:100DF000F5040700EE040600E8040600E20407001C
:100E0000DB040600D5040600CF040600C904060072
:100E1000C3040600BD040600B7040600B1040500C3
:100E2000AC040600A6040600A00405009B0406000E
:100E300095040500900406008A0405008504050059
:100E4000800406007A04050075040500700405009E
:100E50006B04050066040500610405005C040500E0
:100E600057040500520405004D0405004804050020
:100E7000430405003E0404003A040500350405005F
:100E8000300404002C04050027040400230405009A
:100E90001E0404001A0404001604050011040400D2
:100EA0000D04040009040500040404000004040007
:100EB000FC030400F8030400F4030400F00304003E
:100EC000EC030400E8030400E4030400E00304006E
:100ED000DC030400D8030400D4030400D00304009E
:100EE000CC030400C8030300C503030024F404D9A1
:100EF000201BC40C5C0E9804C4095F0265077101D5
:100F0000F405F900FB04B30048048700C10369003D
:100F10005803550003034500BE023A008402310025
:100F200053022A002902250004022000E4011C00CB
:100F3000C8011900AF0117009801140084011300C3
:100F4000710110006101100051010E0043010D00FC
:100F500036010B002B010B0020010B0015010900CD
:100F60000C01090003010800FB000800F300080061
:100F7000EB000700E4000600DE000600D8000600D3
:100F8000D2000600CC000500C7000500C200050025
:100F9000BD000400B9000400B5000400B100040065
:100FA000AD000400A9000400A5000300A200030096
:100FB0009F0004009B0003009800030095000200BE
:100FC00093000300900003008D0002008B000300DB
:100FD00088000200860002008400030081000200F5
:100FE0007F0002007D0002007B0002007900020009
:100FF0007700010076000200740002007200010018
:10100000710002006F0002006D0001006C00020020
:101010006A0001006900020067000100660001002B
:10102000650001006400020062000100610001002F
:10103000600001005F0002005D0001005C00010033
:101040005B0001005A000100590001005800010036
:101050005700010056000100550001005400010036
:101060005300000053000100520001005100010034
:10107000500001004F0001004E0000004E00010032
:101080004D0001004C0001004B0000004B0001002E
:101090004A0001004900010048000000480001002A
:1010A0004700010046000000460001004500000026
:1010B000450001004400010043000000430001001E
:1010C0004200000042000100410000004100010018
:1010D000400001003F0000003F0001003E00000012
:1010E0003E0001003D0000003D0001003C0000000A
:1010F0003C0000003C0001003B0000003B00010000
:101100003A0000003A0001003900000039000100F7
:1011100038000000380000003800010037000000EF
:1011200037000100360000003600000036000100E4
:1011300035000000350000003500010034000000DB
:1011400034000000340001003300000033000000D0
:1011500033000100320000003200000032000100C4
:1011600031000000310000003100010030000000BB
:1011700030000000300001002F0000002F000000B0
:101180002F0000002F0001002E0000002E000000A4
:101190002E0001002D0000002D0000002D00000099
:1011A0002D0001002C0000002C0000002C0000008D
:1011B0002C0001002B0000002B0000002B00000081
:1011C0002B0001002A0000002A0000002A00000075
:1011D0002A00010029000000290000002900000069
:1011E000290000002900010028000000280000005C
:1011F000280000002800000028000100270000004F
:101200002700000027000000270000002700010041
:101210002600000026000000260000002600000036
:101220002600010025000000250000002500000028
:10123000250000002500000025000100240000001A
:10124000240000002400000024000000240001000D
:101250002300000023000000230000002300000002
:1012600023000000230000002300010022000000F2
:1012700022000000220000002200000022000000E6
:1012800022000100210000002100000021000000D8
:1012900021000000210000002100000021000100C9
:1012A00020000000200000002000000020000000BE
:1012B00020000000200000002000000020000100AD
:1012C0001F0000001F0000001F0000001F000000A2
:1012D0001F0000001F0000001F0001001E00000092
:1012E0001E0000001E0000001E0000004D383420CB
:1012F000582059205A2045006265640A002C20734A
:10130000797374656D2073746F7070656421204803
:1013100065617465725F49443A200048656174698B
:101320006E67206661696C65640048656174696E0A
:1013300067206661696C65640048656174696E6701
:10134000206661696C65640048656174696E672038
:101350006661696C656400544845524D414C2052A9
:10136000554E4157415900546865726D616C205269
:10137000756E617761790046696C652064656C659E
:101380007465643A0044656C6574696F6E206661CB
:10139000696C65642C2046696C653A20006F706545
:1013A0006E206661696C65642C2046696C653A2024
:1013B00000202F002042403A0020403A006F6B008E
:1013C0004D31343520533C696E6465783E206F752D
:1013D00074206F662072616E67652028302D312978
:1013E0000A00205A3A0020593A0020436F756E7463
:1013F00020583A0020453A00205A3A0020593A0035
:10140000583A004361703A454D455247454E43595D
:101410005F5041525345523A300A004361703A439B
:101420004153455F4C494748545F425249474854ED
:101430004E4553533A300A004361703A544F474780
:101440004C455F4C49474854533A300A0043617059
:101450003A534F4654574152455F504F5745523AC1
:10146000300A004361703A4C4556454C494E475F3F
:10147000444154413A310A004361703A5A5F505234
:101480004F42453A300A004361703A4155544F4C3F
:101490004556454C3A300A004361703A5052494E25
:1014A000545F4A4F423A310A004361703A50524FFA
:1014B00047524553533A300A004361703A415554FC
:1014C0004F5245504F52545F54454D503A310A00E7
:1014D0004361703A454550524F4D3A300A004649F3
:1014E000524D574152455F4E414D453A4D61726CE8
:1014F000696E20312E312E35202847697468756257
:101500002920534F555243455F434F44455F555241
:101510004C3A68747470733A2F2F676974687562F7
:101520002E636F6D2F4D61726C696E4669726D77B7
:101530006172652F4D61726C696E2050524F544F2D
:10154000434F4C5F56455253494F4E3A312E30204F
:101550004D414348494E455F545950453A416E7993
:1015600063756269632069332B2045585452554492
:1015700045525F434F554E543A3120555549443AF0
:1015800063656465326132662D343161322D3437E2
:1015900034382D396231322D633535633632663356
:1015A000363766660A002F2F200053657474696E03
:1015B000672054726176656C20416363656C657267
:1015C0006174696F6E3A200053657474696E6720A8
:1015D0005265747261637420416363656C65726106
:1015E00074696F6E3A200053657474696E67205099
:1015F00072696E7420416363656C65726174696FB2
:101600006E3A200053657474696E67205072696E7B
:101610007420616E642054726176656C204163634E
:10162000656C65726174696F6E3A2000205A002003
:101630005900580020204D61783A2000205A00209F
:101640005900580020204D696E3A20004F6E20004E
:101650004F666600536F667420656E6473746F70B6
:10166000733A2000436172642072656D6F76656421
:10167000004361726420696E736572746564002052
:10168000746F6F206C6F6E67206578747275736904
:101690006F6E2070726576656E7465640A002063F3
:1016A0006F6C6420657874727573696F6E207072E8
:1016B0006576656E7465640A004B494C4C45442E52
:1016C0002000202D20496E76616C69642065787455
:1016D0007275646572206E756D62657220210A00F4
:1016E0002D2D2D2D2D2D007C4D61726C696E7C0091
:1016F0002D2D2D2D2D2D00687474703A2F2F6D61B6
:10170000726C696E66772E6F726700687474703AD7
:101710002F2F6D61726C696E66772E6F7267002075
:10172000312E312E350000000000010204040000BB
:10173000001C1C0C0404040201000000000004084A
:101740001000000000002020506C616E6E65724237
:10175000756666657242797465733A200020467238
:101760006565204D656D6F72793A2000436F6D702D
:10177000696C65643A204A616E203138203230311C
:10178000390A00207C20417574686F723A20546FCA
:10179000626961732052656974686D656965720A72
:1017A00000323031372D30382D32382031323A3056
:1017B0003000204C61737420557064617465643A24
:1017C0002000312E312E350A004D61726C696E0099
:1017D00020536F6674776172652052657365740A71
:1017E00000205761746368646F6720526573657485
:1017F0000A002042726F776E206F757420526573F5
:1018000065740A002045787465726E616C205265BB
:101810007365740A00506F77657255700A007374AF
:101820006172740A006572726F72207772697469EE
:101830006E6720746F2066696C650A00456E64737C
:10184000746F707320256320256320256320256332
:1018500000205A3A0020593A0020583A00656E6438
:1018600073746F7073206869743A2000446F6E65FA
:1018700020736176696E672066696C652E0A004D7B
:1018800032390048617264636F6465642044656640
:1018900061756C742053657474696E6773204C6F46
:1018A000616465640A00B80B0000B80B00003200E8
:1018B000000010270000000096430000964300003F
:1018C000C0400000C8410000A0420000A04200004B
:1018D000C8433333B94220440020490020204D330F
:1018E00030312050005049442073657474696E672C
:1018F000733A0A0020460020420020480020204D74
:101900003134352053004D6174657269616C206813
:10191000656174757020706172616D657465727354
:101920003A0A00205A00205900202047323920531B
:1019300033205800205A0020204D343230205300EC
:101940004D65736820426564204C6576656C696EF0
:10195000673A0A00205A0020590020204D323036C4
:10196000205800486F6D65206F66667365743A0A8B
:1019700000204500205A0020590020580020420035
:1019800020540020204D32303520530041647661D0
:101990006E6365643A20533C6D696E5F666565648D
:1019A000726174653E20543C6D696E5F747261763D
:1019B000656C5F66656564726174653E20423C6D6E
:1019C000696E5F7365676D656E745F74696D655F81
:1019D0006D733E20583C6D61785F78795F6A6572FF
:1019E0006B3E205A3C6D61785F7A5F6A65726B3E30
:1019F00020453C6D61785F655F6A65726B3E0A00E9
:101A000020540020520020204D323034205000411C
:101A10006363656C65726174696F6E2028756E69A9
:101A200074732F7332293A20503C7072696E745F60
:101A3000616363656C3E20523C72657472616374CD
:101A40005F616363656C3E20543C74726176656CC3
:101A50005F616363656C3E0A00204500205A0020E8
:101A6000590020204D3230312058004D6178696D89
:101A7000756D20416363656C65726174696F6E207A
:101A800028756E6974732F7332293A0A0020450055
:101A9000205A0020590020204D3230332058004D6C
:101AA0006178696D756D20666565647261746573D2
:101AB0002028756E6974732F73293A0A0020450037
:101AC000205A0020590020204D39322058005374EC
:101AD0006570732070657220756E69743A0A002013
:101AE000204D3230302044300A0020204D3230303A
:101AF0002044002044697361626C65640A00466991
:101B00006C616D656E742073657474696E67733A89
:101B10000020204D3134392043203B20556E69741C
:101B20007320696E2043656C736975730A00202009
:101B3000473231202020203B20556E697473206984
:101B40006E206D6D0A0070012C0190012701B0011B
:101B50002201C0011D01F001180110021301300221
:101B60000E016002090190020401C002FF0000039F
:101B7000FA004003F5008003F000D003EB002004DE
:101B8000E6007004E100E004DC004005D700C00579
:101B9000D2004006CD00D006C8008007C300300840
:101BA000BE00F008B900C009B400B00AAF00B00B25
:101BB000AA00D00CA500000EA000500F9B00C01082
:101BC00096005012910000148C00C0158700B017C9
:101BD0008200B0197D00D01B7800001E73004020E9
:101BE0006E0090226900F024640040275F00902975
:101BF0005A00E02B5500102E500020304B001032C0
:101C00004600E033410090353C0010373700703813
:101C10003200A0392D00B03A2800A03B2300603CE0
:101C20001E00103D1900903D1400103E0F00703E44
:101C30000A00C03E0500003F0000403FFBFF803F20
:101C4000F6FFC03FF1FF4572723A204D494E5445B0
:101C50004D5020424544004572723A204D494E5441
:101C6000454D50004D494E54454D502074726967A2
:101C70006765726564004572723A204D415854455B
:101C80004D5020424544004572723A204D4158540F
:101C9000454D50004D415854454D50207472696770
:101CA000676572656400001C1F11111F00000006AB
:101CB000191803130C00040E1F041C000000000E72
:101CC0001315110E00001C10181705060500040A54
:101CD0000A0A0A11110E0C12120C00000000001F5B
:101CE0001511151F000025753A2530327500253075
:101CF00032753A25303275002D2D2D005344005A8F
:101D000000590058005072696E74207061757365D7
:101D10006400005072696E742061626F7274656451
:101D2000004E6F2053442063617264005072696EEC
:101D3000742066726F6D2053440053746F7020706E
:101D400072696E7400526573756D65207072696E8C
:101D5000740041626F7574205072696E7465720010
:101D60005061757365207072696E7400436F6E7494
:101D7000726F6C00507265706172650054756E65AB
:101D800000496E666F2073637265656E00466C6F06
:101D90007700466C6F7700466C6F770046616E2067
:101DA00073706565640046616E20737065656400DC
:101DB00046616E207370656564004265640042652B
:101DC00064004E6F7A7A6C65004E6F7A7A6C6500AB
:101DD000426564205A00426564205A00537065656C
:101DE00064005370656564005370656564004D61FF
:101DF000696E005072656865617420504C412045E1
:101E00006E64005072656865617420504C412042D8
:101E10006564005072656865617420504C410050E3
:101E20007265706172650050726568656174204109
:101E3000425320456E6400507265686561742041AC
:101E400042532042656400507265686561742041A8
:101E5000425300507265706172650056652D6A6567
:101E6000726B0056652D6A65726B0056652D6A654A
:101E7000726B00567A2D6A65726B00567A2D6A6510
:101E8000726B0056792D6A65726B0056792D6A6502
:101E9000726B0056792D6A65726B0056782D6A65F3
:101EA000726B0056782D6A65726B0056782D6A65E4
:101EB000726B004D6F74696F6E004573746570735B
:101EC0002F6D6D004573746570732F6D6D005A73BF
:101ED000746570732F6D6D005A73746570732F6D18
:101EE0006D005973746570732F6D6D00597374654F
:101EF00070732F6D6D005873746570732F6D6D0066
:101F00005873746570732F6D6D004D6F74696F6ECB
:101F10000053746570732F6D6D004A65726B0041DC
:101F20006363656C65726174696F6E0056656C6F92
:101F30006369747900436F6E74726F6C0046696CEC
:101F40002E204469612E0046696C2E204469612E62
:101F5000004F6666004F6E20004520696E206D6D53
:101F60003300436F6E74726F6C0043616E6E6F74FA
:101F700020656E746572207375626469723A200020
:101F8000052E2E004D61696E004D343238005072BE
:101F9000656865617420504C4100436F6F6C646FDD
:101FA000776E005072656865617420414253004449
:101FB000697361626C65207374657070657273001B
:101FC0004D38340053657420686F6D65206F666608
:101FD0007365747300426564204C6576656C696E48
:101FE00067004175746F20686F6D65004732380077
:101FF0004D6F76652061786973004D61696E004DA3
:102000006F76652058004D6F76652059004D6F76CC
:1020100065205A004578747275646572004D6F765C
:102020006520302E316D6D004D6F766520316D6D00
:10203000004D6F76652031306D6D004D6F766520F7
:1020400061786973004578747275646572004D6FCC
:102050007665205A004D6F76652059004D6F766584
:102060002058004578747275646572004D6F76650E
:10207000205A004D6F76652059004D6F76652058C7
:10208000005072657061726500526573746F72659D
:10209000206661696C736166650046696C616D6597
:1020A0006E74004D6F74696F6E0054656D7065726B
:1020B0006174757265004D61696E004B494C4C4509
:1020C000442E20004B494C4C20636175736564209D
:1020D0006279204B494C4C20627574746F6E2F707E
:1020E000696E0A004B494C4C45442E20004B494C2C
:1020F0004C2063617573656420627920746F6F2072
:102100006D75636820696E616374697665207469B2
:102110006D65202D2063757272656E7420636F6D1E
:102120006D616E643A2000506C6561736520726564
:10213000736574005052494E5445522048414C54E6
:102140004544005072696E7465722068616C7465F4
:10215000642E206B696C6C28292063616C6C65644B
:10216000210A00656E7175657565696E67202200CC
:1021700000000000000000000000000000004842D5
:102180000000484200008040000000005761726E6D
:10219000696E673A20486F6D696E672042756D7091
:1021A0002044697669736F72203C20310A00020274
:1021B000030000A0400000A0400000004000005CC0
:1021C0004300005C4300007A43FFFFFF7C3C3E5E1F
:1021D0002B3D3F2F5B5D3B2C2A225C0043616E6EE2
:1021E0006F74206F70656E20737562646972200071
:1021F0006563686F3A0053442063617264206F6BBB
:102200000A006F70656E526F6F74206661696C654D
:10221000640A00766F6C756D652E696E6974206650
:1022200061696C65640A00534420696E69742066B4
:1022300061696C0A006175746F25692E67004D3203
:1022400034004D32332025730057726974696E670C
:1022500020746F2066696C653A20006F70656E208F
:102260006661696C65642C2046696C653A20006F74
:1022700070656E206661696C65642C2046696C65CA
:102280003A200046696C652073656C65637465640B
:102290000A002053697A653A200046696C65206F10
:1022A00070656E65643A20006F70656E20666169C6
:1022B0006C65642C2046696C653A20002066696C68
:1022C000653A20004E6F7720002220706F73002245
:1022D00020706172656E743A2200535542524F5518
:1022E00054494E452043414C4C20746172676574DB
:1022F0003A22004B494C4C45442E200074727969B7
:102300006E6720746F2063616C6C207375622D673B
:10231000636F64652066696C6573207769746820F3
:10232000746F6F206D616E79206C6576656C732EAD
:10233000204D4158206C6576656C2069733A0045E4
:1023400072726F723A004D61782054656D703A2058
:10235000313130004D696E2054656D703A20350082
:10236000544265643A4550434F53203130304B005E
:102370004D61782054656D703A20323630004D69D9
:102380006E2054656D703A20350054303A20455027
:10239000434F53203130304B005053553A2047655E
:1023A0006E657269630050726F746F636F6C3A2070
:1023B000312E3000426175643A2032353030303091
:1023C0000052414D505320312E33004D657368202B
:1023D0004C6576656C696E670045787472756465E6
:1023E00072733A203100687474703A2F2F6D6172E5
:1023F0006C696E66772E6F726700416E79637562E5
:1024000069632069332B00323031372D30382D325B
:10241000382031323A303000312E312E35004D61C6
:10242000726C696E00546865726D6973746F727353
:1024300000426F61726420496E666F005072696E6F
:1024400074657220496E666F004D61696E0042616D
:10245000636B004E65787420636F726E6572004C1A
:102460006576656C696E6720446F6E6521004D6FFF
:102470007665205A004E65787420506F696E74003E
:102480002569202F202575004D6F76696E672E2EE9
:102490002E00436C69636B20746F20426567696E20
:1024A00000486F6D696E672058595A0047323800EE
:1024B0004C6576656C2062656400426564205A0054
:1024C000426564205A004661646520486569676812
:1024D00074004661646520486569676874004F66EA
:1024E00066004F6E2000426564204C6576656C691D
:1024F0006E67004C6576656C20636F726E657273F3
:10250000004175746F20686F6D6500473238005068
:102510007265706172650000002100240027002AA6
:10252000002D003000330001010000040107010A02
:102530000100002200250028002B002E003100346D
:102540000002010000050108010B0100002000232A
:1025500000260029002C002F00320000010000039B
:102560000106010901050505050705080808080217
:102570000202020A0A08080404040401010101011C
:102580000101010303030303030303040707070C0B
:102590000C0C0C0C0C0C0C020202020606060606C1
:1025A0000606060B0B0B0B0B0B0B0B01021020206E
:1025B0000808102040102040800201020108040297
:1025C000010102040810204080804020100804020D
:1025D0000180040201804020100804020108040266
:1025E000010102040810204080010204081020406C
:1025F0008000000A0B02090C0D0E080703040100FD
:1026000000000000000000000000000000000000CA
:102610000000000000000000000000000012111087
:1026200000000000000000000000000000000000AA
:1026300000000000000000526573656E643A2000DF
:102640006F6B0020746F6F206C6F6E6720657874FD
:10265000727573696F6E2070726576656E746564ED
:102660000A0020636F6C6420657874727573696FFB
:102670006E2070726576656E7465640A00002DD0F8
:102680000CD011241FBECFEFD1E2DEBFCDBF00E0E2
:102690000CBF13E0A0E0B2E0E6EFFFEB01E00BBF00
:1026A00002C007900D92A836B107D9F722E1A8E63B
:1026B000B3E001C01D92AD3AB207E1F713E1C0E407
:1026C000D3E100E006C021970109802FFE010E949E
:1026D00052DFCF33D10780E00807A9F70E9410CB63
:1026E0000C94EADF0C9400002F923F924F925F927D
:1026F0006F927F928F929F92AF92BF92CF92DF9212
:10270000EF92FF920F931F93CF93DF93CDB7DEB776
:10271000C058D1090FB6F894DEBF0FBECDBF0091EF
:102720009E0B20E6029F80011124025E154F8091CE
:10273000CD0980FF1AC0E0EFF1E284917F013FEF05
:10274000E31AF30A811102C0780104C00E946136C5
:10275000F701F3CFD7018D917D01882319F00E94F5
:102760006136F8CF8AE00E9461361092870310929A
:1027700086038FE3809391031092900310928F034E
:1027800010928203109283031092840310928503A7
:10279000F80180810F5F1F4F8032D1F38E34B1F486
:1027A000818190ED980F9A3020F08D3211F08B32AC
:1027B00069F43296DF0131962C9120532A30D0F300
:1027C000CD01FC01019620812032D9F3F093330C26
:1027D000E093320C7F01BFEFEB1AFB0A10816AE233
:1027E00070E0C7010E94B2DF009731F0FC01319721
:1027F00080818032E1F311821D3429F0143519F003
:10280000173409F0CBC0F70180812FEFE21AF20AEA
:102810008032C9F380538A3008F0C0C0109391030E
:1028200020918F03309190034AE03196429FC0017E
:10283000439F900D1124DF0111972C91022E000C63
:10284000330B20533109280F391F808180538A3080
:1028500060F33093900320938F03DF0131968C91C6
:102860008032D9F31D34D1F42E31310591F03CF48E
:102870002731310571F02C31310581F40AC025373B
:10288000310564F02737310524F0203A43E034075E
:1028900029F4B0938703A093860380C01092870326
:1028A000109286030091320C61E070E0FD013196D8
:1028B0008C91882309F472C08132A1F41D3491F403
:1028C0002032310579F4F0938703E093860363E2C5
:1028D00070E0CF010E94B2DF009709F45FC0DC0115
:1028E0001C925CC09FEBD92ED80E49E1C42ECD14AA
:1028F000C0F1AF01FA0190814F5F5F4F9032D1F389
:1029000040ED490F4A3040F043ED490F423020F08E
:102910009B3211F00C94702BAF01AD2CB12C7501D2
:10292000A3E0F594E794AA95E1F7C7018E579C4F71
:102930007C018D2D8770DB0102C0AA0FBB1F8A9519
:10294000E2F7CD01D7019C91892B8C93411551055C
:1029500011F0401B01C040E0D501A859BC4F4C9379
:102960000AC08091860390918703892B21F4B0934C
:102970008703A0938603808181548A3110F4DF019C
:1029800095CFDF0131969C9190539A30D0F3CD01D1
:10299000FC01019640814032D9F3F1CF809191033F
:1029A0008D3411F40C94FD1D843511F40C94112B0D
:1029B000873411F00C94532B80918F0390919003E6
:1029C0008C31910509F4C6C57CF4843091053CF442
:1029D0008230910574F597FF20C00C946D2B0497FD
:1029E00009F472C50C946D2B8A35910509F4E1C781
:1029F00054F48D31910509F4B2C58A9711F40C9401
:102A00005F1D0C946D2B8B35910509F4D6C78C3561
:102A1000910509F4D7C70C946D2B8091130288237C
:102A200011F40C946D2B0E9492340E9403C80C94F4
:102A30006D2B20911302222311F40C946D2B11E0C5
:102A4000029709F010E00E94923482E50E948634D9
:102A5000882309F436C10E9424346B017C01409024
:102A6000F3115090F4116090F5117090F6112091CF
:102A7000F7113091F8114091F9115091FA112CA7EA
:102A80003DA74EA75FA78091480C9091490CA0915B
:102A90004A0CB0914B0C88AB99ABAAABBBAB209165
:102AA0004C0C30914D0C40914E0C50914F0C28AF76
:102AB00039AF4AAF5BAF20E030E0A901C701B601F2
:102AC0000E9439D8882309F4E5C4A301920168A9BA
:102AD00079A98AA99BA90E9439D881110DC02CA57A
:102AE0003DA54EA55FA568AD79AD8AAD9BAD0E94B1
:102AF00039D8882309F4CEC420E030E0A901C70109
:102B0000B6010E9439D8881F8827881F18130BC068
:102B100080E090E0A0E8BFE328968CAF9DAFAEAF19
:102B2000BFAF28970AC020E030E040E85FEB28966E
:102B30002CAF3DAF4EAF5FAF2897A301920168A9BC
:102B400079A98AA99BA90E9439DC6CAF7DAF8EAFB1
:102B50009FAF2CA53DA54EA55FA568AD79AD8AAD0B
:102B60009BAD0E9439DC24966CAF7DAF8EAF9FAFDA
:102B700024972CAD3DAD4EAD5FADCA01B9010E94A9
:102B80009ED84B015C0124962CAD3DAD4EAD5FADA2
:102B90002497CA01B9010E949ED89B01AC01C501CE
:102BA000B4010E943ADC0E94A5DE6CAB7DAB8EAB1B
:102BB0009FAB20E030E040E05FE30E949ED84B01F5
:102BC0005C01A7019601C701B6010E949ED86B0166
:102BD0007C01A5019401C501B4010E949ED89B010E
:102BE000AC01C701B6010E9439DC0E94A5DE9B0141
:102BF000AC0128966CAD7DAD8EAD9FAD28970E943F
:102C00009ED84B015C0128A939A94AA95BA9C30137
:102C1000B2010E943ADC20E030E040E05FE30E9435
:102C20009ED86B017C0124966CAD7DAD8EAD9FADC1
:102C3000249790582CA93DA94EA95FA90E9416DDA2
:102C40009B01AC01C501B4010E949ED89B01AC015F
:102C5000C701B6010E943ADCA30192010E9439DC4F
:102C60006B017C0128AD39AD4AAD5BAD6CA57DA58E
:102C70008EA59FA50E943ADC20E030E040E05FE3B3
:102C80000E949ED82B013C012CA93DA94EA95FA909
:102C90006CAD7DAD8EAD9FAD0E9416DD9B01AC018C
:102CA000C501B4010E949ED89B01AC01C301B201D1
:102CB0000E943ADC2CA53DA54EA55FA50E9439DCFB
:102CC00014C089E40E948634882329F00E942434A9
:102CD0006B017C0103C0C12CD12C76018AE40E94D7
:102CE00086348823D9F00E94243468AF79AF8AAF44
:102CF0009BAF20E030E0A901C701B6010E9439D89E
:102D000081111AC020E030E0A90168AD79AD8AAD2B
:102D10009BAD0E9439D881110FC0BCC320E030E0C8
:102D2000A901C701B6010E9439D8882309F4B2C3AA
:102D300018AE19AE1AAE1BAED701C601B0588CA79B
:102D40009DA7AEA7BFA728AD39AD4AAD5BAD505822
:102D500028AB39AB4AAB5BAB9C01AD01BC01CD01EB
:102D60000E949ED84B015C0128A939A94AA95BA9F8
:102D7000CA01B9010E949ED89B01AC01C501B401F2
:102D80000E943ADC0E94A5DE68966CAF7DAF8EAFE4
:102D90009FAF68978091F3119091F411A091F51174
:102DA000B091F6118CAB9DABAEABBFABA70196015A
:102DB000BC01CD010E943ADC28966CAF7DAF8EAF8E
:102DC0009FAF28972091F7113091F8114091F91198
:102DD0005091FA112CAF3DAF4EAF5FAF28AD39AD7A
:102DE0004AAD5BAD6CAD7DAD8EAD9FAD0E943ADC62
:102DF0002C966CAF7DAF8EAF9FAF2C978091480C17
:102E00009091490CA0914A0CB0914B0C60968CAFFC
:102E10009DAFAEAFBFAF609728962CAD3DAD4EAD28
:102E20005FAD2897BC01CD010E9439DC6B017C01AC
:102E300020914C0C30914D0C40914E0C50914F0C08
:102E400064962CAF3DAF4EAF5FAF64972C962CAD20
:102E50003DAD4EAD5FAD2C9764966CAD7DAD8EAD46
:102E60009FAD64970E9439DC4B015C018091FB119E
:102E70009091FC11A091FD11B091FE11A0968CAF24
:102E80009DAFAEAFBFAFA0979C01AD016091500C5C
:102E90007091510C8091520C9091530C0E9439DC2E
:102EA00024966CAF7DAF8EAF9FAF24972091540CCA
:102EB0003091550C4091560C5091570C6C962CAF9C
:102EC0003DAF4EAF5FAF6C978091FF1190910012B4
:102ED000A0910112B0910212A4968CAF9DAFAEAF3B
:102EE000BFAFA497A70196016CA57DA58EA59FA550
:102EF0000E949ED82B013C01A501940168A979A9E3
:102F00008AA99BA90E949ED89B01AC01C301B20172
:102F10000E943ADC2B013C01A50194016CA57DA522
:102F20008EA59FA50E949ED84B015C01A70196012A
:102F300068A979A98AA99BA90E949ED89B01AC0186
:102F4000C501B4010E9439DCA30192010E94ADDCED
:102F50006B017C0120E030E0A9010E9439D887FF95
:102F60000AC02BED3FE049EC50E4C701B6010E94D6
:102F70003ADC6B017C01112351F02BED3FE049EC71
:102F800050E4C701B6010E9439DC6B017C0120E0EE
:102F900030E0A901C701B6010E9439D8811124C0CF
:102FA00060962CAD3DAD4EAD5FAD60976CA97DA92F
:102FB0008EA99FA90E9439D8811116C064962CADA4
:102FC0003DAD4EAD5FAD64976CAD7DAD8EAD9FAD4B
:102FD0000E9439D8811108C06BEDC62E6FE0D62E45
:102FE00069ECE62E60E4F62E68962CAD3DAD4EAD54
:102FF0005FAD6897C701B6010E949ED89B01AC01E6
:103000000E949ED84B015C0124962CAD3DAD4EAD87
:103010005FAD2497CA01B9010E949ED89B01AC0103
:10302000C501B4010E943ADC0E94A5DE4B015C019F
:103030002FE632E143E85AE30E9439D887FD26C2E1
:10304000C501B4010E94AFDD0E9483DD7DAF6CAF8E
:10305000DB01AB2B21F4E1E0F0E0FDAFECAF2CADF8
:103060003DADB90180E090E00E943DD84B015C018C
:103070009B01AC01C701B6010E9416DD6CAB7DABB4
:103080008EAB9FABA501940124966CAD7DAD8EAD4A
:103090009FAD24970E9416DD68966CAF7DAF8EAF12
:1030A0009FAF6897A4962CAD3DAD4EAD5FADA49794
:1030B0006C966CAD7DAD8EAD9FAD6C970E9439DC8A
:1030C000A50194010E9416DD6C966CAF7DAF8EAFAA
:1030D0009FAF6C972CA93DA94EA95FA9CA01B90160
:1030E0000E949ED820E030E040E05FE30E949ED83E
:1030F0009B01AC0160E070E080E89FE30E9439DC56
:1031000024966CAF7DAF8EAF9FAF2497A0968CAD09
:103110009DADAEADBFADA09789879A87AB87BC87C1
:10312000A4962CAD3DAD4EAD5FADA4972D873E87E7
:103130004F87588B60912D0270912E02072E000C44
:10314000880B990B0E943FD8209182023091830214
:1031500040918402509185020E949ED82AE037ED6A
:1031600043E25CE30E949ED860966CAF7DAF8EAF69
:103170009FAF60970E948A749B01AC0128533F4F18
:103180004F4F5F4F64962CAF3DAF4EAF5FAF64972C
:103190004CA45DA46EA47FA422242394312C59E175
:1031A000D52E4CAD5DAD2416350609F431C10E9413
:1031B00054480E948A74DC01CB0164962CAD3DAD6D
:1031C0004EAD5FAD6497821B930BA40BB50BB7FD9F
:1031D00010C00E948A749B01AC0128533F4F4F4F8F
:1031E0005F4F64962CAF3DAF4EAF5FAF64970E94C8
:1031F000B4A2DA94DD2009F441C024962CAD3DAD93
:103200004EAD5FAD249768A979A98AA99BA90E94B0
:103210009ED84B015C012CA93DA94EA95FA9B20122
:10322000C3010E949ED8A50194010E943ADC7B0153
:103230008C0124962CAD3DAD4EAD5FAD2497B2010F
:10324000C3010E949ED84B015C012CA93DA94EA947
:103250005FA968A979A98AA99BA90E949ED89B0108
:10326000AC01C501B4010E9439DC2B013C01C7014E
:10327000D80188AB99ABAAABBBAB4FC0B10180E022
:1032800090E00E943DD82CA93DA94EA95FA90E94BB
:103290009ED84B015C010E9413DD6B017C01C501CE
:1032A000B4010E949BDE4B015C01A70196016CA555
:1032B0007DA58EA59FA50E949ED82B013C01A5014E
:1032C000940168AD79AD8AAD9BAD0E949ED89B01FB
:1032D000AC01C301B2010E943ADC2B013C01A50103
:1032E00094016CA57DA58EA59FA50E949ED84B013B
:1032F0005C01A701960168AD79AD8AAD9BAD0E94D6
:103300009ED89B01AC01C501B4010E9439DC68ABB9
:1033100079AB8AAB9BAB39E1D32E9201A3012896FE
:103320006CAD7DAD8EAD9FAD28970E943ADC698370
:103330007A838B839C8328A939A94AA95BA92C96F7
:103340006CAD7DAD8EAD9FAD2C970E943ADC6D8348
:103350007E838F83988768962CAD3DAD4EAD5FAD73
:10336000689769857A858B859C850E943ADC698798
:103370007A878B879C876C962CAD3DAD4EAD5FAD4B
:103380006C976D857E858F8598890E943ADC6D8764
:103390007E878F87988B80913B02882321F0CE0116
:1033A00001960E94B1A0C090AC1189819A81AB8135
:1033B000BC8188A399A3AAA3BBA38D819E81AF8161
:1033C000B8858CA39DA3AEA3BFA389859A85AB8541
:1033D000BC8588A799A7AAA7BBA7CE0180960E9403
:1033E00007356096ECACFDAC0EAD1FAD60979E014D
:1033F000235F3F4FAE01485D5F4FBE016C5D7F4F65
:10340000CE0180960E94EA643FEF231A330AC9CEA8
:10341000C090AC118091480C9091490CA0914A0C3D
:10342000B0914B0C88A399A3AAA3BBA380914C0C89
:1034300090914D0CA0914E0CB0914F0C8CA39DA37C
:10344000AEA3BFA38091500C9091510CA091520C4F
:10345000B091530C88A799A7AAA7BBA7CE018096C5
:103460000E9407356096ECACFDAC0EAD1FAD6097C9
:1034700024E53CE0AE01485D5F4FBE016C5D7F4FCF
:10348000CE0180960E94EA640E94E6300E940F35C9
:103490000C946D2BEFE3F3E284918F010F5F1F4FCC
:1034A000882321F00E946136F801F6CFE9EDF1E0C2
:1034B00084918F010F5F1F4F882311F40C946D2BA3
:1034C0000E946136F801F4CF80E50E94863488239B
:1034D00029F00E94E4336B017C0103C0C12CD12C84
:1034E000760183E50E948634882361F00E942434AB
:1034F00020E030E04AE754E40E949ED80E9483DD39
:103500006B017C010E94F34980914502811105C045
:1035100060E08FEE91E00E945A5F0E940F3580912B
:10352000340C9091350CA091360CB091370CC80E2C
:10353000D91EEA1EFB1E0E948A74DC01CB018C1985
:103540009D09AE09BF09B7FD02C00C946D2B0E9406
:10355000B4A2F1CF80E00E941A350C946D2B83E564
:103560000E948634882321F00E940434282F01C051
:1035700020E0263070F0E6E9F2E084918F010F5FE1
:103580001F4F882311F40C946D2B0E946136F801B3
:10359000F4CF223009F443C0A0F42223E9F0213013
:1035A00009F003C20E94AA78109201021092000250
:1035B00083E692E090938111809380110E941632ED
:1035C000F4C1243009F4E2C108F47BC1253009F0CC
:1035D000ECC10E94D633E9C18091B91180FF13C0BC
:1035E0000E945733811103C068EC72E002C064ECA2
:1035F00072E08EE692E00E942A638AE00E946136C1
:103600000E9482C9D2C106E712E0F80184918823A2
:1036100009F4CBC10F5F1F4F0E946136F6CF409176
:1036200000025091010257FF0EC0EAE3F2E08491DC
:103630008F010F5F1F4F882311F40C946D2B0E9494
:103640006136F801F4CF4115510529F480913B0210
:1036500080938E032FC08FEF840F63E00E9402DF00
:1036600080FF02C0291B922F292F990F330BF901DC
:10367000EE0FFF1FE20FF31FE80FF11D87FDFA9514
:10368000EE0FFF1FEE0FFF1FE857FE4E8091FB115C
:103690009091FC11A091FD11B091FE118083918356
:1036A000A283B38380918E0380933B0249305105FE
:1036B0000CF0B7C0842F63E00E9402DF782E692EE1
:1036C00080FF03C082E0891B682EC0908202D090E8
:1036D0008302E0908402F09085028090FB1190902C
:1036E000FC11A090FD11B090FE1104E811E2F80168
:1036F00085919591A591B4918093820290938302D4
:10370000A0938402B093850220E030E040EA50E4C8
:103710006091B5117091B6118091B7119091B81167
:103720000E943ADC6093FB117093FC118093FD11B1
:103730009093FE110E944B3185E595E5A5E0B3E439
:103740008093820290938302A0938402B0938502B7
:10375000F62D24E0F202D0011124A055B34F2091A0
:10376000AD113091AE114091AF115091B0116D91EA
:103770007D918D919C910E943ADC6093F31170933E
:10378000F4118093F5119093F611372D44E0340233
:10379000F0011124EC55F34F2091B1113091B21189
:1037A0004091B3115091B4116081718182819381F4
:1037B0000E943ADC6093F7117093F8118093F9112D
:1037C0009093FA110E944B31F80185919591A59142
:1037D000B4918093820290938302A0938402B09369
:1037E00085028092FB119092FC11A092FD11B09283
:1037F000FE110E944B31C0928202D0928302E0926D
:103800008402F09285020E94F34910923B0280915B
:1038100000029091010201969093010280930002B0
:10382000C4C020E030E0A9016091B5117091B611DB
:103830008091B7119091B8110E943ADC20E030E0FD
:1038400040EA50E40E943ADC6093FB117093FC1153
:103850008093FD119093FE110E944B310E94F34919
:103860008FEF9FEF9093010280930002E6E2F2E077
:1038700084918F010F5F1F4F882321F00E946136D2
:10388000F801F6CF83E992E09A83898304E610E099
:1038900019A308A3BE016F5F7F4FCE0180960E94DF
:1038A000D6B68AEB92E09A83898319A308A3BE0156
:1038B0006F5F7F4FCE0180960E94D6B60E94583629
:1038C00074C088E50E9486348823A1F00E94F433F6
:1038D0001FEF160F1330A8F0EFE0F2E084918F0194
:1038E0000F5F1F4F882311F40C946D2B0E946136DB
:1038F000F801F4CF88E50E9461360E9472C90C94E9
:103900006D2B89E50E9486348823A1F00E94F43350
:103910000FEF060F0330A8F0E8EFF1E084918F017C
:103920000F5F1F4F882311F40C946D2B0E9461369A
:10393000F801F4CF89E50E9461360E9472C90C94A7
:103940006D2B8AE50E9486348823C9F00E942434B6
:10395000212F110F330BF901EE0FFF1FE20FF31FA1
:10396000E00FF11D07FDFA95EE0FFF1FEE0FFF1F91
:10397000E857FE4E608371838283938316C08AE585
:103980000E9461360E9472C90C946D2B8AE50E94D8
:1039900086348823A1F30E9424346093BE1170936F
:1039A000BF118093C0119093C1110E94B9530C9420
:1039B0006D2B10928D030C946D2B81E080938D0301
:1039C0000C946D2B85E40E948634B82E811102C0C0
:1039D0000E94F349F6E88F2EF2E09F2EA3EFCA2E45
:1039E000A1E1DA2EBCE3EB2EBCE0FB2E00E010E000
:1039F000A12CD4018D914D010E948634882309F4B5
:103A000046C0F6012081318142815381EE962FAF6D
:103A1000EE97EF963FAFEF97C158DF4F4883CF57F0
:103A2000D040C058DF4F5883C058D0400E94243443
:103A3000D6016D937D938D939C931397EE962FAD46
:103A4000EE97EF963FADEF97C158DF4F4881CF57C4
:103A5000D040C058DF4F5881C058D04003301105C6
:103A6000B1F00E9439DC9B01AC01F70160817181EA
:103A7000828193810E943ADCD7016D937D938D936F
:103A80009C931397C8010E94A231AA24A3940F5FAC
:103A90001F4FB4E0CB0ED11CE4E0EE0EF11C04305D
:103AA000110509F0A6CFAA2019F00E94753203C0B3
:103AB000B1100E940FC30E94B9530C946D2B8091DA
:103AC0001302882311F40C946D2B89E40E94863430
:103AD000F82E882321F00E94F433062F01C000E065
:103AE0008AE40E948634E82E882331F00E94F43361
:103AF000162FF11004C00AC010E0FF20B1F003300F
:103B000010F40C940930EDEAF2E003C01330D8F75A
:103B10000CC084918F010F5F1F4F882311F40C9408
:103B20006D2B0E946136F801F4CF0E94DC30FF203B
:103B3000E1F024E00202F0011124E055F34F20915E
:103B4000AD113091AE114091AF115091B011608123
:103B50007181828193810E943ADC6093480C70935A
:103B6000490C80934A0C90934B0CEE20E1F034E02A
:103B70001302F0011124EC55F34F2091B111309153
:103B8000B2114091B3115091B41160817181828161
:103B900093810E943ADC60934C0C70934D0C80939F
:103BA0004E0C90934F0C80E50E94573481110E9477
:103BB000153486E40E9486348823D9F00E94243488
:103BC0006B017C0120E030E0A9010E9460DE181644
:103BD00084F420E030E040E752E4C701B6010E94DF
:103BE00016DD609382027093830280938402909327
:103BF00085020E9403C80C946D2B80918F039091D5
:103C000090038237910509F4ADC50CF0C8C08B3420
:103C1000910509F474C30CF05AC08831910509F478
:103C200060C274F58231910509F4CBC484F497FF26
:103C300002C00C946D2B823091050CF472C1419737
:103C400011F00C946D2B0E94CA300C946D2B8531B1
:103C5000910509F42BC23CF4449711F00C946D2BA0
:103C6000E1E1F3E0E0C18631910509F423C2479711
:103C700011F00C946D2BE0918603F091870324C220
:103C80008C31910509F44AC264F48A31910509F432
:103C900033C20CF03FC21092EA0C0E944DC30C9448
:103CA0006D2B8F31910509F445C244F44E9711F004
:103CB0000C946D2B0E9485560C946D2B80329105CF
:103CC00009F430C28A9709F4DBC20C946D2B883654
:103CD000910509F420C30CF040C08235910509F428
:103CE00067C414F58D34910509F411C30CF40BC3AA
:103CF0008135910511F00C946D2B0E9413460E94A2
:103D0000F3490E9451A21092E2111092E11168EE63
:103D100073E080E090E00E94975E60E08BEF93E0BC
:103D20000E945A5F0C946D2B8435910509F449C4A7
:103D30000CF442C48535910509F47AC48C3591059B
:103D400011F00C946D2B96E8C92E92E0D92E23E049
:103D5000E22E22E1F22E10E086C48C36910509F4A1
:103D6000B0C354F48A36910509F4F1C30CF00EC4C3
:103D70000E9419560C9436308E36910509F422C3F0
:103D80000CF4AFC38F36910509F42FC3803791052A
:103D900011F00C946D2B8AEA93E00E9462A28C3D94
:103DA000910509F472C50CF052C08B39910509F4E4
:103DB00094C33CF58737910509F4E4C47CF4853756
:103DC000910509F4D4C40CF0DAC48337910511F0DD
:103DD0000C946D2B0E9430530C946D2B89379105F8
:103DE00009F43CC50CF434C58C38910509F471C351
:103DF0008139910511F00C946D2B0E94D0540C94D4
:103E00006D2B8B3C910509F434C574F4883C910505
:103E100009F429C5893C910509F428C58E3B910513
:103E200011F00C946D2B79C38D3C910509F427C5D5
:103E30000CF422C58E3C910509F424C5833D9105FF
:103E400011F00C946D2B0E94FA500C946D2B8A3952
:103E500041E0940709F439C35CF58D32A1E09A077B
:103E600009F482C57CF4823E910509F42AC58C329E
:103E7000E1E09E0709F44FC58D3D910511F00C94CA
:103E80006D2B06C58F32F1E09F0709F45FC60CF475
:103E900009C6833631E0930711F40C94E62A803981
:103EA000914011F00C946D2B0E94F3490C946D2BF2
:103EB000853F51E0950711F40C94CF2AECF4853A34
:103EC000B1E09B0711F40C94D7283CF4843A91405C
:103ED00011F40C9430280C946D2B8C3A21E092074D
:103EE00011F40C94CE29843F914011F00C946D2B69
:103EF000EFE3F3E20C94B82A873F41E0940711F412
:103F00000C94D82A14F40C94D52A803AA3E09A078A
:103F100009F40CC1873E934011F40C94FF2A0C94D1
:103F20006D2BA0908603B090870380E50E948634B5
:103F3000882359F00E94E4336B017C0111E0672B68
:103F4000682B692B31F410E004C010E0C12CD12C97
:103F5000760183E50E9486348823F1F00E942434A0
:103F600020E030E04AE754E40E949ED80E9483DDBE
:103F70006B017C01111112C0672B682B692B71F446
:103F8000A114B10459F0F5018081882339F061E072
:103F9000C5010E947A5F07C0112391F360E08FEEA4
:103FA00092E00E945A5F81E08093A4090E94F34945
:103FB0000E940F35C114D104E104F104E9F08091AD
:103FC000340C9091350CA091360CB091370CC80E82
:103FD000D91EEA1EFB1E0E948A74DC01CB018C19DB
:103FE0009D09AE09BF09B7FF1AC08091A4098823B3
:103FF000B1F00E94B4A2EFCF8091A409882319F0F8
:104000000E94B4A2F9CF8091EA0C60E0882319F0F5
:1040100080EE92E002C08CEC92E00E945A5F109217
:10402000A4090C946D2B84918F010F5F1F4F88237F
:1040300021F00E946136F801F6CF1092700F1092B5
:104040006F0F40E050E0BA018BE19DE00E94C6A5F1
:104050008BE1EBE1FDE0DE01159601900D928A9572
:10406000E1F78091190D90911A0D9C838B8380EB61
:1040700092E09A83898340E050E0BE016F5F7F4FFA
:1040800089E593E00E94C4AECE0101960E9447A24A
:10409000E2E0F3E084918F010F5F1F4F882311F45A
:1040A0000C946D2B0E946136F801F4CF0E948EB5FE
:1040B0000C946D2B1092EA0C1092EB0C0C946D2B5F
:1040C000803209F41082319680818111F9CF40E06D
:1040D00061E080918603909187030E9461B20C9405
:1040E0006D2B8091EB0C882319F081E08093EA0C12
:1040F0000E94CFC20C946D2B8091EB0C882311F49D
:104100000C946D2B83E50E94863481110C94812BD5
:104110000C946D2B0E94CE360C946D2B0E94BC57D4
:104120000C946D2B0E9440560C946D2B0E943556BA
:104130000C946D2B0E948EAEECE3CE2ED12CE12C94
:10414000F12CA70196010E94FEDB762E672ECA0194
:10415000B901A70196010E94FEDB6B017C01CA0137
:10416000B90128E130E040E050E00E94FEDB4B0165
:104170005C01C9016DE671E00E940FDF8E010F5FE7
:104180001F4F6115710599F06F927F92DF92CF9268
:104190009F928F929F938F937F936F938AE493E084
:1041A0009F938F931F930F930E94D2D712C00097B3
:1041B000B1F06F927F92DF92CF929F928F929F93F6
:1041C0008F938AE393E09F938F931F930F930E94A3
:1041D000D2D70FB6F894DEBF0FBECDBF36C0811464
:1041E0009104A104B10479F06F927F92DF92CF9293
:1041F0009F928F928EE293E09F938F931F930F93E2
:104200000E94D2D7E6CFC114D104E104F10469F0D1
:104210006F927F92DF92CF9286E293E09F938F938B
:104220001F930F930E94D2D7D4CF6F927F9282E2D6
:1042300093E09F938F931F930F930E94D2D70F9079
:104240000F900F900F900F900F9060E0C8010E94A8
:104250007A5FE0EFF1E284917F01BFEFEB1AFB0A96
:10426000882321F00E946136F701F5CFB8018EE571
:1042700093E00E942A638AE00E9461360C946D2BC1
:1042800083E50E948634882311F40C946D2B0E94E0
:104290000434E82E80E50E948634882339F00E9499
:1042A000F4338B0177FF04C00C946D2B0DE010E00C
:1042B000902FEFE3F4E08BE28E0F2491921729F018
:1042C00031968E13FACF0C94922BEFE3F3E28491A4
:1042D0008F010F5F1F4F882321F00E946136F80184
:1042E000F6CFEBE6F3E084918F010F5F1F4F882339
:1042F00011F40C946D2B0E946136F801F4CF0E94EA
:10430000CFC20C946D2B0E944DC30C946D2B0E9458
:10431000B6AD0C946D2B88E690E00E9405378111B4
:104320000C946D2B8091CD0983FF02C00C946D2BF2
:1043300083E50E948634882309F440C00E94243417
:104340000E947EDD7093E0116093DF1180E00E9497
:10435000C8450E94243420E030E04AEA52E40E943A
:1043600039D818163CF00E94B6AD60E081E893E0C1
:104370000E945A5F0E9424342091B40B3091B50BF7
:104380004091B60B5091B70B0E9460DE1816B4F442
:104390008FED92E09F938F938091880390E0019638
:1043A0009F938F938AE793E09F938F931F920E942E
:1043B000B2C20FB6F894DEBF0FBECDBF0E94E0CAF6
:1043C0000C946D2B8EE40E948634882311F40C9497
:1043D0006D2B0E94F4336093971270939812809320
:1043E000991290939A120C946D2B83E50E94863457
:1043F000882319F00E94043401C080E08093CD0925
:10440000E0EFF1E284918F010F5F1F4F882321F0CD
:104410000E946136F801F6CFE3EAF3E084918F0160
:104420000F5F1F4F882321F00E946136F801F6CFFD
:104430008091CD098823A1F175E9C72E73E0D72EAD
:10444000E12CF12C20E08091CD0990E00E2C02C0EF
:10445000959587950A94E2F780FF17C0BB24B39423
:10446000B20E222319F08CE20E946136F6012591EA
:104470003491F901849189010F5F1F4F882321F046
:104480000E9461369801F5CF2B2DFFEFEF1AFF0A3E
:1044900032E0C30ED11C45E0E416F104A1F60CC0D5
:1044A000EFE9F3E084918F010F5F1F4F882321F024
:1044B0000E946136F801F6CF8AE00E9461360C94C2
:1044C0006D2B10922A020C946D2B0E94B4500C9408
:1044D0006D2B0E9446550C946D2B0E945F550C94D9
:1044E0006D2B8DE690E00E94053781110C946D2BA9
:1044F0008091CD0983FF02C00C946D2B83E50E944F
:10450000863488AF81110C94A72B82E50E948634F3
:1045100081110C94A72B0C946D2B8091CD0983FFF6
:1045200002C00C946D2B60E08EEE93E00E945A5F07
:1045300083E50E94863488AF81110C94262D82E594
:104540000E94863481110C94262D0C946D2B83E5EA
:104550000E948634882339F00E94F4338B016F3F28
:10456000710519F010F00FEF10E080E50E9486341D
:10457000811106C01093E2110093E1110C946D2B90
:104580000E94043481110C946D2BF4CF80E50E94BD
:104590008634811106C01092E2111092E1110C9440
:1045A0006D2B0E94F433672B11F00C946D2BF3CF1D
:1045B00010928C030C946D2B81E080938C030C94EF
:1045C0006D2B83E50E9486348823A1F00E94243459
:1045D00020E030E04AE754E40E949ED80E9483DD48
:1045E00060933C0270933D0280933E0290933F02A1
:1045F0000C946D2B88E50E94573481110C94742E15
:1046000089E50E94573481110C94742E8AE50E942A
:10461000573481110C94742E85E40E945734811113
:104620000C94742E0E94F3490E9451A20C946D2B9D
:1046300083E50E945734882311F40C946D2B0E945B
:10464000243420E030E04AE754E40E949ED80E94DF
:1046500083DD6093380C7093390C80933A0C9093FF
:104660003B0C0C946D2BD6018D916D010E9457343B
:10467000882309F46DC0133009F063C00E9424340C
:104680004B015C0120E030E040EA51E40E9439D85F
:1046900087FF4EC0A501940160910F127091101216
:1046A00080911112909112120E9416DD2B013C0193
:1046B0009B01AC016091090C70910A0C80910B0C6C
:1046C00090910C0C0E949ED86093090C70930A0C78
:1046D00080930B0C90930C0CA30192016091380411
:1046E0007091390480913A0490913B040E949ED8C5
:1046F000609338047093390480933A0490933B0498
:104700006091DA097091DB098091DC099091DD09F3
:104710000E943DD8A30192010E949ED80E9483DD91
:104720006093DA097093DB098093DC099093DD09CB
:1047300080920F1290921012A0921112B092121247
:1047400007C00E942434F7016083718382839383BE
:104750001F5FF4E0EF0EF11C143009F084CF0E94CB
:104760007F64BBC70E94F3490E94B953B6C760E09B
:1047700080918603909187030E947A5FAEC70E9462
:10478000F752ABC7E5E2F4E084918F010F5F1F4F52
:10479000882321F00E946136F801F6CFEDE1F4E0C4
:1047A00084918F010F5F1F4F882321F00E94613693
:1047B000F801F6CF659B03C00CEC12E002C001EDDE
:1047C00012E0D8018D918D01882319F00E94613685
:1047D000F8CF8AE00E946136E5E1F4E084918F0130
:1047E0000F5F1F4F882321F00E946136F801F6CF3A
:1047F0008091030181FF03C00CEC12E002C001EDC7
:1048000012E0F80181918F01882319F00E9461362E
:10481000F8CF8AE00E946136EDE0F4E084918F01E8
:104820000F5F1F4F882321F00E946136F801F6CFF9
:104830004B9B03C00CEC12E002C001ED12E0D8016A
:104840008D918D01882309F437CE0E946136F7CF10
:1048500081E08093ED098093A90B3FC71092ED0989
:104860001092A90B3AC70E94AA5237C70E948552DC
:1048700034C70E94635231C70E94FA512EC70E946A
:1048800090512BC70E94785428C70E94EE5025C72C
:104890008DED90E00E94053781111FC783E50E94CE
:1048A0008634882309F419C70091880310E00E9418
:1048B000F433000F111FF801E55DFD4F7183608334
:1048C0000CC780E50E945734882309F406C70E946C
:1048D000F433F62EC62ED72E83E50E948634882325
:1048E00021F00E94F4338B0102C00FEF1FEFC801CB
:1048F0000196039708F0F1C6D7FCEFC6EFE3F4E0AA
:104900008BE28E0F9491F91609F4E7C631968E1357
:10491000F9CF0C940F3083E50E948634882319F078
:104920000E94F43302C064E071E079A368A380E5DB
:104930000E948634882339F00E94F4336938B3E149
:104940007B0730F402C068EE73E07A83698304C0A9
:1049500088E893E19A838983BE01605E7F4FCE0130
:1049600001960E94D6B6B9C685E40E9486348111AC
:1049700010C080E50E945734882391F00E942434AF
:1049800060930304709304048093050490930604D9
:1049900007C00E940434882361F3EFE3F3E271C09F
:1049A00089E40E945734882381F00E9424342CEA41
:1049B00035EC47E25EE30E949ED860931304709347
:1049C0001404809315049093160484E40E945734D1
:1049D000882381F00E9424342CEA35EC47E25EE320
:1049E0000E9416DD60930B0470930C0480930D04F9
:1049F00090930E04E0EFF1E284918F010F5F1F4F5F
:104A0000882321F00E946136F801F6CF409103041B
:104A100050910404609105047091060482E794E0CB
:104A20000E94F4622CEA35EC47E25EE360911304E5
:104A30007091140480911504909116040E9416DD63
:104A4000AB01BC018EE694E00E94D7622CEA35EC03
:104A500047E25EE360910B0470910C0480910D04B9
:104A600090910E040E949ED8AB01BC018AE694E0AE
:104A70000E94D7628AE00E9461362FC60E9461368A
:104A8000F80184918F010F5F1F4F8111F7CF0AEE5C
:104A900012E0F80181918F01882309F40DCD0E9465
:104AA0006136F7CF83E50E945734182F882371F0C1
:104AB0000E9424340E947EDD70931F0260931E02C8
:104AC00021E0672B09F020E02093C40980E50E94D3
:104AD0005734882359F020911E0230911F02232B56
:104AE00011F00E9415348093C409F7C51111F5C562
:104AF000E0EFF1E284918F010F5F1F4F882321F0D7
:104B00000E946136F801F6CF8091C409811103C07B
:104B10006BED72E002C06EEC72E08BE894E00E94F4
:104B20002A6360911E0270911F028AE794E00E943E
:104B30001163E6E7F4E084918F010F5F1F4F882334
:104B400009F4CBC50E946136F801F5CF85E40E94D7
:104B50008634882321F00E94F4338B0102C000E0E8
:104B600010E083E40E948634882339F00E94F433F5
:104B7000E9967FAF6EAFE99706C025E030E0E99691
:104B80003FAF2EAFE99785E50E945734AE968FAFC1
:104B9000AE97882329F00E941534AE968FAFAE975A
:104BA00017FD07C0C12CD12CB6E1EB2EB3E4FB2ED0
:104BB00006C0C12CD12CACE8EA2EA2E4FA2E83E583
:104BC0000E948634882321F00E9424346B017C01EA
:104BD0000115110511F4109288030E948A744B018B
:104BE0005C01012B19F40BEF12E00BC00EE013E097
:104BF000D8018D918D01882309F45ECC0E94613625
:104C0000F7CFF80181918F01882319F00E94613656
:104C1000F8CFC701B6010E947EDD072E000C880B7D
:104C2000990B0E943FD86CAB7CAF21968FAF219738
:104C300025969FAF25978AE00E9461360E94134611
:104C40008FE78093B20B81E080932A02E3968CAECB
:104C50009DAEAEAEBFAEE397ED968CAE9DAEAEAE62
:104C6000BFAEED9729961FAE2997F0E42D96FFAFC2
:104C70002D972CE161962FAF619736E46D963FAF8B
:104C80006D97A1961FAEA19765961FAE6597699621
:104C90001FAE6997A5961FAEA597AD961CAE1DAE2B
:104CA0001EAE1FAEAD97A9961CAE1DAE1EAE1FAEBA
:104CB000A997C12CD12C7601FFE74F2E512C612CE6
:104CC000712C8FE790E0A0E0B0E088AB99ABAAAB85
:104CD000BBABE7961CAE1DAE1EAE1FAEE79791E0D4
:104CE000AF969FAFAF9719AE18AE212C312C00E0D4
:104CF00010E080912A02882309F4ABC10E948A74D3
:104D00006CA77DA78EA79FA78091B00B882309F47D
:104D1000BBC00E94D9462090B40B3090B50B0091D7
:104D2000B60B1091B70B9101A801A1966FADA19799
:104D300065967FAD659769968FAD6997A5969FAD8E
:104D4000A5970E9439D887FF0CC0A1962FAEA197D6
:104D500065963FAE659769960FAF6997A5961FAFA9
:104D6000A5979101A80129966FAD29972D967FAD42
:104D70002D9761968FAD61976D969FAD6D970E944F
:104D800060DE181664F429962FAE29972D963FAE53
:104D90002D9761960FAF61976D961FAF6D97AF9688
:104DA000AFADAF972CA93CAD21964FAD219725967D
:104DB0005FAD2597B101C801AA2309F44BC00E9439
:104DC00060DE18160CF060C04CA55DA56EA57FA531
:104DD000481959096A097B09DB01CA0188589341BE
:104DE000A109B109B7FD50C088A999A9AAA9BBA971
:104DF00084199509A609B709B595A795979587953B
:104E00008093B20BE7964CAF5DAF6EAF7FAFE79785
:104E1000BCA9A196BFAFA197ECAD6596EFAF659722
:104E20002196FFAD21976996FFAF699725962FAD23
:104E30002597A5962FAFA5978CA59DA5AEA5BFA537
:104E4000E3968CAF9DAFAEAFBFAFE397AF961FAE0B
:104E5000AF971AC00E9439D887FF16C08CA59DA5B0
:104E6000AEA5BFA5E3962CAD3DAD4EAD5FADE397CE
:104E7000821B930BA40BB50BAC01BD0148585341E9
:104E80006109710977FF57C720E030E040EA51E43B
:104E90006CA97CAD21968FAD219725969FAD259766
:104EA0000E943ADC9B01AC01B101C8010E9460DEA6
:104EB00018166CF4E8E5F5E084918F010F5F1F4F41
:104EC000882309F40AC40E946136F801F5CF80E313
:104ED00098EFAFEFBFEFED962CAD3DAD4EAD5FADB2
:104EE000ED97821B930BA40BB50B2CA53DA54EA5EE
:104EF0005FA5820F931FA41FB51FB7FD0FC00E94AF
:104F00008D558AE00E9461368CA59DA5AEA5BFA5F2
:104F1000ED968CAF9DAFAEAFBFAFED978CA59DA5C5
:104F2000AEA5BFA5880F991FAA1FBB1FE3962CAD86
:104F30003DAD4EAD5FADE397821B930BA40BB50B5C
:104F400088199909AA09BB0981389F44A241B10572
:104F500068F0EAE3F5E084918F010F5F1F4F88232B
:104F600009F4BBC30E946136F801F5CF48AD59ADD5
:104F7000E9968EAD9FADE997841795070CF066C052
:104F8000EDEDF4E084918F010F5F1F4F882321F036
:104F90000E946136F801F6CFB701A60188EC94E0D3
:104FA0000E94F4628AE00E946136A9964CAD5DAD24
:104FB0006EAD7FADA99783EB94E00E94F4628AE026
:104FC0000E946136AD964CAD5DAD6EAD7FADAD97D7
:104FD0008EE994E00E94F4628AE00E946136AE9607
:104FE0009FADAE97992309F478C3C0920304D09281
:104FF0000404E0920504F09206042CEA35EC47E242
:105000005EE3A9966CAD7DAD8EAD9FADA9970E9474
:105010009ED86093130470931404809315049093A6
:1050200016042CEA35EC47E25EE3AD966CAD7DAD3F
:105030008EAD9FADAD970E9416DD60930B0470930B
:105040000C0480930D0490930E0447C30E948C5F60
:1050500050CE80912A02811140C30E9413463DC365
:1050600086E50E945734882389F08091B91180FF2A
:105070000DC00BE016E0F8018491882329F00F5F42
:105080001F4F0E946136F7CF0E9482C983E50E94BC
:105090005734182F882319F00E941534182F83E5F0
:1050A0000E945734882319F0812F0E94B3338AE578
:1050B0000E945734882321F00E9424340E945C33DC
:1050C0000E945733F82E111103C0E0EFF1E218C02F
:1050D0008111FBCF0FE313E2F8018491882329F0BB
:1050E0000F5F1F4F0E946136F7CF0CEE15E0F801FD
:1050F0008491882351F30F5F1F4F0E946136F7CFD1
:1051000084918F010F5F1F4F882321F00E94613629
:10511000F801F6CFF11003C068EC72E002C064EC55
:1051200072E08EED95E00E942A638AE00E9461366B
:10513000E0EFF1E284918F010F5F1F4F882321F090
:105140000E946136F801F6CFE1EDF5E084918F0120
:105150000F5F1F4F882321F00E946136F801F6CFC0
:10516000C090C211D090C311E090C411F090C5114D
:1051700020E030E0A901C701B6010E9460DE1816E8
:105180006CF0ECECF5E084918F010F5F1F4F8823EA
:1051900009F4A3C20E946136F801F5CF42E0C701CD
:1051A000B6010E943E3A8AE00E94613696C288E5C6
:1051B0000E945734B82E89E40E945734A82E8823C1
:1051C00019F00E94F43324C0BB2021F10E94243442
:1051D0002091AD113091AE114091AF115091B011AD
:1051E0000E9439DC20E030E040E251E40E9439DCEA
:1051F00020E030E048E452E40E943ADC2AE037ED57
:1052000043E25CE30E949ED80E947EDD633010F48E
:10521000F62E02C0FF24FA9489E50E945734E82E46
:105220008AE40E945734182F882319F00E94F4331F
:1052300024C0EE2021F10E9424342091B11130913C
:10524000B2114091B3115091B4110E9439DC20E0A9
:1052500030E040E251E40E9439DC20E030E048E4F4
:1052600052E40E943ADC2AE037ED43E25CE30E941C
:105270009ED80E947EDD633010F4062F01C00FEF30
:105280008AE50E945734C82E811105C081E50E942D
:105290005734D82E01C0D12CA11001C010E0212F0D
:1052A00030E0B11002C090E001C09E2D290F311DE9
:1052B0002130310519F0EFE3F3E205C0C1101AC047
:1052C000D11018C0F8CF84918F010F5F1F4F882332
:1052D00021F00E946136F801F6CFE0E4F6E0849117
:1052E0008F010F5F1F4F882309F4F7C10E946136B9
:1052F000F801F5CFF7FE03C0EFE3F3E206C007FFC6
:1053000017C0FACF0E946136F80184918F010F5FB8
:105310001F4F8111F7CFE1E2F6E084918F010F5F1B
:105320001F4F882309F4D9C10E946136F801F5CFD7
:105330000E942434002E000C110BAF2DFF0CBB0B70
:10534000DD2091F0FD01EE0FFF1FEA0FFB1FE00FC4
:10535000F11FEE0FFF1FEE0FFF1FE857FE4E2081DB
:1053600031814281538103C020E030E0A901FD0179
:10537000EE0FFF1FEA0FFB1FE00FF11FEE0FFF1FE5
:10538000EE0FFF1F8F0108571E4E0E943ADCD80116
:105390006D937D938D939C9313979FC181EFC82E3E
:1053A00089E0D82E93EFE92E91E1F92E2BEB222EF6
:1053B00021E1322E00E010E0F101EB5BF141FDA7AD
:1053C000ECA7D1018D911D01882309F4A0C0F7013C
:1053D0004080518062807380F801E15DFD4F208143
:1053E000318142815381F801E95EF34F608171811F
:1053F000828193810E943ADC20E030E040E05FE36C
:105400000E949ED89B01AC01C301B2010E9460DEE4
:10541000181644F4F801E059FE4D85909590A5903A
:10542000B49003C0812C912C5401F801E355FE4E39
:105430002081318142815381C301B2010E9439DC54
:105440009B01AC01C501B4010E9439DC4B015C0138
:1054500020E030E040EA51EC0E9460DE87FD28C089
:1054600020E030E040EA51E4C501B4010E9439D89F
:105470001816F4F0D6012D913D914D915C91C50126
:10548000B4010E9439DC9B01AC01C301B2010E944E
:105490003ADCF7016083718382839383D6018D9216
:1054A0009D92AD92BC9213978CA59DA54BD72FC012
:1054B000EFE3F3E284918F010F5F1F4F882321F008
:1054C0000E946136F801F6CFEEE7F6E084918F0195
:1054D0000F5F1F4F882321F00E946136F801F6CF3D
:1054E00061E080E796E00E945A5F0E94128188E2A4
:1054F00090E09A83898388EC90E099A388A3BE0109
:105500006F5F7F4FCE0180960E94D6B6E6C0B4E0B2
:10551000CB0ED11C0C5F1F4FE4E0EE0EF11C0C30E3
:10552000110509F049CFE1D70E94B95360E080E648
:1055300096E00E945A5F83E992E099A388A304E66B
:1055400010E01A830983BE01605E7F4FCE01019691
:105550000E94D6B68AEB92E099A388A31A830983A6
:10556000BE01605E7F4FCE0101960E94D6B6B5C0E7
:1055700084918F010F5F1F4F882321F00E946136B5
:10558000F801F6CFECE9F6E084918F010F5F1F4F31
:10559000882309F4A2C00E946136F801F5CF0E9469
:1055A000887D80E00E94677998C00E94887D95C0C0
:1055B00083E50E945734882319F00E94153401C0F6
:1055C00081E091E089270E94677987C0EFE3F3E2E9
:1055D00084918F010F5F1F4F882321F00E94613655
:1055E000F801F6CFEDEAF6E084918F010F5F1F4FCF
:1055F000882309F472C00E946136F801F5CF81E07A
:10560000809313021092141283E50E945734811183
:1056100003C00E9448C961C00E94153481115DC059
:10562000F8CFF0908F03FF2029F1E0EFF1E28491B1
:105630008F010F5F1F4F882321F00E946136F80110
:10564000F6CF84E50E9461366F2D70E080E090E037
:105650004AE00E94683680E20E9461360AEE12E05B
:10566000D8018D918D01882311F40C945C220E9445
:105670006136F6CF1092AC11E0EFF1E284918F0128
:105680000F5F1F4F882321F00E946136F801F6CF8B
:105690006091AC1170E08CEB96E00E9411638AE09F
:1056A0000E9461361AC0E0EFF1E284918F010F5F32
:1056B0001F4F882321F00E946136F801F6CF6091D8
:1056C000320C7091330C8EEC96E00E942A6382E2D9
:1056D0000E9461368AE00E9461360E9429C9C6C4D0
:1056E0004091860350918703452B39F4AF01415017
:1056F0005109509387034093860340E050E00C9497
:105700008D140E94F433AB01BC014093660F50939B
:10571000670F6093680F7093690F85EB9EE00E949E
:10572000C6A5DBCF61E0802F0E945BC56E2D802F68
:105730000E942CC5F12CB701802F0E94897309307B
:10574000110559F6F092E211E092E111C6CF0E94E4
:1057500024340E947EDD7093E0116093DF1180E0BD
:105760000E94C8450E94243420E030E04AEA52E416
:105770000E9439D8181644F00E94B6AD60E08CEC57
:1057800093E00E945A5F02C00E94CFC26091DF1175
:105790007091E011072E000C880B990B0E943FD8E6
:1057A0002091B40B3091B50B4091B60B5091B70BD3
:1057B0000E9460DE1816B4F48FED92E09F938F93F1
:1057C0008091880390E001969F938F9385EC93E0FE
:1057D0009F938F931F920E94B2C20FB6F894DEBFC0
:1057E0000FBECDBF0E94E0CA81E080932A0218AAB2
:1057F00019AA1AAA1BAA1CAA1DAA1EAA1FAA1CA67D
:105800001CAE9CE321969FAF2197ACE12596AFAFEC
:105810002597B6E42996BFAF2997C12CD12C50E823
:10582000E52E6FEBF62E812C912C54016091DF1147
:105830007091E011072E000C880B990B0E943FD845
:10584000162F072F782E692E262F372F482F592FE6
:10585000B601C7010E9439D8882311F12091B40BF9
:105860003091B50B4091B60B5091B70B612F702F53
:10587000872D962D0E9439D8881F8827881F8CA7CE
:10588000C8ACCC2089F0882379F080912A02882343
:1058900009F423CF60E083EB93E00E945A5F1DCFB1
:1058A0001C2D0D2D7E2C6F2C0E948A746B017C01A7
:1058B000DC01CB012CA93DA94EA95FA9821B930B4A
:1058C000A40BB50BB7FD3BC0D701C60188519C4F57
:1058D000AF4FBF4F8CAB9DABAEABBFAB0E948D55F6
:1058E000E1ECF3E084912F019FEF491A590A8823D4
:1058F00021F00E946136F201F5CF81149104A104D8
:10590000B104B9F0D501C401805F984DAF4FBF4FCE
:10591000BC01CD016C197D098E099F0928EE33E089
:1059200040E050E00E94FEDBCA01B9010E9441370D
:1059300003C08FE30E9461368AE00E9461360E94B4
:10594000B4A20E940F352090B40B3090B50B40905C
:10595000B60B5090B70B9101A201612F702F872DCC
:10596000962D0E9439DC9F7781149104A104B10423
:1059700049F420E030E040E85FE30E9439D887FF37
:105980000BC008C020E030E040E450E40E9460DE3C
:10599000181614F446015701ACA5AA23D9F128A979
:1059A00039A94AA95BA9211531054105510541F0E5
:1059B000D701C601821B930BA40BB50BB7FD2AC000
:1059C0009101A2016CAD21967FAD219725968FADF7
:1059D000259729969FAD29970E9439DC20E030E079
:1059E00040EC5FE30E9439D887FD4FCFD701C60155
:1059F000805A9541AF4FBF4F88AB99ABAAABBBABB9
:105A00002CAE21963FAE219725964FAE259729962D
:105A10005FAE299780912A02882309F436CF81143A
:105A20009104A104B10429F4C12ED02EE72CF62C48
:105A3000FDCE90E1C91A97E2D90AE108F108C81829
:105A4000D908EA08FB08F7FE20CFEECFFDD60E946A
:105A50007EDD6F36710514F06EE670E07093DE1136
:105A60006093DD110E947D45EFD620E030E040EAF2
:105A700050E40E9460DE181614F40E94CFC281E048
:105A800080932A028091AC118093880318AA19AAE6
:105A90001AAA1BAA1CAA1DAA1EAA1FAA1CA61CAED3
:105AA000ACE32196AFAF2197BCE12596BFAF259718
:105AB000E6E42996EFAF2997C12CD12C30E8E32EEC
:105AC0004FEBF42E812C912C54016091DD117091DB
:105AD000DE11072E000C880B990B0E943FD8162F61
