:100000000C944C130C947D130C947D130C947D1361
:100010000C947D130C947D130C947D130C947D1320
:100020000C947D130C947D130C947D130C947D1310
:100030000C947D130C947D130C947D130C947D1300
:100040000C947D130C945EA20C947D130C947D1380
:100050000C947D130C947D130C944C5C0C949EC0FA
:100060000C947D130C945A3A0C947D130C947D13CC
:100070000C947D130C947D130C947D130C947D13C0
:100080000C947D130C947D130C947D130C947D13B0
:100090000C947D130C947D130C947D130C947D13A0
:1000A0000C947D130C947D130C947D130C947D1390
:1000B0000C947D130C947D130C947D130C947D1380
:1000C0000C947D130C947D130C947D130C947D1370
:1000D0000C947D130C947D130C947D130C947D1360
:1000E0000C947D138EBD91BD80BD84BD8ABDC8BDFD
:1000F00095BD99BD9FBDA3BDA7BDADBDB1BDB5BDEE
:10010000C8BDBBBDBFBDC3BDBABFBFBFC4BFCEBFEF
:10011000D8BF51C0E2BFEABFF2BFFCBF06C010C0EB
:100120001FC029C051C033C03DC047C0084AD73B9B
:100130003BCE016E84BCBFFDC12F3D6C74319ABDB6
:1001400056833DDA3D00C77F11BED9E4BB4C3E91DA
:100150006BAAAABE000000803F05A84CCDB2D44EC9
:10016000B93836A9020C50B9918688083CA6AAAACB
:100170002ABE000000803F004E414E494E4954596E
:10018000494E46CDCCCC3D0AD7233C17B7D1387762
:10019000CC2B329595E6241FB14F0A000020410078
:1001A00000C84200401C4620BCBE4CCA1B0E5AAEC2
:1001B000C59D7447322F473320626164207061729D
:1001C000616D65746572730A00536C6565702E2EDF
:1001D0002E0059206F7574206F662072616E6765FE
:1001E0002028312D33292E0A0058206F7574206F76
:1001F000662072616E67652028312D33292E0A0032
:100200004D6573682070726F62696E6720646F6EEF
:10021000652E0A005374617274206D6573682070D6
:10022000726F62696E67207769746820224732397D
:10023000205331222066697273742E0A00473238C7
:100240000A4732392053320053746174653A2000F2
:100250004D65736820626564206C6576656C696EB7
:100260006720686173206E6F20646174612E0A00DC
:1002700053206F7574206F662072616E6765202849
:10028000302D35292E0A004D65736820706F696E18
:10029000742063616E6E6F74206265207265736F87
:1002A0006C7665640A00416E7963756269632069E2
:1002B000332B2072656164792E00526573756D6908
:1002C0006E67207072696E7400436C69636B207492
:1002D0006F20726573756D652E2E2E004E6F206D2A
:1002E0006F76652E00456E642066696C65206C69CA
:1002F00073740A00426567696E2066696C65206CDC
:100300006973740A004B494C4C45442E20004865E3
:100310006174696E6720646F6E652E0020573A0025
:1003200045256920257300416E79637562696320F4
:1003300069332B2072656164792E00426564206404
:100340006F6E652E0020573A004265642048656153
:1003500074696E672E002F2F20007A5F6D696E3AE8
:100360002000795F6D696E3A2000785F6D696E3AA2
:1003700020005265706F7274696E6720656E6473D9
:10038000746F70207374617475730A0053657474AC
:10039000696E672054726176656C20416363656C99
:1003A00065726174696F6E3A200053657474696E8A
:1003B00067205265747261637420416363656C6584
:1003C000726174696F6E3A200053657474696E6768
:1003D000205072696E7420416363656C657261744C
:1003E000696F6E3A200053657474696E67205072AD
:1003F000696E7420616E642054726176656C204170
:100400006363656C65726174696F6E3A2000205A8F
:1004100000205900580020204D61783A2000205AD1
:1004200000205900580020204D696E3A20004F6E80
:1004300020004F666600536F667420656E647374A7
:100440006F70733A2000000136372603FF3C3D38B9
:100450000EFF2E303E12FFFF0C0809FFFF071A1C8B
:1004600018FFFF08440AFF4324221EFFFFFFFFFF7F
:10047000FF20643A0020693A0020703A0043290ABC
:100480000061626C656420286D696E2074656D7012
:100490002000436F6C642065787472756465732006
:1004A000617265200023646566696E65202044459D
:1004B0004641554C545F4B64200023646566696E69
:1004C00065202044454641554C545F4B692000232C
:1004D000646566696E65202044454641554C545F0D
:1004E0004B702000504944204175746F74756E65DF
:1004F0002066696E69736865642120507574207484
:100500006865206C617374204B702C204B692061EE
:100510006E64204B6420636F6E7374616E7473201D
:1005200066726F6D2062656C6F7720696E746F20E4
:10053000436F6E66696775726174696F6E2E680AC3
:1005400000504944204175746F74756E6520666172
:10055000696C6564212074696D656F75740A00505B
:100560004944204175746F74756E65206661696CCD
:100570006564212054656D706572617475726520C3
:10058000746F6F20686967680A00204B643A200026
:10059000204B693A2000204B703A20000A20436C1F
:1005A000617373696320504944200A002054753AEE
:1005B0002000204B753A2000206D61783A20002001
:1005C0006D696E3A200020643A20002062696173F0
:1005D0003A20004F66660A004661646520486569F6
:1005E0006768742000426564204C6576656C696EAE
:1005F0006720004661696C656420746F20656E61D8
:10060000626C6520426564204C6576656C696E6736
:100610000A004D65736820426564204C6576656C00
:1006200020646174613A0A004D65736820706F69D7
:100630006E742063616E6E6F7420626520726573E4
:100640006F6C7665640A004D34323120696E636FD9
:10065000727265637420706172616D657465722079
:1006600075736167650A004F666673657473206110
:1006700070706C696564004572723A20546F6F2027
:100680006661722100546F6F206661722066726F1E
:100690006D207265666572656E636520706F696E48
:1006A000740A00454550524F4D2064697361626C75
:1006B00065640A004E6F2063617365206C6967682A
:1006C000740A0041637469766520457874727564B4
:1006D00065723A2000556E6B6E6F776E20636F6D9A
:1006E0006D616E643A2022004E6F204C696E652069
:1006F0004E756D6265722077697468206368656302
:100700006B73756D2C204C617374204C696E653A67
:1007100020004B494C4C45442E200053544F505020
:1007200045442E20005072696E7465722073746F98
:10073000707065642064756520746F206572726FD7
:1007400072732E2046697820746865206572726F16
:100750007220616E6420757365204D3939392074BB
:100760006F20726573746172742E202854656D70E9
:100770006572617475726520697320726573657442
:100780002E2053657420697420616674657220722E
:10079000657374617274696E67290A004E6F204335
:1007A0006865636B73756D2077697468206C696E1A
:1007B00065206E756D6265722C204C617374204CDF
:1007C000696E653A2000636865636B73756D206DB3
:1007D00069736D617463682C204C617374204C697B
:1007E0006E653A20004C696E65204E756D626572CB
:1007F000206973206E6F74204C617374204C696E95
:1008000065204E756D6265722B312C204C617374BE
:10081000204C696E653A20004D313130004D333146
:10082000004D383420582059205A20450053442088
:1008300072656164206572726F720A00446F6E6542
:10084000207072696E74696E672066696C650A0053
:1008500020496E76616C6964206578747275646590
:1008600072200000000000000000000000000000F6
:10087000005C4300005C4300007A43206E6F7420EC
:10088000656E74657265642E0A004B494C4C454494
:100890002E2000202D20496E76616C6964206578D9
:1008A000747275646572206E756D62657220210ABE
:1008B000002D2D2D2D2D2D007C4D61726C696E7CCF
:1008C000002D2D2D2D2D2D00687474703A2F2F6D55
:1008D00061726C696E66772E6F72670068747470EF
:1008E0003A2F2F6D61726C696E66772E6F7267009A
:1008F00020312E312E3600000000000102040400D9
:1009000000001C1C0C040404020100000000000490
:10091000081000000000002020506C616E6E6572AF
:1009200042756666657242797465733A20002046A6
:10093000726565204D656D6F72793A2000436F6D69
:1009400070696C65643A204A616E2031382032301B
:1009500031390A00207C20417574686F723A205446
:100960006F626961732052656974686D656965724B
:100970000A00323031372D31302D31302031323ACA
:10098000303000204C61737420557064617465646C
:100990003A2000312E312E360A004D61726C696E9C
:1009A0000020536F667477617265205265736574B9
:1009B0000A00205761746368646F6720526573652D
:1009C000740A002042726F776E206F757420526532
:1009D0007365740A002045787465726E616C2052EC
:1009E000657365740A00506F77657255700A0073FD
:1009F000746172740A006572726F72207772697422
:100A0000696E6720746F2066696C650A00456E64C4
:100A100073746F7073202563202563202563202560
:100A20006300205A3A0020593A0020583A00656E77
:100A30006473746F7073206869743A2000446F6E39
:100A40006520736176696E672066696C652E0A00A1
:100A50004D323900507265686561742041425320FF
:100A6000636F6E66005072656865617420504C411A
:100A700020636F6E66005049442D44005049442D58
:100A800044005049442D49005049442D49005049E3
:100A9000442D50005049442D5000200220466163EF
:100AA000740020022046616374002002204D6178AA
:100AB000002002204D6178002002204D6178002046
:100AC00002204D696E002002204D696E0020022038
:100AD0004D696E004F6666004F6E20004175746F61
:100AE00074656D700046616E2073706565640046C4
:100AF000616E2073706565640046616E2073706579
:100B000065640042656400426564004E6F7A7A6CE9
:100B100065004E6F7A7A6C6500436F6E74726F6C0D
:100B2000004265640042656400426564004E6F7A6D
:100B30007A6C65004E6F7A7A6C65004E6F7A7A6CCB
:100B4000650046616E2073706565640046616E20C5
:100B500073706565640046616E207370656564003E
:100B600054656D706572617475726500565472617A
:100B700076206D696E005654726176206D696E0044
:100B80005654726176206D696E00566D696E00561E
:100B90006D696E00566D696E00566D617820450076
:100BA000566D6178204500566D6178204500566D80
:100BB0006178205A00566D6178205A00566D617830
:100BC000205A00566D6178205900566D6178205981
:100BD00000566D6178205900566D61782058005696
:100BE0006D6178205800566D61782058004D6F7403
:100BF000696F6E00416D6178204500416D6178201C
:100C00004500416D6178205A00416D6178205A009D
:100C1000416D6178205900416D6178205900416D26
:100C20006178205800416D6178205800412D747220
:100C30006176656C00412D74726176656C00412DA2
:100C40007265747261637400412D726574726163C0
:100C50007400416363656C00416363656C004D6FB4
:100C600074696F6E007C3C3E5E2B3D3F2F5B5D3BAD
:100C70002C2A225C0048617264636F6465642044BE
:100C8000656661756C742053657474696E67732052
:100C90004C6F616465640A00B80B0000B80B00007B
:100CA0003200000010270000000096430000964329
:100CB0000000C0400000C8410000A0420000A04267
:100CC0000000C8433333B942534420636172642047
:100CD0006F6B0A006F70656E526F6F74206661698A
:100CE0006C65640A00766F6C756D652E696E69744B
:100CF000206661696C65640A00534420696E6974FA
:100D0000206661696C0A006175746F25692E670041
:100D10004D3234004D3233202573005772697469A7
:100D20006E6720746F2066696C653A20006F70658D
:100D30006E206661696C65642C2046696C653A209A
:100D4000006F70656E206661696C65642C20466971
:100D50006C653A200046696C652073656C65637448
:100D600065640A002053697A653A200046696C651B
:100D7000206F70656E65643A20006F70656E206646
:100D800061696C65642C2046696C653A20002066B8
:100D9000696C653A20004E6F7720002220706F73D7
:100DA000002220706172656E743A220053554252DF
:100DB0004F5554494E452043414C4C207461726755
:100DC00065743A22004B494C4C45442E2000747205
:100DD00079696E6720746F2063616C6C2073756233
:100DE0002D67636F64652066696C6573207769742D
:100DF0006820746F6F206D616E79206C6576656C0C
:100E0000732E204D4158206C6576656C2069733ACD
:100E1000004572726F723A0070012C019001270137
:100E2000B0012201C0011D01F001180110021301DF
:100E300030020E016002090190020401C002FF00AD
:100E40000003FA004003F5008003F000D003EB003C
:100E50002004E6007004E100E004DC004005D70057
:100E6000C005D2004006CD00D006C8008007C300F0
:100E70003008BE00F008B900C009B400B00AAF00E5
:100E8000B00BAA00D00CA500000EA000500F9B00D4
:100E9000C01096005012910000148C00C0158700FD
:100EA000B0178200B0197D00D01B7800001E7300BF
:100EB00040206E0090226900F024640040275F000B
:100EC00090295A00E02B5500102E500020304B0086
:100ED00010324600E033410090353C0010373700B7
:100EE00070383200A0392D00B03A2800A03B230012
:100EF000603C1E00103D1900903D1400103E0F0094
:100F0000703E0A00C03E0500003F0000403FFBFF6E
:100F1000803FF6FFC03FF1FF4572723A204D494EC7
:100F200054454D5020424544004572723A204D4987
:100F30004E54454D50004D494E54454D502074720D
:100F400069676765726564004572723A204D415861
:100F500054454D5020424544004572723A204D415F
:100F60005854454D50004D415854454D50207472D1
:100F70006967676572656400001C1F11111F00001E
:100F80000006191803130C00040E1F041C000000B7
:100F9000000E1315110E00001C1018170506050091
:100FA000040A0A0A0A11110E0C12120C00000000A9
:100FB000001F1511151F000025753A2530327500E8
:100FC000253032753A25303275002D2D2D005344D1
:100FD000005A0059005800507265686561742050CD
:100FE0004C4120456E640050726568656174205004
:100FF0004C41204265640050726568656174205000
:101000004C41005072657061726500507265686590
:1010100061742041425320456E64005072656865DA
:1010200061742041425320426564005072656865D6
:1010300061742041425300507265706172650042D4
:1010400061636B004E65787420636F726E65720029
:101050004C6576656C696E6720446F6E6521004D46
:101060006F7665205A004E65787420506F696E74F3
:10107000002569202F202575004D6F76696E672E3B
:101080002E2E00436C69636B20746F204265676984
:101090006E00486F6D696E672058595A00473238A4
:1010A000004C6576656C2062656400426564205A78
:1010B00000426564205A004661646520486569679E
:1010C0006874004661646520486569676874004F0C
:1010D0006666004F6E2000426564204C6576656C44
:1010E000696E67004C6576656C20636F726E657221
:1010F00073004175746F20686F6D6500473238006A
:101100005072657061726500204400204900202003
:101110004D33303120500050494420736574746958
:101120006E67733A0A0020460020420020480020E3
:10113000204D3134352053004D6174657269616C06
:101140002068656174757020706172616D65746589
:1011500072733A0A00205A00205900202047323981
:10116000205333205800205A0020204D34323020A4
:1011700053004D65736820426564204C6576656C4C
:10118000696E673A0A00205A0020590020204D322B
:101190003036205800486F6D65206F666673657441
:1011A0003A0A00204500205A00205900205800200B
:1011B000420020540020204D32303520530041643D
:1011C00076616E6365643A20533C6D696E5F666557
:1011D0006564726174653E20543C6D696E5F747223
:1011E0006176656C5F66656564726174653E204218
:1011F0003C6D696E5F7365676D656E745F74696D74
:10120000655F6D733E20583C6D61785F78795F6AE9
:1012100065726B3E205A3C6D61785F7A5F6A6572D9
:101220006B3E20453C6D61785F655F6A65726B3E21
:101230000A0020540020520020204D32303420502B
:1012400000416363656C65726174696F6E20287517
:101250006E6974732F7332293A20503C7072696E34
:10126000745F616363656C3E20523C7265747261A9
:1012700063745F616363656C3E20543C7472617695
:10128000656C5F616363656C3E0A00204500205A0F
:101290000020590020204D3230312058004D617817
:1012A000696D756D20416363656C65726174696F0A
:1012B0006E2028756E6974732F7332293A0A0020E4
:1012C0004500205A0020590020204D32303320584C
:1012D000004D6178696D756D206665656472617435
:1012E00065732028756E6974732F73293A0A00207C
:1012F0004500205A0020590020204D393220580046
:1013000053746570732070657220756E69743A0A43
:101310000020204D3230302044300A0020204D3251
:1013200030302044002044697361626C65640A00B7
:1013300046696C616D656E742073657474696E675F
:10134000733A0020204D3134392043203B20556E24
:1013500069747320696E2043656C736975730A0044
:101360002020473231202020203B20556E697473A5
:1013700020696E206D6D0A0056652D6A65726B00DE
:1013800056652D6A65726B0056652D6A65726B0035
:10139000567A2D6A65726B00567A2D6A65726B00FB
:1013A00056792D6A65726B0056792D6A65726B00ED
:1013B00056792D6A65726B0056782D6A65726B00DE
:1013C00056782D6A65726B0056782D6A65726B00CF
:1013D0004D6F74696F6E004573746570732F6D6D1A
:1013E000004573746570732F6D6D005A737465706A
:1013F000732F6D6D005A73746570732F6D6D005986
:1014000073746570732F6D6D005973746570732FED
:101410006D6D005873746570732F6D6D0058737423
:101420006570732F6D6D004D6F74696F6E0053742E
:101430006570732F6D6D004A65726B004163636563
:101440006C65726174696F6E0056656C6F63697468
:101450007900436F6E74726F6C0046696C2E204485
:1014600069612E0046696C2E204469612E004F662A
:1014700066004F6E20004520696E206D6D3300437D
:101480006F6E74726F6C0043616E6E6F7420656E68
:10149000746572207375626469723A2000052E2E9D
:1014A000004D61696E000A4D656173757265642057
:1014B000706F696E74733A0A005A206F66667365BE
:1014C000743A20004E756D20582C593A20332C3335
:1014D0000A005344207072696E74696E67206279E5
:1014E000746520004E6F74205344207072696E74CE
:1014F000696E670A0046696C652064656C65746591
:10150000643A0044656C6574696F6E206661696C4D
:1015100065642C2046696C653A20006F70656E200A
:101520006661696C65642C2046696C653A2000250B
:1015300069730025696D2025697300256968202578
:10154000696D202569730025696420256968202557
:10155000696D202569730025697920256964202536
:1015600069682025696D20256973005072696E7461
:101570002074696D653A200050726F7465637465FC
:10158000642050696E0A0045256920257300416E6C
:101590007963756269632069332B207265616479B0
:1015A0002E00202F002042403A0020403A006F6B6E
:1015B0000020746F6F206C6F6E6720657874727591
:1015C00073696F6E2070726576656E7465640A006B
:1015D00020636F6C6420657874727573696F6E2018
:1015E00070726576656E7465640A0043617264208A
:1015F00072656D6F766564004361726420696E7315
:101600006572746564004B494C4C45442E20004B78
:10161000494C4C20636175736564206279204B49A5
:101620004C4C20627574746F6E2F70696E0A004B9B
:10163000494C4C45442E20004B494C4C206361756D
:1016400073656420627920746F6F206D7563682004
:10165000696E6163746976652074696D65202D20FB
:1016600063757272656E7420636F6D6D616E643A3E
:101670002000506C6561736520726573657400505D
:1016800052494E5445522048414C544544005072F2
:10169000696E7465722068616C7465642E206B6974
:1016A0006C6C28292063616C6C6564210A00656E8E
:1016B0007175657565696E67202200000000000085
:1016C0000000000000000000004842000048420006
:1016D000008040000000005761726E696E673A201A
:1016E000486F6D696E672042756D70204469766938
:1016F000736F72203C20310A000202030000A040F8
:101700000000A0400000004000005C4300005C437B
:1017100000007A43FFFFFF4D343238005072656895
:1017200065617420504C4100436F6F6C646F776E3D
:1017300000507265686561742041425300446973CA
:1017400061626C65207374657070657273004D38EA
:10175000340053657420686F6D65206F666673652D
:10176000747300426564204C6576656C696E670031
:101770004175746F20686F6D6500473238004D6F9A
:1017800076652061786973004D61696E004D6F76F2
:10179000652058004D6F76652059004D6F766520A5
:1017A0005A004578747275646572004D6F766520D5
:1017B000302E316D6D004D6F766520316D6D004DB1
:1017C0006F76652031306D6D004D6F7665206178E4
:1017D0006973004578747275646572004D6F766543
:1017E000205A004D6F76652059004D6F7665205860
:1017F000004578747275646572004D6F7665205A85
:10180000004D6F76652059004D6F76652058005069
:1018100072657061726500526573746F72652066DF
:1018200061696C736166650046696C616D656E74B3
:10183000004D6F74696F6E0054656D7065726174F0
:10184000757265004D61696E0024F4D43050C38E0A
:1018500020C2A24017828B7011127A910D816CD92F
:101860000AA861E108C7586607615143061E4B5D2F
:1018700005C145A7041A411104093D980371393186
:10188000034036DB0265339102D4305402802E1DB2
:1018900002632CEE01752AC501B028A00110278132
:1018A000018F2564012B244B01E0223401AC211F60
:1018B000018D200D01801FFC00841EED00971DDFAF
:1018C00000B81CD200E61BC600201BBC00641AB284
:1018D00000B219A8000A19A0006A189900D117913E
:1018E0000040178B00B516840031167E00B31579C1
:1018F000003A157300C7146F0058146A00EE13669F
:10190000008813630025135E00C7125B006C12573A
:101910000015125400C111510070114F0021114BDC
:1019200000D61049008D10470046104400021042B6
:1019300000C00F4000800F3E00420F3C00060F3BEE
:1019400000CB0E3800930E37005C0E3500270E34A6
:1019500000F30D3200C10D3100900D3000600D2EEE
:1019600000320D2D00050D2C00D90C2B00AE0C29DA
:1019700000850C29005C0C2700350C27000E0C2676
:1019800000E80B2400C40B2400A00B23007D0B23D4
:10199000005A0B2100390B2100180B2000F80A1FF8
:1019A00000D90A1E00BB0A1E009D0A1D00800A1DE8
:1019B00000630A1C00470A1B002C0A1B00110A1AAC
:1019C00000F7091A00DD091900C4091900AB09194B
:1019D00000920917007B091800630917004C0916CB
:1019E0000036091600200916000A091500F5081529
:1019F00000E0081400CC081400B8081400A408146F
:101A000000900813007D0812006B0813005808129C
:101A100000460812003408110023081100120811B2
:101A20000001081100F0071000E0071000D00710B7
:101A300000C0071000B0070F00A107100091070EAB
:101A40000083070F0074070F0065070E0057070E8D
:101A50000049070E003B070D002E070E0020070D62
:101A60000013070D0006070D00F9060C00ED060D2A
:101A700000E0060C00D4060C00C8060C00BC060CE6
:101A800000B0060C00A4060B0099060C008D060B96
:101A90000082060B0077060B006C060B0061060A3D
:101AA0000057060B004C060A0042060A0038060AD8
:101AB000002E060A0024060A001A060A001006096B
:101AC0000007060A00FD050900F4050900EB0509F9
:101AD00000E2050900D9050900D0050900C705097C
:101AE00000BE050900B5050800AD050800A50509FB
:101AF000009C050800940508008C05080084050872
:101B0000007C050800740508006C050700650508E1
:101B1000005D050700560508004E0507004705074C
:101B2000004005080038050700310507002A0507B1
:101B300000230507001C050600160507000F050712
:101B4000000805060002050700FB040600F504076F
:101B500000EE040600E8040600E2040700DB0406C9
:101B600000D5040600CF040600C9040600C304061D
:101B700000BD040600B7040600B1040500AC04066D
:101B800000A6040600A00405009B040600950405B9
:101B900000900406008A0405008504050080040600
:101BA000007A04050075040500700405006B040547
:101BB0000066040500610405005C04050057040587
:101BC00000520405004D04050048040500430405C7
:101BD000003E0404003A0405003504050030040406
:101BE000002C04050027040400230405001E04043F
:101BF000001A04040016040500110404000D040476
:101C000000090405000404040000040400FC0304AB
:101C100000F8030400F4030400F0030400EC0304E0
:101C200000E8030400E4030400E0030400DC030410
:101C300000D8030400D4030400D0030400CC030440
:101C400000C8030300C503030024F404D9201BC407
:101C50000C5C0E9804C4095F0265077101F405F974
:101C600000FB04B30048048700C103690058035512
:101C70000003034500BE023A008402310053022AE9
:101C8000002902250004022000E4011C00C80119FB
:101C900000AF0117009801140084011300710110B6
:101CA000006101100051010E0043010D0036010BCF
:101CB000002B010B0020010B00150109000C01098C
:101CC0000003010800FB000800F3000800EB000718
:101CD00000E4000600DE000600D8000600D2000680
:101CE00000CC000500C7000500C2000500BD0004CF
:101CF00000B9000400B5000400B1000400AD000408
:101D000000A9000400A5000300A20003009F000436
:101D1000009B00030098000300950002009300035D
:101D200000900003008D0002008B00030088000279
:101D3000008600020084000300810002007F000290
:101D4000007D0002007B00020079000200770001A4
:101D500000760002007400020072000100710002AF
:101D6000006F0002006D0001006C0002006A0001BB
:101D700000690002006700010066000100650001C3
:101D800000640002006200010061000100600001C7
:101D9000005F0002005D0001005C0001005B0001CB
:101DA000005A0001005900010058000100570001CD
:101DB00000560001005500010054000100530000CE
:101DC00000530001005200010051000100500001C9
:101DD000004F0001004E0000004E0001004D0001C8
:101DE000004C0001004B0000004B0001004A0001C4
:101DF00000490001004800000048000100470001C0
:101E000000460000004600010045000000450001BA
:101E100000440001004300000043000100420000B4
:101E200000420001004100000041000100400001AB
:101E3000003F0000003F0001003E0000003E0001A6
:101E4000003D0000003D0001003C0000003C00009F
:101E5000003C0001003B0000003B0001003A000094
:101E6000003A00010039000000390001003800008C
:101E70000038000000380001003700000037000182
:101E8000003600000036000000360001003500007A
:101E9000003500000035000100340000003400006F
:101EA0000034000100330000003300000033000163
:101EB000003200000032000000320001003100005A
:101EC000003100000031000100300000003000004F
:101ED00000300001002F0000002F0000002F000044
:101EE000002F0001002E0000002E0000002E000137
:101EF000002D0000002D0000002D0000002D00012D
:101F0000002C0000002C0000002C0000002C000120
:101F1000002B0000002B0000002B0000002B000114
:101F2000002A0000002A0000002A0000002A000108
:101F300000290000002900000029000000290000FD
:101F400000290001002800000028000000280000EF
:101F500000280000002800010027000000270000E2
:101F600000270000002700000027000100260000D5
:101F700000260000002600000026000000260001C8
:101F800000250000002500000025000000250000BD
:101F900000250000002500010024000000240000AE
:101FA00000240000002400000024000100230000A1
:101FB0000023000000230000002300000023000095
:101FC0000023000000230001002200000022000086
:101FD0000022000000220000002200000022000178
:101FE000002100000021000000210000002100006D
:101FF000002100000021000000210001002000005D
:102000000020000000200000002000000020000050
:10201000002000000020000000200001001F000040
:10202000001F0000001F0000001F0000001F000034
:10203000001F0000001F0001001E0000001E000025
:10204000001E0000001E0000004D383420582059AA
:10205000205A20450043616E6E6F74206F70656E6C
:102060002073756264697220006563686F3A004D81
:1020700061782054656D703A20313130004D696EC1
:102080002054656D703A203500544265643A4550DD
:10209000434F53203130304B004D61782054656DF3
:1020A000703A20323630004D696E2054656D703ABA
:1020B00020350054303A204550434F5320313030C2
:1020C0004B005053553A2047656E65726963005066
:1020D000726F746F636F6C3A20312E3000426175FD
:1020E000643A203235303030300052414D50532068
:1020F000312E33004D657368204C6576656C696ED2
:1021000067004578747275646572733A20310068AF
:102110007474703A2F2F6D61726C696E66772E6FD2
:10212000726700416E7963756269632069332B00C1
:10213000323031372D31302D31302031323A30309C
:1021400000312E312E36004D61726C696E0054687C
:1021500065726D6973746F727300426F617264208F
:10216000496E666F005072696E74657220496E66C2
:102170006F004D61696E00434F4D4D554E494341CF
:1021800054494F4E0044525952554E004552524FF9
:10219000525300494E464F004543484F0098219303
:1021A000218C21852177216F666600444542554781
:1021B0003A004D31343520533C696E6465783E20D9
:1021C0006F7574206F662072616E67652028302DF0
:1021D00031290A00416E7963756269632069332B86
:1021E000204F66662E00205A3A0020593A002043BC
:1021F0006F756E7420583A0020453A00205A3A0014
:1022000020593A00583A004361703A454D455247CB
:10221000454E43595F5041525345523A300A0043AC
:1022200061703A434153455F4C494748545F4252BD
:10223000494748544E4553533A300A004361703A77
:10224000544F47474C455F4C49474854533A300A2E
:10225000004361703A534F4654574152455F504FC7
:102260005745523A300A004361703A4C4556454C46
:10227000494E475F444154413A310A004361703A44
:102280005A5F50524F42453A300A004361703A411A
:1022900055544F4C4556454C3A300A004361703A0C
:1022A0005052494E545F4A4F423A310A00436170DE
:1022B0003A50524F47524553533A300A00436170E7
:1022C0003A4155544F5245504F52545F54454D502A
:1022D0003A310A004361703A454550524F4D3A3009
:1022E0000A004649524D574152455F4E414D453ACD
:1022F0004D61726C696E20312E312E36202847696F
:10230000746875622920534F555243455F434F44CB
:10231000455F55524C3A68747470733A2F2F676951
:10232000746875622E636F6D2F4D61726C696E46B5
:1023300069726D776172652F4D61726C696E2050A4
:10234000524F544F434F4C5F56455253494F4E3AAC
:10235000312E30204D414348494E455F5459504538
:102360003A416E7963756269632069332B20455861
:102370005452554445525F434F554E543A312055BF
:102380005549443A63656465326132662D34316182
:10239000322D343734382D396231322D633535637F
:1023A00036326633363766660A005072696E7420BC
:1023B00070617573656400005072696E74206162AB
:1023C0006F72746564004E6F2053442063617264C1
:1023D000005072696E742066726F6D205344005312
:1023E000746F70207072696E7400526573756D65DC
:1023F000207072696E740041626F7574205072694A
:102400006E746572005061757365207072696E74C8
:1024100000436F6E74726F6C00507265706172650C
:102420000054756E6500496E666F20736372656552
:102430006E004261627973746570205A0042616275
:102440007973746570205A00466C6F7700466C6F24
:102450007700466C6F770046616E20737065656427
:102460000046616E2073706565640046616E20737E
:10247000706565640042656400426564004E6F7A71
:102480007A6C65004E6F7A7A6C6500426564205AFA
:1024900000426564205A005370656564005370659E
:1024A0006564005370656564004D61696E000000ED
:1024B0002100240027002A002D00300033000101F4
:1024C0000000040107010A01000022002500280085
:1024D0002B002E003100340002010000050108012C
:1024E0000B01000020002300260029002C002F00F3
:1024F0003200000100000301060109010505050580
:10250000070508080808020202020A0A080804046B
:102510000404010101010101010103030303030399
:102520000303040707070C0C0C0C0C0C0C0C020228
:10253000020206060606060606060B0B0B0B0B0B25
:102540000B0B0102102020080810204010204080B2
:102550000201020108040201010204081020408067
:1025600080402010080402018004020180402010F5
:10257000080402010804020101020408102040803E
:10258000010204081020408000000A0B02090C0D13
:102590000E08070304010000000000000000000016
:1025A000000000000000000000000000000000002B
:1025B00000000000121110000000000000000000E8
:1025C0000000000000000000000000000000626544
:1025D000640A002C2073797374656D2073746F70B6
:1025E00070656421204865617465725F49443A20D2
:1025F0000048656174696E67206661696C65640096
:1026000048656174696E67206661696C656400483D
:10261000656174696E67206661696C656400486510
:102620006174696E67206661696C65640054484531
:10263000524D414C2052554E415741590054686506
:10264000726D616C2052756E6177617900526573AD
:10265000656E643A20006F6B0020746F6F206C6FA2
:102660006E6720657874727573696F6E207072651D
:1026700076656E7465640A0020636F6C642065780B
:1026800074727573696F6E2070726576656E7465AD
:10269000640A000031D2E9D111241FBECFEFD1E28C
:1026A000DEBFCDBF00E00CBF13E0A0E0B2E0E4E786
:1026B000F2EC01E00BBF02C007900D92A836B10703
:1026C000D9F722E1A8E6B3E001C01D92A73BB2070B
:1026D000E1F713E1CBE4D3E100E006C02197010963
:1026E000802FFE010E9491E0CA34D10780E00807E4
:1026F000A9F70E94EFCA0C9429E10C9400002F92D4
:102700003F924F925F926F927F928F929F92AF9281
:10271000BF92CF92DF92EF92FF920F931F93CF93CE
:10272000DF93CDB7DEB7C058D1090FB6F894DEBF3E
:102730000FBECDBF0091CA0520E6029F8001112483
:10274000065B1B4F8091170980FF1AC0E9E6F0E293
:1027500084917F013FEFE31AF30A811102C07801EF
:1027600004C00E944E36F701F3CFD7018D917D0151
:10277000882319F00E944E36F8CF8AE00E944E3628
:1027800010928703109286038FE380939103109237
:10279000900310928F031092820310928303109281
:1027A000840310928503F80180810F5F1F4F8032F0
:1027B000D1F38E34B1F4818190ED980F9A3020F0EE
:1027C0008D3211F08B3269F43296DF0131962C9103
:1027D00020532A30D0F3CD01FC0101962081203214
:1027E000D9F3F0936209E09361097F01BFEFEB1A1F
:1027F000FB0A10816AE270E0C7010E94F1E00097D5
:1028000031F0FC01319780818032E1F311821D3477
:1028100029F0143519F0173409F0CBC0F701808185
:102820002FEFE21AF20A8032C9F380538A3008F09F
:10283000C0C01093910320918F03309190034AE020
:102840003196429FC001439F900D1124DF011197E3
:102850002C91022E000C330B20533109280F391F05
:10286000808180538A3060F33093900320938F03EC
:10287000DF0131968C918032D9F31D34D1F42E31A1
:10288000310591F03CF42731310571F02C313105DF
:1028900081F40AC02537310564F02737310524F06B
:1028A000203A43E0340729F4B0938703A0938603CA
:1028B00080C010928703109286030091610961E045
:1028C00070E0FD0131968C91882309F472C0813249
:1028D000A1F41D3491F42032310579F4F09387038B
:1028E000E093860363E270E0CF010E94F1E000977D
:1028F00009F45FC0DC011C925CC09FEBD92ED80E9E
:1029000049E1C42ECD14C0F1AF01FA0190814F5FAF
:102910005F4F9032D1F340ED490F4A3040F043ED24
:10292000490F423020F09B3211F00C94B42BAF01D0
:10293000AD2CB12C7501A3E0F594E794AA95E1F7CD
:10294000C7018E579C4F7C018D2D8770DB0102C023
:10295000AA0FBB1F8A95E2F7CD01D7019C91892B65
:102960008C934115510511F0401B01C040E0D50189
:10297000A859BC4F4C930AC080918603909187035D
:10298000892B21F4B0938703A0938603808181541F
:102990008A3110F4DF0195CFDF0131969C9190537D
:1029A0009A30D0F3CD01FC01019640814032D9F339
:1029B000F1CF809191038D3411F40C943C1E843539
:1029C00011F40C94552B873411F00C94972B8091B3
:1029D0008F03909190038C31910509F4C6C57CF466
:1029E000843091053CF48230910574F597FF20C046
:1029F0000C94B12B049709F472C50C94B12B8A3551
:102A0000910509F4E1C754F48D31910509F4B2C57B
:102A10008A9711F40C949E1D0C94B12B8B35910563
:102A200009F4D6C78C35910509F4D7C70C94B12B9E
:102A300080918102882311F40C94B12B0E94883478
:102A40000E9473C90C94B12B20918102222311F4AE
:102A50000C94B12B11E0029709F010E00E94883429
:102A600082E50E947C34882309F436C10E941A341E
:102A70006B017C014090190450901A0460901B0473
:102A800070901C0420911D0430911E0440911F047D
:102A9000509120042CA73DA74EA75FA780917709EE
:102AA00090917809A0917909B0917A0988AB99AB96
:102AB000AAABBBAB20917B0930917C0940917D0989
:102AC00050917E0928AF39AF4AAF5BAF20E030E0CC
:102AD000A901C701B6010E9478D9882309F4E5C489
:102AE000A301920168A979A98AA99BA90E9478D912
:102AF00081110DC02CA53DA54EA55FA568AD79AD92
:102B00008AAD9BAD0E9478D9882309F4CEC420E019
:102B100030E0A901C701B6010E9478D9881F882733
:102B2000881F18130BC080E090E0A0E8BFE3289650
:102B30008CAF9DAFAEAFBFAF28970AC020E030E0AA
:102B400040E85FEB28962CAF3DAF4EAF5FAF2897C4
:102B5000A301920168A979A98AA99BA90E9478DD9D
:102B60006CAF7DAF8EAF9FAF2CA53DA54EA55FA5E9
:102B700068AD79AD8AAD9BAD0E9478DD24966CAFCF
:102B80007DAF8EAF9FAF24972CAD3DAD4EAD5FAD09
:102B9000CA01B9010E94DDD94B015C0124962CAD1C
:102BA0003DAD4EAD5FAD2497CA01B9010E94DDD99C
:102BB0009B01AC01C501B4010E9479DD0E94E4DFF4
:102BC0006CAB7DAB8EAB9FAB20E030E040E05FE3D1
:102BD0000E94DDD94B015C01A7019601C701B60136
:102BE0000E94DDD96B017C01A5019401C501B401EE
:102BF0000E94DDD99B01AC01C701B6010E9478DDBE
:102C00000E94E4DF9B01AC0128966CAD7DAD8EADDA
:102C10009FAD28970E94DDD94B015C0128A939A9F5
:102C20004AA95BA9C301B2010E9479DD20E030E02E
:102C300040E05FE30E94DDD96B017C0124966CAD1E
:102C40007DAD8EAD9FAD249790582CA93DA94EA97E
:102C50005FA90E9455DE9B01AC01C501B4010E9431
:102C6000DDD99B01AC01C701B6010E9479DDA3014A
:102C700092010E9478DD6B017C0128AD39AD4AAD2F
:102C80005BAD6CA57DA58EA59FA50E9479DD20E09A
:102C900030E040E05FE30E94DDD92B013C012CA92C
:102CA0003DA94EA95FA96CAD7DAD8EAD9FAD0E94D3
:102CB00055DE9B01AC01C501B4010E94DDD99B0129
:102CC000AC01C301B2010E9479DD2CA53DA54EA542
:102CD0005FA50E9478DD14C089E40E947C348823BB
:102CE00029F00E941A346B017C0103C0C12CD12C45
:102CF00076018AE40E947C348823D9F00E941A3439
:102D000068AF79AF8AAF9BAF20E030E0A901C7017F
:102D1000B6010E9478D981111AC020E030E0A901E3
:102D200068AD79AD8AAD9BAD0E9478D981110FC095
:102D3000BCC320E030E0A901C701B6010E9478D9E8
:102D4000882309F4B2C318AE19AE1AAE1BAED70170
:102D5000C601B0588CA79DA7AEA7BFA728AD39ADB7
:102D60004AAD5BAD505828AB39AB4AAB5BAB9C016D
:102D7000AD01BC01CD010E94DDD94B015C0128A948
:102D800039A94AA95BA9CA01B9010E94DDD99B01F1
:102D9000AC01C501B4010E9479DD0E94E4DF6896B0
:102DA0006CAF7DAF8EAF9FAF689780911904909103
:102DB0001A04A0911B04B0911C048CAB9DABAEAB6C
:102DC000BFABA7019601BC01CD010E9479DD289619
:102DD0006CAF7DAF8EAF9FAF289720911D043091CF
:102DE0001E0440911F04509120042CAF3DAF4EAF04
:102DF0005FAF28AD39AD4AAD5BAD6CAD7DAD8EAD8D
:102E00009FAD0E9479DD2C966CAF7DAF8EAF9FAFEA
:102E10002C978091770990917809A0917909B091C8
:102E20007A0960968CAF9DAFAEAFBFAF6097289622
:102E30002CAD3DAD4EAD5FAD2897BC01CD010E94DC
:102E400078DD6B017C0120917B0930917C094091F8
:102E50007D0950917E0964962CAF3DAF4EAF5FAFB8
:102E600064972C962CAD3DAD4EAD5FAD2C9764961E
:102E70006CAD7DAD8EAD9FAD64970E9478DD4B014A
:102E80005C018091210490912204A0912304B091CF
:102E90002404A0968CAF9DAFAEAFBFAFA0979C01AE
:102EA000AD0160917F0970918009809181099091B5
:102EB00082090E9478DD24966CAF7DAF8EAF9FAF04
:102EC000249720918309309184094091850950917C
:102ED00086096C962CAF3DAF4EAF5FAF6C9780917B
:102EE000250490912604A0912704B0912804A4966B
:102EF0008CAF9DAFAEAFBFAFA497A70196016CA5F5
:102F00007DA58EA59FA50E94DDD92B013C01A501C1
:102F1000940168A979A98AA99BA90E94DDD99B017E
:102F2000AC01C301B2010E9479DD2B013C01A50176
:102F300094016CA57DA58EA59FA50E94DDD94B01AE
:102F40005C01A701960168A979A98AA99BA90E9499
:102F5000DDD99B01AC01C501B4010E9478DDA3015C
:102F600092010E94ECDD6B017C0120E030E0A901C0
:102F70000E9478D987FF0AC02BED3FE049EC50E46E
:102F8000C701B6010E9479DD6B017C01112351F06C
:102F90002BED3FE049EC50E4C701B6010E9478DD1B
:102FA0006B017C0120E030E0A901C701B6010E945D
:102FB00078D9811124C060962CAD3DAD4EAD5FAD8A
:102FC00060976CA97DA98EA99FA90E9478D98111CB
:102FD00016C064962CAD3DAD4EAD5FAD64976CAD43
:102FE0007DAD8EAD9FAD0E9478D9811108C04BEDAB
:102FF000C42E4FE0D42E49ECE42E40E4F42E689623
:103000002CAD3DAD4EAD5FAD6897C701B6010E94D6
:10301000DDD99B01AC010E94DDD94B015C012496F6
:103020002CAD3DAD4EAD5FAD2497CA01B9010E94F4
:10303000DDD99B01AC01C501B4010E9479DD0E947C
:10304000E4DF4B015C012FE632E143E85AE30E94E2
:1030500078D987FD26C2C501B4010E94EEDE0E9428
:10306000C2DE7DAF6CAFDB01AB2B21F4E1E0F0E021
:10307000FDAFECAF2CAD3DADB90180E090E00E941A
:103080007CD94B015C019B01AC01C701B6010E94D8
:1030900055DE6CAB7DAB8EAB9FABA5019401249646
:1030A0006CAD7DAD8EAD9FAD24970E9455DE6896C8
:1030B0006CAF7DAF8EAF9FAF6897A4962CAD3DAD42
:1030C0004EAD5FADA4976C966CAD7DAD8EAD9FADF2
:1030D0006C970E9478DDA50194010E9455DE6C96E4
:1030E0006CAF7DAF8EAF9FAF6C972CA93DA94EA959
:1030F0005FA9CA01B9010E94DDD920E030E040E0BB
:103100005FE30E94DDD99B01AC0160E070E080E8E4
:103110009FE30E9478DD24966CAF7DAF8EAF9FAFAA
:103120002497A0968CAD9DADAEADBFADA09789871D
:103130009A87AB87BC87A4962CAD3DAD4EAD5FADF5
:10314000A4972D873E874F87588B60917F0270919F
:103150008002072E000C880B990B0E947ED92091CB
:1031600082023091830240918402509185020E9434
:10317000DDD92AE037ED43E25CE30E94DDD96096B9
:103180006CAF7DAF8EAF9FAF60970E9492C09B01E6
:10319000AC0128533F4F4F4F5F4F64962CAF3DAF6C
:1031A0004EAF5FAF64974CA45DA46EA47FA42224AD
:1031B0002394312C39E1D32E4CAD5DAD2416350668
:1031C00009F431C10E941AC50E9492C0DC01CB01F2
:1031D00064962CAD3DAD4EAD5FAD6497821B930BF5
:1031E000A40BB50BB7FD10C00E9492C09B01AC01AF
:1031F00028533F4F4F4F5F4F64962CAF3DAF4EAFBC
:103200005FAF64970E943398DA94DD2009F441C0DF
:1032100024962CAD3DAD4EAD5FAD249768A979A93C
:103220008AA99BA90E94DDD94B015C012CA93DA96B
:103230004EA95FA9B201C3010E94DDD9A501940185
:103240000E9479DD7B018C0124962CAD3DAD4EAD05
:103250005FAD2497B201C3010E94DDD94B015C012F
:103260002CA93DA94EA95FA968A979A98AA99BA9FA
:103270000E94DDD99B01AC01C501B4010E9478DD3B
:103280002B013C01C701D80188AB99ABAAABBBAB02
:103290004FC0B10180E090E00E947CD92CA93DA9EB
:1032A0004EA95FA90E94DDD94B015C010E9452DE4C
:1032B0006B017C01C501B4010E94DADF4B015C01A6
:1032C000A70196016CA57DA58EA59FA50E94DDD9BD
:1032D0002B013C01A501940168AD79AD8AAD9BAD90
:1032E0000E94DDD99B01AC01C301B2010E9479DDCE
:1032F0002B013C01A50194016CA57DA58EA59FA580
:103300000E94DDD94B015C01A701960168AD79AD42
:103310008AAD9BAD0E94DDD99B01AC01C501B40112
:103320000E9478DD68AB79AB8AAB9BAB99E1D92E73
:103330009201A30128966CAD7DAD8EAD9FAD28970F
:103340000E9479DD69837A838B839C8328A939A9BC
:103350004AA95BA92C966CAD7DAD8EAD9FAD2C9727
:103360000E9479DD6D837E838F83988768962CAD6C
:103370003DAD4EAD5FAD689769857A858B859C853F
:103380000E9479DD69877A878B879C876C962CAD44
:103390003DAD4EAD5FAD6C976D857E858F8598890F
:1033A0000E9479DD6D877E878F87988B809176026A
:1033B000882321F0CE0101960E943396C090BE086A
:1033C00089819A81AB81BC8188A399A3AAA3BBA35D
:1033D0008D819E81AF81B8858CA39DA3AEA3BFA331
:1033E00089859A85AB85BC8588A799A7AAA7BBA71D
:1033F000CE0180960E94FD346096ECACFDAC0EAD23
:103400001FAD60979E01235F3F4FAE01485D5F4F48
:10341000BE016C5D7F4FCE0180960E94187C3FEF0D
:10342000231A330AC9CEC090BE08809177099091C3
:103430007809A0917909B0917A0988A399A3AAA3E0
:10344000BBA380917B0990917C09A0917D09B091EB
:103450007E098CA39DA3AEA3BFA380917F09909109
:103460008009A0918109B091820988A799A7AAA78C
:10347000BBA7CE0180960E94FD346096ECACFDACFB
:103480000EAD1FAD609723E839E0AE01485D5F4F98
:10349000BE016C5D7F4FCE0180960E94187C0E9419
:1034A000DC300E9405350C94B12BE1E1FEE0849103
:1034B0008F010F5F1F4F882321F00E944E36F801C5
:1034C000F6CFE3EBF1E084918F010F5F1F4F88236C
:1034D00011F40C94B12B0E944E36F801F4CF80E524
:1034E0000E947C34882329F00E94DA336B017C012E
:1034F00003C0C12CD12C760183E50E947C34882343
:1035000061F00E941A3420E030E04AE754E40E945F
:10351000DDD90E94C2DE6B017C010E94B8C6809199
:103520001702811105C060E089EC91E00E94B6901D
:103530000E9405358091630990916409A091650905
:10354000B0916609C80ED91EEA1EFB1E0E9492C0E9
:10355000DC01CB018C199D09AE09BF09B7FD02C082
:103560000C94B12B0E943398F1CF80E00E9410356B
:103570000C94B12B83E50E947C34882321F00E94B7
:10358000FA33282F01C020E0263070F0E0E7F2E0A7
:1035900084918F010F5F1F4F882311F40C94B12B7E
:1035A0000E944E36F801F4CF223009F443C0A0F453
:1035B0002223E9F0213009F003C20E94B76910927A
:1035C0000102109200028DE392E090934D088093E7
:1035D0004C080E940C32F4C1243009F4E2C108F412
:1035E0007BC1253009F0ECC10E94CC33E9C1809148
:1035F000CB0880FF13C00E944D33811103C068ECDB
:1036000072E002C064EC72E088E492E00E9485A956
:103610008AE00E944E360E94B3D0D2C100E512E08B
:10362000F8018491882309F4CBC10F5F1F4F0E94DA
:103630004E36F6CF409100025091010257FF0EC066
:10364000E4E1F2E084918F010F5F1F4F882311F4B2
:103650000C94B12B0E944E36F801F4CF4115510560
:1036600029F48091760280938E032FC08FEF840F10
:1036700063E00E9441E080FF02C0291B922F292FA6
:10368000990F330BF901EE0FFF1FE20FF31FE80F45
:10369000F11D87FDFA95EE0FFF1FEE0FFF1FE65697
:1036A000F74F8091210490912204A0912304B091BE
:1036B000240480839183A283B38380918E038093BB
:1036C0007602493051050CF0B7C0842F63E00E94A8
:1036D00041E0782E692E80FF03C082E0891B682EAE
:1036E000C0908202D0908302E0908402F090850224
:1036F0008090210490902204A0902304B090240490
:103700000FEC16E1F80185919591A591B491809304
:10371000820290938302A0938402B093850220E0FA
:1037200030E040EA50E46091C7087091C808809189
:10373000C9089091CA080E9479DD609321047093B2
:10374000220480932304909324040E94413185E550
:1037500095E5A5E0B3E48093820290938302A09361
:103760008402B0938502F62D24E0F202D0011124E8
:10377000A651B14F2091BF083091C0084091C108B7
:103780005091C2086D917D918D919C910E9479DD3F
:103790006093190470931A0480931B0490931C0483
:1037A000372D44E03402F0011124E252F14F209110
:1037B000C3083091C4084091C5085091C608608183
:1037C0007181828193810E9479DD60931D047093E1
:1037D0001E0480931F04909320040E944131F8013D
:1037E00085919591A591B4918093820290938302E3
:1037F000A0938402B09385028092210490922204C7
:10380000A0922304B09224040E944131C09282020B
:10381000D0928302E0928402F09285020E94B8C6A0
:10382000109276028091000290910102019690938D
:10383000010280930002C4C020E030E0A901609141
:10384000C7087091C8088091C9089091CA080E9461
:1038500079DD20E030E040EA50E40E9479DD6093B9
:1038600021047093220480932304909324040E94E3
:1038700041310E94B8C68FEF9FEF90930102809371
:103880000002E0E0F2E084918F010F5F1F4F882378
:1038900021F00E944E36F801F6CF83E992E09A8338
:1038A000898304E610E019A308A3BE016F5F7F4F70
:1038B000CE0180960E9466558AEB92E09A838983B6
:1038C00019A308A3BE016F5F7F4FCE0180960E94AF
:1038D00066550E94CF7974C088E50E947C348823A5
:1038E000A1F00E94EA331FEF160F1330A8F0E9EEA3
:1038F000F1E084918F010F5F1F4F882311F40C9426
:10390000B12B0E944E36F801F4CF88E50E944E3666
:103910000E94DFCA0C94B12B89E50E947C34882375
:10392000A1F00E94EA330FEF060F0330A8F0E2ED9A
:10393000F1E084918F010F5F1F4F882311F40C94E5
:10394000B12B0E944E36F801F4CF89E50E944E3625
:103950000E94DFCA0C94B12B8AE50E947C34882334
:10396000C9F00E941A34212F110F330BF901EE0F09
:10397000FF1FE20FF31FE00FF11D07FDFA95EE0F99
:10398000FF1FEE0FFF1FE656F74F608371838283A0
:10399000938316C08AE50E944E360E94DFCA0C94BB
:1039A000B12B8AE50E947C348823A1F30E941A344B
:1039B0006093CF087093D0088093D1089093D20879
:1039C0000E9459B50C94B12B10928D030C94B12B1D
:1039D00081E080938D030C94B12B85E40E947C34AC
:1039E000B82E811102C00E94B8C6E6E88E2EE2E031
:1039F0009E2EF9E1CF2EF4E0DF2EABE6EA2EA9E011
:103A0000FA2E00E010E0A12CD4018D914D010E940E
:103A10007C34882309F446C0F6012081318142813B
:103A20005381EE962FAFEE97EF963FAFEF97C158C9
:103A3000DF4F4883CF57D040C058DF4F5883C0581E
:103A4000D0400E941A34D6016D937D938D939C9340
:103A50001397EE962FADEE97EF963FADEF97C158C7
:103A6000DF4F4881CF57D040C058DF4F5881C058F2
:103A7000D04003301105B1F00E9478DD9B01AC010C
:103A8000F70160817181828193810E9479DDD70184
:103A90006D937D938D939C931397C8010E949831E9
:103AA000AA24A3940F5F1F4FB4E0CB0ED11CE4E017
:103AB000EE0EF11C0430110509F0A6CFAA2019F072
:103AC0000E946B3237C0BB20A9F1C0902504D09072
:103AD0002604E0902704F09028042091FC083091FF
:103AE000FD084091FE085091FF08C701B6010E94F1
:103AF000DDD90E94AADF6093D80E7093D90E80930F
:103B0000DA0E9093DB0EC701B6010E94BDDE2FB71F
:103B1000F8946093DD117093DE118093DF11909320
:103B2000E0112FBF1092C80E1092C90E1092CA0E4B
:103B30001092CB0E0E9459B50C94B12B809181024A
:103B4000882311F40C94B12B89E40E947C34F82E64
:103B5000882321F00E94EA33062F01C000E08AE4A6
:103B60000E947C34E82E882331F00E94EA33162F1D
:103B7000F11004C00AC010E0FF20B1F0033010F4CF
:103B80000C941130E7E8F2E003C01330D8F70CC012
:103B900084918F010F5F1F4F882311F40C94B12B78
:103BA0000E944E36F801F4CF0E94D230FF20E1F09F
:103BB00024E00202F0011124E651F14F2091BF08E8
:103BC0003091C0084091C1085091C2086081718154
:103BD000828193810E9479DD6093770970937809DF
:103BE0008093790990937A09EE20E1F034E0130292
:103BF000F0011124E252F14F2091C3083091C40822
:103C00004091C5085091C60860817181828193817D
:103C10000E9479DD60937B0970937C0980937D0914
:103C200090937E0980E50E944D3481110E940B34EF
:103C300086E40E947C348823D9F00E941A346B01F8
:103C40007C0120E030E0A9010E949FDF181684F477
:103C500020E030E040E752E4C701B6010E9455DEA3
:103C60006093820270938302809384029093850212
:103C70000E9473C90C94B12B80918F039091900393
:103C80008237910509F4BCC30CF0C0C08B34910598
:103C900009F4C9C20CF06CC08831910509F457C20F
:103CA000ECF58231910509F48CC3FCF497FF02C056
:103CB0000C94B12B823091050CF469C1419711F03D
:103CC0000C94B12B60E08CED92E00E94B6905F986E
:103CD0008A989FB7F894809108018E7F809308019D
:103CE0009FBF479812980C94B12B8531910509F428
:103CF00013C23CF4449711F00C94B12BE4EFF2E0C2
:103D0000C8C18631910509F40BC2479711F00C9494
:103D1000B12BE0918603F09187030CC28C319105A1
:103D200009F432C264F48A31910509F41BC20CF023
:103D300027C21092240F0E94F7550C94B12B8F319B
:103D4000910509F46CC244F44E9711F00C94B12B18
:103D50000E945B780C94B12B8032910509F41EC24D
:103D60008A9711F00C94B12B0E942D770C94B12BF3
:103D70008836910509F463C23CF58235910509F452
:103D800017C37CF48D34910509F455C20CF44FC26D
:103D90008135910511F00C94B12B0E9410B70C9451
:103DA000B12B8435910509F40CC30CF405C385359A
:103DB000910509F40AC38C35910511F00C94B12BCF
:103DC0000E9418B60C94B12B8C36910509F452C29E
:103DD00054F48A36910509F4BAC20CF0D7C20E9495
:103DE000BC760C943E308E36910509F42CC20CF44E
:103DF00078C28F36910509F439C28037910511F0E8
:103E00000C94B12B85E093E00E94E3978C3D9105E3
:103E100009F475C50CF051C08B39910509F436C20F
:103E20003CF58737910509F435C37CF48537910556
:103E300009F4ECC20CF0F3C28337910511F00C9435
:103E4000B12B0E94D0B40C94B12B8937910509F4A1
:103E50008EC30CF485C38C38910509F413C28139E3
:103E6000910511F00C94B12B0E9425B70C94B12B45
:103E70008B3C910509F489C374F4883C910509F4DD
:103E80007CC3893C910509F47CC38E3B910511F0FC
:103E90000C94B12B42C28D3C910509F4E6C30CF49D
:103EA00078C38E3C910509F44DC4833D910511F012
:103EB0000C94B12BE9E6F0E28CC48A3941E0940716
:103EC00009F4DCC15CF58D32A1E09A0709F490C5D4
:103ED0007CF4823E910509F438C58C32E1E09E07FE
:103EE00009F45DC58D3D910511F00C94B12B14C5FD
:103EF0008F32F1E09F0709F46DC60CF417C68336C4
:103F000031E0930711F40C942A2B8039914011F081
:103F10000C94B12B0E94B8C60C94B12B853F51E094
:103F2000950711F40C94132BECF4853AB1E09B0740
:103F300011F40C941B293CF4843A914011F40C9434
:103F400074280C94B12B8C3A21E0920711F40C9454
:103F5000122A843F914011F00C94B12BE1E1FEE074
:103F60000C94FC2A873F41E0940711F40C941C2B1D
:103F700014F40C94192B803AA3E09A0709F44BC16E
:103F8000873E934011F40C94432B0C94B12BA090DA
:103F90008603B090870380E50E947C34882359F023
:103FA0000E94DA336B017C0111E0672B682B692BCF
:103FB00031F410E004C010E0C12CD12C760183E56F
:103FC0000E947C348823F1F00E941A3420E030E013
:103FD0004AE754E40E94DDD90E94C2DE6B017C01F5
:103FE000111112C0672B682B692B71F4A114B10455
:103FF00059F0F5018081882339F061E0C5010E9404
:10400000D69007C0112391F360E089EC92E00E9402
:10401000B69081E0809340090E94B8C60E940535A1
:10402000C114D104E104F104E9F080916309909195
:104030006409A0916509B0916609C80ED91EEA1EEF
:10404000FB1E0E9492C0DC01CB018C199D09AE09B8
:10405000BF09B7FF1AC0809140098823B1F00E94C0
:104060003398EFCF80914009882319F00E9433984C
:10407000F9CF8091240F60E0882319F08AEB92E059
:1040800002C086EA92E00E94B690109240090C9419
:10409000B12B84918F010F5F1F4F882321F00E9465
:1040A0004E36F801F6CF1092AA111092A91140E0F5
:1040B00050E0BA0185E59FE00E94FF478BE1E5E50E
:1040C000FFE0DE01159601900D928A95E1F780914F
:1040D000530F9091540F9C838B8380EB92E09A83D3
:1040E000898340E050E0BE016F5F7F4F85E693E03B
:1040F0000E9464ABCE0101960E94C997E5EEF2E002
:1041000084918F010F5F1F4F882311F40C94B12B02
:104110000E944E36F801F4CF0E941F540C94B12B2C
:104120001092240F1092250F0C94B12B803209F4B9
:104130001082319680818111F9CF40E061E0809159
:104140008603909187030E94F1500C94B12B8091CB
:10415000250F882319F081E08093240F0E94B75522
:104160000C94B12B8091250F882311F40C94B12B62
:1041700083E50E947C3481110C94C52B0C94B12BE7
:104180000E9492790C94B12B40E060E0809186030C
:10419000909187030E94F1500C94B12B8091240FD1
:1041A00081110E94B8C6E0908603F090870380E5F5
:1041B0000E944D34182F882319F00E940B34182FB9
:1041C0008091250F882311F40C94B12B412F61E0CD
:1041D000C7010E94F15083E50E947C34882381F05E
:1041E0000E94EA33AB01BC014093A0115093A1118E
:1041F0006093A2117093A3118FEE90E10E94FF478C
:104200008091250F882319F081E08093240F1111EC
:104210000C94B12BA3CF0E9481770C94B12B0E94F8
:104220008C770C94B12B0E94B7550C94B12B0E9443
:10423000F7550C94B12B0E9456AA0C94B12B0E94F6
:10424000D8760C94B12B8EE40E947C34882311F430
:104250000C94B12B0E94EA336093A1127093A212C6
:104260008093A3129093A4120C94B12B0E94B4B724
:104270000C94B12B10927C020C94B12B0E9401B4CF
:104280000C94B12B0E949BB70C94B12B83E50E9438
:104290007C34882311F40C94B12B0E94FA33809360
:1042A00060098D3318F08CE3809360090E9492C0FE
:1042B0006B017C012091600930E0A8EEB3E00E9420
:1042C00069DDDC01CB018C0D9D1DAE1DBF1D8093F2
:1042D0005C0990935D09A0935E09B0935F090C940B
:1042E000B12B8DE690E00E94BB3681110C94B12B6E
:1042F0008091170983FF02C00C94B12B83E50E94C3
:104300007C3488AF81110C94D62B82E50E947C34DA
:1043100081110C94D62B0C94B12B8091170983FF3B
:1043200002C00C94B12B60E089E493E00E94B69047
:1043300083E50E947C3488AF81110C94552D82E571
:104340000E947C3481110C94552D0C94B12B83E583
:104350000E947C34882339F00E94EA338B016F3F3E
:10436000710519F010F00FEF10E080E50E947C3429
:10437000811106C010933E0600933D060C94B12BAC
:104380000E94FA3381110C94B12BF4CF80E50E9486
:104390007C34811106C010923E0610923D060C94AA
:1043A000B12B0E94EA33672B11F00C94B12BF3CFA1
:1043B00010928C030C94B12B81E080938C030C94AD
:1043C000B12B0E94B6B60C94B12B83E50E944D34FC
:1043D000882311F40C94B12B0E941A3420E030E0B1
:1043E0004AE754E40E94DDD90E94C2DE6093670967
:1043F000709368098093690990936A090C94B12BB2
:104400000E94B8C60E9459B50C94B12B60E080910F
:104410008603909187030E94D6900C94B12B85E47B
:104420000E944D34882381F00E940B34882361F070
:10443000E9E6F0E284918F010F5F1F4F882321F09E
:104440000E944E36F801F6CF81E40E944D34882355
:1044500081F00E940B34882361F0E6E5F3E084915B
:104460008F010F5F1F4F882321F00E944E36F80105
:10447000F6CF0091860310918703D8018D918D01AD
:10448000882319F00E944E36F8CF8AE00E944E36FB
:104490000C94B12BE2E7F3E084918F010F5F1F4F83
:1044A000882321F00E944E36F801F6CFEAE6F3E0C9
:1044B00084918F010F5F1F4F882321F00E944E3699
:1044C000F801F6CF659B03C00CEC12E002C001EDD1
:1044D00012E0F80181918F01882319F00E944E3675
:1044E000F8CF8AE00E944E36E2E6F3E084918F0135
:1044F0000F5F1F4F882321F00E944E36F801F6CF40
:104500008091030181FF03C00CEC12E002C001EDB9
:1045100012E0D8018D918D01882319F00E944E364A
:10452000F8CF8AE00E944E36EAE5F3E084918F01ED
:104530000F5F1F4F882321F00E944E36F801F6CFFF
:104540004B9B03C00CEC12E002C001ED12E0F8013D
:1045500081918F01882309F498CF0E944E36F7CFBE
:1045600081E080930904809325060C94B12B10926E
:104570000904109225060C94B12B0E9483B40C946C
:10458000B12B0E945EB40C94B12B0E943CB40C94ED
:10459000B12B83E50E944D348823D9F00E941A3450
:1045A000AB01BC0140931D0650931E0660931F068D
:1045B00070932006409315065093160660931706D5
:1045C0007093180686EE93E00E944FA98AE00E943D
:1045D0004E3680E50E944D34882399F00E941A34AB
:1045E000AB01BC0140931D0650931E0660931F064D
:1045F0007093200689EC93E00E944FA98AE00E9404
:104600004E3682E50E944D34882399F00E941A3478
:10461000AB01BC014093190650931A0660931B0628
:1046200070931C068AEA93E00E944FA98AE00E94D8
:104630004E3684E50E944D34882311F40C94B12B3E
:104640000E941A34AB01BC01409315065093160624
:1046500060931706709318068CE893E00E944FA9A8
:104660008AE00E944E360C94B12B83E50E944D34B3
:10467000882351F00E941A346093F1057093F2057B
:104680008093F3059093F40584E50E944D348823CC
:1046900051F00E941A346093ED057093EE058093FB
:1046A000EF059093F00582E40E944D34882351F089
:1046B0000E94DA3360930F097093100980931109F7
:1046C0009093120988E50E944D34882351F00E948E
:1046D0001A346093E0087093E1088093E2089093A5
:1046E000E30889E50E944D34882351F00E941A3472
:1046F0006093E4087093E5088093E6089093E708D8
:104700008AE50E944D34882351F00E941A34609348
:10471000E8087093E9088093EA089093EB0885E431
:104720000E944D34882311F40C94B12B0E941A344A
:104730006093EC087093ED088093EE089093EF0877
:104740000C94B12B96E8A92E92E0B92E29E1C22E45
:1047500024E0D22E3DE0E32E34E0F32E00E010E022
:10476000D5018D915D010E944D34882311F10E9485
:104770001A342B013C01F7012081318142815381A0
:104780000E9478DD9B01AC01D6016D917D918D91E8
:104790009C910E9479DDF60160837183828393830B
:1047A000D7014D925D926D927C921397C8010E9441
:1047B00098310F5F1F4FB4E0CB0ED11CE4E0EE0E3A
:1047C000F11C0330110561F60E946B320E9459B54D
:1047D000C8C784918F010F5F1F4F882321F00E946B
:1047E0004E36F801F6CF83E50E944D34882321F040
:1047F0000E940B3480937602E6E3F4E084918F010B
:104800000F5F1F4F882321F00E944E36F801F6CF2C
:1048100080917602811103C0E2E3F4E002C0EEE28F
:10482000F4E084918F010F5F1F4F882321F00E94D5
:104830004E36F801F6CFE6E2F4E084918F010F5F87
:104840001F4F882321F00E944E36F801F6CF409189
:10485000950950919609609197097091980984E2A1
:1048600094E00E944FA94091990950919A09609152
:104870009B0970919C0981E294E00E944FA94091AC
:104880009D0950919E0960919F097091A0098EE148
:1048900094E00E944FA9E6E1F4E084918F010F5F5C
:1048A0001F4F882321F00E944E36F801F6CF409129
:1048B0006A0250916B0260916C0270916D0284E10A
:1048C00094E00E944FA940916E0250916F02609156
:1048D00070027091710281E194E00E944FA94091B1
:1048E00072025091730260917402709175028EE0B1
:1048F00094E00E944FA98AE00E944E3632C783E5B9
:104900000E947C34882309F42CC70E94EA337093F8
:10491000800260937F0225C78DED90E00E94BB3638
:1049200081111FC783E50E947C34882309F419C7CD
:104930000091880310E00E94EA33000F111FF80174
:10494000E358FD4F718360830CC780E50E944D34AE
:10495000882309F406C70E94EA33F62EC62ED72E06
:1049600083E50E947C34882321F00E94EA338B0186
:1049700002C00FEF1FEFC8010196039708F0F1C6C0
:10498000D7FCEFC6E6E4F4E08BE28E0F9491F916C3
:1049900009F4E7C631968E13F9CF0C94173083E5EE
:1049A0000E947C34882319F00E94EA3302C064E03C
:1049B00071E079A368A380E50E947C34882339F0F4
:1049C0000E94EA336938F3E17F0730F402C068EEF1
:1049D00073E07A83698304C088E893E19A838983CA
:1049E000BE01605E7F4FCE0101960E946655B9C63A
:1049F00085E40E947C34811110C080E50E944D3412
:104A0000882391F00E941A346093CC057093CD05F1
:104A10008093CE059093CF0507C00E94FA33882378
:104A200061F3E1E1FEE071C089E40E944D34882326
:104A300081F00E941A342CEA35EC47E25EE30E94D2
:104A4000DDD96093DC057093DD058093DE059093DE
:104A5000DF0584E40E944D34882381F00E941A34DB
:104A60002CEA35EC47E25EE30E9455DE6093D40504
:104A70007093D5058093D6059093D705E9E6F0E2CB
:104A800084918F010F5F1F4F882321F00E944E36C3
:104A9000F801F6CF4091CC055091CD056091CE053F
:104AA0007091CF0589E794E00E944FA92CEA35EC7C
:104AB00047E25EE36091DC057091DD058091DE05E3
:104AC0009091DF050E9455DEAB01BC0185E794E0C3
:104AD0000E9432A92CEA35EC47E25EE36091D405EE
:104AE0007091D5058091D6059091D7050E94DDD9AA
:104AF000AB01BC0181E794E00E9432A98AE00E94E8
:104B00004E362FC60E944E36F80184918F010F5FFA
:104B10001F4F8111F7CF0AEE12E0D8018D918D0160
:104B2000882309F4B2CC0E944E36F7CF83E50E9469
:104B30004D34182F882371F00E941A340E94BDDE74
:104B4000709363026093620221E0672B09F020E01A
:104B500020930E0980E50E944D34882359F020915E
:104B6000620230916302232B11F00E940B34809378
:104B70000E09F7C51111F5C5E9E6F0E284918F0140
:104B80000F5F1F4F882321F00E944E36F801F6CFA9
:104B900080910E09811103C06BED72E002C06EECD2
:104BA00072E082E994E00E9485A9609162027091AE
:104BB000630281E894E00E946CA9EDE7F4E084913F
:104BC0008F010F5F1F4F882309F4CBC50E944E361B
:104BD000F801F5CF85E40E947C34882321F00E94FF
:104BE000EA338B0102C000E010E083E40E947C34D1
:104BF000882339F00E94EA33E9967FAF6EAFE997D8
:104C000006C0E5E0F0E0E996FFAFEEAFE99785E595
:104C10000E944D34AE968FAFAE97882329F00E9444
:104C20000B34AE968FAFAE9717FD07C0C12CD12CB9
:104C3000B6E1EB2EB3E4FB2E06C0C12CD12CACE8C0
:104C4000EA2EA2E4FA2E83E50E947C34882321F028
:104C50000E941A346B017C010115110511F41092A8
:104C600088030E9492C04B015C01012B19F40BEFE9
:104C700012E00BC00EE013E0D8018D918D01882366
:104C800009F403CC0E944E36F7CFF80181918F01D1
:104C9000882319F00E944E36F8CFC701B6010E9452
:104CA000BDDE072E000C880B990B0E947ED96CABE1
:104CB0007CAF21968FAF219725969FAF25978AE0ED
:104CC0000E944E360E94DBC28FE78093540881E039
:104CD00080937C02E3968CAE9DAEAEAEBFAEE39702
:104CE000ED968CAE9DAEAEAEBFAEED9729961FAEE3
:104CF0002997F0E42D96FFAF2D972CE161962FAF09
:104D0000619736E46D963FAF6D97A1961FAEA19760
:104D100065961FAE659769961FAE6997A5961FAEFB
:104D2000A597AD961CAE1DAE1EAE1FAEAD97A99653
:104D30001CAE1DAE1EAE1FAEA997C12CD12C7601A4
:104D4000FFE74F2E512C612C712C8FE790E0A0E0F3
:104D5000B0E088AB99ABAAABBBABE7961CAE1DAE7F
:104D60001EAE1FAEE79791E0AF969FAFAF9719AE1B
:104D700018AE212C312C00E010E080917C028823B9
:104D800009F4ABC10E9492C06CA77DA78EA79FA714
:104D900080915208882309F4BBC00E94A1C32090CF
:104DA0005608309057080091580810915908910101
:104DB000A801A1966FADA19765967FAD659769969D
:104DC0008FAD6997A5969FADA5970E9478D987FF6B
:104DD0000CC0A1962FAEA19765963FAE65976996D8
:104DE0000FAF6997A5961FAFA5979101A8012996C6
:104DF0006FAD29972D967FAD2D9761968FAD6197F9
:104E00006D969FAD6D970E949FDF181664F42996EA
:104E10002FAE29972D963FAE2D9761960FAF6197D4
:104E20006D961FAF6D97AF96AFADAF972CA93CAD08
:104E300021964FAD219725965FAD2597B101C80109
:104E4000AA2309F44BC00E949FDF18160CF060C023
:104E50004CA55DA56EA57FA5481959096A097B096E
:104E6000DB01CA0188589341A109B109B7FD50C0BF
:104E700088A999A9AAA9BBA984199509A609B7095E
:104E8000B595A7959795879580935408E7964CAF6D
:104E90005DAF6EAF7FAFE797BCA9A196BFAFA197FB
:104EA000ECAD6596EFAF65972196FFAD21976996BA
:104EB000FFAF699725962FAD2597A5962FAFA5979C
:104EC0008CA59DA5AEA5BFA5E3968CAF9DAFAEAF5B
:104ED000BFAFE397AF961FAEAF971AC00E9478D9C5
:104EE00087FF16C08CA59DA5AEA5BFA5E3962CADEA
:104EF0003DAD4EAD5FADE397821B930BA40BB50B9D
:104F0000AC01BD01485853416109710977FF1BC7C6
:104F100020E030E040EA51E46CA97CAD21968FADF1
:104F2000219725969FAD25970E9479DD9B01AC01C5
:104F3000B101C8010E949FDF18166CF4EFE5F5E09F
:104F400084918F010F5F1F4F882309F40AC40E94C8
:104F50004E36F801F5CF80E398EFAFEFBFEFED9657
:104F60002CAD3DAD4EAD5FADED97821B930BA40B09
:104F7000B50B2CA53DA54EA55FA5820F931FA41FC1
:104F8000B51FB7FD0FC00E9430768AE00E944E36F2
:104F90008CA59DA5AEA5BFA5ED968CAF9DAFAEAF80
:104FA000BFAFED978CA59DA5AEA5BFA5880F991F96
:104FB000AA1FBB1FE3962CAD3DAD4EAD5FADE39791
:104FC000821B930BA40BB50B88199909AA09BB097D
:104FD00081389F44A241B10568F0E1E4F5E0849195
:104FE0008F010F5F1F4F882309F4BBC30E944E3609
:104FF000F801F5CF48AD59ADE9968EAD9FADE99773
:10500000841795070CF066C0E4EEF4E084918F01FC
:105010000F5F1F4F882321F00E944E36F801F6CF14
:10502000B701A6018FEC94E00E944FA98AE00E948C
:105030004E36A9964CAD5DAD6EAD7FADA9978AEBAE
:1050400094E00E944FA98AE00E944E36AD964CAD86
:105050005DAD6EAD7FADAD9785EA94E00E944FA93E
:105060008AE00E944E36AE969FADAE97992309F422
:1050700078C3C092CC05D092CD05E092CE05F092D7
:10508000CF052CEA35EC47E25EE3A9966CAD7DAD29
:105090008EAD9FADA9970E94DDD96093DC0570931A
:1050A000DD058093DE059093DF052CEA35EC47E2C1
:1050B0005EE3AD966CAD7DAD8EAD9FADAD970E94BC
:1050C00055DE6093D4057093D5058093D6059093F3
:1050D000D70547C30E94E89050CE80917C02811191
:1050E00040C30E94DBC23DC386E50E944D34882345
:1050F00089F08091CB0880FF0DC002E116E0F80135
:105100008491882329F00F5F1F4F0E944E36F7CFFE
:105110000E94B3D083E50E944D34182F882319F0E4
:105120000E940B34182F83E50E944D34882319F018
:10513000812F0E94A9338AE50E944D34882321F0F3
:105140000E941A340E9452330E944D33F82E1111DE
:1051500003C0E9E6F0E218C08111FBCF01E11EE0D7
:10516000F8018491882329F00F5F1F4F0E944E366B
:10517000F7CF03EF15E0F8018491882351F30F5F17
:105180001F4F0E944E36F7CF84918F010F5F1F4F44
:10519000882321F00E944E36F801F6CFF11003C0AB
:1051A00068EC72E002C064EC72E085EE95E00E946B
:1051B00085A98AE00E944E36E9E6F0E284918F01EB
:1051C0000F5F1F4F882321F00E944E36F801F6CF63
:1051D000E8EDF5E084918F010F5F1F4F882321F0E8
:1051E0000E944E36F801F6CFC090D308D090D40874
:1051F000E090D508F090D60820E030E0A901C70182
:10520000B6010E949FDF18166CF0E3EDF5E0849183
:105210008F010F5F1F4F882309F4A3C20E944E36EF
:10522000F801F5CF42E0C701B6010E94E9398AE0F2
:105230000E944E3696C288E50E944D34B82E89E40D
:105240000E944D34A82E882319F00E94EA3324C00E
:10525000BB2021F10E941A342091BF083091C00870
:105260004091C1085091C2080E9478DD20E030E0F2
:1052700040E251E40E9478DD20E030E048E452E46E
:105280000E9479DD2AE037ED43E25CE30E94DDD93C
:105290000E94BDDE633010F4F62E02C0FF24FA94A3
:1052A00089E50E944D34E82E8AE40E944D34182F7F
:1052B000882319F00E94EA3324C0EE2021F10E94D5
:1052C0001A342091C3083091C4084091C508509108
:1052D000C6080E9478DD20E030E040E251E40E9400
:1052E00078DD20E030E048E452E40E9479DD2AE0F5
:1052F00037ED43E25CE30E94DDD90E94BDDE6330FE
:1053000010F4062F01C00FEF8AE50E944D34C82E1D
:10531000811105C081E50E944D34D82E01C0D12CE9
:10532000A11001C010E0212F30E0B11002C090E0C8
:1053300001C09E2D290F311D2130310519F0E1E109
:10534000FEE005C0C1101AC0D11018C0F8CF84917A
:105350008F010F5F1F4F882321F00E944E36F80106
:10536000F6CFE7E4F6E084918F010F5F1F4F8823AB
:1053700009F4F7C10E944E36F801F5CFF7FE03C0DD
:10538000E1E1FEE006C007FF17C0FACF0E944E36EB
:10539000F80184918F010F5F1F4F8111F7CFE8E271
:1053A000F6E084918F010F5F1F4F882309F4D9C164
:1053B0000E944E36F801F5CF0E941A34002E000CE0
:1053C000110BAF2DFF0CBB0BDD2091F0FD01EE0F9B
:1053D000FF1FEA0FFB1FE00FF11FEE0FFF1FEE0F85
:1053E000FF1FE656F74F208131814281538103C070
:1053F00020E030E0A901FD01EE0FFF1FEA0FFB1FC7
:10540000E00FF11FEE0FFF1FEE0FFF1F8F0106567B
:10541000174F0E9479DDD8016D937D938D939C93F6
:1054200013979FC18DE0C82E84E0D82E99E1E92E14
:1054300094E0F92E2CEC222E28E0322E00E010E031
:10544000F101EC5CF840FDA7ECA7D1018D911D01A5
:10545000882309F4A0C0F7014080518062807380E6
:10546000F801E659FD4F2081318142815381F801D5
:10547000EB56F64F60817181828193810E9479DDC4
:1054800020E030E040E05FE30E94DDD99B01AC0109
:10549000C301B2010E949FDF181644F4F801E554DD
:1054A000F94E85909590A590B49003C0812C912CD5
:1054B0005401F801E154F74F208131814281538139
:1054C000C301B2010E9478DD9B01AC01C501B401AA
:1054D0000E9478DD4B015C0120E030E040EA51ECB5
:1054E0000E949FDF87FD28C020E030E040EA51E4C1
:1054F000C501B4010E9478D91816F4F0D6012D9197
:105500003D914D915C91C501B4010E9478DD9B01F4
:10551000AC01C301B2010E9479DDF70160837183A0
:1055200082839383D6018D929D92AD92BC92139704
:105530008CA59DA5FDD62FC0E1E1FEE084918F01F1
:105540000F5F1F4F882321F00E944E36F801F6CFDF
:10555000E5E8F6E084918F010F5F1F4F882321F06B
:105560000E944E36F801F6CF61E087E796E00E9490
:10557000B6900E94E35688E290E09A83898388EC93
:1055800090E099A388A3BE016F5F7F4FCE01809604
:105590000E946655E6C0B4E0CB0ED11C0C5F1F4FD5
:1055A000E4E0EE0EF11C0C30110509F049CF93D761
:1055B0000E9459B560E087E696E00E94B69083E9C4
:1055C00092E099A388A304E610E01A830983BE0140
:1055D000605E7F4FCE0101960E9466558AEB92E095
:1055E00099A388A31A830983BE01605E7F4FCE0111
:1055F00001960E946655B5C084918F010F5F1F4FC1
:10560000882321F00E944E36F801F6CFE3EAF6E057
:1056100084918F010F5F1F4F882309F4A2C00E945D
:105620004E36F801F5CF0E94874480E00E94746AEC
:1056300098C00E94874495C083E50E944D3488231A
:1056400019F00E940B3401C081E091E089270E948B
:10565000746A87C0E1E1FEE084918F010F5F1F4F04
:10566000882321F00E944E36F801F6CFE4EBF6E0F5
:1056700084918F010F5F1F4F882309F472C00E942D
:105680004E36F801F5CF81E08093810210924006FA
:1056900083E50E944D34811103C00E94B5CA61C0E8
:1056A0000E940B3481115DC0F8CFF0908F03FF2072
:1056B00029F1E9E6F0E284918F010F5F1F4F882303
:1056C00021F00E944E36F801F6CF84E50E944E3656
:1056D0006F2D70E080E090E04AE00E94553680E255
:1056E0000E944E360AEE12E0D8018D918D0188237A
:1056F00011F40C9445220E944E36F6CF1092BE084B
:10570000E9E6F0E284918F010F5F1F4F882321F0BB
:105710000E944E36F801F6CF6091BE0870E083EC2F
:1057200096E00E946CA98AE00E944E361AC0E9E613
:10573000F0E284918F010F5F1F4F882321F00E94B8
:105740004E36F801F6CF609161097091620985EDDE
:1057500096E00E9485A982E20E944E368AE00E946D
:105760004E360E9496CA8AC44091860350918703A0
:10577000452B39F4AF0141505109509387034093B1
:10578000860340E050E00C9498140E94EA33AB0189
:10579000BC014093A0115093A1116093A21170938A
:1057A000A3118FEE90E10E94FF47DBCF0E941A34D5
:1057B0000E94BDDE70933C0660933B0680E00E9431
:1057C00091C20E941A3420E030E04AEA52E40E947A
:1057D00078D9181644F00E9456AA60E087E293E058
:1057E0000E94B69002C00E94B75560913B0670912E
:1057F0003C06072E000C880B990B0E947ED9209145
:1058000056083091570840915808509159080E9405
:105810009FDF1816B4F48FED92E09F938F938091E1
:10582000880390E001969F938F9380E293E09F938B
:105830008F931F920E949A550FB6F894DEBF0FBE49
:10584000CDBF0E94507A81E080937C0218AA19AAE9
:105850001AAA1BAA1CAA1DAA1EAA1FAA1CA61CAE15
:105860003CE321963FAF21974CE125964FAF25971A
:1058700056E429965FAF2997C12CD12C60E8E62E1B
:105880007FEBF72E812C912C540160913B06709197
:105890003C06072E000C880B990B0E947ED9162F10
:1058A000072F782E692E262F372F482F592FB60114
:1058B000C7010E9478D9882311F1209156083091B0
:1058C00057084091580850915908612F702F872D23
:1058D000962D0E9478D9881F8827881F8CA7C8AC6E
:1058E000CC2089F0882379F080917C02882309F408
:1058F00038CF60E08EE093E00E94B69032CF1C2D4E
:105900000D2D7E2C6F2C0E9492C06B017C01DC015E
:10591000CB012CA93DA94EA95FA9821B930BA40B17
:10592000B50BB7FD3BC0D701C60188519C4FAF4FA7
:10593000BF4F8CAB9DABAEABBFAB0E943076ECE102
:10594000F3E084912F019FEF491A590A882321F02F
:105950000E944E36F201F5CF81149104A104B104E6
:10596000B9F0D501C401805F984DAF4FBF4FBC0166
:10597000CD016C197D098E099F0928EE33E040E0C6
:1059800050E00E943DDDCA01B9010E94F73603C014
:105990008FE30E944E368AE00E944E360E94339872
:1059A0000E940535209056083090570840905808BE
:1059B000509059089101A201612F702F872D962DCB
:1059C0000E9478DD9F7781149104A104B10449F409
:1059D00020E030E040E85FE30E9478D987FF0BC009
:1059E00008C020E030E040E450E40E949FDF181639
:1059F00014F446015701ACA5AA23D9F128A939A965
:105A00004AA95BA9211531054105510541F0D7018E
:105A1000C601821B930BA40BB50BB7FD2AC09101E5
:105A2000A2016CAD21967FAD219725968FAD25976C
:105A300029969FAD29970E9478DD20E030E040EC68
:105A40005FE30E9478D987FD4FCFD701C601805A06
:105A50009541AF4FBF4F88AB99ABAAABBBAB2CAE58
:105A600021963FAE219725964FAE259729965FAE9A
:105A7000299780917C02882309F436CF8114910400
:105A8000A104B10429F4C12ED02EE72CF62CFDCEB2
:105A900090E1C91A97E2D90AE108F108C818D908B3
:105AA000EA08FB08F7FE20CFEECFC4D60E94BDDE89
:105AB0006F36710514F06EE670E070933A066093ED
:105AC00039060E9447C2B6D620E030E040EA50E4F2
:105AD0000E949FDF181614F40E94B75581E080934E
