:100000000C9476110C94A7110C94A7110C94A711C1
:100010000C94A7110C94A7110C94A7110C94A71180
:100020000C94A7110C94A7110C94A7110C94A71170
:100030000C94A7110C94A7110C94A7110C94A71160
:100040000C94A7110C94365B0C94A7110C94A71177
:100050000C94A7110C94A7110C949B530C94FFAA19
:100060000C94A7110C9417390C94A7110C94A71198
:100070000C94A7110C94A7110C94A7110C94A71120
:100080000C94A7110C94A7110C94A7110C94A71110
:100090000C94A7110C94A7110C94A7110C94A71100
:1000A0000C94A7110C94A7110C94A7110C94A711F0
:1000B0000C94A7110C94A7110C94A7110C94A711E0
:1000C0000C94A7110C94A7110C94A7110C94A711D0
:1000D0000C94A7110C94A7110C94A7110C94A711C0
:1000E0000C94A711C8A8CBA8BAA8BEA8C4A802A9F6
:1000F000CFA8D3A8D9A8DDA8E1A8E7A8EBA8EFA8C6
:1001000002A9F5A8F9A8FDA81BAA20AA25AA2FAA2A
:1001100039AAB2AA43AA4BAA53AA5DAA67AA71AA8E
:1001200080AA8AAAB2AA94AA9EAAA8AA084AD73BD9
:100130003BCE016E84BCBFFDC12F3D6C74319ABDB6
:1001400056833DDA3D00C77F11BED9E4BB4C3E91DA
:100150006BAAAABE000000803F05A84CCDB2D44EC9
:10016000B93836A9020C50B9918688083CA6AAAACB
:100170002ABE000000803F004E414E494E4954596E
:10018000494E46CDCCCC3D0AD7233C17B7D1387762
:10019000CC2B329595E6241FB14F0A000020410078
:1001A00000C84200401C4620BCBE4CCA1B0E5AAEC2
:1001B000C59D74434F4D4D554E49434154494F4E93
:1001C0000044525952554E004552524F5253004925
:1001D0004E464F004543484F0020746F6F206C6FB0
:1001E0006E6720657874727573696F6E20707265C2
:1001F00076656E7465640A0020636F6C64206578B0
:1002000074727573696F6E2070726576656E746551
:10021000640A0047322F47332062616420706172A4
:10022000616D65746572730A00536C6565702E2E7E
:100230002E00416E7963756269632069332B2072E9
:10024000656164792E00526573756D696E67207003
:1002500072696E7400436C69636B20746F20726501
:1002600073756D652E2E2E00456E642066696C6573
:10027000206C6973740A00426567696E2066696C58
:1002800065206C6973740A005344207072696E743F
:10029000696E67206279746520004E6F7420534444
:1002A000207072696E74696E670A0046696C652019
:1002B00064656C657465643A0044656C6574696F67
:1002C0006E206661696C65642C2046696C653A2015
:1002D000006F70656E206661696C65642C204669EC
:1002E0006C653A20002569730025696D20256973C6
:1002F000002569682025696D2025697300256964DA
:10030000202569682025696D202569730025697994
:1003100020256964202569682025696D2025697379
:10032000005072696E742074696D653A2000000196
:1003300036372603FF3C3D380EFF2E303E12FFFFBE
:100340000C0809FFFF071A1C18FFFF08440AFF43A7
:1003500024221EFFFFFFFFFFFF50726F746563745E
:1003600065642050696E0A004525692025730041A7
:100370006E7963756269632069332B2072656164ED
:10038000792E00D401CF01C801C101B3016F6666A7
:100390000044454255473A004B494C4C45442E20B9
:1003A000006F6B0048656174696E6720646F6E65ED
:1003B0002E0020573A0045256920257300416E79AB
:1003C00063756269632069332B2072656164792EDD
:1003D0000042656420646F6E652E0020573A00422B
:1003E00065642048656174696E672E00416E7963AB
:1003F000756269632069332B204F66662E0046497B
:10040000524D574152455F4E414D453A4D61726CD8
:10041000696E20312E312E34202847697468756248
:100420002920534F555243455F434F44455F555232
:100430004C3A68747470733A2F2F676974687562E8
:100440002E636F6D2F4D61726C696E4669726D77A8
:100450006172652F4D61726C696E2050524F544F1E
:10046000434F4C5F56455253494F4E3A312E302040
:100470004D414348494E455F545950453A416E7984
:1004800063756269632069332B2045585452554483
:1004900045525F434F554E543A3120555549443AE1
:1004A00063656465326132662D343161322D3437D3
:1004B00034382D396231322D633535633632663347
:1004C000363766660A007A5F6D696E3A2000795F9A
:1004D0006D696E3A2000785F6D696E3A2000526552
:1004E000706F7274696E6720656E6473746F7020CC
:1004F0007374617475730A004D31343520533C694F
:100500006E6465783E206F7574206F662072616E30
:1005100067652028302D31290A0053657474696E8F
:10052000672054726176656C20416363656C657207
:100530006174696F6E3A200053657474696E672048
:100540005265747261637420416363656C657261A6
:1005500074696F6E3A200053657474696E67205039
:1005600072696E7420416363656C65726174696F52
:100570006E3A200053657474696E67205072696E1C
:100580007420616E642054726176656C20416363EF
:10059000656C65726174696F6E3A2000205A0020A4
:1005A0005900580020204D61783A2000205A002040
:1005B0005900580020204D696E3A20004F6E2000EF
:1005C0004F666600536F667420656E6473746F7057
:1005D000733A200020643A0020693A0020703A0003
:1005E00043290A0061626C656420286D696E20747D
:1005F000656D702000436F6C64206578747275645B
:10060000657320617265200023646566696E6520EC
:100610002044454641554C545F4B6420002364659B
:1006200066696E65202044454641554C545F4B69D0
:10063000200023646566696E652020444546415567
:100640004C545F4B702000504944204175746F74C6
:10065000756E652066696E697368656421205075E2
:100660007420746865206C617374204B702C204B6F
:100670006920616E64204B6420636F6E7374616ED9
:1006800074732066726F6D2062656C6F7720696E7F
:10069000746F20436F6E66696775726174696F6EFF
:1006A0002E680A00504944204175746F74756E6558
:1006B000206661696C6564212074696D656F75746D
:1006C0000A00504944204175746F74756E65206648
:1006D00061696C6564212054656D70657261747523
:1006E000726520746F6F20686967680A00204B6428
:1006F0003A2000204B693A2000204B703A20000A33
:1007000020436C617373696320504944200A0020C0
:1007100054753A2000204B753A2000206D61783ADC
:100720002000206D696E3A200020643A200020628B
:100730006961733A20004F66667365747320617057
:10074000706C696564004572723A20546F6F206660
:1007500061722100546F6F206661722066726F6D46
:10076000207265666572656E636520706F696E7470
:100770000A00454550524F4D2064697361626C65B3
:10078000640A004E6F2063617365206C696768744A
:100790000A004163746976652045787472756465F2
:1007A000723A2000556E6B6E6F776E20636F6D6DC1
:1007B000616E643A2022004E6F204C696E65204EB7
:1007C000756D626572207769746820636865636B14
:1007D00073756D2C204C617374204C696E653A20E2
:1007E000004B494C4C45442E200053544F5050452B
:1007F000442E20005072696E7465722073746F709D
:100800007065642064756520746F206572726F7204
:10081000732E2046697820746865206572726F7245
:1008200020616E6420757365204D39393920746FED
:1008300020726573746172742E202854656D706522
:100840007261747572652069732072657365742EA8
:100850002053657420697420616674657220726526
:100860007374617274696E67290A004E6F20436861
:1008700065636B73756D2077697468206C696E654C
:10088000206E756D6265722C204C617374204C690A
:100890006E653A2000636865636B73756D206D69E2
:1008A000736D617463682C204C617374204C696EA5
:1008B000653A20004C696E65204E756D6265722048
:1008C0006973206E6F74204C617374204C696E657F
:1008D000204E756D6265722B312C204C6173742033
:1008E0004C696E653A20004D313130004D33310096
:1008F0004D383420582059205A2045005344207246
:10090000656164206572726F720A00446F6E6520C3
:100910007072696E74696E672066696C650A002082
:10092000496E76616C69642065787472756465726D
:100930002000000000000000000000000000000097
:100940005C4300005C4300007A434E6F206D6F767D
:10095000652E00202F002042403A0020403A00201F
:100960005A3A0020593A0020436F756E7420583A65
:100970000020453A00205A3A0020593A00583A00DF
:100980002F2F200000004842000048420000804015
:100990000000000053442063617264206F6B0A0002
:1009A0006F70656E526F6F74206661696C65640A62
:1009B00000766F6C756D652E696E6974206661696D
:1009C0006C65640A00534420696E6974206661692D
:1009D0006C0A006175746F25692E67004D32340012
:1009E0004D32332025730057726974696E67207425
:1009F0006F2066696C653A20006F70656E206661D5
:100A0000696C65642C2046696C653A20006F7065DE
:100A10006E206661696C65642C2046696C653A20BD
:100A20000046696C652073656C65637465640A00D3
:100A30002053697A653A200046696C65206F7065BD
:100A40006E65643A20006F70656E206661696C6542
:100A5000642C2046696C653A20002066696C653A12
:100A600020004E6F7720002220706F7300222070CC
:100A70006172656E743A2200535542524F55544983
:100A80004E452043414C4C207461726765743A2294
:100A9000004B494C4C45442E2000747279696E67B6
:100AA00020746F2063616C6C207375622D67636FB7
:100AB00064652066696C6573207769746820746F5B
:100AC0006F206D616E79206C6576656C732E204D9C
:100AD0004158206C6576656C2069733A00457272E6
:100AE0006F723A004B494C4C45442E2000202D207B
:100AF000496E76616C69642065787472756465729C
:100B0000206E756D62657220210A002D2D2D2D2D10
:100B10002D007C4D61726C696E7C002D2D2D2D2D6C
:100B20002D00687474703A2F2F6D61726C696E6657
:100B3000772E6F726700687474703A2F2F6D617230
:100B40006C696E66772E6F72670020312E312E34FD
:100B50000000000000010204040000001C1C0C0442
:100B6000040402010000000000040810000000005E
:100B7000002020506C616E6E65724275666665720B
:100B800042797465733A20002046726565204D6590
:100B90006D6F72793A2000436F6D70696C65643ACD
:100BA000204A616E20313820323031390A00207CF1
:100BB00020417574686F723A20546F6269617320C6
:100BC00052656974686D656965720A003230313743
:100BD0002D30372D30342031323A303000204C6106
:100BE000737420557064617465643A2000312E314D
:100BF0002E340A004D61726C696E0020536F66746A
:100C0000776172652052657365740A0020576174BC
:100C10006368646F672052657365740A00204272CE
:100C20006F776E206F75742052657365740A0020AB
:100C300045787465726E616C2052657365740A0044
:100C4000506F77657255700A0073746172740A0090
:100C50006572726F722077726974696E6720746F43
:100C60002066696C650A00456E6473746F7073204A
:100C7000256320256320256320256300205A3A0040
:100C800020593A0020583A00656E6473746F70738F
:100C9000206869743A2000446F6E6520736176693C
:100CA0006E672066696C652E0A004D3239005072FD
:100CB00065686561742041425320636F6E66005021
:100CC00072656865617420504C4120636F6E6600E8
:100CD0005049442D44005049442D44005049442D6E
:100CE00049005049442D49005049442D5000504975
:100CF000442D5000200220466163740020022046EB
:100D0000616374002002204D6178002002204D6153
:100D100078002002204D6178002002204D696E008D
:100D20002002204D696E002002204D696E004F6642
:100D300066004F6E20004175746F74656D700046DB
:100D4000616E2073706565640046616E2073706526
:100D500065640046616E2073706565640042656479
:100D600000426564004E6F7A7A6C65004E6F7A7A45
:100D70006C6500436F6E74726F6C00426564004274
:100D8000656400426564004E6F7A7A6C65004E6F50
:100D90007A7A6C65004E6F7A7A6C650046616E20D7
:100DA00073706565640046616E20737065656400EC
:100DB00046616E2073706565640054656D70657280
:100DC0006174757265005654726176206D696E00AB
:100DD0005654726176206D696E00565472617620A9
:100DE0006D696E00566D696E00566D696E00566DC8
:100DF000696E00566D6178204500566D617820451A
:100E000000566D6178204500566D6178205A005675
:100E10006D6178205A00566D6178205A00566D61D8
:100E200078205900566D6178205900566D61782000
:100E30005900566D6178205800566D617820580031
:100E4000566D61782058004D6F74696F6E00416D6A
:100E50006178204500416D6178204500416D6178E1
:100E6000205A00416D6178205A00416D6178205907
:100E700000416D6178205900416D61782058004132
:100E80006D6178205800412D74726176656C004167
:100E90002D74726176656C00412D726574726163A8
:100EA0007400412D726574726163740041636365FF
:100EB0006C00416363656C004D6F74696F6E007008
:100EC000012C0190012701B0012201C0011D01F098
:100ED0000118011002130130020E01600209019095
:100EE000020401C002FF000003FA004003F5008085
:100EF00003F000D003EB002004E6007004E100E002
:100F000004DC004005D700C005D2004006CD00D06B
:100F100006C8008007C3003008BE00F008B900C052
:100F200009B400B00AAF00B00BAA00D00CA50000B5
:100F30000EA000500F9B00C01096005012910000B0
:100F4000148C00C0158700B0178200B0197D00D046
:100F50001B7800001E730040206E0090226900F094
:100F600024640040275F0090295A00E02B550010B0
:100F70002E500020304B0010324600E033410090EC
:100F8000353C001037370070383200A0392D00B0E2
:100F90003A2800A03B2300603C1E00103D19009041
:100FA0003D1400103E0F00703E0A00C03E050000D8
:100FB0003F0000403FFBFF803FF6FFC03FF1FF5482
:100FC0004845524D414C2052554E415741590054CD
:100FD0006865726D616C2052756E6177617900454C
:100FE00072723A204D494E54454D502042454400BE
:100FF0004572723A204D494E54454D50004D494E70
:1010000054454D5020747269676765726564004588
:1010100072723A204D415854454D5020424544008B
:101020004572723A204D415854454D50004D41583B
:1010300054454D502074726967676572656400009D
:101040001C1F11111F00000006191803130C0004C7
:101050000E1F041C000000000E1315110E00001CD2
:1010600010181705060500040A0A0A0A11110E0CC9
:1010700012120C00000000001F1511151F000025A2
:10108000753A2530327500253032753A2530327583
:10109000002D2D2D005344005A005900580024F40F
:1010A000D43050C38E20C2A24017828B7011127AA6
:1010B000910D816CD90AA861E108C7586607615192
:1010C00043061E4B5D05C145A7041A411104093DA5
:1010D0009803713931034036DB0265339102D43015
:1010E0005402802E1D02632CEE01752AC501B02822
:1010F000A001102781018F2564012B244B01E022E0
:101100003401AC211F018D200D01801FFC00841EC5
:10111000ED00971DDF00B81CD200E61BC600201BA7
:10112000BC00641AB200B219A8000A19A0006A181B
:101130009900D117910040178B00B5168400311625
:101140007E00B31579003A157300C7146F00581468
:101150006A00EE1366008813630025135E00C71251
:101160005B006C12570015125400C1115100701130
:101170004F0021114B00D61049008D10470046103A
:10118000440002104200C00F4000800F3E00420F9A
:101190003C00060F3B00CB0E3800930E37005C0E70
:1011A0003500270E3400F30D3200C10D3100900DD3
:1011B0003000600D2E00320D2D00050D2C00D90CD5
:1011C0002B00AE0C2900850C29005C0C2700350C87
:1011D00027000E0C2600E80B2400C40B2400A00BF3
:1011E00023007D0B23005A0B2100390B2100180B23
:1011F0002000F80A1F00D90A1E00BB0A1E009D0A23
:101200001D00800A1D00630A1C00470A1B002C0AEF
:101210001B00110A1A00F7091A00DD091900C40998
:101220001900AB091900920917007B09180063091E
:1012300017004C09160036091600200916000A0985
:101240001500F5081500E0081400CC081400B808D3
:101250001400A4081400900813007D0812006B0805
:101260001300580812004608120034081100230821
:1012700011001208110001081100F0071000E0072A
:101280001000D0071000C0071000B0070F00A10722
:10129000100091070E0083070F0074070F00650709
:1012A0000E0057070E0049070E003B070D002E07E2
:1012B0000E0020070D0013070D0006070D00F906AC
:1012C0000C00ED060D00E0060C00D4060C00C8066C
:1012D0000C00BC060C00B0060C00A4060B0099061E
:1012E0000C008D060B0082060B0077060B006C06C7
:1012F0000B0061060A0057060B004C060A00420666
:101300000A0038060A002E060A0024060A001A06F9
:101310000A001006090007060A00FD050900F40589
:101320000900EB050900E2050900D9050900D0050F
:101330000900C7050900BE050900B5050800AD058F
:101340000800A50509009C050800940508008C0507
:101350000800840508007C050800740508006C0579
:101360000700650508005D050700560508004E05E5
:10137000070047050700400508003805070031054C
:1013800007002A050700230507001C0506001605AF
:1013900007000F0507000805060002050700FB040B
:1013A0000600F5040700EE040600E8040600E20467
:1013B0000700DB040600D5040600CF040600C904BC
:1013C0000600C3040600BD040600B7040600B1040D
:1013D0000500AC040600A6040600A00405009B045A
:1013E000060095040500900406008A0405008504A3
:1013F0000500800406007A040500750405007004E9
:1014000005006B04050066040500610405005C042A
:10141000050057040500520405004D04050048046A
:101420000500430405003E0404003A0405003504A9
:101430000500300404002C040500270404002304E4
:1014400005001E0404001A0404001604050011041B
:1014500004000D0404000904050004040400000451
:101460000400FC030400F8030400F4030400F00388
:101470000400EC030400E8030400E4030400E003B8
:101480000400DC030400D8030400D4030400D003E8
:101490000400CC030400C8030300C503030024F4C4
:1014A00004D9201BC40C5C0E9804C4095F026507B4
:1014B0007101F405F900FB04B30048048700C1037F
:1014C00069005803550003034500BE023A00840238
:1014D000310053022A002902250004022000E40101
:1014E0001C00C8011900AF01170098011400840105
:1014F0001300710110006101100051010E00430141
:101500000D0036010B002B010B0020010B00150113
:1015100009000C01090003010800FB000800F300AA
:101520000800EB000700E4000600DE000600D8001B
:101530000600D2000600CC000500C7000500C2006E
:101540000500BD000400B9000400B5000400B100AE
:101550000400AD000400A9000400A5000300A200DF
:1015600003009F0004009B00030098000300950007
:10157000020093000300900003008D0002008B0026
:10158000030088000200860002008400030081003E
:1015900002007F0002007D0002007B000200790053
:1015A0000200770001007600020074000200720061
:1015B0000100710002006F0002006D0001006C006C
:1015C00002006A0001006900020067000100660075
:1015D000010065000100640002006200010061007A
:1015E0000100600001005F0002005D0001005C007E
:1015F00001005B0001005A00010059000100580081
:101600000100570001005600010055000100540080
:10161000010053000000530001005200010051007E
:101620000100500001004F0001004E0000004E007C
:1016300001004D0001004C0001004B0000004B0078
:1016400001004A0001004900010048000000480074
:10165000010047000100460000004600010045006F
:101660000000450001004400010043000000430069
:101670000100420000004200010041000000410062
:101680000100400001003F0000003F0001003E005B
:1016900000003E0001003D0000003D0001003C0054
:1016A00000003C0000003C0001003B0000003B004B
:1016B00001003A0000003A00010039000000390042
:1016C0000100380000003800000038000100370039
:1016D0000000370001003600000036000000360030
:1016E0000100350000003500000035000100340025
:1016F000000034000000340001003300000033001B
:10170000000033000100320000003200000032000F
:101710000100310000003100000031000100300004
:10172000000030000000300001002F0000002F00FA
:1017300000002F0000002F0001002E0000002E00EE
:1017400000002E0001002D0000002D0000002D00E3
:1017500000002D0001002C0000002C0000002C00D7
:1017600000002C0001002B0000002B0000002B00CB
:1017700000002B0001002A0000002A0000002A00BF
:1017800000002A00010029000000290000002900B3
:1017900000002900000029000100280000002800A6
:1017A0000000280000002800000028000100270099
:1017B000000027000000270000002700000027008D
:1017C0000100260000002600000026000000260080
:1017D0000000260001002500000025000000250073
:1017E0000000250000002500000025000100240065
:1017F0000000240000002400000024000000240059
:10180000010023000000230000002300000023004B
:10181000000023000000230000002300010022003C
:101820000000220000002200000022000000220030
:101830000000220001002100000021000000210022
:101840000000210000002100000021000000210014
:101850000100200000002000000020000000200007
:1018600000002000000020000000200000002000F8
:1018700001001F0000001F0000001F0000001F00EB
:1018800000001F0000001F0000001F0001001E00DC
:1018900000001E0000001E0000001E0000004D3869
:1018A0003420582059205A2045006265640A002CD3
:1018B0002073797374656D2073746F707065642123
:1018C000204865617465725F49443A20004865614B
:1018D00074696E67206661696C656400486561744F
:1018E000696E67206661696C65640048656174694A
:1018F0006E67206661696C65640048656174696E35
:1019000067206661696C65640048617264636F6436
:1019100065642044656661756C74205365747469F0
:101920006E6773204C6F616465640A00B80B000039
:10193000B80B0000320000001027000000009643A2
:10194000000096430000C0400000C8410000A042D3
:101950000000A0420000C8433333B94220440020B5
:10196000490020204D33303120500050494420732D
:10197000657474696E67733A0A002046002042005D
:1019800020480020204D3134352053004D617465CE
:101990007269616C20686561747570207061726134
:1019A0006D65746572733A0A00205A002059002050
:1019B000204D323036205800486F6D65206F6666C6
:1019C0007365743A0A00204500205A00205900200F
:1019D000580020420020540020204D323035205342
:1019E00000416476616E6365643A20533C6D696EB4
:1019F0005F66656564726174653E20543C6D696E16
:101A00005F74726176656C5F66656564726174654A
:101A10003E20423C6D696E5F7365676D656E745FF5
:101A200074696D655F6D733E20583C6D61785F78B9
:101A3000795F6A65726B3E205A3C6D61785F7A5FB0
:101A40006A65726B3E20453C6D61785F655F6A65D3
:101A5000726B3E0A0020540020520020204D32308C
:101A600034205000416363656C65726174696F6E08
:101A70002028756E6974732F7332293A20503C7098
:101A800072696E745F616363656C3E20523C72657F
:101A900074726163745F616363656C3E20543C746F
:101AA000726176656C5F616363656C3E0A00204518
:101AB00000205A0020590020204D3230312058009B
:101AC0004D6178696D756D20416363656C65726108
:101AD00074696F6E2028756E6974732F7332293A9A
:101AE0000A00204500205A0020590020204D3230A5
:101AF000332058004D6178696D756D2066656564A9
:101B000072617465732028756E6974732F73293A36
:101B10000A00204500205A0020590020204D39326B
:101B200020580053746570732070657220756E695B
:101B3000743A0A0020204D3230302044300A002010
:101B4000204D3230302044002044697361626C655E
:101B5000640A0046696C616D656E74207365747407
:101B6000696E67733A0020204D3134392043203BA1
:101B700020556E69747320696E2043656C736975B6
:101B8000730A002020473231202020203B20556E50
:101B900069747320696E206D6D0A00507265686506
:101BA00061742041425320456E640050726568653F
:101BB0006174204142530050726568656174204130
:101BC0004253204265640050726570617265004D39
:101BD000343238005072656865617420504C4100A1
:101BE000436F6F6C646F776E0050726568656174E7
:101BF000204142530044697361626C6520737465CF
:101C00007070657273004D38340053657420686FCE
:101C10006D65206F666673657473004175746F201F
:101C2000686F6D6500473238004D6F7665206178CA
:101C30006973004D61696E004D6F76652058004DE7
:101C40006F76652059004D6F7665205A004578748F
:101C50007275646572004D6F766520302E316D6D42
:101C6000004D6F766520316D6D004D6F76652031CA
:101C7000306D6D004D6F7665206178697300457831
:101C8000747275646572004D6F7665205A004D6FF1
:101C900076652059004D6F7665205800457874723E
:101CA00075646572004D6F7665205A004D6F7665DC
:101CB0002059004D6F766520580050726570617232
:101CC0006500526573746F7265206661696C73613B
:101CD00066650046696C616D656E74004D6F746970
:101CE0006F6E0054656D7065726174757265004D3C
:101CF00061696E007C3C3E5E2B3D3F2F5B5D3B2C63
:101D00002A225C0056652D6A65726B0056652D6A45
:101D100065726B0056652D6A65726B00567A2D6A86
:101D200065726B00567A2D6A65726B0056792D6A62
:101D300065726B0056792D6A65726B0056792D6A53
:101D400065726B0056782D6A65726B0056782D6A45
:101D500065726B0056782D6A65726B004D6F746901
:101D60006F6E004573746570732F6D6D00457374ED
:101D70006570732F6D6D005A73746570732F6D6D80
:101D8000005A73746570732F6D6D005973746570AC
:101D9000732F6D6D005973746570732F6D6D0058DE
:101DA00073746570732F6D6D005873746570732F45
:101DB0006D6D004D6F74696F6E0053746570732F95
:101DC0006D6D004A65726B00416363656C6572619D
:101DD00074696F6E0056656C6F6369747900436F48
:101DE0006E74726F6C0046696C2E204469612E001F
:101DF00046696C2E204469612E004F6666004F6E66
:101E000020004520696E206D6D3300436F6E747243
:101E10006F6C0043616E6E6F7420656E7465722026
:101E20007375626469723A2000052E2E004D616957
:101E30006E0043616E6E6F74206F70656E207375F7
:101E40006264697220006563686F3A004D617820B2
:101E500054656D703A20313530004D696E205465FF
:101E60006D703A203500544265643A4550434F53F3
:101E7000203130304B004D61782054656D703A2030
:101E8000323735004D696E2054656D703A2035004B
:101E900054303A204550434F53203130304B00509E
:101EA0006F77657220537570706C793A2047656E54
:101EB000657269630050726F746F636F6C3A2031A2
:101EC0002E3000426175643A2032353030303000B7
:101ED00052414D505320312E330045787472756451
:101EE0006572733A203100687474703A2F2F6D61F7
:101EF000726C696E66772E6F726700416E796375DA
:101F00006269632069332B00323031372D30372D31
:101F100030342031323A303000312E312E34004D01
:101F200061726C696E00546865726D6973746F726A
:101F30007300426F61726420496E666F005072696F
:101F40006E74657220496E666F004D61696E004364
:101F50006172642072656D6F7665640043617264BE
:101F600020696E7365727465640020746F6F206CF5
:101F70006F6E6720657874727573696F6E2070720A
:101F80006576656E7465640A0020636F6C64206515
:101F90007874727573696F6E2070726576656E7491
:101FA00065640A005072696E7420706175736564AF
:101FB00000005072696E742061626F727465640013
:101FC0004E6F2053442063617264005072696E74D6
:101FD0002066726F6D2053440053746F70207072CE
:101FE000696E740041626F7574205072696E746519
:101FF0007200526573756D65207072696E74005061
:1020000061757365207072696E7400436F6E7472CF
:102010006F6C00507265706172650054756E65007A
:10202000496E666F2073637265656E00466C6F77EC
:1020300000466C6F7700466C6F770046616E2073C8
:10204000706565640046616E207370656564004666
:10205000616E20737065656400426564004265646A
:10206000004E6F7A7A6C65004E6F7A7A6C65005319
:1020700070656564005370656564005370656564E0
:10208000004D61696E005072656865617420504C46
:102090004120456E64005072656865617420504C43
:1020A00041005072656865617420504C4120426562
:1020B00064005072657061726500000021002400A8
:1020C00027002A002D003000330001010000040128
:1020D00007010A0100002200250028002B002E0025
:1020E0003100340002010000050108010B0100006D
:1020F00020002300260029002C002F0032000001C0
:10210000000003010601090105050505070508088A
:102110000808020202020A0A080804040404010171
:102120000101010101010303030303030303040786
:1021300007070C0C0C0C0C0C0C0C0202020206061D
:102140000606060606060B0B0B0B0B0B0B0B010210
:1021500010202008081020401020408002010201B9
:102160000804020101020408102040808040201071
:1021700008040201800402018040201008040201CA
:102180000804020101020408102040800102040832
:102190001020408000000A0B02090C0D0E080703F6
:1021A000040100000000000000000000000000002A
:1021B000000000000000000000000000000000001F
:1021C00012111000000000000000000000000000DC
:1021D00000000000000000000000526573656E649E
:1021E0003A20006F6B004B494C4C45442E20004B6D
:1021F000494C4C20636175736564206279204B49BA
:102200004C4C20627574746F6E2F70696E0A004BAF
:10221000494C4C45442E20004B494C4C2063617581
:1022200073656420627920746F6F206D7563682018
:10223000696E6163746976652074696D65202D200F
:1022400063757272656E7420636F6D6D616E643A52
:102250002000506C65617365207265736574005071
:1022600052494E5445522048414C54454400507206
:10227000696E7465722068616C7465642E206B6988
:102280006C6C28292063616C6C6564210A00656EA2
:102290007175657565696E67202200000000000099
:1022A000000000000000005761726E696E673A20FE
:1022B000486F6D696E672042756D7020446976695C
:1022C000736F72203C20310A000202030000A0401C
:1022D0000000A0400000004000005C4300005C43A0
:1022E00000007A43FFFFFF0096B602BB11241FBE19
:1022F000CFEFD1E2DEBFCDBF00E00CBF13E0A0E026
:10230000B2E0E4EDFEE801E00BBF02C007900D92E1
:10231000AA36B107D9F722E1AAE6B3E001C01D92BF
:10232000A534B207E1F711E1C5E7D1E100E006C04D
:1023300021970109802FFE010E94CDC6C437D10725
:1023400080E00807A9F70E9483B10C9459C70C9448
:1023500000002F923F924F925F926F927F928F92E6
:102360009F92AF92BF92CF92DF92EF92FF920F9324
:102370001F93CF93DF93CDB7DEB7CF58D1090FB6F8
:10238000F894DEBF0FBECDBF0091440820E6029F47
:10239000800111240C53194F80916E1180FF1AC0D7
:1023A000E6E4FEE184917F013FEFE31AF30A811135
:1023B00002C0780104C00E94A433F701F3CFD70113
:1023C0008D917D01882319F00E94A433F8CF8AE013
:1023D0000E94A43310928903109288038FE38093A4
:1023E000930310929203109291031092840310921F
:1023F00085031092860310928703F80180810F5F96
:102400001F4F8032D1F38E34B1F4818190ED980F5B
:102410009A3020F08D3211F08B3269F43296DF0160
:1024200031962C9120532A30D0F3CD01FC01019636
:1024300020812032D9F3F0930812E09307127F0134
:10244000BFEFEB1AFB0A10816AE270E0C7010E943D
:1024500021C7009731F0FC01319780818032E1F390
:1024600011821D3429F0143519F0173409F0CCC04D
:10247000F70180812FEFE21AF20A8032C9F380530C
:102480008A3008F0C1C010939303209191033091DA
:1024900092034AE03196429FC001439F900D112460
:1024A000DF0111972C91022E000C330B20533109C0
:1024B000280F391F808180538A3060F33093920354
:1024C00020939103CF013196DC014C914032D1F33E
:1024D0001D34D1F42E31310591F03CF42731310512
:1024E00071F02C31310581F40AC02537310564F0D3
:1024F0002737310524F0203AE3E03E0729F4909392
:1025000089038093880380C0109289031092880306
:102510000091071261E070E0FD0131968C918823F3
:1025200009F472C08132A1F41D3491F420323105D6
:1025300079F4F0938903E093880363E270E0CF01BC
:102540000E9421C7009709F45FC0DC011C925CC0A7
:102550009FEBD92ED80E49E1C42ECD14C0F1AF01A6
:10256000FA0190814F5F5F4F9032D1F340ED490FF8
:102570004A3040F043ED490F423020F09B3211F0D9
:102580000C940D2AAF01AD2CB12C7501B3E0F5947C
:10259000E794BA95E1F7C7018C579C4F7C018D2DCC
:1025A0008770DB0102C0AA0FBB1F8A95E2F7CD013D
:1025B000D7019C91892B8C934115510511F0401B3B
:1025C00001C040E0D501A659BC4F4C930AC0809190
:1025D000880390918903892B21F4B0938903A093F8
:1025E0008803808181548A3110F4DF0195CFDF01A7
:1025F00031969C9190539A30D0F3CD01FC01019615
:1026000040814032D9F3F1CF809193038D3409F4A6
:1026100056C7843511F40C94AF29873411F00C940B
:10262000F02980919103909192038430910509F4EF
:1026300072C65CF497FF02C00C940A2A20916E02C5
:10264000823091050CF00CC117C08A35910509F450
:10265000A8C644F44C9711F00C940A2A0E945840E2
:102660000C940A2A8B35910509F49FC68C35910587
:1026700009F4A0C60C940A2A222311F40C940A2A05
:102680000E94243380917B02882321F08DE294E024
:102690000E94DE7D0E94993380916E1183FD8FC070
:1026A000C0903904D0903A04E0903B04F0903C0490
:1026B000209165043091660440916704509168044C
:1026C000C701B6010E94C5BF882309F478C0809174
:1026D0006911811138C06091820270918302072EC6
:1026E000000C880B990B0E94CBBF9B01AC01609141
:1026F000A3087091A4088091A5089091A6080E9453
:10270000C5BF87FF20C0C0926504D0926604E092E6
:102710006704F0926804E6E4FEE184918F010F5FA4
:102720001F4F882321F00E94A433F801F6CFE8EF71
:10273000F1E084918F010F5F1F4F882321F00E94E9
:10274000A433F801F6CFC0903904D0903A04E09059
:102750003B04F0903C042091650430916604409164
:10276000670450916804C701B6010E94C5C320E008
:1027700030E048E453E40E94ECC5181604F5C0921A
:102780006504D0926604E0926704F0926804E6E47F
:10279000FEE184918F010F5F1F4F882321F00E947B
:1027A000A433F801F6CFE9EDF1E084918F010F5FDA
:1027B0001F4F882321F00E94A433F801F6CF209107
:1027C0002D0430912E0440912F04509130046091DB
:1027D000590470915A0480915B0490915C040E94AA
:1027E000C5BF81111DC02091310430913204409148
:1027F00033045091340460915D0470915E048091C3
:102800005F04909160040E94C5BF811109C060916E
:1028100004027091050280910602909107021AC08D
:102820006091020270910302072E000C880B990B35
:102830000E94CBBF20910402309105024091060214
:10284000509107020E942AC02AE037ED43E25CE380
:102850000E942AC00E94932F0E94892F0C940A2A5A
:10286000222311F40C940A2A11E0029709F010E0D7
:102870000E94243382E50E94A432882309F452C1C5
:102880000E94A7316B017C014090590450905A047A
:1028900060905B0470905C0420915D0430915E0454
:1028A00040915F04509160042BAF3CAF4DAF5EAFE1
:1028B00080912D0490912E04A0912F04B0913004AA
:1028C00023968CAF9DAFAEAFBFAF2397209131045D
:1028D0003091320440913304509134042B962CAF44
:1028E0003DAF4EAF5FAF2B9720E030E0A901C701AD
:1028F000B6010E94C5BF882309F4F3C4A301920165
:1029000023966CAD7DAD8EAD9FAD23970E94C5BF64
:1029100081110FC02BAD3CAD4DAD5EAD2B966CADB6
:102920007DAD8EAD9FAD2B970E94C5BF882309F466
:10293000D8C420E030E0A901C701B6010E94C5BF9C
:10294000881F8827881F18130BC080E090E0A0E83C
:10295000BFE367968CAF9DAFAEAFBFAF67970AC0BE
:1029600020E030E040E85FEB67962CAF3DAF4EAF24
:102970005FAF6797A301920123966CAD7DAD8EADDD
:102980009FAD23970E94C5C32F966CAF7DAF8EAFCE
:102990009FAF2F972BAD3CAD4DAD5EAD2B966CAD83
:1029A0007DAD8EAD9FAD2B970E94C5C363966CAF76
:1029B0007DAF8EAF9FAF63972F962CAD3DAD4EADE3
:1029C0005FAD2F97CA01B9010E942AC04B015C017B
:1029D00063962CAD3DAD4EAD5FAD6397CA01B901B5
:1029E0000E942AC09B01AC01C501B4010E94C6C36C
:1029F0000E9431C627966CAF7DAF8EAF9FAF2797F1
:102A000020E030E040E05FE30E942AC04B015C011F
:102A1000A7019601C701B6010E942AC06B017C0183
:102A2000A5019401C501B4010E942AC09B01AC011B
:102A3000C701B6010E94C5C30E9431C69B01AC010B
:102A400067966CAD7DAD8EAD9FAD67970E942AC035
:102A50004B015C0123962CAD3DAD4EAD5FAD239790
:102A6000C301B2010E94C6C320E030E040E05FE352
:102A70000E942AC06B017C0163966CAD7DAD8EAD6A
:102A80009FAD6397905827962CAD3DAD4EAD5FAD91
:102A900027970E94A2C49B01AC01C501B4010E940A
:102AA0002AC09B01AC01C701B6010E94C6C3A301A5
:102AB00092010E94C5C36B017C012B962CAD3DADEC
:102AC0004EAD5FAD2B976BAD7CAD8DAD9EAD0E94D5
:102AD000C6C320E030E040E05FE30E942AC02B0143
:102AE0003C0127962CAD3DAD4EAD5FAD27972F969F
:102AF0006CAD7DAD8EAD9FAD2F970E94A2C49B01A2
:102B0000AC01C501B4010E942AC09B01AC01C30104
:102B1000B2010E94C6C32BAD3CAD4DAD5EAD0E946F
:102B2000C5C314C089E40E94A432882329F00E94FE
:102B3000A7316B017C0103C0C12CD12C76018AE442
:102B40000E94A4328823F9F00E94A7312B966CAF23
:102B50007DAF8EAF9FAF2B9720E030E0A901C7017A
:102B6000B6010E94C5BF81111EC020E030E0A9015E
:102B70002B966CAD7DAD8EAD9FAD2B970E94C5BFE2
:102B8000811111C0AEC320E030E0A901C701B60138
:102B90000E94C5BF882309F4A4C32B961CAE1DAEAA
:102BA0001EAE1FAE2B97D701C601B0588BAF9CAF9E
:102BB000ADAFBEAF2B962CAD3DAD4EAD5FAD2B97FF
:102BC000505823962CAF3DAF4EAF5FAF23979C017B
:102BD000AD01BC01CD010E942AC04B015C012396CE
:102BE0002CAD3DAD4EAD5FAD2397CA01B9010E943A
:102BF0002AC09B01AC01C501B4010E94C6C30E945A
:102C000031C6A7966CAF7DAF8EAF9FAFA79780916F
:102C1000590490915A04A0915B04B0915C042796EA
:102C20008CAF9DAFAEAFBFAF2797A7019601BC0198
:102C3000CD010E94C6C367966CAF7DAF8EAF9FAFCC
:102C4000679720915D0430915E0440915F0450913C
:102C500060042F962CAF3DAF4EAF5FAF2F972B96F2
:102C60002CAD3DAD4EAD5FAD2B972F966CAD7DADD0
:102C70008EAD9FAD2F970E94C6C36B966CAF7DAF94
:102C80008EAF9FAF6B9780912D0490912E04A091F1
:102C90002F04B09130046F968CAF9DAFAEAFBFAF35
:102CA0006F9767962CAD3DAD4EAD5FAD6797BC019C
:102CB000CD010E94C5C36B017C012091310430918C
:102CC00032044091330450913404A3962CAF3DAFAD
:102CD0004EAF5FAFA3976B962CAD3DAD4EAD5FADE4
:102CE0006B97A3966CAD7DAD8EAD9FADA3970E9403
:102CF000C5C34B015C018091610490916204A09175
:102D00006304B0916404AF968CAF9DAFAEAFBFAF1C
:102D1000AF979C01AD0160913504709136048091AC
:102D20003704909138040E94C5C363966CAF7DAFA1
:102D30008EAF9FAF63972091390430913A04409150
:102D40003B0450913C04AB962CAF3DAF4EAF5FAF10
:102D5000AB978091650490916604A0916704B0914F
:102D60006804E3968CAF9DAFAEAFBFAFE397A7010A
:102D700096016BAD7CAD8DAD9EAD0E942AC02B013E
:102D80003C01A501940123966CAD7DAD8EAD9FAD48
:102D900023970E942AC09B01AC01C301B2010E948B
:102DA000C6C32B013C01A50194016BAD7CAD8DAD7B
:102DB0009EAD0E942AC04B015C01A701960123969B
:102DC0006CAD7DAD8EAD9FAD23970E942AC09B0157
:102DD000AC01C501B4010E94C5C3A30192010E94C8
:102DE00039C46B017C0120E030E0A9010E94C5BF1D
:102DF00087FF0AC02BED3FE049EC50E4C701B60164
:102E00000E94C6C36B017C01112351F02BED3FE002
:102E100049EC50E4C701B6010E94C5C36B017C01B7
:102E200020E030E0A901C701B6010E94C5BF8111B1
:102E300028C06F962CAD3DAD4EAD5FAD6F97279618
:102E40006CAD7DAD8EAD9FAD27970E94C5BF811142
:102E500018C0A3962CAD3DAD4EAD5FADA3972F9698
:102E60006CAD7DAD8EAD9FAD2F970E94C5BF81111A
:102E700008C0ABEDCA2EAFE0DA2EA9ECEA2EA0E432
:102E8000FA2EA7962CAD3DAD4EAD5FADA797C7010D
:102E9000B6010E942AC09B01AC010E942AC04B01CE
:102EA0005C0163962CAD3DAD4EAD5FAD6397CA013D
:102EB000B9010E942AC09B01AC01C501B4010E9466
:102EC000C6C30E9431C64B015C012FE632E143E8E4
:102ED0005AE30E94C5BF87FD00C2C501B4010E942C
:102EE0003BC50E940FC52D967FAF6EAF2D97DB01BE
:102EF000AB2B31F4E1E0F0E02D96FFAFEEAF2D9774
:102F00002D962EAD3FAD2D97B90180E090E00E9447
:102F1000C9BF4B015C019B01AC01C701B6010E9416
:102F2000A2C427966CAF7DAF8EAF9FAF2797A50148
:102F3000940163966CAD7DAD8EAD9FAD63970E949D
:102F4000A2C4A7966CAF7DAF8EAF9FAFA797E39655
:102F50002CAD3DAD4EAD5FADE397AB966CAD7DADA9
:102F60008EAD9FADAB970E94C5C3A50194010E9491
:102F7000A2C4AB966CAF7DAF8EAF9FAFAB972796D9
:102F80002CAD3DAD4EAD5FAD2797CA01B9010E9492
:102F90002AC020E030E040E05FE30E942AC09B01AD
:102FA000AC0160E070E080E89FE30E94C5C36396D7
:102FB0006CAF7DAF8EAF9FAF6397AF968CAD9DAD7D
:102FC000AEADBFADAF9789879A87AB87BC87E396D5
:102FD0002CAD3DAD4EAD5FADE3972D873E874F875E
:102FE000588B6091020270910302072E000C880B2F
:102FF000990B0E94CBBF20910402309105024091B1
:103000000602509107020E942AC02AE037ED43E2EF
:103010005CE30E942AC06F966CAF7DAF8EAF9FAF0E
:103020006F970E94F3AA9B01AC0128533F4F4F4F6B
:103030005F4FA3962CAF3DAF4EAF5FAFA3974BACA6
:103040005CAC6DAC7EAC22242394312CF9E1DF2EF4
:103050002D964EAD5FAD2D972416350609F429C186
:103060000E9445590E94F3AADC01CB01A3962CAD26
:103070003DAD4EAD5FADA397821B930BA40BB50B7B
:10308000B7FD10C00E94F3AA9B01AC0128533F4F2B
:103090004F4F5F4FA3962CAF3DAF4EAF5FAFA3979F
:1030A0000E94FDACDA94DD2009F44BC063962CAD90
:1030B0003DAD4EAD5FAD639723966CAD7DAD8EADEE
:1030C0009FAD23970E942AC04B015C0127962CAD2F
:1030D0003DAD4EAD5FAD2797B201C3010E942AC03E
:1030E000A50194010E94C6C37B018C0163962CAD9F
:1030F0003DAD4EAD5FAD6397B201C3010E942AC0E2
:103100004B015C0127962CAD3DAD4EAD5FAD2797D1
:1031100023966CAD7DAD8EAD9FAD23970E942AC0E6
:103120009B01AC01C501B4010E94C5C32B013C0148
:10313000C701D80123968CAF9DAFAEAFBFAF239729
:1031400057C0B10180E090E00E94C9BF27962CAD26
:103150003DAD4EAD5FAD27970E942AC04B015C018B
:103160000E949FC46B017C01C501B4010E9427C667
:103170004B015C01A70196016BAD7CAD8DAD9EADA1
:103180000E942AC02B013C01A50194012B966CAD35
:103190007DAD8EAD9FAD2B970E942AC09B01AC01E7
:1031A000C301B2010E94C6C32B013C01A5019401D9
:1031B0006BAD7CAD8DAD9EAD0E942AC04B015C0114
:1031C000A70196012B966CAD7DAD8EAD9FAD2B9773
:1031D0000E942AC09B01AC01C501B4010E94C5C375
:1031E00023966CAF7DAF8EAF9FAF239779E1D72E3B
:1031F0009201A30167966CAD7DAD8EAD9FAD6797D3
:103200000E94C6C369837A838B839C8323962CADEB
:103210003DAD4EAD5FAD23976B966CAD7DAD8EAD84
:103220009FAD6B970E94C6C36D837E838F83988703
:10323000A7962CAD3DAD4EAD5FADA79769857A855C
:103240008B859C850E94C6C369877A878B879C87FC
:10325000AB962CAD3DAD4EAD5FADAB976D857E852C
:103260008F8598890E94C6C36D877E878F87988BCC
:1032700080917B02882321F0CE0101960E94DE7DA1
:10328000C0908B036F96ECACFDAC0EAD1FAD6F978D
:103290009E01235F3F4FAE01475F5F4FBE016B5FF3
:1032A0007F4FCE0101960E941F973FEF231A330AEA
:1032B000CFCEC0908B036F96ECACFDAC0EAD1FADC6
:1032C0006F9729E334E045E354E061E374E08DE275
:1032D00094E00E941F970E94892F0E9499330C94BA
:1032E0000A2AEDEDFAE084918F010F5F1F4F8823CA
:1032F00021F00E94A433F801F6CFE3E1F2E08491DB
:103300008F010F5F1F4F882311F40C940A2A0E942B
:10331000A433F801F4CF80E50E94A432882329F079
:103320000E9467316B017C0103C0C12CD12C760156
:1033300083E50E94A432882361F00E94A73120E037
:1033400030E04AE754E40E942AC00E940FC56B0196
:103350007C010E94E35A0E94993380910912909156
:103360000A12A0910B12B0910C12C80ED91EEA1EBF
:10337000FB1E80910A02811105C060E089E292E0A3
:103380000E94C4930E94F3AADC01CB018C199D0911
:10339000AE09BF09B7FD02C00C940A2A0E94FDAC19
:1033A000F1CF109290030C940A2A81E0809390034D
:1033B0000C940A2A85E40E94A432B82E811102C01E
:1033C0000E94E35A4FE8842E42E0942E59E5C52E20
:1033D00054E0D52E61E1E62E62E1F62E00E010E029
:1033E000A12CD4018D914D010E94A432882309F4AF
:1033F0004EC0F6012081318142815381C457DF4F95
:103400002883CC58D040C357DF4F3883CD58D040A5
:10341000C257DF4F4883CE58D040C157DF4F588343
:10342000CF58D0400E94A731D6016D937D938D93E4
:103430009C931397C457DF4F2881CC58D040C35773
:10344000DF4F3881CD58D040C257DF4F4881CE582A
:10345000D040C157DF4F5881CF58D04003301105BD
:10346000B1F00E94C5C39B01AC01F701608171817D
:10347000828193810E94C6C3D7016D937D938D9302
:103480009C931397C8010E94CB2FAA24A3940F5F8B
:103490001F4FB4E0CB0ED11CE4E0EE0EF11C043063
:1034A000110509F09ECFAA2019F00E949E3003C09A
:1034B000B1100E9400400E94E7370C940A2A8091C4
:1034C0009103909192038037910509F4DDC50CF0CA
:1034D000A1C08A32910509F4B6C40CF04FC08731FF
:1034E000910509F443C214F58231910509F478C6B7
:1034F00084F497FF02C00C940A2A823091050CF4E0
:1035000066C1419711F00C940A2A0E94772F0C94FF
:103510000A2A8531910509F41FC20CF021C2449793
:1035200011F00C940A2AE7E7F2E0D3C18B31910540
:1035300009F445C23CF48931910509F42CC20CF41C
:103540001FC22FC28E31910509F475C274F44C97D5
:1035500011F00C940A2A40E060E080918803909179
:1035600089030E94FA3A0C940A2A8F31910509F4D2
:10357000C4C3809709F477C30C940A2A8C3591054B
:1035800009F480C634F58135910509F409C68CF437
:103590008C34910509F496C48D34910509F496C4D0
:1035A0008B34910511F00C940A2A0E94C03F0C94B0
:1035B0000A2A8335910509F40EC60CF408C6843531
:1035C000910509F40DC68535910509F440C60C94A2
:1035D0000A2A8B36910509F4D1C564F48936910520
:1035E00009F474C50CF0C6C58836910509F472C497
:1035F0000C940A2A8D36910509F482C50CF440C555
:103600008E36910509F4BDC48F36910509F4CCC4FA
:103610000C940A2A833D910511F40C94D4230CF0E8
:103620006EC08C38910509F433C54CF58637910589
:1036300009F443C69CF48337910509F427C68537FE
:10364000910509F431C68237910511F00C940A2ACC
:103650000E94E35A0E94E7370C940A2A88379105A2
:1036600009F495C60CF42DC68937910511F00C9418
:103670000A2A1092080210922C040C940A2A893CFF
:10368000910509F44BC774F48E3B910509F456C5B6
:10369000883C910509F4FAC68139910511F00C9422
:1036A0000A2A7CC68C3C910509F470C77CF48B3CDB
:1036B000910511F00C940A2A43E6E42E48E0F42E1A
:1036C0000FE812E054E0D52ED00E50C78D3C910586
:1036D00009F4C6C78E3C910511F00C940A2A9FE8A4
:1036E000A92E92E0B92E29E5C22E24E0D22E37E988
:1036F000E32E36E0F32E00E010E00C949B2380399B
:10370000F1E09F0711F40C946A2884F58C3231E0C3
:10371000930711F40C9495248CF48D3D910511F4CC
:103720000C947924823E910511F40C9492248C3DE2
:10373000910511F00C940A2A0C946C248E3251E0FD
:10374000950711F40C945C2514F40C94BE248F326C
:10375000B1E09B0711F40C94B0258336914011F031
:103760000C940A2AEDEDFAE00C948729853FF1E0EC
:103770009F0711F40C947029ACF48C3A31E0930754
:1037800011F40C946D28843F41E0940711F40C94DB
:1037900057298A39914011F00C940A2A0E94A830C6
:1037A0000C940A2A873FA1E09A0711F40C94792916
:1037B00014F40C947629803AE3E09E0709F490C251
:1037C000873E934011F40C949E290C940A2AA090F1
:1037D0008803B090890380E50E94A432882359F0C1
:1037E0000E9467316B017C0111E0672B682B692B0C
:1037F00031F410E004C010E0C12CD12C760183E537
:103800000E94A4328823F1F00E94A73120E030E02A
:103810004AE754E40E942AC00E940FC56B017C0154
:10382000111112C0672B682B692B71F4A114B1041C
:1038300059F0D5018C91882339F061E0C5010E94CF
:10384000E49307C0112391F360E085E592E00E94C4
:10385000C49381E0809355110E94E35A0E949933EA
:10386000C114D104E104F104E9F0809109129091AE
:103870000A12A0910B12B0910C12C80ED91EEA1EAA
:10388000FB1E0E94F3AADC01CB018C199D09AE0935
:10389000BF09B7FF1AC0809155118823B1F00E946B
:1038A000FDACEFCF80915511882319F00E94FDAC3B
:1038B000F9CF8091B50E60E0882319F086E492E09C
:1038C00002C082E392E00E94C493109255110C94BE
:1038D0000A2A84918F010F5F1F4F882321F00E94D5
:1038E000A433F801F6CF10923B1110923A1140E048
:1038F00050E0BA0186EE9EE00E942B768BE1E6EE68
:10390000FEE0DE01159601900D928A95E1F7809117
:10391000E40E9091E50E9C838B8389EA92E09A8372
:10392000898340E050E0BE016F5F7F4F86E693E001
:103930000E947E87CE0101960E9491ACE8E6F2E0FB
:1039400084918F010F5F1F4F882311F40C940A2A72
:103950000E94A433F801F4CF0E94273E0C940A2A57
:103960001092B50E1092B60E0C940A2A40E061E057
:1039700080918803909189030E94FA3A0C940A2A54
:103980008091B60E882319F081E08093B50E0E94D5
:10399000C03F0C940A2A1092B50E0E943E400C942F
:1039A0000A2A8091B60E882311F40C940A2A83E522
:1039B0000E94A43281110C941E2A0C940A2A809130
:1039C000B60E882351F1E8E8F2E084918F010F5F91
:1039D0001F4F882321F00E94A433F801F6CF609195
:1039E00031117091321180913311909134114AE06C
:1039F0000E94DC338FE20E94A43360912D117091FC
:103A00002E1180912F11909130114AE00E94DC33E9
:103A10008AE00E94A4330C940A2AEAE9F2E0849135
:103A20008F010F5F1F4F882311F40C940A2A0E9404
:103A3000A433F801F4CF8091B60E882311F40C94CE
:103A40000A2A80E890E10E94E87580E890E10E94EF
:103A500064771092B40E1092B30EE0908803F09049
:103A600089038091B60E882311F40C940A2A0E94CF
:103A700065861D8218861C821B8289EA92E09A83E1
:103A8000898382EE9EE09093020F8093010FF701ED
:103A900080818F3209F068C06FE270E0C7010E9438
:103AA00021C78C010F5F1F4F9E012F5F3F4F4901C0
:103AB0000115110509F45EC06FE270E0C8010E94B3
:103AC00021C76C01009709F456C00817190708F0C0
:103AD00052C05C01A01AB10AA501B801CE018096BE
:103AE0000E944AC7E0E2F0E0EC0FFD1FEA0DFB1D6B
:103AF00010828E01005E1F4FD8018D918D018823A9
:103B000019F00E94A433F8CF8AE00E94A433609198
:103B1000010F7091020F6115710511F06C5F7F4FFD
:103B200021E0AE01405E5F4FCE0105960E94ED7C24
:103B3000811112C0BE01605E7F4F81ED92E00E9454
:103B4000B3AF8EE20E94A4338AE00E94A433C40182
:103B50000E9491AC0C940A2A9092020F8092010F5D
:103B600086010F5F1F4FA4CF83E09FE09093020F69
:103B70008093010F87016091010F7091020F611511
:103B8000710511F06C5F7F4F18A21BA222E0A80103
:103B9000CE0180960E94ED7C811102C0F12C1EC0E6
:103BA000CE0180960E94D3858823C1F36CA57DA5A4
:103BB0008EA59FA541E00E94A769882379F3E8A913
:103BC000B0E2EB9FF0011124E558FB4F309731F341
:103BD00085EE80831BA20E946769F82ECE01809635
:103BE0000E949333FF2009F1EBEAF2E084917F0118
:103BF0002FEFE21AF20A882321F00E94A433F70182
:103C0000F5CFD8018D918D01882319F00E94A4333E
:103C1000F8CF8AE00E94A433109231111092321131
:103C2000109233111092341118C0E9EBF2E0849134
:103C30007F01BFEFEB1AFB0A882321F00E94A43317
:103C4000F701F5CFF80181918F01882319F00E94C7
:103C5000A433F8CF8EE20E94A433CE0101960E94D5
:103C600091AC0C940A2A8091B50E81110E94E35AFE
:103C7000E0908803F090890380E50E94DA31182FE4
:103C8000882319F00E949831182F8091B60E88234E
:103C900011F40C940A2A412F61E0C7010E94FA3AFC
:103CA00083E50E94A432882381F00E947731AB0122
:103CB000BC014093311150933211609333117093D2
:103CC000341180E890E10E942B768091B60E882313
:103CD00019F081E08093B50E11110C940A2A57CE89
:103CE000809188039091890321E02093B40E40E0F5
:103CF00060E00E94FA3A0C940A2A0E9448873CE34A
:103D0000C32ED12CE12CF12CA70196010E948AC36D
:103D1000762E672ECA01B901A70196010E948AC3B7
:103D20006B017C01CA01B90128E130E040E050E0BC
:103D30000E948AC34B015C01C9016DE671E00E94DB
:103D40008AC68E010F5F1F4F6115710599F06F9242
:103D50007F92DF92CF929F928F929F938F937F93C8
:103D60006F938DE093E09F938F931F930F930E9427
:103D70005EBF12C00097B1F06F927F92DF92CF9238
:103D80009F928F929F938F938DEF92E09F938F934B
:103D90001F930F930E945EBF0FB6F894DEBF0FBE55
:103DA000CDBF36C081149104A104B10479F06F92A3
:103DB0007F92DF92CF929F928F9281EF92E09F93BA
:103DC0008F931F930F930E945EBFE6CFC114D1045F
:103DD000E104F10469F06F927F92DF92CF9289EE55
:103DE00092E09F938F931F930F930E945EBFD4CF57
:103DF0006F927F9285EE92E09F938F931F930F9324
:103E00000E945EBF0F900F900F900F900F900F9039
:103E100060E0C8010E94E493E6E4FEE184917F0142
:103E2000BFEFEB1AFB0A882321F00E94A433F701AD
:103E3000F5CFB80181E293E00E94B3AF8AE00E941F
:103E4000A4330C940A2A83E50E94A432882311F437
:103E50000C940A2A0E948731E82E80E50E94A43241
:103E6000882339F00E9477318B0177FF04C00C94CE
:103E70000A2A0DE010E0902FEEE2F3E08BE28E0FC5
:103E80002491921729F031968E13FACF0C942E2A92
:103E9000EDEDFAE084918F010F5F1F4F882321F031
:103EA0000E94A433F801F6CFE9E5F3E084918F0195
:103EB0000F5F1F4F882311F40C940A2A0E94A43329
:103EC000F801F4CF0E943E400C940A2A0E947086AA
:103ED0000C940A2A88E690E00E94423481110C94E6
:103EE0000A2A80916E1183FF02C00C940A2A83E58E
:103EF0000E94A432882309F440C00E94A7310E9486
:103F00000AC5709321046093200480E00E94475604
:103F10000E94A73120E030E04AEA52E40E94C5BF87
:103F200018163CF00E94708660E08FE693E00E94D5
:103F3000C4930E94A7312091A3083091A408409116
:103F4000A5085091A6080E94ECC51816B4F480EE9E
:103F500092E09F938F9380918A0390E001969F93C4
:103F60008F9388E693E09F938F931F920E94A33FC5
:103F70000FB6F894DEBF0FBECDBF0E9423BB0C94DA
:103F80000A2A8EE40E94A432882311F40C940A2A8F
:103F90000E9477316093031270930412809305128C
:103FA000909306120C940A2A83E50E94A432882377
:103FB00019F00E94873101C080E080936E11E6E421
:103FC000FEE184918F010F5F1F4F882321F00E9433
:103FD000A433F801F6CFE1E9F3E084918F010F5F9C
:103FE0001F4F882321F00E94A433F801F6CF80915F
:103FF0006E118823A1F123E8C22E23E0D22EE12CFA
:10400000F12C20E080916E1190E00E2C02C095956D
:1040100087950A94E2F780FF17C0BB24B394B20ED1
:10402000222319F08CE20E94A433F60125913491E9
:10403000F901849189010F5F1F4F882321F00E94AD
:10404000A4339801F5CF2B2DFFEFEF1AFF0A32E0D2
:10405000C30ED11C45E0E416F104A1F60CC0EDE856
:10406000F3E084918F010F5F1F4F882321F00E949E
:10407000A433F801F6CF8AE00E94A4330C940A2AF4
:10408000109288020C940A2A88E993E00E94ABAC53
:1040900080916E1183FF02C00C940A2A83E50E946E
:1040A000A432882311F40C940A2A0E94A7310E949A
:1040B0000AC56739710514F066E970E070931F0452
:1040C00060931E040E94FC550C940A2A89E690E035
:1040D0000E94423481110C94E32EE1EAF3E08491D2
:1040E0008F010F5F1F4F882321F00E94A433F80136
:1040F000F6CF0E9497388AE00E94A4330C94E32EF6
:104100008DE690E00E94423481110C940A2A80913D
:104110006E1183FF02C00C940A2A83E50E94A43228
:1041200028968FAF289781110C94432A82E50E942C
:10413000A43281110C94432A0C940A2A80916E11A6
:1041400083FF02C00C940A2A60E08FED93E00E9486
:10415000C49383E50E94A43228968FAF28978111DB
:104160000C94D52B82E50E94A43281110C94D52B9E
:104170000C940A2A0E9407330C940A2A80E50E94B4
:10418000A432811106C010922304109222040C94D0
:104190000A2A0E947731672B11F00C940A2AF3CF78
:1041A0000E9492560E94E35A0E9499AC10922304F6
:1041B0001092220468EE73E080E090E00E94309359
:1041C00060E08CEE93E00E94C4930C940A2A109253
:1041D0008F030C940A2A81E080938F030C940A2A9F
:1041E00083E50E94A4328823A1F00E94A73120E039
:1041F00030E04AE754E40E942AC00E940FC5609351
:104200008B0270938C0280938D0290938E020C949B
:104210000A2A88E50E94DA3181110C94342D89E54F
:104220000E94DA3181110C94342D8AE50E94DA3132
:1042300081110C94342D85E40E94DA3181110C94A3
:10424000342D0E94E35A0E9499AC0C940A2A83E50B
:104250000E94DA31882311F40C940A2A0E94A731B3
:1042600020E030E04AE754E40E942AC00E940FC5D3
:1042700060930D1270930E1280930F129093101290
:104280000C940A2A0E9409320C940A2AEEEFF3E0F9
:1042900084918F010F5F1F4F882311F40C940A2A19
:1042A0000E94A433F801F4CF60E0809188039091DC
:1042B00089030E94E4930C940A2A0E94AB330C9465
:1042C0000A2AEEEDF4E084918F010F5F1F4F8823DF
:1042D00021F00E94A433F801F6CFE6EDF4E08491DA
:1042E0008F010F5F1F4F882321F00E94A433F80134
:1042F000F6CF659B03C00DEC12E002C002ED12E0A8
:10430000D8018D918D01882319F00E94A433F8CF34
:104310008AE00E94A433EEECF4E084918F010F5FF9
:104320001F4F882321F00E94A433F801F6CF80911B
:10433000030181FF03C00DEC12E002C002ED12E0A8
:10434000F80181918F01882319F00E94A433F8CFDE
:104350008AE00E94A433E6ECF4E084918F010F5FC1
:104360001F4F882321F00E94A433F801F6CF4B9B06
:1043700003C00DEC12E002C002ED12E0D8018D91F5
:104380008D01882309F477CE0E94A433F7CF81E012
:104390008093080280932C040C940A2A83E50E94DF
:1043A000A432882319F00E94773102C060E070E0E7
:1043B0008B01112702301105D4F0EDEDFAE0849164
:1043C0008F010F5F1F4F882321F00E94A433F80153
:1043D000F6CFE8EFF4E084918F010F5F1F4F882341
:1043E00011F40C940A2A0E94A433F801F4CF88E453
:1043F0000E94A4328823A9F00E9477316A3A71059D
:104400003CF06530B1E07B072CF064E071E002C065
:104410006AEA70E0F801EE0FFF1FED5AF74F718363
:10442000608386E40E94A4328823A9F00E94773139
:10443000F801EE0FFF1FE95AF74F718360836F3F5A
:10444000710519F014F06FEF70E077FF02C060E0C3
:1044500070E07183608382E40E94A432882309F4AF
:10446000D9C70E9477316530710534F0683871051D
:104470002CF067E870E002C065E070E0000F111FEB
:10448000F801E15BF74F71836083C4C788EC90E06B
:104490000E9442348111BEC784E40E94DA3188232D
:1044A000D1F10E94A73111E020E030E0A9010E9483
:1044B000C5BF811101C010E01093430E112359F1C3
:1044C00000918A0310E00E94A731000F111F000F16
:1044D000111FF801E458FD4F608371838283938339
:1044E00020E030E0A90160917C0270917D02809112
:1044F0007E0290917F020E94C5BF81110CC080E0B6
:1045000090E0A0E4B0E480937C0290937D02A093BD
:104510007E02B0937F020E9449AB7CC763E7E62E20
:1045200068E0F62E0FE812E074E0D72ED00EF80106
:1045300081918F010E94DA31882351F00E94A731C6
:104540000E940FC5D7016D937D938D939C93139714
:10455000B4E0EB0EF11CD012EACF0E94DBAF5AC7D9
:10456000B4E0EB0EF11CD01609F454C7F8018191A8
:104570008F010E94DA31882399F30E94A731D70175
:104580006D937D938D939C931397EACF83E50E945F
:10459000DA318823D9F00E94A731AB01BC014093E6
:1045A0008B0850938C0860938D0870938E0840930D
:1045B000830850938408609385087093860884E785
:1045C00095E00E9423628AE00E94A43380E50E9465
:1045D000DA31882399F00E94A731AB01BC014093E6
:1045E0008B0850938C0860938D0870938E0887E534
:1045F00095E00E9423628AE00E94A43382E50E9433
:10460000DA31882399F00E94A731AB01BC014093B5
:104610008708509388086093890870938A0888E314
:1046200095E00E9423628AE00E94A43384E50E9400
:10463000DA31882309F4EEC60E94A731AB01BC0130
:10464000409383085093840860938508709386088C
:104650008AE195E00E9423628AE00E94A433DAC6D0
:1046600083E50E94DA31882351F00E94A7316093DC
:104670005F0870936008809361089093620884E5F6
:104680000E94DA31882351F00E94A73160935B08C1
:1046900070935C0880935D0890935E0882E40E94AA
:1046A000DA31882351F00E94673160936A11709368
:1046B0006B1180936C1190936D1188E50E94DA3133
:1046C000882351F00E94A7316093330E7093340E0B
:1046D0008093350E9093360E89E50E94DA31882357
:1046E00051F00E94A7316093370E7093380E80937B
:1046F000390E90933A0E8AE50E94DA31882351F000
:104700000E94A73160933B0E70933C0E80933D0E48
:1047100090933E0E85E40E94DA31882309F47AC62C
:104720000E94A73160933F0E7093400E8093410E1C
:104730009093420E6FC6F50181915F010E94DA31BC
:10474000882311F10E94A7312B013C01D7012D9143
:104750003D914D915C910E94C5C39B01AC01F60156
:1047600060817181828193810E94C6C3D6016D935D
:104770007D938D939C931397F701408251826282BF
:104780007382C8010E94CB2F0F5F1F4FF4E0CF0E42
:10479000D11C24E0E20EF11C0330110561F60E94E9
:1047A0009E300E94E73736C6E6E4FEE184918F0131
:1047B0000F5F1F4F882321F00E94A433F801F6CF2A
:1047C00083E50E94DA31882321F00E94983180939A
:1047D0007B02E4ECF5E084918F010F5F1F4F88238B
:1047E00021F00E94A433F801F6CF80917B02811161
:1047F00003C0E0ECF5E002C0ECEBF5E084918F0142
:104800000F5F1F4F882321F00E94A433F801F6CFD9
:10481000E4EBF5E084918F010F5F1F4F882321F0B7
:104820000E94A433F801F6CF40911C0E50911D0E4A
:1048300060911E0E70911F0E82EB95E00E94236224
:104840004091200E5091210E6091220E7091230E06
:104850008FEA95E00E9423624091240E5091250E2C
:104860006091260E7091270E8CEA95E00E942362DB
:10487000E4EAF5E084918F010F5F1F4F882321F058
:104880000E94A433F801F6CF40916F02509170025C
:10489000609171027091720282EA95E00E94236237
:1048A000409173025091740260917502709176028A
:1048B0008FE995E00E94236240917702509178023F
:1048C0006091790270917A028CE995E00E942362EE
:1048D0008AE00E94A4339EC583E50E94A432882307
:1048E00009F498C50E947731709303026093020225
:1048F00091C58DED90E00E94423481118BC583E516
:104900000E94A432882309F485C500918A0310E02F
:104910000E947731000F111FF801E757FD4F718397
:10492000608378C50E94B03275C583E50E94A432C9
:10493000882319F00E94773102C064E071E079A306
:1049400068A380E50E94A432882339F00E94773161
:10495000693833E1730730F402C068EE73E07A839C
:10496000698304C088E893E19A838983BE01605E0D
:104970007F4FCE0101960E946F3F4CC585E40E9497
:10498000A432811110C080E50E94DA31882391F0B1
:104990000E94A73160934D0270934E0280934F02A4
:1049A0009093500207C00E948731882361F3EDED98
:1049B000FAE071C089E40E94DA31882381F00E9414
:1049C000A7312CEA35EC47E25EE30E942AC06093EF
:1049D000550270935602809357029093580284E4D4
:1049E0000E94DA31882381F00E94A7312CEA35EC4D
:1049F00047E25EE30E94A2C46093510270935202A8
:104A00008093530290935402E6E4FEE184918F0177
:104A10000F5F1F4F882321F00E94A433F801F6CFC7
:104A200040914D0250914E0260914F0270915002A0
:104A30008CED95E00E9423622CEA35EC47E25EE3C0
:104A400060915502709156028091570290915802E0
:104A50000E94A2C4AB01BC0188ED95E00E940662F1
:104A60002CEA35EC47E25EE360915102709152020C
:104A700080915302909154020E942AC0AB01BC0164
:104A800084ED95E00E9406628AE00E94A433C2C4CD
:104A90000E94A433F80184918F010F5F1F4F811191
:104AA000F7CF0BEE12E0D8018D918D01882309F428
:104AB000E2CA0E94A433F7CF83E50E94DA31182FAF
:104AC000882371F00E94A7310E940AC57093830267
:104AD0006093820221E0672B09F020E020936911A6
:104AE00080E50E94DA31882359F0209182023091CA
:104AF0008302232B11F00E949831809369118AC49C
:104B0000111188C4E6E4FEE184918F010F5F1F4F0D
:104B1000882321F00E94A433F801F6CF8091691117
:104B2000811103C06CED72E002C06FEC72E085EFA2
:104B300095E00E94B3AF609182027091830284EE8F
:104B400095E00E949AAFE0EEF5E084918F010F5F4F
:104B50001F4F882309F45EC40E94A433F801F5CFE7
:104B600085E40E94A432882321F00E9477318B01D2
:104B700002C000E010E083E40E94A432882349F0E0
:104B80000E947731CA57DF4F79836883C658D04077
:104B900008C0E5E0F0E0CA57DF4FF983E883C65864
:104BA000D04085E50E94DA31ED968FAFED978823EE
:104BB00029F00E949831ED968FAFED9717FD07C051
:104BC000C12CD12CB6E1EB2EB3E4FB2E06C0C12CD8
:104BD000D12CACE8EA2EA2E4FA2E83E50E94A4329E
:104BE000882321F00E94A7316B017C01C701B60127
:104BF0000E940AC50115110511F410928A03072EAF
:104C0000000C880B990B0E94CBBF24966FAF2497A2
:104C10002C967FAF2C9760968FAF609764969FAF6E
:104C200064970E94F3AA4B015C01012B19F40CEF6D
:104C300012E00BC00FE013E0D8018D918D018823A5
:104C400009F419CA0E94A433F7CFF80181918F01AA
:104C5000882319F00E94A433F8CF8AE00E94A4337D
:104C60000E9492568FE78093A10881E0809388028A
:104C7000C258DF4F88829982AA82BB82CE57D04029
:104C8000C857DF4F88829982AA82BB82C858D04019
:104C900068961FAE6897F0E46C96FFAF6C972CE1B6
:104CA000A0962FAFA09736E4AC963FAFAC97E096B6
:104CB0001FAEE097A4961FAEA497A8961FAEA89724
:104CC000E4961FAEE497EC961CAE1DAE1EAE1FAE72
:104CD000EC97E8961CAE1DAE1EAE1FAEE897C12C39
:104CE000D12C7601FFE74F2E512C612C712C8FE7D0
:104CF00090E0A0E0B0E023968CAF9DAFAEAFBFAF29
:104D00002397CE57DF4F188219821A821B82C2580E
:104D1000D04091E0EE969FAFEE9729961FAE1EAE63
:104D20002997212C312C00E010E080918802882303
:104D300009F4C9C10E94F3AA6BAF7CAF8DAF9EAFDF
:104D400080919F08882309F4CBC00E94B956209017
:104D5000A3083090A4080091A5081091A60891011D
:104D6000A801E0966FADE097A4967FADA497A896B2
:104D70008FADA897E4969FADE4970E94C5BF87FFCB
:104D80000CC0E0962FAEE097A4963FAEA497A896ED
:104D90000FAFA897E4961FAFE4979101A80168961A
:104DA0006FAD68976C967FAD6C97A0968FADA0970E
:104DB000AC969FADAC970E94ECC5181664F468964B
:104DC0002FAE68976C963FAE6C97A0960FAFA097EA
:104DD000AC961FAFAC97EE96AFADEE9724962FAD85
:104DE00024972C963FAD2C9760964FAD60976496B4
:104DF0005FAD6497B101C801AA2309F455C00E94B0
:104E0000ECC518160CF06CC04BAD5CAD6DAD7EAD55
:104E1000481959096A097B09DB01CA01885893417D
:104E2000A109B109B7FD5CC023968CAD9DADAEADB7
:104E3000BFAD239784199509A609B709B595A7951C
:104E4000979587958093A108CE57DF4F4883598364
:104E50006A837B83C258D0402496BFAD2497E096E6
:104E6000BFAFE0972C96EFAD2C97A496EFAFA49729
:104E70006096FFAD6097A896FFAFA89764962FAD98
:104E80006497E4962FAFE4978BAD9CADADADBEAD0E
:104E9000C258DF4F88839983AA83BB83CE57D04003
:104EA000EE961FAEEE971CC00E94C5BF87FF18C0CC
:104EB0008BAD9CADADADBEADC258DF4F2881398101
:104EC0004A815B81CE57D040821B930BA40BB50B5C
:104ED000AC01BD01485853416109710977FFEAC52A
:104EE00020E030E040EA51E424966FAD24972C9600
:104EF0007FAD2C9760968FAD609764969FAD649759
:104F00000E94C6C39B01AC01B101C8010E94ECC55F
:104F100018166CF4E2ECF6E084918F010F5F1F4FDE
:104F2000882309F477C20E94A433F801F5CF80E307
:104F300098EFAFEFBFEFC857DF4F288139814A8123
:104F40005B81C858D040821B930BA40BB50B2BADD3
:104F50003CAD4DAD5EAD820F931FA41FB51FB7FDD5
:104F600011C00E9497388AE00E94A4338BAD9CAD9B
:104F7000ADADBEADC857DF4F88839983AA83BB838D
:104F8000C858D0408BAD9CADADADBEAD880F991F5C
:104F9000AA1FBB1FC258DF4F288139814A815B811C
:104FA000CE57D040821B930BA40BB50B88199909DF
:104FB000AA09BB0981389F44A241B10568F0E4EA1F
:104FC000F6E084918F010F5F1F4F882309F422C2FE
:104FD0000E94A433F801F5CF29964EAD5FAD299715
:104FE000CA57DF4F88819981C658D04084179507EA
:104FF0000CF066C0E7E4F6E084918F010F5F1F4F6D
:10500000882321F00E94A433F801F6CFB701A6014E
:1050100082E396E00E9423628AE00E94A433E8962D
:105020004CAD5DAD6EAD7FADE8978DE196E00E9431
:1050300023628AE00E94A433EC964CAD5DAD6EAD68
:105040007FADEC9788E096E00E9423628AE00E94A0
:10505000A433ED969FADED97992309F4DBC1C0927F
:105060004D02D0924E02E0924F02F09250022CEA92
:1050700035EC47E25EE3E8966CAD7DAD8EAD9FAD5D
:10508000E8970E942AC0609355027093560280935D
:105090005702909358022CEA35EC47E25EE3EC9617
:1050A0006CAD7DAD8EAD9FADEC970E94A2C46093B8
:1050B0005102709352028093530290935402AAC1FA
:1050C0000E94F69332CE809188028111A3C10E9482
:1050D0009256A0C10E94E35A9DC187E9C82E86E07E
:1050E000D82E99E5E92E94E0F92E2BEA222E28E01D
:1050F000322E00E010E0D101AB5AB840BCAFABAFEC
:10510000F10181911F01882309F4A0C0D7014D90BE
:105110005D906D907C90F801E159FD4F20813181C7
:1051200042815381F801E45EF14F60817181828197
:1051300093810E94C6C320E030E040E05FE30E941C
:105140002AC09B01AC01C301B2010E94ECC5181634
:1051500044F4F801E556FD4D85909590A590B490E6
:1051600003C0812C912C5401F801E35CFB4F20819A
:10517000318142815381C301B2010E94C5C39B01A9
:10518000AC01C501B4010E94C5C34B015C0120E024
:1051900030E040EA51EC0E94ECC587FD28C020E0D9
:1051A00030E040EA51E4C501B4010E94C5BF1816C1
:1051B000F4F0F6012081318142815381C501B401AF
:1051C0000E94C5C39B01AC01C301B2010E94C6C3CA
:1051D000D7016D937D938D939C931397F6018082F5
:1051E0009182A282B3828BAD9CADD5D62FC0EDED5E
:1051F000FAE084918F010F5F1F4F882321F00E94F6
:10520000A433F801F6CFE4E5F7E084918F010F5F56
:105210001F4F882321F00E94A433F801F6CF61E0EC
:1052200086E497E00E94C4930E94624E88E290E078
:105230009A83898388EC90E099A388A3BE016F5F6D
:105240007F4FCE0180960E946F3FE4C0F4E0CF0E06
:10525000D11C0C5F1F4F24E0E20EF11C0C30110535
:1052600009F049CF6BD70E94E73760E086E397E00B
:105270000E94C49383E992E099A388A304E610E016
:105280001A830983BE01605E7F4FCE0101960E94A2
:105290006F3F8AEB92E099A388A31A830983BE012A
:1052A000605E7F4FCE0101960E946F3FB3C0EDED6F
:1052B000FAE084918F010F5F1F4F882321F00E9435
:1052C000A433F801F6CFE2E7F7E084918F010F5F96
:1052D0001F4F882309F49EC00E94A433F801F5CF24
:1052E0000E94346880E00E94C36494C00E943468C5
:1052F00091C083E50E94DA31882319F00E94983129
:1053000001C081E091E089270E94C36483C0849139
:105310008F010F5F1F4F882321F00E94A433F801F3
:10532000F6CFE3E8F7E084918F010F5F1F4F8823EA
:1053300009F470C00E94A433F801F5CF81E0809396
:105340006E0210927A0483E50E94DA31811103C063
:105350000E9470AF5FC0ECD781115CC0F9CFF090B4
:105360009103FF2029F1E6E4FEE184918F010F5FB4
:105370001F4F882321F00E94A433F801F6CF84E563
:105380000E94A4336F2D70E080E090E04AE00E941C
:10539000DC3380E20E94A4330BEE12E0D8018D9141
:1053A0008D01882311F40C943B200E94A433F6CF86
:1053B00010928B03E6E4FEE184918F010F5F1F4F93
:1053C000882321F00E94A433F801F6CF60E070E05A
:1053D00082E997E00E949AAF8AE00E94A4331AC043
:1053E000E6E4FEE184918F010F5F1F4F882321F0D7
:1053F0000E94A433F801F6CF609107127091081251
:1054000084EA97E00E94B3AF82E20E94A4338AE06C
:105410000E94A4330E9451AFD6C44091880350919A
:105420008903452B39F4AF01415051095093890349
:105430004093880340E050E00C94C31258D7AB016E
:10544000BC0140933111509332116093331170932A
:10545000341180E890E10E942B76DCCF61E0802F50
:105460000E94B8A96E2D802F0E9489A9F12CB70146
:10547000802F0E94F4A90930110561F6F0922304EF
:10548000E0922204C7CF63D70E940AC5709321041B
:105490006093200480E00E94475659D720E030E016
:1054A0004AEA52E40E94C5BF181644F00E94708672
:1054B00060E08DEB93E00E94C49302C00E94C03F65
:1054C0006091200470912104072E000C880B990B29
:1054D0000E94CBBF2091A3083091A4084091A50859
:1054E0005091A6080E94ECC51816B4F480EE92E024
:1054F0009F938F9380918A0390E001969F938F935F
:1055000086EB93E09F938F931F920E94A33F0FB669
:10551000F894DEBF0FBECDBF0E9423BB81E0809315
:10552000880223961CAE1DAE1EAE1FAE2397279693
:105530001CAE1DAE1EAE1FAE27971BAE2C961FAE27
:105540002C979CE360969FAF6097ACE16496AFAFF9
:105550006497B6E46896BFAF6897C12CD12C80E8F9
:10556000E82E9FEBF92E812C912C540160912004A0
:1055700070912104072E000C880B990B0E94CBBF61
:10558000162F072F782E692E262F372F482F592FA9
:10559000B601C7010E94C5BF882321F12091A3084D
:1055A0003091A4084091A5085091A608612F702F52
:1055B000872D962D0E94C5BF881F8827881F8BAF17
:1055C0002896CFAC2897CC2089F0882379F0809159
:1055D0008802882309F41ECF60E084EA93E00E94E9
:1055E000C49318CF1C2D0D2D7E2C6F2C0E94F3AA76
:1055F0006B017C01DC01CB0127962CAD3DAD4EAD9E
:105600005FAD2797821B930BA40BB50BB7FD3DC075
:10561000D701C60188519C4FAF4FBF4F27968CAF23
:105620009DAFAEAFBFAF27970E949738E2EBF3E094
:1056300084912F019FEF491A590A882321F00E9473
:10564000A433F201F5CF81149104A104B104B9F09F
:10565000D501C401805F984DAF4FBF4FBC01CD0154
:105660006C197D098E099F0928EE33E040E050E077
:105670000E948AC3CA01B9010E947E3403C08FE32D
:105680000E94A4338AE00E94A4330E94FDAC0E94D1
:1056900099332090A3083090A4084090A50850901A
:1056A000A6089101A201612F702F872D962D0E94CF
:1056B000C5C39F7781149104A104B10449F420E08B
:1056C00030E040E85FE30E94C5BF87FF0BC008C021
:1056D00020E030E040E450E40E94ECC5181614F4D9
:1056E00046015701ABADAA2309F443C023962CAD64
:1056F0003DAD4EAD5FAD23972115310541055105F7
:1057000041F0D701C601821B930BA40BB50BB7FD6B
:1057100030C09101A2012C966FAD2C9760967FADA1
:10572000609764968FAD649768969FAD68970E9466
:10573000C5C320E030E040EC5FE30E94C5BF87FDB9
:1057400046CFD701C601805A9541AF4FBF4F239630
:105750008CAF9DAFAEAFBFAF23972C962FAE2C97DB
:1057600060963FAE609764964FAE649768965FAE62
:10577000689780918802882309F429CF81149104C5
:10578000A104B10429F4C12ED02EE72CF62CEECEC4
:1057900090E1C91A97E2D90AE108F108C818D908B6
:1057A000EA08FB08F7FE13CFEECFD1D50E940AC559
:1057B0006739710514F066E970E070931F04609317
:1057C0001E040E94FC55C3D520E030E040EA50E4BE
:1057D0000E94ECC5181614F40E94C03F81E080932B
:1057E000880280918B0380938A0323961CAE1DAEA2
:1057F0001EAE1FAE239727961CAE1DAE1EAE1FAE6B
:1058000027971BAE2C961FAE2C97ACE36096AFAFDC
:105810006097BCE16496BFAF6497E6E46896EFAF2B
:105820006897C12CD12C10E8E12E0FEBF02E812CC3
:10583000912C540160911E0470911F04072E000CDE
:10584000880B990B0E94CBBF162F072F782E692E3D
:10585000262F372F482F592FB601C7010E94C5BFE9
:10586000882321F12091A7083091A8084091A90828
:105870005091AA08612F702F872D962D0E94C5BFC9
:10588000881F8827881F8BAF2896CFAC2897CC20FD
:1058900089F0882379F080918802882309F4BACDB1
:1058A00060E081ED93E00E94C493B4CD1C2D0D2DDA
:1058B0007E2C6F2C0E94F3AA6B017C01DC01CB01D2
:1058C00027962CAD3DAD4EAD5FAD2797821B930B58
:1058D000A40BB50BB7FD39C0D701C60188519C4F49
:1058E000AF4FBF4F27968CAF9DAFAEAFBFAF2797DF
:1058F0000E949738EBEDF3E084912F019FEF491A56
:10590000590A882319F020D7F201F6CF81149104A7
:10591000A104B104B1F0D501C401805F984DAF4F2F
:10592000BF4FBC01CD016C197D098E099F0928EE7E
:1059300033E040E050E00E948AC3CA01B901DED7DB
:1059400002C08FE301D78AE0FFD60E94FDACF1D6FA
:105950002090A7083090A8084090A9085090AA0865
:105960009101A201612F702F872D962D0E94C5C332
:105970009F7781149104A104B10449F420E030E040
:1059800040E85FE30E94C5BF87FF0BC008C020E06E
:1059900030E040E450E40E94ECC5181614F44601CF
:1059A0005701ABADAA2309F443C023962CAD3DADFE
:1059B0004EAD5FAD2397211531054105510541F0ED
:1059C000D701C601821B930BA40BB50BB7FD30C0EA
:1059D0009101A2012C966FAD2C9760967FAD6097D8
:1059E00064968FAD649768969FAD68970E94C5C313
:1059F00020E030E040EC5FE30E94C5BF87FD4BCF65
:105A0000D701C601805A9541AF4FBF4F23968CAF47
:105A10009DAFAEAFBFAF23972C962FAE2C9760965D
:105A20003FAE609764964FAE649768965FAE689796
:105A300080918802882309F42ECF81149104A10457
:105A4000B10429F4C12ED02EE72CF62CF3CE90E130
:105A5000C91A97E2D90AE108F108C818D908EA0872
:105A6000FB08F7FE18CFEECF0E94E35A88E5A2D4D8
:105A7000882319F05F9A1092940689E59BD48823B5
:105A800019F08A9A109295068AE594D4882359F0E1
:105A90009FB7F894809108018160809308019FBFAF
:105AA000479A1092960685E485D4882309F4B2CCEF
:105AB000129AB0CC29964EAD5FAD299714161506F3
:105AC0000CF047C1CE57DF4F88809980AA80BB80F9
:105AD000C258D040880E991EAA1EBB1ECE57DF4F5B
