:100000000C94FD100C942E110C942E110C942E11A6
:100010000C942E110C942E110C942E110C942E1164
:100020000C942E110C942E110C942E110C942E1154
:100030000C942E110C942E110C942E110C942E1144
:100040000C942E110C9425600C942E110C942E11EE
:100050000C942E110C942E110C94819F0C94D0AE04
:100060000C942E110C9460390C942E110C942E11BA
:100070000C942E110C942E110C942E110C942E1104
:100080000C942E110C942E110C942E110C942E11F4
:100090000C942E110C942E110C942E110C942E11E4
:1000A0000C942E110C942E110C942E110C942E11D4
:1000B0000C942E110C942E110C942E110C942E11C4
:1000C0000C942E110C942E110C942E110C942E11B4
:1000D0000C942E110C942E110C942E110C942E11A4
:1000E0000C942E119BAC9EAC8DAC91AC97ACD5AC66
:1000F000A2ACA6ACACACB0ACB4ACBAACBEACC2AC0E
:10010000D5ACC8ACCCACD0ACECADF1ADF6AD00AE7E
:100110000AAE83AE14AE1CAE24AE2EAE38AE42AEE6
:1001200051AE5BAE83AE65AE6FAE79AE084AD73BDB
:100130003BCE016E84BCBFFDC12F3D6C74319ABDB6
:1001400056833DDA3D00C77F11BED9E4BB4C3E91DA
:100150006BAAAABE000000803F05A84CCDB2D44EC9
:10016000B93836A9020C50B9918688083CA6AAAACB
:100170002ABE000000803F004E414E494E4954596E
:10018000494E46CDCCCC3D0AD7233C17B7D1387762
:10019000CC2B329595E6241FB14F0A000020410078
:1001A00000C84200401C4620BCBE4CCA1B0E5AAEC2
:1001B000C59D74434F4D4D554E49434154494F4E93
:1001C0000044525952554E004552524F5253004925
:1001D0004E464F004543484F0020746F6F206C6FB0
:1001E0006E6720657874727573696F6E20707265C2
:1001F00076656E7465640A0020636F6C64206578B0
:1002000074727573696F6E2070726576656E746551
:10021000640A0047322F47332062616420706172A4
:10022000616D65746572730A00536C6565702E2E7E
:100230002E00416E7963756269632069332B2072E9
:10024000656164792E00526573756D696E67207003
:1002500072696E7400436C69636B20746F20726501
:1002600073756D652E2E2E004E6F206D6F76652E88
:1002700000456E642066696C65206C6973740A00C1
:10028000426567696E2066696C65206C6973740AE3
:10029000005344207072696E74696E6720627974CD
:1002A0006520004E6F74205344207072696E74692B
:1002B0006E670A0046696C652064656C65746564E8
:1002C0003A0044656C6574696F6E206661696C659F
:1002D000642C2046696C653A20006F70656E20665C
:1002E00061696C65642C2046696C653A200025695B
:1002F000730025696D2025697300256968202569CB
:100300006D202569730025696420256968202569A9
:100310006D20256973002569792025696420256988
:10032000682025696D20256973005072696E7420FC
:1003300074696D653A200050726F7465637465640A
:100340002050696E0A0045256920257300416E79A9
:1003500063756269632069332B2072656164792E4D
:1003600000D401CF01C801C101B3016F666600442A
:10037000454255473A004B494C4C45442E20006FAE
:100380006B0048656174696E6720646F6E652E004E
:100390003F0A0020573A0045256920257300416E29
:1003A0007963756269632069332B207265616479B2
:1003B0002E0042656420646F6E652E003F0A0020A7
:1003C000573A004265642048656174696E672E0083
:1003D000416E7963756269632069332B204F6666CD
:1003E0002E004649524D574152455F4E414D453AC8
:1003F0004D61726C696E20312E312E332028476991
:10040000746875622920534F555243455F434F44EA
:10041000455F55524C3A68747470733A2F2F676970
:10042000746875622E636F6D2F4D61726C696E46D4
:1004300069726D776172652F4D61726C696E2050C3
:10044000524F544F434F4C5F56455253494F4E3ACB
:10045000312E30204D414348494E455F5459504557
:100460003A416E7963756269632069332B20455880
:100470005452554445525F434F554E543A312055DE
:100480005549443A63656465326132662D343161A1
:10049000322D343734382D396231322D633535639E
:1004A00036326633363766660A007A5F6D696E3AB1
:1004B0002000795F6D696E3A2000785F6D696E3A51
:1004C00020005265706F7274696E6720656E647388
:1004D000746F70207374617475730A004D31343514
:1004E00020533C696E6465783E206F7574206F669A
:1004F0002072616E67652028302D31290A00206442
:100500003A0020693A0020703A0043290A006162EB
:100510006C656420286D696E2074656D70200043E1
:100520006F6C6420657874727564657320617265A0
:10053000200023646566696E652020444546415568
:100540004C545F4B64200023646566696E6520200F
:1005500044454641554C545F4B6920002364656611
:10056000696E65202044454641554C545F4B7020D0
:1005700000504944204175746F74756E652066693A
:100580006E697368656421205075742074686520F5
:100590006C617374204B702C204B6920616E642059
:1005A0004B6420636F6E7374616E74732066726F38
:1005B0006D2062656C6F7720696E746F20436F6E7B
:1005C00066696775726174696F6E2E680A005049BA
:1005D00044204175746F74756E65206661696C6541
:1005E00064212074696D656F75740A005049442058
:1005F0004175746F74756E65206661696C65642100
:100600002054656D706572617475726520746F6FCA
:1006100020686967680A00204B643A2000204B6913
:100620003A2000204B703A20000A20436C6173731B
:10063000696320504944200A002054753A20002064
:100640004B753A2000206D61783A2000206D696E6C
:100650003A200020643A200020626961733A200049
:100660004F666673657473206170706C69656400B1
:100670004572723A20546F6F206661722100546F88
:100680006F206661722066726F6D2072656665729A
:10069000656E636520706F696E740A00454550523F
:1006A0004F4D2064697361626C65640A004E6F206F
:1006B00063617365206C696768740A0041637469DB
:1006C00076652045787472756465723A2000556EBF
:1006D0006B6E6F776E20636F6D6D616E643A202272
:1006E000004E6F204C696E65204E756D62657220FC
:1006F0007769746820636865636B73756D2C204C33
:10070000617374204C696E653A20004B494C4C452E
:10071000442E200053544F505045442E2000507218
:10072000696E7465722073746F707065642064758F
:100730006520746F206572726F72732E204669781F
:1007400020746865206572726F7220616E64207516
:100750007365204D39393920746F20726573746167
:1007600072742E202854656D70657261747572659F
:100770002069732072657365742E20536574206937
:100780007420616674657220726573746172746935
:100790006E67290A004E6F20436865636B73756D41
:1007A0002077697468206C696E65206E756D62656E
:1007B000722C204C617374204C696E653A20006382
:1007C0006865636B73756D206D69736D61746368C3
:1007D0002C204C617374204C696E653A20004C6982
:1007E0006E65204E756D626572206973206E6F7440
:1007F000204C617374204C696E65204E756D626586
:10080000722B312C204C617374204C696E653A2038
:10081000004D313130004D3331004D3834205820F7
:1008200059205A2045005344207265616420657246
:10083000726F720A00446F6E65207072696E74691F
:100840006E672066696C650A0020496E76616C6986
:1008500064206578747275646572200000005C43E2
:1008600000005C4300007A4300000000000000002C
:10087000000000002042403A0020403A00202F00B3
:1008800020423A00202F0020543A00205A3A0020FB
:10089000593A0020436F756E7420583A0020453A4B
:1008A00000205A3A0020593A00583A0053657474AF
:1008B000696E672054726176656C20416363656C74
:1008C00065726174696F6E3A200053657474696E65
:1008D00067205265747261637420416363656C655F
:1008E000726174696F6E3A200053657474696E6743
:1008F000205072696E7420416363656C6572617427
:10090000696F6E3A200053657474696E6720507287
:10091000696E7420616E642054726176656C20414A
:100920006363656C65726174696F6E3A2000205A6A
:1009300000205900580020204D61783A2000205AAC
:1009400000205900580020204D696E3A20004F6E5B
:1009500020004F666600536F667420656E64737482
:100960006F70733A20004B494C4C45442E200020B8
:100970002D20496E76616C696420657874727564A7
:100980006572206E756D62657220210A002D2D2D15
:100990002D2D2D007C4D61726C696E7C002D2D2DEE
:1009A0002D2D2D00687474703A2F2F6D61726C6953
:1009B0006E66772E6F726700687474703A2F2F6DB1
:1009C00061726C696E66772E6F72670020312E310E
:1009D0002E33002020506C616E6E65724275666623
:1009E000657242797465733A20002046726565200D
:1009F0004D656D6F72793A2000436F6D70696C655B
:100A0000643A204A616E20313820323031390A0090
:100A1000207C20417574686F723A20546F6269615E
:100A2000732052656974686D656965720A003230B9
:100A300031372D30362D30342031323A30300020ED
:100A40004C61737420557064617465643A200031A0
:100A50002E312E330A004D61726C696E0020536F87
:100A60006674776172652052657365740A00205759
:100A700061746368646F672052657365740A00204F
:100A800042726F776E206F75742052657365740AB9
:100A9000002045787465726E616C205265736574D0
:100AA0000A00506F77657255700A00737461727432
:100AB0000A006572726F722077726974696E6720BE
:100AC000746F2066696C650A00456E6473746F709C
:100AD0007320256320256320256320256300205A89
:100AE0003A0020593A0020583A00656E6473746FDA
:100AF0007073206869743A2000446F6E65207361DA
:100B000076696E672066696C652E0A004D32390081
:100B100043616E6E6F7420656E74657220737562CA
:100B20006469723A2000052E2E004D61696E004DF9
:100B300061782054656D703A20313130004D696E16
:100B40002054656D703A203500544265643A455032
:100B5000434F53203130304B004D61782054656D48
:100B6000703A20323630004D696E2054656D703A0F
:100B700020350054303A204550434F532031303017
:100B80004B00506F77657220537570706C793A2006
:100B900047656E657269630050726F746F636F6C46
:100BA0003A20312E3000426175643A2032353030BF
:100BB00030300052414D505320312E33004578746F
:100BC0007275646572733A203100687474703A2FDC
:100BD0002F6D61726C696E66772E6F726700416E61
:100BE0007963756269632069332B00323031372DA8
:100BF00030362D30342031323A303000312E312E23
:100C000033004D61726C696E00546865726D697372
:100C1000746F727300426F61726420496E666F0078
:100C20005072696E74657220496E666F004D61691D
:100C30006E0053442063617264206F6B0A006F7012
:100C4000656E526F6F74206661696C65640A007628
:100C50006F6C756D652E696E6974206661696C656F
:100C6000640A00534420696E6974206661696C0AE5
:100C7000006175746F25692E67004D3234004D3266
:100C8000332025730057726974696E6720746F2072
:100C900066696C653A20006F70656E206661696CEC
:100CA00065642C2046696C653A20006F70656E2083
:100CB0006661696C65642C2046696C653A20004663
:100CC000696C652073656C65637465640A00205304
:100CD000697A653A200046696C65206F70656E65BB
:100CE000643A20006F70656E206661696C65642CE3
:100CF0002046696C653A20002066696C653A2000E0
:100D00004E6F7720002220706F7300222070617276
:100D1000656E743A2200535542524F5554494E4520
:100D20002043414C4C207461726765743A22004B39
:100D3000494C4C45442E2000747279696E672074CA
:100D40006F2063616C6C207375622D67636F6465DF
:100D50002066696C6573207769746820746F6F20F2
:100D60006D616E79206C6576656C732E204D4158EF
:100D7000206C6576656C2069733A004572726F72FB
:100D80003A00526573746F7265206661696C7361B5
:100D900066650046696C616D656E74004D6F7469BF
:100DA0006F6E0054656D7065726174757265004D8B
:100DB00061696E005072656865617420414253201C
:100DC000636F6E66005072656865617420504C41B7
:100DD00020636F6E66005049442D44005049442DF5
:100DE00044005049442D49005049442D4900504980
:100DF000442D50005049442D50002002204661638C
:100E0000740020022046616374002002204D617846
:100E1000002002204D6178002002204D61780020E2
:100E200002204D696E002002204D696E00200220D4
:100E30004D696E004F6666004F6E20004175746FFD
:100E400074656D700046616E207370656564004660
:100E5000616E20737065656400426564004265647C
:100E6000004E6F7A7A6C65004E6F7A7A6C6500433B
:100E70006F6E74726F6C0042656400426564004E70
:100E80006F7A7A6C65004E6F7A7A6C650046616E97
:100E90002073706565640046616E207370656564DB
:100EA0000054656D70657261747572650056547298
:100EB0006176206D696E005654726176206D696EA0
:100EC000005654726176206D696E00566D696E0031
:100ED000566D696E00566D696E00566D61782045DD
:100EE00000566D6178204500566D617820450056AA
:100EF0006D6178205A00566D6178205A00566D61F8
:100F000078205A00566D6178205900566D6178201E
:100F10005900566D6178205900566D61782058004F
:100F2000566D6178205800566D61782058004D6FDD
:100F300074696F6E005072656865617420504C4131
:100F400020426564005072656865617420504C41B0
:100F500020456E64005072656865617420504C4194
:100F600000507265706172650050726568656174E9
:100F70002041425320426564005072656865617487
:100F80002041425320456E6400507265686561746B
:100F9000204142530050726570617265004D3432D9
:100FA00038005072656865617420504C4100436F91
:100FB0006F6C646F776E0050726568656174204174
:100FC00042530044697361626C652073746570708C
:100FD000657273004D38340053657420686F6D6519
:100FE000206F666673657473004175746F20686F57
:100FF0006D6500473238004D6F7665206178697302
:10100000004D61696E004D6F76652058004D6F761A
:10101000652059004D6F7665205A004578747275C9
:10102000646572004D6F766520302E316D6D004D18
:101030006F766520316D6D004D6F76652031306DB6
:101040006D004D6F76652061786973004578747224
:1010500075646572004D6F7665205A004D6F766538
:101060002059004D6F76652058004578747275647C
:101070006572004D6F7665205A004D6F7665205978
:10108000004D6F7665205800507265706172650082
:1010900024F4D43050C38E20C2A24017828B70112A
:1010A000127A910D816CD90AA861E108C7586607C8
:1010B000615143061E4B5D05C145A7041A41110449
:1010C000093D9803713931034036DB0265339102E3
:1010D000D4305402802E1D02632CEE01752AC50106
:1010E000B028A001102781018F2564012B244B011A
:1010F000E0223401AC211F018D200D01801FFC0076
:10110000841EED00971DDF00B81CD200E61BC60050
:10111000201BBC00641AB200B219A8000A19A00072
:101120006A189900D117910040178B00B5168400FA
:1011300031167E00B31579003A157300C7146F009D
:1011400058146A00EE1366008813630025135E00CE
:10115000C7125B006C12570015125400C1115100E8
:1011600070114F0021114B00D61049008D1047001F
:101170004610440002104200C00F4000800F3E00A5
:10118000420F3C00060F3B00CB0E3800930E370099
:101190005C0E3500270E3400F30D3200C10D310016
:1011A000900D3000600D2E00320D2D00050D2C002D
:1011B000D90C2B00AE0C2900850C29005C0C2700F3
:1011C000350C27000E0C2600E80B2400C40B24006D
:1011D000A00B23007D0B23005A0B2100390B2100AB
:1011E000180B2000F80A1F00D90A1E00BB0A1E00B7
:1011F0009D0A1D00800A1D00630A1C00470A1B008F
:101200002C0A1B00110A1A00F7091A00DD0919003F
:10121000C4091900AB091900920917007B091800CD
:10122000630917004C09160036091600200916003C
:101230000A091500F5081500E0081400CC08140090
:10124000B8081400A4081400900813007D081200C8
:101250006B081300580812004608120034081100E9
:10126000230811001208110001081100F0071000F6
:10127000E0071000D0071000C0071000B0070F00F3
:10128000A107100091070E0083070F0074070F00DD
:1012900065070E0057070E0049070E003B070D00BB
:1012A0002E070E0020070D0013070D0006070D0086
:1012B000F9060C00ED060D00E0060C00D4060C004B
:1012C000C8060C00BC060C00B0060C00A4060B00FF
:1012D00099060C008D060B0082060B0077060B00AA
:1012E0006C060B0061060A0057060B004C060A004C
:1012F00042060A0038060A002E060A0024060A00E2
:101300001A060A001006090007060A00FD05090072
:10131000F4050900EB050900E2050900D9050900FB
:10132000D0050900C7050900BE050900B50508007C
:10133000AD050800A50509009C05080094050800F6
:101340008C050800840508007C0508007405080069
:101350006C050700650508005D05070056050800D7
:101360004E0507004705070040050800380507003F
:10137000310507002A050700230507001C050600A4
:10138000160507000F0507000805060002050700FF
:10139000FB040600F5040700EE040600E80406005E
:1013A000E2040700DB040600D5040600CF040600B3
:1013B000C9040600C3040600BD040600B704060005
:1013C000B1040500AC040600A6040600A004050054
:1013D0009B04060095040500900406008A0405009D
:1013E00085040500800406007A04050075040500E4
:1013F000700405006B040500660405006104050027
:101400005C04050057040500520405004D04050066
:1014100048040500430405003E0404003A040500A6
:1014200035040500300404002C04050027040400E2
:10143000230405001E0404001A0404001604050019
:10144000110404000D040400090405000404040050
:1014500000040400FC030400F8030400F403040087
:10146000F0030400EC030400E8030400E4030400B8
:10147000E0030400DC030400D8030400D4030400E8
:10148000D0030400CC030400C8030300C503030019
:1014900024F404D9201BC40C5C0E9804C4095F0218
:1014A00065077101F405F900FB04B30048048700E7
:1014B000C10369005803550003034500BE023A000A
:1014C0008402310053022A00290225000402200070
:1014D000E4011C00C8011900AF01170098011400B5
:1014E00084011300710110006101100051010E0010
:1014F00043010D0036010B002B010B0020010B00F6
:10150000150109000C01090003010800FB00080097
:10151000F3000800EB000700E4000600DE00060010
:10152000D8000600D2000600CC000500C700050068
:10153000C2000500BD000400B9000400B5000400AD
:10154000B1000400AD000400A9000400A5000300E0
:10155000A20003009F0004009B000300980003000A
:101560009500020093000300900003008D0002002C
:101570008B00030088000200860002008400030044
:10158000810002007F0002007D0002007B0002005B
:10159000790002007700010076000200740002006A
:1015A00072000100710002006F0002006D00010076
:1015B0006C0002006A00010069000200670001007F
:1015C0006600010065000100640002006200010085
:1015D00061000100600001005F0002005D00010089
:1015E0005C0001005B0001005A000100590001008D
:1015F000580001005700010056000100550001008D
:10160000540001005300000053000100520001008B
:1016100051000100500001004F0001004E00000089
:101620004E0001004D0001004C0001004B00000085
:101630004B0001004A000100490001004800000081
:10164000480001004700010046000000460001007C
:101650004500000045000100440001004300000077
:101660004300010042000000420001004100000070
:1016700041000100400001003F0000003F00010068
:101680003E0000003E0001003D0000003D00010062
:101690003C0000003C0000003C0001003B0000005A
:1016A0003B0001003A0000003A0001003900000050
:1016B0003900010038000000380000003800010047
:1016C000370000003700010036000000360000003F
:1016D0003600010035000000350000003500010033
:1016E000340000003400000034000100330000002A
:1016F000330000003300010032000000320000001F
:101700003200010031000000310000003100010012
:101710003000000030000000300001002F00000009
:101720002F0000002F0000002F0001002E000000FD
:101730002E0000002E0001002D0000002D000000F2
:101740002D0000002D0001002C0000002C000000E6
:101750002C0000002C0001002B0000002B000000DA
:101760002B0000002B0001002A0000002A000000CE
:101770002A0000002A0001002900000029000000C2
:1017800029000000290000002900010028000000B5
:1017900028000000280000002800000028000100A8
:1017A000270000002700000027000000270000009D
:1017B000270001002600000026000000260000008F
:1017C0002600000026000100250000002500000082
:1017D0002500000025000000250000002500010074
:1017E0002400000024000000240000002400000069
:1017F000240001002300000023000000230000005B
:10180000230000002300000023000000230001004B
:101810002200000022000000220000002200000040
:101820002200000022000100210000002100000031
:101830002100000021000000210000002100000024
:101840002100010020000000200000002000000016
:101850002000000020000000200000002000000008
:10186000200001001F0000001F0000001F000000FA
:101870001F0000001F0000001F0000001F000100EB
:101880001E0000001E0000001E0000001E000000E0
:101890004D383420582059205A2045006265640A8A
:1018A000002C2073797374656D2073746F7070658C
:1018B0006421204865617465725F49443A2000489C
:1018C000656174696E67206661696C65640048656E
:1018D0006174696E67206661696C65640048656162
:1018E00074696E67206661696C656400486561743F
:1018F000696E67206661696C65640025753A2530FC
:10190000327500253032753A25303275002D2D2D77
:10191000005344005A0059005800012000507269D9
:101920006E742070617573656400005072696E7426
:101930002061626F72746564004E6F2053442063AF
:10194000617264005072696E742066726F6D20530C
:10195000440053746F70207072696E740052657326
:10196000756D65207072696E740041626F757420C8
:101970005072696E74657200506175736520707283
:10198000696E7400436F6E74726F6C005072657094
:101990006172650054756E6500496E666F207363F1
:1019A0007265656E00466C6F7700466C6F77004617
:1019B000616E2073706565640046616E20737065AA
:1019C00065640042656400426564004E6F7A7A6C1B
:1019D00065004E6F7A7A6C650053706565640053DC
:1019E00070656564004D61696E00416D61782045E8
:1019F00000416D6178204500416D6178205A0041B9
:101A00006D6178205A00416D6178205900416D6107
:101A100078205900416D6178205800416D6178202F
:101A20005800412D74726176656C00412D747261AD
:101A300076656C00412D7265747261637400412D8E
:101A40007265747261637400416363656C00416325
:101A500063656C004D6F74696F6E0056652D6A6525
:101A6000726B0056652D6A65726B0056652D6A654E
:101A7000726B00567A2D6A65726B00567A2D6A6514
:101A8000726B0056792D6A65726B0056792D6A6506
:101A9000726B0056792D6A65726B0056782D6A65F7
:101AA000726B0056782D6A65726B0056782D6A65E8
:101AB000726B004D6F74696F6E004573746570735F
:101AC0002F6D6D004573746570732F6D6D005A73C3
:101AD000746570732F6D6D005A73746570732F6D1C
:101AE0006D005973746570732F6D6D005973746553
:101AF00070732F6D6D005873746570732F6D6D006A
:101B00005873746570732F6D6D004D6F74696F6ECF
:101B10000053746570732F6D6D004A65726B0041E0
:101B20006363656C65726174696F6E0056656C6F96
:101B30006369747900436F6E74726F6C0046696CF0
:101B40002E204469612E0046696C2E204469612E66
:101B5000004F6666004F6E20004520696E206D6D57
:101B60003300436F6E74726F6C0048617264636F10
:101B70006465642044656661756C74205365747493
:101B8000696E6773204C6F616465640A00204400CD
:101B900020490020204D333031205000504944204E
:101BA00073657474696E67733A0A002046002042B8
:101BB0000020480020204D3134352053004D617401
:101BC000657269616C2068656174757020706172FE
:101BD000616D65746572733A0A00205A00205900DD
:101BE00020204D323036205800486F6D65206F66DA
:101BF000667365743A0A00204500205A0020590097
:101C000020580020420020540020204D3230352042
:101C10005300416476616E6365643A20533C6D699C
:101C20006E5F66656564726174653E20543C6D69E3
:101C30006E5F74726176656C5F666565647261740F
:101C4000653E20423C6D696E5F7365676D656E74BD
:101C50005F74696D655F6D733E20583C6D61785FA0
:101C600078795F6A65726B3E205A3C6D61785F7A65
:101C70005F6A65726B3E20453C6D61785F655F6AA7
:101C800065726B3E0A0020540020520020204D3225
:101C90003034205000416363656C65726174696F14
:101CA0006E2028756E6974732F7332293A20503C68
:101CB0007072696E745F616363656C3E20523C7242
:101CC0006574726163745F616363656C3E20543C4C
:101CD00074726176656C5F616363656C3E0A0020B7
:101CE0004500205A0020590020204D323031205824
:101CF000004D6178696D756D20416363656C657237
:101D00006174696F6E2028756E6974732F73322940
:101D10003A0A00204500205A0020590020204D3268
:101D200030332058004D6178696D756D20666565AA
:101D30006472617465732028756E6974732F7329DA
:101D40003A0A00204500205A0020590020204D3931
:101D50003220580053746570732070657220756E60
:101D600069743A0A0020204D3230302044300A0095
:101D700020204D3230302044002044697361626C71
:101D800065640A0046696C616D656E7420736574E4
:101D900074696E67733A0020204D31343920432036
:101DA0003B20556E69747320696E2043656C7369BE
:101DB00075730A002020473231202020203B205517
:101DC0006E69747320696E206D6D0A0020746F6FE8
:101DD000206C6F6E6720657874727573696F6E2002
:101DE00070726576656E7465640A0020636F6C645A
:101DF00020657874727573696F6E20707265766590
:101E00006E7465640A0043616E6E6F74206F706556
:101E10006E2073756264697220006563686F3A00B2
:101E20007C3C3E5E2B3D3F2F5B5D3B2C2A225C00C1
:101E3000436172642072656D6F7665640043617200
:101E40006420696E7365727465640070012C019082
:101E5000012701B0012201C0011D01F0011801108C
:101E600002130130020E016002090190020401C058
:101E700002FF000003FA004003F5008003F000D0E9
:101E800003EB002004E6007004E100E004DC004005
:101E900005D700C005D2004006CD00D006C800809E
:101EA00007C3003008BE00F008B900C009B400B094
:101EB0000AAF00B00BAA00D00CA500000EA0005085
:101EC0000F9B00C01096005012910000148C00C0AF
:101ED000158700B0178200B0197D00D01B78000074
:101EE0001E730040206E0090226900F024640040C0
:101EF000275F0090295A00E02B5500102E5000203B
:101F0000304B0010324600E033410090353C001069
:101F100037370070383200A0392D00B03A2800A0C1
:101F20003B2300603C1E00103D1900903D14001042
:101F30003E0F00703E0A00C03E0500003F0000401A
:101F40003FFBFF803FF6FFC03FF1FF544845524D35
:101F5000414C2052554E4157415900546865726DAD
:101F6000616C2052756E61776179004572723A201A
:101F70004D494E54454D5020424544004572723AF9
:101F8000204D494E54454D50004D494E54454D50FD
:101F900020747269676765726564004572723A20E1
:101FA0004D415854454D5020424544004572723AC7
:101FB000204D415854454D50004D415854454D50C9
:101FC0002074726967676572656400526573656E37
:101FD000643A20006F6B004B494C4C45442E200066
:101FE0004B494C4C20636175736564206279204BCA
:101FF000494C4C20627574746F6E2F70696E0A00C4
:102000004B494C4C45442E20004B494C4C206361BD
:102010007573656420627920746F6F206D756368D5
:1020200020696E6163746976652074696D65202D21
:102030002063757272656E7420636F6D6D616E647E
:102040003A2000506C656173652072657365740099
:102050005052494E5445522048414C54454400503A
:1020600072696E7465722068616C7465642E206B91
:10207000696C6C28292063616C6C6564210A0065B9
:102080006E7175657565696E67202200000000003D
:1020900000000000000000005761726E696E673A30
:1020A00020486F6D696E672042756D7020446976B7
:1020B00069736F72203C20310A000000A0400000CC
:1020C000A0400000004000005C4300005C430000B2
:1020D0007A43FFFFFF00002100240027002A002D83
:1020E000003000330001010000040107010A010073
:1020F000002200250028002B002E003100340002B1
:10210000010000050108010B01000020002300264A
:102110000029002C002F00320000010000030106FE
:10212000010901050505050705080808080202025E
:10213000020A0A0808040404040101010101010162
:10214000010303030303030303040707070C0C0C39
:102150000C0C0C0C0C020202020606060606060611
:10216000060B0B0B0B0B0B0B0B01021020200808AE
:1021700010204010204080020102010804020101E9
:1021800002040810204080804020100804020180D2
:102190000402018040201008040201080402010129
:1021A0000204081020408001020408102040800032
:1021B000000A0B02090C0D0E0807030401000000C1
:1021C000000000000000000000000000000000000F
:1021D00000000000000000000000001211100000CC
:1021E00000000000000000000000000000000000EF
:1021F0000000000000006AB78AB811241FBECFEFAC
:10220000D1E2DEBFCDBF00E00CBF14E0A0E0B2E041
:10221000E6E8FAE801E00BBF02C007900D92A6368F
:10222000B107D9F723E1A6E6B4E001C01D92A134BD
:10223000B207E1F710E1CCEFD0E100E006C0219752
:102240000109802FFE010E94A6C4CB3FD10780E088
:102250000807A9F70E941AAF0C9432C50C9400002D
:102260002F923F924F925F926F927F928F929F92A6
:10227000AF92BF92CF92DF92EF92FF920F931F9394
:10228000CF93DF93CDB7DEB7CF58D1090FB6F8940F
:10229000DEBF0FBECDBF0091D30620E6029F8001B6
:1022A00011240D5A1A4F80910C0F80FF1AC0EAE1D9
:1022B000FEE184917F013FEFE31AF30A811102C02E
:1022C000780104C00E94F532F701F3CFD7018D9158
:1022D0007D01882319F00E94F532F8CF8AE00E9430
:1022E000F53210929204109291048FE3809395043A
:1022F000109294041092930410928004109281041E
:102300001092820410928304F80180810F5F1F4FA6
:102310008032D1F38E34B1F4818190ED980F9A30F0
:1023200020F08D3211F08B3269F43296DF01319654
:102330002C9120532A30D0F3CD01FC01019620814D
:102340002032D9F3F093F312E093F2127F01BFEF42
:10235000EB1AFB0A10816AE270E0C7010E94FAC41E
:10236000009731F0FC01319780818032E1F31182D6
:102370001D3429F0143519F0173409F0CBC0F701DA
:1023800080812FEFE21AF20A8032C9F380538A303B
:1023900008F0C0C0109395042091930430919404E8
:1023A0004AE03196429FC001439F900D1124DF0106
:1023B00011972C91022E000C330B20533109280F5A
:1023C000391F808180538A3060F3309394042093C6
:1023D0009304DF0131968C918032D9F31D3451F092
:1023E0000091F21260919104709192048824839478
:1023F000912C52C02E31310579F03CF42731310552
:1024000059F02C31310561F707C02537310521F02E
:10241000203A43E0340721F7B0939204A09391044B
:1024200079C0413209F442C0EFEBE40FEA3108F021
:102430005DC0DC017D015D915032E1F3C701A0ED8B
:10244000A50FAA3008F046C0DC01EE2EF12C670182
:1024500043E0D594C7944A95E1F7A60140585B4FF5
:102460006A014E2F4770F40102C0EE0FFF1F4A951C
:10247000E2F7AF01F6015081452B40831097A1F19F
:10248000A01BA7014A595B4FFA01A083DC014C91C4
:1024900041544A3180F5DC01CD0101964C91411146
:1024A000C0CF709392046093910434C01D3409F03E
:1024B000BBCF2032310509F0B7CF909392048093BF
:1024C000910463E270E00E94FAC4009719F1DC0104
:1024D0001C9220C0A3EDA50FA23008F4B5CF5B324B
:1024E00011F00C948529B0CFA0E0CBCF6115710518
:1024F00069F6BD01CBCFAD011196FA0190819053E1
:102500009A30C8F3CA014F5F5F4FFC01A081A0322F
:10251000C9F3C1CF809195048D3411F40C94341B10
:10252000843511F40C944C29873411F00C946829EB
:1025300080919304909194048430910509F476C6B7
:102540005CF497FF02C00C948229209175028230BE
:1025500091050CF010C114C08A35910509F4C2C769
:102560002CF44C9709F4A8C60C9482298B3591055C
:1025700009F4BCC78C35910509F4BDC70C948229B8
:10258000222311F40C9482290E94753280916F02EB
:10259000882321F084E193E10E942E960E94EA3282
:1025A00080910C0F83FD96C0C0902013D090211312
:1025B000E0902213F090231320912E0530912F05E7
:1025C0004091300550913105C701B6010E949EBD72
:1025D000882309F47FC08091070F811137C0809153
:1025E0007F0290918002BC0180E090E00E94A2BD39
:1025F0009B01AC0160918A0E70918B0E80918C0EC4
:1026000090918D0E0E949EBD87FF20C0C0922E0526
:10261000D0922F05E0923005F0923105EAE1FEE11B
:1026200084918F010F5F1F4F882321F00E94F532A4
:10263000F801F6CFE8EFF1E084918F010F5F1F4FB3
:10264000882321F00E94F532F801F6CFC0902013C4
:10265000D0902113E0902213F090231320912E05A7
:1026600030912F054091300550913105C701B601D9
:102670000E949EC10E94E3C297FF07C0909580957B
:10268000709561957F4F8F4F9F4F693C7105810514
:10269000910504F1C0922E05D0922F05E0923005ED
:1026A000F0923105EAE1FEE184918F010F5F1F4F47
:1026B000882321F00E94F532F801F6CFE9EDF1E030
:1026C00084918F010F5F1F4F882321F00E94F53204
:1026D000F801F6CF20911413309115134091161381
:1026E0005091171360912205709123058091240564
:1026F000909125050E949EBD81111DC02091181347
:102700003091191340911A1350911B1360912605B3
:102710007091270580912805909129050E949EBD02
:10272000811109C060910002709101028091020242
:10273000909103021AC06091790270917A02072E7B
:10274000000C880B990B0E94A4BD209100023091CF
:10275000010240910202509103020E9403BE2AE04E
:1027600037ED43E25CE30E9403BE0E94692F0E94A2
:102770005F2F0C948229222311F40C94822911E0FA
:10278000029709F010E00E94753282E50E94AC3198
:10279000882309F452C10E9479316B017C01409079
:1027A0002205509023056090240570902505209106
:1027B00026053091270540912805509129052BAF1A
:1027C0003CAF4DAF5EAF8091141390911513A09163
:1027D0001613B091171323968CAF9DAFAEAFBFAF5A
:1027E0002397209118133091191340911A13509187
:1027F0001B132B962CAF3DAF4EAF5FAF2B9720E056
:1028000030E0A901C701B6010E949EBD882309F4EA
:10281000F3C4A301920123966CAD7DAD8EAD9FAD47
:1028200023970E949EBD81110FC02BAD3CAD4DADD5
:102830005EAD2B966CAD7DAD8EAD9FAD2B970E949E
:102840009EBD882309F4D8C420E030E0A901C70167
:10285000B6010E949EBD881F8827881F18130BC0D1
:1028600080E090E0A0E8BFE367968CAF9DAFAEAF8D
:10287000BFAF67970AC020E030E040E85FEB6796A3
:102880002CAF3DAF4EAF5FAF6797A3019201239688
:102890006CAD7DAD8EAD9FAD23970E949EC12F96EE
:1028A0006CAF7DAF8EAF9FAF2F972BAD3CAD4DADD5
:1028B0005EAD2B966CAD7DAD8EAD9FAD2B970E941E
:1028C0009EC163966CAF7DAF8EAF9FAF63972F961F
:1028D0002CAD3DAD4EAD5FAD2F97CA01B9010E9441
:1028E00003BE4B015C0163962CAD3DAD4EAD5FADBB
:1028F0006397CA01B9010E9403BE9B01AC01C501E7
:10290000B4010E949FC10E940AC427966CAF7DAF9C
:102910008EAF9FAF279720E030E040E05FE30E945A
:1029200003BE4B015C01A7019601C701B6010E94DD
:1029300003BE6B017C01A5019401C501B4010E9495
:1029400003BE9B01AC01C701B6010E949EC10E945B
:102950000AC49B01AC0167966CAD7DAD8EAD9FAD99
:1029600067970E9403BE4B015C0123962CAD3DADE1
:102970004EAD5FAD2397C301B2010E949FC120E01D
:1029800030E040E05FE30E9403BE6B017C01639690
:102990006CAD7DAD8EAD9FAD6397905827962CADF5
:1029A0003DAD4EAD5FAD27970E947BC29B01AC0150
:1029B000C501B4010E9403BE9B01AC01C701B60171
:1029C0000E949FC1A30192010E949EC16B017C01E4
:1029D0002B962CAD3DAD4EAD5FAD2B976BAD7CAD69
:1029E0008DAD9EAD0E949FC120E030E040E05FE3EE
:1029F0000E9403BE2B013C0127962CAD3DAD4EAD90
:102A00005FAD27972F966CAD7DAD8EAD9FAD2F97A7
:102A10000E947BC29B01AC01C501B4010E9403BEB0
:102A20009B01AC01C301B2010E949FC12BAD3CAD23
:102A30004DAD5EAD0E949EC114C089E40E94AC31D0
:102A4000882329F00E9479316B017C0103C0C12CDD
:102A5000D12C76018AE40E94AC318823F9F00E94DF
:102A600079312B966CAF7DAF8EAF9FAF2B9720E067
:102A700030E0A901C701B6010E949EBD81111EC0B0
:102A800020E030E0A9012B966CAD7DAD8EAD9FAD01
:102A90002B970E949EBD811111C0AEC320E030E093
:102AA000A901C701B6010E949EBD882309F4A4C3F1
:102AB0002B961CAE1DAE1EAE1FAE2B97D701C601C6
:102AC000B0588BAF9CAFADAFBEAF2B962CAD3DAD2C
:102AD0004EAD5FAD2B97505823962CAF3DAF4EAF08
:102AE0005FAF23979C01AD01BC01CD010E9403BEE5
:102AF0004B015C0123962CAD3DAD4EAD5FAD2397F0
:102B0000CA01B9010E9403BE9B01AC01C501B40119
:102B10000E949FC10E940AC4A7966CAF7DAF8EAF82
:102B20009FAFA7978091220590912305A09124053E
:102B3000B091250527968CAF9DAFAEAFBFAF27975D
:102B4000A7019601BC01CD010E949FC167966CAFA1
:102B50007DAF8EAF9FAF67972091260530912705F7
:102B600040912805509129052F962CAF3DAF4EAFCF
:102B70005FAF2F972B962CAD3DAD4EAD5FAD2B9734
:102B80002F966CAD7DAD8EAD9FAD2F970E949FC1EE
:102B90006B966CAF7DAF8EAF9FAF6B978091141328
:102BA00090911513A0911613B09117136F968CAFD7
:102BB0009DAFAEAFBFAF6F9767962CAD3DAD4EAD3D
:102BC0005FAD6797BC01CD010E949EC16B017C0186
:102BD000209118133091191340911A1350911B131F
:102BE000A3962CAF3DAF4EAF5FAFA3976B962CADC6
:102BF0003DAD4EAD5FAD6B97A3966CAD7DAD8EAD2B
:102C00009FADA3970E949EC14B015C0180912A0554
:102C100090912B05A0912C05B0912D05AF968CAF0E
:102C20009DAFAEAFBFAFAF979C01AD0160911C13DC
:102C300070911D1380911E1390911F130E949EC1CD
:102C400063966CAF7DAF8EAF9FAF639720912013DB
:102C5000309121134091221350912313AB962CAF46
:102C60003DAF4EAF5FAFAB9780912E0590912F0592
:102C7000A0913005B0913105E3968CAF9DAFAEAF1A
:102C8000BFAFE397A70196016BAD7CAD8DAD9EAD57
:102C90000E9403BE2B013C01A501940123966CAD5B
:102CA0007DAD8EAD9FAD23970E9403BE9B01AC010D
:102CB000C301B2010E949FC12B013C01A5019401F7
:102CC0006BAD7CAD8DAD9EAD0E9403BE4B015C0132
:102CD000A701960123966CAD7DAD8EAD9FAD239778
:102CE0000E9403BE9B01AC01C501B4010E949EC1BC
:102CF000A30192010E9412C26B017C0120E030E02E
:102D0000A9010E949EBD87FF0AC02BED3FE049EC60
:102D100050E4C701B6010E949FC16B017C011123E1
:102D200051F02BED3FE049EC50E4C701B6010E94A1
:102D30009EC16B017C0120E030E0A901C701B60112
:102D40000E949EBD81112AC06F962CAD3DAD4EAD47
:102D50005FAD6F9727966CAD7DAD8EAD9FAD27971C
:102D60000E949EBD81111AC0A3962CAD3DAD4EAD03
:102D70005FADA3972F966CAD7DAD8EAD9FAD2F97B8
:102D80000E949EBD81110AC02BED3FE049EC50E44A
:102D9000C701B6010E949FC16B017C01A7962CADB3
:102DA0003DAD4EAD5FADA797C701B6010E9403BE12
:102DB0009B01AC010E9403BE4B015C0163962CADEC
:102DC0003DAD4EAD5FAD6397CA01B9010E9403BE30
:102DD0009B01AC01C501B4010E949FC10E940AC4BD
:102DE0004B015C012FE632E143E85AE30E949EBDAD
:102DF00087FDFEC1C501B4010E9414C30E94E8C250
:102E00002D967FAF6EAF2D97672B31F421E030E028
:102E10002D963FAF2EAF2D972D96AEACBFAC2D9714
:102E2000B50180E090E00E94A2BD4B015C019B01D6
:102E3000AC01C701B6010E947BC227966CAF7DAF83
:102E40008EAF9FAF2797A501940163966CAD7DADC2
:102E50008EAD9FAD63970E947BC2A7966CAF7DAF8E
:102E60008EAF9FAFA797E3962CAD3DAD4EAD5FAD56
:102E7000E397AB966CAD7DAD8EAD9FADAB970E94E9
:102E80009EC1A50194010E947BC2AB966CAF7DAF41
:102E90008EAF9FAFAB9727962CAD3DAD4EAD5FADDE
:102EA0002797CA01B9010E9403BE20E030E040E04C
:102EB0005FE30E9403BE9B01AC0160E070E080E82C
:102EC0009FE30E949EC163966CAF7DAF8EAF9FAFB4
:102ED0006397AF962CAD3DAD4EAD5FADAF972987F3
:102EE0003A874B875C87E3968CAD9DADAEADBFADA9
:102EF000E3978D879E87AF87B88B60917902709139
:102F00007A02072E000C880B990B0E94A4BD209119
:102F100000023091010240910202509103020E948E
:102F200003BE2AE037ED43E25CE30E9403BE6F96E6
:102F30006CAF7DAF8EAF9FAF6F970E94C4AE9B0109
:102F4000AC0128533F4F4F4F5F4FA3962CAF3DAF7F
:102F50004EAF5FAFA3974BAC5CAC6DAC7EAC2224A4
:102F60002394312CD12C2D96AEACBFAC2D972A14C6
:102F70003B0409F429C10E942B5E0E94C4AEDC010F
:102F8000CB01A3962CAD3DAD4EAD5FADA397821B9B
:102F9000930BA40BB50BB7FD10C00E94C4AE9B01F0
:102FA000AC0128533F4F4F4F5F4FA3962CAF3DAF1F
:102FB0004EAF5FAFA3970E9434A5D39438E13D157F
:102FC0000CF44BC063962CAD3DAD4EAD5FAD639739
:102FD00023966CAD7DAD8EAD9FAD23970E9403BE51
:102FE0004B015C0127962CAD3DAD4EAD5FAD2797F3
:102FF000B201C3010E9403BEA50194010E949FC1BA
:103000007B018C0163962CAD3DAD4EAD5FAD6397FA
:10301000B201C3010E9403BE4B015C0127962CAD97
:103020003DAD4EAD5FAD279723966CAD7DAD8EADBA
:103030009FAD23970E9403BE9B01AC01C501B40163
:103040000E949EC12B013C01C701D80123968CAF81
:103050009DAFAEAFBFAF239756C0B10180E090E007
:103060000E94A2BD27962CAD3DAD4EAD5FAD27971A
:103070000E9403BE4B015C010E9478C26B017C017F
:10308000C501B4010E9400C44B015C01A701960177
:103090006BAD7CAD8DAD9EAD0E9403BE2B013C019E
:1030A000A50194012B966CAD7DAD8EAD9FAD2B9798
:1030B0000E9403BE9B01AC01C301B2010E949FC1EB
:1030C0002B013C01A50194016BAD7CAD8DAD9EAD96
:1030D0000E9403BE4B015C01A70196012B966CADCB
:1030E0007DAD8EAD9FAD2B970E9403BE9B01AC01C1
:1030F000C501B4010E949EC123966CAF7DAF8EAF17
:103100009FAF2397D12C9201A30167966CAD7DAD43
:103110008EAD9FAD67970E949FC169837A838B8331
:103120009C8323962CAD3DAD4EAD5FAD23976B9642
:103130006CAD7DAD8EAD9FAD6B970E949FC16D83D1
:103140007E838F839887A7962CAD3DAD4EAD5FAD46
:10315000A79769857A858B859C850E949FC1698721
:103160007A878B879C87AB962CAD3DAD4EAD5FAD1E
:10317000AB976D857E858F8598890E949FC16D87ED
:103180007E878F87988B80916F02882321F0CE01F4
:1031900001960E942E96C09085046F96ECACFDAC13
:1031A0000EAD1FAD6F979E01235F3F4FAE01475F8E
:1031B0005F4FBE016B5F7F4FCE0101960E9403807F
:1031C0004FEF241A340ACFCEC09085046F96ECAC32
:1031D000FDAC0EAD1FAD6F9720E233E14CE153E142
:1031E00068E173E184E193E10E9403800E945F2F14
:1031F0000E94EA320C948229EBE7FDE084918F0172
:103200000F5F1F4F882321F00E94F532F801F6CF9F
:10321000E3E1F2E084918F010F5F1F4F882311F4E7
:103220000C9482290E94F532F801F4CF80E50E94C7
:10323000AC31882329F00E9439316B017C0103C035
:10324000C12CD12C760183E50E94AC31882361F03A
:103250000E94793120E030E04AE754E40E9403BE46
:103260000E94E8C26B017C010E94D25F0E94EA3298
:103270008091F4129091F512A091F612B091F7128C
:10328000C80ED91EEA1EFB1E80910E02811105C0D8
:1032900060E089E292E00E941F9B0E94C4AEDC01C4
:1032A000CB018C199D09AE09BF09B7FD02C00C9472
:1032B00082290E9434A5F1CF0E94D25F4090000283
:1032C00050900102609002027090030240928D04BF
:1032D00050928E0460928F047092900480917902D3
:1032E00090917A0290938C0480938B0484E690E012
:1032F00090937A02809379020E94EA3281E080936F
:103300000A0288E50E94AC31282E89E50E94AC3182
:10331000082F8AE50E94AC31382E211005C001111A
:1033200005C011E0182705C0011102C010E001C05E
:10333000182F80E1E2E2F5E0A4E1B3E101900D9203
:103340008A95E1F7111105C0211003C0002309F48B
:103350009CC020E030E040EA50E46091041370919A
:10336000051380910613909107130E949FC16B0172
:103370007C0160931C1370931D1380931E13909314
:103380001F1380902A0590902B05A0902C05B090DB
:103390002D05A50194010E94C5C318160CF062C04A
:1033A000A7019601C501B4010E949EBD87FF16C00A
:1033B00080E090E0A0E8B0E48093000290930102E6
:1033C000A0930202B0930302C0922A05D0922B056B
:1033D000E0922C05F0922D050E94822F85E595E55F
:1033E000A5E0B3E48093000290930102A09302024F
:1033F000B09303020E94822FC0901C13D0901D1323
:10340000E0901E13F0901F13A701960160912A050A
:1034100070912B0580912C0590912D050E94C5C3BC
:103420001816B4F480E090E0A0E8B0E480930002C5
:1034300090930102A0930202B0930302C0922A0566
:10344000D0922B05E0922C05F0922D050E94822F40
:103450000E94D25F409200025092010260920202EA
:1034600070920302111105C0211003C0011107C0A1
:103470000CC080E090E00E94ADA31123B9F381E07D
:1034800090E00E94ADA3111102C0332021F082E030
:1034900090E00E94ADA30E941C308091040F8093A5
:1034A0000A0280918D0490918E04A0918F04B091B6
:1034B00090048093000290930102A0930202B093C3
:1034C000030280918B0490918C0490937A028093F4
:1034D00079020E94EA3283E080930D020E943A381A
:1034E0000C94822910928A040C94822981E08093A2
:1034F0008A040C94822985E40E94AC31B82E811193
:1035000002C00E94D25FBFEC8B2EB2E09B2E12E273
:10351000C12E15E0D12E08E0E02E03E1F02E00E0F0
:1035200010E0A12CD4018D914D010E94AC31882373
:1035300009F44EC0F6012081318142815381C25786
:10354000DF4F2883CE58D040C157DF4F3883CF5844
:10355000D040C457DF4F4883CC58D040C357DF4FCB
:103560005883CD58D0400E947931D6016D937D9318
:103570008D939C931397C257DF4F2881CE58D0402C
:10358000C157DF4F3881CF58D040C457DF4F4881F3
:10359000CC58D040C357DF4F5881CD58D04003306E
:1035A0001105B1F00E949EC19B01AC01F701608141
:1035B0007181828193810E949FC1D7016D937D9318
:1035C0008D939C931397C8010E94E730AA24A3947B
:1035D0000F5F1F4FB4E0CB0ED11CE4E0EE0EF11CE8
:1035E0000430110509F09ECFAA2019F00E941C306A
:1035F00037C0BB20A9F1C0902E05D0902F05E090D8
:103600003005F09031052091FA0E3091FB0E40917B
:10361000FC0E5091FD0EC701B6010E9403BE0E9430
:10362000D0C360935E0F70935F0F8093600F909391
:10363000610FC701B6010E94E3C22FB7F8946093EF
:10364000350E7093360E8093370E9093380E2FBF41
:1036500010924E0F10924F0F1092500F1092510F68
:103660000E943A380C94822980919304909194049A
:103670008F36910509F46AC50CF0B3C08A32910502
:1036800009F4A9C40CF05EC08731910509F445C264
:103690008CF58231910509F488C6FCF497FF02C0CD
:1036A0000C948229823091050CF468C1419711F085
:1036B0000C94822960E088E692E00E941F9B5F984C
:1036C0008A989FB7F894809108018E7F80930801B3
:1036D0009FBF479812980C9482298531910509F46F
:1036E00012C20CF014C2449711F00C948229E0E845
:1036F000F2E0C6C18B31910509F438C23CF489313E
:10370000910509F41FC20CF412C222C28E31910538
:1037100009F468C274F44C9711F00C94822940E0CB
:1037200060E080919104909192040E9409460C946B
:1037300082298F31910509F4A8C3809709F460C3E9
:103740000C9482298535910509F464C604F5813508
:10375000910509F410C68CF48C34910509F484C4E5
:103760008D34910509F484C48B34910511F00C94C7
:1037700082290E94D54A0C9482298335910509F447
:1037800010C60CF012C6109289040C9482298A3655
:10379000910509F4BCC5ACF48836910509F46CC4F4
:1037A0000CF062C58C35910511F00C9482293FEC28
:1037B000C32E32E0D32E4EEEE42E4EE0F42E10E077
:1037C00042C68C36910509F42DC50CF4C4C58D365E
:1037D000910509F463C58E36910509F4A4C40C94CF
:1037E0008229833D910509F4F0C70CF064C08C3840
:1037F000910509F41BC534F58537910509F4B4C664
:103800008CF48237910509F49DC68337910509F43C
:103810009EC68037910511F00C94822986E793E0CB
:103820000E94E9A48837910509F40AC789379105F0
:1038300009F40CC78737910511F00C948229E2EC4A
:10384000F4E09AC6893C910509F47DC774F48E3B77
:10385000910509F441C5883C910509F471C7813986
:10386000910511F00C948229F6C68C3C910509F45F
:103870006DC74CF48B3C910511F00C9482290E9489
:1038800032320C9482298D3C910509F462C78E3C3A
:10389000910511F00C948229BFECAB2EB2E0BB2E47
:1038A00012E2C12E15E0D12E06E1E02E05E0F02E49
:1038B00000E010E051C78039F1E09F0711F40C944B
:1038C00006285CF58C3231E0930709F4D4C774F410
:1038D0008D3D910509F489C7823E910509F49EC783
:1038E0008C3D910511F00C94822972C78E3251E003
:1038F000950711F40C9403250CF4E6C78F32B1E060
:103900009B0711F40C9457258336914011F00C94C9
:103910008229EBE7FDE00C942529853FF1E09F0724
:1039200011F40C941029ACF48C3A31E0930711F4A3
:103930000C940928843F41E0940711F40C94F72873
:103940008A39914011F00C9482290E9426300C94FF
:103950008229873FA1E09A0711F40C94192914F4E5
:103960000C941629803AE3E09E0709F481C2873E51
:10397000934011F40C943C290C948229A09091045A
:10398000B090920480E50E94AC31882359F00E94E7
:1039900039316B017C0111E0672B682B692B31F405
:1039A00010E004C010E0C12CD12C760183E50E9408
:1039B000AC318823F1F00E94793120E030E04AE711
:1039C00054E40E9403BE0E94E8C26B017C01111105
:1039D00012C0672B682B692B71F4A114B10459F044
:1039E000D5018C91882339F061E0C5010E943F9B8D
:1039F00007C0112391F360E085E592E00E941F9BD0
:103A000081E080932C120E94D25F0E94EA32C1149E
:103A1000D104E104F104E9F08091F4129091F512DF
:103A2000A091F612B091F712C80ED91EEA1EFB1E25
:103A30000E94C4AEDC01CB018C199D09AE09BF09FF
:103A4000B7FF1AC080912C128823B1F00E9434A5D0
:103A5000EFCF80912C12882319F00E9434A5F9CF62
:103A60008091920F60E0882319F086E492E002C012
:103A700082E392E00E941F9B10922C120C948229E8
:103A800084918F010F5F1F4F882321F00E94F53230
:103A9000F801F6CF109218121092171240E050E081
:103AA000BA0183EC9FE00E9481A88BE1E3ECFFE088
:103AB000DE01159601900D928A95E1F78091C10F74
:103AC0009091C20F9C838B838FE893E09A838983C4
:103AD00040E050E0BE016F5F7F4F82E694E00E94BD
:103AE000B48ECE0101960E94CEA4E1E7F2E084916B
:103AF0008F010F5F1F4F882311F40C9482290E94BD
:103B0000F532F801F4CF0E943C490C9482291092BE
:103B1000920F1092930F0C94822940E061E0809103
:103B20009104909192040E9409460C9482298091FC
:103B3000930F882319F081E08093920F0E94D54A59
:103B40000C9482291092920F0E94154B0C9482299A
:103B50008091930F882311F40C94822983E50E94AD
:103B6000AC3181110C948F290C9482298091930F90
:103B7000882351F1E1E9F2E084918F010F5F1F4F3B
:103B8000882321F00E94F532F801F6CF60910E12E1
:103B900070910F1280911012909111124AE00E94C0
:103BA000E7338FE20E94F53260910A1270910B1296
:103BB00080910C1290910D124AE00E94E7338AE046
:103BC0000E94F5320C948229E3EAF2E084918F019D
:103BD0000F5F1F4F882311F40C9482290E94F53245
:103BE000F801F4CF8091930F882311F40C9482296B
:103BF0008DE591E10E944FA88DE591E10E949E9094
:103C00001092910F1092900FE0909104F090920416
:103C10008091930F882311F40C9482290E94578D70
:103C20001D8218861C821B828FE893E09A83898309
:103C30008FEB9FE09093DF0F8093DE0FF701808181
:103C40008F3209F068C06FE270E0C7010E94FAC4C9
:103C50008C010F5F1F4F9E012F5F3F4F49010115E0
:103C6000110509F45EC06FE270E0C8010E94FAC459
:103C70006C01009709F456C00817190708F052C0E4
:103C80005C01A01AB10AA501B801CE0180960E947C
:103C900023C5E0E2F0E0EC0FFD1FEA0DFB1D1082F2
:103CA0008E01005E1F4FD8018D918D01882319F080
:103CB0000E94F532F8CF8AE00E94F5326091DE0F63
:103CC0007091DF0F6115710511F06C5F7F4F21E07E
:103CD000AE01405E5F4FCE0105960E94E1948111D6
:103CE00012C0BE01605E7F4F8AED92E00E94847E2A
:103CF0008EE20E94F5328AE00E94F532C4010E94F1
:103D0000CEA40C9482299092DF0F8092DE0F860160
:103D10000F5F1F4FA4CF80EE9FE09093DF0F809343
:103D2000DE0F87016091DE0F7091DF0F6115710565
:103D300011F06C5F7F4F18A21BA222E0A801CE01F8
:103D400080960E94E194811102C0F12C14C0CE0132
:103D500080960E94C58C8823C1F361E0CE018096D5
:103D60000E94A790009789F325EEFC0120831BA2F7
:103D70000E94D7A7F82ECE0180960E94E432FF2041
:103D800009F1E4EBF2E084917F012FEFE21AF20AED
:103D9000882321F00E94F532F701F5CFD8018D91EB
:103DA0008D01882319F00E94F532F8CF8AE00E9435
:103DB000F53210920E1210920F12109210121092F1
:103DC000111218C0E2ECF2E084917F01BFEFEB1A10
:103DD000FB0A882321F00E94F532F701F5CFF801A4
:103DE00081918F01882319F00E94F532F8CF8EE27D
:103DF0000E94F532CE0101960E94CEA40C94822935
:103E00008091920F81110E94D25FE0909104F09016
:103E1000920480E50E94AC31182F8091930F882383
:103E200011F40C948229412F61E0C7010E940946D8
:103E300083E50E94AC31882381F00E944931AB01B7
:103E4000BC0140930E1250930F12609310127093A6
:103E500011128DE591E10E9481A88091930F882332
:103E600019F081E08093920F11110C94822966CE93
:103E7000809191049091920421E02093910F40E071
:103E800060E00E9409460C9482290E947E8EACE379
:103E9000CA2ED12CE12CF12CA70196010E9463C1FE
:103EA000762E672ECA01B901A70196010E9463C14F
:103EB0006B017C01CA01B90128E130E040E050E02B
:103EC0000E9463C14B015C01C9016DE671E00E9473
:103ED00063C48E010F5F1F4F6115710599F06F92DA
:103EE0007F92DF92CF929F928F929F938F937F9337
:103EF0006F9386E193E09F938F931F930F930E949C
:103F000037BD12C00097B1F06F927F92DF92CF92CF
:103F10009F928F929F938F9386E093E09F938F93CE
:103F20001F930F930E9437BD0FB6F894DEBF0FBEEC
:103F3000CDBF36C081149104A104B10479F06F9211
:103F40007F92DF92CF929F928F928AEF92E09F931F
:103F50008F931F930F930E9437BDE6CFC114D104F6
:103F6000E104F10469F06F927F92DF92CF9282EFC9
:103F700092E09F938F931F930F930E9437BDD4CFEE
:103F80006F927F928EEE92E09F938F931F930F9389
:103F90000E9437BD0F900F900F900F900F900F90D1
:103FA00060E0C8010E943F9BEAE1FEE184917F014D
:103FB000BFEFEB1AFB0A882321F00E94F532F701CC
:103FC000F5CFB8018AE293E00E94847E8AE00E94E5
:103FD000F5320C94822983E50E94AC31882311F4D8
:103FE0000C9482290E9449314B015C016F3F71059D
:103FF00019F010F00C94822980E50E94AC318823DE
:1040000039F00E9449318B0177FF04C00C9482295A
:104010000DE010E0F02EE3EDF2E0C80199272191C8
:1040200031912817390731F023E0E932F207B9F767
:104030000C949F29EBE7FDE084918F010F5F1F4FE8
:10404000882321F00E94F532F801F6CFE7E3F3E090
:1040500084918F010F5F1F4F882311F40C948229E4
:104060000E94F532F801F4CF0E94154B0C9482297E
:104070000E94618D0C94822988E690E00E9467344A
:1040800081110C94822980910C0F83FF02C00C9443
:10409000822983E50E94AC31882309F440C00E9444
:1040A00079310E94E3C27093F2066093F10680E0DA
:1040B0000E9435A20E94793120E030E04AEA52E4C1
:1040C0000E949EBD18163CF00E94618D60E08DE458
:1040D00093E00E941F9B0E94793120918A0E3091BB
:1040E0008B0E40918C0E50918D0E0E94C5C31816F8
:1040F000B4F48CED93E09F938F938091840490E0CF
:1041000001969F938F9386E493E09F938F931F92E2
:104110000E94B84A0FB6F894DEBF0FBECDBF0E9412
:104120003AB70C9482298EE40E94AC31882311F4B2
:104130000C9482290E9449316093EE127093EF1221
:104140008093F0129093F1120C94822983E50E94DF
:10415000AC31882319F00E94593101C080E080936E
:104160000C0FEAE1FEE184918F010F5F1F4F88235E
:1041700021F00E94F532F801F6CFEFE6F3E08491EA
:104180008F010F5F1F4F882321F00E94F532F80145
:10419000F6CF80910C0F8823A1F1F1E6CF2EF3E04A
:1041A000DF2EE12CF12C20E080910C0F90E00E2C02
:1041B00002C0959587950A94E2F780FF17C0BB244B
:1041C000B394B20E222319F08CE20E94F532F6016C
:1041D00025913491F901849189010F5F1F4F882344
:1041E00021F00E94F5329801F5CF2B2DFFEFEF1A49
:1041F000FF0A32E0C30ED11C45E0E416F104A1F63B
:104200000CC0EBE6F3E084918F010F5F1F4F882312
:1042100021F00E94F532F801F6CF8AE00E94F532D3
:104220000C948229109276020C94822980910C0FB2
:1042300083FF02C00C94822983E50E94AC3188235D
:1042400011F40C9482290E9479310E94E3C26F36E6
:10425000710514F06EE670E07093F0066093EF065F
:104260000E94EAA10C94822989E690E00E946734BA
:1042700081110C94CB2EEFE7F3E084918F010F5F57
:104280001F4F882321F00E94F532F801F6CF0E94DB
:10429000EA388AE00E94F5320C94CB2E8DE690E04D
:1042A0000E94673481110C94822980910C0F83FF46
:1042B00002C00C94822983E50E94AC3128968FAF0E
:1042C000289781110C94B32982E50E94AC318111A9
:1042D0000C94B3290C94822980910C0F83FF02C0A7
:1042E0000C94822960E083EC93E00E941F9B83E59D
:1042F0000E94AC3128968FAF289781110C944F2BD8
:1043000082E50E94AC3181110C944F2BFBC783E5F1
:104310000E94AC31882321F00E9449318B0102C0F8
:104320000FEF10E080E50E94AC31882319F00E9465
:10433000493102C060E070E0C8010F3F110519F07B
:1043400010F08FEF90E0672B09F0DCC79093F40634
:104350008093F306D7C780E50E94AC31811105C078
:104360001092F4061092F306CDC70E944931672BD4
:1043700009F0C8C7F5CF0E9480A20E94D25F0E94B8
:10438000D8A41092F4061092F30668EE73E080E071
:1043900090E00E948B9A60E080ED93E00E941F9B6A
:1043A000B1C781E080938904ADC783E50E94AC3139
:1043B000882399F00E94793120E030E04AE754E404
:1043C0000E9403BE0E94E8C26093CB027093CC02AD
:1043D0008093CD029093CE0295C788E50E94AC31C0
:1043E00081110C94B92C89E50E94AC3181110C9497
:1043F000B92C8AE50E94AC3181110C94B92C85E46A
:104400000E94AC3181110C94B92C0E94D25F0E94A1
:10441000D8A478C783E50E94AC31882309F472C719
:104420000E94793120E030E04AE754E40E9403BE64
:104430000E94E8C26093F8127093F9128093FA1206
:104440009093FB125FC7D6018D916D010E94AC3134
:10445000882309F46DC0133009F063C00E947931DC
:104460004B015C0120E030E040EA51E40E949EBD37
:1044700087FF4EC0A50194016091FA0E7091FB0E6A
:104480008091FC0E9091FD0E0E947BC22B013C019D
:104490009B01AC016091EA0E7091EB0E8091EC0EE5
:1044A0009091ED0E0E9403BE6093EA0E7093EB0EA6
:1044B0008093EC0E9093ED0EA301920160912D0973
:1044C00070912E0980912F09909130090E9403BEAE
:1044D00060932D0970932E0980932F0990933009D2
:1044E0006091190F70911A0F80911B0F90911C0F02
:1044F0000E94A2BDA30192010E9403BE0E94E8C2D5
:104500006093190F70931A0F80931B0F90931C0FD9
:104510008092FA0E9092FB0EA092FC0EB092FD0ECD
:1045200007C00E947931F70160837183828393838E
:104530001F5FF4E0EF0EF11C143009F084CF0E94ED
:10454000D97FE0C60E94D25F0E943A38DBC6E2EE15
:10455000F3E084918F010F5F1F4F882309F4D2C6C7
:104560000E94F532F801F5CF60E0809191049091BE
:1045700092040E943F9BC6C684918F010F5F1F4F1C
:10458000882321F00E94F532F801F6CFEAEBF4E03F
:1045900084918F010F5F1F4F882321F00E94F53215
:1045A000F801F6CF659B03C009EC13E002C00EECE6
:1045B00013E0D8018D918D01882319F00E94F53206
:1045C000F8CF8AE00E94F532E2EBF4E084918F01AB
:1045D0000F5F1F4F882321F00E94F532F801F6CFBC
:1045E0008091030181FF03C009EC13E002C00EECCF
:1045F00013E0F80181918F01882319F00E94F532B0
:10460000F8CF8AE00E94F532EAEAF4E084918F0163
:104610000F5F1F4F882321F00E94F532F801F6CF7B
:104620004B9B03C009EC13E002C00EEC13E0D80171
:104630008D918D01882309F4F0CD0E94F532F7CFDA
:1046400081E080930A028093040F5CC610920A02F4
:104650001092040F57C683E50E94AC318823F1F015
:104660000E944931162F6230D0F0EBE7FDE08491D3
:104670008F010F5F1F4F882321F00E94F532F80150
:10468000F6CFECEDF4E084918F010F5F1F4F88238C
:1046900009F438C60E94F532F801F5CF10E088E43D
:1046A0000E94AC318823A9F00E944931E12FF0E04B
:1046B0006A3A710534F0663F71052CF065EF70E0E1
:1046C00002C06AEA70E0EE0FFF1FEF5EF64F7183E3
:1046D000608386E40E94AC318823B1F00E944931A6
:1046E000E12FF0E0EE0FFF1FEB5EF64F718360836A
:1046F0006F3F710519F014F06FEF70E077FF02C0A3
:1047000060E070E07183608382E40E94AC318823B2
:1047100009F4F8C50E944931E12FF0E065307105D8
:1047200034F0603671052CF06FE570E002C065E092
:1047300070E0EE0FFF1FE35FF64F71836083E2C509
:104740000E94A034DFC50E945232DCC50E948A3329
:10475000D9C50E94D631D6C5F50181915F010E946D
:10476000AC31882311F10E9479312B013C01D70132
:104770002D913D914D915C910E949EC19B01AC0198
:10478000F60160817181828193810E949FC1D6016F
:104790006D937D938D939C931397F7014082518283
:1047A00062827382C8010E94E7300F5F1F4FF4E0FE
:1047B000CF0ED11C24E0E20EF11C0330110561F68E
:1047C0000E941C300E943A389DC50E94FC329AC556
:1047D00083E50E94AC31882309F494C50E944931D5
:1047E00070937A02609379028DC58DED90E00E94FE
:1047F0006734811187C583E50E94AC31882309F4B1
:1048000081C50091840410E00E944931000F111FFE
:10481000F801E958FD4F7183608374C580E50E94FB
:10482000AC31882309F46EC50E944931F62EC62E9C
:10483000D72E83E50E94AC31882321F00E944931B4
:104840008B0102C00FEF1FEFC8010196039708F01C
:1048500059C5D7FC57C5E3EDF2E08F2D90E02191CB
:1048600031912817390709F44DC533E0E932F307D0
:10487000B1F70C94A42E83E50E94AC31882319F083
:104880000E94493102C064E071E079A368A380E529
:104890000E94AC31882339F00E944931693843E1E4
:1048A000740730F402C068EE73E07A83698304C051
:1048B00088E893E19A838983BE01605E7F4FCE01D1
:1048C00001960E94844A1EC585E40E94AC31811184
:1048D00010C080E50E94AC31882399F00E947931A4
:1048E00060934B0270934C0280934D0290934E0262
:1048F00008C00E944931161617065CF7EBE7FDE089
:1049000071C089E40E94AC31882381F00E94793122
:104910002CEA35EC47E25EE30E9403BE609353024B
:1049200070935402809355029093560284E40E943F
:10493000AC31882381F00E9479312CEA35EC47E2D2
:104940005EE30E947BC260934F027093500280939B
:10495000510290935202EAE1FEE184918F010F5FD0
:104960001F4F882321F00E94F532F801F6CF4091C5
:104970004B0250914C0260914D0270914E0286E0C4
:1049800095E00E944E7E2CEA35EC47E25EE36091B2
:1049900053027091540280915502909156020E94E8
:1049A0007BC2AB01BC0182E095E00E94317E2CEA23
:1049B00035EC47E25EE360914F02709150028091C6
:1049C0005102909152020E9403BEAB01BC018EEFD6
:1049D00094E00E94317E8AE00E94F53293C40E94E6
:1049E000F532F80184918F010F5F1F4F8111F7CFCE
:1049F00007EE13E0D8018D918D01882309F40DCCC9
:104A00000E94F532F7CF83E50E94AC31182F88233E
:104A100071F00E9479310E94E8C270938002609325
:104A20007F0221E0672B09F020E02093070F80E54B
:104A30000E94AC31882359F020917F02309180028E
:104A4000232B11F00E946A318093070F5BC4111170
:104A500059C4EAE1FEE184918F010F5F1F4F882363
:104A600021F00E94F532F801F6CF8091070F8111F5
:104A700003C068ED73E002C06BEC73E08FE195E07A
:104A80000E94847E60917F02709180028EE095E0AA
:104A90000E946B7EEAE0F5E084918F010F5F1F4F6B
:104AA000882309F42FC40E94F532F801F5CF85E47C
:104AB0000E94AC31882321F00E9449318B0102C051
:104AC00000E010E083E40E94AC31882349F00E94AA
:104AD0004931CA57DF4F79836883C658D04008C030
:104AE000E5E0F0E0CA57DF4FF983E883C658D040CD
:104AF00085E50E94AC31ED968FAFED97882329F0C4
:104B00000E946A31ED968FAFED9783E50E94AC313C
:104B1000882329F00E9479310E94E3C204C017FD66
:104B200008C066E970E00115110529F410928404AB
:104B300002C066E470E0072E000C880B990B0E94FF
:104B4000A4BD24966FAF24972C967FAF2C976096C8
:104B50008FAF609764969FAF64970E94C4AE4B017D
:104B60005C01012B19F408EF13E00BC00BE014E01B
:104B7000D8018D918D01882309F44FCB0E94F53225
:104B8000F7CFF80181918F01882319F00E94F53247
:104B9000F8CF8AE00E94F5320E9480A28FE78093CE
:104BA0004E1281E080937602C258DF4F888299824C
:104BB000AA82BB82CE57D040C857DF4F88829982E5
:104BC000AA82BB82C858D04068961FAE6897F0E4AE
:104BD0006C96FFAF6C972CE1A0962FAFA09736E4B0
:104BE000AC963FAFAC97E0961FAEE097A4961FAE91
:104BF000A497A8961FAEA897E4961FAEE497EC96EC
:104C00001CAE1DAE1EAE1FAEEC97E8961CAE1DAEE0
:104C10001EAE1FAEE897C12CD12C7601FFE74F2EB8
:104C2000512C612C712C8FE790E0A0E0B0E023962E
:104C30008CAF9DAFAEAFBFAF2397CE57DF4F18827B
:104C400019821A821B82C258D04091E0EE969FAF23
:104C5000EE9729961FAE1EAE2997212C312C00E02D
:104C600010E080917602882309F4C9C10E94C4AE85
:104C70006BAF7CAF8DAF9EAF80914C12882309F44F
:104C8000CBC00E9446A320908A0E30908B0E0091DC
:104C90008C0E10918D0E9101A801E0966FADE097FA
:104CA000A4967FADA497A8968FADA897E4969FADE4
:104CB000E4970E949EBD87FF0CC0E0962FAEE09760
:104CC000A4963FAEA497A8960FAFA897E4961FAFFF
:104CD000E4979101A80168966FAD68976C967FADD7
:104CE0006C97A0968FADA097AC969FADAC970E94A5
:104CF000C5C3181664F468962FAE68976C963FAEDD
:104D00006C97A0960FAFA097AC961FAFAC97EE969E
:104D1000AFADEE9724962FAD24972C963FAD2C97F0
:104D200060964FAD609764965FAD6497B101C8011E
:104D3000AA2309F455C00E94C5C318160CF06CC014
:104D40004BAD5CAD6DAD7EAD481959096A097B0963
:104D5000DB01CA0188589341A109B109B7FD5CC0C4
:104D600023968CAD9DADAEADBFAD2397841995094B
:104D7000A609B709B595A7959795879580934E1283
:104D8000CE57DF4F488359836A837B83C258D04014
:104D90002496BFAD2497E096BFAFE0972C96EFAD79
:104DA0002C97A496EFAFA4976096FFAD6097A89656
:104DB000FFAFA89764962FAD6497E4962FAFE49762
:104DC0008BAD9CADADADBEADC258DF4F888399832E
:104DD000AA83BB83CE57D040EE961FAEEE971CC081
:104DE0000E949EBD87FF18C08BAD9CADADADBEAD22
:104DF000C258DF4F288139814A815B81CE57D0402C
:104E0000821B930BA40BB50BAC01BD014858534159
:104E10006109710977FFD4C520E030E040EA51E430
:104E200024966FAD24972C967FAD2C9760968FAD0E
:104E3000609764969FAD64970E949FC19B01AC01EF
:104E4000B101C8010E94C5C318166CF4ECEEF5E080
:104E500084918F010F5F1F4F882309F453C20E9472
:104E6000F532F801F5CF80E398EFAFEFBFEFC85709
:104E7000DF4F288139814A815B81C858D040821B2D
:104E8000930BA40BB50B2BAD3CAD4DAD5EAD820FBE
:104E9000931FA41FB51FB7FD11C00E94EA388AE016
:104EA0000E94F5328BAD9CADADADBEADC857DF4FA6
:104EB00088839983AA83BB83C858D0408BAD9CADAF
:104EC000ADADBEAD880F991FAA1FBB1FC258DF4FE3
:104ED000288139814A815B81CE57D040821B930B58
:104EE000A40BB50B88199909AA09BB0981389F44FD
:104EF000A241B10568F0EEECF5E084918F010F5FFF
:104F00001F4F882309F4FEC10E94F532F801F5CF46
:104F100029964EAD5FAD2997CA57DF4F8881998199
:104F2000C658D040841795070CF066C0E1E7F5E05D
:104F300084918F010F5F1F4F882321F00E94F5326B
:104F4000F801F6CFB701A6018CE595E00E944E7EF0
:104F50008AE00E94F532E8964CAD5DAD6EAD7FAD56
:104F6000E89787E495E00E944E7E8AE00E94F53241
:104F7000EC964CAD5DAD6EAD7FADEC9782E395E008
:104F80000E944E7E8AE00E94F532ED96AFACED971E
:104F9000AA2009F4B7C1C0924B02D0924C02E09211
:104FA0004D02F0924E022CEA35EC47E25EE3E896C1
:104FB0006CAD7DAD8EAD9FADE8970E9403BE609352
:104FC00053027093540280935502909356022CEA38
:104FD00035EC47E25EE3EC966CAD7DAD8EAD9FADFA
:104FE000EC970E947BC260934F02709350028093B3
:104FF00051029093520286C10E94519B32CE809101
:10500000760281117FC10E9480A27CC10E94D25F82
:1050100079C186E1C82E85E0D82E92E2E92E95E08E
:10502000F92E22E9222E2EE0322E00E010E091012E
:1050300022593E403CAF2BAFD1018D911D018823F9
:1050400009F4A4C0F801ED59FD4F2081318142815E
:105050005381F801E35CF64F608171818281938115
:105060000E949FC120E030E040E05FE30E9403BE69
:105070009B01AC01F70160817181828193810E9463
:10508000C5C3181644F4C80184579F4D0E94E130EF
:105090004B015C0103C0812C912C5401D7014D9030
:1050A0005D906D907C90F801E450FD4E208131813F
:1050B00042815381C301B2010E949EC19B01AC0198
:1050C000C501B4010E949EC14B015C0120E030E0AB
:1050D00040EA51EC0E94C5C387FD29C020E030E0C2
:1050E00040EA51E4C501B4010E949EBD1816FCF0CF
:1050F000F6012081318142815381C501B4010E94B2
:105100009EC19B01AC01C301B2010E949FC1D701A6
:105110006D937D938D939C931397F601808291827A
:10512000A282B3828BAD9CAD0E94E7302FC0EBE72B
:10513000FDE084918F010F5F1F4F882321F00E94B3
:10514000F532F801F6CFEEE7F6E084918F010F5FBC
:105150001F4F882321F00E94F532F801F6CF61E05D
:1051600080E796E00E941F9B0E94269E88E290E0C6
:105170009A83898388EC90E099A388A3BE016F5F2E
:105180007F4FCE0180960E94844ABCC0F4E0CF0ECF
:10519000D11C0C5F1F4F24E0E20EF11C0C301105F6
:1051A00009F045CF49D70E943A3860E080E696E0A2
:1051B0000E941F9B83E992E099A388A304E610E074
:1051C0001A830983BE01605E7F4FCE0101960E9463
:1051D000844A8AEB92E099A388A31A830983BE01CB
:1051E000605E7F4FCE0101960E94844A8BC0EBE740
:1051F000FDE084918F010F5F1F4F882321F00E94F3
:10520000F532F801F6CFECE9F6E084918F010F5FFB
:105210001F4F882309F476C00E94F532F801F5CFBC
:105220000E94447B80E00E94D2776CC00E94447B45
:1052300069C083E50E94AC31882321F00E946A3165
:1052400091E089270E94D2775DC084918F010F5F22
:105250001F4F882321F00E94F532F801F6CFEDEAC6
:10526000F6E084918F010F5F1F4F882309F44AC035
:105270000E94F532F801F5CF81E08093750210921B
:10528000FE0683E50E94AC31882309F45AC50E94CA
:105290006A31811137C055C5E0909304F0909404B1
:1052A000E0928504EAE1FEE184918F010F5F1F4FD8
:1052B000882321F00E94F532F801F6CFB701772755
:1052C0008CEB96E00E946B7E8AE00E94F5321AC059
:1052D000EAE1FEE184918F010F5F1F4F882321F0E7
:1052E0000E94F532F801F6CF6091F2127091F3123C
:1052F0008EEC96E00E94847E82E20E94F5328AE083
:105300000E94F5320E948AA746C56115710519F4FD
:10531000BC0161507109A0E0B0E00C942512B9D72E
:10532000AB01BC0140930E1250930F126093101208
:10533000709311128DE591E10E9481A8E3CF61E0A5
:105340008F2D0E9489AD682D8F2D0E945AADB4011A
:105350008F2D0E94C5AD09301105A1F69092F4067B
:105360008092F306CFCFC5D70E94E3C27093F206B6
:105370006093F10680E00E9435A2BBD720E030E0C8
:105380004AEA52E40E949EBD181644F00E94618DC4
:1053900060E08EE993E00E941F9B02C00E94D54A04
:1053A0006091F1067091F206072E000C880B990BA4
:1053B0000E94A4BD20918A0E30918B0E40918C0EDC
:1053C00050918D0E0E94C5C31816B4F48CED93E075
:1053D0009F938F938091840490E001969F938F9385
:1053E00087E993E09F938F931F920E94B84A0FB66C
:1053F000F894DEBF0FBECDBF0E943AB781E0809324
:10540000760223961CAE1DAE1EAE1FAE23972796C6
:105410001CAE1DAE1EAE1FAE27971BAE2C961FAE48
:105420002C979CE360969FAF6097ACE16496AFAF1A
:105430006497B6E46896BFAF6897C12CD12C70E82A
:10544000E72EEFEBFE2E812C912C54016091F1069A
:105450007091F206072E000C880B990B0E94A4BDD8
:10546000162F072F782E692E262F372F482F592FCA
:10547000B601C7010E949EBD882321F120918A0EAA
:1054800030918B0E40918C0E50918D0E612F702FAC
:10549000872D962D0E949EBD881F8827881F8BAF61
:1054A0002896EFAD2897EE2389F0882379F0809134
:1054B0007602882309F426CF60E082E893E00E9418
:1054C0001F9B20CF1C2D0D2D7E2C6F2C0E94C4AE57
:1054D0006B017C01DC01CB0127962CAD3DAD4EADBF
:1054E0005FAD2797821B930BA40BB50BB7FD47C08D
:1054F000D701C60188519C4FAF4FBF4F27968CAF45
:105500009DAFAEAFBFAF27970E94EA38E3E9F3E063
:1055100084912F019FEF491A590A882321F00E9494
:10552000F532F201F5CF81149104A104B104D1F058
:10553000D501C401805F984DAF4FBF4FBC01CD0175
:105540006C197D098E099F0928EE33E040E050E098
:105550000E9463C1CA01B9010E944D348AE00E94D1
:10556000F5320DC0E0E9F3E084912F01AFEF4A1A64
:105570005A0A882321F00E94F532F201F5CF0E94E9
:1055800034A50E94EA3220908A0E30908B0E409013
:105590008C0E50908D0E9101A201612F702F872DDE
:1055A000962D0E949EC19F7781149104A104B1049D
:1055B00049F420E030E040E85FE30E949EBD87FFB1
:1055C0000BC008C020E030E040E450E40E94C5C3B6
:1055D000181614F446015701BBADBB2309F443C0B0
:1055E00023962CAD3DAD4EAD5FAD23972115310512
:1055F0004105510541F0D701C601821B930BA40B55
:10560000B50BB7FD30C09101A2012C966FAD2C9760
:1056100060967FAD609764968FAD649768969FADF6
:1056200068970E949EC120E030E040EC5FE30E945A
:105630009EBD87FD3CCFD701C601805A9541AF4F33
:10564000BF4F23968CAF9DAFAEAFBFAF23972C96C5
:105650002FAE2C9760963FAE609764964FAE6497DE
:1056600068965FAE689780917602882309F41FCF11
:1056700081149104A104B10429F4C12ED02EE72C89
:10568000F62CE4CE90E1C91A97E2D90AE108F108B4
:10569000C818D908EA08FB08F7FE09CFEECF29D6CB
:1056A0000E94E3C26F36710514F06EE670E07093ED
:1056B000F0066093EF060E94EAA11BD620E030E0DE
:1056C00040EA50E40E94C5C3181614F40E94D54A5B
:1056D00081E08093760280918504809384042396F0
:1056E0001CAE1DAE1EAE1FAE239727961CAE1DAE80
:1056F0001EAE1FAE27971BAE2C961FAE2C97ACE3A9
:105700006096AFAF6097BCE16496BFAF6497E6E484
:105710006896EFAF6897C12CD12C50E8E52E6FEB5F
:10572000F62E812C912C54016091EF067091F006B9
:10573000072E000C880B990B0E94A4BD162F072F73
:10574000782E692E262F372F482F592FB601C701E3
:105750000E949EBD882321F120918E0E30918F0EE4
:105760004091900E5091910E612F702F872D962DA4
:105770000E949EBD881F8827881F8BAF2896FFAD8B
:105780002897FF2389F0882379F080917602882377
:1057900009F4B8CD60E082EB93E00E941F9BB2CD8C
:1057A0001C2D0D2D7E2C6F2C0E94C4AE6B017C0134
:1057B000DC01CB0127962CAD3DAD4EAD5FAD2797FB
:1057C000821B930BA40BB50BB7FD44C0D701C601D8
:1057D00088519C4FAF4FBF4F27968CAF9DAFAEAF58
:1057E000BFAF27970E94EA38EFEBF3E084912F01D7
:1057F0009FEF491A590A882319F0F7D6F201F6CF1C
:1058000081149104A104B104C9F0D501C401805FE1
:10581000984DAF4FBF4FBC01CD016C197D098E096A
:105820009F0928EE33E040E050E00E9463C1CA01C6
:10583000B9010E944D348AE0D8D60CC0ECEBF3E0FD
:1058400084912F01AFEF4A1A5A0A882319F0CDD656
:10585000F201F6CF0E9434A5BDD620908E0E309076
:105860008F0E4090900E5090910E9101A201612FE9
:10587000702F872D962D0E949EC19F7781149104D1
:10588000A104B10449F420E030E040E85FE30E9465
:105890009EBD87FF0BC008C020E030E040E450E42C
:1058A0000E94C5C3181614F446015701BBADBB23B3
:1058B00009F443C023962CAD3DAD4EAD5FAD2397AB
:1058C000211531054105510541F0D701C601821B63
:1058D000930BA40BB50BB7FD30C09101A2012C9620
:1058E0006FAD2C9760967FAD609764968FAD64978F
:1058F00068969FAD68970E949EC120E030E040EC22
:105900005FE30E949EBD87FD40CFD701C601805A4C
:105910009541AF4FBF4F23968CAF9DAFAEAFBFAF9A
:1059200023972C962FAE2C9760963FAE6097649687
:105930004FAE649768965FAE689780917602882331
:1059400009F423CF81149104A104B10429F4C12ED8
:10595000D02EE72CF62CE8CE90E1C91A97E2D90AAE
:10596000E108F108C818D908EA08FB08F7FE0DCFCE
:10597000EECF0E94D25F88E5EFD4882319F05F9ABA
:105980001092130589E5E8D4882319F08A9A1092B9
:1059900014058AE5E1D4882359F09FB7F8948091E3
:1059A00008018160809308019FBF479A10921505F6
:1059B00085E4D2D4882309F4A5CC0E94D6A4A2CC35
:1059C0002996AEACBFAC29971A141B040CF07FC10A
:1059D000CE57DF4F88809980AA80BB80C258D040C4
:1059E000880E991EAA1EBB1ECE57DF4F2881398113
:1059F0004A815B81C258D040281B390B4A0B5B0B94
:105A0000CA01B901A30192010E9454C1A5019401E8
:105A10000E948AC423964CAC5DAC6EAC7FAC2397DD
:105A2000420E531E641E751E34E143165104610478
:105A300071041CF14CEE44165104610471043CF4F1
:105A400050E845165104610471043CF105C06BEE49
:105A5000462E512C612C712C23964CAE5DAE6EAE51
:105A60007FAE23978EEF90E0A0E0B0E08419950917
:105A7000A609B7092C013D0116C024E130E040E041
:105A800050E023962CAF3DAF4EAF5FAF239754E16C
:105A9000452E512C612C712C06C023964CAE5DAE68
:105AA0006EAE7FAE2397E8E5F6E084919F012F5F0D
:105AB0003F4F8823B9F0C257DF4F2883CE58D040DC
:105AC000C157DF4F3883CF58D0408FD5C257DF4FF3
:105AD0002881CE58D040C157DF4F3881CF58D040B1
