:100000000C944E100C947F100C947F100C947F1065
:100010000C947F100C947F100C947F100C947F1024
:100020000C947F100C947F100C947F100C947F1014
:100030000C947F100C947F100C947F100C947F1004
:100040000C947F100C948E9A0C947F100C947F105B
:100050000C947F100C947F100C941B8E0C94E54B29
:100060000C947F100C94EF370C947F100C947F103D
:100070000C947F100C947F100C947F100C947F10C4
:100080000C947F100C947F100C947F100C947F10B4
:100090000C947F100C947F100C947F100C947F10A4
:1000A0000C947F100C947F100C947F100C947F1094
:1000B0000C947F100C947F100C947F100C947F1084
:1000C0000C947F100C947F100C947F100C947F1074
:1000D0000C947F100C947F100C947F100C947F1064
:1000E0000C947F10C097C397B297B697BC97FA97B6
:1000F000C797CB97D197D597D997DF97E397E7978E
:10010000FA97ED97F197F597A099A599AA99B499BF
:10011000BE99379AC899D099D899E299EC99F699ED
:10012000059A0F9A379A199A239A2D9A084AD73B1B
:100130003BCE016E84BCBFFDC12F3D6C74319ABDB6
:1001400056833DDA3D00C77F11BED9E4BB4C3E91DA
:100150006BAAAABE000000803F05A84CCDB2D44EC9
:10016000B93836A9020C50B9918688083CA6AAAACB
:100170002ABE000000803F004E414E494E4954596E
:10018000494E46CDCCCC3D0AD7233C17B7D1387762
:10019000CC2B329595E6241FB14F0A000020410078
:1001A00000C84200401C4620BCBE4CCA1B0E5AAEC2
:1001B000C59D74434F4D4D554E49434154494F4E93
:1001C0000044525952554E004552524F5253004925
:1001D0004E464F004543484F0020746F6F206C6FB0
:1001E0006E6720657874727573696F6E20707265C2
:1001F00076656E7465640A0020636F6C64206578B0
:1002000074727573696F6E2070726576656E746551
:10021000640A0047322F47332062616420706172A4
:10022000616D65746572730A00536C6565702E2E7E
:100230002E00416E7963756269632069332B2072E9
:10024000656164792E00526573756D696E67207003
:1002500072696E7400436C69636B20746F20726501
:1002600073756D652E2E2E00456E642066696C6573
:10027000206C6973740A00426567696E2066696C58
:1002800065206C6973740A005344207072696E743F
:10029000696E67206279746520004E6F7420534444
:1002A000207072696E74696E670A0046696C652019
:1002B00064656C657465643A0044656C6574696F67
:1002C0006E206661696C65642C2046696C653A2015
:1002D000006F70656E206661696C65642C204669EC
:1002E0006C653A20002569730025696D20256973C6
:1002F000002569682025696D2025697300256964DA
:10030000202569682025696D202569730025697994
:1003100020256964202569682025696D2025697379
:10032000005072696E742074696D653A20005072D5
:100330006F7465637465642050696E0A00452569B1
:1003400020257300416E7963756269632069332BE0
:100350002072656164792E00D401CF01C801C1010A
:10036000B3016F66660044454255473A004B494C1D
:100370004C45442E20006F6B0048656174696E67C0
:1003800020646F6E652E003F0A0020573A00452515
:100390006920257300416E79637562696320693352
:1003A0002B2072656164792E0042656420646F6E53
:1003B000652E003F0A0020573A00426564204865D8
:1003C0006174696E672E00416E796375626963209E
:1003D00069332B204F66662E004D31343520533C57
:1003E000696E6465783E206F7574206F6620726157
:1003F0006E67652028302D31290A005365747469B1
:100400006E672054726176656C20416363656C652C
:10041000726174696F6E3A200053657474696E6717
:10042000205265747261637420416363656C657208
:100430006174696F6E3A200053657474696E672049
:100440005072696E7420416363656C657261746992
:100450006F6E3A200053657474696E67205072693C
:100460006E7420616E642054726176656C20416305
:1004700063656C65726174696F6E3A2000205A0082
:10048000205900580020204D61783A2000205A0061
:10049000205900580020204D696E3A20004F6E20F0
:1004A000004F666600536F667420656E6473746FE8
:1004B00070733A200020643A0020693A0020703AB4
:1004C0000043290A0061626C656420286D696E2012
:1004D00074656D702000436F6C642065787472756C
:1004E00064657320617265200023646566696E65CA
:1004F000202044454641554C545F4B642000236402
:100500006566696E65202044454641554C545F4BF5
:1005100069200023646566696E6520204445464174
:10052000554C545F4B702000504944204175746F06
:1005300074756E652066696E697368656421205004
:10054000757420746865206C617374204B702C2066
:100550004B6920616E64204B6420636F6E7374611D
:100560006E74732066726F6D2062656C6F772069A0
:100570006E746F20436F6E66696775726174696F20
:100580006E2E680A00504944204175746F74756E70
:1005900065206661696C6564212074696D656F759D
:1005A000740A00504944204175746F74756E65205B
:1005B0006661696C6564212054656D706572617453
:1005C00075726520746F6F20686967680A00204B38
:1005D000643A2000204B693A2000204B703A2000FA
:1005E0000A20436C617373696320504944200A00F8
:1005F0002054753A2000204B753A2000206D617818
:100600003A2000206D696E3A200020643A200020D4
:10061000626961733A20004F666673657473206186
:1006200070706C696564004572723A20546F6F2077
:100630006661722100546F6F206661722066726F6E
:100640006D207265666572656E636520706F696E98
:10065000740A00454550524F4D2064697361626CC5
:1006600065640A004E6F2063617365206C6967687A
:10067000740A004163746976652045787472756404
:1006800065723A2000556E6B6E6F776E20636F6DEA
:100690006D616E643A2022004E6F204C696E6520B9
:1006A0004E756D6265722077697468206368656352
:1006B0006B73756D2C204C617374204C696E653AB8
:1006C00020004B494C4C45442E200053544F505071
:1006D00045442E20005072696E7465722073746FE9
:1006E000707065642064756520746F206572726F28
:1006F00072732E2046697820746865206572726F67
:100700007220616E6420757365204D39393920740B
:100710006F20726573746172742E202854656D7039
:100720006572617475726520697320726573657492
:100730002E2053657420697420616674657220727E
:10074000657374617274696E67290A004E6F204385
:100750006865636B73756D2077697468206C696E6A
:1007600065206E756D6265722C204C617374204C2F
:10077000696E653A2000636865636B73756D206D03
:1007800069736D617463682C204C617374204C69CB
:100790006E653A20004C696E65204E756D6265721B
:1007A000206973206E6F74204C617374204C696EE5
:1007B00065204E756D6265722B312C204C6173740F
:1007C000204C696E653A20004D313130004D333197
:1007D000004D383420582059205A204500534420D9
:1007E00072656164206572726F720A00446F6E6593
:1007F000207072696E74696E672066696C650A00A4
:1008000020496E76616C69642065787472756465E0
:1008100072200000005C4300005C4300007A43004B
:1008200000000000000000000000004E6F206D6F0F
:1008300076652E002042403A0020403A00202F00EA
:1008400020423A00202F0020543A00205A3A00203B
:10085000593A0020436F756E7420583A0020453A8B
:1008600000205A3A0020593A00583A004649524D61
:10087000574152455F4E414D453A4D61726C696E2C
:1008800020312E312E312028476974687562292065
:10089000534F555243455F434F44455F55524C3A81
:1008A00068747470733A2F2F6769746875622E6369
:1008B0006F6D2F4D61726C696E4669726D776172F2
:1008C000652F4D61726C696E2050524F544F434FEB
:1008D0004C5F56455253494F4E3A312E30204D41D0
:1008E0004348494E455F545950453A416E796375C6
:1008F0006269632069332B20455854525544455250
:100900005F434F554E543A3120555549443A63653B
:100910006465326132662D343161322D34373438BA
:100920002D396231322D63353563363266333637D1
:1009300066660A00466C6F7700466C6F770046610A
:100940006E2073706565640046616E207370656526
:10095000640042656400426564004E6F7A7A6C659B
:10096000004E6F7A7A6C6500537065656400537051
:10097000656564004D61696E0050726568656174FB
:1009800020504C4120426564005072656865617476
:1009900020504C4120456E6400507265686561745A
:1009A00020504C4100507265706172650050726554
:1009B000686561742041425320426564005072654D
:1009C000686561742041425320456E640050726531
:1009D00068656174204142530050726570617265B0
:1009E000004D3432380050726568656174204142B0
:1009F00053005072656865617420504C4100436F2C
:100A00006F6C646F776E004D3834004469736162B7
:100A10006C65207374657070657273005365742023
:100A2000686F6D65206F6666736574730047323852
:100A3000004175746F20686F6D65004D6F7665209D
:100A400061786973004D61696E004D6F766520585D
:100A5000004D6F76652059004D6F7665205A004530
:100A600078747275646572004D6F766520302E3132
:100A70006D6D004D6F766520316D6D004D6F766543
:100A80002031306D6D004D6F76652061786973009F
:100A90004578747275646572004D6F7665205A00F2
:100AA0004D6F76652059004D6F7665205800436183
:100AB00072642072656D6F766564004361726420B4
:100AC000696E736572746564004B494C4C45442EE5
:100AD0002000202D20496E76616C69642065787451
:100AE0007275646572206E756D62657220210A00F0
:100AF0002D2D2D2D2D2D007C4D61726C696E7C008D
:100B00002D2D2D2D2D2D00687474703A2F2F6D61B1
:100B1000726C696E66772E6F726700687474703AD3
:100B20002F2F6D61726C696E66772E6F7267002071
:100B3000312E312E31002020506C616E6E65724274
:100B4000756666657242797465733A200020467254
:100B50006565204D656D6F72793A2000436F6D7049
:100B6000696C65643A204A616E2031382032303138
:100B7000390A00207C20417574686F723A20546FE6
:100B8000626961732052656974686D656965720A8E
:100B900000323031372D30352D31322031323A307C
:100BA0003000204C61737420557064617465643A40
:100BB0002000312E312E310A004D61726C696E00B9
:100BC00020536F6674776172652052657365740A8D
:100BD00000205761746368646F67205265736574A1
:100BE0000A002042726F776E206F75742052657311
:100BF00065740A002045787465726E616C205265D8
:100C00007365740A00506F77657255700A007374CB
:100C10006172740A006572726F722077726974690A
:100C20006E6720746F2066696C650A00456E647398
:100C3000746F70732025632025632025632025634E
:100C400000205A3A0020593A0020583A00656E6454
:100C500073746F7073206869743A2000446F6E6516
:100C600020736176696E672066696C652E0A004D97
:100C700032390020746F6F206C6F6E672065787456
:100C8000727573696F6E2070726576656E746564D7
:100C90000A0020636F6C6420657874727573696FE5
:100CA0006E2070726576656E7465640A00457874AE
:100CB0007275646572004D6F7665205A004D6F76CF
:100CC000652059004D6F766520580050726570613F
:100CD000726500526573746F7265206661696C732A
:100CE0006166650046696C616D656E74004D6F7478
:100CF000696F6E0054656D70657261747572650020
:100D00004D61696E0050726568656174204142539F
:100D100020636F6E66005072656865617420504C88
:100D20004120636F6E66005049442D440050494491
:100D30002D44005049442D49005049442D4900504C
:100D400049442D50005049442D5000200220466156
:100D500063740020022046616374002002204D610C
:100D600078002002204D6178002002204D6178003B
:100D70002002204D696E002002204D696E00200285
:100D8000204D696E004F6666004F6E2000417574FD
:100D90006F74656D700046616E20737065656400E8
:100DA00046616E207370656564004265640042654B
:100DB00064004E6F7A7A6C65004E6F7A7A6C6500CB
:100DC000436F6E74726F6C0042656400426564002C
:100DD0004E6F7A7A6C65004E6F7A7A6C6500466168
:100DE0006E2073706565640046616E207370656582
:100DF000640054656D706572617475726500486158
:100E00007264636F6465642044656661756C742008
:100E100053657474696E6773204C6F616465640A0E
:100E20000020440020490020204D33303120500064
:100E30005049442073657474696E67733A0A0020E0
:100E4000460020420020480020204D3134352053F8
:100E5000004D6174657269616C20686561747570BC
:100E600020706172616D65746572733A0A00205A70
:100E70000020590020204D323036205800486F6D38
:100E800065206F66667365743A0A00204500205A33
:100E90000020590020580020420020540020204DFE
:100EA000323035205300416476616E6365643A20C8
:100EB000533C6D696E5F66656564726174653E2062
:100EC000543C6D696E5F74726176656C5F666565D2
:100ED00064726174653E20423C6D696E5F73656744
:100EE0006D656E745F74696D655F6D733E20583C0F
:100EF0006D61785F78795F6A65726B3E205A3C6DF0
:100F000061785F7A5F6A65726B3E20453C6D6178FF
:100F10005F655F6A65726B3E0A00205400205200D4
:100F200020204D323034205000416363656C65727F
:100F30006174696F6E2028756E6974732F7332291E
:100F40003A20503C7072696E745F616363656C3EF9
:100F500020523C726574726163745F616363656C97
:100F60003E20543C74726176656C5F616363656CAE
:100F70003E0A00204500205A0020590020204D3212
:100F800030312058004D6178696D756D2041636383
:100F9000656C65726174696F6E2028756E69747313
:100FA0002F7332293A0A00204500205A00205900A8
:100FB00020204D3230332058004D6178696D756DB9
:100FC000206665656472617465732028756E697446
:100FD000732F73293A0A00204500205A0020590037
:100FE00020204D393220580053746570732070658D
:100FF0007220756E69743A0A0020204D323030201C
:1010000044300A0020204D32303020440020446912
:101010007361626C65640A0046696C616D656E742B
:101020002073657474696E67733A0020204D313403
:10103000392043203B20556E69747320696E20432C
:10104000656C736975730A0A002020473231203BB2
:1010500020556E69747320696E206D6D0A0A007ADE
:101060005F6D696E3A2000795F6D696E3A20007895
:101070005F6D696E3A20005265706F7274696E67B9
:1010800020656E6473746F70207374617475730A75
:10109000007C3C3E5E2B3D3F2F5B5D3B2C2A225C5F
:1010A0000053442063617264206F6B0A006F7065A7
:1010B0006E526F6F74206661696C65640A00766FAA
:1010C0006C756D652E696E6974206661696C656406
:1010D0000A00534420696E6974206661696C0A00D5
:1010E0006175746F25692E67004D3234004D3233BF
:1010F0002025730057726974696E6720746F2066CB
:10110000696C653A20006F70656E206661696C6578
:10111000642C2046696C653A20006F70656E20660D
:1011200061696C65642C2046696C653A20004669EB
:101130006C652073656C65637465640A002053698F
:101140007A653A200046696C65206F70656E65644B
:101150003A20006F70656E206661696C65642C20B2
:1011600046696C653A20002066696C653A20004E3D
:101170006F7720002220706F7300222070617265EB
:101180006E743A2200535542524F5554494E4520F1
:1011900043414C4C207461726765743A22004B499C
:1011A0004C4C45442E2000747279696E6720746F30
:1011B0002063616C6C207375622D67636F646520BA
:1011C00066696C6573207769746820746F6F206D31
:1011D000616E79206C6576656C732E204D415820C8
:1011E0006C6576656C2069733A004572726F723A6D
:1011F000004B494C4C45442E20004B494C4C20633D
:101200006175736564206279204B494C4C2062758E
:1012100074746F6E2F70696E0A004B494C4C4544D4
:101220002E20004B494C4C2063617573656420622D
:101230007920746F6F206D75636820696E616374C7
:101240006976652074696D65202D206375727265FD
:101250006E7420636F6D6D616E643A2000506C6532
:10126000617365207265736574005052494E544530
:10127000522048414C544544005072696E74657266
:101280002068616C7465642E206B696C6C28292061
:1012900063616C6C6564210A00656E7175657565C6
:1012A000696E6720220000000000000000000000BE
:1012B00000005761726E696E673A20486F6D696E03
:1012C000672042756D702044697669736F72203CA7
:1012D00020310A000000A0400000A04000000040B3
:1012E00000005C4300005C4300007A43FFFFFF43C3
:1012F000616E6E6F74206F70656E207375626469C5
:101300007220006563686F3A0025753A25303275A2
:1013100000253032753A25303275002D2D2D0053C1
:1013200044005A005900580001200001200050726A
:10133000696E742061626F72746564004E6F205331
:10134000442063617264005072696E742066726F2B
:101350006D2053440053746F70207072696E740076
:10136000526573756D65207072696E740050617599
:101370007365207072696E7400436F6E74726F6C67
:1013800000507265706172650054756E6500496E3B
:10139000666F2073637265656E006265640A002C77
:1013A0002073797374656D2073746F707065642138
:1013B000204865617465725F49443A200048656160
:1013C00074696E67206661696C6564004865617464
:1013D000696E67206661696C65640048656174695F
:1013E0006E67206661696C65640048656174696E4A
:1013F00067206661696C65640070012C01900127AB
:1014000001B0012201C0011D01F0011801100213F9
:101410000130020E016002090190020401C002FFC6
:10142000000003FA004003F5008003F000D003EB56
:10143000002004E6007004E100E004DC004005D771
:1014400000C005D2004006CD00D006C8008007C30A
:10145000003008BE00F008B900C009B400B00AAFFF
:1014600000B00BAA00D00CA500000EA000500F9BEE
:1014700000C01096005012910000148C00C0158717
:1014800000B0178200B0197D00D01B7800001E73D9
:101490000040206E0090226900F024640040275F25
:1014A0000090295A00E02B5500102E500020304BA0
:1014B0000010324600E033410090353C00103737D1
:1014C0000070383200A0392D00B03A2800A03B232C
:1014D00000603C1E00103D1900903D1400103E0FAE
:1014E00000703E0A00C03E0500003F0000403FFB88
:1014F000FF803FF6FFC03FF1FF544845524D414C3D
:101500002052554E4157415900546865726D616CC7
:101510002052756E61776179004572723A204D49AB
:101520004E54454D5020424544004572723A204D7C
:10153000494E54454D50004D494E54454D50207430
:101540007269676765726564004572723A204D4141
:101550005854454D5020424544004572723A204D42
:10156000415854454D50004D415854454D502074FC
:101570007269676765726564004573746570732F7F
:101580006D6D004573746570732F6D6D005A7374C3
:101590006570732F6D6D005A73746570732F6D6D68
:1015A000005973746570732F6D6D00597374657095
:1015B000732F6D6D005873746570732F6D6D0058C7
:1015C00073746570732F6D6D00412D747261766553
:1015D0006C00412D74726176656C00412D726574EA
:1015E0007261637400412D726574726163740041AD
:1015F0006D6178204500416D6178204500416D6145
:1016000078205A00416D6178205A00416D61782040
:101610005900416D6178205900416D617820580072
:10162000416D61782058005654726176206D696E64
:10163000005654726176206D696E00565472617660
:10164000206D696E00566D696E00566D696E0056AC
:101650006D696E00566D6178204500566D61782089
:101660004500566D6178204500566D6178205A001E
:10167000566D6178205A00566D6178205A00566D7B
:101680006178205900566D6178205900566D617857
:10169000205900566D6178205800566D61782058A9
:1016A00000566D617820580056652D6A65726B0092
:1016B00056652D6A65726B0056652D6A65726B0002
:1016C000567A2D6A65726B00567A2D6A65726B00C8
:1016D00056792D6A65726B0056792D6A65726B00BA
:1016E00056792D6A65726B0056782D6A65726B00AB
:1016F00056782D6A65726B0056782D6A65726B009C
:10170000416363656C00416363656C00436F6E7495
:10171000726F6C0000002100240027002A002D00B9
:101720003000330001010000040107010A0100003C
:101730002200250028002B002E0031003400020179
:101740000000050108010B01000020002300260015
:1017500029002C002F0032000001000003010601C7
:101760000901050505050705080808080202020227
:101770000A0A08080404040401010101010101012D
:101780000303030303030303040707070C0C0C0CF8
:101790000C0C0C0C020202020606060606060606E1
:1017A0000B0B0B0B0B0B0B0B01021020200808106E
:1017B00020401020408002010201080402010102C1
:1017C000040810204080804020100804020180049A
:1017D00002018040201008040201080402010102F5
:1017E00004081020408001020408102040800000FE
:1017F0000A0B02090C0D0E0807030401000000008B
:1018000000000000000000000000000000000000D8
:101810000000000000000000000012111000000095
:1018200000000000000000000000000000000000B8
:101830000000000024F4D43050C38E20C2A2401710
:10184000828B7011127A910D816CD90AA861E1081E
:10185000C7586607615143061E4B5D05C145A70485
:101860001A411104093D9803713931034036DB02F6
:1018700065339102D4305402802E1D02632CEE0198
:10188000752AC501B028A001102781018F256401A8
:101890002B244B01E0223401AC211F018D200D01CE
:1018A000801FFC00841EED00971DDF00B81CD200D5
:1018B000E61BC600201BBC00641AB200B219A800C7
:1018C0000A19A0006A189900D117910040178B00DF
:1018D000B516840031167E00B31579003A157300F1
:1018E000C7146F0058146A00EE1366008813630073
:1018F00025135E00C7125B006C12570015125400CE
:10190000C111510070114F0021114B00D610490038
:101910008D1047004610440002104200C00F4000E6
:10192000800F3E00420F3C00060F3B00CB0E3800FC
:10193000930E37005C0E3500270E3400F30D320095
:10194000C10D3100900D3000600D2E00320D2D00C4
:10195000050D2C00D90C2B00AE0C2900850C29009C
:101960005C0C2700350C27000E0C2600E80B240029
:10197000C40B2400A00B23007D0B23005A0B210075
:10198000390B2100180B2000F80A1F00D90A1E008D
:10199000BB0A1E009D0A1D00800A1D00630A1C0070
:1019A000470A1B002C0A1B00110A1A00F7091A002B
:1019B000DD091900C4091900AB09190092091700C3
:1019C0007B091800630917004C0916003609160038
:1019D000200916000A091500F5081500E008140092
:1019E000CC081400B8081400A408140090081300D0
:1019F0007D0812006B0813005808120046081200F8
:101A00003408110023081100120811000108110008
:101A1000F0071000E0071000D0071000C00710000A
:101A2000B0070F00A107100091070E0083070F00F9
:101A300074070F0065070E0057070E0049070E00D8
:101A40003B070D002E070E0020070D0013070D00A9
:101A500006070D00F9060C00ED060D00E0060C006F
:101A6000D4060C00C8060C00BC060C00B0060C0026
:101A7000A4060B0099060C008D060B0082060B00D5
:101A800077060B006C060B0061060A0057060B0078
:101A90004C060A0042060A0038060A002E060A0012
:101AA00024060A001A060A001006090007060A00A2
:101AB000FD050900F4050900EB050900E205090030
:101AC000D9050900D0050900C7050900BE050900B0
:101AD000B5050800AD050800A50509009C0508002E
:101AE000940508008C050800840508007C050800A2
:101AF000740508006C050700650508005D05070012
:101B0000560508004E050700470507004005080078
:101B100038050700310507002A05070023050700DF
:101B20001C050600160507000F050700080506003E
:101B300002050700FB040600F5040700EE0406009A
:101B4000E8040600E2040700DB040600D5040600F2
:101B5000CF040600C9040600C3040600BD04060045
:101B6000B7040600B1040500AC040600A604060094
:101B7000A00405009B0406009504050090040600DF
:101B80008A04050085040500800406007A04050027
:101B900075040500700405006B040500660405006B
:101BA000610405005C0405005704050052040500AB
:101BB0004D04050048040500430405003E040400EC
:101BC0003A04050035040500300404002C04050027
:101BD00027040400230405001E0404001A04040062
:101BE00016040500110404000D0404000904050096
:101BF0000404040000040400FC030400F8030400CF
:101C0000F4030400F0030400EC030400E803040000
:101C1000E4030400E0030400DC030400D803040030
:101C2000D4030400D0030400CC030400C803030061
:101C3000C503030024F404D9201BC40C5C0E9804D3
:101C4000C4095F0265077101F405F900FB04B300E4
:101C500048048700C1036900580355000303450089
:101C6000BE023A008402310053022A0029022500F4
:101C700004022000E4011C00C8011900AF01170094
:101C8000980114008401130071011000610110001B
:101C900051010E0043010D0036010B002B010B001A
:101CA00020010B00150109000C01090003010800C7
:101CB000FB000800F3000800EB000700E40006004A
:101CC000DE000600D8000600D2000600CC000500A9
:101CD000C7000500C2000500BD000400B9000400F3
:101CE000B5000400B1000400AD000400A900040028
:101CF000A5000300A20003009F0004009B00030056
:101D00009800030095000200930003009000030078
:101D10008D0002008B000300880002008600020094
:101D200084000300810002007F0002007D000200A9
:101D30007B000200790002007700010076000200BB
:101D40007400020072000100710002006F000200C6
:101D50006D0001006C0002006A00010069000200D1
:101D600067000100660001006500010064000200D8
:101D70006200010061000100600001005F000200DC
:101D80005D0001005C0001005B0001005A000100E1
:101D900059000100580001005700010056000100E1
:101DA00055000100540001005300000053000100E1
:101DB0005200010051000100500001004F000100DD
:101DC0004E0000004E0001004D0001004C000100DB
:101DD0004B0000004B0001004A00010049000100D7
:101DE00048000000480001004700010046000000D4
:101DF00046000100450000004500010044000100CC
:101E000043000000430001004200000042000100C6
:101E10004100000041000100400001003F000000BF
:101E20003F0001003E0000003E0001003D000000B8
:101E30003D0001003C0000003C0000003C000100AF
:101E40003B0000003B0001003A0000003A000100A6
:101E5000390000003900010038000000380000009F
:101E60003800010037000000370001003600000094
:101E7000360000003600010035000000350000008B
:101E8000350001003400000034000000340001007F
:101E90003300000033000000330001003200000076
:101EA000320000003200010031000000310000006B
:101EB000310001003000000030000000300001005F
:101EC0002F0000002F0000002F0000002F00010055
:101ED0002E0000002E0000002E0001002D0000004A
:101EE0002D0000002D0000002D0001002C0000003E
:101EF0002C0000002C0000002C0001002B00000032
:101F00002B0000002B0000002B0001002A00000025
:101F10002A0000002A0000002A0001002900000019
:101F2000290000002900000029000000290001000C
:101F30002800000028000000280000002800000001
:101F400028000100270000002700000027000000F3
:101F500027000000270001002600000026000000E6
:101F600026000000260000002600010025000000D9
:101F700025000000250000002500000025000000CD
:101F800025000100240000002400000024000000BF
:101F900024000000240001002300000023000000B2
:101FA00023000000230000002300000023000000A5
:101FB0002300010022000000220000002200000097
:101FC0002200000022000000220001002100000089
:101FD000210000002100000021000000210000007D
:101FE000210000002100010020000000200000006E
:101FF0002000000020000000200000002000000061
:1020000020000000200001001F0000001F00000051
:102010001F0000001F0000001F0000001F00000044
:102020001F0001001E0000001E0000001E00000036
:102030001E0000004D383420582059205A204500F9
:1020400046696C2E204469612E0046696C2E20443E
:1020500069612E004F6666004F6E20004520696E54
:10206000206D6D3300436F6E74726F6C0043616E50
:102070006E6F7420656E7465722073756264697228
:102080003A2000052E2E004D61696E005265736581
:102090006E643A20006F6B00A5AC84AC11241FBEA7
:1020A000CFEFD1E2DEBFCDBF00E00CBF14E0A0E077
:1020B000B2E0EAEAF8E701E00BBF02C007900D9238
:1020C000A836B107D9F723E1A8E6B4E001C01D9214
:1020D000A731B207E1F710E1CDE4D0E100E006C09E
:1020E00021970109802FFE010E94B8BBCC34D10793
:1020F00080E00807A9F70E9430A70C9444BC0C9418
:1021000000002F923F924F925F926F927F928F9238
:102110009F92AF92BF92CF92DF92EF92FF920F9376
:102120001F93CF93DF93CDB7DEB7CF58D1090FB64A
:10213000F894DEBF0FBECDBF8091EE0620E6829FF1
:10214000C001112482599A4F90933B0980933A0918
:102150008091F60680FF1BC0E3E0F3E184918F01DC
:102160000F5F1F4F882321F00E94A032F801F6CFA5
:1021700000913A0910913B09D8018D918D01882376
:1021800019F00E94A032F8CF8AE00E94A032E091BC
:102190003A09F0913B098081803231F43196F09315
:1021A0003B09E0933A09F3CF8E3469F010913A0974
:1021B00000913B096AE270E0812F902F0E940CBCD5
:1021C000009721F52AC0818190ED980F9A3010F088
:1021D0008D3261F73296F0933B09E0933A09E09132
:1021E0003A09F0913B09808180538A3010F431968E
:1021F000F2CFE0913A09F0913B0980818032B1F64B
:102200003196F0933B09E0933A09F3CFFC01319604
:102210008291803231F08A3221F0A12FB02F9D912E
:1022200002C01082F5CFFD01808111968032D9F372
:1022300080538A3010F00C94392EE12CF12C2AE0D6
:102240002E9DB0012F9D700D11247B01B0E3EB1A80
:10225000F1088191E80EF11C87FDFA94808180538A
:102260008A3070F38F013196D8018C918032D1F38E
:1022700010937204009371049D3411F40C94E019CE
:10228000943511F40C943129973411F00C94392EB3
:10229000B4E0EB16F10409F480C640F480918102A9
:1022A000F2E0EF16F10408F01AC119C02AE5E216AF
:1022B000F10409F4C3C738F44CE1E416F10409F45D
:1022C000AAC60C945C295BE5E516F10409F4BAC7CB
:1022D0008CE5E816F10409F4BAC70C945C2988234C
:1022E00011F40C945C290E947F30809114028823A1
:1022F00021F08CE599E00E94277D0E949532809123
:10230000F60683FD9BC0C0906809D0906909E090F3
:102310006A09F0906B092091490530914A05409176
:102320004B0550914C05C701B6010E94B0B48823FB
:1023300009F484C08091F10681113CC06091780C51
:102340007091790C80917A0C90917B0C0E94F5B978
:10235000072E000C880B990B0E94B6B420911E0228
:1023600030911F0240912002509121020E94B0B48E
:1023700087FF20C0C0924905D0924A05E0924B05E4
:10238000F0924C05E3E0F3E184918F010F5F1F4F62
:10239000882321F00E94A032F801F6CFE8EFF1E0A7
:1023A00084918F010F5F1F4F882321F00E94A0327C
:1023B000F801F6CFC0906809D0906909E0906A09E9
:1023C000F0906B092091490530914A0540914B05E9
:1023D00050914C05C701B6010E94B0B80E94F5B9F2
:1023E00097FF07C090958095709561957F4F8F4FAF
:1023F0009F4F693C71058105910504F1C092490523
:10240000D0924A05E0924B05F0924C05E3E0F3E1EF
:1024100084918F010F5F1F4F882321F00E94A0320B
:10242000F801F6CFE9EDF1E084918F010F5F1F4FC6
:10243000882321F00E94A032F801F6CF20915C0998
:1024400030915D0940915E0950915F0960913D05B1
:1024500070913E0580913F05909140050E94B0B477
:1024600081111DC02091600930916109409162097C
:102470005091630960914105709142058091430537
:10248000909144050E94B0B4811109C0609100028E
:102490007091010280910202909103021AC0609132
:1024A000060270910702072E000C880B990B0E9400
:1024B000B6B4209100023091010240910202509185
:1024C00003020E9415B52AE037ED43E25CE30E9467
:1024D00015B50E94292F0E941F2F0C945C29882378
:1024E00011F40C945C2911E092E0E916F10409F072
:1024F00010E00E947F3082E50E94612F882309F45A
:1025000052C10E94BB2F6B017C0140903D05509051
:102510003E0560903F057090400520914105309147
:10252000420540914305509144052BAF3CAF4DAF60
:102530005EAF80915C0990915D09A0915E09B091B8
:102540005F0923968CAF9DAFAEAFBFAF23972091AD
:1025500060093091610940916209509163092B969D
:102560002CAF3DAF4EAF5FAF2B9720E030E0A9011D
:10257000C701B6010E94B0B4882309F4F4C4A301D2
:10258000920123966CAD7DAD8EAD9FAD23970E94D9
:10259000B0B481110FC02BAD3CAD4DAD5EAD2B96EF
:1025A0006CAD7DAD8EAD9FAD2B970E94B0B48823EE
:1025B00009F4D9C420E030E0A901C701B6010E94A6
:1025C000B0B4881F8827881F18130BC080E090E0E4
:1025D000A0E8BFE367968CAF9DAFAEAFBFAF679784
:1025E0000AC020E030E040E85FEB67962CAF3DAFDB
:1025F0004EAF5FAF6797A301920123966CAD7DAD9F
:102600008EAD9FAD23970E94B0B82F966CAF7DAF73
:102610008EAF9FAF2F972BAD3CAD4DAD5EAD2B96E2
:102620006CAD7DAD8EAD9FAD2B970E94B0B863961B
:102630006CAF7DAF8EAF9FAF63972F962CAD3DAD46
:102640004EAD5FAD2F97CA01B9010E9415B54B0180
:102650005C0163962CAD3DAD4EAD5FAD6397CA0195
:10266000B9010E9415B59B01AC01C501B4010E94DE
:10267000B1B80E941CBB27966CAF7DAF8EAF9FAFE9
:10268000279720E030E040E05FE30E9415B54B0162
:102690005C01A7019601C701B6010E9415B56B0147
:1026A0007C01A5019401C501B4010E9415B59B01EF
:1026B000AC01C701B6010E94B0B80E941CBB9B01CF
:1026C000AC0167966CAD7DAD8EAD9FAD67970E94F6
:1026D00015B54B015C0123962CAD3DAD4EAD5FAD04
:1026E0002397C301B2010E94B1B820E030E040E07E
:1026F0005FE30E9415B56B017C0163966CAD7DAD07
:102700008EAD9FAD6397905827962CAD3DAD4EADE5
:102710005FAD27970E948DB99B01AC01C501B40143
:102720000E9415B59B01AC01C701B6010E94B1B86A
:10273000A30192010E94B0B86B017C012B962CADD5
:102740003DAD4EAD5FAD2B976BAD7CAD8DAD9EAD10
:102750000E94B1B820E030E040E05FE30E9415B590
:102760002B013C0127962CAD3DAD4EAD5FAD2797BB
:102770002F966CAD7DAD8EAD9FAD2F970E948DB91C
:102780009B01AC01C501B4010E9415B59B01AC01D0
:10279000C301B2010E94B1B82BAD3CAD4DAD5EADF1
:1027A0000E94B0B814C089E40E94612F882329F0E8
:1027B0000E94BB2F6B017C0103C0C12CD12C760180
:1027C0008AE40E94612F8823F9F00E94BB2F2B9688
:1027D0006CAF7DAF8EAF9FAF2B9720E030E0A901AB
:1027E000C701B6010E94B0B481111EC020E030E0E4
:1027F000A9012B966CAD7DAD8EAD9FAD2B970E9440
:10280000B0B4811111C0AFC320E030E0A901C7010D
:10281000B6010E94B0B4882309F4A5C32B961CAE60
:102820001DAE1EAE1FAE2B97D701C601B0588BAFA1
:102830009CAFADAFBEAF2B962CAD3DAD4EAD5FADF9
:102840002B97505823962CAF3DAF4EAF5FAF2397D9
:102850009C01AD01BC01CD010E9415B54B015C018D
:1028600023962CAD3DAD4EAD5FAD2397CA01B901A6
:102870000E9415B59B01AC01C501B4010E94B1B81D
:102880000E941CBBA7966CAF7DAF8EAF9FAFA79782
:1028900080913D0590913E05A0913F05B091400586
:1028A00027968CAF9DAFAEAFBFAF2797A70196011C
:1028B000BC01CD010E94B1B867966CAF7DAF8EAF01
:1028C0009FAF6797209141053091420540914305A4
:1028D000509144052F962CAF3DAF4EAF5FAF2F9771
:1028E0002B962CAD3DAD4EAD5FAD2B972F966CADBD
:1028F0007DAD8EAD9FAD2F970E94B1B86B966CAF3A
:102900007DAF8EAF9FAF6B9780915C0990915D0911
:10291000A0915E09B0915F096F968CAF9DAFAEAF8D
:10292000BFAF6F9767962CAD3DAD4EAD5FAD67976E
:10293000BC01CD010E94B0B86B017C0120916009FF
:10294000309161094091620950916309A3962CAFBF
:102950003DAF4EAF5FAFA3976B962CAD3DAD4EAD87
:102960005FAD6B97A3966CAD7DAD8EAD9FADA3971C
:102970000E94B0B84B015C018091450590914605DD
:10298000A0914705B0914805AF968CAF9DAFAEAF13
:10299000BFAFAF979C01AD0160916409709165096B
:1029A00080916609909167090E94B0B863966CAFF8
:1029B0007DAF8EAF9FAF6397209168093091690911
:1029C00040916A0950916B09AB962CAF3DAF4EAF69
:1029D0005FAFAB978091490590914A05A0914B0557
:1029E000B0914C05E3968CAF9DAFAEAFBFAFE39710
:1029F000A70196016BAD7CAD8DAD9EAD0E9415B566
:102A00002B013C01A501940123966CAD7DAD8EADEB
:102A10009FAD23970E9415B59B01AC01C301B20184
:102A20000E94B1B82B013C01A50194016BAD7CADB6
:102A30008DAD9EAD0E9415B54B015C01A7019601BD
:102A400023966CAD7DAD8EAD9FAD23970E9415B5DD
:102A50009B01AC01C501B4010E94B0B8A301920171
:102A60000E9424B96B017C0120E030E0A9010E94A2
:102A7000B0B487FF0AC02BED3FE049EC50E4C7013A
:102A8000B6010E94B1B86B017C01112351F02BED0E
:102A90003FE049EC50E4C701B6010E94B0B86B01B9
:102AA0007C0120E030E0A901C701B6010E94B0B46A
:102AB00081112AC06F962CAD3DAD4EAD5FAD6F97C5
:102AC00027966CAD7DAD8EAD9FAD27970E94B0B4BB
:102AD00081111AC0A3962CAD3DAD4EAD5FADA3974D
:102AE0002F966CAD7DAD8EAD9FAD2F970E94B0B48B
:102AF00081110AC02BED3FE049EC50E4C701B6015B
:102B00000E94B1B86B017C01A7962CAD3DAD4EADD6
:102B10005FADA797C701B6010E9415B59B01AC0137
:102B20000E9415B54B015C0163962CAD3DAD4EADD9
:102B30005FAD6397CA01B9010E9415B59B01AC0155
:102B4000C501B4010E94B1B80E941CBB4B015C01DD
:102B50002FE632E143E85AE30E94B0B487FDFFC19B
:102B6000C501B4010E9426BA0E94FAB92D967FAF22
:102B70006EAF2D97DB01AB2B31F4E1E0F0E02D9649
:102B8000FFAFEEAF2D972D962EAD3FAD2D97B9012E
:102B900080E090E00E94B4B44B015C019B01AC0169
:102BA000C701B6010E948DB927966CAF7DAF8EAF7D
:102BB0009FAF2797A501940163966CAD7DAD8EAD57
:102BC0009FAD63970E948DB9A7966CAF7DAF8EAF16
:102BD0009FAFA797E3962CAD3DAD4EAD5FADE397AC
:102BE000AB966CAD7DAD8EAD9FADAB970E94B0B88E
:102BF000A50194010E948DB9AB966CAF7DAF8EAFED
:102C00009FAFAB9727962CAD3DAD4EAD5FAD2797EF
:102C1000CA01B9010E9415B520E030E040E05FE351
:102C20000E9415B59B01AC0160E070E080E89FE375
:102C30000E94B0B863966CAF7DAF8EAF9FAF6397C5
:102C4000AF968CAD9DADAEADBFADAF9789879A877E
:102C5000AB87BC87E3962CAD3DAD4EAD5FADE39742
:102C60002D873E874F87588B60910602709107022F
:102C7000072E000C880B990B0E94B6B4209100021D
:102C80003091010240910202509103020E9415B559
:102C90002AE037ED43E25CE30E9415B56F966CAF16
:102CA0007DAF8EAF9FAF6F970E94789A9B01AC016A
:102CB00028533F4F4F4F5F4FA3962CAF3DAF4EAFC2
:102CC0005FAFA3974BAC5CAC6DAC7EAC222423947D
:102CD000312CD12C2D968EAD9FAD2D97281639060F
:102CE00009F429C10E9441910E94789ADC01CB012C
:102CF000A3962CAD3DAD4EAD5FADA397821B930B5C
:102D0000A40BB50BB7FD10C00E94789A9B01AC01D3
:102D100028533F4F4F4F5F4FA3962CAF3DAF4EAF61
:102D20005FAFA3970E94417FD39438E13D150CF427
:102D30004BC063962CAD3DAD4EAD5FAD6397239612
:102D40006CAD7DAD8EAD9FAD23970E9415B54B0147
:102D50005C0127962CAD3DAD4EAD5FAD2797B2011E
:102D6000C3010E9415B5A50194010E94B1B87B0171
:102D70008C0163962CAD3DAD4EAD5FAD6397B20156
:102D8000C3010E9415B54B015C0127962CAD3DADEA
:102D90004EAD5FAD279723966CAD7DAD8EAD9FADEB
:102DA00023970E9415B59B01AC01C501B4010E9497
:102DB000B0B82B013C01C701D80123968CAF9DAF61
:102DC000AEAFBFAF239756C0B10180E090E00E9444
:102DD000B4B427962CAD3DAD4EAD5FAD27970E94A4
:102DE00015B54B015C010E948AB96B017C01C501DC
:102DF000B4010E9412BB4B015C01A70196016BADAF
:102E00007CAD8DAD9EAD0E9415B52B013C01A50199
:102E100094012B966CAD7DAD8EAD9FAD2B970E942E
:102E200015B59B01AC01C301B2010E94B1B82B01E1
:102E30003C01A50194016BAD7CAD8DAD9EAD0E94B2
:102E400015B54B015C01A70196012B966CAD7DADCC
:102E50008EAD9FAD2B970E9415B59B01AC01C501AE
:102E6000B4010E94B0B823966CAF7DAF8EAF9FAF18
:102E70002397D12C9201A30167966CAD7DAD8EADE9
:102E80009FAD67970E94B1B869837A838B839C83D7
:102E900023962CAD3DAD4EAD5FAD23976B966CADDB
:102EA0007DAD8EAD9FAD6B970E94B1B86D837E8373
:102EB0008F839887A7962CAD3DAD4EAD5FADA7979C
:102EC00069857A858B859C850E94B1B869877A87E8
:102ED0008B879C87AB962CAD3DAD4EAD5FADAB9770
:102EE0006D857E858F8598890E94B1B86D877E87B4
:102EF0008F87988B80911402882321F0CE01019650
:102F00000E94277DC0906B046F96ECACFDAC0EADBB
:102F10001FAD6F979E01235F3F4FAE01475F5F4F2D
:102F2000BE016B5F7F4FCE0101960E94674F4FEF4E
:102F3000241A340ACFCEC0906B046F96ECACFDAC73
:102F40000EAD1FAD6F9728E639E044E659E060E624
:102F500079E08CE599E00E94674F0E941F2F0E9444
:102F600095320C945C29EAEEF1E184918F010F5FB8
:102F70001F4F882321F00E94A032F801F6CFE3E131
:102F8000F2E084918F010F5F1F4F882311F40C949E
:102F90005C290E94A032F801F4CF80E50E94612FE5
:102FA000882329F00E94B02F6B017C0103C0C12C43
:102FB000D12C760183E50E94612F882321F00E94A5
:102FC000EE306B017C010E94849A0E9495328091C0
:102FD0003C0990913D09A0913E09B0913F09C80E6E
:102FE000D91EEA1EFB1E80914302811105C060E0DC
:102FF00089E292E00E94CA480E94789ADC01CB01E3
:103000008C199D09AE09BF09B7FD02C00C945C295B
:103010000E94417FF1CF0E94849A4090000250901C
:103020000102609002027090030240927504509277
:1030300076046092770470927804809106029091F1
:103040000702909374048093730484E690E0909355
:103050000702809306020E94953281E080931D0250
:1030600088E50E94612F282E89E50E94612F082F94
:103070008AE50E94612F382E211005C0011105C07C
:1030800011E0182705C0011102C010E001C0182F7F
:1030900080E1EDE3F5E0ACE5B9E001900D928A95B1
:1030A000E1F7111105C0211003C0002309F49CC0F1
:1030B00020E030E040EA50E460914C0970914D0905
:1030C00080914E0990914F090E94B1B86B017C012B
:1030D000609364097093650980936609909367090A
:1030E0008090450590904605A0904705B090480512
:1030F000A50194010E94D7BA18160CF062C0A7016E
:103100009601C501B4010E94B0B487FF16C080E0EB
:1031100090E0A0E8B0E48093000290930102A093B5
:103120000202B0930302C0924505D0924605E09298
:103130004705F09248050E94422F85E595E5A5E0F8
:10314000B3E48093000290930102A0930202B09333
:1031500003020E94422FC0906409D0906509E0905C
:103160006609F0906709A701960160914505709185
:10317000460580914705909148050E94D7BA1816D8
:10318000B4F480E090E0A0E8B0E480930002909373
:103190000102A0930202B0930302C0924505D092AF
:1031A0004605E0924705F09248050E94422F0E9492
:1031B000849A409200025092010260920202709240
:1031C0000302111105C0211003C0011107C00CC07A
:1031D00080E090E00E94B97D1123B9F381E090E096
:1031E0000E94B97D111102C0332021F082E090E0ED
:1031F0000E94B97D0E9472318091290780931D023F
:103200008091750490917604A0917704B091780430
:103210008093000290930102A0930202B0930302F4
:103220008091730490917404909307028093060236
:103230000E9495320E943F370C945C2910927004D2
:103240000C945C2981E0809370040C945C2985E4E3
:103250000E94612FB82E811102C00E94849A31ED24
:10326000832E32E0932E4DE3C42E45E0D42E50E55C
:10327000E52E59E0F52E00E010E0A12CD4018D914F
:103280004D010E94612F882309F44EC0F601208170
:10329000318142815381C457DF4F2883CC58D040BD
:1032A000C357DF4F3883CD58D040C257DF4F4883D4
:1032B000CE58D040C157DF4F5883CF58D0400E94DE
:1032C000BB2FD6016D937D938D939C931397C45719
:1032D000DF4F2881CC58D040C357DF4F3881CD58BD
:1032E000D040C257DF4F4881CE58D040C157DF4F42
:1032F0005881CF58D04003301105B1F00E94B0B8CA
:103300009B01AC01F70160817181828193810E94F0
:10331000B1B8D7016D937D938D939C931397C8019A
:103320000E943D32AA24A3940F5F1F4FB4E0CB0E3E
:10333000D11CE4E0EE0EF11C0430110509F09ECF23
:10334000AA2019F00E94723137C0BB20A9F1C090A9
:103350004905D0904A05E0904B05F0904C0520912E
:10336000200D3091210D4091220D5091230DC70168
:10337000B6010E9415B50E94E2BA6093B20970933B
:10338000B3098093B4099093B509C701B6010E94AF
:10339000F5B92FB7F8946093BA0C7093BB0C809377
:1033A000BC0C9093BD0C2FBF1092A2091092A309E0
:1033B0001092A4091092A5090E943F370C945C2931
:1033C000FFE6EF16F10409F48EC508F0B4C03AE246
:1033D000E316F10409F4D3C408F058C057E1E51628
:1033E000F10409F466C228F592E1E916F10409F442
:1033F000A9C678F4B2E0EB16F10408F499C1E1E152
:10340000EE16F10411F00C945C290E940D2F0C941F
:103410005C29F5E1EF16F10409F441C208F043C25A
:1034200034E1E316F10411F00C945C29E7E7F2E0D3
:10343000F3C14BE1E416F10409F461C240F489E1FF
:10344000E816F10409F447C208F43AC24AC2AEE1F0
:10345000EA16F10409F48FC268F4ECE1EE16F10407
:1034600011F00C945C2940E060E0C8010E949A755C
:103470000C945C29FFE1EF16F10409F4DAC320E2B1
:10348000E216F10409F485C30C945C2935E5E316D2
:10349000F10409F486C628F551E5E516F10409F4AE
:1034A00035C6A0F49CE4E916F10409F4B0C4ADE417
:1034B000EA16F10409F4AFC4BBE4EB16F10411F011
:1034C0000C945C290E944C7A0C945C29E3E5EE167E
:1034D000F10409F432C608F035C610926F040C945A
:1034E0005C292AE6E216F10409F4D8C588F448E616
:1034F000E416F10409F493C408F07CC58CE5E816E1
:10350000F10411F00C945C290E94E42F0C945C29C6
:103510009CE6E916F10409F452C508F4E5C5BDE6D8
:10352000EB16F10409F480C5EEE6EE16F10409F499
:10353000C7C40C945C29F3EDEF16F10411F40C945C
:10354000012308F07BC03CE8E316F10409F43BC515
:1035500070F555E7E516F10409F440C6A0F492E7CA
:10356000E916F10409F430C6A3E7EA16F10409F4F8
:1035700031C6B0E7EB16F10411F00C945C298DE62E
:1035800093E00E94F47EE8E7EE16F10409F42CC6FD
:10359000F9E7EF16F10409F42EC627E7E216F10465
:1035A00011F00C945C290E9450650C945C2939EC54
:1035B000E316F10409F4E1C688F45EEBE516F104C4
:1035C00009F450C588ECE816F10409F48EC691E9B7
:1035D000E916F10411F00C945C2913C6ACECEA1660
:1035E000F10409F400C780F4EBECEE16F10411F0DD
:1035F0000C945C2994E4E92E9DE0F92E01ED12E093
:1036000024E0D22ED00EE0C6FDECEF16F10409F452
:1036100054C72EECE216F10411F00C945C2911ED64
:10362000A12E12E0B12E0DE3C02E05E0D02E81E3D5
:10363000E82E85E0F82E00E010E0AAC730E9E31696
:1036400031E0F30611F40C94D427C0F55CE2E516E2
:1036500051E0F50611F40C94EB23A0F49DEDE9166E
:10366000F10411F40C94A623A2EEEA16F10411F46D
:103670000C94BF23BCEDEB16F10411F00C945C2903
:103680000C949923EEE2EE16E1E0FE0611F40C94A0
:10369000B02410F40C9411242FE2E21621E0F2067B
:1036A00011F40C94272533E6E31631E0F30611F00C
:1036B0000C945C29EAEEF1E10C940B2945EFE41639
:1036C00041E0F40611F40C94F728C8F48CEAE816EB
:1036D00081E0F80611F40C94D72794EFE91691E0F5
:1036E000F90611F40C94DE28AAE9EA16A1E0FA061C
:1036F00011F00C945C290E947C310C945C29B7EF8A
:10370000EB16B1E0FB0611F40C94002910F40C94B4
:10371000FD28F0EAEF16F3E0FF0609F480C227EE79
:10372000E21623E0F20611F40C9422290C945C2991
:1037300080E50E94612F882361F00E94B02F6B0109
:103740007C01BB24B394672B682B692B31F4B12C1B
:1037500004C0B12CC12CD12C760183E50E94612FCD
:10376000882399F00E94EE306B017C01B1100FC0EC
:10377000672B682B692B59F4D8018C91882339F079
:1037800061E0C8010E94DF4807C0BB20A9F360E0E8
:1037900085E592E00E94CA4881E0809314050E946A
:1037A000849A0E949532C114D104E104F104E9F035
:1037B00080913C0990913D09A0913E09B0913F094B
:1037C000C80ED91EEA1EFB1E0E94789ADC01CB01AE
:1037D0008C199D09AE09BF09B7FF1AC08091140565
:1037E0008823B1F00E94417FEFCF80911405882398
:1037F00019F00E94417FF9CF8091E60960E08823AB
:1038000019F086E492E002C082E392E00E94CA4886
:10381000109214050C945C2984918F010F5F1F4F47
:10382000882321F00E94A032F801F6CF10926C0C90
:1038300010926B0C40E050E0BA0187E19AE00E94E0
:10384000DE6C8BE1E7E1FAE0DE01159601900D9266
:103850008A95E1F78091150A9091160A9C838B83D3
:1038600087EB93E09A83898340E050E0BE016F5F6D
:103870007F4F86E694E00E949383CE0101960E94DA
:10388000DA7EE8E6F2E084918F010F5F1F4F882314
:1038900011F40C945C290E94A032F801F4CF0E942C
:1038A000C6780C945C291092E6091092E7090C94F2
:1038B0005C2940E061E0C8010E949A750C945C2983
:1038C0008091E709882319F081E08093E6090E943E
:1038D0004C7A0C945C291092E6090E948C7A0C9424
:1038E0005C298091E709882311F40C945C2983E515
:1038F0000E94612F81110C945F290C945C298091A6
:10390000E709882351F1E8E8F2E084918F010F5F25
:103910001F4F882321F00E94A032F801F6CF60915A
:10392000620C7091630C8091640C9091650C4AE07C
:103930000E94B6328FE20E94A03260915E0C7091BC
:103940005F0C8091600C9091610C4AE00E94B6324D
:103950008AE00E94A0320C945C29EAE9F2E08491AA
:103960008F010F5F1F4F882311F40C945C290E9474
:10397000A032F801F4CF8091E709882311F40C9468
:103980005C2981EB9BE00E94AC6C81EB9BE00E9488
:10399000A67A1092E5091092E409E0907104F09083
:1039A00072048091E709882311F40C945C290E9429
:1039B00039821D8218861C821B8287EB93E09A83D2
:1039C000898383E19AE09093330A8093320AF70166
:1039D00080818F3209F068C06FE270E0C7010E94F9
:1039E0000CBC8C010F5F1F4F9E012F5F3F4F4901A1
:1039F0000115110509F45EC06FE270E0C8010E9474
:103A00000CBC6C01009709F456C00817190708F0A0
:103A100052C05C01A01AB10AA501B801CE0180967E
:103A20000E9435BCE0E2F0E0EC0FFD1FEA0DFB1D4B
:103A300010828E01005E1F4FD8018D918D01882369
:103A400019F00E94A032F8CF8AE00E94A032609163
:103A5000320A7091330A6115710511F06C5F7F4F66
:103A600021E0AE01405E5F4FCE0105960E94C1721B
:103A7000811112C0BE01605E7F4F81ED92E00E9415
:103A8000E84D8EE20E94A0328AE00E94A032C4017A
:103A90000E94DA7E0C945C299092330A8092320A5A
:103AA00086010F5F1F4FA4CF84E39AE09093330AFF
:103AB0008093320A87016091320A7091330A61154E
:103AC000710511F06C5F7F4F18A21BA222E0A801C4
:103AD000CE0180960E94C172811102C0F12C14C0E7
:103AE000CE0180960E94A7818823C1F361E0CE01B8
:103AF00080960E94AF7A009789F325EEFC0120831F
:103B00001BA20E946C6CF82ECE0180960E948F3210
:103B1000FF2009F1EBEAF2E084917F012FEFE21A36
:103B2000F20A882321F00E94A032F701F5CFD801D4
:103B30008D918D01882319F00E94A032F8CF8AE080
:103B40000E94A0321092620C1092630C1092640CCE
:103B50001092650C18C0E9EBF2E084917F01BFEF91
:103B6000EB1AFB0A882321F00E94A032F701F5CF5F
:103B7000F80181918F01882319F00E94A032F8CFBB
:103B80008EE20E94A032CE0101960E94DA7E0C9451
:103B90005C298091E60981110E94849A0091710448
:103BA0001091720461E270E0C8010E940CBC0097A1
:103BB00019F08C010F5F1F4F80E50E94612F882351
:103BC00049F0FF24F3948091680490916904801770
:103BD000910708F0F12C8091E709882311F40C94E7
:103BE0005C294F2D61E0C8010E949A7583E50E940F
:103BF000612F882349F080916804909169048017AF
:103C0000910710F40C9470298091E709882319F02A
:103C100081E08093E609F1100C945C2958CE81E094
:103C20008093E50940E060E0C8010E949A750C9419
:103C30005C290E945D832CE3C22ED12CE12CF12C57
:103C4000A70196010E9475B8762E672ECA01B901A8
:103C5000A70196010E9475B86B017C01CA01B901E8
:103C600028E130E040E050E00E9475B84B015C0173
:103C7000C9016DE671E00E9475BB8E010F5F1F4F99
:103C80006115710599F06F927F92DF92CF929F92AA
:103C90008F929F938F937F936F938DE093E09F9389
:103CA0008F931F930F930E9449B412C00097B1F0F5
:103CB0006F927F92DF92CF929F928F929F938F937A
:103CC0008DEF92E09F938F931F930F930E9449B4BF
:103CD0000FB6F894DEBF0FBECDBF36C0811491047D
:103CE000A104B10479F06F927F92DF92CF929F92FC
:103CF0008F9281EF92E09F938F931F930F930E9477
:103D000049B4E6CFC114D104E104F10469F06F9223
:103D10007F92DF92CF9289EE92E09F938F931F93D1
:103D20000F930E9449B4D4CF6F927F9285EE92E0B8
:103D30009F938F931F930F930E9449B40F900F90FE
:103D40000F900F900F900F9060E0C8010E94DF4825
:103D5000E3E0F3E184917F01BFEFEB1AFB0A8823D4
:103D600021F00E94A032F701F5CFB80181E293E083
:103D70000E94E84D8AE00E94A0320C945C2983E501
:103D80000E94612F882311F40C945C290E94A32FB8
:103D90007C018F3F910519F010F00C945C2980E5AF
:103DA0000E94612F882339F00E94A32F8C0197FF76
:103DB00004C00C945C290DE010E0D02EE5EDF2E09B
:103DC000C8019927219131912817390731F023E053
:103DD000EB32F207B9F70C944929EAEEF1E184914C
:103DE0008F010F5F1F4F882321F00E94A032F8013E
:103DF000F6CFEEE2F3E084918F010F5F1F4F88232F
:103E000011F40C945C290E94A032F801F4CF0E94B6
:103E10008C7A0C945C290E9462820C945C2988E65E
:103E200090E00E94363381110C945C298091F60653
:103E300083FF02C00C945C2983E50E94612F8823D4
:103E4000D9F10E94A32F9093840D8093830D80E07D
:103E50000E94548D0E94A32F863591053CF40E9448
:103E6000628260E084E493E00E94CA480E94A32F2B
:103E70008C016091780C7091790C80917A0C909102
:103E80007B0C0E94F5B960177107B4F48FEC93E0D6
:103E90009F938F9380916A0490E001969F938F93F4
:103EA0008DE393E09F938F931F920E94327A0FB617
:103EB000F894DEBF0FBECDBF0E9442AC0C945C29CB
:103EC0008EE40E94612F882311F40C945C290E94D7
:103ED000D5A560930D1370930E1380930F139093D9
:103EE00010130C945C2983E50E94612F882319F03C
:103EF0000E94742F01C080E08093F606E3E0F3E1B6
:103F000084918F010F5F1F4F882321F00E94A03200
:103F1000F801F6CFE6E6F3E084918F010F5F1F4FC3
:103F2000882321F00E94A032F801F6CF8091F60696
:103F30008823A1F198E5C92E93E0D92EE12CF12C2C
:103F400020E08091F60690E00E2C02C095958795B2
:103F50000A94E2F780FF17C0BB24B394B20E222369
:103F600019F08CE20E94A032F60125913491F901FA
:103F7000849189010F5F1F4F882321F00E94A03296
:103F80009801F5CF2B2DFFEFEF1AFF0A32E0C30E99
:103F9000D11C45E0E416F104A1F60CC0E2E6F3E022
:103FA00084918F010F5F1F4F882321F00E94A03260
:103FB000F801F6CF8AE00E94A0320C945C2910929E
:103FC00080020C945C298091F60683FF02C00C9459
:103FD0005C2983E50E94612F882311F40C945C29ED
:103FE0000E94A32F9093880D8093870D0E94218DAE
:103FF0000C945C2989E690E00E94363381110C9480
:10400000792EE6E7F3E084918F010F5F1F4F88233D
:1040100021F00E94A032F801F6CF0E946F338AE0AF
:104020000E94A0320C94792E8DE690E00E943633E7
:1040300081110C945C298091F60683FF02C00C94D8
:104040005C2983E50E94612F28968FAF2897811104
:104050000C94822982E50E94612F81110C9482299F
:104060000C945C298091F60683FF02C00C945C29B5
:1040700060E08AEB93E00E94CA4883E50E94612FCA
:1040800028968FAF289781110C94212B82E50E94EE
:10409000612F81110C94212B0C945C2983E50E94E3
:1040A000612F882321F00E94C8A58C0102C00FEF68
:1040B00010E080E50E94612F882319F00E94C8A5B6
:1040C00002C080E090E098010F3F110519F010F058
:1040D0002FEF30E0892B11F00C945C293093860D82
:1040E0002093850D0C945C2980E50E94612F81113D
:1040F00006C01092860D1092850D0C945C290E94CA
:10410000C8A5892B11F00C945C29F3CF0E94878DF0
:104110000E94849A0E94E27E1092860D1092850D74
:1041200068EE73E080E090E00E94524860E087EC27
:1041300093E00E94CA480C945C2981E080936F044C
:104140000C945C2983E50E94612F882361F00E9412
:10415000EE3060933F02709340028093410290934F
:1041600042020C945C2988E50E94612F81110C9415
:10417000862C89E50E94612F81110C94862C8AE59A
:104180000E94612F81110C94862C85E40E94612F7E
:1041900081110C94862C0E94849A0E94E27E0C94D9
:1041A0005C2983E50E94612F882311F40C945C291B
:1041B0000E94EE3060934009709341098093420958
:1041C000909343090C945C290E94849A0E943F3783
:1041D0000C945C290E94A7320C945C2960E0C80111
:1041E0000E94DF480C945C2981E080931D0280933B
:1041F00029070C945C2910921D02109229070C9437
:104200005C2983E50E94612F8823F9F00E94A32F87
:10421000182F8230D8F0EAEEF1E184918F010F5F20
:104220001F4F882321F00E94A032F801F6CFE9ED5C
:10423000F3E084918F010F5F1F4F882311F40C94DA
:104240005C290E94A032F801F4CF10E088E40E94BB
:10425000612F8823A9F00E94A32FE12FF0E08A3A72
:10426000910534F0863F91052CF085EF90E002C077
:104270008AEA90E0EE0FFF1FEB5EF84F9183808398
:1042800086E40E94612F8823A1F00E94A32FE12FD2
:10429000F0E0EE0FFF1FE75EF84F8F3F910519F03A
:1042A00014F08FEF90E097FF02C080E090E09183E0
:1042B000808382E40E94612F882309F4FDC70E9455
:1042C000A32FE12FF0E08530910534F08036910581
:1042D0002CF08FE590E002C085E090E0EE0FFF1F2C
:1042E000EF5EF84F91838083E7C788EC90E00E94EF
:1042F00036338111E1C784E40E94612F8823D1F114
:104300000E94BB2F11E020E030E0A9010E94B0B470
:10431000811101C010E010938612112359F1009110
:104320006A0410E00E94BB2F000F111F000F111F25
:10433000F801E353FD4F608371838283938320E010
:1043400030E0A9016091CD027091CE028091CF0240
:104350009091D0020E94B0B481110CC080E090E036
:10436000A0E4B0E48093CD029093CE02A093CF025C
:10437000B093D0020E940CA59FC73CE2E32E3DE023
:10438000F32E01ED12E044E0D42ED00ED8018D9131
:104390008D010E94612F882349F00E94BB2F0E944B
:1043A000FAB9F7016083718382839383F4E0EF0E9F
:1043B000F11CD012EBCF0E94104E7EC7F4E0EF0E3E
:1043C000F11CD01609F478C7D8018D918D010E9497
:1043D000612F882399F30E94BB2FF70160837183BB
:1043E00082839383EBCF83E50E94612F8823D9F0EA
:1043F0000E94BB2FAB01BC014093640D5093650D2F
:104400006093660D7093670D4093240D5093250DB6
:104410006093260D7093270D85E594E00E94B24DC0
:104420008AE00E94A03280E50E94612F882399F0E3
:104430000E94BB2FAB01BC014093640D5093650DEE
:104440006093660D7093670D88E394E00E94B24D0F
:104450008AE00E94A03282E50E94612F882399F0B1
:104460000E94BB2FAB01BC014093280D5093290D36
:1044700060932A0D70932B0D89E194E00E94B24D58
:104480008AE00E94A03284E50E94612F882309F40B
:1044900013C70E94BB2FAB01BC014093240D509366
:1044A000250D6093260D7093270D8BEF93E00E94EE
:1044B000B24D8AE00E94A032FFC683E50E94612FC0
:1044C000882351F00E94BB2F6093400D7093410DE3
:1044D0008093420D9093430D84E50E94612F8823C1
:1044E00051F00E94BB2F60933C0D70933D0D809363
:1044F0003E0D90933F0D82E40E94612F882351F07E
:104500000E94B02F6093F2067093F3068093F40636
:104510009093F50688E50E94612F882351F00E9450
:10452000BB2F6093540D7093550D8093560D90934F
:10453000570D89E50E94612F882351F00E94BB2FFF
:104540006093580D7093590D80935A0D90935B0DA5
:104550008AE50E94612F882351F00E94BB2F60934F
:104560005C0D70935D0D80935E0D90935F0D85E4FF
:104570000E94612F882309F49FC60E94BB2F60937D
:10458000600D7093610D8093620D9093630D94C6DE
:10459000D5018D915D010E94612F882311F10E9448
:1045A000BB2F2B013C01F7012081318142815381D6
:1045B0000E94B0B89B01AC01D6016D917D918D91A7
:1045C0009C910E94B1B8F6016083718382839383CA
:1045D000D7014D925D926D927C921397C8010E9413
:1045E0003D320F5F1F4FB4E0CB0ED11CE4E0EE0E66
:1045F000F11C0330110561F60E9472310E943F37B1
:104600005BC6E3E0F3E184918F010F5F1F4F8823C6
:1046100021F00E94A032F801F6CF83E50E94612FBD
:10462000882321F00E949CA580931402E5EAF4E01F
:1046300084918F010F5F1F4F882321F00E94A032C9
:10464000F801F6CF80911402811103C0E1EAF4E091
:1046500002C0EDE9F4E084918F010F5F1F4F8823C2
:1046600021F00E94A032F801F6CFE5E9F4E0849150
:104670008F010F5F1F4F882321F00E94A032F801A5
:10468000F6CF4091EE045091EF046091F0047091E8
:10469000F10483E994E00E94B24D4091F2045091FC
:1046A000F3046091F4047091F50480E994E00E94B1
:1046B000B24D4091F6045091F7046091F804709166
:1046C000F9048DE894E00E94B24DE5E8F4E08491AD
:1046D0008F010F5F1F4F882321F00E94A032F80145
:1046E000F6CF409108025091090260910A02709140
:1046F0000B0283E894E00E94B24D40910C0250916D
:104700000D0260910E0270910F0280E894E00E9409
:10471000B24D4091100250911102609112027091BD
:1047200013028DE794E00E94B24D8AE00E94A0320D
:10473000C3C583E50E94612F882309F4BDC50E948B
:10474000A32F9093070280930602B6C58DED90E0EB
:104750000E9436338111B0C583E50E94612F882302
:1047600009F4AAC500916A0410E00E94A32F000F6B
:10477000111FF801EC5FFD4F918380839DC580E59B
:104780000E94612F882309F497C50E94A32F8C01F2
:1047900083E50E94612F882321F00E94A32F7C01D2
:1047A00003C0EE24EA94FE2CC7010196039708F09B
:1047B00083C517FD81C5E5EDF2E0C8019927219178
:1047C00031912817390709F477C523E0EB32F20756
:1047D000B1F70C94512E83E50E94612F882319F0C4
:1047E0000E94C8A502C084E091E099A388A380E557
:1047F0000E94612F882349F00E94C8A5893833E1BF
:10480000930728F088E893E102C088EE93E09A834A
:104810008983BE01605E7F4FCE0101960E94FE79C2
:104820004BC585E40E94612F811110C080E50E9474
:10483000612F882399F00E94BB2F6093260270930A
:104840002702809328029093290208C00E94A32F78
:10485000181619065CF7EAEEF1E171C089E40E94CE
:10486000612F882381F00E94BB2F2CEA35EC47E2B0
:104870005EE30E9415B560932E0270932F02809321
:1048800030029093310284E40E94612F882381F0EA
:104890000E94BB2F2CEA35EC47E25EE30E948DB903
:1048A00060932A0270932B0280932C0290932D0226
:1048B000E3E0F3E184918F010F5F1F4F882321F024
:1048C0000E94A032F801F6CF4091260250912702B3
:1048D00060912802709129028DEB94E00E94B24D04
:1048E0002CEA35EC47E25EE360912E0270912F02D4
:1048F00080913002909131020E948DB9AB01BC01D0
:1049000089EB94E00E94954D2CEA35EC47E25EE39A
:1049100060912A0270912B0280912C0290912D02BD
:104920000E9415B5AB01BC0185EB94E00E94954D4A
:104930008AE00E94A032C0C40E94A032F801849193
:104940008F010F5F1F4F8111F7CF0AED13E0D801E0
:104950008D918D01882309F42DCB0E94A032F7CFD1
:1049600083E50E94612F082F8823D1F00E94A32F96
:10497000BC01990F880B990B0E94B6B460931E027C
:1049800070931F02809320029093210211E020E097
:1049900030E0A9010E94B0B4811110E01093F1063B
:1049A00080E50E94612F182F8823A9F020E030E0D5
:1049B000A90160911E0270911F02809120029091C6
:1049C00021020E94B0B4882319F00E949CA5182FE0
:1049D0001093F10671C401116FC4E3E0F3E1849117
:1049E0008F010F5F1F4F882321F00E94A032F80132
:1049F000F6CF8091F106811103C06BEC73E002C029
:104A000068E374E086ED94E00E94E84D20E030E039
:104A100040E05FE360911E0270911F0280912002CE
:104A2000909121020E94B1B80E94F5B985EC94E002
:104A30000E94CF4DE1ECF4E084918F010F5F1F4F96
:104A4000882309F439C40E94A032F801F5CF85E427
:104A50000E94612F882321F00E94A32F8C0102C0A5
:104A600000E010E083E40E94612F882349F00E9457
:104A7000A32FCA57DF4F99838883C658D04008C0F8
:104A8000E5E0F0E0CA57DF4FF983E883C658D0402D
:104A900085E50E94612FED968FAFED97882329F071
:104AA0000E949CA5ED968FAFED9783E50E94612F44
:104AB000882319F00E94A32F04C017FD08C086E9BF
:104AC00090E00115110529F410926A0402C086E4F1
:104AD00090E0BC01990F880B990B0E94B6B4249604
:104AE0006FAF24972C967FAF2C9760968FAF60970F
:104AF00064969FAF64970E94789A4B015C01012BEA
:104B000019F40BEE13E00BC00EEF13E0D8018D91FA
:104B10008D01882309F44ECA0E94A032F7CFF80114
:104B200081918F01882319F00E94A032F8CF8AE08A
:104B30000E94A0320E94878D8FE78093C00C81E095
:104B400080938002C258DF4F88829982AA82BB82FA
:104B5000CE57D040C857DF4F88829982AA82BB8245
:104B6000C858D04068961FAE6897F0E46C96FFAFC7
:104B70006C972CE1A0962FAFA09736E4AC963FAF90
:104B8000AC97E0961FAEE097A4961FAEA497A896A8
:104B90001FAEA897E4961FAEE497EC961CAE1DAE30
:104BA0001EAE1FAEEC97E8961CAE1DAE1EAE1FAE3D
:104BB000E897C12CD12C7601FFE74F2E512C612CA8
:104BC000712C8FE790E0A0E0B0E023968CAF9DAF12
:104BD000AEAFBFAF2397CE57DF4F188219821A822C
:104BE0001B82C258D04091E0EE969FAFEE97299677
:104BF0001FAE1EAE2997212C312C00E010E08091D1
:104C00008002882309F4C9C10E94789A6BAF7CAFF7
:104C10008DAF9EAF8091BE0C882309F4CBC00E945B
:104C20001F912090780C3090790C00917A0C1091A3
:104C30007B0C9101A801E0966FADE097A4967FAD43
:104C4000A497A8968FADA897E4969FADE4970E948D
:104C5000B0B487FF0CC0E0962FAEE097A4963FAEAD
:104C6000A497A8960FAFA897E4961FAFE497910179
:104C7000A80168966FAD68976C967FAD6C97A0960B
:104C80008FADA097AC969FADAC970E94D7BA18167F
:104C900064F468962FAE68976C963FAE6C97A096BA
:104CA0000FAFA097AC961FAFAC97EE96AFADEE9757
:104CB00024962FAD24972C963FAD2C9760964FAD40
:104CC000609764965FAD6497B101C801AA2309F4A7
:104CD00055C00E94D7BA18160CF06CC04BAD5CAD35
:104CE0006DAD7EAD481959096A097B09DB01CA011E
:104CF00088589341A109B109B7FD5CC023968CADDA
:104D00009DADAEADBFAD239784199509A609B7092E
:104D1000B595A795979587958093C00CCE57DF4F93
:104D2000488359836A837B83C258D0402496BFADA1
:104D30002497E096BFAFE0972C96EFAD2C97A49602
:104D4000EFAFA4976096FFAD6097A896FFAFA897C6
:104D500064962FAD6497E4962FAFE4978BAD9CAD2E
:104D6000ADADBEADC258DF4F88839983AA83BB83A4
:104D7000CE57D040EE961FAEEE971CC00E94B0B446
:104D800087FF18C08BAD9CADADADBEADC258DF4F37
:104D9000288139814A815B81CE57D040821B930B99
:104DA000A40BB50BAC01BD01485853416109710911
:104DB00077FFD3C520E030E040EA51E424966FADA0
:104DC00024972C967FAD2C9760968FAD6097649654
:104DD0009FAD64970E94B1B89B01AC01B101C801BD
:104DE0000E94D7BA18166CF4E3EAF5E084918F01BB
:104DF0000F5F1F4F882309F45FC20E94A032F801A1
:104E0000F5CF80E398EFAFEFBFEFC857DF4F2881B2
:104E100039814A815B81C858D040821B930BA40B17
:104E2000B50B2BAD3CAD4DAD5EAD820F931FA41FF6
:104E3000B51FB7FD11C00E946F338AE00E94A032F7
:104E40008BAD9CADADADBEADC857DF4F88839983A8
:104E5000AA83BB83C858D0408BAD9CADADADBEAD71
:104E6000880F991FAA1FBB1FC258DF4F28813981A5
:104E70004A815B81CE57D040821B930BA40BB50BAC
:104E800088199909AA09BB0981389F44A241B10533
:104E900068F0E5E8F5E084918F010F5F1F4F8823EC
:104EA00009F40AC20E94A032F801F5CF29964EAD4E
:104EB0005FAD2997CA57DF4F88819981C658D04086
:104EC000841795070CF066C0E8E2F5E084918F0145
:104ED0000F5F1F4F882321F00E94A032F801F6CF08
:104EE000B701A60183E195E00E94B24D8AE00E94DD
:104EF000A032E8964CAD5DAD6EAD7FADE8978EEF1C
:104F000094E00E94B24D8AE00E94A032EC964CAD33
:104F10005DAD6EAD7FADEC9789EE94E00E94B24D31
:104F20008AE00E94A032ED969FADED97992309F497
:104F3000C3C1C0922602D0922702E0922802F092CA
:104F400029022CEA35EC47E25EE3E8966CAD7DADD4
:104F50008EAD9FADE8970E9415B560932E027093B9
:104F60002F0280933002909331022CEA35EC47E215
:104F70005EE3EC966CAD7DAD8EAD9FADEC970E947F
:104F80008DB960932A0270932B0280932C02909328
:104F90002D0292C10E94F04832CE80918002811190
:104FA0008BC10E94878D88C10E94849A85C1A1E32C
:104FB000B5E0BCAFABAF8DE3282E85E0382EE1E73E
:104FC000FCE02196FFAFEEAF219700E010E02196C4
:104FD0002EAD3FAD219721573C4029963FAF2EAFD4
:104FE00029972196AEADBFAD21978D912196BFAF88
:104FF000AEAF2197882309F4ACC0F801E85FFD4FFC
:105000002081318142815381F801E251FB4F60815F
:105010007181828193810E94B1B820E030E040E04C
:105020005FE30E9415B59B01AC01F10160817181C4
:10503000828193810E94D7BA181634F4C8018A5528
:105040009D4E0E94373203C060E070E0CB01D10179
:105050008D909D90AD90BC90F801EC5BF64F208157
:105060003181428153810E94B1B89B01AC01C501DD
:10507000B4010E94B0B86B017C0120E030E040EA4E
:1050800051EC0E94D7BA87FD35C020E030E040EAFD
:1050900051E4C701B6010E94B0B418165CF1EBAD43
:1050A000FCAD4080518062807380A7019601C301EE
:1050B000B2010E94B0B86B017C01A30192010E9471
:1050C000B0B89B01AC01C501B4010E94B1B8D101D7
:1050D0006D937D938D939C931397EBADFCADC08244
:1050E000D182E282F38229968EAD9FAD29970E94EC
:1050F0003D322FC0EAEEF1E184918F010F5F1F4F27
:10510000882321F00E94A032F801F6CFE5E3F6E013
:1051100084918F010F5F1F4F882321F00E94A032DE
:10512000F801F6CF61E087E296E00E94CA480E944B
:10513000C18588E290E09A83898388EC90E099A306
:1051400088A3BE016F5F7F4FCE0180960E94FE79DB
:10515000B3C02BAD3CAD2C5F3F4F3CAF2BAF0C5FD2
:105160001F4F34E0230E311C0C30110509F02FCFF6
:105170000E9472310E943F3760E087E196E00E9412
:10518000CA4883E992E099A388A304E610E01A8351
:105190000983BE01605E7F4FCE0101960E94FE79B9
:1051A0008AEB92E099A388A31A830983BE01605E0B
:1051B0007F4FCE0101960E94FE797EC0EAEEF1E1BA
:1051C00084918F010F5F1F4F882321F00E94A0322E
:1051D000F801F6CFE3E5F6E084918F010F5F1F4FF2
:1051E000882309F469C00E94A032F801F5CF0E941B
:1051F000436980E00E94B2655FC00E9443695CC061
:1052000083E55FD6882321F00E949CA591E0892741
:105210000E94B26551C084918F010F5F1F4F882398
:1052200021F00E94A032F801F6CFE4E6F6E0849186
:105230008F010F5F1F4F882309F43EC00E94A032E8
:10524000F801F5CF81E08093810210922C0783E56D
:1052500038D6882309F40AC50E949CA581112CC068
:1052600005C5E0926B04E3E0F3E184918F010F5FE9
:105270001F4F882321F00E94A032F801F6CFB7011A
:10528000772783E796E00E94CF4D8AE00E94A03204
:1052900013C061E08D2D0E943D996E2D8D2D0E94D1
:1052A0000E99B7018D2D0E9479990930110521F4CD
:1052B000F092860DE092850D0E9453A51AC50E94BA
:1052C000D5A5AB01BC014093620C5093630C609375
:1052D000640C7093650C81EB9BE00E94DE6CECCF5C
:1052E0000E94D5A5AB01BC014093620C5093630CA6
:1052F0006093640C7093650C81EB9BE00E94DE6C04
:105300000C94041E20D69093840D8093830D80E02E
:105310000E94548D18D68635910544F40E9462820D
:1053200060E085E993E00E94CA4802C00E944C7A7E
:105330006091830D7091840D072E000C880B990BE2
:105340000E94B6B42091780C3091790C40917A0C7F
:1053500050917B0C0E94D7BA1816B4F48FEC93E0EE
:105360009F938F9380916A0490E001969F938F930F
:105370008EE893E09F938F931F920E94327A0FB62C
:10538000F894DEBF0FBECDBF0E9442AC81E0809397
:10539000800223961CAE1DAE1EAE1FAE239727962D
:1053A0001CAE1DAE1EAE1FAE27971BAE2C961FAEB9
:1053B0002C979CE360969FAF6097ACE16496AFAF8B
:1053C0006497B6E46896BFAF6897C12CD12C00E80B
:1053D000E02E8FEBF82E812C912C54016091830DDF
:1053E0007091840D072E000C880B990B0E94B6B4A7
:1053F000162F072F782E692E262F372F482F592F3B
:10540000B601C7010E94B0B4882321F12091780C25
:105410003091790C40917A0C50917B0C612F702F58
:10542000872D962D0E94B0B4881F8827881F8BAFC8
:105430002896EFAD2897EE2389F0882379F08091A4
:105440008002882309F438CF60E089E793E00E9466
:10545000CA4832CF1C2D0D2D7E2C6F2C0E94789ABD
:105460006B017C01DC01CB0127962CAD3DAD4EAD2F
:105470005FAD2797821B930BA40BB50BB7FD47C0FD
:10548000D701C60188519C4FAF4FBF4F27968CAFB5
:105490009DAFAEAFBFAF27970E946F33EAE8F3E04E
:1054A00084912F019FEF491A590A882321F00E9405
:1054B000A032F201F5CF81149104A104B104D1F01E
:1054C000D501C401805F984DAF4FBF4FBC01CD01E6
:1054D0006C197D098E099F0928EE33E040E050E009
:1054E0000E9475B8CA01B9010E941C338AE00E946B
:1054F000A0320DC0E7E8F3E084912F01AFEF4A1A24
:105500005A0A882321F00E94A032F201F5CF0E94AE
:10551000417F0E9495326091780C7091790C809156
:105520007A0C90917B0C0E94F5B9072E000C880B29
:10553000990B0E94B6B41B012C019B01AC01612F99
:10554000702F872D962D0E94B0B89F7781149104FB
:10555000A104B10449F420E030E040E85FE30E9498
:10556000B0B487FF0BC008C020E030E040E450E456
:105570000E94D7BA181614F446015701BBADBB23DD
:1055800009F443C023962CAD3DAD4EAD5FAD2397DE
:10559000211531054105510541F0D701C601821B96
:1055A000930BA40BB50BB7FD30C09101A2012C9653
:1055B0006FAD2C9760967FAD609764968FAD6497C2
:1055C00068969FAD68970E94B0B820E030E040EC4C
:1055D0005FE30E94B0B487FD32CFD701C601805A85
:1055E0009541AF4FBF4F23968CAF9DAFAEAFBFAFCE
:1055F00023972C962FAE2C9760963FAE60976496BB
:105600004FAE649768965FAE68978091800288235A
:1056100009F415CF81149104A104B10429F4C12E19
:10562000D02EE72CF62CDACE90E1C91A97E2D90AEF
:10563000E108F108C818D908EA08FB08F7FEFFCE10
:10564000EECF81D49093880D8093870D0E94218D99
:105650007AD4069714F00E944C7A81E080938002FD
:1056600080916B0480936A0423961CAE1DAE1EAE1F
:105670001FAE239727961CAE1DAE1EAE1FAE2797FA
:105680001BAE2C961FAE2C97ACE36096AFAF609725
:10569000BCE16496BFAF6497E6E46896EFAF6897A5
:1056A000C12CD12CB0E8EB2E1FEBF12E812C912CCC
:1056B00054016091870D7091880D072E000C880BA6
:1056C000990B0E94B6B4162F072F782E692E262F1D
:1056D000372F482F592FB601C7010E94B0B4882335
:1056E00021F12091740C3091750C4091760C509101
:1056F000770C612F702F872D962D0E94B0B4881FD4
:105700008827881F8BAF2896FFAD2897FF2389F045
:10571000882379F080918002882309F4CDCD60E060
:1057200089EA93E00E94CA48C7CD1C2D0D2D7E2C1E
:105730006F2C0E94789A6B017C01DC01CB012796CB
:105740002CAD3DAD4EAD5FAD2797821B930BA40BE7
:10575000B50BB7FD42C0D701C60188519C4FAF4F72
:10576000BF4F27968CAF9DAFAEAFBFAF2797B7D7D0
:10577000E6EBF3E084912F019FEF491A590A882341
:1057800019F0DED6F201F6CF81149104A104B10420
:10579000C1F0D501C401805F984DAF4FBF4FBC0130
:1057A000CD016C197D098E099F0928EE33E040E098
:1057B00050E00E9475B8CA01B9013ED78AE0C0D650
:1057C0000CC0E3EBF3E084912F01AFEF4A1A5A0AC1
:1057D000882319F0B5D6F201F6CF0E94417FA5D6F5
:1057E0006091740C7091750C8091760C9091770C8F
:1057F0000E94F5B9072E000C880B990B0E94B6B4D5
:105800001B012C019B01AC01612F702F872D962D60
:105810000E94B0B89F7781149104A104B10449F4A7
:1058200020E030E040E85FE30E94B0B487FF0BC0A7
:1058300008C020E030E040E450E40E94D7BA1816D7
:1058400014F446015701BBADBB2309F443C02396B2
:105850002CAD3DAD4EAD5FAD239721153105410512
:10586000510541F0D701C601821B930BA40BB50B68
:10587000B7FD30C09101A2012C966FAD2C976096B8
:105880007FAD609764968FAD649768969FAD68977B
:105890000E94B0B820E030E040EC5FE30E94B0B47A
:1058A00087FD38CFD701C601805A9541AF4FBF4F12
:1058B00023968CAF9DAFAEAFBFAF23972C962FAE84
:1058C0002C9760963FAE609764964FAE649768964B
:1058D0005FAE689780918002882309F41BCF811402
:1058E0009104A104B10429F4C12ED02EE72CF62C8A
:1058F000E0CE90E1C91A97E2D90AE108F108C81888
:10590000D908EA08FB08F7FE05CFEECF0E94849A7B
:1059100088E5D7D2882319F05F9A10922E0589E581
:10592000D0D2882319F08A9A10922F058AE5C9D21D
:10593000882359F09FB7F894809108018160809383
:1059400008019FBF479A1092300585E4BAD2882398
:1059500009F4B2CC0E9451A5AFCC29964EAD5FADF3
:105960002997141615060CF047C1CE57DF4F8880D3
:105970009980AA80BB80C258D040880E991EAA1E6A
:10598000BB1ECE57DF4F288139814A815B81C258C7
:10599000D040281B390B4A0B5B0BCA01B901A3018C
:1059A00092010E9466B8A50194010E949CBB2396B7
:1059B0004CAC5DAC6EAC7FAC2397420E531E641EA4
:1059C000751E34E143165104610471041CF14CEE60
:1059D00044165104610471043CF450E84516510426
:1059E000610471043CF105C05BEE452E512C612C25
:1059F000712C23964CAE5DAE6EAE7FAE23978EEFCC
:105A000090E0A0E0B0E084199509A609B7092C013F
:105A10003D0116C024E130E040E050E023962CAF79
:105A20003DAF4EAF5FAF239744E1442E512C612C24
:105A3000712C06C023964CAE5DAE6EAE7FAE239742
:105A400023964CAD5DAD6EAD7FAD23978FE096E0B4
:105A50000E941BACB301A2018AE096E00E941BAC3D
:105A600068964FAD68976C965FAD6C97A0966FADDA
:105A7000A097AC967FADAC9783E096E00E94B24DC4
:105A8000E0964FADE097A4965FADA497A8966FAD52
:105A9000A897E4967FADE4978CEF95E00E94B24D15
:105AA00029964EAD5FAD2997433051050CF4A4C043
:105AB000C301B2010E94B6B420E030E040E850E4F7
:105AC0000E9415B56B017C0168962FAD68976C96A6
:105AD0003FAD6C97A0964FADA097AC965FADAC97DD
