:100000000C9432100C9463100C9463100C946310D5
:100010000C9463100C9463100C9463100C94631094
:100020000C9463100C9463100C9463100C94631084
:100030000C9463100C9463100C9463100C94631074
:100040000C9463100C9411840C9463100C94631042
:100050000C9463100C9463100C9453990C94F29EBE
:100060000C9463100C940A370C9463100C94631076
:100070000C9463100C9463100C9463100C94631034
:100080000C9463100C9463100C9463100C94631024
:100090000C9463100C9463100C9463100C94631014
:1000A0000C9463100C9463100C9463100C94631004
:1000B0000C9463100C9463100C9463100C946310F4
:1000C0000C9463100C9463100C9463100C946310E4
:1000D0000C9463100C9463100C9463100C946310D4
:1000E0000C946310319C349C239C279C2D9C6B9C0E
:1000F000389C3C9C429C469C4A9C509C549C589CDE
:100100006B9C5E9C629C669C0E9E139E189E229E1B
:100110002C9EA59E369E3E9E469E509E5A9E649E56
:10012000739E7D9EA59E879E919E9B9E084AD73B6F
:100130003BCE016E84BCBFFDC12F3D6C74319ABDB6
:1001400056833DDA3D00C77F11BED9E4BB4C3E91DA
:100150006BAAAABE000000803F05A84CCDB2D44EC9
:10016000B93836A9020C50B9918688083CA6AAAACB
:100170002ABE000000803F004E414E494E4954596E
:10018000494E46CDCCCC3D0AD7233C17B7D1387762
:10019000CC2B329595E6241FB14F0A000020410078
:1001A00000C84200401C4620BCBE4CCA1B0E5AAEC2
:1001B000C59D74434F4D4D554E49434154494F4E93
:1001C0000044525952554E004552524F5253004925
:1001D0004E464F004543484F0020746F6F206C6FB0
:1001E0006E6720657874727573696F6E20707265C2
:1001F00076656E7465640A0020636F6C64206578B0
:1002000074727573696F6E2070726576656E746551
:10021000640A0047322F47332062616420706172A4
:10022000616D65746572730A00536C6565702E2E7E
:100230002E003344205072696E74657220726561BD
:1002400064792E00526573756D696E6720707269EE
:100250006E7400436C69636B20746F2072657375F4
:100260006D652E2E2E004E6F206D6F76652E00452B
:100270006E642066696C65206C6973740A0042655F
:1002800067696E2066696C65206C6973740A005337
:1002900044207072696E74696E672062797465209B
:1002A000004E6F74205344207072696E74696E67DB
:1002B0000A002569730025696D2025697300256989
:1002C000682025696D2025697300256964202569EA
:1002D000682025696D2025697300256979202569C5
:1002E00064202569682025696D2025697300507296
:1002F000696E742074696D653A200050726F746580
:10030000637465642050696E0A0045256920257371
:10031000003344205072696E7465722072656164A6
:10032000792E00D401CF01C801C101B3016F666607
:100330000044454255473A004B494C4C45442E2019
:10034000006F6B0048656174696E6720646F6E654D
:100350002E003F0A0020573A0045256920257300EA
:100360003344205072696E746572207265616479DD
:100370002E0042656420646F6E652E003F0A0020E7
:10038000573A004265642048656174696E672E00C3
:100390003344205072696E746572204F66662E0079
:1003A0004649524D574152455F4E414D453A4D6188
:1003B000726C696E20312E312E31202847697468A5
:1003C00075622920534F555243455F434F44455F63
:1003D00055524C3A68747470733A2F2F6769746879
:1003E00075622E636F6D2F4D61726C696E46697216
:1003F0006D776172652F4D61726C696E2050524F3E
:10040000544F434F4C5F56455253494F4E3A312E4D
:1004100030204D414348494E455F545950453A3389
:1004200044205072696E7465722045585452554488
:1004300045525F434F554E543A3120555549443A41
:1004400063656465326132662D343161322D343733
:1004500034382D396231322D6335356336326633A7
:10046000363766660A007A5F6D696E3A2000795FFA
:100470006D696E3A2000785F6D696E3A20005265B2
:10048000706F7274696E6720656E6473746F70202C
:100490007374617475730A004D31343520533C69AF
:1004A0006E6465783E206F7574206F662072616E91
:1004B00067652028302D31290A0053657474696EF0
:1004C000672054726176656C20416363656C657268
:1004D0006174696F6E3A200053657474696E6720A9
:1004E0005265747261637420416363656C65726107
:1004F00074696F6E3A200053657474696E6720509A
:1005000072696E7420416363656C65726174696FB2
:100510006E3A200053657474696E67205072696E7C
:100520007420616E642054726176656C204163634F
:10053000656C65726174696F6E3A2000205A002004
:100540005900580020204D61783A2000205A0020A0
:100550005900580020204D696E3A20004F6E20004F
:100560004F666600536F667420656E6473746F70B7
:10057000733A200020643A0020693A0020703A0063
:1005800043290A0061626C656420286D696E2074DD
:10059000656D702000436F6C6420657874727564BB
:1005A000657320617265200023646566696E65204D
:1005B0002044454641554C545F4B642000236465FC
:1005C00066696E65202044454641554C545F4B6931
:1005D000200023646566696E6520204445464155C8
:1005E0004C545F4B702000504944204175746F7427
:1005F000756E652066696E69736865642120507543
:100600007420746865206C617374204B702C204BCF
:100610006920616E64204B6420636F6E7374616E39
:1006200074732066726F6D2062656C6F7720696EDF
:10063000746F20436F6E66696775726174696F6E5F
:100640002E680A00504944204175746F74756E65B8
:10065000206661696C6564212074696D656F7574CD
:100660000A00504944204175746F74756E652066A8
:1006700061696C6564212054656D70657261747583
:10068000726520746F6F20686967680A00204B6488
:100690003A2000204B693A2000204B703A20000A93
:1006A00020436C617373696320504944200A002021
:1006B00054753A2000204B753A2000206D61783A3D
:1006C0002000206D696E3A200020643A20002062EC
:1006D0006961733A20004F666673657473206170B8
:1006E000706C696564004572723A20546F6F2066C1
:1006F00061722100546F6F206661722066726F6DA7
:10070000207265666572656E636520706F696E74D0
:100710000A00454550524F4D2064697361626C6513
:10072000640A004E6F2063617365206C69676874AA
:100730000A00416374697665204578747275646552
:10074000723A2000556E6B6E6F776E20636F6D6D21
:10075000616E643A2022004E6F204C696E65204E17
:10076000756D626572207769746820636865636B74
:1007700073756D2C204C617374204C696E653A2042
:10078000004B494C4C45442E200053544F5050458B
:10079000442E20005072696E7465722073746F70FD
:1007A0007065642064756520746F206572726F7265
:1007B000732E2046697820746865206572726F72A6
:1007C00020616E6420757365204D39393920746F4E
:1007D00020726573746172742E202854656D706583
:1007E0007261747572652069732072657365742E09
:1007F0002053657420697420616674657220726587
:100800007374617274696E67290A004E6F204368C1
:1008100065636B73756D2077697468206C696E65AC
:10082000206E756D6265722C204C617374204C696A
:100830006E653A2000636865636B73756D206D6942
:10084000736D617463682C204C617374204C696E05
:10085000653A20004C696E65204E756D62657220A8
:100860006973206E6F74204C617374204C696E65DF
:10087000204E756D6265722B312C204C6173742093
:100880004C696E653A20004D313130004D333100F6
:100890004D383420582059205A20450053442072A6
:1008A000656164206572726F720A00446F6E652024
:1008B0007072696E74696E672066696C650A0020E3
:1008C000496E76616C6964206578747275646572CE
:1008D000200000005C4300005C4300007A430000FD
:1008E0000000000000000000000046696C65206404
:1008F000656C657465643A0044656C6574696F6E17
:10090000206661696C65642C2046696C653A20003C
:100910006F70656E206661696C65642C2046696C39
:10092000653A20002042403A0020403A00202F0043
:1009300020423A00202F0020543A00205A3A00204A
:10094000593A0020436F756E7420583A0020453A9A
:1009500000205A3A0020593A00583A00486172641F
:10096000636F6465642044656661756C74205365CB
:100970007474696E6773204C6F616465640A00204B
:10098000440020490020204D333031205000504990
:10099000442073657474696E67733A0A00204600D8
:1009A00020420020480020204D3134352053004D96
:1009B0006174657269616C2068656174757020701E
:1009C0006172616D65746572733A0A00205A002085
:1009D000590020204D323036205800486F6D652078
:1009E0006F66667365743A0A00204500205A00203D
:1009F000590020580020420020540020204D323061
:100A000035205300416476616E6365643A20533C3F
:100A10006D696E5F66656564726174653E20543C05
:100A20006D696E5F74726176656C5F666565647230
:100A30006174653E20423C6D696E5F7365676D65EC
:100A40006E745F74696D655F6D733E20583C6D61B7
:100A5000785F78795F6A65726B3E205A3C6D617889
:100A60005F7A5F6A65726B3E20453C6D61785F65B9
:100A70005F6A65726B3E0A002054002052002020FD
:100A80004D323034205000416363656C657261748F
:100A9000696F6E2028756E6974732F7332293A203E
:100AA000503C7072696E745F616363656C3E205286
:100AB0003C726574726163745F616363656C3E2050
:100AC000543C74726176656C5F616363656C3E0A69
:100AD00000204500205A0020590020204D3230319E
:100AE0002058004D6178696D756D20416363656CB8
:100AF00065726174696F6E2028756E6974732F73E7
:100B000032293A0A00204500205A002059002020AE
:100B10004D3230332058004D6178696D756D206617
:100B200065656472617465732028756E6974732FCE
:100B300073293A0A00204500205A0020590020203D
:100B40004D393220580053746570732070657220DF
:100B5000756E69743A0A0020204D323030204430DE
:100B60000A0020204D323030204400204469736157
:100B7000626C65640A0046696C616D656E74207311
:100B8000657474696E67733A0020204D31343920E2
:100B900043203B20556E69747320696E2043656C59
:100BA000736975730A0A002020473231203B2055B3
:100BB0006E69747320696E206D6D0A0A00466C6F51
:100BC0007700466C6F770046616E207370656564D0
:100BD0000046616E207370656564004E6F7A7A6CB2
:100BE00065004E6F7A7A6C650053706565640053DA
:100BF00070656564004D61696E005072656865617D
:100C00007420504C412042656400507265686561F3
:100C10007420504C4120456E6400507265686561D7
:100C20007420504C410050726570617265005072C2
:100C300065686561742041425320426564005072CA
:100C400065686561742041425320456E64005072AE
:100C5000656865617420414253005072657061722D
:100C600065004D343238005072656865617420410A
:100C70004253005072656865617420504C410043D6
:100C80006F6F6C646F776E004D3834004469736128
:100C9000626C65207374657070657273005365745F
:100CA00020686F6D65206F666673657473004732E8
:100CB00038004175746F20686F6D65004D6F766503
:100CC0002061786973004D61696E004D6F76652013
:100CD00058004D6F76652059004D6F7665205A009B
:100CE0004578747275646572004D6F766520302E9C
:100CF000316D6D004D6F766520316D6D004D6F76F5
:100D0000652031306D6D004D6F76652061786973B7
:100D1000004578747275646572004D6F7665205A6F
:100D2000004D6F76652059004D6F76652058004B59
:100D3000494C4C45442E2000202D20496E76616C94
:100D40006964206578747275646572206E756D6271
:100D5000657220210A002D2D2D2D2D2D007C4D6139
:100D6000726C696E7C002D2D2D2D2D2D00687474F4
:100D7000703A2F2F6D61726C696E66772E6F726795
:100D800000687474703A2F2F6D61726C696E6677AB
:100D90002E6F72670020312E312E31002020506CD2
:100DA000616E6E65724275666665724279746573CE
:100DB0003A20002046726565204D656D6F72793A64
:100DC0002000436F6D70696C65643A204A616E2043
:100DD000313820323031390A00207C204175746866
:100DE0006F723A20546F626961732052656974684A
:100DF0006D656965720A00323031372D30352D311D
:100E0000322031323A303000204C617374205570FA
:100E100064617465643A2000312E312E310A004D30
:100E200061726C696E0020536F6674776172652021
:100E300052657365740A00205761746368646F6754
:100E40002052657365740A002042726F776E206FBE
:100E500075742052657365740A0020457874657254
:100E60006E616C2052657365740A00506F7765720D
:100E700055700A0073746172740A006572726F7241
:100E80002077726974696E6720746F2066696C657B
:100E90000A00456E6473746F7073202563202563A8
:100EA00020256320256300205A3A0020593A00206B
:100EB000583A00656E6473746F7073206869743A91
:100EC0002000446F6E6520736176696E67206669E5
:100ED0006C652E0A004D3239007C3C3E5E2B3D3F56
:100EE0002F5B5D3B2C2A225C00457874727564652B
:100EF00072004D6F7665205A004D6F76652059005F
:100F00004D6F7665205800507265706172650052B1
:100F10006573746F7265206661696C7361666500E4
:100F200046696C616D656E74004D6F74696F6E001B
:100F300054656D7065726174757265004D61696E9E
:100F400000507265686561742041425320636F6E82
:100F500066005072656865617420504C4120636F73
:100F60006E66005049442D44005049442D440050C1
:100F700049442D49005049442D49005049442D50C1
:100F8000005049442D500020022046616374002027
:100F9000022046616374002002204D617800200227
:100FA000204D6178002002204D6178002002204D04
:100FB000696E002002204D696E002002204D696E8E
:100FC000004F6666004F6E20004175746F74656D4A
:100FD000700046616E2073706565640046616E2026
:100FE0007370656564004E6F7A7A6C65004E6F7A37
:100FF0007A6C6500436F6E74726F6C0042656400BA
:10100000426564004E6F7A7A6C65004E6F7A7A6C36
:10101000650046616E2073706565640046616E20F0
:1010200073706565640054656D7065726174757286
:10103000650020746F6F206C6F6E67206578747226
:101040007573696F6E2070726576656E7465640A7B
:101050000020636F6C6420657874727573696F6EBD
:101060002070726576656E7465640A00436172640F
:101070002072656D6F766564004361726420696EED
:101080007365727465640043616E6E6F74206F7077
:10109000656E2073756264697220006563686F3ADB
:1010A00000544845524D414C2052554E41574159EC
:1010B00000546865726D616C2052756E617761795C
:1010C0000053442063617264206F6B0A006F706587
:1010D0006E526F6F74206661696C65640A00766F8A
:1010E0006C756D652E696E6974206661696C6564E6
:1010F0000A00534420696E6974206661696C0A00B5
:101100006175746F25692E67004D3234004D32339E
:101110002025730057726974696E6720746F2066AA
:10112000696C653A20006F70656E206661696C6558
:10113000642C2046696C653A20006F70656E2066ED
:1011400061696C65642C2046696C653A20004669CB
:101150006C652073656C65637465640A002053696F
:101160007A653A200046696C65206F70656E65642B
:101170003A20006F70656E206661696C65642C2092
:1011800046696C653A20002066696C653A20004E1D
:101190006F7720002220706F7300222070617265CB
:1011A0006E743A2200535542524F5554494E4520D1
:1011B00043414C4C207461726765743A22004B497C
:1011C0004C4C45442E2000747279696E6720746F10
:1011D0002063616C6C207375622D67636F6465209A
:1011E00066696C6573207769746820746F6F206D11
:1011F000616E79206C6576656C732E204D415820A8
:101200006C6576656C2069733A004572726F723A4C
:101210000025753A2530327500253032753A253073
:101220003275002D2D2D005344005A0059005800EE
:101230000120000120005072696E742061626F729B
:10124000746564004E6F20534420636172640050E3
:1012500072696E742066726F6D2053440053746F10
:1012600070207072696E7400526573756D652070C0
:1012700072696E74005061757365207072696E7466
:1012800000436F6E74726F6C0050726570617265AE
:101290000054756E6500496E666F207363726565F4
:1012A0006E0024F4D43050C38E20C2A24017828B2B
:1012B0007011127A910D816CD90AA861E108C758A2
:1012C0006607615143061E4B5D05C145A7041A41DF
:1012D0001104093D9803713931034036DB0265334F
:1012E0009102D4305402802E1D02632CEE01752A27
:1012F000C501B028A001102781018F2564012B248E
:101300004B01E0223401AC211F018D200D01801F13
:10131000FC00841EED00971DDF00B81CD200E61B08
:10132000C600201BBC00641AB200B219A8000A193A
:10133000A0006A189900D117910040178B00B516CC
:10134000840031167E00B31579003A157300C71476
:101350006F0058146A00EE136600881363002513AB
:101360005E00C7125B006C12570015125400C111C9
:10137000510070114F0021114B00D61049008D1003
:1013800047004610440002104200C00F4000800F8A
:101390003E00420F3C00060F3B00CB0E3800930E80
:1013A00037005C0E3500270E3400F30D3200C10DFE
:1013B0003100900D3000600D2E00320D2D00050D16
:1013C0002C00D90C2B00AE0C2900850C29005C0CDC
:1013D0002700350C27000E0C2600E80B2400C40B58
:1013E0002400A00B23007D0B23005A0B2100390B96
:1013F0002100180B2000F80A1F00D90A1E00BB0AA2
:101400001E009D0A1D00800A1D00630A1C00470A79
:101410001B002C0A1B00110A1A00F7091A00DD092B
:101420001900C4091900AB091900920917007B09BA
:101430001800630917004C09160036091600200928
:1014400016000A091500F5081500E0081400CC087C
:101450001400B8081400A4081400900813007D08B4
:1014600012006B08130058081200460812003408D6
:101470001100230811001208110001081100F007E3
:101480001000E0071000D0071000C0071000B007E0
:101490000F00A107100091070E0083070F007407CB
:1014A0000F0065070E0057070E0049070E003B07A7
:1014B0000D002E070E0020070D0013070D00060774
:1014C0000D00F9060C00ED060D00E0060C00D40638
:1014D0000C00C8060C00BC060C00B0060C00A406EC
:1014E0000B0099060C008D060B0082060B00770698
:1014F0000B006C060B0061060A0057060B004C0639
:101500000A0042060A0038060A002E060A002406CF
:101510000A001A060A001006090007060A00FD055F
:101520000900F4050900EB050900E2050900D905E9
:101530000900D0050900C7050900BE050900B50569
:101540000800AD050800A50509009C0508009405E4
:1015500008008C050800840508007C050800740557
:1015600008006C050700650508005D0507005605C5
:1015700008004E050700470507004005080038052C
:101580000700310507002A050700230507001C0591
:101590000600160507000F050700080506000205EE
:1015A0000700FB040600F5040700EE040600E8044B
:1015B0000600E2040700DB040600D5040600CF04A1
:1015C0000600C9040600C3040600BD040600B704F3
:1015D0000600B1040500AC040600A6040600A00441
:1015E00005009B04060095040500900406008A048B
:1015F000050085040500800406007A0405007504D2
:101600000500700405006B04050066040500610414
:1016100005005C04050057040500520405004D0454
:10162000050048040500430405003E0404003A0494
:10163000050035040500300404002C0405002704CF
:101640000400230405001E0404001A040400160408
:101650000500110404000D0404000904050004043D
:10166000040000040400FC030400F8030400F40375
:101670000400F0030400EC030400E8030400E403A6
:101680000400E0030400DC030400D8030400D403D6
:101690000400D0030400CC030400C8030300C50306
:1016A000030024F404D9201BC40C5C0E9804C40964
:1016B0005F0265077101F405F900FB04B3004804FB
:1016C0008700C10369005803550003034500BE02AB
:1016D0003A008402310053022A0029022500040244
:1016E0002000E4011C00C8011900AF011700980197
:1016F00014008401130071011000610110005101F8
:101700000E0043010D0036010B002B010B002001E0
:101710000B00150109000C01090003010800FB0082
:101720000800F3000800EB000700E4000600DE00FC
:101730000600D8000600D2000600CC000500C70055
:101740000500C2000500BD000400B9000400B5009A
:101750000400B1000400AD000400A9000400A500CD
:101760000300A20003009F0004009B0003009800F8
:1017700003009500020093000300900003008D0019
:1017800002008B0003008800020086000200840033
:101790000300810002007F0002007D0002007B0048
:1017A0000200790002007700010076000200740058
:1017B000020072000100710002006F0002006D0063
:1017C00001006C0002006A0001006900020067006D
:1017D0000100660001006500010064000200620073
:1017E000010061000100600001005F0002005D0077
:1017F00001005C0001005B0001005A00010059007B
:10180000010058000100570001005600010055007A
:101810000100540001005300000053000100520079
:10182000010051000100500001004F0001004E0076
:1018300000004E0001004D0001004C0001004B0073
:1018400000004B0001004A0001004900010048006F
:10185000000048000100470001004600000046006B
:101860000100450000004500010044000100430064
:10187000000043000100420000004200010041005E
:10188000000041000100400001003F0000003F0057
:1018900001003E0000003E0001003D0000003D0050
:1018A00001003C0000003C0000003C0001003B0047
:1018B00000003B0001003A0000003A00010039003E
:1018C0000000390001003800000038000000380036
:1018D000010037000000370001003600000036002C
:1018E0000000360001003500000035000000350022
:1018F0000100340000003400000034000100330017
:10190000000033000000330001003200000032000C
:101910000000320001003100000031000000310001
:1019200001003000000030000000300001002F00F6
:1019300000002F0000002F0000002F0001002E00EB
:1019400000002E0000002E0001002D0000002D00E0
:1019500000002D0000002D0001002C0000002C00D4
:1019600000002C0000002C0001002B0000002B00C8
:1019700000002B0000002B0001002A0000002A00BC
:1019800000002A0000002A000100290000002900B0
:1019900000002900000029000000290001002800A3
:1019A0000000280000002800000028000000280097
:1019B000010027000000270000002700000027008A
:1019C000000027000100260000002600000026007D
:1019D0000000260000002600010025000000250070
:1019E0000000250000002500000025000000250063
:1019F0000100240000002400000024000000240056
:101A00000000240001002300000023000000230048
:101A1000000023000000230000002300000023003A
:101A2000010022000000220000002200000022002D
:101A3000000022000000220001002100000021001F
:101A40000000210000002100000021000000210012
:101A50000000210001002000000020000000200004
:101A600000002000000020000000200000002000F6
:101A70000000200001001F0000001F0000001F00E8
:101A800000001F0000001F0000001F0000001F00DA
:101A900001001E0000001E0000001E0000001E00CD
:101AA00000004D383420582059205A2045004669FE
:101AB0006C2E204469612E0046696C2E20446961B9
:101AC0002E004F6666004F6E20004520696E206D27
:101AD0006D3300436F6E74726F6C0043616E6E6F96
:101AE0007420656E746572207375626469723A2041
:101AF00000052E2E004D61696E004573746570738C
:101B00002F6D6D004573746570732F6D6D005A7382
:101B1000746570732F6D6D005A73746570732F6DDB
:101B20006D005973746570732F6D6D005973746512
:101B300070732F6D6D005873746570732F6D6D0029
:101B40005873746570732F6D6D00412D74726176DA
:101B5000656C00412D74726176656C00412D726573
:101B6000747261637400412D7265747261637400F4
:101B7000416D6178204500416D6178204500416DDF
:101B80006178205A00416D6178205A00416D61787A
:101B9000205900416D6178205900416D61782058CD
:101BA00000416D61782058005654726176206D694D
:101BB0006E005654726176206D696E0056547261E3
:101BC00076206D696E00566D696E00566D696E0007
:101BD000566D696E00566D6178204500566D6178CE
:101BE000204500566D6178204500566D6178205A79
:101BF00000566D6178205A00566D6178205A005663
:101C00006D6178205900566D6178205900566D61DC
:101C100078205900566D6178205800566D61782003
:101C20005800566D617820580056652D6A65726BB4
:101C30000056652D6A65726B0056652D6A65726B7C
:101C400000567A2D6A65726B00567A2D6A65726B42
:101C50000056792D6A65726B0056792D6A65726B34
:101C60000056792D6A65726B0056782D6A65726B25
:101C70000056782D6A65726B0056782D6A65726B16
:101C800000416363656C00416363656C00436F6E84
:101C900074726F6C006265640A002C20737973742F
:101CA000656D2073746F7070656421204865617480
:101CB00065725F49443A200048656174696E672027
:101CC0006661696C65640048656174696E67206669
:101CD00061696C65640070012C0190012701B001FD
:101CE0002201C0011D01F001180110021301300290
:101CF0000E016002090190020401C002FF0000030E
:101D0000FA004003F5008003F000D003EB0020044C
:101D1000E6007004E100E004DC004005D700C005E7
:101D2000D2004006CD00D006C8008007C3003008AE
:101D3000BE00F008B900C009B400B00AAF00B00B93
:101D4000AA00D00CA500000EA000500F9B00C010F0
:101D500096005012910000148C00C0158700B01737
:101D60008200B0197D00D01B7800001E7300402057
:101D70006E0090226900F024640040275F009029E3
:101D80005A00E02B5500102E500020304B0010322E
:101D90004600E033410090353C0010373700703882
:101DA0003200A0392D00B03A2800A03B2300603C4F
:101DB0001E00103D1900903D1400103E0F00703EB3
:101DC0000A00C03E0500003F0000403FFBFF803F8F
:101DD000F6FFC03FF1FF4572723A204D494E54451F
:101DE0004D5020424544004572723A204D494E54B0
:101DF000454D50004D494E54454D50207472696711
:101E00006765726564004572723A204D41585445C9
:101E10004D5020424544004572723A204D4158547D
:101E2000454D50004D415854454D502074726967DE
:101E300067657265640000002100240027002A0005
:101E40002D003000330001010000040107010A01E8
:101E500000002200250028002B002E003100340055
:101E600002010000050108010B0100002000230011
:101E7000260029002C002F00320000010000030181
:101E800006010901050505050705080808080202FD
:101E900002020A0A08080404040401010101010104
:101EA00001010303030303030303040707070C0CE7
:101EB0000C0C0C0C0C0C02020202060606060606AE
:101EC00006060B0B0B0B0B0B0B0B01021020200853
:101ED0000810204010204080020102010804020185
:101EE00001020408102040808040201008040201F4
:101EF000800402018040201008040201080402014D
:101F000001020408102040800102040810204080D3
:101F100000000A0B02090C0D0E0807030401000063
:101F200000000000000000000000000000000000B1
:101F3000000000000000000000000000121110006E
:101F40000000000000000000000000000000000091
:101F5000000000000000526573656E643A20006F57
:101F60006B004B494C4C45442E20004B494C4C20B7
:101F7000636175736564206279204B494C4C206223
:101F80007574746F6E2F70696E0A004B494C4C4526
:101F9000442E20004B494C4C2063617573656420CE
:101FA000627920746F6F206D75636820696E61635C
:101FB000746976652074696D65202D206375727271
:101FC000656E7420636F6D6D616E643A2000506CB5
:101FD00065617365207265736574005052494E5493
:101FE00045522048414C544544005072696E746516
:101FF000722068616C7465642E206B696C6C282992
:102000002063616C6C6564210A00656E717565758D
:1020100065696E67202200000000000000000000DB
:102020000000005761726E696E673A20486F6D69F3
:102030006E672042756D702044697669736F7220F7
:102040003C20310A000000A0400000A04000000039
:102050004000005C4300005C4300007A43FFFFFF48
:1020600036AA4CAE11241FBECFEFD1E2DEBFCDBFEA
:1020700000E00CBF14E0A0E0B2E0ECEFF4E701E018
:102080000BBF02C007900D92AA36B107D9F723E122
:10209000AAE6B4E001C01D92AD30B207E1F710E14D
:1020A000C1E3D0E100E006C021970109802FFE01C5
:1020B0000E94E7B9C033D10780E00807A9F70E9462
:1020C00088A40C946DBA0C9400002F923F924F920A
:1020D0005F926F927F928F929F92AF92BF92CF92B8
:1020E000DF92EF92FF920F931F93CF93DF93CDB7C1
:1020F000DEB7C657D1090FB6F894DEBF0FBECDBF0D
:102100008091D00620E6829FC0011124805B9A4F07
:102110009093C8128093C7128091F00680FF1BC075
:10212000EBE9F0E184918F010F5F1F4F882321F0CD
:102130000E949D30F801F6CF0091C7121091C8128D
:10214000D8018D918D01882319F00E949D30F8CF20
:102150008AE00E949D30E091C712F091C812808100
:10216000803231F43196F093C812E093C712F3CF66
:102170008E3469F01091C7120091C8126AE270E0C3
:10218000812F902F0E9435BA009721F52AC08181B6
:1021900090ED980F9A3010F08D3261F73296F093EF
:1021A000C812E093C712E091C712F091C812808163
:1021B00080538A3010F43196F2CFE091C712F0913B
:1021C000C81280818032B1F63196F093C812E09344
:1021D000C712F3CFFC0131968291803231F08A32FE
:1021E00021F0A12FB02F9D9102C01082F5CFFD01EB
:1021F000808111968032D9F380538A3010F00C948C
:10220000E32CE12CF12C2AE02E9DB0012F9D700DC6
:1022100011247B01B0E3EB1AF1088191E80EF11C67
:1022200087FDFA94808180538A3070F38F01319654
:10223000D8018C918032D1F310937404009373040D
:102240009D3411F40C943C19943511F40C942E28FF
:10225000973411F00C94E32CB4E0EB16F10409F47C
:1022600009C640F480918602F2E0EF16F10408F00E
:102270001AC119C02AE5E216F10409F44CC738F472
:102280004CE1E416F10409F433C60C9459285BE5DB
:10229000E516F10409F443C78CE5E816F10409F4E6
:1022A00043C70C945928882311F40C9459280E9490
:1022B0007C2E80911402882321F089EE92E10E9405
:1022C000889F0E9492308091F00683FD9BC0C09051
:1022D000F512D090F612E090F712F090F8122091DB
:1022E0002B0530912C0540912D0550912E05C701ED
:1022F000B6010E94DFB2882309F484C08091EB0606
:1023000081113CC06091410C7091420C8091430C52
:102310009091440C0E9424B8072E000C880B990B56
:102320000E94E5B22091340230913502409136028C
:10233000509137020E94DFB287FF20C0C0922B0568
:10234000D0922C05E0922D05F0922E05EBE9F0E1FC
:1023500084918F010F5F1F4F882321F00E949D30D1
:10236000F801F6CFE8EFF1E084918F010F5F1F4F86
:10237000882321F00E949D30F801F6CFC090F5121D
:10238000D090F612E090F712F090F81220912B0501
:1023900030912C0540912D0550912E05C701B601B5
:1023A0000E94DFB60E9424B897FF07C090958095E1
:1023B000709561957F4F8F4F9F4F693C71058105E7
:1023C000910504F1C0922B05D0922C05E0922D05C9
:1023D000F0922E05EBE9F0E184918F010F5F1F4F22
:1023E000882321F00E949D30F801F6CFE9EDF1E05D
:1023F00084918F010F5F1F4F882321F00E949D3031
:10240000F801F6CF2091E9123091EA124091EB12D7
:102410005091EC1260911F0570912005809121056B
:10242000909122050E94DFB281111DC02091ED1212
:102430003091EE124091EF125091F012609123050D
:102440007091240580912505909126050E94DFB2A8
:10245000811109C060910002709101028091020215
:10246000909103021AC06091060270910702072E34
:10247000000C880B990B0E94E5B22091000230916C
:10248000010240910202509103020E9444B32AE0EB
:1024900037ED43E25CE30E9444B30E94C12D0E94E9
:1024A000B72D0C945928882311F40C94592811E065
:1024B00092E0E916F10409F010E00E947C2E82E51A
:1024C0000E94F92D882309F42AC10E94532E6B0122
:1024D0007C0140901F055090200560902105709070
:1024E0002205209123053091240540912505509126
:1024F00026052AA33BA34CA35DA38091E9129091EA
:10250000EA12A091EB12B091EC128EA39FA3A8A7A0
:10251000B9A72091ED123091EE124091EF12509137
:10252000F0122EA73FA748AB59AB20E030E0A9013D
:10253000C701B6010E94DFB2882309F481C4A30158
:1025400092016EA17FA188A599A50E94DFB2811199
:102550000DC02AA13BA14CA15DA16EA57FA588A9B4
:1025600099A90E94DFB2882309F46AC420E030E010
:10257000A901C701B6010E94DFB2881F8827881F02
:10258000181309C080E090E0A0E8BFE38AAF9BAFDA
:10259000ACAFBDAF08C020E030E040E85FEB2AAF51
:1025A0003BAF4CAF5DAFA30192016EA17FA188A5A7
:1025B00099A50E94DFB66AAB7BAB8CAB9DAB2AA121
:1025C0003BA14CA15DA16EA57FA588A999A90E94F8
:1025D000DFB66EAB7FAB88AF99AF2AA93BA94CA9F8
:1025E0005DA9CA01B9010E9444B34B015C012EA947
:1025F0003FA948AD59ADCA01B9010E9444B39B013E
:10260000AC01C501B4010E94E0B60E944BB96AA7B3
:102610007BA78CA79DA720E030E040E05FE30E940D
:1026200044B34B015C01A7019601C701B6010E94AA
:1026300044B36B017C01A5019401C501B4010E9462
:1026400044B39B01AC01C701B6010E94DFB60E94F2
:102650004BB99B01AC016AAD7BAD8CAD9DAD0E94C9
:1026600044B34B015C012EA13FA148A559A5C3016C
:10267000B2010E94E0B620E030E040E05FE30E945B
:1026800044B36B017C016EA97FA988AD99AD9058C8
:102690002AA53BA54CA55DA50E94BCB79B01AC013A
:1026A000C501B4010E9444B39B01AC01C701B6014E
:1026B0000E94E0B6A30192010E94DFB66B017C018B
:1026C0002EA53FA548A959A96AA17BA18CA19DA1CE
:1026D0000E94E0B620E030E040E05FE30E9444B3B7
:1026E0002B013C012AA53BA54CA55DA56AA97BA9A8
:1026F0008CA99DA90E94BCB79B01AC01C501B40186
:102700000E9444B39B01AC01C301B2010E94E0B638
:102710002AA13BA14CA15DA10E94DFB614C089E4AF
:102720000E94F92D882329F00E94532E6B017C0111
:1027300003C0C12CD12C76018AE40E94F92D882394
:10274000D9F00E94532E6EA77FA788AB99AB20E0EB
:1027500030E0A901C701B6010E94DFB281111AC0A1
:1027600020E030E0A9016EA57FA588A999A90E9463
:10277000DFB281110FC064C320E030E0A901C701BE
:10278000B6010E94DFB2882309F45AC31EA61FA611
:1027900018AA19AAD701C601B0588AA39BA3ACA353
:1027A000BDA32EA53FA548A959A950582EA33FA3C4
:1027B00048A759A79C01AD01BC01CD010E9444B3BB
:1027C0004B015C012EA13FA148A559A5CA01B90141
:1027D0000E9444B39B01AC01C501B4010E94E0B664
:1027E0000E944BB92E966CAF7DAF8EAF9FAF2E97E8
:1027F00080911F0590912005A0912105B09122059F
:102800008AA79BA7ACA7BDA7A7019601BC01CD01D4
:102810000E94E0B66AAF7BAF8CAF9DAF20912305DD
:102820003091240540912505509126052AAB3BABFC
:102830004CAB5DAB2EA53FA548A959A96AA97BA9B8
:102840008CA99DA90E94E0B622966CAF7DAF8EAF99
:102850009FAF22978091E9129091EA12A091EB121A
:10286000B091EC1226968CAF9DAFAEAFBFAF26975E
:102870002AAD3BAD4CAD5DADBC01CD010E94DFB6D4
:102880006B017C012091ED123091EE124091EF121C
:102890005091F0122A962CAF3DAF4EAF5FAF2A9702
:1028A00022962CAD3DAD4EAD5FAD22972A966CAD14
:1028B0007DAD8EAD9FAD2A970E94DFB64B015C01C6
:1028C0008091270590912805A0912905B0912A05AE
:1028D00066968CAF9DAFAEAFBFAF66979C01AD0162
:1028E0006091F1127091F2128091F3129091F412B2
:1028F0000E94DFB66EAB7FAB88AF99AF2091F51227
:102900003091F6124091F7125091F81262962CAF66
:102910003DAF4EAF5FAF629780912B0590912C0534
:10292000A0912D05B0912E056A968CAF9DAFAEAFEC
:10293000BFAF6A97A70196016AA17BA18CA19DA157
:102940000E9444B32B013C01A50194016EA17FA11B
:1029500088A599A50E9444B39B01AC01C301B201B3
:102960000E94E0B62B013C01A50194016AA17BA164
:102970008CA19DA10E9444B34B015C01A70196016B
:102980006EA17FA188A599A50E9444B39B01AC01CB
:10299000C501B4010E94DFB6A30192010E9453B7A2
:1029A0006B017C0120E030E0A9010E94DFB287FFCB
:1029B0000AC02BED3FE049EC50E4C701B6010E948C
:1029C000E0B66B017C01112351F02BED3FE049ECA7
:1029D00050E4C701B6010E94DFB66B017C0120E024
:1029E00030E0A901C701B6010E94DFB2811126C003
:1029F00026962CAD3DAD4EAD5FAD26976AA57BA565
:102A00008CA59DA50E94DFB2811118C02A962CAD1D
:102A10003DAD4EAD5FAD2A976AA97BA98CA99DA952
:102A20000E94DFB281110AC02BED3FE049EC50E477
:102A3000C701B6010E94E0B66B017C012E962CAD59
:102A40003DAD4EAD5FAD2E97C701B6010E9444B3B8
:102A50009B01AC010E9444B34B015C012EA93FA92C
:102A600048AD59ADCA01B9010E9444B39B01AC0104
:102A7000C501B4010E94E0B60E944BB94B015C0154
:102A80002FE632E143E85AE30E94DFB287FDD4C16A
:102A9000C501B4010E9455B80E9429B87BAB6AAB4E
:102AA000DB01AB2B21F4E1E0F0E0FBABEAAB2AA9C0
:102AB0003BA9B90180E090E00E94E3B24B015C01C8
:102AC0009B01AC01C701B6010E94BCB76AA77BA7F6
:102AD0008CA79DA7A50194016EA97FA988AD99AD8A
:102AE0000E94BCB72E966CAF7DAF8EAF9FAF2E9776
:102AF0006A962CAD3DAD4EAD5FAD6A9762966CADFA
:102B00007DAD8EAD9FAD62970E94DFB6A5019401A9
:102B10000E94BCB762966CAF7DAF8EAF9FAF6297DD
:102B20002AA53BA54CA55DA5CA01B9010E9444B3E5
:102B300020E030E040E05FE30E9444B39B01AC0141
:102B400060E070E080E89FE30E94DFB66EAB7FAB91
:102B500088AF99AF66968CAD9DADAEADBFAD6697B3
:102B600089879A87AB87BC876A962CAD3DAD4EAD01
:102B70005FAD6A972D873E874F87588B609106021D
:102B800070910702072E000C880B990B0E94E5B28A
:102B90002091000230910102409102025091030203
:102BA0000E9444B32AE037ED43E25CE30E9444B361
:102BB00026966CAF7DAF8EAF9FAF26970E94E69EA4
:102BC0009B01AC0128533F4F4F4F5F4F2A962CAFCC
:102BD0003DAF4EAF5FAF2A974AA05BA06CA07DA02F
:102BE00022242394312CD12C8AA99BA9281639069A
:102BF00009F40EC10E94CC9A0E94E69EDC01CB0132
:102C00002A962CAD3DAD4EAD5FAD2A97821B930B3E
:102C1000A40BB50BB7FD10C00E94E69E9B01AC0152
:102C200028533F4F4F4F5F4F2A962CAF3DAF4EAFCB
:102C30005FAF2A970E94A6A1D39438E13D15ECF12D
:102C40002EA93FA948AD59AD6EA17FA188A599A530
:102C50000E9444B34B015C012AA53BA54CA55DA590
:102C6000B201C3010E9444B3A50194010E94E0B6E1
:102C70007B018C012EA93FA948AD59ADB201C3011A
:102C80000E9444B34B015C012AA53BA54CA55DA560
:102C90006EA17FA188A599A50E9444B39B01AC01B8
:102CA000C501B4010E94DFB62B013C01C701D80168
:102CB0008EA39FA3A8A7B9A74EC0B10180E090E062
:102CC0000E94E3B22AA53BA54CA55DA50E9444B392
:102CD0004B015C010E94B9B76B017C01C501B401D5
:102CE0000E9441B94B015C01A70196016AA17BA139
:102CF0008CA19DA10E9444B32B013C01A50194012C
:102D00006EA57FA588A999A90E9444B39B01AC0137
:102D1000C301B2010E94E0B62B013C01A501940160
:102D20006AA17BA18CA19DA10E9444B34B015C01CF
:102D3000A70196016EA57FA588A999A90E9444B311
:102D40009B01AC01C501B4010E94DFB66EA37FA355
:102D500088A799A7D12C9201A3016AAD7BAD8CAD58
:102D60009DAD0E94E0B669837A838B839C832EA1FC
:102D70003FA148A559A522966CAD7DAD8EAD9FAD06
:102D800022970E94E0B66D837E838F8398872E966C
:102D90002CAD3DAD4EAD5FAD2E9769857A858B85A7
:102DA0009C850E94E0B669877A878B879C876296AC
:102DB0002CAD3DAD4EAD5FAD62976D857E858F8547
:102DC00098890E94E0B66D877E878F87988B809167
:102DD0001402882321F0CE0101960E94889FC090A2
:102DE0006D042696ECACFDAC0EAD1FAD26979E0192
:102DF000235F3F4FAE01475F5F4FBE016B5F7F4F69
:102E0000CE0101960E94B75C4FEF241A340AECCE33
:102E1000C0906D042696ECACFDAC0EAD1FAD2697B0
:102E200025EF32E141EF52E16DEE72E189EE92E180
:102E30000E94B75C0E94B72D0E9492300C945928D2
:102E4000EAE0F2E184918F010F5F1F4F882321F0A8
:102E50000E949D30F801F6CFE3E1F2E084918F010A
:102E60000F5F1F4F882311F40C9459280E949D3046
:102E7000F801F4CF80E50E94F92D882329F00E9403
:102E8000482E6B017C0103C0C12CD12C760183E557
:102E90000E94F92D882321F00E94EB2E6B017C010A
:102EA0000E940D9C0E9492308091C9129091CA128A
:102EB000A091CB12B091CC12C80ED91EEA1EFB1EF7
:102EC00080913E02811105C060E089E292E00E949B
:102ED00008700E94E69EDC01CB018C199D09AE09A9
:102EE000BF09B7FD02C00C9459280E94A6A1F1CFDA
:102EF0000E940D9C409000025090010260900202DE
:102F000070900302409277045092780460927904A2
:102F100070927A0480910602909107029093760451
:102F20008093750484E690E09093070280930602F4
:102F30000E94923081E080931B0288E50E94F92D67
:102F4000282E89E50E94F92D082F8AE50E94F92D87
:102F5000382E211005C0011105C011E0182705C049
:102F6000011102C010E001C0182F80E1EFE1F5E08F
:102F7000A9EEB2E101900D928A95E1F7111105C019
:102F8000211003C0002309F49CC020E030E040EA97
:102F900050E46091D9127091DA128091DB12909115
:102FA000DC120E94E0B66B017C016093F112709319
:102FB000F2128093F3129093F41280902705909070
:102FC0002805A0902905B0902A05A50194010E942A
:102FD00006B918160CF062C0A7019601C501B4012C
:102FE0000E94DFB287FF16C080E090E0A0E8B0E466
:102FF0008093000290930102A0930202B093030217
:10300000C0922705D0922805E0922905F0922A0562
:103010000E94DA2D85E595E5A5E0B3E480930002F2
:1030200090930102A0930202B09303020E94DA2D52
:10303000C090F112D090F212E090F312F090F412DE
:10304000A7019601609127057091280580912905B7
:1030500090912A050E9406B91816B4F480E090E019
:10306000A0E8B0E48093000290930102A0930202D2
:10307000B0930302C0922705D0922805E09229055B
:10308000F0922A050E94DA2D0E940D9C40920002C7
:10309000509201026092020270920302111105C067
:1030A000211003C0011107C00CC080E090E00E9415
:1030B0001AA01123B9F381E090E00E941AA0111127
:1030C00002C0332021F082E090E00E941AA00E940A
:1030D0006F2F8091F00480931B0280917704909170
:1030E0007804A0917904B0917A04809300029093BF
:1030F0000102A0930202B0930302809175049091A3
:10310000760490930702809306020E9492300E94F8
:103110005A360C945928109272040C94592881E064
:10312000809372040C94592885E40E94F92DB82EDE
:10313000811102C00E940D9C51ED852E52E0952E0A
:103140006FE1C62E65E0D62E7DEDE72E72E1F72EFB
:1031500000E010E0A12CD4018D914D010E94F92DC9
:103160008823F1F1F6012081318142815381E69675
:103170002FAFE697E7963FAFE797E4964FAFE49718
:10318000E5965FAFE5970E94532ED6016D937D9330
:103190008D939C931397E6962FADE697E7963FADF8
:1031A000E797E4964FADE497E5965FADE59703307A
:1031B0001105B1F00E94DFB69B01AC01F7016081FF
:1031C0007181828193810E94E0B6D7016D937D93D6
:1031D0008D939C931397C8010E943A30AA24A3941C
:1031E0000F5F1F4FB4E0CB0ED11CE4E0EE0EF11CDC
:1031F0000430110509F0AFCFAA2019F00E946F2FFB
:1032000037C0BB20A9F1C0902B05D0902C05E090D1
:103210002D05F0902E052091771130917811409175
:10322000791150917A11C701B6010E9444B30E94EE
:1032300011B9609365077093660780936707909351
:103240006807C701B6010E9424B82FB7F8946093AD
:10325000D2117093D3118093D4119093D5112FBFB5
:103260001092550710925607109257071092580760
:103270000E945A360C945928FFE6EF16F10409F41F
:1032800098C408F0C9C03AE2E316F10409F4DDC3BA
:1032900008F067C057E1E516F10409F47AC2A0F519
:1032A00092E1E916F10409F4ADC5F0F4B2E0EB16D1
:1032B000F10408F4ADC1E1E1EE16F10411F00C9453
:1032C000592860E086E692E00E9408705F988A982C
:1032D0009FB7F894809108018E7F809308019FBF6B
:1032E000479812980C945928F5E1EF16F10409F467
:1032F00046C208F048C234E1E316F10411F00C9420
:103300005928EEE7F2E0F8C14BE1E416F10409F4C4
:1033100066C240F489E1E816F10409F44CC208F4ED
:103320003FC24FC2AEE1EA16F10409F494C268F458
:10333000ECE1EE16F10411F00C94592840E060E045
:10334000C8010E943C790C945928FFE1EF16F10462
:1033500009F4D5C220E2E216F10409F480C20C940B
:10336000592835E5E316F10409F47BC528F551E544
:10337000E516F10409F42AC5A0F49CE4E916F10469
:1033800009F4ABC3ADE4EA16F10409F4AAC3BBE443
:10339000EB16F10411F00C9459280E94057E0C9450
:1033A0005928E3E5EE16F10409F427C508F02AC50B
:1033B000109271040C9459282AE6E216F10409F4DB
:1033C000CDC4B8F448E6E416F10409F48EC308F05D
:1033D00075C48CE5E816F10411F00C945928B1ED90
:1033E000CB2EB2E0DB2E1BE6E12E11E1F12E10E038
:1033F0004BC59CE6E916F10409F447C408F4D4C4AB
:10340000BDE6EB16F10409F473C4EEE6EE16F10422
:1034100009F4BCC30C945928F3EDEF16F10411F430
:103420000C94512208F07AC03CE8E316F10409F448
:1034300030C468F555E7E516F10409F4B9C5A0F400
:1034400092E7E916F10409F49FC5A3E7EA16F1042F
:1034500009F4A0C5B0E7EB16F10411F00C9459285B
:1034600088E393E00E9455A1E8E7EE16F10409F421
:1034700009C6F9E7EF16F10409F40BC627E7E216CF
:10348000F10411F00C945928EEE7F4E097C539ECFB
:10349000E316F10409F4BFC688F45EEBE516F10407
:1034A00009F442C488ECE816F10409F46CC691E909
:1034B000E916F10411F00C945928F1C5ACECEA16A8
:1034C000F10409F4E0C680F4EBECEE16F10411F01F
:1034D0000C9459289BE9E92E91E1F92E01ED12E0B7
:1034E00024E0D22ED00EBFC6FDECEF16F10409F495
:1034F00034C72EECE216F10411F00C94592811EDAA
:10350000A12E12E0B12E0FE1C02E05E0D02E83E1F6
:10351000E82E85E0F82E00E010E08AC730E9E316D7
:1035200031E0F30611F40C94DE26C0F55CE2E516FA
:1035300051E0F50611F40C943B23A0F49DEDE9163F
:10354000F10411F40C94F622A2EEEA16F10411F43F
:103550000C940F23BCEDEB16F10411F00C945928D8
:103560000C94E922EEE2EE16E1E0FE0611F40C9472
:10357000002410F40C9461232FE2E21621E0F206FD
:1035800011F40C94772433E6E31631E0F30611F0DE
:103590000C945928EAE0F2E10C94082845EFE4166F
:1035A00041E0F40611F40C94F427C8F48CEAE81610
:1035B00081E0F80611F40C94E12694EFE91691E00D
:1035C000F90611F40C94DB27AAE9EA16A1E0FA0641
:1035D00011F00C9459280E94792F0C945928B7EFB8
:1035E000EB16B1E0FB0611F40C94FD2710F40C94DB
:1035F000FA27F0EAEF16F3E0FF0609F476C127EEAA
:10360000E21623E0F20611F40C941F280C945928BA
:1036100080E50E94F92D882361F00E94482E6B01FD
:103620007C01BB24B394672B682B692B31F4B12C3C
:1036300004C0B12CC12CD12C760183E50E94F92D58
:10364000882399F00E94EB2E6B017C01B1100FC012
:10365000672B682B692B59F4D8018C91882339F09A
:1036600061E0C8010E941C7007C0BB20A9F360E0A4
:1036700083E592E00E94087081E0809319070E9420
:103680000D9C0E949230C114D104E104F104E9F0D0
:103690008091C9129091CA12A091CB12B091CC1214
:1036A000C80ED91EEA1EFB1E0E94E69EDC01CB015D
:1036B0008C199D09AE09BF09B7FF1AC0809119077F
:1036C0008823B1F00E94A6A1EFCF8091190788232B
:1036D00019F00E94A6A1F9CF8091990760E0882394
:1036E00019F084E492E002C082E392E00E94087044
:1036F000109219070C94592884918F010F5F1F4F66
:10370000882321F00E949D30F801F6CF10921F0A05
:1037100010921E0A40E050E0BA018AEC97E00E9445
:10372000404C8BE1EAECF7E0DE01159601900D923A
:103730008A95E1F78091C8079091C9079C838B8394
:1037400083EA93E09A83898340E050E0BE016F5F93
:103750007F4F88E694E00E949D75CE0101960E94FD
:103760003BA1EFE6F2E084918F010F5F1F4F8823AA
:1037700011F40C9459280E949D30F801F4CF0E9456
:103780006E7C0C9459281092990710929A070C9409
:10379000592840E061E0C8010E943C790C94592806
:1037A00080919A07882319F081E0809399070E94FD
:1037B000057E0C945928109299070E94457E0C941E
:1037C000592880919A07882311F40C94592883E58D
:1037D0000E94F92D81110C945C280C945928809139
:1037E0009A07882351F1EFE8F2E084918F010F5F8F
:1037F0001F4F882321F00E949D30F801F6CF609181
:10380000150A7091160A8091170A9091180A4AE0D9
:103810000E94D0318FE20E949D306091110A709118
:10382000120A8091130A9091140A4AE00E94D03142
:103830008AE00E949D300C945928E1EAF2E08491DC
:103840008F010F5F1F4F882311F40C9459280E9499
:103850009D30F801F4CF0E94A4300C945928809137
:10386000990781110E940D9C0091730410917404BA
:1038700061E270E0C8010E9435BA009719F08C012E
:103880000F5F1F4F80E50E94F92D882349F0FF2428
:10389000F39480916A0490916B048017910708F06B
:1038A000F12C80919A07882311F40C9459284F2DFC
:1038B00061E0C8010E943C7983E50E94F92D8823CC
:1038C00049F080916A0490916B048017910710F47D
:1038D0000C946D2880919A07882319F081E08093D9
:1038E0009907F1100C94592862CF81E080939807D2
:1038F00040E060E0C8010E943C790C9459280E9485
:1039000067754CE3C42ED12CE12CF12CA701960154
:103910000E94A4B6762E672ECA01B901A7019601AE
:103920000E94A4B66B017C01CA01B90128E130E014
:1039300040E050E00E94A4B64B015C01C9016DE675
:1039400071E00E94A4B98E010F5F1F4F61157105D0
:1039500099F06F927F92DF92CF929F928F929F9376
:103960008F937F936F938AED92E09F938F931F9332
:103970000F930E9478B212C00097B1F06F927F92BD
:10398000DF92CF929F928F929F938F938AEC92E0D7
:103990009F938F931F930F930E9478B20FB6F89462
:1039A000DEBF0FBECDBF36C081149104A104B104A7
:1039B00079F06F927F92DF92CF929F928F928EEBEF
:1039C00092E09F938F931F930F930E9478B2E6CF5C
:1039D000C114D104E104F10469F06F927F92DF9287
:1039E000CF9286EB92E09F938F931F930F930E9449
:1039F00078B2D4CF6F927F9282EB92E09F938F93B5
:103A00001F930F930E9478B20F900F900F900F901A
:103A10000F900F9060E0C8010E941C70EBE9F0E18C
:103A200084917F019FEFE91AF90A882321F00E940F
:103A30009D30F701F5CFB8018EEE92E00E94385B21
:103A40008AE00E949D300C94592883E50E94F92D4C
:103A5000882311F40C9459280E943B2E7C018F3F3F
:103A6000910519F010F00C94592880E50E94F92D69
:103A7000882339F00E943B2E8C0197FF04C00C94E0
:103A800059280DE010E0D02EE5EDF2E0C8019927AD
:103A9000219131912817390731F0B3E0EB32FB0760
:103AA000B9F70C944628EAE0F2E184918F010F5FA8
:103AB0001F4F882321F00E949D30F801F6CFEBEFD5
:103AC000F2E084918F010F5F1F4F882311F40C9453
:103AD00059280E949D30F801F4CF0E94457E0C9435
:103AE00059280E94A8730C94592888E690E00E94F7
:103AF000D03281110C9459288091F00683FF02C0C6
:103B00000C94592883E50E94F92D8823D9F10E944D
:103B10003B2E90932B1280932A1280E00E94CD9727
:103B20000E943B2E863591053CF40E94A87360E00C
:103B300081E193E00E9408700E943B2E8C0160910D
:103B4000410C7091420C8091430C9091440C0E9466
:103B500024B860177107B4F480EE93E09F938F93BD
:103B600080916C0490E001969F938F938AE093E09C
:103B70009F938F931F920E94EA7D0FB6F894DEBF49
:103B80000FBECDBF0E9471A90C9459288EE40E94EB
:103B9000F92D882311F40C9459280E947DA4609378
:103BA000C3127093C4128093C5129093C6120C94E2
:103BB000592883E50E94F92D882319F00E940C2EC4
:103BC00001C080E08093F006EBE9F0E184918F0181
:103BD0000F5F1F4F882321F00E949D30F801F6CF20
:103BE000E1E3F3E084918F010F5F1F4F882321F001
:103BF0000E949D30F801F6CF8091F0068823A1F154
:103C000033E2C32E33E0D32EE12CF12C20E080915F
:103C1000F00690E00E2C02C0959587950A94E2F785
:103C200080FF17C0BB24B394B20E222319F08CE29C
:103C30000E949D30F60125913491F901849189010A
:103C40000F5F1F4F882321F00E949D309801F5CF10
:103C50002B2DFFEFEF1AFF0A32E0C30ED11C45E017
:103C6000E416F104A1F60CC0EDE2F3E084918F01BB
:103C70000F5F1F4F882321F00E949D30F801F6CF7F
:103C80008AE00E949D300C94592810927C020C947A
:103C900059288091F00683FF02C00C94592883E5CF
:103CA0000E94F92D882311F40C9459280E943B2E70
:103CB00090932F1280932E120C94592889E690E04D
:103CC0000E94D03281110C94232DE1E4F3E0849121
:103CD0008F010F5F1F4F882321F00E949D30F80154
:103CE000F6CF0E9450328AE00E949D300C94232D22
:103CF0008DE690E00E94D03281110C945928809179
:103D0000F00683FF02C00C94592883E50E94F92D28
:103D10008EA781110C947F2882E50E94F92D8111D4
:103D20000C947F280C9459288091F00683FF02C0E0
:103D30000C94592860E083E893E00E94087083E5C2
:103D40000E94F92D8EA781110C94F32982E50E941F
:103D5000F92D81110C94F3290C94592883E50E94C4
:103D6000F92D882321F00E9470A48C0102C00FEF6E
:103D700010E080E50E94F92D882319F00E9470A4BC
:103D800002C080E090E098010F3F110519F010F09B
:103D90002FEF30E0892B11F00C94592830932D121D
:103DA00020932C120C94592880E50E94F92D811142
:103DB00006C010922D1210922C120C9459280E94B9
:103DC00070A4892B11F00C945928F3CF0E94FF970F
:103DD0000E940D9C0E9443A110922D1210922C1251
:103DE00068EE73E080E090E00E94906F60E080E910
:103DF00093E00E9408700C94592881E0809371042C
:103E00000C94592883E50E94F92D882361F00E94C3
:103E1000EB2E6093CD027093CE028093CF029093ED
:103E2000D0020C94592888E50E94F92D81110C9438
:103E30002F2B89E50E94F92D81110C942F2B8AE5F7
:103E40000E94F92D81110C942F2B85E40E94F92DED
:103E500081110C942F2B0E940D9C0E9443A10C9465
:103E6000592883E50E94F92D882311F40C945928D0
:103E70000E94EB2E6093CD127093CE128093CF12DE
:103E80009093D0120C945928D6018D916D010E9407
:103E9000F92D882309F46DC0133009F063C00E9426
:103EA000532E4B015C0120E030E040EA51E40E94D7
:103EB000DFB287FF4EC0A501940160917711709128
:103EC00078118091791190917A110E94BCB72B01E1
:103ED0003C019B01AC016091B7117091B8118091C8
:103EE000B9119091BA110E9444B36093B7117093C5
:103EF000B8118093B9119093BA11A3019201609106
:103F0000A7117091A8118091A9119091AA110E94F6
:103F100044B36093A7117093A8118093A911909353
:103F2000AA116091FD067091FE068091FF069091A6
:103F300000070E94E3B2A30192010E9444B30E94D1
:103F400029B86093FD067093FE068093FF06909358
:103F500000078092771190927811A0927911B09217
:103F60007A1107C00E94532EF70160837183828308
:103F700093831F5FF4E0EF0EF11C143009F084CF3F
:103F80000E948D5C0C9459280E940D9C0E945A3608
:103F90000C945928E0EAF3E084918F010F5F1F4FE2
:103FA000882311F40C9459280E949D30F801F4CF15
:103FB00060E0C8010E941C700C94592884918F0104
:103FC0000F5F1F4F882321F00E949D30F801F6CF2C
:103FD000E6E7F4E084918F010F5F1F4F882321F003
:103FE0000E949D30F801F6CF659B03C00DEC13E0F5
:103FF00002C002ED13E0D8018D918D01882319F0E4
:104000000E949D30F8CF8AE00E949D30EEE6F4E0F9
:1040100084918F010F5F1F4F882321F00E949D30F4
:10402000F801F6CF8091030181FF03C00DEC13E08E
:1040300002C002ED13E0F80181918F01882319F08D
:104040000E949D30F8CF8AE00E949D30E6E6F4E0C1
:1040500084918F010F5F1F4F882321F00E949D30B4
:10406000F801F6CF4B9B03C00DEC13E002C002ED4C
:1040700013E0D8018D918D01882309F401CE0E94AF
:104080009D30F7CF81E080931B028093F0040C9465
:10409000592810921B021092F0040C94592883E5C1
:1040A0000E94F92D8823F1F00E943B2E182F8230B8
:1040B000D0F0EAE0F2E184918F010F5F1F4F882377
:1040C00021F00E949D30F801F6CFE8E9F4E08491F8
:1040D0008F010F5F1F4F882309F4EBC70E949D30AB
:1040E000F801F5CF10E088E40E94F92D8823B1F0A3
:1040F0000E943B2EE12FF0E08A3A91053CF085309A
:10410000B1E09B072CF084E091E002C08AEA90E0E5
:10411000EE0FFF1FE952F94F9183808386E40E94DE
:10412000F92D8823A1F00E943B2EE12FF0E0EE0F45
:10413000FF1FE552F94F8F3F910519F014F08FEFF3
:1041400090E097FF02C080E090E09183808382E45A
:104150000E94F92D882309F4ACC70E943B2EE12F61
:10416000F0E08530910534F0883891052CF087E82F
:1041700090E002C085E090E0EE0FFF1FED52F94F96
:104180009183808396C788EC90E00E94D0328111A1
:1041900090C784E40E94F92D8823D1F10E94532E08
:1041A00011E020E030E0A9010E94DFB2811101C0DE
:1041B00010E010936611112359F100916C0410E086
:1041C0000E94532E000F111F000F111FF801EE5710
:1041D000FD4F608371838283938320E030E0A901E7
:1041E0006091820270918302809184029091850295
:1041F0000E94DFB281110CC080E090E0A0E4B0E446
:104200008093820290938302A0938402B0938502EC
:104210000E943C9F4EC733E8E32E31E1F32E01EDBF
:1042200012E044E0D42ED00EF80181918F010E945B
:10423000F92D882351F00E94532E0E9429B8D701EE
:104240006D937D938D939C931397B4E0EB0EF11CCB
:10425000D012EACF0E94605B2CC7B4E0EB0EF11CD9
:10426000D01609F426C7F80181918F010E94F92D1B
:10427000882399F30E94532ED7016D937D938D93DC
:104280009C931397EACF83E50E94F92D8823D9F0F8
:104290000E94532EAB01BC014093BB115093BC1143
:1042A0006093BD117093BE1140937B1150937C11AC
:1042B00060937D1170937E1184E195E00E94025B12
:1042C0008AE00E949D3080E50E94F92D882399F0B4
:1042D0000E94532EAB01BC014093BB115093BC1103
:1042E0006093BD117093BE1187EF94E00E94025B52
:1042F0008AE00E949D3082E50E94F92D882399F082
:104300000E94532EAB01BC0140937F11509380114A
:10431000609381117093821188ED94E00E94025B9A
:104320008AE00E949D3084E50E94F92D882309F4DB
:10433000C0C60E94532EAB01BC0140937B11509329
:104340007C1160937D1170937E118AEB94E00E9442
:10435000025B8AE00E949D30ACC683E50E94F92D85
:10436000882351F00E94532E6093971170939811F7
:104370008093991190939A1184E50E94F92D8823D6
:1043800051F00E94532E6093931170939411809377
:1043900095119093961182E40E94F92D882351F093
:1043A0000E94482E6093EC067093ED068093EE0613
:1043B0009093EF0688E50E94F92D882351F00E9422
:1043C000532E6093AB117093AC118093AD11909309
:1043D000AE1189E50E94F92D882351F00E94532ED9
:1043E0006093AF117093B0118093B1119093B2119B
:1043F0008AE50E94F92D882351F00E94532E609384
:10440000B3117093B4118093B5119093B61185E4F4
:104410000E94F92D882309F44CC60E94532E609304
:10442000B7117093B8118093B9119093BA1141C626
:10443000F50181915F010E94F92D882311F10E94FD
:10444000532E2B013C01D7012D913D914D915C9153
:104450000E94DFB69B01AC01F6016081718182810F
:1044600093810E94E0B6D6016D937D938D939C93CA
:104470001397F7014082518262827382C8010E94C1
:104480003A300F5F1F4FF4E0CF0ED11C24E0E20E54
:10449000F11C0330110561F60E946F2F0E945A36FD
:1044A00008C6EBE9F0E184918F010F5F1F4F88236D
:1044B00021F00E949D30F801F6CF83E50E94F92D8E
:1044C000882321F00E9444A480931402E4E6F5E0DE
:1044D00084918F010F5F1F4F882321F00E949D3030
:1044E000F801F6CF80911402811103C0E0E6F5E0F7
:1044F00002C0ECE5F5E084918F010F5F1F4F882328
:1045000021F00E949D30F801F6CFE4E5F5E08491BA
:104510008F010F5F1F4F882321F00E949D30F8010B
:10452000F6CF4091F3045091F4046091F50470913A
:10453000F60482E595E00E94025B4091F7045091F9
:10454000F8046091F9047091FA048FE495E00E94F8
:10455000025B4091FB045091FC046091FD0470915A
:10456000FE048CE495E00E94025BE4E4F5E08491B3
:104570008F010F5F1F4F882321F00E949D30F801AB
:10458000F6CF409108025091090260910A027091A1
:104590000B0282E495E00E94025B40910C02509174
:1045A0000D0260910E0270910F028FE395E00E9460
:1045B000025B4091100250911102609112027091C1
:1045C00013028CE395E00E94025B8AE00E949D301A
:1045D00070C583E50E94F92D882309F46AC50E94FD
:1045E0003B2E909307028093060263C58DED90E009
:1045F0000E94D03281115DC583E50E94F92D882388
:1046000009F457C500916C0410E00E943B2E000F86
:10461000111FF801EC5FFD4F918380834AC580E54F
:104620000E94F92D882309F444C50E943B2E8C0179
:1046300083E50E94F92D882321F00E943B2E7C0106
:1046400003C0EE24EA94FE2CC7010196039708F0FC
:1046500030C517FD2EC5E5EDF2E0C801992721917F
:1046600031912817390709F424C533E0EB32F307F9
:10467000B1F70C94FB2C83E50E94F92D882319F0E7
:104680000E9470A402C084E091E099A388A380E511
:104690000E94F92D882349F00E9470A4893843E1D3
:1046A000940728F088E893E102C088EE93E09A83AB
:1046B0008983BE01605E7F4FCE0101960E94B67D68
:1046C000F8C485E40E94F92D811110C080E50E9494
:1046D000F92D882399F00E94532E60931C02709349
:1046E0001D0280931E0290931F0208C00E943B2E61
:1046F000181619065CF7EAE0F2E171C089E40E943D
:10470000F92D882381F00E94532E2CEA35EC47E2E4
:104710005EE30E9444B36093240270932502809369
:1047200026029093270284E40E94F92D882381F0C9
:104730000E94532E2CEA35EC47E25EE30E94BCB7A0
:1047400060932002709321028093220290932302AF
:10475000EBE9F0E184918F010F5F1F4F882321F077
:104760000E949D30F801F6CF40911C0250911D022D
:1047700060911E0270911F028CE795E00E94025B1F
:104780002CEA35EC47E25EE3609124027091250249
:1047900080912602909127020E94BCB7AB01BC0118
:1047A00088E795E00E94E98A2CEA35EC47E25EE36F
:1047B0006091200270912102809122029091230247
:1047C0000E9444B3AB01BC0184E795E00E94E98AF2
:1047D0008AE00E949D306DC40E949D30F801849152
:1047E0008F010F5F1F4F8111F7CF0BEE13E0D80140
:1047F0008D918D01882309F443CA0E949D30F7CF23
:1048000083E50E94F92D082F8823D1F00E943B2ECA
:10481000BC01990F880B990B0E94E5B2609334029A
:1048200070933502809336029093370211E020E0B6
:1048300030E0A9010E94DFB2811110E01093EB0675
:1048400080E50E94F92D182F8823A9F020E030E0A0
:10485000A9016091340270913502809136029091E5
:1048600037020E94DFB2882319F00E9444A4182F57
:104870001093EB061EC401111CC4EBE9F0E1849116
:104880008F010F5F1F4F882321F00E949D30F80198
:10489000F6CF8091EB06811103C06CED73E002C08E
:1048A0006FEC73E085E995E00E94385B20E030E032
:1048B00040E05FE3609134027091350280913602EE
:1048C000909137020E94E0B60E9424B884E895E0F7
:1048D0000E941F5BE0E8F5E084918F010F5F1F4F9E
:1048E000882309F4E6C30E949D30F801F5CF85E4E2
:1048F0000E94F92D882321F00E943B2E8C0102C0DA
:1049000000E010E083E40E94F92D882339F00E9432
:104910003B2EAF969FAF8EAFAF9706C0E5E0F0E0BD
:10492000AF96FFAFEEAFAF9785E50E94F92DA49645
:104930008FAFA497882329F00E9444A4A4968FAF38
:10494000A49783E50E94F92D882319F00E943B2E3D
:1049500004C017FD08C086E990E00115110529F48F
:1049600010926C0402C086E490E0BC01990F880BA1
:10497000990B0E94E5B26AA77AAB8EAB9AAF0E9400
:10498000E69E4B015C01012B19F40CEF13E00BC008
:104990000FE014E0D8018D918D01882309F470C9CE
:1049A0000E949D30F7CFF80181918F01882319F083
:1049B0000E949D30F8CF8AE00E949D300E94FF97B0
:1049C0008FE78093D81181E080937C02A9968CAE0A
:1049D0009DAEAEAEBFAEA997E3968CAE9DAEAEAE29
:1049E000BFAEE3971EAEF0E42396FFAF23972CE112
:1049F00027962FAF279736E463963FAF6397679666
:104A00001FAE67972B961FAE2B972F961FAE2F9733
:104A10006B961FAE6B97A3961CAE1DAE1EAE1FAE5F
:104A2000A3976F961CAE1DAE1EAE1FAE6F97C12C26
:104A3000D12C7601FFE74F2E512C612C712C8FE782
:104A400090E0A0E0B0E08EA39FA3A8A7B9A7AD9681
:104A50001CAE1DAE1EAE1FAEAD9791E0A5969FAFEA
:104A6000A5971FA61EA6212C312C00E010E08091F6
:104A70007C02882309F49BC10E94E69E6AA37BA363
:104A80008CA39DA38091D611882309F4AFC00E9406
:104A9000C4982090410C3090420C0091430C10912E
:104AA000440C9101A80167966FAD67972B967FAD77
:104AB0002B972F968FAD2F976B969FAD6B970E947C
:104AC000DFB287FF0CC067962FAE67972B963FAE7D
:104AD0002B972F960FAF2F976B961FAF6B97910168
:104AE000A8016EAD23967FAD239727968FAD2797AC
:104AF00063969FAD63970E9406B9181654F42EAEC4
:104B000023963FAE239727960FAF279763961FAF45
:104B10006397A596AFADA5972AA53AA94EA95AAD18
:104B2000B101C801AA2309F447C00E9406B91816AA
:104B30000CF05CC04AA15BA16CA17DA14819590988
:104B40006A097B09DB01CA0188589341A109B109AF
:104B5000B7FD4CC08EA19FA1A8A5B9A58419950940
:104B6000A609B709B595A795979587958093D8110C
:104B7000AD964CAF5DAF6EAF7FAFAD97BAA5679600
:104B8000BFAF6797EAA92B96EFAF2B97FEA92F9699
:104B9000FFAF2F972AAD6B962FAF6B978AA19BA182
:104BA000ACA1BDA1A9968CAF9DAFAEAFBFAFA99789
:104BB000A5961FAEA5971AC00E94DFB287FF16C048
:104BC0008AA19BA1ACA1BDA1A9962CAD3DAD4EADD6
:104BD0005FADA997821B930BA40BB50BAC01BD0174
:104BE000485853416109710977FF5FC520E030E003
:104BF00040EA51E46AA57AA98EA99AAD0E94E0B66E
:104C00009B01AC01B101C8010E9406B918166CF4F1
:104C1000E2E6F6E084918F010F5F1F4F882309F4CD
:104C200048C20E949D30F801F5CF80E398EFAFEFC6
:104C3000BFEFE3962CAD3DAD4EAD5FADE397821B6C
:104C4000930BA40BB50B2AA13BA14CA15DA1820F34
:104C5000931FA41FB51FB7FD0FC00E9450328AE0FA
:104C60000E949D308AA19BA1ACA1BDA1E3968CAF0F
:104C70009DAFAEAFBFAFE3978AA19BA1ACA1BDA191
:104C8000880F991FAA1FBB1FA9962CAD3DAD4EAD35
:104C90005FADA997821B930BA40BB50B88199909DB
:104CA000AA09BB0981389F44A241B10568F0E4E438
:104CB000F6E084918F010F5F1F4F882309F4F9C13B
:104CC0000E949D30F801F5CF4EA55FA5AF968EAD41
:104CD0009FADAF97841795070CF066C0E7EEF5E03F
:104CE00084918F010F5F1F4F882321F00E949D3018
:104CF000F801F6CFB701A60182ED95E00E94025BB4
:104D00008AE00E949D306F964CAD5DAD6EAD7FAD7B
:104D10006F978DEB95E00E94025B8AE00E949D30C8
:104D2000A3964CAD5DAD6EAD7FADA39788EA95E0DF
:104D30000E94025B8AE00E949D30A4969FADA497DA
:104D4000992309F4B6C1C0921C02D0921D02E092D0
:104D50001E02F0921F022CEA35EC47E25EE36F96EA
:104D60006CAD7DAD8EAD9FAD6F970E9444B36093E7
:104D700024027093250280932602909327022CEA46
:104D800035EC47E25EE3A3966CAD7DAD8EAD9FAD95
:104D9000A3970E94BCB76093200270932102809376
:104DA00022029093230285C10E942C7060CE8091D4
:104DB0007C0281117EC10E94FF977BC10E940D9CE5
:104DC00078C1A3E1B5E0BBA3AAA38FE1282E85E0BB
:104DD000382EEAE3FCE0FFA3EEA300E010E02EA1F2
:104DE0003FA12A533C403FA72EA7AEA1BFA18D9162
:104DF000BFA3AEA3882309F4AAC0F801E85FFD4F62
:104E00002081318142815381F801ED50FB4F608157
:104E10007181828193810E94E0B620E030E040E021
:104E20005FE30E9444B39B01AC01F1016081718199
:104E3000828193810E9406B9181634F4C801895EF4
:104E40009F4D0E94343003C060E070E0CB01D1017F
:104E50008D909D90AD90BC90F801EF52FD4E208159
:104E60003181428153810E94E0B69B01AC01C501B2
:104E7000B4010E94DFB66B017C0120E030E040EA23
:104E800051EC0E9406B987FD33C020E030E040EAD3
:104E900051E4C701B6010E94DFB218164CF1EAA135
:104EA000FBA14080518062807380A7019601C301FD
:104EB000B2010E94DFB66B017C01A30192010E9446
:104EC000DFB69B01AC01C501B4010E94E0B6D1017F
:104ED0006D937D938D939C931397EAA1FBA1C08260
:104EE000D182E282F3828EA59FA50E943A302FC024
:104EF000EAE0F2E184918F010F5F1F4F882321F0D8
:104F00000E949D30F801F6CFE4EFF6E084918F0126
:104F10000F5F1F4F882321F00E949D30F801F6CFCC
:104F200061E086EE96E00E9408700E94A47E88E20E
:104F300090E09A83898388EC90E099A388A3BE01CE
:104F40006F5F7F4FCE0180960E94B67DB2C02AA1CE
:104F50003BA12C5F3F4F3BA32AA30C5F1F4F34E0C4
:104F6000230E311C0C30110509F039CFB8D70E943F
:104F70005A3660E086ED96E00E94087083E992E080
:104F800099A388A304E610E01A830983BE01605E3A
:104F90007F4FCE0101960E94B67D8AEB92E099A3E5
:104FA00088A31A830983BE01605E7F4FCE010196FC
:104FB0000E94B67D7EC0EAE0F2E184918F010F5F2E
:104FC0001F4F882321F00E949D30F801F6CFE2E1C7
:104FD000F7E084918F010F5F1F4F882309F469C0A8
:104FE0000E949D30F801F5CF0E944C3D80E00E9468
:104FF000BB395FC00E944C3D5CC083E5FAD5882375
:1050000021F00E9444A491E089270E94BB3951C03D
:1050100084918F010F5F1F4F882321F00E949D30E4
:10502000F801F6CFE3E2F7E084918F010F5F1F4FA5
:10503000882309F43EC00E949D30F801F5CF81E03D
:105040008093860210922C0A83E5D3D5882309F435
:10505000B7C40E9444A481112CC0B2C4E0926D0474
:10506000EBE9F0E184918F010F5F1F4F882321F05E
:105070000E949D30F801F6CFB701772782E397E0D1
:105080000E941F5B8AE00E949D3013C061E08D2D5D
:105090000E94AB9D6E2D8D2D0E947C9DB7018D2DA4
:1050A0000E94E79D0930110521F4F0922D12E09243
:1050B0002C120E94FBA3C7C40E947DA4AB01BC01BB
:1050C0004093150A5093160A6093170A7093180AB2
:1050D00084E699E00E94404CECCF0E947DA4AB0195
:1050E000BC014093150A5093160A6093170A7093F7
:1050F000180A84E699E00E94404C0C946A1CBBD5C7
:1051000090932B1280932A1280E00E94CD97B3D502
:105110008635910544F40E94A87360E080E693E030
:105120000E94087002C00E94057E60912A12709150
:105130002B12072E000C880B990B0E94E5B22091D0
:10514000410C3091420C4091430C5091440C0E9410
:1051500006B91816B4F480EE93E09F938F93809174
:105160006C0490E001969F938F9389E593E09F9361
:105170008F931F920E94EA7D0FB6F894DEBF0FBE98
:10518000CDBF0E9471A981E080937C021EA21FA264
:1051900018A619A61AA61BA61CA61DA61AA21AAA0C
:1051A0009CE39EABACE1AAAFB6E4BEAFC12CD12C60
:1051B00090E8E92E2FEBF22E812C912C5401609176
:1051C0002A1270912B12072E000C880B990B0E944B
:1051D000E5B2162F072F782E692E262F372F482F4E
:1051E000592FB601C7010E94DFB2882311F1209127
:1051F000410C3091420C4091430C5091440C612F72
:10520000702F872D962D0E94DFB2881F8827881F58
:105210008AA3EEA5EE2389F0882379F080917C02A1
:10522000882309F446CF60E084E493E00E9408708C
:1052300040CF1C2D0D2D7E2C6F2C0E94E69E6B0105
:105240007C01DC01CB012AA53BA54CA55DA5821BF9
:10525000930BA40BB50BB7FD42C0D701C601885113
:105260009C4FAF4FBF4F8AA79BA7ACA7BDA70E947B
:105270005032E5E5F3E084912F019FEF491A590A76
:10528000882319F05AD7F201F6CF81149104A104B2
:10529000B104C9F0D501C401805F984DAF4FBF4F35
:1052A000BC01CD016C197D098E099F0928EE33E000
:1052B00040E050E00E94A4B6CA01B9010E94363213
:1052C0008AE03BD70CC0E2E5F3E084912F01AFEF19
:1052D0004A1A5A0A882319F030D7F201F6CF0E94F1
:1052E000A6A120D76091410C7091420C8091430C93
:1052F0009091440C0E9424B8072E000C880B990B47
:105300000E94E5B21B012C019B01AC01612F702FA3
:10531000872D962D0E94DFB69F7781149104A104FA
:10532000B10449F420E030E040E85FE30E94DFB2DE
:1053300087FF0BC008C020E030E040E450E40E944A
:1053400006B9181614F446015701BAA1BB2379F126
:105350002EA13FA148A559A52115310541055105AB
:1053600041F0D701C601821B930BA40BB50BB7FD0F
:105370001EC09101A2016AA97EA98AAD9EAD0E94BC
:10538000DFB620E030E040EC5FE30E94DFB287FD53
:1053900045CFD701C601805A9541AF4FBF4F8EA36D
:1053A0009FA3A8A7B9A72AAA3EAA4AAE5EAE80913B
:1053B0007C02882309F432CF81149104A104B10442
:1053C00029F4C12ED02EE72CF62CF9CE90E1C91A83
:1053D00097E2D90AE108F108C818D908EA08FB08D9
:1053E000F7FE1CCFEECF47D490932F1280932E124E
:1053F00042D4069714F00E94057E81E080937C02DF
:1054000080916D0480936C041EA21FA218A619A699
:105410001AA61BA61CA61DA61AA21AAAACE3AEAB1E
:10542000BCE1BAAFE6E4EEAFC12CD12C00E8E02E2F
:105430008FEBF82E812C912C540160912E127091DB
:105440002F12072E000C880B990B0E94E5B2162F25
:10545000072F782E692E262F372F482F592FB60168
:10546000C7010E94DFB2882311F120913D0C3091D9
:105470003E0C40913F0C5091400C612F702F872DB6
:10548000962D0E94DFB2881F8827881F8AA3FEA559
:10549000FF2389F0882379F080917C02882309F426
:1054A00008CE60E082E793E00E94087002CE1C2DD7
:1054B0000D2D7E2C6F2C0E94E69E6B017C01DC0181
:1054C000CB012AA53BA54CA55DA5821B930BA40B84
:1054D000B50BB7FD40C0D701C60188519C4FAF4FF7
:1054E000BF4F8AA79BA7ACA7BDA7DAD7EFE7F3E02A
:1054F00084912F019FEF491A590A882319F01DD66C
:10550000F201F6CF81149104A104B104C1F0D501D8
:10551000C401805F984DAF4FBF4FBC01CD016C19E6
:105520007D098E099F0928EE33E040E050E00E949B
:10553000A4B6CA01B9019AD78AE0FFD50CC0ECE73E
:10554000F3E084912F01AFEF4A1A5A0A882319F029
:10555000F4D5F201F6CF0E94A6A1E4D560913D0CEE
:1055600070913E0C80913F0C9091400C0E9424B8A9
:10557000072E000C880B990B0E94E5B21B012C0131
:105580009B01AC01612F702F872D962D0E94DFB6F5
:105590009F7781149104A104B10449F420E030E024
:1055A00040E85FE30E94DFB287FF0BC008C020E045
:1055B00030E040E450E40E9406B9181614F44601A5
:1055C0005701BAA1BB2379F12EA13FA148A559A546
:1055D000211531054105510541F0D701C601821B56
:1055E000930BA40BB50BB7FD1EC09101A2016AA9D4
:1055F0007EA98AAD9EAD0E94DFB620E030E040EC8F
:105600005FE30E94DFB287FD47CFD701C601805A12
:105610009541AF4FBF4F8EA39FA3A8A7B9A72AAAB2
:105620003EAA4AAE5EAE80917C02882309F434CF54
:1056300081149104A104B10429F4C12ED02EE72CC9
:10564000F62CFBCE90E1C91A97E2D90AE108F108DD
:10565000C818D908EA08FB08F7FE1ECFEECF0E9453
:105660000D9C88E5C6D2882319F05F9A1092100528
:1056700089E5BFD2882319F08A9A109211058AE52C
:10568000B8D2882359F09FB7F894809108018160BF
:10569000809308019FBF479A1092120585E4A9D212
:1056A000882309F406CD129A04CD4EA55FA51416E1
:1056B00015060CF05BC1AD968CAC9DACAEACBFAC2E
:1056C000AD97880E991EAA1EBB1EAD962CAD3DADA2
:1056D0004EAD5FADAD97281B390B4A0B5B0BCA0172
:1056E000B901A30192010E9495B6A50194010E94FF
:1056F000CBB94EA05FA068A479A4420E531E641ECD
:10570000751E34E143165104610471040CF14CEE32
:1057100044165104610471043CF450E845165104E8
:10572000610471041CF105C05BEE452E512C612C07
:10573000712C4EA25FA268A679A68EEF90E0A0E041
:10574000B0E084199509A609B7092C013D0112C0E2
:1057500024E130E040E050E02EA33FA348A759A742
:1057600044E1442E512C612C712C04C04EA25FA246
:1057700068A679A6EEECF6E084919F012F5F3F4F7B
:10578000882379F0E6962FAFE697E7963FAFE79745
:10579000D4D4E6962FADE697E7963FADE797F901AB
:1057A000EBCF6EA17FA188A599A560D6E9ECF6E0C4
:1057B00084919F012F5F3F4F882379F0E6962FAFAA
:1057C000E697E7963FAFE797B8D4E6962FADE69712
:1057D000E7963FADE797F901EBCFC301B20146D69B
:1057E0004EAD23965FAD239727966FAD27976396AF
:1057F0007FAD639782EC96E00E94025B67964FADA7
:1058000067972B965FAD2B972F966FAD2F976B9663
:105810007FAD6B978BEB96E00E94025B4EA55FA578
:10582000433051050CF4A2C0C301B2010E94E5B29D
:1058300020E030E040E850E40E9444B36B017C017A
:105840002EAD23963FAD239727964FAD27976396AE
:105850005FAD639767966FAD67972B967FAD2B977C
:105860002F968FAD2F976B969FAD6B970E94DFB6EB
:105870002BED3FE049E450E40E9444B320E030E0E7
:1058800040E05FE30E9444B39B01AC01C701B60155
:105890000E94BCB76B017C01C501B4010E94E5B256
:1058A0002FE632E143E85AE30E9444B34B015C0126
:1058B000B701A60185EB96E00E94025BB501A40149
:1058C0008FEA96E00E94025B2AE939E949E15FE349
:1058D000C701B6010E9444B36B017C019B01AC017E
:1058E0000E94E0B6A50194010E94BCB76F966CAF10
:1058F0007DAF8EAF9FAF6F97A5019401C701B60131
:105900000E9444B320E030E040E05EE30E9444B3F4
:10591000A3966CAF7DAF8EAF9FAFA397EFE9F6E094
:1059200084915F015FEFA51AB50A882319F005D4A9
:10593000F501F6CFB701A60189E996E00E94025B66
:105940006F964CAD5DAD6EAD7FAD6F9783E996E020
:105950000E94025BA3964CAD5DAD6EAD7FADA3978B
:105960008DE896E00E94025B8AE0E7D38EA19FA1BA
:10597000A8A5B9A5840D951DA61DB71DB595A7951C
:10598000979587958093D8118EA59FA501969FA77F
:105990008EA79AA59EAFAAA92396AFAF2397BEA9BB
:1059A0002796BFAF2797EAAD6396EFAF63978AA0BC
:1059B0009BA0ACA0BDA0F1E0A596FFAFA59716C92E
:1059C0000E941AA476CBEBE9F0E184918F010F5F7E
:1059D0001F4F882319F0B1D3F801F7CF6091C71298
:1059E0007091C81284E497E00E94385B82E2A5D3EC
:1059F0008AE0A3D35ECB0E940D9CD02E60E0802F66
:105A00000E94AB9D4FEFE416F40659F4802F0E94DC
:105A100023AE31E020E0892B09F030E0032F122F74
:105A200005C0EA94EF2861F000E010E08D2D0E949F
:105A300023AE8017910709F43CCB0E94A6A1F6CFB4
:105A400001E010E0F3CFCA58DF4F0FB6F894DEBF85
:105A50000FBECDBFDF91CF911F910F91FF90EF90BF
:105A6000DF90CF90BF90AF909F908F907F906F907E
:105A70005F904F903F902F9008959091450CE92FA3
:105A8000F0E0E15DFA4F80839F5F943018F49093CB
:105A9000450C02C01092450C8091D1068F5F809317
:105AA000D10608958FB7F8949091C2122091C11237
:105AB000291759F0E92FF0E0EF5BFD4E208130E02F
:105AC0009F5F9F779093C21202C02FEF3FEF8FBF6F
:105AD000C90108950F931F93CF93DF93EC010E94A8
