:100000000C946A150C949B150C949B150C949B15E1
:100010000C949B150C949B150C949B150C949B15A0
:100020000C949B150C949B150C949B150C949B1590
:100030000C949B150C949B150C949B150C949B1580
:100040000C949B150C94EDB00C949B150C949B1583
:100050000C949B150C949B150C94E8B50C94CFCE86
:100060000C949B150C94F23B0C949B150C949B15D3
:100070000C949B150C949B150C949B150C949B1540
:100080000C949B150C949B150C949B150C949B1530
:100090000C949B150C949B150C949B150C949B1520
:1000A0000C949B150C949B150C949B150C949B1510
:1000B0000C949B150C949B150C949B150C949B1500
:1000C0000C949B150C949B150C949B150C949B15F0
:1000D0000C949B150C949B150C949B150C949B15E0
:1000E0000C949B153DCC40CC2FCC33CC39CC77CC69
:1000F00044CC48CC4ECC52CC56CC5CCC60CC64CCFE
:1001000077CC6ACC6ECC72CCEBCDF0CDF5CDFFCDFB
:1001100009CE82CE13CE1BCE23CE2DCE37CE41CEEE
:1001200050CE5ACE82CE64CE6ECE78CE084AD73B21
:100130003BCE016E84BCBFFDC12F3D6C74319ABDB6
:1001400056833DDA3D00C77F11BED9E4BB4C3E91DA
:100150006BAAAABE000000803F05A84CCDB2D44EC9
:10016000B93836A9020C50B9918688083CA6AAAACB
:100170002ABE000000803F004E414E494E4954596E
:10018000494E46CDCCCC3D0AD7233C17B7D1387762
:10019000CC2B329595E6241FB14F0A000020410078
:1001A00000C84200401C4620BCBE4CCA1B0E5AAEC2
:1001B000C59D7400407A10F35A00A0724E180900D1
:1001C00010A5D4E80000E87648170000E40B5402BC
:1001D0000000CA9A3B000000E1F5050000809698F7
:1001E00000000040420F000000A086010000001047
:1001F0002700000000E80300000000640000000089
:10020000000A00000000000100000000002C76D869
:1002100088DC674F0823DFC1DFAE59E1B1B796E54F
:10022000E3E453C63AE651997696E8E6C28426EBB3
:10023000898C9B62ED407C6FFCEFBC9C9F40F2BAC6
:10024000A56FA5F490055A2AF75C936B6CF9676D5E
:10025000C11BFCE0E40D47FEF520E6B500D0ED90B3
:100260002E0300943577050080841E080000204E80
:100270000A000000C80C333333330F986E12831119
:1002800041EF8D2114893BE65516CFFEE6DB18D1F0
:10029000844B381BF77C1D901DA4BBE424203284C2
:1002A000725E228100C9F124ECA1E53D27434F4D48
:1002B0004D554E49434154494F4E004452595255B1
:1002C0004E004552524F525300494E464F0045434F
:1002D000484F0047322F47332062616420706172BB
:1002E000616D65746572730A00536C6565702E2EBE
:1002F0002E00436C69636B20746F20726573756D9B
:10030000652E2E2E004E6F206D6F76652E00456E89
:10031000642066696C65206C6973740A00426567C5
:10032000696E2066696C65206C6973740A00286EBA
:100330006F2066696C6529005344207072696E7481
:10034000696E67206279746520004E6F7420534493
:10035000207072696E74696E670A00437572726507
:100360006E742066696C653A200025697300256902
:100370006D20256973002569682025696D20256930
:100380007300256964202569682025696D20256929
:10039000730025697920256964202569682025690D
:1003A0006D20256973005072696E742074696D65E3
:1003B0003A2000CE02C902C202BB02AD026F6666DD
:1003C0000044454255473A004B494C4C45442E2089
:1003D000004D3131332053006F6B0020573A0042FB
:1003E000656420636F6F6C696E672E2E2E00426508
:1003F000642068656174696E672E2E2E00416E79E7
:1004000063756269632069332B204F66662E002C6A
:1004100020002C2000544845524D414C5F50524F13
:1004200054454354494F4E004155544F5245504F47
:1004300052545F53445F53544154555300454D4506
:100440005247454E43595F50415253455200434134
:1004500053455F4C494748545F4252494748544EC0
:1004600045535300544F47474C455F4C4947485408
:100470005300534F4654574152455F504F574552D2
:10048000004255494C445F50455243454E54004C40
:100490004556454C494E475F44415441005A5F50D0
:1004A000524F4245004155544F4C4556454C005023
:1004B00052494E545F4A4F420050524F47524553A3
:1004C00053004155544F5245504F52545F54454D7F
:1004D0005000564F4C554D455452494300454550E8
:1004E000524F4D0053455249414C5F584F4E5F5853
:1004F0004F4646004649524D574152455F4E414D89
:10050000453A4D61726C696E20312E312E392028AA
:100510004769746875622920534F555243455F43BC
:100520004F44455F55524C3A68747470733A2F2F9C
:100530006769746875622E636F6D2F4D61726C69A7
:100540006E4669726D776172652F4D61726C696E6E
:100550002050524F544F434F4C5F56455253494FD2
:100560004E3A312E30204D414348494E455F545953
:1005700050453A416E7963756269632069332B2077
:1005800045585452554445525F434F554E543A31A5
:1005900020555549443A63656465326132662D34AD
:1005A0003161322D343734382D396231322D633593
:1005B000356336326633363766660A002F2F2000E1
:1005C0004D31343520533C696E6465783E206F753B
:1005D00074206F662072616E67652028302D312986
:1005E0000A00205400205200416363656C6572610B
:1005F00074696F6E3A205000205A0020590058004C
:1006000020204D61783A2000205A002059005800DF
:1006100020204D696E3A20004F6E20004F66660024
:10062000536F667420656E6473746F70733A200044
:1006300020466C6F773A2000000136372603FFFF13
:10064000FF353C3D380EFFFFFF312E303E12FFFFDD
:10065000FFFF28FF0C0809FFFF071A1C18FFFF2ADD
:1006600008440A2C4324221E2C20643A0020693AB4
:100670000020703A00496E76616C69642065787478
:1006800072756465720A0043290A0061626C6564D0
:1006900020286D696E2074656D702000436F6C6456
:1006A000206578747275646573206172652000201E
:1006B000643A0020693A0020703A004E6F2063616E
:1006C0007365206C696768740A00454550524F4D48
:1006D000204F4B0A00416374697665204578747237
:1006E000756465723A2000496E76616C69642065B4
:1006F000787472756465720A00656E7175657565EA
:10070000696E6720220020496E76616C69642065FD
:1007100078747275646572200000000000000000AB
:100720000000000000000052430000524300007A25
:1007300043486F6D696E67206661696C656400503F
:10074000726F7465637465642050696E0A00205787
:100750003A004520436F6F6C696E672E2E2E004560
:100760002048656174696E672E2E2E00205A3A006B
:1007700020593A0020436F756E7420583A00204586
:100780003A00205A3A0020593A00583A003A0043B9
:1007900061703A004B64200023646566696E6520D1
:1007A00044454641554C545F004B69200023646525
:1007B00066696E652044454641554C545F004B7058
:1007C000200023646566696E652044454641554CAA
:1007D000545F00504944204175746F74756E6520F4
:1007E00066696E6973686564212050757420746849
:1007F00065206C617374204B702C204B6920616EF6
:1008000064204B6420636F6E7374616E7473206632
:10081000726F6D2062656C6F7720696E746F204314
:100820006F6E66696775726174696F6E2E680A0013
:10083000504944204175746F74756E652066616916
:100840006C6564212074696D656F75740A004531AB
:1008500020544845524D414C2052554E4157415924
:100860000042454420544845524D414C2052554E7B
:100870004157415900546865726D616C2052756E24
:10088000617761790045312048656174696E672040
:100890006661696C656400426564206865617469BD
:1008A0006E67206661696C65640048656174696E95
:1008B00067206661696C6564005049442041757425
:1008C0006F74756E65206661696C6564212054657E
:1008D0006D706572617475726520746F6F206869E0
:1008E00067680A00204B643A2000204B693A2000D8
:1008F000204B703A20000A20436C617373696320B7
:10090000504944200A002054753A2000204B753A83
:100910002000206D61783A2000206D696E3A200039
:1009200020643A200020626961733A2000504944F3
:10093000204175746F74756E65206661696C6564BD
:100940002120426164206578747275646572206E3E
:10095000756D6265720A00504944204175746F7468
:10096000756E652073746172740A00486F6D65203E
:100970002573257325732066697273740020666978
:100980007273740A005A0059005800486F6D652050
:10099000004F666673657473206170706C6965647E
:1009A000004572723A20546F6F20666172210054C4
:1009B0006F6F206661722066726F6D20726566656A
:1009C00072656E636520706F696E740A0024F4D4DA
:1009D0003050C38E20C2A24017828B7011127A91C0
:1009E0000D816CD90AA861E108C7586607615143B7
:1009F000061E4B5D05C145A7041A411104093D9827
:100A000003713931034036DB0265339102D430542F
:100A100002802E1D02632CEE01752AC501B028A0AC
:100A200001102781018F2564012B244B01E0223422
:100A300001AC211F018D200D01801FFC00841EEDE3
:100A400000971DDF00B81CD200E61BC600201BBCAF
:100A500000641AB200B219A8000A19A0006A189915
:100A600000D117910040178B00B516840031167E17
:100A700000B31579003A157300C7146F0058146A53
:100A800000EE1366008813630025135E00C7125B37
:100A9000006C12570015125400C111510070114F13
:100AA0000021114B00D61049008D1047004610441C
:100AB0000002104200C00F4000800F3E00420F3C79
:100AC00000060F3B00CB0E3800930E37005C0E354E
:100AD00000270E3400F30D3200C10D3100900D30AF
:100AE00000600D2E00320D2D00050D2C00D90C2BB1
:100AF00000AE0C2900850C29005C0C2700350C2762
:100B0000000E0C2600E80B2400C40B2400A00B23CD
:100B1000007D0B23005A0B2100390B2100180B20FC
:100B200000F80A1F00D90A1E00BB0A1E009D0A1DFC
:100B300000800A1D00630A1C00470A1B002C0A1BC8
:100B400000110A1A00F7091A00DD091900C4091971
:100B500000AB091900920917007B091800630917F7
:100B6000004C09160036091600200916000A09155E
:100B700000F5081500E0081400CC081400B80814AB
:100B800000A4081400900813007D0812006B0813DD
:100B900000580812004608120034081100230811FA
:100BA000001208110001081100F0071000E0071002
:100BB00000D0071000C0071000B0070F00A10710F9
:100BC0000091070E0083070F0074070F0065070EE2
:100BD0000057070E0049070E003B070D002E070EB9
:100BE0000020070D0013070D0006070D00F9060C85
:100BF00000ED060D00E0060C00D4060C00C8060C43
:100C000000BC060C00B0060C00A4060B0099060CF4
:100C1000008D060B0082060B0077060B006C060B9E
:100C20000061060A0057060B004C060A0042060A3D
:100C30000038060A002E060A0024060A001A060AD0
:100C4000001006090007060A00FD050900F4050961
:100C500000EB050900E2050900D9050900D00509E6
:100C600000C7050900BE050900B5050800AD050867
:100C700000A50509009C050800940508008C0508DE
:100C800000840508007C050800740508006C050751
:100C900000650508005D050700560508004E0507BC
:100CA0000047050700400508003805070031050723
:100CB000002A050700230507001C05060016050786
:100CC000000F0507000805060002050700FB0406E3
:100CD00000F5040700EE040600E8040600E204073D
:100CE00000DB040600D5040600CF040600C9040694
:100CF00000C3040600BD040600B7040600B10405E5
:100D000000AC040600A6040600A00405009B04062F
:100D10000095040500900406008A0405008504057A
:100D200000800406007A04050075040500700405BF
:100D3000006B04050066040500610405005C040501
:100D40000057040500520405004D04050048040541
:100D500000430405003E0404003A04050035040580
:100D600000300404002C04050027040400230405BB
:100D7000001E0404001A04040016040500110404F3
:100D8000000D040400090405000404040000040428
:100D900000FC030400F8030400F4030400F003045F
:100DA00000EC030400E8030400E4030400E003048F
:100DB00000DC030400D8030400D4030400D00304BF
:100DC00000CC030400C8030300C503030024F4049B
:100DD000D9201BC40C5C0E9804C4095F026507711E
:100DE00001F405F900FB04B30048048700C103695E
:100DF000005803550003034500BE023A0084023147
:100E00000053022A002902250004022000E4011CEC
:100E100000C8011900AF01170098011400840113E4
:100E200000710110006101100051010E0043010D1D
:100E30000036010B002B010B0020010B00150109EE
:100E4000000C01090003010800FB000800F3000882
:100E500000EB000700E4000600DE000600D80006F4
:100E600000D2000600CC000500C7000500C2000546
:100E700000BD000400B9000400B5000400B1000486
:100E800000AD000400A9000400A5000300A20003B7
:100E9000009F0004009B00030098000300950002DF
:100EA0000093000300900003008D0002008B0003FC
:100EB0000088000200860002008400030081000216
:100EC000007F0002007D0002007B0002007900022A
:100ED0000077000100760002007400020072000139
:100EE00000710002006F0002006D0001006C000242
:100EF000006A00010069000200670001006600014D
:100F00000065000100640002006200010061000150
:100F100000600001005F0002005D0001005C000154
:100F2000005B0001005A0001005900010058000157
:100F30000057000100560001005500010054000157
:100F40000053000000530001005200010051000155
:100F500000500001004F0001004E0000004E000153
:100F6000004D0001004C0001004B0000004B00014F
:100F7000004A00010049000100480000004800014B
:100F80000047000100460000004600010045000047
:100F9000004500010044000100430000004300013F
:100FA0000042000000420001004100000041000139
:100FB00000400001003F0000003F0001003E000033
:100FC000003E0001003D0000003D0001003C00002B
:100FD000003C0000003C0001003B0000003B000121
:100FE000003A0000003A0001003900000039000119
:100FF0000038000000380000003800010037000011
:101000000037000100360000003600000036000105
:1010100000350000003500000035000100340000FC
:1010200000340000003400010033000000330000F1
:1010300000330001003200000032000000320001E5
:1010400000310000003100000031000100300000DC
:101050000030000000300001002F0000002F0000D1
:10106000002F0000002F0001002E0000002E0000C5
:10107000002E0001002D0000002D0000002D0000BA
:10108000002D0001002C0000002C0000002C0000AE
:10109000002C0001002B0000002B0000002B0000A2
:1010A000002B0001002A0000002A0000002A000096
:1010B000002A00010029000000290000002900008A
:1010C000002900000029000100280000002800007D
:1010D0000028000000280000002800010027000070
:1010E0000027000000270000002700000027000163
:1010F0000026000000260000002600000026000058
:101100000026000100250000002500000025000049
:10111000002500000025000000250001002400003B
:10112000002400000024000000240000002400012E
:101130000023000000230000002300000023000023
:101140000023000000230000002300010022000013
:101150000022000000220000002200000022000007
:1011600000220001002100000021000000210000F9
:1011700000210000002100000021000000210001EA
:1011800000200000002000000020000000200000DF
:1011900000200000002000000020000000200001CE
:1011A000001F0000001F0000001F0000001F0000C3
:1011B000001F0000001F0000001F0001001E0000B3
:1011C000001E0000001E0000001E0000003930005C
:1011D000003325000087190000B00F0000DB080075
:1011E00000BD040000740200003F01000000000088
:1011F00000010204040000001C1C0C040404020191
:10120000000000000004081000000000002D2D2D3B
:101210002D2D2D007C4D61726C696E7C002D2D2D65
:101220002D2D2D00687474703A2F2F6D61726C69CA
:101230006E66772E6F726700687474703A2F2F6D28
:1012400061726C696E66772E6F72670020312E3185
:101250002E3900494E56414C4944204441544100E6
:101260004D32342053256C642054256C64004D327B
:1012700033202573004739322E30205A25732045FC
:10128000257300473238205230205820590047310A
:10129000205A32004739322E30205A300020205058
:1012A0006C616E6E657242756666657242797465D0
:1012B000733A20002046726565204D656D6F727926
:1012C0003A2000436F6D70696C65643A204170721A
:1012D00020203320323031390A00207C20417574BF
:1012E000686F723A2053746566616E2057656C733F
:1012F0000A00323031382D30382D303100204C6129
:10130000737420557064617465643A2000312E3125
:101310002E390A004D61726C696E0020536F66743D
:10132000776172652052657365740A002057617495
:101330006368646F672052657365740A00204272A7
:101340006F776E206F75742052657365740A002084
:1013500045787465726E616C2052657365740A001D
:10136000506F77657255700A0073746172740A0069
:101370006175746F25692E67006572726F722077D0
:10138000726974696E6720746F2066696C650A0003
:1013900057726974696E6720746F2066696C653A6C
:1013A0002000456E6473746F70732025632025637D
:1013B00020256320256300205A3A0020593A002056
:1013C000583A00656E6473746F7073206869743A7C
:1013D0002000446F6E6520736176696E67206669D0
:1013E0006C652E0A004D32390070012C01900127E6
:1013F00001B0012201C0011D01F00118011002130A
:101400000130020E016002090190020401C002FFD6
:10141000000003FA004003F5008003F000D003EB66
:10142000002004E6007004E100E004DC004005D781
:1014300000C005D2004006CD00D006C8008007C31A
:10144000003008BE00F008B900C009B400B00AAF0F
:1014500000B00BAA00D00CA500000EA000500F9BFE
:1014600000C01096005012910000148C00C0158727
:1014700000B0178200B0197D00D01B7800001E73E9
:101480000040206E0090226900F024640040275F35
:101490000090295A00E02B5500102E500020304BB0
:1014A0000010324600E033410090353C00103737E1
:1014B0000070383200A0392D00B03A2800A03B233C
:1014C00000603C1E00103D1900903D1400103E0FBE
:1014D00000703E0A00C03E0500003F0000403FFB98
:1014E000FF803FF6FFC03FF1FF4531204572723A61
:1014F000204D415854454D50004572723A204D419F
:101500005854454D5020424544004D415854454D96
:1015100050207472696767657265640045312045C3
:1015200072723A204D494E54454D50004572723A00
:10153000204D494E54454D5020424544004D494EA2
:1015400054454D5020747269676765726564004D3B
:10155000383420582059205A204500202F0020429E
:10156000403A0020403A0025753A25303275002572
:101570003032753A25303275002D2D2D0053440040
:1015800020202020202000202020200020746F6FA9
:10159000206C6F6E6720657874727573696F6E204A
:1015A00070726576656E7465640A0020636F6C64A2
:1015B00020657874727573696F6E207072657665D8
:1015C0006E7465640A00627573793A207061757390
:1015D000656420666F7220696E7075740A006275AA
:1015E00073793A2070617573656420666F72207537
:1015F0007365720A00627573793A2070726F636561
:101600007373696E670A004B494C4C45442E2000A9
:101610004B494C4C20636175736564206279204BA3
:10162000494C4C20627574746F6E2F70696E0A009D
:101630004B494C4C45442E20004B494C4C20636197
:101640007573656420627920746F6F206D756368AF
:1016500020696E6163746976652074696D65202DFB
:101660002063757272656E7420636F6D6D616E6458
:101670003A2000506C656173652072657365740073
:101680005052494E5445522048414C544544005014
:1016900072696E7465722068616C7465642E206B6B
:1016A000696C6C28292063616C6C6564210A0000F8
:1016B00000000000000000000000000000484200A0
:1016C00000484200008040000000005761726E69CF
:1016D0006E673A20486F6D696E672042756D7020A5
:1016E00044697669736F72203C20310A000303035A
:1016F0000000A0400000A040000000400000524355
:101700000000524300007A43FFFFFF4D3331005386
:10171000442072656164206572726F720A00446FC2
:101720006E65207072696E74696E672066696C659B
:101730000A004B494C4C45442E200053544F505006
:1017400045442E20005072696E7465722073746F68
:10175000707065642064756520746F206572726FA7
:1017600072732E2046697820746865206572726FE6
:101770007220616E6420757365204D39393920748B
:101780006F20726573746172742E202854656D70B9
:101790006572617475726520697320726573657412
:1017A0002E205365742069742061667465722072FE
:1017B000657374617274696E67290A004E6F204305
:1017C0006865636B73756D2077697468206C696EEA
:1017D00065206E756D6265722C204C617374204CAF
:1017E000696E653A20004E6F20436865636B7375C0
:1017F0006D2077697468206C696E65206E756D6206
:1018000065722C204C617374204C696E653A20001F
:10181000636865636B73756D206D69736D61746367
:10182000682C204C617374204C696E653A20004C22
:10183000696E65204E756D626572206973206E6FEA
:1018400074204C617374204C696E65204E756D6216
:1018500065722B312C204C617374204C696E653A93
:1018600020004D31313000526573746F726520660F
:1018700061696C73616665004C6F616420736574A7
:1018800074696E677300496E697469616C697A6521
:1018900020454550524F4D0053746F72652073655B
:1018A0007474696E67730046696C616D656E74006F
:1018B0004D6F74696F6E0054656D706572617475FB
:1018C0007265004D61696E005072656865617420D3
:1018D00041425320636F6E660050726568656174A3
:1018E00020504C4120636F6E66005049442D4400E7
:1018F0005049442D44005049442D49005049442D3D
:1019000049005049442D50005049442D50002002B8
:101910002046616374002002204661637400200247
:10192000204D6178002002204D6178002002204D7A
:101930006178002002204D696E002002204D696E02
:10194000002002204D696E004F6666004F6E200039
:101950004175746F74656D700046616E20737065BB
:1019600065640046616E2073706565640046616E53
:1019700020737065656400426564004265640042DE
:101980006564004E6F7A7A6C65004E6F7A7A6C658A
:10199000004E6F7A7A6C6500436F6E74726F6C00E4
:1019A00053746F72652073657474696E6773004257
:1019B00065640042656400426564004E6F7A7A6C2B
:1019C00065004E6F7A7A6C65004E6F7A7A6C6500AE
:1019D00046616E2073706565640046616E207370A9
:1019E0006565640046616E207370656564005465CA
:1019F0006D706572617475726500565472617620FF
:101A00006D696E005654726176206D696E00565491
:101A1000726176206D696E00566D696E00566D6953
:101A20006E00566D696E00566D6178204500566DEA
:101A30006178204500566D6178204500566D6178CB
:101A4000205A00566D6178205A00566D6178205AF0
:101A500000566D6178205900566D61782059005606
:101A60006D6178205900566D6178205800566D617F
:101A700078205800566D61782058004D6F74696F5A
:101A80006E005072656865617420504C4120456E4F
:101A900064005072656865617420504C4120426555
:101AA00064005072656865617420504C410050724A
:101AB00065706172650050726568656174204142AD
:101AC0005320456E64005072656865617420414220
:101AD000532042656400507265686561742041421C
:101AE000530050726570617265004D343238005099
:101AF00072656865617420504C4100436F6F6C647F
:101B00006F776E00507265686561742041425300C2
:101B100044697361626C652073746570706572737B
:101B2000004D38340053657420686F6D65206F6612
:101B30006673657473004175746F20686F6D65001E
:101B4000473238004D6F76652061786973004D61CA
:101B5000696E004D6F76652058004D6F766520598F
:101B6000004D6F7665205A00457874727564657211
:101B7000004D6F766520302E316D6D004D6F7665AE
:101B800020316D6D004D6F76652031306D6D004DEB
:101B90006F76652061786973004578747275646545
:101BA00072004D6F7665205A004D6F7665205900A2
:101BB0004D6F7665205800457874727564657200C3
:101BC0004D6F7665205A004D6F76652059004D6F38
:101BD00076652058005072657061726500496E69C3
:101BE0007469616C697A6520454550524F4D0043D8
:101BF0006F6E74726F6C004D3234004D323320259D
:101C00007300556E6B6E6F776E20636F6D6D616ED6
:101C1000643A20220020746F6F206C6F6E6720651D
:101C20007874727573696F6E2070726576656E7404
:101C300065640A0020636F6C642065787472757344
:101C4000696F6E2070726576656E7465640A004314
:101C5000616E6E6F7420656E746572207375626458
:101C600069723A2000052E2E004D61696E004D61AB
:101C7000782054656D703A20313235004D696E2000
:101C800054656D703A203500544265643A455043BE
:101C90004F53203130304B004D61782054656D70CA
:101CA0003A20323630004D696E2054656D703A200E
:101CB000350054303A204550434F53203130304B9B
:101CC000005053553A2047656E6572696300507243
:101CD0006F746F636F6C3A20312E3000426175640F
:101CE0003A203235303030300052414D505320319F
:101CF0002E34004578747275646572733A20310031
:101D0000687474703A2F2F6D61726C696E66772EED
:101D10006F726700416E7963756269632069332B66
:101D200000323031382D30382D303100312E312E07
:101D300039004D61726C696E00546865726D69732B
:101D4000746F727300426F61726420496E666F0037
:101D50005072696E74657220496E666F004D6169DC
:101D60006E00416D6178204500416D61782045002D
:101D7000416D6178205A00416D6178205A00416DB3
:101D80006178205900416D6178205900416D61787A
:101D9000205800416D6178205800412D74726176A1
:101DA000656C00412D74726176656C00412D726521
:101DB000747261637400412D7265747261637400A2
:101DC000416363656C00416363656C004D6F7469CA
:101DD0006F6E0056652D6A65726B0056652D6A65DB
:101DE000726B0056652D6A65726B00567A2D6A65B6
:101DF000726B00567A2D6A65726B0056792D6A6592
:101E0000726B0056792D6A65726B0056792D6A6582
:101E1000726B0056782D6A65726B0056782D6A6574
:101E2000726B0056782D6A65726B004D6F74696F26
:101E30006E004573746570732F6D6D004573746526
:101E400070732F6D6D005A73746570732F6D6D0014
:101E50005A73746570732F6D6D0059737465707368
:101E60002F6D6D005973746570732F6D6D0058730D
:101E7000746570732F6D6D005873746570732F6D7A
:101E80006D004D6F74696F6E0053746570732F6DC4
:101E90006D004A65726B00416363656C65726174C5
:101EA000696F6E0056656C6F6369747900436F6E7D
:101EB00074726F6C0046696C2E204469612E004676
:101EC000696C2E204469612E004F6666004F6E20BB
:101ED000004520696E206D6D3300436F6E74726F24
:101EE0006C00436172642072656D6F7665640043B7
:101EF00061726420696E7365727465640045455053
:101F0000524F4D206461746173697A652065727205
:101F10006F722E0A00290A002062797465733B20D3
:101F2000637263200053657474696E677320537421
:101F30006F726564202800290A0020627974657335
:101F40003B2063726320002073746F72656420739A
:101F5000657474696E6773207265747269657665FD
:101F600064202800202863616C63756C617465646B
:101F700029210A0020213D2000454550524F4D2087
:101F8000435243206D69736D61746368202D20286E
:101F900073746F7265642920002053697A653A2052
:101FA00000496E6465783A2000204D61726C696E5C
:101FB0003D563535290A0028454550524F4D3D00C4
:101FC000454550524F4D2076657273696F6E206D96
:101FD00069736D61746368200048617264636F6443
:101FE00065642044656661756C742053657474691A
:101FF0006E6773204C6F616465640A00B80B000063
:10200000B80B0000320000001027000000009643CB
:10201000000096430000C0400000C8410000A042FC
:102020000000A0420000C8433333B94220286D6D40
:10203000290020440020490020204D333034205016
:102040000020440020490020204D33303120500032
:102050005049442073657474696E67733A0A0020AE
:10206000460020420020480020204D3134352053C6
:10207000004D6174657269616C206865617475708A
:1020800020706172616D65746572733A0A00205A3E
:102090000020590020204D323036205800486F6D06
:1020A00065206F66667365743A0A00204500205A01
:1020B0000020590020580020540020530020204DBB
:1020C00032303520510020453C6D61785F655F6A94
:1020D00065726B3E0020583C6D61785F785F6A6581
:1020E000726B3E20593C6D61785F795F6A65726BF7
:1020F0003E205A3C6D61785F7A5F6A65726B3E0084
:10210000416476616E6365643A20513C6D696E5F2F
:102110007365676D656E745F74696D655F75733E39
:1021200020533C6D696E5F66656564726174653EDF
:1021300020543C6D696E5F74726176656C5F666594
:102140006564726174653E002054002052002020B6
:102150004D323034205000416363656C65726174A8
:10216000696F6E2028756E6974732F7332293A2057
:10217000503C7072696E745F616363656C3E20529F
:102180003C726574726163745F616363656C3E2069
:10219000543C74726176656C5F616363656C3E0A82
:1021A00000204500205A0020590020204D323031B7
:1021B0002058004D6178696D756D20416363656CD1
:1021C00065726174696F6E2028756E6974732F7300
:1021D00032293A0A00204500205A002059002020C8
:1021E0004D3230332058004D6178696D756D206631
:1021F00065656472617465732028756E6974732FE8
:1022000073293A0A00204500205A00205900202056
:102210004D393220580053746570732070657220F8
:10222000756E69743A0A0020204D323030204430F7
:102230000A0020204D323030204400204469736170
:10224000626C65640A0046696C616D656E7420732A
:10225000657474696E67733A0020204D31343920FB
:1022600043203B20556E69747320696E2043656C72
:10227000736975730A002020473231202020203BEB
:1022800000545249474745524544006F70656E00FF
:102290003A20007A5F6D696E00795F6D696E007833
:1022A0005F6D696E005265706F7274696E6720654C
:1022B0006E6473746F70207374617475730A0000B8
:1022C000000001000000010000800055555500008D
:1022D00000400033333300AAAA2A004992240000A8
:1022E000002000C7711C0099991900D145170055AD
:1022F0005515003BB11300244912001111110000C3
:102300000010000F0F0F00E3380E0043790D00CCD2
:10231000CC0C00C3300C00E8A20B0064210B00AA17
:10232000AA0A00703D0A009DD80900427B0900926C
:10233000240900DCD3080088880800104208000047
:10234000000800F0C107008787070075500700717B
:102350001C07003EEB0600A1BC0600699006006663
:10236000660600703E06006118060017F40500744A
:10237000D105005BB00500B2900500627205005502
:1023800055050078390500B81E0500050505004E05
:10239000EC040087D40400A1BD040090A704004908
:1023A000920400C17D0400EE690400C75604004495
:1023B0004404005C320400082104004110040000C1
:1023C0000004003FF00300F8E0030026D20300C33E
:1023D000C30300CCB503003AA803000A9B030038EE
:1023E0008E0300C08103009F750300D06903005075
:1023F0005E03001D53030034480300913D03003386
:1024000033030016290300381F030097150300301B
:102410000C0300030303000BFA020049F10200BAA7
:10242000E802005CE002002DD802002DD002005925
:10243000C80200B0C0020031B90200DAB10200AA3D
:10244000AA0200A0A30200BC9C0200FA9502005C54
:102450008F0200DF88020082820200457C02002792
:1024600076020027700200436A02007C640200D0FA
:102470005E02003F590200C85302007C3C3E5E2BC6
:102480003D3F2F5B5D3B2C2A225C0053442063615F
:102490007264206F6B0A006F70656E526F6F7420EC
:1024A0006661696C65640A00766F6C756D652E698E
:1024B0006E6974206661696C65640A005344206922
:1024C0006E6974206661696C0A0046696C652064F7
:1024D000656C657465643A0044656C6574696F6E1B
:1024E000206661696C65642C2046696C653A200041
:1024F00057726974696E6720746F2066696C653AFB
:1025000020006F70656E206661696C65642C2046E2
:10251000696C653A20006F70656E206661696C6554
:10252000642C2046696C653A200046696C6520730E
:10253000656C65637465640A002053697A653A20A6
:102540000046696C65206F70656E65643A200020F6
:1025500066696C653A2000646F696E670066726533
:102560007368004E6F772000454E44205355425209
:102570004F5554494E450A002220706F73002220A7
:10258000706172656E743A2200535542524F555431
:10259000494E452043414C4C207461726765743A42
:1025A00022004B494C4C45442E2000747279696ED0
:1025B0006720746F2063616C6C207375622D676394
:1025C0006F64652066696C65732077697468207430
:1025D0006F6F206D616E79206C6576656C732E204F
:1025E0004D4158206C6576656C2069733A004572E0
:1025F000726F723A00FFFDFCFAF8F6F4F2F0EEECBE
:10260000EAE9E7E5E3E1E0DEDCDAD9D7D5D4D2D0F8
:10261000CFCDCBCAC8C7C5C3C2C0BFBDBCBAB9B78E
:10262000B6B4B3B2B0AFADACAAA9A8A6A5A4A2A1F6
:10263000A09E9D9C9A99989795949392908F8E8D39
:102640008B8A8988878684838281807F7E7D7B7A5E
:10265000797877767574737271706F6E6D6C6B6A62
:10266000696867666564636261605F5E5D5C5B5A52
:102670005958585756555453525150504F4E4D4C2F
:102680004B4A4A4948474646454443424241403FF7
:102690003E3E3D3C3B3B3A393838373635353433AE
:1026A00032323130302F2E2E2D2C2B2B2A29292857
:1026B000272726252524232322212120201F1E1EF3
:1026C0001D1C1C1B1B1A1919181817161615151482
:1026D000131312121111100F0F0E0E0D0D0C0C0B07
:1026E0000A0A090908080707060605050404030382
:1026F00002020100002CFFFFFFFFFF0001010101AA
:10270000016265640A002C2073797374656D20730F
:10271000746F7070656421204865617465725F49EB
:10272000443A20004265642068656174696E6720E0
:102730006661696C65640048656174696E672066EE
:1027400061696C65640045312048656174696E6734
:10275000206661696C65640048656174696E672014
:102760006661696C656400453120544845524D41AD
:102770004C2052554E41574159004245442054483F
:1027800045524D414C2052554E41574159005468D5
:1027900065726D616C2052756E6177617900001C05
:1027A0001F11111F00000006191803130C00040E5E
:1027B0001F041C000000000E1315110E00001C1059
:1027C000181705060500040A0A0A0A11110E0C1250
:1027D000120C00000000001F1511151F00006F7083
:1027E000656E206661696C65642C2046696C653A8B
:1027F000200043616E6E6F74206F70656E2073757C
:102800006264697220006563686F3A00416E7963A3
:10281000756269632069332B2052656164792E00EB
:102820005072696E74696E672E2E2E005072696E3A
:102830007420706175736564004D31303620502509
:102840006920532569004D31303920532569004DE9
:1028500031393020532569004D3432302053300A4D
:10286000473238205230205820590053746F70205E
:102870007072696E7400526573756D65207072694F
:102880006E7400506F7765722D4C6F7373205265B4
:10289000636F76657279005072696E742061626F41
:1028A00072746564004E6F2053442063617264004B
:1028B0005072696E742066726F6D205344005374B9
:1028C0006F70207072696E7400526573756D65204B
:1028D0007072696E740041626F7574205072696E17
:1028E000746572005061757365207072696E740052
:1028F000436F6E74726F6C00507265706172650028
:1029000054756E6500496E666F2073637265656EFF
:1029100000466C6F7700466C6F7700466C6F7700EF
:1029200046616E2073706565640046616E20737049
:102930006565640046616E2073706565640042657C
:10294000640042656400426564004E6F7A7A6C658B
:10295000004E6F7A7A6C65004E6F7A7A6C65005320
:1029600070656564005370656564005370656564E7
:10297000004D61696E006F70656E206661696C65FF
:10298000642C2046696C653A20004572726F722093
:1029900077726974696E6720746F20454550524F95
:1029A0004D210A0000002100240027002A002D00EC
:1029B0003000330001010000040107010A0100009A
:1029C0002200250028002B002E00310034000201D7
:1029D0000000050108010B01000020002300260073
:1029E00029002C002F003200000100000301060125
:1029F0000901050505050705080808080202020285
:102A00000A0A08080404040401010101010101018A
:102A10000303030303030303040707070C0C0C0C55
:102A20000C0C0C0C0202020206060606060606063E
:102A30000B0B0B0B0B0B0B0B0102102020080810CB
:102A4000204010204080020102010804020101021E
:102A500004081020408080402010080402018004F7
:102A60000201804020100804020108040201010252
:102A7000040810204080010204081020408000005B
:102A80000A0B02090C0D0E080703040100000000E8
:102A90000000000000000000000000000000000036
:102AA00000000000000000000000121110000000F3
:102AB0000000000000000000000000000000000016
:102AC00000000000526573656E643A20006F6B0071
:102AD000B4D98BD811241FBECFEFD1E2DEBFCDBF5A
:102AE00000E00CBF13E0A0E0B2E0E6E3F6ED01E0A9
:102AF0000BBF02C007900D92A233B107D9F729E1AD
:102B0000A2E3B3E001C01D92A03FB207E1F715E1D7
:102B1000C9E6D5E100E006C021970109802FFE013A
:102B20000E9479EAC836D10780E00807A9F70E9419
:102B300034D10C940AEB0C9400002F923F924F92E8
:102B40005F926F927F928F929F92AF92BF92CF923D
:102B5000DF92EF92FF920F931F93CF93DF93CDB746
:102B6000DEB7CF55D1090FB6F894DEBF0FBECDBF8B
:102B700011E01093AC0980915A198D3409F472C692
:102B8000843511F40C94AF29873411F00C94EC299E
:102B9000209058193090591924E02216310409F474
:102BA00049C54CF437FC5AC68091440242E02416D1
:102BB00031047CF529C05AE52516310409F48FC586
:102BC00034F49CE12916310409F472C547C6ABE51B
:102BD0002A16310409F487C5BCE52B16310409F027
:102BE0003DC649E4242E42E0342E5AEBE52E59E04E
:102BF000F52EAFECB7E0BDA7ACA761E7C62E6AE043
:102C0000D62E00E010E0AFC581110C94F3290C948E
:102C1000EE29882311F40C94EE290E94FB2F82E503
:102C20000E94EF2F882309F436C10E94732F4B01B5
:102C30005C0120E030E0A9010E94F6E0882309F45D
:102C400056C12091CF073091D0074091D1075091C4
:102C5000D2072CA73DA74EA75FA78091D3079091DD
:102C6000D407A091D507B091D60788AB99ABAAAB92
:102C7000BBAB2091C6093091C7094091C80950915A
:102C8000C9092CAF3DAF4EAF5FAF8091CA0990919B
:102C9000CB09A091CC09B091CD0988AF99AFAAAF6B
:102CA000BBAF6CA57DA58EA59FA50E94F6E0811106
:102CB0000DC028AD39AD4AAD5BAD68A979A98AA927
:102CC0009BA90E94F6E0882309F411C111E092E06B
:102CD0002916310409F010E020E030E0A901C50117
:102CE000B4010E94F6E0881F8827881F181759F042
:102CF00020E030E040E85FEB28962CAF3DAF4EAFD0
:102D00005FAF28970AC080E090E0A0E8BFE3289674
:102D10008CAF9DAFAEAFBFAF28972CA53DA54EA5FC
:102D20005FA56CAD7DAD8EAD9FAD0E946DE7249625
:102D30006CAF7DAF8EAF9FAF249728A939A94AA960
:102D40005BA968AD79AD8AAD9BAD0E946DE76B0163
:102D50007C0124962CAD3DAD4EAD5FAD2497CA01EC
:102D6000B9010E945BE12B013C01A7019601C7015B
:102D7000B6010E945BE19B01AC01C301B2010E945C
:102D80006EE70E94DAE96CAB7DAB8EAB9FAB20E0C7
:102D900030E040E05FE30E945BE12B013C01A501D4
:102DA0009401C501B4010E945BE14B015C01A301E8
:102DB0009201C301B2010E945BE19B01AC01C5011C
:102DC000B4010E946DE70E94DAE928962CAD3DAD72
:102DD0004EAD5FAD28970E945BE14B015C01C701DE
:102DE000B60190582CA93DA94EA95FA90E944AE8B6
:102DF000A50194010E945BE16B017C012CAD3DAD0E
:102E00004EAD5FAD6CA57DA58EA59FA50E946EE71A
:102E100020E030E040E05FE30E945BE19B01AC0119
:102E2000C701B6010E946EE72CA53DA54EA55FA582
:102E30000E946DE76B017C0128AD39AD4AAD5BADF9
:102E400068A979A98AA99BA90E946EE720E030E0D1
:102E500040E05FE30E945BE12B013C012CA93DA90E
:102E60004EA95FA924966CAD7DAD8EAD9FAD249724
:102E70000E944AE8A50194010E945BE19B01AC011C
:102E8000C301B2010E946EE728A939A94AA95BA92A
:102E90000E946DE714C089E40E94EF2F882329F077
:102EA0000E94732F6B017C0103C0C12CD12C7601D1
:102EB0008AE40E94EF2F8823E9F00E94732F6CAF01
:102EC0007DAF8EAF9FAF20E030E0A901C701B60112
:102ED0000E94F6E081111BC020E030E0A9016CAD3A
:102EE0007DAD8EAD9FAD0E94F6E0811110C0EEEE7B
:102EF000F5E28CC320E030E0A901C701B6010E94D1
:102F0000F6E08823A1F31CAE1DAE1EAE1FAEA701D6
:102F1000960150582CA73DA74EA75FA78CAD9DAD3D
:102F2000AEADBFADB05888AB99ABAAABBBABCA01D5
:102F3000B9010E945BE14B015C0128A939A94AA9AA
:102F40005BA9CA01B9010E945BE19B01AC01C5010B
:102F5000B4010E946EE70E94DAE964966CAF7DAF1F
:102F60008EAF9FAF64972091CF073091D0074091EB
:102F7000D1075091D20728AF39AF4AAF5BAFA70155
:102F8000960168AD79AD8AAD9BAD0E946EE728963B
:102F90006CAF7DAF8EAF9FAF28978091D307909194
:102FA000D407A091D507B091D60724968CAF9DAFDA
:102FB000AEAFBFAF24972CAD3DAD4EAD5FADBC0104
:102FC000CD010E946EE768966CAF7DAF8EAF9FAF6C
:102FD00068972091C6093091C7094091C80950915E
:102FE000C9092C962CAF3DAF4EAF5FAF2C972896FA
:102FF0002CAD3DAD4EAD5FAD28972C966CAD7DAD43
:103000008EAD9FAD2C970E946DE76B017C01809186
:10301000CA099091CB09A091CC09B091CD096096D5
:103020008CAF9DAFAEAFBFAF609768962CAD3DAD96
:103030004EAD5FAD6897BC01CD010E946DE74B01BD
:103040005C012091D7073091D8074091D907509162
:10305000DA076C962CAF3DAF4EAF5FAF6C976091C7
:10306000CE097091CF098091D0099091D1090E9429
:103070006DE76CAB7DAB8EAB9FABA70196016CA5EA
:103080007DA58EA59FA50E945BE12B013C01A501BA
:10309000940168A979A98AA99BA90E945BE19B0177
:1030A000AC01C301B2010E946EE72B013C01A501F6
:1030B00094016CA57DA58EA59FA50E945BE14B01A7
:1030C0005C01A701960168A979A98AA99BA90E9418
:1030D0005BE19B01AC01C501B4010E946DE7A30156
:1030E00092010E94E1E76B017C0120E030E0A90140
:1030F0000E94F6E087FF0AC02BED3FE049EC50E468
:10310000C701B6010E946EE76B017C0132E0231615
:10311000310451F42BED3FE049EC50E4C701B60116
:103120000E946DE76B017C0120E030E0A901C7013E
:10313000B6010E94F6E0811126C02C962CAD3DAD63
:103140004EAD5FAD2C9768AD79AD8AAD9BAD0E9459
:10315000F6E0811118C060962CAD3DAD4EAD5FAD6F
:10316000609724966CAD7DAD8EAD9FAD24970E9487
:10317000F6E0811108C0FBEDCF2EFFE0DF2EF9EC69
:10318000EF2EF0E4FF2EA701960164966CAD7DADA5
:103190008EAD9FAD64970E945BE14B015C0120E026
:1031A00030E0A9016CA97DA98EA99FA90E94F6E033
:1031B0008823D9F0A5019401C501B4010E945BE107
:1031C0004B015C012CA93DA94EA95FA9CA01B90117
:1031D0000E945BE19B01AC01C501B4010E946EE756
:1031E0000E94DAE94B015C010DC020E030E0A9014A
:1031F000C501B4010E9494E987FF04C0B7FAB094F6
:10320000B7F8B0942FE632E143E85AE3C501B401C0
:103210000E94F6E087FF02C00C94EE29C501B401BC
:103220000E94E3E80E94B7E822967FAF6EAF229734
:10323000672B31F481E090E022969FAF8EAF22970A
:103240004090DB075090DC076090DD077090DE0750
:103250002296AEADBFAD2297BD0180E090E00E9406
:10326000FAE04B015C019B01AC01C701B6010E9471
:103270004AE868AF79AF8AAF9BAFA50194016CA90A
:103280007DA98EA99FA90E944AE864966CAF7DAF84
:103290008EAF9FAF6497A30192016091D2097091A4
:1032A000D3098091D4099091D5090E946DE7A501B9
:1032B00094010E944AE8A0966CAF7DAF8EAF9FAF9D
:1032C000A09728AD39AD4AAD5BADCA01B9010E94E6
:1032D0005BE120E030E040E05FE30E945BE19B01C6
:1032E000AC0160E070E080E89FE30E946DE72C96FF
:1032F0006CAF7DAF8EAF9FAF2C976C962CAD3DAD74
:103300004EAD5FAD6C9729873A874B875C874D86BA
:103310005E866F86788A6091470270914802072E18
:10332000000C880B990B0E94FCE020910F02309159
:10333000100240911102509112020E945BE12AE0BA
:1033400037ED43E25CE30E945BE168A779A78AA7B7
:103350009BA70E94C3CE9B01AC0128533F4F4F4F08
:103360005F4F60962CAF3DAF4EAF5FAF60974CA400
:103370005DA46EA47FA422242394312C39E13CABBC
:1033800022964EAD5FAD22974215530509F41AC13E
:103390000E94ECB90E94C3CEDC01CB0160962CAD3B
:1033A0003DAD4EAD5FAD6097821B930BA40BB50B8B
:1033B000B7FD10C00E94C3CE9B01AC0128533F4F04
:1033C0004F4F5F4F60962CAF3DAF4EAF5FAF6097F2
:1033D0000E9488523CA931503CAB332309F441C0D0
:1033E00028A939A94AA95BA92C966CAD7DAD8EADF3
:1033F0009FAD2C970E945BE16B017C019201A301C0
:1034000068AD79AD8AAD9BAD0E945BE1A7019601E5
:103410000E946EE77B018C019201A3012C966CAD9A
:103420007DAD8EAD9FAD2C970E945BE14B015C01A1
:1034300028A939A94AA95BA968AD79AD8AAD9BAD28
:103440000E945BE19B01AC01C501B4010E946DE7E4
:103450002B013C01C701D80188AB99ABAAABBBAB30
:103460004DC0B10180E090E00E94FAE028AD39AD96
:103470004AAD5BAD0E945BE14B015C010E9447E8F5
:103480006B017C01C501B4010E94D0E94B015C01D4
:10349000A70196016CA57DA58EA59FA50E945BE165
:1034A0002B013C012CAD3DAD4EAD5FADC501B4016E
:1034B0000E945BE1A30192010E946EE72B013C0197
:1034C000A50194016CA57DA58EA59FA50E945BE139
:1034D0004B015C012CAD3DAD4EAD5FADC701B601FA
:1034E0000E945BE19B01AC01C501B4010E946DE744
:1034F00068AB79AB8AAB9BAB49E14CAB9201A301C2
:1035000028966CAD7DAD8EAD9FAD28970E946EE77D
:1035100069837A838B839C8328A939A94AA95BA9EB
:1035200068966CAD7DAD8EAD9FAD68970E946EE7DD
:103530006D837E838F83988764962CAD3DAD4EADB1
:103540005FAD649769857A858B859C850E946EE75F
:1035500069877A878B879C87A0962CAD3DAD4EAD51
:103560005FADA0976D857E858F8598890E946EE7F7
:103570006D877E878F87988B80913402882321F016
:10358000CE0101960E94D84DE0903E1118A219A2DA
:103590001AA21BA2CE0180966C018E01085D1F4FFE
:1035A0009E01235F3F4FAE01475F5F4FBE016B5FE0
:1035B0007F4F4F970E94C467882321F09FEF291AFD
:1035C000390ADECEE0903E111CA21DA21EA21FA24F
:1035D000DE0194966D018E01085D1F4F22ED39E0EA
:1035E0004EEC59E06AEC79E086EC99E00E94C46701
:1035F00080E1E6ECF9E0AFECB7E001900D928A953E
:10360000E1F70C94EE290E948030F80184918F013B
:103610000F5F1F4F8111F7CFE3EDF2E084918F012F
:103620000F5F1F4F882311F40C94EE290E94803005
:10363000F801F4CF80E50E94EF2F882329F00E9443
:10364000332F6B017C0103C0C12CD12C760183E5A3
:103650000E94EF2F882361F00E94732F20E030E05A
:103660004AE754E40E945BE10E94B7E86B017C01E9
:103670000E946BB48091AC0A811105C060E089EEB4
:1036800092E00E94D88C0E94C3CEC60ED71EE81EC0
:10369000F91E0E94C3CEDC01CB018C199D09AE0935
:1036A000BF09B7FD02C00C94EE290E948852F1CFE9
:1036B00080919D038770873011F00C94F7298FE477
:1036C0000E94EF2F882319F00E94642F03C08FE41B
:1036D0000E94A62F81110C94EE290C94F7291092C8
:1036E00036030C94EE29109336030C94EE290E94B5
:1036F000732F2B013C01133049F0D6012D913D91E0
:103700004D915C910E946DE72B013C01ECA5FDA55C
:103710002081318142815381C301B2010E946DE752
:103720004B015C012DEB37E346E855EB0E9494E931
:1037300087FD21C02DEB37E346E855E3C501B40111
:103740000E94F6E01816BCF01F5FF4E0EF0EF11CCB
:103750002CA53DA52C5F3F4F3DA72CA734E0C30E01
:10376000D11C143031F1F10181911F010E94EF2F22
:10377000882351F3BCCF133051F44092DB075092B1
:10378000DC076092DD077092DE0701E0DDCFA50166
:103790009401D7016D917D918D919C910E946EE76E
:1037A000F7016083718382839383812F0E94E12DCF
:1037B000CBCF002309F44EC020E030E0A901609196
:1037C000DB077091DC078091DD079091DE070E9496
:1037D0006EE720911A1130911B1140911C115091EC
:1037E0001D110E945BE10E94A0E960935B1670933B
:1037F0005C1680935D1690935E16909139168091B9
:103800003A16981719F00E940DB424C00E946BB4A8
:1038100080916F00982F927081FF05C080916F009A
:103820008D7F80936F0040915B1650915C16609184
:103830005D1670915E164093C6155093C715609340
:10384000C8157093C915992329F080916F00826083
:1038500080936F000E942E370C94EE290E946F75A2
:103860000C94EE298091581990915919823791053D
:1038700009F412C70CF0DFC08B34910509F4C5C4FC
:103880000CF06EC08831910509F484C2E4F58231F0
:10389000910509F436C6E4F497FF02C00C94AC29F4
:1038A000823091050CF4A6C1419711F00C94AC291B
:1038B00060E085E093E00E94D88C5F988A988091C0
:1038C0000801817080930601479812980C94EE29A4
:1038D0008531910509F443C23CF4449711F00C94EE
:1038E000AC29EDE1F3E0FDC18631910509F43BC25D
:1038F000479711F00C94AC290E946FB0E0915619D3
:10390000F09157193AC28D31910511F40C94EE29BA
:10391000C4F48A31910509F4BDC20CF4B5C28B31EF
:10392000910509F4C5C24C9711F00C94AC2940E004
:1039300060E080915619909157190E949EAC0C94AA
:10394000EE298F31910509F476C30CF449C3803216
:10395000910509F45AC28A9709F423C40C94AC293E
:103960008836910509F45DC4F4F58235910509F4B2
:10397000C1C504F58D34910509F44FC40CF449C454
:103980008135910511F00C94AC290E947AB80E94FF
:10399000AAB51092370B1092360B68EE73E080E0F8
:1039A00090E00E94608C60E08DEF93E00E94D88CE4
:1039B0000C94EE298435910509F4A3C50CF49DC53A
:1039C0008535910509F4CFC58C35910511F00C941E
:1039D000AC2919E4C12E12E0D12E0EE0E02E01E157
:1039E000F02E10E0D9C58D36910509F424C59CF45C
:1039F0008A36910509F452C50CF4DDC48B36910565
:103A000009F468C58C36910511F00C94AC2910921C
:103A100013020C94EE298F36910509F444C40CF47A
:103A20002FC48037910509F491C48137910509F4B9
:103A300095C40C94AC298D3D910511F40C943D274F
:103A40000CF05CC08B39910509F4D0C41CF58737A4
:103A5000910509F415C774F48537910509F4B4C6C6
:103A60000CF0C1C68337910511F00C94AC29E4EF3A
:103A7000F4E04FC68937910509F40BC70CF403C76E
:103A80008C38910509F4DAC48139910509F406C727
:103A90000C94AC298C3C910511F40C944F25DCF46A
:103AA000883C910509F471C734F48E3B910509F403
:103AB000E0C40C94AC29893C910509F4B6C78B3C51
:103AC000910511F00C94AC2969E4E62E62E0F62E23
:103AD00006E01BE0D4C78E3C910511F40C942F2610
:103AE00014F40C94C425833D910509F47FC08C3DEA
:103AF000910511F40C9430270C94AC298A3941E0DB
:103B0000940709F427C474F58E32A1E09A0711F4E2
:103B10000C948F2884F48C32E1E09E0711F40C940D
:103B2000D12714F00C94F827823E910511F40C94DF
:103B3000AB270C94AC29803321E0920711F40C944C
:103B4000E02814F40C94DD28833641E0940709F44E
:103B500049C08039914011F00C94AC290E946BB49B
:103B60000C94EE29873FA1E09A0711F40C946F2979
:103B7000FCF4843FE1E09E0711F40C9469294CF4B5
:103B80008C3A914011F00C94AC290E94F1370C94BE
:103B9000EE29853F31E0930711F40C946C29863FA0
:103BA000914011F00C94AC290E94E0A10C94EE29F4
:103BB0008B3853E0950711F40C94EE293CF4883FC0
:103BC000914011F40C9478290C94AC29803AE3E0EC
:103BD0009E0709F423C2873E934011F40C949A295E
:103BE0000C94AC29EEEEF5E20C945729E6E0F8E2ED
:103BF0000C945126A0905619B090571980E50E9458
:103C0000EF2F882359F00E94332F6B017C0111E0C4
:103C1000672B682B692B31F410E004C010E0C12C35
:103C2000D12C760183E50E94EF2F882311F40C94A8
:103C3000282B0E94732F20E030E04AE754E40E94D2
:103C40005BE10E94B7E86B017C0111110BC0672B8F
:103C5000682B692B39F4A114B10421F0D5018C91A2
:103C6000811102C010E001C011E00E946BB4112369
:103C700029F061E0C5010E94148D05C060E082EF6B
:103C800092E00E94D88C83E08093AC0981E080931D
:103C90004B11C114D104E104F104B1F00E94C3CE70
:103CA000C60ED71EE81EF91E0E94C3CEDC01CB0152
:103CB0008C199D09AE09BF09B7FF0DC080914B114A
:103CC00081110C942D2B07C080914B11882319F082
:103CD0000E948852F9CF0E94B5C210924B110C94E9
:103CE000EE2984918F010F5F1F4F882321F00E94DE
:103CF0008030F801F6CF10921B198FEA96E10E94EE
:103D00007EA58BE1EFEAF6E1DE01159601900D92BA
:103D10008A95E1F78091AD169091AE169C838B83C6
:103D200083EF92E09A83898340E050E0BE016F5FA9
:103D30007F4F80E090E00E94ABBECE0101960E94D2
:103D40004B4FEEE0F3E084918F010F5F1F4F88230C
:103D500011F40C94EE290E948030F801F4CF0E94F7
:103D600060AE0C94EE2910927F16109280160C947F
:103D7000EE29803209F41082319680818111F9CFC9
:103D800040E061E080915619909157190E949EACD5
:103D90000C94EE2983E50E94EF2F882381F00E9486
:103DA000432FAB01BC01409317195093181960932E
:103DB000191970931A1987E498E10E9437A380912A
:103DC0008016882319F081E080937F1684E50E9495
:103DD000EF2F882309F454C00E94432F6B017C010C
:103DE0000E9413B8C092CA15D092CB15E092CC15A0
:103DF000F092CD15CD28CE28CF2811F40C94EE29C1
:103E000081E0809322190C94EE2980917F16811114
:103E10000E946BB480918016882311F40C94EE29D3
:103E200080E50E94EF2F882309F4F4C00E94642FDC
:103E3000182F482F61E080915619909157190E94D0
:103E40009EAC83E50E94EF2F882381F00E94432FD0
:103E5000AB01BC01409317195093181960931919BD
:103E600070931A1987E498E10E9437A38091801615
:103E7000882319F081E080937F1611110C94EE29AC
:103E80000E942EB80C94EE2910927F160E9450B812
:103E90000C94EE2980918016882311F40C94EE295D
:103EA00083E50E94EF2F81110C94312B0C94EE29A5
:103EB00083E40E94A62F882309F450C0EBE5F3E0C9
:103EC00084918F010F5F1F4F882321F00E94803063
:103ED000F801F6CF80914A18811103C0EEE2F3E0B9
:103EE00012C0BE016F5F7F4F87E498E10E9446A435
:103EF0008E010F5F1F4FF80181918F01882349F1D7
:103F00000E948030F8CF84918F010F5F1F4F88236C
:103F100001F10E948030F801F6CF23EBC22E23E09E
:103F2000D22EE12CF12C20E080910D1190E00E2C8E
:103F300002C0959587950A94E2F780FDE4C13FEFB2
:103F4000E31AF30A42E0C40ED11C55E0E516F10471
:103F500059F78AE00E9480300C94EE2980918016F7
:103F6000882339F080917F16882319F0E8E3F3E085
:103F700003C0EAE4F3E028C084918F010F5F1F4F74
:103F8000882321F00E948030F801F6CF6091171944
:103F9000709118198091191990911A194AE00E948C
:103FA00004318FE20E9480306091131970911419CE
:103FB00080911519909116194AE00E9404318AE007
:103FC0000E9480300C94EE2984918F010F5F1F4F67
:103FD000882311F40C94EE290E948030F801F4CF6C
:103FE00080918016882311F40C94EE2987E498E1DF
:103FF0000E9461CA87E498E10E9421A410927E1673
:1040000010927D1680915619909157190E94D6AF43
:104010000C94EE2980E50E94A62F0ACF80915619B4
:104020009091571921E020937E1640E060E00E94B5
:104030009EAC0C94EE290E94DFB77B018C0120E836
:1040400031E541E050E00E9432E7C9016DE671E0E0
:104050000E9436EA4B015C01C801B70120E13EE055
:1040600040E050E00E9432E7CA01B90128E130E0A7
:1040700040E050E00E9432E7762E672EC62ED72E03
:104080003CE3232E312C412C512CC801B701A20155
:1040900091010E9432E7F62EE72ECA01B901A20172
:1040A00091010E9432E7CB018E010F5F1F4F8114F7
:1040B000910499F0EF92FF927F936F936F927F92AA
:1040C000BF92AF929F928F9282E993E09F938F93DA
:1040D0001F930F930E9490E013C0A114B104B1F09C
:1040E000EF92FF927F936F936F927F92BF92AF9206
:1040F00082E893E09F938F931F930F930E9490E029
:104100000FB6F894DEBF0FBECDBF30C0CD2879F01A
:10411000EF92FF927F936F936F927F9286E793E087
:104120009F938F931F930F930E9490E0E9CF892B69
:1041300069F0EF92FF927F936F938EE693E09F93E7
:104140008F931F930F930E9490E0DACFEF92FF922C
:104150008AE693E09F938F931F930F930E9490E0C2
:104160000F900F900F900F900F900F9060E0C8018C
:104170000E94148DE6E0F8E284917F01BFEFEB1A14
:10418000FB0A882321F00E948030F701F5CFB801A7
:1041900086EA93E00E9465B28AE00E9480300C9427
:1041A000EE2983E50E94EF2F882311F40C94EE2969
:1041B0000E94532FE82E80E50E94EF2F882339F0CC
:1041C0000E94532F182F87FF03C00C94EE291DE087
:1041D00089E40E94EF2F882341F00E94642F81110F
:1041E0000C94352DE8E3F6E00BC089E40E94A62F7D
:1041F000F6CF319626E0E936F20711F40C94352D0E
:1042000084911813F6CF0C940A2D0E942EB80C94AA
:10421000EE290E9450B80C94EE290E9465B80C94C7
:10422000EE2988E690E00E946F3181110C94EE290E
:1042300080910D1183FF02C00C94EE2983E50E944A
:10424000EF2F8823C9F00E94732F0E94B2E8709369
:10425000A50A6093A40A80E00E946CB60E94732FA6
:1042600020E030E04AEA52E40E94F6E0181624F01A
:104270000E9465B80E94B5C20E9482B30C94EE29D8
:104280008EE40E94EF2F882311F40C94EE290E94F3
:10429000432F6093A3157093A4158093A515909355
:1042A000A6150C94EE2983E50E94A62F882359F0C9
:1042B00083E50E94EF2F882319F00E94532F01C03D
:1042C00080E080930D11E6E0F8E284918F010F5FAA
:1042D0001F4F811103C0E1ECF3E004C00E94803065
:1042E000F801F3CF84918F010F5F1F4F882321F0D6
:1042F0000E948030F801F6CF80910D1181110DCE12
:10430000EDEBF3E018C0BB24B394B20E222319F0F6
:104310008CE20E948030F60185919491FC01849199
:104320008F010F5F1F4F882321F00E948030F8011A
:10433000F6CF2B2D04CE84918F010F5F1F4F882362
:1043400009F407CE0E948030F801F5CF88EC93E0A5
:104350000E946D4F0E945C2E0C94EE2983E50E9412
:10436000EF2F811103C0E6E0F8E20DC00E94532F49
:104370008D3320F4809317020C94EE298CE3809304
:1043800017020C94EE2984918F010F5F1F4F882331
:1043900021F00E948030F801F6CF4091170250E0E2
:1043A00060E070E081ED93E00E9412B28AE00E942A
:1043B00080300C94EE2989E690E00E946F318111E3
:1043C00011C0E8EDF3E084918F010F5F1F4F882348
:1043D00021F00E948030F801F6CF0E94F54B8AE070
:1043E0000E9480301092AC090C944A2D83E50E9403
:1043F000EF2F882309F4F2C70E94532F182F8D3313
:1044000008F01CE31093B9090E94C3CE6B017C0134
:10441000212F30E0A8EEB3E00E945EE7C60ED71E63
:10442000E81EF91EC092B509D092B609E092B7090C
:10443000F092B809D3C70E947639D0C780910D1188
:1044400083FF01C0CBC783E50E94EF2F882309F4C7
:10445000C5C70E94732F0E94B2E86D37710514F032
:104460006DE770E07093A30A6093A20A0E9420B6E1
:10447000B5C780910D1183FF01C0B0C783E50E94CD
:10448000EF2F25968FAF259781110C94412B82E554
:104490000E94EF2F81110C94412BA0C780E50E9450
:1044A000EF2F811106C083E50E94EF2F882359F07A
:1044B00005C00E94532F811191C7F5CF0E94432F51
:1044C0006F3F710510F06FEF70E07093370B6093E2
:1044D000360B84C780E50E94EF2F811105C0109232
:1044E000370B1092360B7AC70E94432F672B09F0C7
:1044F00075C7F5CF1092350371C781E080933503FE
:104500006DC783E50E94EF2F882399F00E94732FD7
:1045100020E030E04AE754E40E945BE10E94B7E803
:10452000609318027093190280931A0290931B02F1
:1045300055C788E50E94A62F81110C94DA2C89E5D5
:104540000E94A62F81110C94DA2C8AE50E94A62FD6
:1045500081110C94DA2C85E40E94A62F81110C9411
:10456000DA2C0C94072D83E50E94A62F882309F4EA
:1045700035C70E94732F20E030E04AE754E40E94E0
:104580005BE10E94B7E86093B1097093B209809330
:10459000B3099093B40922C7F60181916F010E947B
:1045A000A62F882309F46EC0133009F063C00E945F
:1045B000732F4B015C0120E030E040EA51E40E949F
:1045C000F6E087FF4EC0A501940160911A11709129
:1045D0001B1180911C1190911D110E944AE82B0122
:1045E0003C019B01AC016091E20A7091E30A809169
:1045F000E40A9091E50A0E945BE16093E20A7093FD
:10460000E30A8093E40A9093E50AA3019201609182
:10461000120B7091130B8091140B9091150B0E944B
:104620005BE16093120B7093130B8093140B9093C8
:10463000150B6091F20A7091F30A8091F40A90913F
:10464000F50A0E94FAE0A30192010E945BE10E9438
:10465000B7E86093F20A7093F30A8093F40A909398
:10466000F50A80921A1190921B11A0921C11B0921F
:104670001D1108C00E94732FD7016D937D938D93F8
:104680009C9313971F5FB4E0EB0EF11C143009F0FC
:1046900083CF0E9453B5A2C60E946BB483E50E94EB
:1046A000EF2F882309F4D6C80E94432F623071058A
:1046B00009F0D0C80E9419CF8BE50E94803060912C
:1046C000DD197091DE198091DF199091E01942E0B7
:1046D0000E94693B4091E1195091E2196091E31900
:1046E0007091E41982E194E00E942FB24091E519A3
:1046F0005091E6196091E7197091E8198FE094E004
:104700000E942FB28DE50E9480308AE00E948030A6
:1047100065C684918F010F5F1F4F882321F00E948F
:104720008030F801F6CF60E084EE94E00E94FC3621
:1047300061E08DED94E00E94FC3661E082ED94E052
:104740000E94FC3661E082EC94E00E94FC3660E05E
:1047500089EB94E00E94FC3661E08FEA94E00E94CD
:10476000FC3660E085EA94E00E94FC3660E08DE96A
:1047700094E00E94FC3660E08FE894E00E94FC36F2
:1047800060E081E894E00E94FC3660E082E794E01B
:104790000E94FC3660E084E694E00E94FC3660E013
:1047A0008EE494E00E94FC3660E08DE394E00E9489
:1047B000FC3660E088E294E00E94FC3661E085E12E
:1047C00094E00E94FC360AC68091561990915719C0
:1047D000FC012081211103C00E94B5C2FFC560E029
:1047E0000E94148DFBC5009156191091571983E052
:1047F000D12C40E08150E9F0D8019C91292F2B7FEA
:104800002134C1F711962C912133A1F7913421F075
:10481000953421F441E002C0DD24D39498012E5F49
:104820003F4F89012F5F3F4FF80190819032C9F3CC
:10483000E1CF442369F0E6E0F8E284917F012FEFB5
:10484000E21AF20A882321F00E948030F701F5CFA6
:10485000DD2069F0ECEBF5E084917F013FEFE31A96
:10486000F30A882321F00E948030F701F5CFD801A8
:104870008D918D01882309F46CCB0E948030F7CF95
:104880000E94B29DABC581E080939C0380939B0303
:10489000A5C510929C0310929B03A0C583E50E94BE
:1048A000EF2F882319F00E94432F02C060E070E0D0
:1048B0008B01112702301105D4F0EEEEF5E2849160
:1048C0008F010F5F1F4F811103C0E0ECF5E004C0C2
:1048D0000E948030F801F3CF84918F010F5F1F4F4A
:1048E000882309F47BC50E948030F801F5CF88E465
:1048F0000E94EF2F8823A1F00E94432F6A3A71058E
:1049000034F0663F71052CF065EF70E002C06AEA92
:1049100070E0F801EE0FFF1FEF59F54F71836083D0
:1049200086E40E94EF2F8823A9F00E94432FF8010C
:10493000EE0FFF1FEB59F54F718360836F3F7105D9
:1049400019F014F06FEF70E077FF02C060E070E0E4
:104950007183608382E40E94EF2F882309F43EC5AF
:104960000E94432F6530710534F06F3671052CF0CD
:104970006EE670E002C065E070E0000F111FF80104
:10498000E35AF54F7183608329C588EC90E00E945B
:104990006F31811123C584E40E94A62F882309F476
:1049A00041C00E94732F6B017C0111E020E030E0D8
:1049B000A9010E94F6E0811101C010E010933D11A1
:1049C00020E030E0A901C701B6010E94F6E088238B
:1049D00049F10E94732FE0916B09B4E0EB9FF00165
:1049E0001124E75CFE4E608371838283938320E011
:1049F00030E0A9016091391170913A1180913B1119
:104A000090913C110E94F6E081110CC080E090E092
:104A1000A0EEBFE38093391190933A11A0933B111C
:104A2000B0933C110E9488B0D9C479E4E72E72E0BB
:104A3000F72E09E211E1E9E3CE2EE1E1DE2EF701E6
:104A400081917F010E94A62F882351F00E94732F2D
:104A50000E94B7E8D8016D937D938D939C93139733
:104A60000C5F1F4FC016D10651F70E94B2B3B6C4F7
:104A70000C5F1F4FBBE006311B0709F4AFC4F70101
:104A800081917F010E94A62F882391F30E94732FAA
:104A9000D8016D937D938D939C931397E9CF83E514
:104AA0000E94EF2F8823A1F00E94732F6093FE0ACB
:104AB0007093FF0A8093000B9093010B6093FA0AA6
:104AC0007093FB0A8093FC0A9093FD0A10E001C0EA
:104AD00011E080E50E94EF2F882359F00E94732F88
:104AE0006093FE0A7093FF0A8093000B9093010B72
:104AF00010E082E50E94EF2F882359F00E94732F67
:104B00006093020B7093030B8093040B9093050B3F
:104B100010E084E50E94EF2F882359F00E94732F44
:104B20006093FA0A7093FB0A8093FC0A9093FD0A43
:104B300055C4112309F452C44091FE0A5091FF0A52
:104B40006091000B7091010B88EE95E00E942FB2EE
:104B50004091020B5091030B6091040B7091050B77
:104B600085EE95E00E942FB24091FA0A5091FB0A1F
:104B70006091FC0A7091FD0A82EE95E00E942FB2CE
:104B80008AE00E9480302AC481E50E94A62F8823F3
:104B900051F00E94332F60931A0B70931B0B80937C
:104BA0001C0B90931D0B83E50E94A62F882351F0C8
:104BB0000E94732F6093320B7093330B8093340BEE
:104BC0009093350B84E50E94A62F882351F00E9414
:104BD000732F60932E0B70932F0B8093300B909359
:104BE000310B88E50E94A62F882351F00E94732F75
:104BF0006093D60A7093D70A8093D80A9093D90A03
:104C000089E50E94A62F882351F00E94732F60939C
:104C1000DA0A7093DB0A8093DC0A9093DD0A8AE556
:104C20000E94A62F882351F00E94732F6093DE0A02
:104C30007093DF0A8093E00A9093E10A85E40E9472
:104C4000A62F882309F4CAC30E94732F6093E20A37
:104C50007093E30A8093E40A9093E50ABFC349E4A2
:104C6000C42E42E0D42E5EEBE52E57E0F52E10E088
:104C7000F60181916F010E94A62F882351F00E94B6
:104C8000732FD7016D937D938D939C931397812FF1
:104C900098D71F5FB4E0EB0EF11C133049F70C946A
:104CA0002A1C84918F010F5F1F4F882321F00E94DF
:104CB0008030F801F6CF83E50E94A62F882321F0EB
:104CC0000E94642F80933402E0E2F6E084918F0129
:104CD0000F5F1F4F882321F00E948030F801F6CF2C
:104CE00080913402882319F0E8E1F6E002C0ECE19B
:104CF000F6E084918F010F5F1F4F811103C0E0E147
:104D0000F6E004C00E948030F801F3CF84918F0157
:104D10000F5F1F4F882321F00E948030F801F6CFEB
:104D20002091710A3091720A4091730A5091740A6D
:104D300060917D0A70917E0A80917F0A9091800A2D
:104D40000E946EE7AB01BC018EE096E00E942FB29C
:104D50002091750A3091760A4091770A5091780A2D
:104D60006091810A7091820A8091830A9091840AED
:104D70000E946EE7AB01BC018BE096E00E942FB26F
:104D80002091790A30917A0A40917B0A50917C0AED
:104D90006091850A7091860A8091870A9091880AAD
:104DA0000E946EE7AB01BC0188E096E00E942FB242
:104DB000E0E0F6E084918F010F5F1F4F882321F020
:104DC0000E948030F801F6CF2091710A3091720A6A
:104DD0004091730A5091740A6091280270912902DF
:104DE00080912A0290912B020E946EE7AB01BC01D8
:104DF0008EEF95E00E942FB22091750A3091760ACD
:104E00004091770A5091780A60912C0270912D029E
:104E100080912E0290912F020E946EE7AB01BC019F
:104E20008BEF95E00E942FB22091790A30917A0A97
:104E300040917B0A50917C0A60913002709131025E
:104E400080913202909133020E946EE7AB01BC0167
:104E500088EF95E00E942FB28AE00E948030BEC2A7
:104E600083E50E94EF2F882309F4B8C20E94432FE4
:104E70007093480260934702B1C28DED90E00E94AA
:104E80006F318111ABC283E50E94EF2F811103C006
:104E9000E6E0F8E23AC000916B0910E0F4D7000FA9
:104EA000111FF801EB5BFD4F7183608380916B09EB
:104EB00090E08C01000F111F000F111FF801E85C3A
:104EC000FD4F7F01880F991FFC01EB5BFD4F608157
:104ED0007181072E000C880B990B0E94FCE02AE0E0
:104EE00037ED43E25CE30E945BE1F801ED5DF64ED5
:104EF00020813181428153810E945BE1D7016D9312
:104F00007D938D939C93139769C284918F010F5F5A
:104F10001F4F882321F00E948030F801F6CF85E4EE
:104F20000E94803080916B09805D0E948030E0910A
:104F30006B09F0E0EE0FFF1FEB5BFD4F60817181AD
:104F400080E396E00E944CB285E20E9480308AE0C5
:104F50000E94803043C280E5F9D7882309F43EC21D
:104F600092D76B017C0183E50E94EF2F882319F013
:104F70008AD78B0102C00FEF1FEFC801019603977C
:104F800008F02CC2D7FC2AC28C2DE8E3F6E09491FD
:104F9000891709F43FC53196B6E0E936FB07B9F742
:104FA0003CC583E50E94EF2F882311F06CD702C027
:104FB00064E071E079A368A380E50E94EF2F882365
:104FC00031F061D76938E3E17E0730F402C068EE62
:104FD00073E07A83698304C088E893E19A838983C4
:104FE000BE01605E7F4FCE0101960E94A2AFF6C166
:104FF00085E4F5D781110EC080E5A8D7882381F01C
:1050000072D76093500A7093510A8093520A90931A
:10501000530A06C048D7882379F3EEEEF5E26DC057
:1050200089E494D7882379F05ED72CEA35EC47E2FF
:105030005EE30E945BE16093580A7093590A809383
:105040005A0A90935B0A84E481D7882379F04BD77E
:105050002CEA35EC47E25EE30E944AE86093540A8A
:105060007093550A8093560A9093570AE6E0F8E247
:1050700084918F010F5F1F4F882321F00E948030A1
:10508000F801F6CF4091500A5091510A6091520AAE
:105090007091530A81E796E00E942FB22CEA35EC1A
:1050A00047E25EE36091580A7091590A80915A0A6A
:1050B00090915B0A0E944AE8AB01BC018DE696E044
:1050C0000E942FB22CEA35EC47E25EE36091540A6D
:1050D0007091550A8091560A9091570A0E945BE19F
:1050E000AB01BC0189E696E00E942FB28AE00E94E3
:1050F000803074C10E948030F80184918F010F5F6D
:105100001F4F8111F7CFE5E7F6E084918F010F5F24
:105110001F4F882309F462C1F3D7F801F6CF83E566
:1051200015D7182F882369F0DED60E94B2E8709355
:105130003D0260933C0221E0672B09F020E02093C0
:10514000380B80E503D7882351F020913C02309141
:105150003D02232B09F0B8D68093380B3FC11111C3
:105160003DC1E6E0F8E284918F010F5F1F4F882375
:1051700019F0C6D7F801F7CF8091380B882319F0C2
:1051800067E073E002C06AE073E08CE996E00E9499
:1051900065B260913C0270913D028BE896E00E94FE
:1051A0004CB2E7E8F6E084918F010F5F1F4F882330
:1051B00009F414C1A5D7F801F6CF0E94C5310EC17C
:1051C00080E5C4D6882349F08ED66093D6157093B7
:1051D000D7158093D8159093D91589E4B7D688232D
:1051E00079F081D62CEA35EC47E25EE30E945BE180
:1051F0006093D2157093D3158093D4159093D515E1
:1052000084E4A4D6882379F06ED62CEA35EC47E204
:105210005EE30E944AE86093CE157093CF158093A9
:10522000D0159093D115E6E0F8E284918F010F5FDD
:105230001F4F882319F064D7F801F7CF4091D61596
:105240005091D7156091D8157091D91587EB96E0DC
:105250000E942FB22CEA35EC47E25EE36091D21552
:105260007091D3158091D4159091D5150E944AE87C
:10527000AB01BC0183EB96E00E942FB22CEA35EC27
:1052800047E25EE36091CE157091CF158091D01505
:105290009091D1150E945BE1AB01BC018FEA96E0D1
:1052A0000E942FB28AE02CD799C02AD7F8018491A6
:1052B0008F010F5F1F4F8111F8CFEBEBF6E0849168
:1052C0008F010F5F1F4F882309F488C019D7F80199
:1052D000F6CF0E94E49582C00E940FA37FC083E5B1
:1052E00035D6882311F0F0D581270E94DD9D76C048
:1052F00081E0809360110E944C901092601188238D
:1053000009F46CC0E6E0F8E284918F010F5F1F4F53
:10531000811103C0EAECF6E003C0F2D6F801F4CF45
:1053200084918F010F5F1F4F882309F457C0E8D67F
:10533000F801F6CF81E0809344021092D50A83E50C
:105340004ED6882331F0C0D5811148C00E9452CF7B
:1053500045C083E5FBD5F8CF0E946F753FC0F09044
:1053600058190E946BB4FF2001F1E6E0F8E2849145
:105370008F010F5F1F4F882319F0C2D6F801F7CFB6
:1053800084E5BED66F2D70E080E090E04AE03CD727
:1053900080E2B6D6E7EEF6E084918F010F5F1F4FF3
:1053A0008823E1F0ADD6F801F7CF10923E11E6E088
:1053B000F8E284918F010F5F1F4F882319F0A0D668
:1053C000F801F7CF60913E1170E085ED96E00E9404
:1053D0004CB28AE095D602C00E946F751092AC095B
:1053E0000E9435CF57C307D60E94ED55F7CF0E94D4
:1053F0006BB480910F0290911002A0911102B091B4
:1054000012028093390390933A03A0933B03B09325
:105410003C03809147029091480290933803809317
:10542000370384E690E0909348028093470211E0AE
:1054300010939C0388E58AD5282E89E587D5082F07
:105440008AE584D5382E211004C0011104C013252B
:1054500005C0011102C010E001C0132D80E1EFEC86
:10546000F7E0A6ECB9E001900D928A95E1F782E5AC
:10547000B6D5882361F037D56B017C0120E030E0A0
:10548000A9010E94F6E0882309F4A9C006C0C12C36
:10549000D12C70EAE72E70E4F72E111105C021100F
:1054A00003C0002309F4ACC0C092CE09D092CF094A
:1054B000E092D009F092D109A70196016091D70737
:1054C0007091D8078091D9079091DA070E94F6E091
:1054D00087FF85C02091D3073091D4074091D5072D
:1054E0005091D6072CA73DA74EA75FA74090CF07A6
:1054F0005090D0076090D1077090D20780910F0232
:1055000090911002A0911102B091120288AB99AB58
:10551000AAABBBABE3ECF6E185909590A590B49077
:1055200080920F0290921002A0921102B092120289
:10553000C092D707D092D807E092D907F092DA0745
:1055400014D385E595E5A5E0B3E480930F0290932D
:105550001002A0931102B09312024092CF07509212
:10556000D0076092D1077092D2072CA53DA54EA519
:105570005FA52093D3073093D4074093D50750936A
:10558000D607F3D2A70196016091D7077091D8078B
:105590008091D9079091DA070E9494E918168CF44B
:1055A00080920F0290921002A0921102B092120209
:1055B000C092D707D092D807E092D907F092DA07C5
:1055C000D4D20E946BB488A999A9AAA9BBA9809337
:1055D0000F0290931002A0931102B09312021111C6
:1055E00005C0211003C0011106C00AC080E00E945E
:1055F0006A4E1123C1F381E00E946A4E111102C06C
:10560000332019F082E00E946A4E4CD380919B03B4
:1056100080939C038091390390913A03A0913B03BE
:10562000B0913C0380930F0290931002A09311025B
:10563000B0931202809137039091380390934802FF
:105640008093470283E0809337020E942E37C6CEB4
:1056500011110C94321E0C942B1E0E9488520C9433
:10566000541E11D4AB01BC01409317195093181963
:105670006093191970931A1987E498E10E9437A36F
:10568000ADCE31D40E94B2E86D3771050CF08FC1F8
:105690007093A30A6093A20A0E9420B624D420E04B
:1056A00030E040EA50E40E9494E9181614F40E9495
:1056B0002EB86091A20A7091A30A072E000C880BE5
:1056C000990B0E94FCE020916D0930916E09409188
:1056D0006F09509170090E9494E918161CF48EEE1F
:1056E00093E002C08FED93E060E00E94D88C81E0EF
:1056F0008093130280913E1180936B0918AE19AE0E
:105700001AAE1BAE68961CAE1DAE1EAE1FAE6897DD
:105710001CAE29961FAE29978CE32D968FAF2D973F
:105720009CE169969FAF6997A6E46196AFAF6197D8
:10573000C12CD12C80E8E82E9FEBF92E412C512C66
:1057400032016091A20A7091A30A072E000C880B07
:10575000990B0E94FCE0162F072F8CA798AB96019F
:10576000A7010E94F6E0882311F120916D09309184
:105770006E0940916F09509170092596BFAD25972C
:10578000612F702F8CA598A9B11107C00E94F6E077
:10579000881F8827881F8CAF10C00E94F6E087FF03
:1057A0000BC080911302882309F418CE15C81C2D54
:1057B0000D2DECA6F8AA01C01CAE0E94C3CE6B0151
:1057C0007C01DC01CB0168962CAD3DAD4EAD5FADEB
:1057D0006897821B930BA40BB50BB7FD39C0D7019B
:1057E000C60188519C4FAF4FBF4F68968CAF9DAF9D
:1057F000AEAFBFAF68970E94F54BEBEDF3E084913D
:105800005F019FEFA91AB90A882319F079D4F5012D
:10581000F6CF4114510461047104B1F0D301C20107
:10582000805F984DAF4FBF4FBC01CD016C197D0912
:105830008E099F0928EE33E040E050E00E9432E7F5
:10584000CA01B90188D502C08FE35AD48AE058D47E
:105850000E9488520E94C3CE6093AD097093AE0936
:105860008093AF099093B00920906D0930906E0934
:10587000A0916F09ACABB09170092196BFAF219791
:105880009101AD01612F702F8CA598A90E946DE741
:105890004B015C0120E030E0A9010E9494E987FF00
:1058A00004C0B7FAB094B7F8B0944114510461043D
:1058B000710459F420E030E040E85FE3C501B40131
:1058C0000E94F6E087FF0DC00AC020E030E040E40F
:1058D00050E4C501B4010E9494E9181614F426019D
:1058E0003701ECADEE2309F446C028AD39AD4AAD21
:1058F0005BAD211531054105510541F0D701C601C8
:10590000821B930BA40BB50BB7FD35C091014CA9BD
:1059100021965FAD219729966FAD29972D967FAD82
:105920002D9769968FAD699761969FAD61970E949B
:105930006DE720E030E040EC5FE30E94F6E087FD99
:1059400030CFD701C601805A9541AF4FBF4F88AFC6
:1059500099AFAAAFBBAF29962FAE29972D963FAE30
:105960002D979CA969969FAF69972196AFAD219716
:105970006196AFAF619780911302882309F411CF2C
:10598000411451046104710429F4C12ED02EECA4F9
:10599000F8A8D7CEB0E1CB1AB7E2DB0AE108F108EC
:1059A000C418D508E608F708F7FEFBCEEECF6DE782
:1059B00070E06ECE0E946BB488E5C8D2882331F0C7
:1059C0005F9A80919D038E7F80939D0389E5BED26F
:1059D000882331F08A9A80919D038D7F80939D0367
:1059E0008AE5B4D2882361F08091080180958170A6
:1059F00080930601479A80919D038B7F80939D033E
:105A000085E4A4D2882309F4E9CC129AE7CC0E9459
:105A1000AAB5E4CC0E9419D1E1CC0E946BB4BC2C95
:105A200060E08C2D0E9488CD0F3FFFEF1F0759F4D7
:105A30008C2D0E9432CD31E020E0892B09F030E03E
:105A4000032F122F05C00130110561F401E010E0B1
:105A50008B2D0E9432CD8017910709F4BFCC0E9494
:105A60008852F6CF00E010E0F3CF61E0812F0E9472
:105A700088CD6E2D812F0E945ACDF12CB701812F38
:105A80000E94C4CD193009F0A9CCF092370BE092F6
:105A9000360BA4CCC15ADF4F0FB6F894DEBF0FBE51
:105AA000CDBFDF91CF911F910F91FF90EF90DF90CD
:105AB000CF90BF90AF909F908F907F906F905F90AE
:105AC0004F903F902F900895089580E090E00895C2
:105AD0000F931F93CF93DF93EC010E94C3CE0E81EF
