:100000000C943B150C946C150C946C150C946C159D
:100010000C946C150C946C150C946C150C946C155C
:100020000C946C150C946C150C946C150C946C154C
:100030000C946C150C946C150C946C150C946C153C
:100040000C946C150C9407C00C946C150C946C15E6
:100050000C946C150C946C150C94FB420C94F8DF0A
:100060000C946C150C942E370C946C150C946C1528
:100070000C946C150C946C150C946C150C946C15FC
:100080000C946C150C946C150C946C150C946C15EC
:100090000C946C150C946C150C946C150C946C15DC
:1000A0000C946C150C946C150C946C150C946C15CC
:1000B0000C946C150C946C150C946C150C946C15BC
:1000C0000C946C150C946C150C946C150C946C15AC
:1000D0000C946C150C946C150C946C150C946C159C
:1000E0000C946C1560BC63BC52BC56BC5CBC9ABC26
:1000F00067BC6BBC71BC75BC79BC7FBC83BC87BC66
:100100009ABC8DBC91BC95BC2DBF32BF37BF41BFDF
:100110004BBFC4BF55BF5DBF65BF6FBF79BF83BF56
:1001200092BF9CBFC4BFA6BFB0BFBABF084AD73BEF
:100130003BCE016E84BCBFFDC12F3D6C74319ABDB6
:1001400056833DDA3D00C77F11BED9E4BB4C3E91DA
:100150006BAAAABE000000803F05A84CCDB2D44EC9
:10016000B93836A9020C50B9918688083CA6AAAACB
:100170002ABE000000803F004E414E494E4954596E
:10018000494E46CDCCCC3D0AD7233C17B7D1387762
:10019000CC2B329595E6241FB14F0A000020410078
:1001A00000C84200401C4620BCBE4CCA1B0E5AAEC2
:1001B000C59D7400407A10F35A00A0724E180900D1
:1001C00010A5D4E80000E87648170000E40B5402BC
:1001D0000000CA9A3B000000E1F5050000809698F7
:1001E00000000040420F000000A086010000001047
:1001F0002700000000E80300000000640000000089
:10020000000A00000000000100000000002C76D869
:1002100088DC674F0823DFC1DFAE59E1B1B796E54F
:10022000E3E453C63AE651997696E8E6C28426EBB3
:10023000898C9B62ED407C6FFCEFBC9C9F40F2BAC6
:10024000A56FA5F490055A2AF75C936B6CF9676D5E
:10025000C11BFCE0E40D47FEF520E6B500D0ED90B3
:100260002E0300943577050080841E080000204E80
:100270000A000000C80C333333330F986E12831119
:1002800041EF8D2114893BE65516CFFEE6DB18D1F0
:10029000844B381BF77C1D901DA4BBE424203284C2
:1002A000725E228100C9F124ECA1E53D27434F4D48
:1002B0004D554E49434154494F4E004452595255B1
:1002C0004E004552524F525300494E464F0045434F
:1002D000484F0047322F47332062616420706172BB
:1002E000616D65746572730A00536C6565702E2EBE
:1002F0002E00206F6620004D424C2047323920707E
:100300006F696E74200059206F7574206F662072BB
:10031000616E67652028312D35292E0A0058206F1F
:100320007574206F662072616E67652028312D35E7
:10033000292E0A004D6573682070726F62696E67BE
:1003400020646F6E652E0A005374617274206D65AF
:1003500073682070726F62696E67207769746820B5
:1003600022473239205331222066697273742E0A73
:10037000004732380A4732392053320053746174CF
:10038000653A20004D65736820626564206C65766F
:10039000656C696E6720686173206E6F206461749C
:1003A000612E0A0053206F7574206F662072616E93
:1003B00067652028302D35292E0A004D6573682089
:1003C000706F696E742063616E6E6F742062652059
:1003D0007265736F6C7665640A00436C69636B20A9
:1003E000746F20726573756D652E2E2E004E6F2012
:1003F0006D6F76652E00456E642066696C65206CB5
:100400006973740A00426567696E2066696C6520CD
:100410006C6973740A00286E6F2066696C65290028
:100420005344207072696E74696E672062797465D6
:1004300020004E6F74205344207072696E74696E90
:10044000670A0043757272656E742066696C653A5E
:1004500020002569730025696D20256973002569D1
:10046000682025696D202569730025696420256948
:10047000682025696D202569730025697920256923
:1004800064202569682025696D20256973005072F4
:10049000696E742074696D653A2000CE02C902C28B
:1004A00002BB02AD026F66660044454255473A0002
:1004B0004B494C4C45442E20006F6B00416E7963D4
:1004C000756269632069332B204F66662E002C20ED
:1004D000002C2000544845524D414C5F50524F541F
:1004E000454354494F4E004155544F5245504F5289
:1004F000545F53445F53544154555300454D455246
:1005000047454E43595F5041525345520043415372
:10051000455F4C494748545F4252494748544E450D
:10052000535300544F47474C455F4C494748545339
:1005300000534F4654574152455F504F5745520064
:100540004255494C445F50455243454E54004C453A
:1005500056454C494E475F44415441005A5F505202
:100560004F4245004155544F4C4556454C00505262
:10057000494E545F4A4F420050524F4752455353E1
:10058000004155544F5245504F52545F54454D50C1
:1005900000564F4C554D4554524943004545505225
:1005A0004F4D0053455249414C5F584F4E5F584F95
:1005B0004646004649524D574152455F4E414D45D2
:1005C0003A4D61726C696E20312E312E39202847E8
:1005D00069746875622920534F555243455F434FF4
:1005E00044455F55524C3A68747470733A2F2F67C4
:1005F00069746875622E636F6D2F4D61726C696EE0
:100600004669726D776172652F4D61726C696E20FB
:1006100050524F544F434F4C5F56455253494F4EE3
:100620003A312E30204D414348494E455F54595090
:10063000453A416E7963756269632069332B2045C1
:10064000585452554445525F434F554E543A312009
:10065000555549443A63656465326132662D3431DB
:1006600061322D343734382D396231322D633535CE
:100670006336326633363766660A002F2F20004D08
:1006800031343520533C696E6465783E206F757453
:10069000206F662072616E67652028302D31290A2F
:1006A00000205400205200416363656C65726174E0
:1006B000696F6E3A2050005741524E494E472120F3
:1006C0004C6F77205A204A65726B206D6179206CDF
:1006D00065616420746F20756E77616E7465642047
:1006E0007061757365732E0A0020466C6F773A202F
:1006F00000000136372603FFFFFF353C3D380EFF73
:10070000FFFF312E303E12FFFFFFFF28FF0C0809CC
:10071000FFFF071A1C18FFFF2A08440AFF43242280
:100720001E2C20643A0020693A0020703A00496E7D
:1007300076616C69642065787472756465720A000C
:1007400043290A0061626C656420286D696E20741B
:10075000656D702000436F6C6420657874727564F9
:1007600065732061726520004E6F206361736520A0
:100770006C696768740A00454550524F4D204F4BD5
:100780000A00416374697665204578747275646502
:10079000723A2000496E76616C69642065787472E3
:1007A000756465720A00656E7175657565696E6759
:1007B00020220020496E76616C696420657874722D
:1007C0007564657220000000000000000000000059
:1007D000000000005C4300005C4300007A43486F67
:1007E0006D696E67206661696C656400206E6F7468
:1007F00020656E74657265642E0A0050726F7465B0
:10080000637465642050696E0A0020573A004520E1
:10081000436F6F6C696E672E2E2E00452048656110
:1008200074696E672E2E2E0020573A0042656420B0
:10083000636F6F6C696E672E2E2E004265642068B0
:10084000656174696E672E2E2E00000000000102A3
:1008500004040000001C1C0C04040402010000003D
:10086000000004081000000000002D2D2D2D2D2D5E
:10087000007C4D61726C696E7C002D2D2D2D2D2D0F
:1008800000687474703A2F2F6D61726C696E6677B0
:100890002E6F726700687474703A2F2F6D61726CDE
:1008A000696E66772E6F72670020312E312E390007
:1008B000494E56414C49442044415441004D323444
:1008C0002053256C642054256C64004D3233202560
:1008D00073004739322E30205A2573204525730086
:1008E0004D34323020532569205A25730047323861
:1008F00020523020582059004731205A32004739C1
:10090000322E30205A30004D343230205330205AAD
:1009100030002020506C616E6E65724275666665AF
:100920007242797465733A20002046726565204DE5
:10093000656D6F72793A2000436F6D70696C656404
:100940003A204A616E20323120323031390A00209B
:100950007C20417574686F723A20546F62696173CC
:100960002052656974686D656965720A00323031BC
:10097000382D30382D303100204C61737420557083
:1009800064617465643A2000312E312E390A004DBD
:1009900061726C696E0020536F66747761726520B6
:1009A00052657365740A00205761746368646F67E9
:1009B0002052657365740A002042726F776E206F53
:1009C00075742052657365740A00204578746572E9
:1009D0006E616C2052657365740A00506F776572A2
:1009E00055700A0073746172740A006175746F2522
:1009F000692E67006572726F722077726974696E12
:100A00006720746F2066696C650A005772697469A3
:100A10006E6720746F2066696C653A2000456E64CD
:100A200073746F7073202563202563202563202550
:100A30006300205A3A0020593A0020583A00656E67
:100A40006473746F7073206869743A2000446F6E29
:100A50006520736176696E672066696C652E0A0091
:100A60004D32390024F4D43050C38E20C2A2401736
:100A7000828B7011127A910D816CD90AA861E108FC
:100A8000C7586607615143061E4B5D05C145A70463
:100A90001A411104093D9803713931034036DB02D4
:100AA00065339102D4305402802E1D02632CEE0176
:100AB000752AC501B028A001102781018F25640186
:100AC0002B244B01E0223401AC211F018D200D01AC
:100AD000801FFC00841EED00971DDF00B81CD200B3
:100AE000E61BC600201BBC00641AB200B219A800A5
:100AF0000A19A0006A189900D117910040178B00BD
:100B0000B516840031167E00B31579003A157300CE
:100B1000C7146F0058146A00EE1366008813630050
:100B200025135E00C7125B006C12570015125400AB
:100B3000C111510070114F0021114B00D610490016
:100B40008D1047004610440002104200C00F4000C4
:100B5000800F3E00420F3C00060F3B00CB0E3800DA
:100B6000930E37005C0E3500270E3400F30D320073
:100B7000C10D3100900D3000600D2E00320D2D00A2
:100B8000050D2C00D90C2B00AE0C2900850C29007A
:100B90005C0C2700350C27000E0C2600E80B240007
:100BA000C40B2400A00B23007D0B23005A0B210053
:100BB000390B2100180B2000F80A1F00D90A1E006B
:100BC000BB0A1E009D0A1D00800A1D00630A1C004E
:100BD000470A1B002C0A1B00110A1A00F7091A0009
:100BE000DD091900C4091900AB09190092091700A1
:100BF0007B091800630917004C0916003609160016
:100C0000200916000A091500F5081500E00814006F
:100C1000CC081400B8081400A408140090081300AD
:100C20007D0812006B0813005808120046081200D5
:100C300034081100230811001208110001081100E6
:100C4000F0071000E0071000D0071000C0071000E8
:100C5000B0070F00A107100091070E0083070F00D7
:100C600074070F0065070E0057070E0049070E00B6
:100C70003B070D002E070E0020070D0013070D0087
:100C800006070D00F9060C00ED060D00E0060C004D
:100C9000D4060C00C8060C00BC060C00B0060C0004
:100CA000A4060B0099060C008D060B0082060B00B3
:100CB00077060B006C060B0061060A0057060B0056
:100CC0004C060A0042060A0038060A002E060A00F0
:100CD00024060A001A060A001006090007060A0080
:100CE000FD050900F4050900EB050900E20509000E
:100CF000D9050900D0050900C7050900BE0509008E
:100D0000B5050800AD050800A50509009C0508000B
:100D1000940508008C050800840508007C0508007F
:100D2000740508006C050700650508005D050700EF
:100D3000560508004E050700470507004005080056
:100D400038050700310507002A05070023050700BD
:100D50001C050600160507000F050700080506001C
:100D600002050700FB040600F5040700EE04060078
:100D7000E8040600E2040700DB040600D5040600D0
:100D8000CF040600C9040600C3040600BD04060023
:100D9000B7040600B1040500AC040600A604060072
:100DA000A00405009B0406009504050090040600BD
:100DB0008A04050085040500800406007A04050005
:100DC00075040500700405006B0405006604050049
:100DD000610405005C040500570405005204050089
:100DE0004D04050048040500430405003E040400CA
:100DF0003A04050035040500300404002C04050005
:100E000027040400230405001E0404001A0404003F
:100E100016040500110404000D0404000904050073
:100E20000404040000040400FC030400F8030400AC
:100E3000F4030400F0030400EC030400E8030400DE
:100E4000E4030400E0030400DC030400D80304000E
:100E5000D4030400D0030400CC030400C80303003F
:100E6000C503030024F404D9201BC40C5C0E9804B1
:100E7000C4095F0265077101F405F900FB04B300C2
:100E800048048700C1036900580355000303450067
:100E9000BE023A008402310053022A0029022500D2
:100EA00004022000E4011C00C8011900AF01170072
:100EB00098011400840113007101100061011000F9
:100EC00051010E0043010D0036010B002B010B00F8
:100ED00020010B00150109000C01090003010800A5
:100EE000FB000800F3000800EB000700E400060028
:100EF000DE000600D8000600D2000600CC00050087
:100F0000C7000500C2000500BD000400B9000400D0
:100F1000B5000400B1000400AD000400A900040005
:100F2000A5000300A20003009F0004009B00030033
:100F30009800030095000200930003009000030056
:100F40008D0002008B000300880002008600020072
:100F500084000300810002007F0002007D00020087
:100F60007B00020079000200770001007600020099
:100F70007400020072000100710002006F000200A4
:100F80006D0001006C0002006A00010069000200AF
:100F900067000100660001006500010064000200B6
:100FA0006200010061000100600001005F000200BA
:100FB0005D0001005C0001005B0001005A000100BF
:100FC00059000100580001005700010056000100BF
:100FD00055000100540001005300000053000100BF
:100FE0005200010051000100500001004F000100BB
:100FF0004E0000004E0001004D0001004C000100B9
:101000004B0000004B0001004A00010049000100B4
:1010100048000000480001004700010046000000B1
:1010200046000100450000004500010044000100A9
:1010300043000000430001004200000042000100A4
:101040004100000041000100400001003F0000009D
:101050003F0001003E0000003E0001003D00000096
:101060003D0001003C0000003C0000003C0001008D
:101070003B0000003B0001003A0000003A00010084
:10108000390000003900010038000000380000007D
:101090003800010037000000370001003600000072
:1010A0003600000036000100350000003500000069
:1010B000350001003400000034000000340001005D
:1010C0003300000033000000330001003200000054
:1010D0003200000032000100310000003100000049
:1010E000310001003000000030000000300001003D
:1010F0002F0000002F0000002F0000002F00010033
:101100002E0000002E0000002E0001002D00000027
:101110002D0000002D0000002D0001002C0000001B
:101120002C0000002C0000002C0001002B0000000F
:101130002B0000002B0000002B0001002A00000003
:101140002A0000002A0000002A00010029000000F7
:1011500029000000290000002900000029000100EA
:1011600028000000280000002800000028000000DF
:1011700028000100270000002700000027000000D1
:1011800027000000270001002600000026000000C4
:1011900026000000260000002600010025000000B7
:1011A00025000000250000002500000025000000AB
:1011B000250001002400000024000000240000009D
:1011C0002400000024000100230000002300000090
:1011D0002300000023000000230000002300000083
:1011E0002300010022000000220000002200000075
:1011F0002200000022000000220001002100000067
:10120000210000002100000021000000210000005A
:10121000210000002100010020000000200000004B
:10122000200000002000000020000000200000003E
:1012300020000000200001001F0000001F0000002F
:101240001F0000001F0000001F0000001F00000022
:101250001F0001001E0000001E0000001E00000014
:101260001E000000393000003325000087190000FF
:10127000B00F0000DB080000BD0400007402000095
:101280003F0100006265640A002C20737973746565
:101290006D2073746F70706564212048656174659A
:1012A000725F49443A200042656420686561746950
:1012B0006E67206661696C65640048656174696E7B
:1012C00067206661696C656400453120486561741A
:1012D000696E67206661696C656400486561746960
:1012E0006E67206661696C65640070012C01900175
:1012F0002701B0012201C0011D01F00118011002F7
:10130000130130020E016002090190020401C002C3
:10131000FF000003FA004003F5008003F000D00353
:10132000EB002004E6007004E100E004DC0040056E
:10133000D700C005D2004006CD00D006C800800707
:10134000C3003008BE00F008B900C009B400B00AFC
:10135000AF00B00BAA00D00CA500000EA000500FEB
:101360009B00C01096005012910000148C00C01514
:101370008700B0178200B0197D00D01B7800001ED6
:10138000730040206E0090226900F0246400402722
:101390005F0090295A00E02B5500102E500020309D
:1013A0004B0010324600E033410090353C001037CE
:1013B000370070383200A0392D00B03A2800A03B29
:1013C0002300603C1E00103D1900903D1400103EAB
:1013D0000F00703E0A00C03E0500003F0000403F85
:1013E000FBFF803FF6FFC03FF1FF453120544845E9
:1013F000524D414C2052554E4157415900424544AF
:1014000020544845524D414C2052554E4157415968
:1014100000546865726D616C2052756E61776179F8
:10142000004531204572723A204D415854454D5087
:10143000004572723A204D415854454D5020424566
:1014400044004D415854454D50207472696767659A
:10145000726564004531204572723A204D494E5400
:10146000454D50004572723A204D494E54454D50FD
:1014700020424544004D494E54454D5020747269F8
:10148000676765726564004D383420582059205ACA
:10149000204500202F002042403A0020403A0025FD
:1014A000753A2530327500253032753A253032755F
:1014B000002D2D2D0053440020202020202000202E
:1014C00020202000416E7963756269632069332BA7
:1014D0002052656164792E005072696E74696E677E
:1014E0002E2E2E005072696E7420706175736564C3
:1014F000004D3130362050256920532569004D318B
:10150000303920532569004D313930205325690089
:101510004D3432302053300A473238205230205870
:1015200020590053746F70207072696E7400526598
:1015300073756D65207072696E7400506F77657297
:101540002D4C6F7373205265636F7665727900500E
:1015500072696E742061626F72746564004E6F20F0
:1015600053442063617264005072696E7420667225
:101570006F6D2053440053746F70207072696E74E5
:1015800000526573756D65207072696E74004162FA
:101590006F7574205072696E746572005061757356
:1015A00065207072696E7400436F6E74726F6C00A8
:1015B000507265706172650054756E6500496E66A3
:1015C0006F2073637265656E0020746F6F206C6F9F
:1015D0006E6720657874727573696F6E20707265BE
:1015E00076656E7465640A0020636F6C64206578AC
:1015F00074727573696F6E2070726576656E74654E
:10160000640A004C6576656C696E6720446F6E6590
:1016100021004D6F7665205A004732392053320041
:101620004E65787420506F696E74002569202F20F4
:101630002575004732392053310047323920533263
:1016400000436C69636B20746F20426567696E00AC
:10165000486F6D696E672058595A004732380053F9
:10166000746F72652073657474696E6773004C6F74
:1016700061642073657474696E6773004C65766588
:101680006C20636F726E65727300426564205A004D
:10169000426564205A004661646520486569676850
:1016A0007400466164652048656967687400466136
:1016B000646520486569676874004F6666004F6E10
:1016C0002000426564204C6576656C696E67004C4D
:1016D0006576656C20626564005072657061726544
:1016E000004D343238005072656865617420504C8A
:1016F0004100436F6F6C646F776E00507265686570
:101700006174204142530044697361626C652073C7
:1017100074657070657273004D38340053657420C1
:10172000686F6D65206F66667365747300426564EB
:10173000204C6576656C696E67004175746F206832
:101740006F6D6500473238004D6F766520617869AE
:1017500073004D61696E004D6F76652058004D6FC6
:1017600076652059004D6F7665205A004578747271
:1017700075646572004D6F766520302E316D6D0099
:101780004D6F766520316D6D004D6F76652031307F
:101790006D6D004D6F7665206178697300457874D2
:1017A0007275646572004D6F7665205A004D6F76D4
:1017B000652059004D6F76652058000000484200B2
:1017C0000048420000804000000000534420636154
:1017D0007264206F6B0A006F70656E526F6F7420B9
:1017E0006661696C65640A00766F6C756D652E695B
:1017F0006E6974206661696C65640A0053442069EF
:101800006E6974206661696C0A0046696C652064C3
:10181000656C657465643A0044656C6574696F6EE7
:10182000206661696C65642C2046696C653A20000D
:1018300057726974696E6720746F2066696C653AC7
:1018400020006F70656E206661696C65642C2046AF
:10185000696C653A20006F70656E206661696C6521
:10186000642C2046696C653A200046696C652073DB
:10187000656C65637465640A002053697A653A2073
:101880000046696C65206F70656E65643A200020C3
:1018900066696C653A2000646F696E670066726500
:1018A0007368004E6F772000454E442053554252D6
:1018B0004F5554494E450A002220706F7300222074
:1018C000706172656E743A2200535542524F5554FE
:1018D000494E452043414C4C207461726765743A0F
:1018E00022004B494C4C45442E2000747279696E9D
:1018F0006720746F2063616C6C207375622D676361
:101900006F64652066696C657320776974682074FC
:101910006F6F206D616E79206C6576656C732E201B
:101920004D4158206C6576656C2069733A004572AC
:10193000726F723A00001C1F11111F00000006197F
:101940001803130C00040E1F041C000000000E13EB
:1019500015110E00001C10181705060500040A0AD0
:101960000A0A11110E0C12120C00000000001F15C3
:1019700011151F0000205A3A0020593A0020436FE9
:10198000756E7420583A0020453A00205A3A0020DB
:10199000593A00583A003A004361703A00205A0020
:1019A000205900580020204D61783A2000205A002C
:1019B000205900580020204D696E3A20004F6E20BB
:1019C000004F666600536F667420656E6473746FB3
:1019D00070733A200023646566696E65204445464D
:1019E00041554C545F4B64200023646566696E6505
:1019F0002044454641554C545F4B692000236465A3
:101A000066696E652044454641554C545F4B7020D5
:101A100000504944204175746F74756E6520666985
:101A20006E69736865642120507574207468652040
:101A30006C617374204B702C204B6920616E6420A4
:101A40004B6420636F6E7374616E74732066726F83
:101A50006D2062656C6F7720696E746F20436F6EC6
:101A600066696775726174696F6E2E680A00504905
:101A700044204175746F74756E65206661696C658C
:101A800064212074696D656F75740A0045312054B6
:101A90004845524D414C2052554E415741590054F2
:101AA0006865726D616C2052756E61776179004571
:101AB000312048656174696E67206661696C656490
:101AC0000048656174696E67206661696C656400D1
:101AD000504944204175746F74756E652066616964
:101AE0006C6564212054656D7065726174757265F2
:101AF00020746F6F20686967680A00204B643A2081
:101B000000204B693A2000204B703A20000A204305
:101B10006C617373696320504944200A0020547536
:101B20003A2000204B753A2000206D61783A200061
:101B3000206D696E3A200020643A200020626961BD
:101B4000733A2000504944204175746F74756E6576
:101B5000206661696C656421204261642065787447
:101B60007275646572206E756D6265720A00504907
:101B700044204175746F74756E652073746172745E
:101B80000A004F66660A0046616465204865696719
:101B900068742000426564204C6576656C696E67E8
:101BA00020004661696C656420746F20656E616217
:101BB0006C6520426564204C6576656C696E670AC9
:101BC000004D65736820426564204C6576656C2025
:101BD000646174613A0A004D65736820706F696EC4
:101BE000742063616E6E6F74206265207265736F1E
:101BF0006C7665640A004D34323120696E636F7211
:101C00007265637420706172616D657465722075B0
:101C1000736167650A00486F6D652025732573251C
:101C200073206669727374002066697273740A00A7
:101C30005A0059005800486F6D6520004F66667362
:101C4000657473206170706C696564004572723AE6
:101C500020546F6F206661722100546F6F2066619F
:101C6000722066726F6D207265666572656E63655F
:101C700020706F696E740A004578747275646572BD
:101C8000004D6F7665205A004D6F76652059004DE6
:101C90006F76652058005072657061726500496EFC
:101CA000697469616C697A6520454550524F4D00F1
:101CB000436F6E74726F6C00526573746F7265203F
:101CC0006661696C73616665004C6F616420736561
:101CD0007474696E677300496E697469616C697ABE
:101CE0006520454550524F4D0053746F7265207307
:101CF000657474696E67730046696C616D656E74B6
:101D0000004D6F74696F6E0054656D70657261741B
:101D1000757265004D61696E005072656865617429
:101D20002041425320636F6E6600507265686561A2
:101D30007420504C4120636F6E66005049442D441E
:101D4000005049442D44005049442D490050494415
:101D50002D49005049442D50005049442D50002039
:101D600002204661637400200220466163740020F3
:101D700002204D6178002002204D61780020022071
:101D80004D6178002002204D696E002002204D69CF
:101D90006E002002204D696E004F6666004F6E2077
:101DA000004175746F74656D700046616E207370CC
:101DB0006565640046616E20737065656400466108
:101DC0006E2073706565640042656400426564005E
:101DD000426564004E6F7A7A6C65004E6F7A7A6C59
:101DE00065004E6F7A7A6C6500436F6E74726F6C2B
:101DF0000053746F72652073657474696E67730045
:101E00004265640042656400426564004E6F7A7A00
:101E10006C65004E6F7A7A6C65004E6F7A7A6C65ED
:101E20000046616E2073706565640046616E2073C4
:101E3000706565640046616E20737065656400546A
:101E4000656D7065726174757265007C3C3E5E2BD9
:101E50003D3F2F5B5D3B2C2A225C00454550524F95
:101E60004D206461746173697A65206572726F7266
:101E70002E0A002053697A653A2000496E6465781D
:101E80003A2000B80B0000B80B0000320000001030
:101E900027000000009643000096430000C0400069
:101EA00000C8410000A0420000A0420000C8433327
:101EB00033B94256652D6A65726B0056652D6A65A9
:101EC000726B0056652D6A65726B00567A2D6A65D5
:101ED000726B00567A2D6A65726B0056792D6A65B1
:101EE000726B0056792D6A65726B0056792D6A65A2
:101EF000726B0056782D6A65726B0056782D6A6594
:101F0000726B0056782D6A65726B004D6F74696F45
:101F10006E004573746570732F6D6D004573746545
:101F200070732F6D6D005A73746570732F6D6D0033
:101F30005A73746570732F6D6D0059737465707387
:101F40002F6D6D005973746570732F6D6D0058732C
:101F5000746570732F6D6D005873746570732F6D99
:101F60006D004D6F74696F6E0053746570732F6DE3
:101F70006D004A65726B00416363656C65726174E4
:101F8000696F6E0056656C6F6369747900436F6E9C
:101F900074726F6C0046696C2E204469612E004695
:101FA000696C2E204469612E004F6666004F6E20DA
:101FB000004520696E206D6D3300436F6E74726F43
:101FC0006C0043616E6E6F7420656E746572207371
:101FD00075626469723A2000052E2E004D61696EAB
:101FE000004B494C4C45442E20004B494C4C20633F
:101FF0006175736564206279204B494C4C20627591
:1020000074746F6E2F70696E0A004B494C4C4544D6
:102010002E20004B494C4C2063617573656420622F
:102020007920746F6F206D75636820696E616374C9
:102030006976652074696D65202D206375727265FF
:102040006E7420636F6D6D616E643A2000506C6534
:10205000617365207265736574005052494E544532
:10206000522048414C544544005072696E74657268
:102070002068616C7465642E206B696C6C28292063
:1020800063616C6C6564210A0000000000000000C0
:1020900000000000005761726E696E673A20486F59
:1020A0006D696E672042756D702044697669736F43
:1020B00072203C20310A000202030000A040000010
:1020C000A0400000004000005C4300005C430000B2
:1020D0007A43FFFFFF4D3331005344207265616442
:1020E000206572726F720A00446F6E6520707269AB
:1020F0006E74696E672066696C650A004B494C4CCA
:1021000045442E200053544F505045442E2000503B
:1021100072696E7465722073746F70706564206488
:10212000756520746F206572726F72732E20466918
:102130007820746865206572726F7220616E642009
:10214000757365204D39393920746F207265737449
:102150006172742E202854656D7065726174757299
:10216000652069732072657365742E205365742031
:10217000697420616674657220726573746172742B
:10218000696E67290A004E6F20436865636B73753B
:102190006D2077697468206C696E65206E756D625C
:1021A00065722C204C617374204C696E653A200076
:1021B0004E6F20436865636B73756D207769746833
:1021C000206C696E65206E756D6265722C204C61A5
:1021D0007374204C696E653A2000636865636B73A5
:1021E000756D206D69736D617463682C204C61732B
:1021F00074204C696E653A20004C696E65204E75FE
:102200006D626572206973206E6F74204C61737407
:10221000204C696E65204E756D6265722B312C20E5
:102220004C617374204C696E653A20004D31313039
:1022300000436172642072656D6F7665640043616E
:10224000726420696E736572746564004D617820F4
:1022500054656D703A20313130004D696E205465FF
:102260006D703A203500544265643A4550434F53EF
:10227000203130304B004D61782054656D703A202C
:10228000323630004D696E2054656D703A2035004D
:1022900054303A204550434F53203130304B00509A
:1022A00053553A2047656E657269630050726F74CA
:1022B0006F636F6C3A20312E3000426175643A20B2
:1022C0003235303030300052414D505320312E33B2
:1022D000004D657368204C6576656C696E670045D6
:1022E00078747275646572733A2031006874747022
:1022F0003A2F2F6D61726C696E66772E6F72670070
:10230000416E7963756269632069332B0032303125
:10231000382D30382D303100312E312E39004D61BD
:10232000726C696E00546865726D6973746F727354
:1023300000426F61726420496E666F005072696E70
:1023400074657220496E666F004D61696E0042616E
:10235000627973746570205A0042616279737465A2
:1023600070205A00466C6F7700466C6F7700466CA1
:102370006F770046616E2073706565640046616E1C
:102380002073706565640046616E207370656564D6
:10239000004265640042656400426564004E6F7AE5
:1023A0007A6C65004E6F7A7A6C65004E6F7A7A6C43
:1023B0006500466164652048656967687400466128
:1023C00064652048656967687400466164652048F3
:1023D000656967687400426564205A00426564203C
:1023E0005A005370656564005370656564005370EE
:1023F000656564004D61696E005072656865617461
:1024000020504C4120456E640050726568656174CF
:1024100020504C41204265640050726568656174CB
:1024200020504C41005072657061726500507265B9
:10243000686561742041425320456E6400507265A6
:1024400068656174204142532042656400507265A2
:102450006865617420414253005072657061726515
:10246000004261636B004E65787420636F726E6525
:10247000720000002100240027002A002D003000F7
:10248000330001010000040107010A0100002200DD
:10249000250028002B002E0031003400020100002E
:1024A000050108010B01000020002300260029007F
:1024B0002C002F0032000001000003010601090179
:1024C00005050505070508080808020202020A0AB0
:1024D00008080404040401010101010101010303CE
:1024E000030303030303040707070C0C0C0C0C0C79
:1024F0000C0C0202020206060606060606060B0B76
:102500000B0B0B0B0B0B01021020200808102040B6
:1025100010204080020102010804020101020408A7
:102520001020408080402010080402018004020135
:10253000804020100804020108040201010204087E
:1025400010204080010204081020408000000A0B87
:1025500002090C0D0E080703040100000000000032
:10256000000000000000000000000000000000006B
:102570000000000000000000121110000000000028
:10258000000000000000000000000000000000004B
:1025900000004D3234004D323320257300556E6BF0
:1025A0006E6F776E20636F6D6D616E643A202200EE
:1025B000FFFDFCFAF8F6F4F2F0EEECEAE9E7E5E309
:1025C000E1E0DEDCDAD9D7D5D4D2D0CFCDCBCAC8C2
:1025D000C7C5C3C2C0BFBDBCBAB9B7B6B4B3B2B049
:1025E000AFADACAAA9A8A6A5A4A2A1A09E9D9C9AA5
:1025F00099989795949392908F8E8D8B8A898887DE
:102600008684838281807F7E7D7B7A7978777675F8
:1026100074737271706F6E6D6C6B6A6968676665F2
:1026200064636261605F5E5D5C5B5A5958585756DF
:10263000555453525150504F4E4D4C4B4A4A4948B5
:10264000474646454443424241403F3E3E3D3C3B77
:102650003B3A393838373635353433323231303029
:102660002F2E2E2D2C2B2B2A2929282727262525CE
:1026700024232322212120201F1E1E1D1C1C1B1B66
:102680001A191918181716161515141313121211F2
:1026900011100F0F0E0E0D0D0C0C0B0A0A09090874
:1026A00008070706060505040403030202010000EB
:1026B0005654726176206D696E00565472617620B0
:1026C0006D696E005654726176206D696E00566DAC
:1026D000696E00566D696E00566D696E00566D61CB
:1026E00078204500566D6178204500566D61782050
:1026F0004500566D6178205A00566D6178205A0069
:10270000566D6178205A00566D6178205900566DDB
:102710006178205900566D6178205900566D6178B6
:10272000205800566D6178205800566D6178205809
:10273000004D6F74696F6E00416D617820450041F6
:102740006D6178204500416D6178205A00416D61CE
:1027500078205A00416D6178205900416D617820E0
:102760005900416D6178205800416D617820580012
:10277000412D74726176656C00412D7472617665CD
:102780006C00412D7265747261637400412D726535
:10279000747261637400416363656C0041636365D7
:1027A0006C004D6F74696F6E006F70656E206661AE
:1027B000696C65642C2046696C653A200043616E43
:1027C0006E6F74206F70656E20737562646972201D
:1027D000006563686F3A006F70656E206661696CB2
:1027E00065642C2046696C653A20004572726F72F0
:1027F0002077726974696E6720746F204545505266
:102800004F4D210A00526573656E643A20006F6B6C
:102810000020746F6F206C6F6E672065787472751E
:1028200073696F6E2070726576656E7465640A00F8
:1028300020636F6C6420657874727573696F6E20A5
:1028400070726576656E7465640A00545249474734
:1028500045524544006F70656E003A20007A5F6D06
:10286000696E00795F6D696E00785F6D696E005208
:1028700065706F7274696E6720656E6473746F70D3
:10288000207374617475730A000A4D656173757203
:10289000656420706F696E74733A0A005A206F661F
:1028A000667365743A20004E756D20582C593A2095
:1028B000352C350A000000000100000001000080F6
:1028C00000555555000000400033333300AAAA2AB2
:1028D000004992240000002000C7711C009999193A
:1028E00000D1451700555515003BB113002449127E
:1028F0000011111100000010000F0F0F00E3380E3F
:102900000043790D00CCCC0C00C3300C00E8A20BC6
:102910000064210B00AAAA0A00703D0A009DD80994
:1029200000427B090092240900DCD3080088880853
:10293000001042080000000800F0C1070087870768
:102940000075500700711C07003EEB0600A1BC0695
:10295000006990060066660600703E060061180673
:102960000017F4050074D105005BB00500B29005B6
:1029700000627205005555050078390500B81E053E
:1029800000050505004EEC040087D40400A1BD0439
:102990000090A7040049920400C17D0400EE690480
:1029A00000C7560400444404005C320400082104BB
:1029B0000041100400000004003FF00300F8E003B1
:1029C0000026D20300C3C30300CCB503003AA8031A
:1029D000000A9B0300388E0300C08103009F75032B
:1029E00000D0690300505E03001D53030034480308
:1029F00000913D03003333030016290300381F0301
:102A00000097150300300C0300030303000BFA02C8
:102A10000049F10200BAE802005CE002002DD80291
:102A2000002DD0020059C80200B0C0020031B90226
:102A300000DAB10200AAAA0200A0A30200BC9C0214
:102A400000FA9502005C8F0200DF88020082820299
:102A500000457C02002776020027700200436A02CC
:102A6000007C640200D05E02003F590200C853029D
:102A70000000C2E9E1E711241FBECFEFD1E2DEBFC3
:102A8000CDBF00E00CBF13E0A0E0B2E0EEE8F3EF52
:102A900001E00BBF02C007900D92AA33B107D9F72E
:102AA0002BE1AAE3B3E001C01D92AF35B207E1F715
:102AB00015E1CAE3D5E100E006C021970109802FA6
:102AC000FE010E9419F9C933D10780E00807A9F770
:102AD0000E946DE00C94B6F90C9400002F923F9286
:102AE0004F925F926F927F928F929F92AF92BF921E
:102AF000CF92DF92EF92FF920F931F93CF93DF93CA
:102B0000CDB7DEB7CB56D1090FB6F894DEBF0FBEF6
:102B1000CDBF8091281A8D3411F40C942B1F84356D
:102B200011F40C94012B873411F00C94442B209059
:102B3000261A3090271A2CE12216310409F43DC6DA
:102B4000A4F444E0241631044CF452E02516310478
:102B50000CF046C037FE3DC00C94271F64E02616DB
:102B6000310409F4ECC50C94271F7AE527163104CB
:102B700011F40C94691E6CF49DE12916310409F4DA
:102B800021C6AAE22A16310411F40C94DE1D0C941D
:102B9000271FBBE52B16310411F40C946D1EECE5D8
:102BA0002E16310411F00C94271F2EE4222E22E061
:102BB000322E3FEBE32E3FE0F32E6CE07BE079AF6B
:102BC00068AF42ECC42E4AE0D42E00E010E00C9432
:102BD000AD1E8091120281110C94492B0C94462B4E
:102BE00080911202882311F40C94462B0E942D3000
:102BF00082E50E942130882309F450C10E94A52F4C
:102C00004B015C0120E030E0A9010E9484EF8823A1
:102C100009F474C120910C0B30910D0B40910E0BF7
:102C200050910F0B28AF39AF4AAF5BAF4091100BFB
:102C30005091110B6091120B7091130B4CAF5DAF63
:102C40006EAF7FAF6091CB0F7091CC0F8091CD0FA5
:102C50009091CE0F2C966CAF7DAF8EAF9FAF2C971F
:102C60008091CF0F9091D00FA091D10FB091D20F42
:102C700028968CAF9DAFAEAFBFAF28972C962CADEA
:102C80003DAD4EAD5FAD2C9768AD79AD8AAD9BADD6
:102C90000E9484EF81110FC028962CAD3DAD4EAD42
:102CA0005FAD28976CAD7DAD8EAD9FAD0E9484EF7A
:102CB000882309F423C111E092E02916310409F0B8
:102CC00010E020E030E0A901C501B4010E9484EFCA
:102CD000881F8827881F181759F020E030E040E847
:102CE0005FEB64962CAF3DAF4EAF5FAF64970AC009
:102CF00040E050E060E87FE364964CAF5DAF6EAFBC
:102D00007FAF649728AD39AD4AAD5BAD2C966CAD05
:102D10007DAD8EAD9FAD2C970E94FBF560966CAF9C
:102D20007DAF8EAF9FAF60972CAD3DAD4EAD5FAD2B
:102D300028966CAD7DAD8EAD9FAD28970E94FBF5BA
:102D40006B017C0160962CAD3DAD4EAD5FAD6097E3
:102D5000CA01B9010E94E9EF2B013C01A7019601CC
:102D6000C701B6010E94E9EF9B01AC01C301B201AA
:102D70000E94FCF50E9468F824966CAF7DAF8EAF80
:102D80009FAF249720E030E040E05FE30E94E9EF4E
:102D90002B013C01A5019401C501B4010E94E9EF9A
:102DA0004B015C01A3019201C301B2010E94E9EF52
:102DB0009B01AC01C501B4010E94FBF50E9468F8BB
:102DC00064962CAD3DAD4EAD5FAD64970E94E9EFCA
:102DD0004B015C01C701B601905824962CAD3DAD66
:102DE0004EAD5FAD24970E94D8F6A50194010E94D4
:102DF000E9EF6B017C012C962CAD3DAD4EAD5FAD86
:102E00002C9768AD79AD8AAD9BAD0E94FCF520E0B2
:102E100030E040E05FE30E94E9EF9B01AC01C701B5
:102E2000B6010E94FCF528AD39AD4AAD5BAD0E94FC
:102E3000FBF56B017C0128962CAD3DAD4EAD5FAD31
:102E400028976CAD7DAD8EAD9FAD0E94FCF520E066
:102E500030E040E05FE30E94E9EF2B013C01249663
:102E60002CAD3DAD4EAD5FAD249760966CAD7DADA4
:102E70008EAD9FAD60970E94D8F6A50194010E9487
:102E8000E9EF9B01AC01C301B2010E94FCF52CAD3E
:102E90003DAD4EAD5FAD0E94FBF514C089E40E94CC
:102EA0002130882329F00E94A52F6B017C0103C0EB
:102EB000C12CD12C76018AE40E942130882309F1AB
:102EC0000E94A52F2C966CAF7DAF8EAF9FAF2C9735
:102ED00020E030E0A901C701B6010E9484EF811112
:102EE0001FC020E030E0A9012C966CAD7DAD8EAD09
:102EF0009FAD2C970E9484EF811112C0EEE2F9E1A0
:102F00000AC420E030E0A901C701B6010E9484EFA5
:102F10008823A1F32C961CAE1DAE1EAE1FAE2C97BF
:102F2000C701B601905868AF79AF8AAF9BAF2C96B6
:102F30008CAD9DADAEADBFAD2C97B0588CAF9DAFF5
:102F4000AEAFBFAF28AD39AD4AAD5BADCA01B90177
:102F50000E94E9EF4B015C012CAD3DAD4EAD5FAD84
:102F6000CA01B9010E94E9EF9B01AC01C501B4019E
:102F70000E94FCF50E9468F8A0966CAF7DAF8EAF02
:102F80009FAFA09720910C0B30910D0B40910E0B31
:102F900050910F0B28962CAF3DAF4EAF5FAF2897E7
:102FA000A701960128966CAD7DAD8EAD9FAD28979B
:102FB0000E94FCF564966CAF7DAF8EAF9FAF6497B7
:102FC0004091100B5091110B6091120B7091130BEB
:102FD00060964CAF5DAF6EAF7FAF60972C962CAD17
:102FE0003DAD4EAD5FAD2C9760966CAD7DAD8EADB9
:102FF0009FAD60970E94FCF5A4966CAF7DAF8EAF3D
:103000009FAFA4976091CB0F7091CC0F8091CD0FA3
:103010009091CE0F68966CAF7DAF8EAF9FAF6897E3
:1030200064962CAD3DAD4EAD5FAD64970E94FBF54F
:103030006B017C018091CF0F9091D00FA091D10FA7
:10304000B091D20F6C968CAF9DAFAEAFBFAF6C9707
:10305000A4962CAD3DAD4EAD5FADA497BC01CD01A6
:103060000E94FBF54B015C012091140B3091150B74
:103070004091160B5091170BA8962CAF3DAF4EAF59
:103080005FAFA8976091D30F7091D40F8091D50F47
:103090009091D60F0E94FBF524966CAF7DAF8EAF5A
:1030A0009FAF2497A701960168AD79AD8AAD9BAD1E
:1030B0000E94E9EF2B013C01A50194016CAD7DADAF
:1030C0008EAD9FAD0E94E9EF9B01AC01C301B2013F
:1030D0000E94FCF52B013C01A501940168AD79AD7E
:1030E0008AAD9BAD0E94E9EF4B015C01A7019601FF
:1030F0006CAD7DAD8EAD9FAD0E94E9EF9B01AC0143
:10310000C501B4010E94FBF5A30192010E946FF674
:103110006B017C0120E030E0A9010E9484EF87FF71
:103120000AC02BED3FE049EC50E4C701B6010E9414
:10313000FCF56B017C0132E02316310451F42BEDD8
:103140003FE049EC50E4C701B6010E94FBF56B017A
:103150007C0120E030E0A901C701B6010E9484EFA4
:10316000811128C068962CAD3DAD4EAD5FAD68971E
:1031700028966CAD7DAD8EAD9FAD28970E9484EFF3
:10318000811118C06C962CAD3DAD4EAD5FAD6C9706
:1031900060966CAD7DAD8EAD9FAD60970E9484EF63
:1031A000811108C01BEDC12E1FE0D12E19ECE12EBC
:1031B00010E4F12EA7019601A0966CAD7DAD8EAD09
:1031C0009FADA0970E94E9EF4B015C0120E030E049
:1031D000A90124966CAD7DAD8EAD9FAD24970E9464
:1031E00084EF8823E9F0A5019401C501B4010E9490
:1031F000E9EF4B015C0124962CAD3DAD4EAD5FADCA
:103200002497CA01B9010E94E9EF9B01AC01C501F5
:10321000B4010E94FCF50E9468F84B015C010DC0EE
:1032200020E030E0A901C501B4010E9422F887FF27
:1032300004C0B7FAB094B7F8B0942FE632E143E88F
:103240005AE3C501B4010E9484EF87FF02C00C94C9
:10325000462BC501B4010E9471F70E9445F72E96D6
:103260007FAF6EAF2E97672B31F441E050E02E9682
:103270005FAF4EAF2E974090180B5090190B609097
:103280001A0B70901B0B2E96AEADBFAD2E97BD01E5
:1032900080E090E00E9488EF4B015C019B01AC0153
:1032A000C701B6010E94D8F628966CAF7DAF8EAFED
:1032B0009FAF2897A501940124966CAD7DAD8EAD8E
:1032C0009FAD24970E94D8F6A0966CAF7DAF8EAFCD
:1032D0009FAFA097A30192016091D70F7091D80F73
:1032E0008091D90F9091DA0F0E94FBF5A50194010E
:1032F0000E94D8F6AC966CAF7DAF8EAF9FAFAC9707
:1033000028962CAD3DAD4EAD5FAD2897CA01B901F1
:103310000E94E9EF20E030E040E05FE30E94E9EF47
:103320009B01AC0160E070E080E89FE30E94FBF548
:1033300068966CAF7DAF8EAF9FAF6897A8962CADA7
:103340003DAD4EAD5FADA89729873A874B875C8727
:103350004D865E866F86788A60914602709147023C
:10336000072E000C880B990B0E948AEF20912602F1
:103370003091270240912802509129020E94E9EFE2
:103380002AE037ED43E25CE30E94E9EF6CAB7DABF2
:103390008EAB9FAB0E94ECDF9B01AC0128533F4FEB
:1033A0004F4F5F4F6C962CAF3DAF4EAF5FAF6C97FA
:1033B00048AC59AC6AAC7BAC22242394312C39E163
:1033C00021963FAF21972E964EAD5FAD2E974215B9
:1033D000530509F44DC10E94B7470E94ECDFDC01A0
:1033E000CB016C962CAD3DAD4EAD5FAD6C97821BA5
:1033F000930BA40BB50BB7FD10C00E94ECDF9B0133
:10340000AC0128533F4F4F4F5F4F6C962CAF3DAFF1
:103410004EAF5FAF6C970E9413A221963FAD2197EC
:10342000315021963FAF2197332309F445C02CAD8D
:103430003DAD4EAD5FAD68966CAD7DAD8EAD9FADD3
:1034400068970E94E9EF6B017C019201A301289625
:103450006CAD7DAD8EAD9FAD28970E94E9EFA701C1
:1034600096010E94FCF57B018C019201A3016896F4
:103470006CAD7DAD8EAD9FAD68970E94E9EF4B01BD
:103480005C012CAD3DAD4EAD5FAD28966CAD7DAD14
:103490008EAD9FAD28970E94E9EF9B01AC01C5015D
:1034A000B4010E94FBF52B013C01C701D8018CAF90
:1034B0009DAFAEAFBFAF55C0B10180E090E00E94BC
:1034C00088EF28962CAD3DAD4EAD5FAD28970E949C
:1034D000E9EF4B015C010E94D5F66B017C01C5014F
:1034E000B4010E945EF84B015C01A701960168AD32
:1034F00079AD8AAD9BAD0E94E9EF2B013C012C9682
:103500002CAD3DAD4EAD5FAD2C97C501B4010E9411
:10351000E9EFA30192010E94FCF52B013C01A501FA
:10352000940168AD79AD8AAD9BAD0E94E9EF4B0186
:103530005C012C962CAD3DAD4EAD5FAD2C97C70117
:10354000B6010E94E9EF9B01AC01C501B4010E94E4
:10355000FBF56CAF7DAF8EAF9FAF49E121964FAFCA
:1035600021979201A30164966CAD7DAD8EAD9FADA8
:1035700064970E94FCF569837A838B839C832CADCE
:103580003DAD4EAD5FADA4966CAD7DAD8EAD9FAD46
:10359000A4970E94FCF56D837E838F839887A09605
:1035A0002CAD3DAD4EAD5FADA09769857A858B851D
:1035B0009C850E94FCF569877A878B879C87AC96EF
:1035C0002CAD3DAD4EAD5FADAC976D857E858F85E5
:1035D00098890E94FCF56D877E878F87988B8091F4
:1035E0002402882321F0CE0101960E94639DE09081
:1035F00051101CA61DA61EA61FA689819A81AB810B
:10360000BC8188A399A3AAA3BBA38D819E81AF810E
:10361000B8858CA39DA3AEA3BFA389859A85AB85EE
:10362000BC8588A799A7AAA7BBA7AE01485D5F4F35
:10363000BE016C5D7F4FCE0180960E94C861BE01C5
:10364000645D7F4F6B018E010C5C1F4F9E01235FF9
:103650003F4FAE01485D5F4F68507109CE018096C3
:103660000E947D53882321F07FEF271A370AABCEC3
:10367000E090511018AA19AA1AAA1BAA8091CB0F80
:103680009091CC0FA091CD0FB091CE0F88A399A3AC
:10369000AAA3BBA38091CF0F9091D00FA091D10F7F
:1036A000B091D20F8CA39DA3AEA3BFA38091D30FE3
:1036B0009091D40FA091D50FB091D60F88A799A75C
:1036C000AAA7BBA7AE01485D5F4FBE016C5D7F4FEF
:1036D000CE0180960E94C861CE01C0966C018E0119
:1036E0000C5C1F4F27ED3FE0AE01485D5F4FBE0110
:1036F0006C5D7F4F40970E947D5380E1EBECFFE0D3
:10370000ACE0BBE001900D928A95E1F70C94462B5A
:103710000E94A931F80184918F010F5F1F4F811121
:10372000F7CFE3EDF2E084918F010F5F1F4F882305
:1037300011F40C94462B0E94A931F801F4CF80E5D6
:103740000E942130882329F00E94652F6B017C01A3
:1037500003C0C12CD12C760183E50E94213088233F
:1037600061F00E94A52F20E030E04AE754E40E9477
:10377000E9EF0E9445F76B017C010E944D61809149
:10378000E20A811105C060E089EE92E00E94F5AA8C
:103790000E94ECDFC60ED71EE81EF91E0E94ECDF69
:1037A000DC01CB018C199D09AE09BF09B7FD02C030
:1037B0000C94462B0E9413A2F1CF80E00E94BC30F3
:1037C0000C94462B83E50E942130882399F00E94B7
:1037D000852F182F863080F0E4EAF3E084918F0182
:1037E0000F5F1F4F882311F40C94462B0E94A931C0
:1037F000F801F4CF10E010C0833009F44EC130F46A
:10380000813081F1823009F441C006C0843009F46E
:10381000A3C1853009F4B0C10E94762C811103C088
:10382000E4E8F3E013C080915408882319F06CE0B9
:1038300073E002C060E173E08CE793E00E9462C134
:103840008AE00E94A9310E94E1DD9CC184917F0140
:103850009FEFE91AF90A882309F494C10E94A9315B
:10386000F701F4CF0E9494DE109201021092000240
:103870008091B80A81110AC081E793E09093BA1051
:103880008093B9100E94D5310C94462B8091000290
:103890009091010297FF0EC0E8E4F3E084918F015C
:1038A0000F5F1F4F882311F40C94462B0E94A931FF
:1038B000F801F4CF0097A1F48091240280933F0394
:1038C00019821A821B821C8218A219A21AA21BA298
:1038D000BE016F5F7F4FCE0180960E94177127C097
:1038E000815065E00E94C9F880FF03C024E0291BD5
:1038F000922FA5E09A02F0011124E80FF11D87FD37
:10390000FA95EE0FFF1FEE0FFF1FE453F54E809167
:10391000140B9091150BA091160BB091170B80838F
:103920009183A283B38380913F038093240280918B
:10393000000290910102893191050CF067C010924C
:1039400024029C012F5F3F4F30930102209300021D
:1039500065E00E94C9F880FF03C024E0291B922F74
:103960004091140B5091150B6091160B7091170B31
:1039700048A359A36AA37BA319821A821B821C82C3
:10398000B4E08B0290011124F901E55EF84E4F017D
:103990002081318142815381F4E09F02C0011124D2
:1039A000BC01615D784E5B01DB016D917D918D9174
:1039B0009C91FE0131966F01E12CF12C00EA10E49C
:1039C0000E94477019821A821B821C82B601CE01A6
:1039D00080960E941771F50180819181A281B38147
:1039E00080930C0B90930D0BA0930E0BB0930F0BC9
:1039F000F40180819181A281B3818093100B909317
:103A0000110BA093120BB093130B44C080E090E015
:103A1000A0EAB0E48093140B9093150BA093160BBF
:103A2000B093170B0E94882D0E944D618FEF9FEF7E
:103A30009093010280930002E4E3F3E084918F010C
:103A40000F5F1F4F882321F00E94A931F801F6CFA4
:103A500083E992E09A83898304E610E019A308A31E
:103A6000BE016F5F7F4FCE0180960E9413708AEB7C
:103A700092E09A83898319A308A3BE016F5F7F4FE9
:103A8000CE0180960E94137081E00E94BC3081E0DC
:103A90000E94A32C1092B80A77C088E50E942130BA
:103AA0008823A1F00E94752F1FEF160F1530A8F084
:103AB000EDE1F3E084918F010F5F1F4F882311F434
:103AC0000C94462B0E94A931F801F4CF88E50E949E
:103AD000A9310E945DE00C94462B89E50E942130BB
:103AE0008823A1F00E94752F0FEF060F0530A8F074
:103AF000E6E0F3E084918F010F5F1F4F882311F4FC
:103B00000C94462B0E94A931F801F4CF89E50E945C
:103B1000A9310E945DE00C94462B8AE50E94213079
:103B2000882399F00E94A52F25E0129FF00111240F
:103B3000E00FF11DEE0FFF1FEE0FFF1FE453F54ED8
:103B4000608371838283938335C08AE50E94A931A3
:103B50000E945DE00C94462B8AE50E942130882368
:103B6000A1F30E94A52F6093BA0A7093BB0A8093B9
:103B7000BC0A9093BD0A1EC080E00E94A32C0E9444
:103B800094DE18C01230B1F460910002709101020D
:103B90006931710514F069E170E087EF92E00E94ED
:103BA00049C169E170E082EF92E00E9449C18AE078
:103BB0000E94A9310E9472780C94462B80911202C7
:103BC000882311F40C94462B89E40E942130E82EBE
:103BD000882321F00E94752F062F01C000E08AE49F
:103BE0000E942130F82E882321F00E94752F162F75
:103BF00001C010E0EE2011F0053020F4FF2081F02C
:103C0000153070F0EBEBF3E084918F010F5F1F4FE5
:103C1000882311F40C94462B0E94A931F801F4CFAB
:103C20000E94B230EE2091F034E00302F001112442
:103C3000E15DF84E80819181A281B3818093CB0FA9
:103C40009093CC0FA093CD0FB093CE0FFF2091F0A7
:103C500044E01402F0011124E55EF84E8081918168
:103C6000A281B3818093CF0F9093D00FA093D10FF7
:103C7000B093D20F80E50E942130882319F00E9472
:103C8000962F03C080E50E94D82F86E40E94213041
:103C90008823D9F00E94A52F6B017C0120E030E041
:103CA000A9010E9422F8181684F420E030E040E7D1
:103CB00052E4C701B6010E94D8F6609326027093C1
:103CC000270280932802909329020E9438D30C94F3
:103CD000462B10923E030C94462B81E080933E03CA
:103CE0000C94462B0E94A52F2B013C01133049F068
:103CF000F60120813181428153810E94FBF52B0125
:103D00003C01A8ADB9AD2D913D914D915C91C301A0
:103D1000B2010E94FBF54B015C012DEB37E346E855
:103D200055EB0E9422F887FD20C02DEB37E346E8D3
:103D300055E3C501B4010E9484EF1816B4F01F5F6B
:103D4000B4E0EB0EF11CE8ADF9AD3496F9AFE8AF95
:103D5000F4E0CF0ED11C143039F1D1018D911D0149
:103D60000E942130882359F3BDCF133051F4409283
:103D7000180B5092190B60921A0B70921B0B01E0FA
:103D8000DECFA5019401F701608171818281938169
:103D90000E94FCF5D7016D937D938D939C931397AF
:103DA000812F0E94DF2DCBCF002309F403CF20E029
:103DB00030E0A9016091180B7091190B80911A0BDA
:103DC00090911B0B0E94FCF52091A90F3091AA0F36
:103DD0004091AB0F5091AC0F0E94E9EF0E942EF87A
:103DE00060931717709318178093191790931A17E9
:103DF0009091F5168091F616981719F00E94EF60D1
:103E0000D9CE0E944D6180916F00982F927081FFF2
:103E100005C080916F008D7F80936F0040911717D0
:103E2000509118176091191770911A1740934C1BF5
:103E300050934D1B60934E1B70934F1B992309F4B5
:103E4000B9CE80916F00826080936F00B3CE0E94E4
:103E5000BCBC0C94462B8091261A9091271A83376C
:103E6000910509F4D5C10CF0DFC08B34910509F43C
:103E7000D4C40CF06EC08831910509F499C2E4F500
:103E80008231910509F4F5C5E4F497FF02C00C9462
:103E9000FE2A823091050CF4BEC1419711F00C94BA
:103EA000FE2A60E08DEE93E00E94F5AA5F988A9862
:103EB00080910801817080930601479812980C94B4
:103EC000462B8531910509F458C23CF4449711F012
:103ED0000C94FE2AE5E0F4E012C28631910509F463
:103EE00050C2479711F00C94FE2A0E94EA71E091AB
:103EF000241AF091251A4FC28D31910511F40C94BA
:103F0000462BC4F48A31910509F4D2C20CF4CAC21A
:103F10008B31910509F4DAC24C9711F00C94FE2A0A
:103F200040E060E08091241A9091251A0E94E16C93
:103F30000C94462B8F31910509F48BC30CF45EC3AE
:103F40008032910509F46FC28A9709F437C40C9442
:103F5000FE2A8836910509F469C4F4F58235910585
:103F600009F480C504F58D34910509F45CC40CF4A2
:103F700057C48135910511F00C94FE2A0E94CA4362
:103F80000E948A611092B8101092B71068EE73E028
:103F900080E090E00E944EAA60E08CEB94E00E94EA
:103FA000F5AA0C94462B8435910509F462C50CF4EE
:103FB0005CC58535910509F48BC58C35910511F0EB
:103FC0000C94FE2A1EE4C12E12E0D12E0DE9E02E43
:103FD0000FE0F02E10E095C58D36910509F4F6C47A
:103FE0009CF48A36910509F411C50CF4B2C48B36E1
:103FF000910509F427C58C36910511F00C94FE2A21
:10400000109208020C94462B8F36910509F44AC48D
:104010000CF437C48037910509F497C482379105B1
:1040200009F4EEC50C94FE2A823E910511F40C941D
:1040300075290CF06DC08E3B910509F4E4C45CF564
:104040008837910509F4D4C664F48637910509F4DC
:1040500080C60CF0CAC68537910509F46BC60C946E
:10406000FE2A8C38910509F4B4C45CF489379105B3
:1040700011F00C94FE2A10925D0310925C030C94D4
:10408000462B8139910509F4B9C68B39910509F49C
:1040900078C40C94FE2A8D3C910511F40C94702880
:1040A000ACF4893C910509F470C734F4883C91055F
:1040B00009F41BC70C94FE2A8B3C910509F487C7B1
:1040C0008C3C910509F49DC70C94FE2A833D910513
:1040D00011F40C94FC2884F48E3C910511F00C949E
:1040E000FE2A4EE4C42E42E0D42E5FE3E52E58E0D3
:1040F000F52E10E00C94E9288C3D910511F40C94F8
:10410000FF288D3D910511F40C940A290C94FE2A88
:10411000843A21E0920711F40C94C12AACF58E3256
:1041200041E0940711F40C945C2A84F48C3261E031
:10413000960711F40C94A32914F00C94C829823228
:10414000914011F40C949A290C94FE2A8336B1E024
:104150009B0709F459C04CF48F32914011F00C9434
:10416000FE2A0E942F730C94462B803921E092077F
:1041700011F40C94BE2A8A39914011F00C94FE2A55
:104180000E94EE720C94462B863F41E0940711F496
:104190000C94C72AFCF48C3A61E0960711F40C9455
:1041A000F9284CF4853A914011F00C94FE2A0E94B3
:1041B00003720C94462B843FB1E09B0711F40C94DE
:1041C000C42A853F914011F00C94FE2A0E9412925D
:1041D0000C94462B8B38F3E09F0711F40C94462B7C
:1041E0003CF4883F914011F40C94CA2A0C94FE2AA6
:1041F000803A43E0940709F41FC2873E934011F4CC
:104200000C94EC2A0C94FE2AEEE2F9E10C94AC2A10
:10421000E3EBF5E034C5A090241AB090251A80E5B0
:104220000E942130882359F00E94652F6B017C0188
:1042300011E0672B682B692B31F410E004C010E00B
:10424000C12CD12C760183E50E942130882311F402
:104250000C944D2B0E94A52F20E030E04AE754E457
:104260000E94E9EF0E9445F76B017C0111110BC020
:10427000672B682B692B39F4A114B10421F0D50107
:104280008C91811102C010E001C011E00E944D61CB
:10429000112329F061E0C5010E9431AB05C060E047
:1042A0008AED93E00E94F5AA81E080936310C11427
:1042B000D104E104F104B1F00E94ECDFC60ED71E78
:1042C000E81EF91E0E94ECDFDC01CB018C199D0970
:1042D000AE09BF09B7FF0DC08091631081110C9426
:1042E000522B07C080916310882319F00E9413A2FB
:1042F000F9CF0E94FB4A109263100C94462B8491D4
:104300008F010F5F1F4F882321F00E94A931F80110
:10431000F6CF1092FF1983E997E10E94ED868BE1B9
:10432000E3E9F7E1DE01159601900D928A95E1F738
:1043300080919117909192179C838B8388EF92E0E4
:104340009A83898340E050E0BE016F5F7F4F80E039
:1043500090E00E94EACACE0101960E94D69EE6EF46
:10436000F3E084918F010F5F1F4F882311F40C94A9
:10437000462B0E94A931F801F4CF0E94D16E0C9413
:10438000462B10926317109264170C94462B8032C0
:1043900009F41082319680818111F9CF40E061E00B
:1043A0008091241A9091251A0E94E16C0C94462B5E
:1043B00083E50E942130882381F00E94752FAB0194
:1043C000BC014093FB195093FC196093FD19709345
:1043D000FE198BE299E10E94A684809164178823DC
:1043E00019F081E08093631784E50E9421308823CF
:1043F00009F454C00E94752F6B017C010E9426DFD6
:10440000C092220AD092230AE092240AF092250A4E
:10441000CD28CE28CF2811F40C94462B81E0809330
:10442000800A0C94462B8091631781110E944D6184
:1044300080916417882311F40C94462B80E50E9428
:104440002130882309F4F4C00E94962F182F482F9A
:1044500061E08091241A9091251A0E94E16C83E515
:104460000E942130882381F00E94752FAB01BC018E
:104470004093FB195093FC196093FD197093FE193A
:104480008BE299E10E94A68480916417882319F039
:1044900081E08093631711110C94462B0E9441DF39
:1044A0000C94462B109263170E9463DF0C94462BEA
:1044B00080916417882311F40C94462B83E50E94A5
:1044C000213081110C94562B0C94462B83E40E94CE
:1044D000D82F882309F450C0E3E4F4E084918F01DD
:1044E0000F5F1F4F882321F00E94A931F801F6CFFA
:1044F00080912E19811103C0E6E1F4E012C0BE01E3
:104500006F5F7F4F8BE299E10E94B5858E010F5F4F
:104510001F4FF80181918F01882349F10E94A93131
:10452000F8CF84918F010F5F1F4F882301F10E9404
:10453000A931F801F6CF8BE9C82E84E0D82EE12C02
:10454000F12C20E08091B10A90E00E2C02C09595EC
:1045500087950A94E2F780FDD5C1BFEFEB1AFB0AFD
:10456000E2E0CE0ED11CF5E0EF16F10459F78AE037
:104570000E94A9310C94462B80916417882339F04E
:1045800080916317882319F0E0E2F4E003C0E2E3CE
:10459000F4E028C084918F010F5F1F4F882321F022
:1045A0000E94A931F801F6CF6091FB197091FC19B6
:1045B0008091FD199091FE194AE00E942D328FE200
:1045C0000E94A9316091F7197091F8198091F91939
:1045D0009091FA194AE00E942D328AE00E94A93196
:1045E0000C94462B84918F010F5F1F4F882311F489
:1045F0000C94462B0E94A931F801F4CF80916417E6
:10460000882311F40C94462B8BE299E10E9477D118
:104610008BE299E10E9490851092621710926117C7
:104620008091241A9091251A0E9450710C94462B67
:1046300080E50E94D82F0ACF8091241A9091251AE4
:1046400021E02093621740E060E00E94E16C0C944E
:10465000462B0E943B4A7B018C0120E831E541E07A
:1046600050E00E94C0F5C9016DE671E00E94D6F8E5
:104670004B015C01C801B70120E13EE040E050E0A1
:104680000E94C0F5CA01B90128E130E040E050E0E5
:104690000E94C0F5762E672EC62ED72E9CE3292EBB
:1046A000312C412C512CC801B701A20191010E946B
:1046B000C0F5F62EE72ECA01B901A20191010E94B0
:1046C000C0F5CB018E010F5F1F4F8114910499F04B
:1046D000EF92FF927F936F936F927F92BF92AF9210
:1046E0009F928F928AE794E09F938F931F930F93EB
:1046F0000E941EEF13C0A114B104B1F0EF92FF921B
:104700007F936F936F927F92BF92AF928AE694E00D
:104710009F938F931F930F930E941EEF0FB6F894F1
:10472000DEBF0FBECDBF30C0CD2879F0EF92FF9233
:104730007F936F936F927F928EE594E09F938F9318
:104740001F930F930E941EEFE9CF892B69F0EF9220
:10475000FF927F936F9386E594E09F938F931F93CF
:104760000F930E941EEFDACFEF92FF9282E594E062
:104770009F938F931F930F930E941EEF0F900F90A4
:104780000F900F900F900F9060E0C8010E9431AB26
:10479000E1EDF7E284917F019FEFE91AF90A88239E
:1047A00021F00E94A931F701F5CFB8018EE894E01D
:1047B0000E9462C18AE00E94A93168C783E50E9415
:1047C0002130882309F462C70E94852FE82E80E5F6
:1047D0000E942130882331F00E94852F182F87FFF7
:1047E00002C054C71DE089E40E942130882339F0BB
:1047F0000E94962F8111FAC7E1EFF6E00AC089E422
:104800000E94D82FF7CF3196A7E0E232FA0709F4D9
:10481000EDC784911813F7CF86C70E9441DF36C7D2
:104820000E9463DF33C70E9477DF30C788E690E0DD
:104830000E94983281112AC78091B10A83FD26C750
:1048400083E50E9421308823C9F00E94A52F0E9491
:1048500040F77093B6106093B51080E00E947E43DD
:104860000E94A52F20E030E04AEA52E40E9484EF43
:10487000181624F00E9477DF0E94FB4A0E94AFC204
:1048800005C78EE40E942130882309F4FFC60E94E8
:10489000752F6093620F7093630F8093640F9093F2
:1048A000650FF4C683E50E94D82F882359F083E56D
:1048B0000E942130882319F00E94852F01C080E0DA
:1048C0008093B10AE1EDF7E284918F010F5F1F4FF2
:1048D000811103C0E9EAF4E004C00E94A931F801A3
:1048E000F3CF84918F010F5F1F4F882321F00E9427
:1048F000A931F801F6CF8091B10A81111CCEE5EA09
:10490000F4E018C0BB24B394B20E222319F08CE259
:104910000E94A931F60185919491FC0184918F0147
:104920000F5F1F4F882321F00E94A931F801F6CFB5
:104930002B2D13CE84918F010F5F1F4F882309F415
:1049400016CE0E94A931F801F5CF80EB94E00E94C9
:10495000F89E89E690E00E94983281115CC7E9EBED
:10496000F4E084918F010F5F1F4F882321F00E9494
:10497000A931F801F6CF0E9478428AE00E94A9315D
:104980004AC783E50E942130882309F47FC60E942C
:10499000852F182F8D3308F01CE31093BE0F0E9453
:1049A000ECDF6B017C01212F30E0A8EEB3E00E9428
:1049B000ECF5C60ED71EE81EF91EC092BA0FD092B3
:1049C000BB0FE092BC0FF092BD0F60C60E94BF34D7
:1049D0005DC68091B10A83FD59C683E50E942130EE
:1049E000882309F453C60E94A52F0E9440F76E3613
:1049F000710514F06EE670E07093B4106093B3101C
:104A00000E94324343C60E94EE3240C680E50E94B7
:104A10002130811106C083E50E942130882359F09E
:104A200005C00E94852F811131C6F5CF0E94752FD8
:104A30006F3F710510F06FEF70E07093B8106093E6
:104A4000B71024C680E50E942130811105C0109264
:104A5000B8101092B7101AC60E94752F672B09F074
:104A600015C6F5CF10923D0311C681E080933D033A
:104A70000DC683E50E942130882399F00E94A52F5E
:104A800020E030E04AE754E40E94E9EF0E9445F755
:104A900060933A0270933B0280933C0290933D02F4
:104AA000F5C588E50E94D82F811110C689E50E94BE
:104AB000D82F81110BC68AE50E94D82F811106C616
:104AC00085E40E94D82F811101C60E948A61DEC54B
:104AD00083E50E94D82F882309F4D8C50E94A52F0A
:104AE00020E030E04AE754E40E94E9EF0E9445F7F5
:104AF0006093B60F7093B70F8093B80F9093B90F70
:104B0000C5C5D6018D916D010E94D82F882309F467
:104B10006DC0133009F063C00E94A52F4B015C01EA
:104B200020E030E040EA51E40E9484EF87FF4EC06D
:104B3000A50194016091A90F7091AA0F8091AB0F0C
:104B40009091AC0F0E94D8F62B013C019B01AC0167
:104B50006091990F70919A0F80919B0F90919C0F8B
:104B60000E94E9EF6093990F70939A0F80939B0FC7
:104B700090939C0FA30192016091BA167091BB169D
:104B80008091BC169091BD160E94E9EF6093BA1611
:104B90007093BB168093BC169093BD166091CE1097
:104BA0007091CF108091D0109091D1100E9488EF19
:104BB000A30192010E94E9EF0E9445F76093CE1095
:104BC0007093CF108093D0109093D1108092A90F42
:104BD0009092AA0FA092AB0FB092AC0F07C00E94A8
:104BE000A52FF70160837183828393831F5FF4E0B5
:104BF000EF0EF11C143009F084CF0E9414C446C596
:104C00000E944D6183E50E942130882311F40C94A9
:104C1000DA1D0E94752F6230710511F00C94DA1DB7
:104C20000E9418D78BE50E94A9316091AB1A709150
:104C3000AC1A8091AD1A9091AE1A42E00E94A9364A
:104C40004091AF1A5091B01A6091B11A7091B21A96
:104C500081ED94E00E942CC14091B31A5091B41A96
:104C60006091B51A7091B61A8EEC94E00E942CC136
:104C70008DE50E94A9318AE00E94A93107C584917F
:104C80008F010F5F1F4F882321F00E94A931F80187
:104C9000F6CF60E083EA95E00E943B7861E08CE922
:104CA00095E00E943B7861E081E995E00E943B78C5
:104CB00061E081E895E00E943B7860E088E795E05C
:104CC0000E943B7861E08EE695E00E943B7860E0D0
:104CD00084E695E00E943B7860E08CE595E00E94D8
:104CE0003B7861E08EE495E00E943B7860E080E4F0
:104CF00095E00E943B7860E081E395E00E943B787C
:104D000060E083E295E00E943B7860E08DE095E012
:104D10000E943B7860E08CEF94E00E943B7860E07A
:104D200087EE94E00E943B7861E084ED94E00E947D
:104D30003B78ACC48091241A9091251ADC012C9107
:104D4000222321F060E00E9431ABA0C40E94FB4A04
:104D50009DC40091241A1091251A83E0D12C40E0C3
:104D60008150E1F0F8019081292F2B7F2134C1F788
:104D700021812133A9F7913421F0953421F441E0C8
:104D800002C0DD24D39498012E5F3F4F89012F5F2D
:104D90003F4FD8019C919032C9F3E2CF442369F090
:104DA000E1EDF7E284917F01BFEFEB1AFB0A882364
:104DB00021F00E94A931F701F5CFDD2069F0EBE782
:104DC000F6E084917F012FEFE21AF20A882321F0A6
:104DD0000E94A931F701F5CFD8018D918D0188236B
:104DE00009F4C5CB0E94A931F7CF0E94FBDE4EC467
:104DF00081E080935D0380935C0348C483E50E9457
:104E00002130882319F00E94752F02C060E070E005
:104E10008B01112702301105D4F0EEE2F9E1849103
:104E20008F010F5F1F4F811103C0EFE7F6E004C051
:104E30000E94A931F801F3CF84918F010F5F1F4FBA
:104E4000882309F423C40E94A931F801F5CF88E42E
:104E50000E9421308823A1F00E94752F6A3A7105C3
:104E600034F0663F71052CF065EF70E002C06AEA2D
:104E700070E0F801EE0FFF1FE958F04F7183608377
:104E800086E40E9421308823A9F00E94752FF80142
:104E9000EE0FFF1FE558F04F718360836F3F710580
:104EA00019F014F06FEF70E077FF02C060E070E07F
:104EB0007183608382E40E942130882309F4E6C371
:104EC0000E94752F6530710534F0603671052CF045
:104ED0006FE570E002C065E070E0000F111FF8019F
:104EE000ED58F04F71836083D1C388EC90E00E944D
:104EF00098328111CBC384E40E94D82F882309F40F
:104F000041C00E94A52F6B017C0111E020E030E040
:104F1000A9010E9484EF811101C010E01093B10F2C
:104F200020E030E0A901C701B6010E9484EF882388
:104F300049F10E94A52FE091330AB4E0EB9FF00104
:104F40001124E355F04F608371838283938320E0C3
:104F500030E0A9016091AD0F7091AE0F8091AF0F5D
:104F60009091B00F0E9484EF81110CC080E090E01E
:104F7000A0EEBFE38093AD0F9093AE0FA093AF0F61
:104F8000B093B00F0E94185381C37EE4E72E72E005
:104F9000F72E0EEB16E1EEECCE2EE6E1DE2EF7015B
:104FA00081917F010E94D82F882349F0CED70E949B
:104FB00045F7D8016D937D938D939C9313970C5F68
:104FC0001F4FC016D10659F70E94DFC25FC36EE4BF
:104FD000E62E62E0F62E0EEA16E1F70181917F01DE
:104FE000E7D7882339F0B1D7D8016D937D938D939E
:104FF0009C9313970C5F1F4FB6E10E3B1B0769F79D
:1050000045C383E50E942130882399F09ED76093A1
:10501000D6167093D7168093D8169093D9166093AE
:10502000CE167093CF168093D0169093D11610E0C1
:1050300001C011E080E50E942130882351F085D71E
:105040006093D6167093D7168093D8169093D9167E
:1050500010E082E5F6D7882351F077D76093D21617
:105060007093D3168093D4169093D51610E084E5F0
:10507000E8D7882351F069D76093CE167093CF1686
:105080008093D0169093D11601C3112309F4FEC268
:105090004091D6165091D7166091D8167091D916B6
:1050A00087EA96E00E942CC14091D2165091D31607
:1050B0006091D4167091D51684EA96E00E942CC1B6
:1050C0004091CE165091CF166091D0167091D116A6
:1050D00081EA96E00E942CC18AE00E94A931D6C2E2
:1050E00081E566D7882349F0F0D66093AC0A7093C7
:1050F000AD0A8093AE0A9093AF0A83E559D788230F
:1051000049F023D76093AA167093AB168093AC1620
:105110009093AD1684E54CD7882349F016D7609359
:10512000A6167093A7168093A8169093A91688E5E3
:105130003FD7882349F009D760938D0F70938E0F66
:1051400080938F0F9093900F89E532D7882349F091
:10515000FCD66093910F7093920F8093930F90936E
:10516000940F8AE525D78823E9F0EFD66093950F51
:105170007093960F8093970F9093980F2DEC3CECC3
:105180004CEC5DE30E9484EF181664F0E7EBF6E068
:1051900084918F010F5F1F4F882321F00E94A93156
:1051A000F801F6CF85E404D7882309F46FC2CDD681
:1051B0006093990F70939A0F80939B0F90939C0F1D
:1051C00065C21F5FB4E0EB0EF11C133011F40C94B8
:1051D000DA1DF60181916F01EBD6882391F3B5D6E4
:1051E000D7016D937D938D939C931397812FE7D473
:1051F000E8CF0E943C794AC20E945D7747C283E5AE
:1052000020D7882309F442C270D670934702609376
:1052100046023CC28DED90E00E949832811136C268
:1052200083E50FD7811103C0E1EDF7E238C00091AB
:10523000330A10E05AD6000F111FF801EC5BFD4F46
:10524000718360838091330A90E07C01EE0CFF1C37
:10525000EE0CFF1C8701005C1D4F880F991FFC019D
:10526000EC5BFD4F60817181072E000C880B990B60
:105270000E948AEF2AE037ED43E25CE30E94E9EF07
:10528000F701E856FF4E20813181428153810E940F
:10529000E9EFF8016083718382839383F7C184917E
:1052A0008F010F5F1F4F882321F00E94A931F80161
:1052B000F6CF85E40E94A9318091330A805D0E9477
:1052C000A931E091330AF0E0EE0FFF1FEC5BFD4FD8
:1052D0006081718189EE96E00E9449C185E20E9459
:1052E000A9318AE00E94A931D1C180E561D6882325
:1052F00009F4CCC1FAD56B017C0183E5A2D68823E1
:1053000019F0F3D58B0102C00FEF1FEFC801019612
:10531000039708F0BBC1D7FCB9C18C2DE1EFF6E0D3
:105320009491891709F4FFC1319627E0E232F20720
:10533000B9F7FCC18AE585D6811120C283E581D603
:1053400081111CC2A3C183E57CD6882311F0CDD581
:1053500002C064E071E079A368A380E572D6882377
:1053600031F0C3D5693833E1730730F402C068EE19
:1053700073E07A83698304C088E893E19A83898320
:10538000BE01605E7F4FCE0101960E9413707EC108
:1053900085E457D681110EC080E50AD6882381F0B6
:1053A000D4D56093660F7093670F8093680F9093C6
:1053B000690F06C0AAD5882379F3EEE2F9E16AC045
:1053C00089E4F6D5882379F0C0D52CEA35EC47E29C
:1053D0005EE30E94E9EF60936E0F70936F0F80930E
:1053E000700F9093710F84E4E3D5882379F0ADD5E5
:1053F0002CEA35EC47E25EE30E94D8F660936A0F30
:1054000070936B0F80936C0F90936D0FE1EDF7E24B
:1054100084918F010F5F1F4F882319F09AD7F801ED
:10542000F7CF4091660F5091670F6091680F7091B0
:10543000690F8AE297E00E942CC12CEA35EC47E222
:105440005EE360916E0F70916F0F8091700F90917D
:10545000710F0E94D8F6AB01BC0186E297E00E9472
:105460002CC12CEA35EC47E25EE360916A0F709143
:105470006B0F80916C0F90916D0F0E94E9EFAB0163
:10548000BC0182E297E00E942CC18AE062D7FEC094
:1054900060D7F80184918F010F5F1F4F8111F8CF02
:1054A000EEE2F7E084918F010F5F1F4F882309F42C
:1054B000EDC04FD7F801F6CF83E57AD5182F8823B2
:1054C00069F043D50E9440F770931702609316026B
:1054D00021E0672B09F020E02093B00A80E568D531
:1054E000882351F02091160230911702232B09F0E6
:1054F0001DD58093B00ACAC01111C8C0E1EDF7E212
:1055000084918F010F5F1F4F882319F022D7F80174
:10551000F7CF8091B00A882319F064E173E002C0EC
:1055200067E173E085E597E00E9462C16091160231
:105530007091170284E497E00E9449C1E0E4F7E02B
:1055400084918F010F5F1F4F882309F49FC001D7FB
:10555000F801F6CFFED6F80184918F010F5F1F4F3F
:105560008111F8CFE8E6F7E084918F010F5F1F4FBC
:10557000882309F48BC0EDD6F801F6CF0E944D6167
:1055800085C00E94C77A82C00E941D927FC00E947F
:10559000318C7CC081E08093880F0E94368D109200
:1055A000880F882309F472C0E1EDF7E284918F013E
:1055B0000F5F1F4F811103C0E7E7F7E003C0C9D6B3
:1055C000F801F4CF84918F010F5F1F4F882309F4F6
:1055D0005DC0BFD6F801F6CF81E080931202109231
:1055E0000B0B83E52ED5882331F0A0D481114EC05A
:1055F0000E9451D74BC083E5DBD4F8CF0E94BCBCDE
:1056000045C0F090261A0E944D611091540880E028
:105610009AD1FF2001F1E1EDF7E284918F010F5F54
:105620001F4F882319F095D6F801F7CF84E591D65E
:105630006F2D70E080E090E04AE00FD780E289D6DD
:10564000E4E9F7E084918F010F5F1F4F8823F1F0A9
:1056500080D6F801F7CF10925110812F74D1E1ED6F
:10566000F7E284918F010F5F1F4F882319F071D6E5
:10567000F801F7CF6091511070E082E897E00E9446
:1056800049C18AE066D602C00E94BCBC0E9434D7E1
:10569000C2C0E3D40E9438D3F9CF11110C94432136
:1056A0000C943C210E9413A20C9462211ED4AB01E5
:1056B000BC014093FB195093FC196093FD19709342
:1056C000FE198BE299E10E94A684E0CF0E944D6111
:1056D00088E56ED4882331F05F9A80915E038E7FD7
:1056E00080935E0389E564D4882331F08A9A80919F
:1056F0005E038D7F80935E038AE55AD4882361F030
:10570000809108018095817080930601479A80916D
:105710005E038B7F80935E0385E44AD4882309F47B
:10572000B5CF129AB3CF0E9442E0B0CF0E944D6134
:10573000BC2C60E08C2D0E94CABE0F3F4FEF1407B7
:1057400059F48C2D0E9474BE31E020E0892B09F0C1
:1057500030E0032F122F05C00130110561F401E084
:1057600010E08B2D0E9474BE8017910709F48ECF34
:105770000E9413A2F6CF00E010E0F3CFE6D320E0C2
:1057800030E040E050EC0E9484EF87FD10C0DDD394
:1057900020E030E040E050E40E9422F8181614F0B7
:1057A000D4D309C060E070E080E090E404C060E021
:1057B00070E080E090EC20915E0322FF67CF0091C3
:1057C0009610109197102091A50F3091A60F40913F
:1057D000A70F5091A80F0E94E9EF0E9440F7600FB9
:1057E000711F709397106093961050CF61E0812FD6
:1057F0000E94CABE6E2D812F0E949CBEF12CB70163
:10580000812F0E9406BF193009F040CFF092B810E6
:10581000E092B7103BCFC559DF4F0FB6F894DEBF0B
:105820000FBECDBFDF91CF911F910F91FF90EF90F1
:10583000DF90CF90BF90AF909F908F907F906F90B0
:105840005F904F903F902F900895089580E090E0F2
:1058500008950F931F93CF93DF93EC010E94ECDF29
:105860000E811F8128853985011511052105310516
:1058700059F52C852223A9F13A8521502C8721E066
:10588000230F2A874D85241301C01A86FE0124E0C8
:10589000329FE00DF11D112406851785208931897D
:1058A0000A831B832C833D83DC01CB01800F911F76
:1058B000A11DB11D8E839F83A887B9878C819D818F
:1058C000892B79F0409A0DC0DC01CB01801B910B34
:1058D000A20BB30BB7FD05C040981E821F8218862D
:1058E0001986DF91CF911F910F910895EF92FF924A
:1058F0001F93CF93DF938CECE82E8AE1F82E15E00E
:10590000C0E0D0E020E030E0A901F701EC0FFD1F7E
:1059100060817181828193810E9484EF81110CC02A
:105920002496C431D10571F7115084E1E80EF11CC1
:105930001111E6CF80E001C081E0DF91CF911F918E
:10594000FF90EF900895CF93909154089817C9F065
:10595000C82F0E944D61C11112C044E15BE060E1BB
:105960007BE08CE09BE00E94C86180E0809354085B
:10597000882339F08CE09BE0CF910C947DC1B6DF99
:10598000F5CFCF910895CF92DF92EF92FF920F93D0
:105990001F93CF93DF93CDB7DEB72C970FB6F89454
:1059A000DEBF0FBECDBF7B018C01D42E9B01AC01AD
:1059B000609150087091510880915208909153085D
:1059C0000E9484EF882309F494C0C090540880E0BA
:1059D000BADF20E030E0A901B701C8010E9422F837
:1059E000181624F0E12CF12C00E010E0C701D801DA
:1059F0008093500890935108A0935208B093530895
:105A00002DEB37E346E855EBB701C8010E9422F8B9
:105A100087FD0AC02DEB37E346E855E3B701C8011F
:105A20000E9484EF18164CF49701A80160E070E022
:105A300080E89FE30E94D8F603C060E070E0CB01ED
:105A40006093C41A7093C51A8093C61A9093C71AAC
:105A500080EF9FEFA9E7B4EC8093C81A9093C91A1E
:105A6000A093CA1AB093CB1ACC2009F442C08091FB
:105A70000C0B90910D0BA0910E0BB0910F0B898325
:105A80009A83AB83BC838091100B9091110BA091F2
:105A9000120BB091130B8D839E83AF83B8878091D7
:105AA000140B9091150BA091160BB091170B8987D1
:105AB0009A87AB87BC8781E046DFDD20D1F04CE0E0
:105AC00050E06CE07BE0CE0101960E943FF9892B0B
:105AD00081F02C960FB6F894DEBF0FBECDBFDF91DC
