:100000000C94A6150C94D7150C94D7150C94D715F1
:100010000C94D7150C94D7150C94D7150C94D715B0
:100020000C94D7150C94D7150C94D7150C94D715A0
:100030000C94D7150C94D7150C94D7150C94D71590
:100040000C94D7150C94F5C30C94D7150C94D715B4
:100050000C94D7150C94D7150C9467430C9473E14A
:100060000C94D7150C949A370C94D7150C94D7157B
:100070000C94D7150C94D7150C94D7150C94D71550
:100080000C94D7150C94D7150C94D7150C94D71540
:100090000C94D7150C94D7150C94D7150C94D71530
:1000A0000C94D7150C94D7150C94D7150C94D71520
:1000B0000C94D7150C94D7150C94D7150C94D71510
:1000C0000C94D7150C94D7150C94D7150C94D71500
:1000D0000C94D7150C94D7150C94D7150C94D715F0
:1000E0000C94D71518CE1BCE0ACE0ECE14CE52CEFF
:1000F0001FCE23CE29CE2DCE31CE37CE3BCE3FCE16
:1001000052CE45CE49CE4DCECED0D3D0D8D0E2D0EF
:10011000ECD065D1F6D0FED006D110D11AD124D1C1
:1001200033D13DD165D147D151D15BD1084AD73BBD
:100130003BCE016E84BCBFFDC12F3D6C74319ABDB6
:1001400056833DDA3D00C77F11BED9E4BB4C3E91DA
:100150006BAAAABE000000803F05A84CCDB2D44EC9
:10016000B93836A9020C50B9918688083CA6AAAACB
:100170002ABE000000803F004E414E494E4954596E
:10018000494E46CDCCCC3D0AD7233C17B7D1387762
:10019000CC2B329595E6241FB14F0A000020410078
:1001A00000C84200401C4620BCBE4CCA1B0E5AAEC2
:1001B000C59D7400407A10F35A00A0724E180900D1
:1001C00010A5D4E80000E87648170000E40B5402BC
:1001D0000000CA9A3B000000E1F5050000809698F7
:1001E00000000040420F000000A086010000001047
:1001F0002700000000E80300000000640000000089
:10020000000A00000000000100000000002C76D869
:1002100088DC674F0823DFC1DFAE59E1B1B796E54F
:10022000E3E453C63AE651997696E8E6C28426EBB3
:10023000898C9B62ED407C6FFCEFBC9C9F40F2BAC6
:10024000A56FA5F490055A2AF75C936B6CF9676D5E
:10025000C11BFCE0E40D47FEF520E6B500D0ED90B3
:100260002E0300943577050080841E080000204E80
:100270000A000000C80C333333330F986E12831119
:1002800041EF8D2114893BE65516CFFEE6DB18D1F0
:10029000844B381BF77C1D901DA4BBE424203284C2
:1002A000725E228100C9F124ECA1E53D27434F4D48
:1002B0004D554E49434154494F4E004452595255B1
:1002C0004E004552524F525300494E464F0045434F
:1002D000484F0047322F47332062616420706172BB
:1002E000616D65746572730A00536C6565702E2EBE
:1002F0002E00206F6620004D424C2047323920707E
:100300006F696E74200059206F7574206F662072BB
:10031000616E67652028312D33292E0A0058206F21
:100320007574206F662072616E67652028312D33E9
:10033000292E0A004D6573682070726F62696E67BE
:1003400020646F6E652E0A005374617274206D65AF
:1003500073682070726F62696E67207769746820B5
:1003600022473239205331222066697273742E0A73
:10037000004732380A4732392053320053746174CF
:10038000653A20004D65736820626564206C65766F
:10039000656C696E6720686173206E6F206461749C
:1003A000612E0A0053206F7574206F662072616E93
:1003B00067652028302D35292E0A004D6573682089
:1003C000706F696E742063616E6E6F742062652059
:1003D0007265736F6C7665640A00436C69636B20A9
:1003E000746F20726573756D652E2E2E004E6F2012
:1003F0006D6F76652E00456E642066696C65206CB5
:100400006973740A00426567696E2066696C6520CD
:100410006C6973740A00286E6F2066696C65290028
:100420005344207072696E74696E672062797465D6
:1004300020004E6F74205344207072696E74696E90
:10044000670A0043757272656E742066696C653A5E
:1004500020002569730025696D20256973002569D1
:10046000682025696D202569730025696420256948
:10047000682025696D202569730025697920256923
:1004800064202569682025696D20256973005072F4
:10049000696E742074696D653A2000CE02C902C28B
:1004A00002BB02AD026F66660044454255473A0002
:1004B0004B494C4C45442E20006F6B00416E7963D4
:1004C000756269632069332B204F66662E002C20ED
:1004D000002C2000544845524D414C5F50524F541F
:1004E000454354494F4E004155544F5245504F5289
:1004F000545F53445F53544154555300454D455246
:1005000047454E43595F5041525345520043415372
:10051000455F4C494748545F4252494748544E450D
:10052000535300544F47474C455F4C494748545339
:1005300000534F4654574152455F504F5745520064
:100540004255494C445F50455243454E54004C453A
:1005500056454C494E475F44415441005A5F505202
:100560004F4245004155544F4C4556454C00505262
:10057000494E545F4A4F420050524F4752455353E1
:10058000004155544F5245504F52545F54454D50C1
:1005900000564F4C554D4554524943004545505225
:1005A0004F4D0053455249414C5F584F4E5F584F95
:1005B0004646004649524D574152455F4E414D45D2
:1005C0003A4D61726C696E20312E312E39202847E8
:1005D00069746875622920534F555243455F434FF4
:1005E00044455F55524C3A68747470733A2F2F67C4
:1005F00069746875622E636F6D2F4D61726C696EE0
:100600004669726D776172652F4D61726C696E20FB
:1006100050524F544F434F4C5F56455253494F4EE3
:100620003A312E30204D414348494E455F54595090
:10063000453A416E7963756269632069332B2045C1
:10064000585452554445525F434F554E543A312009
:10065000555549443A63656465326132662D3431DB
:1006600061322D343734382D396231322D633535CE
:100670006336326633363766660A002F2F20004D08
:1006800031343520533C696E6465783E206F757453
:10069000206F662072616E67652028302D31290A2F
:1006A00000205400205200416363656C65726174E0
:1006B000696F6E3A2050005741524E494E472120F3
:1006C0004C6F77205A204A65726B206D6179206CDF
:1006D00065616420746F20756E77616E7465642047
:1006E0007061757365732E0A0020466C6F773A202F
:1006F00000000136372603FFFFFF353C3D380EFF73
:10070000FFFF312E303E12FFFFFFFF28FF0C0809CC
:10071000FFFF071A1C18FFFF2A08440AFF43242280
:100720001E2C20643A0020693A0020703A00496E7D
:1007300076616C69642065787472756465720A000C
:1007400043290A0061626C656420286D696E20741B
:10075000656D702000436F6C6420657874727564F9
:1007600065732061726520004E6F206361736520A0
:100770006C696768740A00454550524F4D204F4BD5
:100780000A00416374697665204578747275646502
:10079000723A2000496E76616C69642065787472E3
:1007A000756465720A00656E7175657565696E6759
:1007B00020220020496E76616C696420657874722D
:1007C0007564657220000000000000000000000059
:1007D000000000005C4300005C4300007A43486F67
:1007E0006D696E67206661696C656400206E6F7468
:1007F00020656E74657265642E0A0050726F7465B0
:10080000637465642050696E0A0020573A004520E1
:10081000436F6F6C696E672E2E2E00452048656110
:1008200074696E672E2E2E0020573A0042656420B0
:10083000636F6F6C696E672E2E2E004265642068B0
:10084000656174696E672E2E2E00000000000102A3
:1008500004040000001C1C0C04040402010000003D
:10086000000004081000000000002D2D2D2D2D2D5E
:10087000007C4D61726C696E7C002D2D2D2D2D2D0F
:1008800000687474703A2F2F6D61726C696E6677B0
:100890002E6F726700687474703A2F2F6D61726CDE
:1008A000696E66772E6F72670020312E312E390007
:1008B000494E56414C49442044415441004D323444
:1008C0002053256C642054256C64004D3233202560
:1008D00073004739322E30205A2573204525730086
:1008E0004D34323020532569205A25730047323861
:1008F00020523020582059004731205A32004739C1
:10090000322E30205A30004D343230205330205AAD
:1009100030002020506C616E6E65724275666665AF
:100920007242797465733A20002046726565204DE5
:10093000656D6F72793A2000436F6D70696C656404
:100940003A204A616E20313920323031390A002094
:100950007C20417574686F723A20546F62696173CC
:100960002052656974686D656965720A00323031BC
:10097000382D30382D303100204C61737420557083
:1009800064617465643A2000312E312E390A004DBD
:1009900061726C696E0020536F66747761726520B6
:1009A00052657365740A00205761746368646F67E9
:1009B0002052657365740A002042726F776E206F53
:1009C00075742052657365740A00204578746572E9
:1009D0006E616C2052657365740A00506F776572A2
:1009E00055700A0073746172740A006175746F2522
:1009F000692E67006572726F722077726974696E12
:100A00006720746F2066696C650A005772697469A3
:100A10006E6720746F2066696C653A2000456E64CD
:100A200073746F7073202563202563202563202550
:100A30006300205A3A0020593A0020583A00656E67
:100A40006473746F7073206869743A2000446F6E29
:100A50006520736176696E672066696C652E0A0091
:100A60004D32390024F4D43050C38E20C2A2401736
:100A7000828B7011127A910D816CD90AA861E108FC
:100A8000C7586607615143061E4B5D05C145A70463
:100A90001A411104093D9803713931034036DB02D4
:100AA00065339102D4305402802E1D02632CEE0176
:100AB000752AC501B028A001102781018F25640186
:100AC0002B244B01E0223401AC211F018D200D01AC
:100AD000801FFC00841EED00971DDF00B81CD200B3
:100AE000E61BC600201BBC00641AB200B219A800A5
:100AF0000A19A0006A189900D117910040178B00BD
:100B0000B516840031167E00B31579003A157300CE
:100B1000C7146F0058146A00EE1366008813630050
:100B200025135E00C7125B006C12570015125400AB
:100B3000C111510070114F0021114B00D610490016
:100B40008D1047004610440002104200C00F4000C4
:100B5000800F3E00420F3C00060F3B00CB0E3800DA
:100B6000930E37005C0E3500270E3400F30D320073
:100B7000C10D3100900D3000600D2E00320D2D00A2
:100B8000050D2C00D90C2B00AE0C2900850C29007A
:100B90005C0C2700350C27000E0C2600E80B240007
:100BA000C40B2400A00B23007D0B23005A0B210053
:100BB000390B2100180B2000F80A1F00D90A1E006B
:100BC000BB0A1E009D0A1D00800A1D00630A1C004E
:100BD000470A1B002C0A1B00110A1A00F7091A0009
:100BE000DD091900C4091900AB09190092091700A1
:100BF0007B091800630917004C0916003609160016
:100C0000200916000A091500F5081500E00814006F
:100C1000CC081400B8081400A408140090081300AD
:100C20007D0812006B0813005808120046081200D5
:100C300034081100230811001208110001081100E6
:100C4000F0071000E0071000D0071000C0071000E8
:100C5000B0070F00A107100091070E0083070F00D7
:100C600074070F0065070E0057070E0049070E00B6
:100C70003B070D002E070E0020070D0013070D0087
:100C800006070D00F9060C00ED060D00E0060C004D
:100C9000D4060C00C8060C00BC060C00B0060C0004
:100CA000A4060B0099060C008D060B0082060B00B3
:100CB00077060B006C060B0061060A0057060B0056
:100CC0004C060A0042060A0038060A002E060A00F0
:100CD00024060A001A060A001006090007060A0080
:100CE000FD050900F4050900EB050900E20509000E
:100CF000D9050900D0050900C7050900BE0509008E
:100D0000B5050800AD050800A50509009C0508000B
:100D1000940508008C050800840508007C0508007F
:100D2000740508006C050700650508005D050700EF
:100D3000560508004E050700470507004005080056
:100D400038050700310507002A05070023050700BD
:100D50001C050600160507000F050700080506001C
:100D600002050700FB040600F5040700EE04060078
:100D7000E8040600E2040700DB040600D5040600D0
:100D8000CF040600C9040600C3040600BD04060023
:100D9000B7040600B1040500AC040600A604060072
:100DA000A00405009B0406009504050090040600BD
:100DB0008A04050085040500800406007A04050005
:100DC00075040500700405006B0405006604050049
:100DD000610405005C040500570405005204050089
:100DE0004D04050048040500430405003E040400CA
:100DF0003A04050035040500300404002C04050005
:100E000027040400230405001E0404001A0404003F
:100E100016040500110404000D0404000904050073
:100E20000404040000040400FC030400F8030400AC
:100E3000F4030400F0030400EC030400E8030400DE
:100E4000E4030400E0030400DC030400D80304000E
:100E5000D4030400D0030400CC030400C80303003F
:100E6000C503030024F404D9201BC40C5C0E9804B1
:100E7000C4095F0265077101F405F900FB04B300C2
:100E800048048700C1036900580355000303450067
:100E9000BE023A008402310053022A0029022500D2
:100EA00004022000E4011C00C8011900AF01170072
:100EB00098011400840113007101100061011000F9
:100EC00051010E0043010D0036010B002B010B00F8
:100ED00020010B00150109000C01090003010800A5
:100EE000FB000800F3000800EB000700E400060028
:100EF000DE000600D8000600D2000600CC00050087
:100F0000C7000500C2000500BD000400B9000400D0
:100F1000B5000400B1000400AD000400A900040005
:100F2000A5000300A20003009F0004009B00030033
:100F30009800030095000200930003009000030056
:100F40008D0002008B000300880002008600020072
:100F500084000300810002007F0002007D00020087
:100F60007B00020079000200770001007600020099
:100F70007400020072000100710002006F000200A4
:100F80006D0001006C0002006A00010069000200AF
:100F900067000100660001006500010064000200B6
:100FA0006200010061000100600001005F000200BA
:100FB0005D0001005C0001005B0001005A000100BF
:100FC00059000100580001005700010056000100BF
:100FD00055000100540001005300000053000100BF
:100FE0005200010051000100500001004F000100BB
:100FF0004E0000004E0001004D0001004C000100B9
:101000004B0000004B0001004A00010049000100B4
:1010100048000000480001004700010046000000B1
:1010200046000100450000004500010044000100A9
:1010300043000000430001004200000042000100A4
:101040004100000041000100400001003F0000009D
:101050003F0001003E0000003E0001003D00000096
:101060003D0001003C0000003C0000003C0001008D
:101070003B0000003B0001003A0000003A00010084
:10108000390000003900010038000000380000007D
:101090003800010037000000370001003600000072
:1010A0003600000036000100350000003500000069
:1010B000350001003400000034000000340001005D
:1010C0003300000033000000330001003200000054
:1010D0003200000032000100310000003100000049
:1010E000310001003000000030000000300001003D
:1010F0002F0000002F0000002F0000002F00010033
:101100002E0000002E0000002E0001002D00000027
:101110002D0000002D0000002D0001002C0000001B
:101120002C0000002C0000002C0001002B0000000F
:101130002B0000002B0000002B0001002A00000003
:101140002A0000002A0000002A00010029000000F7
:1011500029000000290000002900000029000100EA
:1011600028000000280000002800000028000000DF
:1011700028000100270000002700000027000000D1
:1011800027000000270001002600000026000000C4
:1011900026000000260000002600010025000000B7
:1011A00025000000250000002500000025000000AB
:1011B000250001002400000024000000240000009D
:1011C0002400000024000100230000002300000090
:1011D0002300000023000000230000002300000083
:1011E0002300010022000000220000002200000075
:1011F0002200000022000000220001002100000067
:10120000210000002100000021000000210000005A
:10121000210000002100010020000000200000004B
:10122000200000002000000020000000200000003E
:1012300020000000200001001F0000001F0000002F
:101240001F0000001F0000001F0000001F00000022
:101250001F0001001E0000001E0000001E00000014
:101260001E000000393000003325000087190000FF
:10127000B00F0000DB080000BD0400007402000095
:101280003F0100006265640A002C20737973746565
:101290006D2073746F70706564212048656174659A
:1012A000725F49443A200042656420686561746950
:1012B0006E67206661696C65640048656174696E7B
:1012C00067206661696C656400453120486561741A
:1012D000696E67206661696C656400486561746960
:1012E0006E67206661696C65640070012C01900175
:1012F0002701B0012201C0011D01F00118011002F7
:10130000130130020E016002090190020401C002C3
:10131000FF000003FA004003F5008003F000D00353
:10132000EB002004E6007004E100E004DC0040056E
:10133000D700C005D2004006CD00D006C800800707
:10134000C3003008BE00F008B900C009B400B00AFC
:10135000AF00B00BAA00D00CA500000EA000500FEB
:101360009B00C01096005012910000148C00C01514
:101370008700B0178200B0197D00D01B7800001ED6
:10138000730040206E0090226900F0246400402722
:101390005F0090295A00E02B5500102E500020309D
:1013A0004B0010324600E033410090353C001037CE
:1013B000370070383200A0392D00B03A2800A03B29
:1013C0002300603C1E00103D1900903D1400103EAB
:1013D0000F00703E0A00C03E0500003F0000403F85
:1013E000FBFF803FF6FFC03FF1FF453120544845E9
:1013F000524D414C2052554E4157415900424544AF
:1014000020544845524D414C2052554E4157415968
:1014100000546865726D616C2052756E61776179F8
:10142000004531204572723A204D415854454D5087
:10143000004572723A204D415854454D5020424566
:1014400044004D415854454D50207472696767659A
:10145000726564004531204572723A204D494E5400
:10146000454D50004572723A204D494E54454D50FD
:1014700020424544004D494E54454D5020747269F8
:10148000676765726564004D383420582059205ACA
:10149000204500202F002042403A0020403A0025FD
:1014A000753A2530327500253032753A253032755F
:1014B000002D2D2D0053440020202020202000202E
:1014C00020202000416E7963756269632069332BA7
:1014D0002052656164792E005072696E74696E677E
:1014E0002E2E2E005072696E7420706175736564C3
:1014F000004D3130362050256920532569004D318B
:10150000303920532569004D313930205325690089
:101510004D3432302053300A473238205230205870
:1015200020590053746F70207072696E7400526598
:1015300073756D65207072696E7400506F77657297
:101540002D4C6F7373205265636F7665727900500E
:1015500072696E742061626F72746564004E6F20F0
:1015600053442063617264005072696E7420667225
:101570006F6D2053440053746F70207072696E74E5
:1015800000526573756D65207072696E74004162FA
:101590006F7574205072696E746572005061757356
:1015A00065207072696E7400436F6E74726F6C00A8
:1015B000507265706172650054756E6500496E66A3
:1015C0006F2073637265656E0020746F6F206C6F9F
:1015D0006E6720657874727573696F6E20707265BE
:1015E00076656E7465640A0020636F6C64206578AC
:1015F00074727573696F6E2070726576656E74654E
:10160000640A00556E6B6E6F776E20636F6D6D614F
:101610006E643A2022000000484200004842000068
:1016200080400000000053442063617264206F6BAF
:101630000A006F70656E526F6F74206661696C6529
:10164000640A00766F6C756D652E696E697420662C
:1016500061696C65640A00534420696E6974206690
:1016600061696C0A0046696C652064656C65746527
:10167000643A0044656C6574696F6E206661696CDC
:1016800065642C2046696C653A200057726974695C
:101690006E6720746F2066696C653A20006F706514
:1016A0006E206661696C65642C2046696C653A2021
:1016B000006F70656E206661696C65642C204669F8
:1016C0006C653A200046696C652073656C656374CF
:1016D00065640A002053697A653A200046696C65A2
:1016E000206F70656E65643A20002066696C653A0B
:1016F0002000646F696E67006672657368004E6FE4
:10170000772000454E4420535542524F5554494E80
:10171000450A002220706F73002220706172656E8E
:10172000743A2200535542524F5554494E45204376
:10173000414C4C207461726765743A22004B494CED
:101740004C45442E2000747279696E6720746F20B6
:1017500063616C6C207375622D67636F64652066CE
:10176000696C6573207769746820746F6F206D6190
:101770006E79206C6576656C732E204D4158206C17
:101780006576656C2069733A004572726F723A0033
:10179000001C1F11111F00000006191803130C0074
:1017A000040E1F041C000000000E1315110E000093
:1017B0001C10181705060500040A0A0A0A11110E62
:1017C0000C12120C00000000001F1511151F000064
:1017D0004C6576656C696E6720446F6E6521004DBF
:1017E0006F7665205A00473239205332004E6578B3
:1017F0007420506F696E74002569202F20257500B4
:101800004732392053310047323920533200436C7C
:1018100069636B20746F20426567696E00486F6D65
:10182000696E672058595A004732380053746F72F6
:10183000652073657474696E6773004C6F61642012
:1018400073657474696E6773004C6576656C2063AC
:101850006F726E65727300426564205A004265645F
:10186000205A0046616465204865696768740046CF
:101870006164652048656967687400466164652035
:10188000486569676874004F6666004F6E200042C5
:101890006564204C6576656C696E67004C6576659D
:1018A0006C206265640050726570617265004D3431
:1018B0003238005072656865617420504C410043B5
:1018C0006F6F6C646F776E0050726568656174202D
:1018D0004142530044697361626C652073746570A2
:1018E00070657273004D38340053657420686F6DF5
:1018F00065206F66667365747300426564204C658D
:1019000076656C696E67004175746F20686F6D65F0
:1019100000473238004D6F76652061786973004D5D
:1019200061696E004D6F76652058004D6F766520B9
:1019300059004D6F7665205A00457874727564655C
:1019400072004D6F766520302E316D6D004D6F76D3
:101950006520316D6D004D6F76652031306D6D0005
:101960004D6F76652061786973004578747275648F
:101970006572004D6F7665205A004D6F766520596F
:10198000004D6F7665205800205A3A0020593A00E1
:1019900020436F756E7420583A0020453A00205A53
:1019A0003A0020593A00583A003A004361703A0030
:1019B000205A00205900580020204D61783A20001C
:1019C000205A00205900580020204D696E3A20000E
:1019D0004F6E20004F666600536F667420656E641C
:1019E00073746F70733A200023646566696E6520B6
:1019F00044454641554C545F4B6420002364656662
:101A0000696E652044454641554C545F4B69200042
:101A100023646566696E652044454641554C545FB4
:101A20004B702000504944204175746F74756E6589
:101A30002066696E6973686564212050757420742E
:101A40006865206C617374204B702C204B69206199
:101A50006E64204B6420636F6E7374616E747320C8
:101A600066726F6D2062656C6F7720696E746F208F
:101A7000436F6E66696775726174696F6E2E680A6E
:101A800000504944204175746F74756E652066611D
:101A9000696C6564212074696D656F75740A004511
:101AA0003120544845524D414C2052554E415741EA
:101AB0005900546865726D616C2052756E61776172
:101AC000790045312048656174696E6720666169F7
:101AD0006C65640048656174696E67206661696C55
:101AE000656400504944204175746F74756E6520BB
:101AF0006661696C6564212054656D7065726174FE
:101B000075726520746F6F20686967680A00204BE2
:101B1000643A2000204B693A2000204B703A2000A4
:101B20000A20436C617373696320504944200A00A2
:101B30002054753A2000204B753A2000206D6178C2
:101B40003A2000206D696E3A200020643A2000207F
:101B5000626961733A2000504944204175746F7482
:101B6000756E65206661696C656421204261642040
:101B70006578747275646572206E756D6265720A3F
:101B800000504944204175746F74756E65207374FC
:101B90006172740A004F66660A00466164652048F7
:101BA00065696768742000426564204C6576656CE1
:101BB000696E6720004661696C656420746F2065FA
:101BC0006E61626C6520426564204C6576656C6967
:101BD0006E670A004D65736820426564204C657627
:101BE000656C20646174613A0A004D657368207009
:101BF0006F696E742063616E6E6F7420626520720F
:101C000065736F6C7665640A004D34323120696EFD
:101C1000636F727265637420706172616D65746563
:101C2000722075736167650A00486F6D65202573C2
:101C30002573257320666972737400206669727358
:101C4000740A005A0059005800486F6D6520004F13
:101C5000666673657473206170706C6965640045B5
:101C600072723A20546F6F206661722100546F6F58
:101C7000206661722066726F6D207265666572659E
:101C80006E636520706F696E740A004578747275B2
:101C9000646572004D6F7665205A004D6F76652041
:101CA00059004D6F766520580050726570617265FD
:101CB00000496E697469616C697A652045455052C6
:101CC0004F4D00436F6E74726F6C00526573746F8A
:101CD0007265206661696C73616665004C6F616452
:101CE0002073657474696E677300496E6974696105
:101CF0006C697A6520454550524F4D0053746F72A0
:101D0000652073657474696E67730046696C616DF4
:101D1000656E74004D6F74696F6E0054656D70650B
:101D2000726174757265004D61696E00507265680C
:101D30006561742041425320636F6E660050726586
:101D40006865617420504C4120636F6E6600504995
:101D5000442D44005049442D44005049442D49002D
:101D60005049442D49005049442D50005049442DBC
:101D70005000200220466163740020022046616307
:101D800074002002204D6178002002204D6178000F
:101D90002002204D6178002002204D696E00200253
:101DA000204D696E002002204D696E004F6666006E
:101DB0004F6E20004175746F74656D700046616EE2
:101DC0002073706565640046616E2073706565649C
:101DD0000046616E20737065656400426564004270
:101DE000656400426564004E6F7A7A6C65004E6FE0
:101DF0007A7A6C65004E6F7A7A6C6500436F6E7408
:101E0000726F6C0053746F72652073657474696EC1
:101E10006773004265640042656400426564004E79
:101E20006F7A7A6C65004E6F7A7A6C65004E6F7AC5
:101E30007A6C650046616E2073706565640046616A
:101E40006E2073706565640046616E207370656511
:101E5000640054656D706572617475726500454506
:101E600050524F4D206461746173697A65206572C8
:101E7000726F722E0A00290A002062797465733B22
:101E800020637263200053657474696E6773205316
:101E9000746F726564202800290A002062797465D5
:101EA000733B2063726320002073746F726564203B
:101EB00073657474696E6773207265747269657690
:101EC0006564202800202863616C63756C6174650B
:101ED0006429210A0020213D2000454550524F4DE4
:101EE00020435243206D69736D61746368202D2017
:101EF0002873746F7265642920002053697A653AEB
:101F00002000496E6465783A2000204D61726C694A
:101F10006E3D563535290A0028454550524F4D3DF6
:101F200000454550524F4D2076657273696F6E20A3
:101F30006D69736D6174636820007C3C3E5E2B3D6F
:101F40003F2F5B5D3B2C2A225C0056652D6A657233
:101F50006B0056652D6A65726B0056652D6A657259
:101F60006B00567A2D6A65726B00567A2D6A65721F
:101F70006B0056792D6A65726B0056792D6A657211
:101F80006B0056792D6A65726B0056782D6A657202
:101F90006B0056782D6A65726B0056782D6A6572F3
:101FA0006B004D6F74696F6E004573746570732FAD
:101FB0006D6D004573746570732F6D6D005A737489
:101FC0006570732F6D6D005A73746570732F6D6D2E
:101FD000005973746570732F6D6D0059737465705B
:101FE000732F6D6D005873746570732F6D6D00588D
:101FF00073746570732F6D6D004D6F74696F6E0033
:1020000053746570732F6D6D004A65726B00416388
:1020100063656C65726174696F6E0056656C6F63A1
:1020200069747900436F6E74726F6C0046696C2E30
:10203000204469612E0046696C2E204469612E009F
:102040004F6666004F6E20004520696E206D6D332F
:1020500000436F6E74726F6C0043616E6E6F74201C
:10206000656E746572207375626469723A2000054A
:102070002E2E004D61696E004B494C4C45442E207C
:10208000004B494C4C206361757365642062792074
:102090004B494C4C20627574746F6E2F70696E0AD8
:1020A000004B494C4C45442E20004B494C4C20637E
:1020B000617573656420627920746F6F206D75633C
:1020C0006820696E6163746976652074696D652046
:1020D0002D2063757272656E7420636F6D6D616E15
:1020E000643A2000506C6561736520726573657495
:1020F000005052494E5445522048414C54454400EA
:102100005072696E7465722068616C7465642E200B
:102110006B696C6C28292063616C6C6564210A0012
:102120000000000000000000000000005761726E17
:10213000696E673A20486F6D696E672042756D70F1
:102140002044697669736F72203C20310A000202D4
:10215000030000A0400000A0400000004000005C20
:102160004300005C4300007A43FFFFFF4D33310022
:1021700053442072656164206572726F720A004474
:102180006F6E65207072696E74696E672066696C27
:10219000650A004B494C4C45442E200053544F5087
:1021A0005045442E20005072696E7465722073741D
:1021B0006F707065642064756520746F206572723D
:1021C0006F72732E2046697820746865206572727C
:1021D0006F7220616E6420757365204D3939392026
:1021E000746F20726573746172742E202854656D4B
:1021F00070657261747572652069732072657365AC
:10220000742E205365742069742061667465722091
:1022100072657374617274696E67290A004E6F206B
:10222000436865636B73756D2077697468206C69AA
:102230006E65206E756D6265722C204C6173742022
:102240004C696E653A20004E6F20436865636B737E
:10225000756D2077697468206C696E65206E756D88
:102260006265722C204C617374204C696E653A2053
:1022700000636865636B73756D206D69736D617460
:1022800063682C204C617374204C696E653A2000A1
:102290004C696E65204E756D626572206973206EA3
:1022A0006F74204C617374204C696E65204E756D9F
:1022B0006265722B312C204C617374204C696E6501
:1022C0003A20004D31313000436172642072656DF7
:1022D0006F766564004361726420696E7365727421
:1022E0006564004D61782054656D703A203131305D
:1022F000004D696E2054656D703A2035005442657A
:10230000643A4550434F53203130304B004D617893
:102310002054656D703A20323630004D696E20547D
:10232000656D703A20350054303A204550434F5384
:10233000203130304B005053553A2047656E65725E
:1023400069630050726F746F636F6C3A20312E3086
:1023500000426175643A20323530303030005241ED
:102360004D505320312E33004D657368204C6576F7
:10237000656C696E67004578747275646572733A4E
:10238000203100687474703A2F2F6D61726C696E21
:1023900066772E6F726700416E796375626963209C
:1023A00069332B00323031382D30382D3031003147
:1023B0002E312E39004D61726C696E005468657261
:1023C0006D6973746F727300426F61726420496E3D
:1023D000666F005072696E74657220496E666F0098
:1023E0004D61696E004261627973746570205A00B4
:1023F0004261627973746570205A00466C6F770091
:10240000466C6F7700466C6F770046616E20737084
:102410006565640046616E207370656564004661A1
:102420006E207370656564004265640042656400F7
:10243000426564004E6F7A7A6C65004E6F7A7A6CF2
:1024400065004E6F7A7A6C65004661646520486568
:1024500069676874004661646520486569676874E7
:102460000046616465204865696768740042656478
:10247000205A00426564205A005370656564005319
:1024800070656564005370656564004D61696E0038
:102490005072656865617420504C4120456E64003F
:1024A0005072656865617420504C4120426564003B
:1024B0005072656865617420504C410050726570BF
:1024C00061726500507265686561742041425320F5
:1024D000456E640050726568656174204142532006
:1024E0004265640050726568656174204142530022
:1024F00050726570617265004261636B004E657871
:102500007420636F726E65720048617264636F64F9
:1025100065642044656661756C74205365747469E4
:102520006E6773204C6F616465640A00B80B00002D
:10253000B80B000032000000102700000000964396
:10254000000096430000C0400000C8410000A042C7
:102550000000A0420000C8433333B94254524947F7
:102560004745524544006F70656E003A20007A5F1F
:102570006D696E00795F6D696E00785F6D696E00E0
:102580005265706F7274696E6720656E6473746FE4
:1025900070207374617475730A000A4D65617375F8
:1025A00072656420706F696E74733A0A005A206F06
:1025B00066667365743A20004E756D20582C593A42
:1025C00020332C330A00000000010000000100004D
:1025D0008000555555000000400033333300AAAA4F
:1025E0002A004992240000002000C7711C0099991C
:1025F0001900D1451700555515003BB1130024496A
:10260000120011111100000010000F0F0F00E3382D
:102610000E0043790D00CCCC0C00C3300C00E8A2B6
:102620000B0064210B00AAAA0A00703D0A009DD885
:102630000900427B090092240900DCD30800888845
:1026400008001042080000000800F0C1070087875A
:10265000070075500700711C07003EEB0600A1BC87
:1026600006006990060066660600703E0600611866
:10267000060017F4050074D105005BB00500B290A8
:102680000500627205005555050078390500B81E31
:102690000500050505004EEC040087D40400A1BD2B
:1026A000040090A7040049920400C17D0400EE6973
:1026B0000400C7560400444404005C3204000821AE
:1026C000040041100400000004003FF00300F8E0A3
:1026D000030026D20300C3C30300CCB503003AA80D
:1026E00003000A9B0300388E0300C08103009F751E
:1026F0000300D0690300505E03001D5303003448FB
:102700000300913D03003333030016290300381FF3
:10271000030097150300300C0300030303000BFABA
:10272000020049F10200BAE802005CE002002DD884
:1027300002002DD0020059C80200B0C0020031B919
:102740000200DAB10200AAAA0200A0A30200BC9C07
:102750000200FA9502005C8F0200DF88020082828C
:102760000200457C02002776020027700200436ABF
:1027700002007C640200D05E02003F590200C85390
:102780000200FFFDFCFAF8F6F4F2F0EEECEAE9E7FD
:10279000E5E3E1E0DEDCDAD9D7D5D4D2D0CFCDCBBA
:1027A000CAC8C7C5C3C2C0BFBDBCBAB9B7B6B4B347
:1027B000B2B0AFADACAAA9A8A6A5A4A2A1A09E9DA7
:1027C0009C9A99989795949392908F8E8D8B8A89E5
:1027D00088878684838281807F7E7D7B7A79787703
:1027E000767574737271706F6E6D6C6B6A69686701
:1027F000666564636261605F5E5D5C5B5A595858F0
:102800005756555453525150504F4E4D4C4B4A4AC7
:102810004948474646454443424241403F3E3E3D8B
:102820003C3B3B3A39383837363535343332323140
:1028300030302F2E2E2D2C2B2B2A292928272726E6
:10284000252524232322212120201F1E1E1D1C1C80
:102850001B1B1A191918181716161515141313120D
:10286000121111100F0F0E0E0D0D0C0C0B0A0A0990
:102870000908080707060605050404030302020108
:1028800000005654726176206D696E005654726174
:1028900076206D696E005654726176206D696E0007
:1028A000566D696E00566D696E00566D696E005604
:1028B0006D6178204500566D6178204500566D6148
:1028C00078204500566D6178205A00566D61782059
:1028D0005A00566D6178205A00566D617820590073
:1028E000566D6178205900566D6178205900566DFB
:1028F0006178205800566D6178205800566D6178D7
:102900002058004D6F74696F6E00416D61782045ED
:1029100000416D6178204500416D6178205A004189
:102920006D6178205A00416D6178205900416D61D8
:1029300078205900416D6178205800416D61782000
:102940005800412D74726176656C00412D7472617E
:1029500076656C00412D7265747261637400412D5F
:102960007265747261637400416363656C004163F6
:1029700063656C004D6F74696F6E00000021002468
:102980000027002A002D0030003300010100000460
:102990000107010A0100002200250028002B002E5B
:1029A000003100340002010000050108010B0100A4
:1029B0000020002300260029002C002F00320000F8
:1029C00001000003010601090105050505070508C9
:1029D000080808020202020A0A08080404040401A2
:1029E00001010101010101030303030303030304C4
:1029F0000707070C0C0C0C0C0C0C0C020202020654
:102A0000060606060606060B0B0B0B0B0B0B0B0143
:102A100002102020080810204010204080020102EF
:102A200001080402010102040810204080804020B7
:102A300010080402018004020180402010080402F2
:102A40000108040201010204081020408001020470
:102A5000081020408000000A0B02090C0D0E080728
:102A6000030401000000000000000000000000005E
:102A70000000000000000000000000000000000056
:102A80000012111000000000000000000000000013
:102A900000000000000000000000004D3234004D36
:102AA0003233202573006F70656E206661696C6536
:102AB000642C2046696C653A200043616E6E6F7429
:102AC000206F70656E2073756264697220006563A3
:102AD000686F3A006F70656E206661696C65642C82
:102AE0002046696C653A20004572726F72207772D9
:102AF0006974696E6720746F20454550524F4D21AF
:102B00000A00526573656E643A20006F6B00207492
:102B10006F6F206C6F6E6720657874727573696F64
:102B20006E2070726576656E7465640A0020636F4E
:102B30006C6420657874727573696F6E207072654D
:102B400076656E7465640A003DEB5CE911241FBE76
:102B5000CFEFD1E2DEBFCDBF00E00CBF13E0A0E0BD
:102B6000B2E0ECE0F6EF01E00BBF02C007900D927F
:102B7000AA33B107D9F72BE1AAE3B3E001C01D9254
:102B8000AF30B207E1F715E1C5EAD5E100E006C0D4
:102B900021970109802FFE010E9458FAC43AD107FB
:102BA00080E00807A9F70E94E8E10C94F5FA0C947C
:102BB00000002F923F924F925F926F927F928F927E
:102BC0009F92AF92BF92CF92DF92EF92FF920F93BC
:102BD0001F93CF93DF93CDB7DEB7CB56D1090FB696
:102BE000F894DEBF0FBECDBF80914D1A8D3411F425
:102BF0000C949D1F843511F40C94732B873411F0C1
:102C00000C94B62B20904B1A30904C1A2CE12216C3
:102C1000310409F43DC6A4F444E0241631044CF414
:102C200052E0251631040CF046C037FE3DC00C942E
:102C3000991F64E02616310409F4ECC50C94991F21
:102C40007AE52716310411F40C94DB1E6CF49DE137
:102C50002916310409F421C6AAE22A16310411F416
:102C60000C94501E0C94991FBBE52B16310411F4E3
:102C70000C94DF1EECE52E16310411F00C94991F14
:102C80002EE4222E22E0322E3EEBE32E3FE0F32E06
:102C900045EE5AE059AF48AF4AE4C42E4FE0D42E77
:102CA00000E010E00C941F1F8091120281110C941F
:102CB000BB2B0C94B82B80911202882311F40C9436
:102CC000B82B0E949F3082E50E949330882309F43C
:102CD00050C10E9417304B015C0120E030E0A90197
:102CE0000E94C3F0882309F474C12091E50A309151
:102CF000E60A4091E70A5091E80A28AF39AF4AAF97
:102D00005BAF4091E90A5091EA0A6091EB0A709139
:102D1000EC0A4CAF5DAF6EAF7FAF6091CA0F7091A0
:102D2000CB0F8091CC0F9091CD0F2C966CAF7DAFD7
:102D30008EAF9FAF2C978091CE0F9091CF0FA09127
:102D4000D00FB091D10F28968CAF9DAFAEAFBFAF73
:102D500028972C962CAD3DAD4EAD5FAD2C9768AD50
:102D600079AD8AAD9BAD0E94C3F081110FC028964A
:102D70002CAD3DAD4EAD5FAD28976CAD7DAD8EAD4C
:102D80009FAD0E94C3F0882309F423C111E092E0B3
:102D90002916310409F010E020E030E0A901C50156
:102DA000B4010E94C3F0881F8827881F181759F0A4
:102DB00020E030E040E85FEB64962CAF3DAF4EAFD3
:102DC0005FAF64970AC040E050E060E87FE364963C
:102DD0004CAF5DAF6EAF7FAF649728AD39AD4AADF4
:102DE0005BAD2C966CAD7DAD8EAD9FAD2C970E94EA
:102DF0003AF760966CAF7DAF8EAF9FAF60972CAD0A
:102E00003DAD4EAD5FAD28966CAD7DAD8EAD9FAD49
:102E100028970E943AF76B017C0160962CAD3DAD7E
:102E20004EAD5FAD6097CA01B9010E9428F12B0138
:102E30003C01A7019601C701B6010E9428F19B0140
:102E4000AC01C301B2010E943BF70E94A7F924968E
:102E50006CAF7DAF8EAF9FAF249720E030E040E0B5
:102E60005FE30E9428F12B013C01A5019401C501FB
:102E7000B4010E9428F14B015C01A3019201C3013E
:102E8000B2010E9428F19B01AC01C501B4010E946E
:102E90003AF70E94A7F964962CAD3DAD4EAD5FADFB
:102EA00064970E9428F14B015C01C701B60190585C
:102EB00024962CAD3DAD4EAD5FAD24970E9417F822
:102EC000A50194010E9428F16B017C012C962CAD88
:102ED0003DAD4EAD5FAD2C9768AD79AD8AAD9BAD84
:102EE0000E943BF720E030E040E05FE30E9428F1E1
:102EF0009B01AC01C701B6010E943BF728AD39AD7B
:102F00004AAD5BAD0E943AF76B017C0128962CAD6F
:102F10003DAD4EAD5FAD28976CAD7DAD8EAD9FAD37
:102F20000E943BF720E030E040E05FE30E9428F1A0
:102F30002B013C0124962CAD3DAD4EAD5FAD2497E9
:102F400060966CAD7DAD8EAD9FAD60970E9417F819
:102F5000A50194010E9428F19B01AC01C301B201BB
:102F60000E943BF72CAD3DAD4EAD5FAD0E943AF7F0
:102F700014C089E40E949330882329F00E941730FE
:102F80006B017C0103C0C12CD12C76018AE40E9424
:102F90009330882309F10E9417302C966CAF7DAFD7
:102FA0008EAF9FAF2C9720E030E0A901C701B6019A
:102FB0000E94C3F081111FC020E030E0A9012C96CF
:102FC0006CAD7DAD8EAD9FAD2C970E94C3F081118D
:102FD00012C0E9E8F7E10AC420E030E0A901C70126
:102FE000B6010E94C3F08823A1F32C961CAE1DAE3F
:102FF0001EAE1FAE2C97C701B601905868AF79AFCF
:103000008AAF9BAF2C968CAD9DADAEADBFAD2C976E
:10301000B0588CAF9DAFAEAFBFAF28AD39AD4AADA4
:103020005BADCA01B9010E9428F14B015C012CADD6
:103030003DAD4EAD5FADCA01B9010E9428F19B01C3
:10304000AC01C501B4010E943BF70E94A7F9A0960C
:103050006CAF7DAF8EAF9FAFA0972091E50A309106
:10306000E60A4091E70A5091E80A28962CAF3DAF56
:103070004EAF5FAF2897A701960128966CAD7DAD46
:103080008EAD9FAD28970E943BF764966CAF7DAFE5
:103090008EAF9FAF64974091E90A5091EA0A609120
:1030A000EB0A7091EC0A60964CAF5DAF6EAF7FAFEC
:1030B00060972C962CAD3DAD4EAD5FAD2C976096D4
:1030C0006CAD7DAD8EAD9FAD60970E943BF7A49631
:1030D0006CAF7DAF8EAF9FAFA4976091CA0F709118
:1030E000CB0F8091CC0F9091CD0F68966CAF7DAFD8
:1030F0008EAF9FAF689764962CAD3DAD4EAD5FAD82
:1031000064970E943AF76B017C018091CE0F9091F9
:10311000CF0FA091D00FB091D10F6C968CAF9DAF17
:10312000AEAFBFAF6C97A4962CAD3DAD4EAD5FADCD
:10313000A497BC01CD010E943AF74B015C0120919C
:10314000ED0A3091EE0A4091EF0A5091F00AA896EC
:103150002CAF3DAF4EAF5FAFA8976091D20F70918B
:10316000D30F8091D40F9091D50F0E943AF72496F7
:103170006CAF7DAF8EAF9FAF2497A701960168AD6E
:1031800079AD8AAD9BAD0E9428F12B013C01A501D0
:1031900094016CAD7DAD8EAD9FAD0E9428F19B0179
:1031A000AC01C301B2010E943BF72B013C01A50118
:1031B000940168AD79AD8AAD9BAD0E9428F14B01B9
:1031C0005C01A70196016CAD7DAD8EAD9FAD0E94F7
:1031D00028F19B01AC01C501B4010E943AF7A3019B
:1031E00092010E94AEF76B017C0120E030E0A90162
:1031F0000E94C3F087FF0AC02BED3FE049EC50E48A
:10320000C701B6010E943BF76B017C0132E0231637
:10321000310451F42BED3FE049EC50E4C701B60115
:103220000E943AF76B017C0120E030E0A901C70160
:10323000B6010E94C3F0811128C068962CAD3DAD47
:103240004EAD5FAD689728966CAD7DAD8EAD9FADF0
:1032500028970E94C3F0811118C06C962CAD3DAD2B
:103260004EAD5FAD6C9760966CAD7DAD8EAD9FAD94
:1032700060970E94C3F0811108C09BEDC92E9FE0AA
:10328000D92E99ECE92E90E4F92EA7019601A0968B
:103290006CAD7DAD8EAD9FADA0970E9428F14B0126
:1032A0005C0120E030E0A90124966CAD7DAD8EADCF
:1032B0009FAD24970E94C3F08823E9F0A5019401F3
:1032C000C501B4010E9428F14B015C0124962CAD8C
:1032D0003DAD4EAD5FAD2497CA01B9010E9428F102
:1032E0009B01AC01C501B4010E943BF70E94A7F904
:1032F0004B015C010DC020E030E0A901C501B40123
:103300000E9461F987FF04C0B7FAB094B7F8B0948F
:103310002FE632E143E85AE3C501B4010E94C3F04D
:1033200087FF02C00C94B82BC501B4010E94B0F80D
:103330000E9484F82E967FAF6EAF2E97672B31F4E4
:1033400041E050E02E965FAF4EAF2E974090F10ACD
:103350005090F20A6090F30A7090F40A2E96AEAD87
:10336000BFAD2E97BD0180E090E00E94C7F04B01F9
:103370005C019B01AC01C701B6010E9417F82896B9
:103380006CAF7DAF8EAF9FAF2897A50194012496B7
:103390006CAD7DAD8EAD9FAD24970E9417F8A096C1
:1033A0006CAF7DAF8EAF9FAFA097A30192016091EC
:1033B000D60F7091D70F8091D80F9091D90F0E949E
:1033C0003AF7A50194010E9417F8AC966CAF7DAF57
:1033D0008EAF9FAFAC9728962CAD3DAD4EAD5FAD97
:1033E0002897CA01B9010E9428F120E030E040E0AE
:1033F0005FE30E9428F19B01AC0160E070E080E88F
:103400009FE30E943AF768966CAF7DAF8EAF9FAF97
:103410006897A8962CAD3DAD4EAD5FADA8972987B6
:103420003A874B875C874D865E866F86788A609187
:10343000460270914702072E000C880B990B0E94E0
:10344000C9F02091190230911A0240911B0250914B
:103450001C020E9428F12AE037ED43E25CE30E945F
:1034600028F16CAB7DAB8EAB9FAB0E94A6D19B01CC
:10347000AC0128533F4F4F4F5F4F6C962CAF3DAF81
:103480004EAF5FAF6C9748AC59AC6AAC7BAC2224B2
:103490002394312C39E121963FAF21972E964EADE2
:1034A0005FAD2E974215530509F44DC10E94234884
:1034B0000E94A6D1DC01CB016C962CAD3DAD4EAD8A
:1034C0005FAD6C97821B930BA40BB50BB7FD10C0BF
:1034D0000E94A6D19B01AC0128533F4F4F4F5F4F35
:1034E0006C962CAF3DAF4EAF5FAF6C970E948EA233
:1034F00021963FAD2197315021963FAF219733233D
:1035000009F445C02CAD3DAD4EAD5FAD68966CADD8
:103510007DAD8EAD9FAD68970E9428F16B017C0157
:103520009201A30128966CAD7DAD8EAD9FAD28971D
:103530000E9428F1A70196010E943BF77B018C01B4
:103540009201A30168966CAD7DAD8EAD9FAD68977D
:103550000E9428F14B015C012CAD3DAD4EAD5FAD3D
:1035600028966CAD7DAD8EAD9FAD28970E9428F159
:103570009B01AC01C501B4010E943AF72B013C014B
:10358000C701D8018CAF9DAFAEAFBFAF55C0B10181
:1035900080E090E00E94C7F028962CAD3DAD4EAD86
:1035A0005FAD28970E9428F14B015C010E9414F83E
:1035B0006B017C01C501B4010E949DF94B015C01C6
:1035C000A701960168AD79AD8AAD9BAD0E9428F147
:1035D0002B013C012C962CAD3DAD4EAD5FAD2C9733
:1035E000C501B4010E9428F1A30192010E943BF79A
:1035F0002B013C01A501940168AD79AD8AAD9BAD6D
:103600000E9428F14B015C012C962CAD3DAD4EADD6
:103610005FAD2C97C701B6010E9428F19B01AC0158
:10362000C501B4010E943AF76CAF7DAF8EAF9FAF7A
:1036300049E121964FAF21979201A30164966CADA9
:103640007DAD8EAD9FAD64970E943BF769837A8311
:103650008B839C832CAD3DAD4EAD5FADA4966CAD20
:103660007DAD8EAD9FADA4970E943BF76D837E83A9
:103670008F839887A0962CAD3DAD4EAD5FADA097E2
:1036800069857A858B859C850E943BF769877A8757
:103690008B879C87AC962CAD3DAD4EAD5FADAC97A6
:1036A0006D857E858F8598890E943BF76D877E8723
:1036B0008F87988B80912D02882321F0CE0101966F
:1036C0000E94DE9DE09050101CA61DA61EA61FA6FF
:1036D00089819A81AB81BC8188A399A3AAA3BBA34A
:1036E0008D819E81AF81B8858CA39DA3AEA3BFA31E
:1036F00089859A85AB85BC8588A799A7AAA7BBA70A
:10370000AE01485D5F4FBE016C5D7F4FCE0180967C
:103710000E943462BE01645D7F4F6B018E010C5CC0
:103720001F4F9E01235F3F4FAE01485D5F4F6850C2
:103730007109CE0180960E94E953882321F07FEF22
:10374000271A370AABCEE090501018AA19AA1AAA65
:103750001BAA8091CA0F9091CB0FA091CC0FB09172
:10376000CD0F88A399A3AAA3BBA38091CE0F90915C
:10377000CF0FA091D00FB091D10F8CA39DA3AEA37A
:10378000BFA38091D20F9091D30FA091D40FB0918D
:10379000D50F88A799A7AAA7BBA7AE01485D5F4F21
:1037A000BE016C5D7F4FCE0180960E943462CE01D7
:1037B000C0966C018E010C5C1F4F26ED3FE0AE0100
:1037C000485D5F4FBE016C5D7F4F40970E94E9539B
:1037D00080E1EAECFFE0A5EEBAE001900D928A9557
:1037E000E1F70C94B82B0E941532F80184918F01F7
:1037F0000F5F1F4F8111F7CFE3EDF2E084918F014E
:103800000F5F1F4F882311F40C94B82B0E941532C0
:10381000F801F4CF80E50E949330882329F00E94BC
:10382000D72F6B017C0103C0C12CD12C760183E51D
:103830000E949330882361F00E94173020E030E02E
:103840004AE754E40E9428F10E9484F86B017C014D
:103850000E94B9618091BB0A811105C060E089EEC8
:1038600092E00E9470AB0E94A6D1C60ED71EE81E41
:10387000F91E0E94A6D1DC01CB018C199D09AE096D
:10388000BF09B7FD02C00C94B82B0E948EA2F1CFE5
:1038900080E00E942E310C94B82B83E50E94933077
:1038A000882399F00E94F72F182F863080F0E4EAE1
:1038B000F3E084918F010F5F1F4F882311F40C9464
:1038C000B82B0E941532F801F4CF10E010C08330FD
:1038D00009F452C130F4813081F1823009F441C0E1
:1038E00006C0843009F4AAC1853009F4B7C10E942A
:1038F000E82C811103C0E4E8F3E013C08091540880
:10390000882319F06CE073E002C060E173E08CE79B
:1039100093E00E946CC58AE00E9415320E9493C118
:10392000A3C184917F019FEFE91AF90A882309F462
:103930009BC10E941532F701F4CF0E9446C210923B
:103940000102109200028091400F81110AC081E7AC
:1039500093E090930E1780930D170E9441320C94C0
:10396000B82B809100029091010297FF0EC0E8E40D
:10397000F3E084918F010F5F1F4F882311F40C94A3
:10398000B82B0E941532F801F4CF0097A1F4809172
:103990002D0280933F0319821A821B821C8218A277
:1039A00019A21AA21BA2BE016F5F7F4FCE018096A3
:1039B0000E94C0682BC0815063E00E9408FA80FF1B
:1039C00003C022E0291B922F292F990F330BF901F5
:1039D000EE0FFF1FE20FF31FE80FF11D87FDFA95B1
:1039E000EE0FFF1FEE0FFF1FE555FF4E8091ED0A12
:1039F0009091EE0AA091EF0AB091F00A8083918332
:103A0000A283B38380913F0380932D0280910002B3
:103A100090910102893091050CF067C010922D023F
:103A20009C012F5F3F4F309301022093000263E01F
:103A30000E9408FA80FF03C022E0291B922F4091C8
:103A4000ED0A5091EE0A6091EF0A7091F00A48A3D6
:103A500059A36AA37BA319821A821B821C82A4E049
:103A60008A0290011124F901E05BF84E4F01208198
:103A7000318142815381F4E09F02C0011124BC01D5
:103A8000645A784E5B01DB016D917D918D919C9123
:103A9000FE0131966F01E12CF12C00EA10E40E9446
:103AA000F16719821A821B821C82B601CE018096B0
:103AB0000E94C068F50180819181A281B3818093C9
:103AC000E50A9093E60AA093E70AB093E80AF401A6
:103AD00080819181A281B3818093E90A9093EA0A5F
:103AE000A093EB0AB093EC0A44C080E090E0A0EA17
:103AF000B0E48093ED0A9093EE0AA093EF0AB0939E
:103B0000F00A0E94FA2D0E94B9618FEF9FEF909307
:103B1000010280930002E4E3F3E084918F010F5FE0
:103B20001F4F882321F00E941532F801F6CF83E958
:103B300092E09A83898304E610E019A308A3BE01EA
:103B40006F5F7F4FCE0180960E94BD678AEB92E047
:103B50009A83898319A308A3BE016F5F7F4FCE01AB
:103B600080960E94BD6781E00E942E3181E00E9414
:103B7000152D1092400F7AC088E50E94933088235B
:103B8000A1F00E94E72F1FEF160F1330A8F0EDE110
:103B9000F3E084918F010F5F1F4F882311F40C9481
:103BA000B82B0E941532F801F4CF88E50E94153237
:103BB0000E94D8E10C94B82B89E50E9493308823A9
:103BC000A1F00E94E72F0FEF060F0330A8F0E6E008
:103BD000F3E084918F010F5F1F4F882311F40C9441
:103BE000B82B0E941532F801F4CF89E50E941532F6
:103BF0000E94D8E10C94B82B8AE50E949330882368
:103C0000B1F00E941730212F30E0F901EE0FFF1FB5
:103C1000E20FF31FE00FF11DEE0FFF1FEE0FFF1F6E
:103C2000E555FF4E608371838283938335C08AE5B7
:103C30000E9415320E94D8E10C94B82B8AE50E94AC
:103C400093308823A1F30E9417306093420F709342
:103C5000430F8093440F9093450F1EC080E00E9455
:103C6000152D0E9446C218C01230B1F460910002B6
:103C7000709101026930710514F069E070E087EF1E
:103C800092E00E9453C569E070E082EF92E00E94EA
:103C900053C58AE00E9415320E94F6780C94B82B26
:103CA00080911202882311F40C94B82B89E40E94AD
:103CB0009330E82E882321F00E94E72F062F01C0C1
:103CC00000E08AE40E949330F82E882321F00E94BD
:103CD000E72F162F01C010E0EE2011F0033020F482
:103CE000FF2081F0133070F0EBEBF3E084918F0153
:103CF0000F5F1F4F882311F40C94B82B0E941532CC
:103D0000F801F4CF0E942431EE2091F024E0020269
:103D1000F0011124E45AF84E80819181A281B3818F
:103D20008093CA0F9093CB0FA093CC0FB093CD0F7D
:103D3000FF2091F034E01302F0011124E05BF84E13
:103D400080819181A281B3818093CE0F9093CF0F18
:103D5000A093D00FB093D10F80E50E9493308823B9
:103D600019F00E94083003C080E50E944A3086E4C2
:103D70000E9493308823D9F00E9417306B017C0198
:103D800020E030E0A9010E9461F9181684F420E0D7
:103D900030E040E752E4C701B6010E9417F8609393
:103DA000190270931A0280931B0290931C020E94C6
:103DB000EFDA0C94B82B10923E030C94B82B81E0F0
:103DC00080933E030C94B82B0E9417302B013C01CA
:103DD000133049F0F60120813181428153810E94E4
:103DE0003AF72B013C01A8ADB9AD2D913D914D9114
:103DF0005C91C301B2010E943AF74B015C012DEBCB
:103E000037E346E855EB0E9461F987FD20C02DEBB2
:103E100037E346E855E3C501B4010E94C3F0181624
:103E2000B4F01F5FB4E0EB0EF11CE8ADF9AD3496D1
:103E3000F9AFE8AFF4E0CF0ED11C143039F1D10165
:103E40008D911D010E949330882359F3BDCF13300B
:103E500051F44092F10A5092F20A6092F30A709281
:103E6000F40A01E0DECFA5019401F70160817181C0
:103E7000828193810E943BF7D7016D937D938D934F
:103E80009C931397812F0E94512ECBCF002309F4CE
:103E900003CF20E030E0A9016091F10A7091F20AAD
:103EA0008091F30A9091F40A0E943BF72091A80FA9
:103EB0003091A90F4091AA0F5091AB0F0E9428F1A9
:103EC0000E946DF960934C1770934D1780934E17B5
:103ED00090934F1790912A1780912B17981719F0EC
:103EE0000E945B61D9CE0E94B96180916F00982FCA
:103EF000927081FF05C080916F008D7F80936F006D
:103F000040914C1750914D1760914E1770914F177B
:103F10004093041B5093051B6093061B7093071B73
:103F2000992309F4B9CE80916F00826080936F006D
:103F3000B3CE0E941A690C94B82B80914B1A9091C1
:103F40004C1A8337910509F4D5C10CF0DFC08B34CE
:103F5000910509F4D4C40CF06EC08831910509F4C0
:103F600099C2E4F58231910509F4F5C5E4F497FFAF
:103F700002C00C94702B823091050CF4BEC14197A5
:103F800011F00C94702B60E08DEE93E00E9470AB0A
:103F90005F988A9880910801817080930601479804
:103FA00012980C94B82B8531910509F458C23CF451
:103FB000449711F00C94702BE5E0F4E012C28631C6
:103FC000910509F450C2479711F00C94702B0E9490
:103FD000D169E091491AF0914A1A4FC28D31910589
:103FE00011F40C94B82BC4F48A31910509F4D2C2AF
:103FF0000CF4CAC28B31910509F4DAC24C9711F066
:104000000C94702B40E060E08091491A90914A1A1C
:104010000E94AE640C94B82B8F31910509F48BC3C8
:104020000CF45EC38032910509F46FC28A9709F4DB
:1040300037C40C94702B8836910509F469C4F4F5E3
:104040008235910509F480C504F58D34910509F494
:104050005CC40CF457C48135910511F00C94702B9D
:104060000E9436440E94F66110920C1710920B17B2
:1040700068EE73E080E090E00E94C9AA60E08CEBFB
:1040800094E00E9470AB0C94B82B8435910509F430
:1040900062C50CF45CC58535910509F48BC58C357A
:1040A000910511F00C94702B1EE4C12E12E0D12E5C
:1040B0000CE9E02E0FE0F02E10E095C58D3691054D
:1040C00009F4F6C49CF48A36910509F411C50CF480
:1040D000B2C48B36910509F427C58C36910511F0D1
:1040E0000C94702B109208020C94B82B8F3691050B
:1040F00009F44AC40CF437C48037910509F497C415
:104100008237910509F4EEC50C94702B823E91051F
:1041100011F40C94E7290CF06DC08E3B910509F465
:10412000E4C45CF58837910509F4D4C664F4863795
:10413000910509F480C60CF0CAC68537910509F4CB
:104140006BC60C94702B8C38910509F4B4C45CF4E4
:104150008937910511F00C94702B10925D03109229
:104160005C030C94B82B8139910509F4B9C68B39DD
:10417000910509F478C40C94702B8D3C910511F4D1
:104180000C94E228ACF4893C910509F470C734F42E
:10419000883C910509F41BC70C94702B8B3C91054E
:1041A00009F487C78C3C910509F49DC70C94702BCA
:1041B000833D910511F40C946E2984F48E3C910595
:1041C00011F00C94702B4EE4C42E42E0D42E5FE329
:1041D000E52E58E0F52E10E00C945B298C3D9105FE
:1041E00011F40C9471298D3D910511F40C947C29E6
:1041F0000C94702B843A21E0920711F40C94332B29
:10420000ACF58E3241E0940711F40C94CE2A84F47C
:104210008C3261E0960711F40C94152A14F00C947A
:104220003A2A8232914011F40C940C2A0C94702B8F
:104230008336B1E09B0709F459C04CF48F329140AA
:1042400011F00C94702B0E94B3730C94B82B80392E
:1042500021E0920711F40C94302B8A39914011F02F
:104260000C94702B0E9472730C94B82B863F41E023
:10427000940711F40C94392BFCF48C3A61E0960706
:1042800011F40C946B294CF4853A914011F00C9484
:10429000702B0E9489720C94B82B843FB1E09B076D
:1042A00011F40C94362B853F914011F00C94702B37
:1042B0000E94DF8A0C94B82B8B38F3E09F0711F42F
:1042C0000C94B82B3CF4883F914011F40C943C2B97
:1042D0000C94702B803A43E0940709F41FC2873E88
:1042E000934011F40C945E2B0C94702BE9E8F7E1E9
:1042F0000C941E2BE3EBF5E034C5A090491AB09066
:104300004A1A80E50E949330882359F00E94D72FE3
:104310006B017C0111E0672B682B692B31F410E0F5
:1043200004C010E0C12CD12C760183E50E949330AB
:10433000882311F40C94BF2B0E94173020E030E04A
:104340004AE754E40E9428F10E9484F86B017C0142
:1043500011110BC0672B682B692B39F4A114B10420
:1043600021F0D5018C91811102C010E001C011E053
:104370000E94B961112329F061E0C5010E94ACAB34
:1043800005C060E08AED93E00E9470AB81E080930D
:104390006210C114D104E104F104B1F00E94A6D16D
:1043A000C60ED71EE81EF91E0E94A6D1DC01CB0165
:1043B0008C199D09AE09BF09B7FF0DC0809162102D
:1043C00081110C94C42B07C080916210882319F0CE
:1043D0000E948EA2F9CF0E94674B109262100C943B
:1043E000B82B84918F010F5F1F4F882321F00E940B
:1043F0001532F801F6CF1092241A88EB97E10E944B
:10440000C2918BE1E8EBF7E1DE01159601900D9288
:104410008A95E1F78091B6179091B7179C838B83AB
:1044200088EF92E09A83898340E050E0BE016F5F9D
:104430007F4F80E090E00E94A1D2CE0101960E94C1
:10444000519FE6EFF3E084918F010F5F1F4F8823A8
:1044500011F40C94B82B0E941532F801F4CF0E948D
:104460007B660C94B82B10928817109289170C94C5
:10447000B82B803209F41082319680818111F9CFF6
:1044800040E061E08091491A90914A1A0E94AE641E
:104490000C94B82B83E50E949330882381F00E940E
:1044A000E72FAB01BC014093201A5093211A60936F
:1044B000221A7093231A80E599E10E947B8F8091E4
:1044C0008917882319F081E08093881784E50E947A
:1044D0009330882309F454C00E94E72F6B017C01BC
:1044E0000E94CFE0C092220AD092230AE092240ACE
:1044F000F092250ACD28CE28CF2811F40C94B82BA1
:1045000081E08093800A0C94B82B809188178111E8
:104510000E94B96180918917882311F40C94B82BFB
:1045200080E50E949330882309F4F4C00E9408308B
:10453000182F482F61E08091491A90914A1A0E94E1
:10454000AE6483E50E949330882381F00E94E72FB8
:10455000AB01BC014093201A5093211A6093221A98
:104560007093231A80E599E10E947B8F80918917CF
:10457000882319F081E08093881711110C94B82BCF
:104580000E94EAE00C94B82B109288170E940DE16B
:104590000C94B82B80918917882311F40C94B82BB4
:1045A00083E50E94933081110C94C82B0C94B82B96
:1045B00083E40E944A30882309F450C0E3E4F4E025
:1045C00084918F010F5F1F4F882321F00E941532C5
:1045D000F801F6CF80915319811103C0E6E1F4E0B0
:1045E00012C0BE016F5F7F4F80E599E10E948A9003
:1045F0008E010F5F1F4FF80181918F01882349F1D0
:104600000E941532F8CF84918F010F5F1F4F8823CE
:1046100001F10E941532F801F6CF8BE9C82E84E033
:10462000D82EE12CF12C20E08091B10A90E00E2CE4
:1046300002C0959587950A94E2F780FDD5C1BFEF3A
:10464000EB1AFB0AE2E0CE0ED11CF5E0EF16F10406
:1046500059F78AE00E9415320C94B82B8091891783
:10466000882339F080918817882319F0E0E2F4E07C
:1046700003C0E2E3F4E028C084918F010F5F1F4F75
:10468000882321F00E941532F801F6CF6091201A9C
:104690007091211A8091221A9091231A4AE00E9467
:1046A00099328FE20E94153260911C1A70911D1A86
:1046B00080911E1A90911F1A4AE00E9499328AE056
:1046C0000E9415320C94B82B84918F010F5F1F4FFD
:1046D000882311F40C94B82B0E941532F801F4CF02
:1046E00080918917882311F40C94B82B80E599E107
:1046F0000E942ED980E599E10E946590109287175B
:10470000109286178091491A90914A1A0E9437692F
:104710000C94B82B80E50E944A300ACF8091491A48
:1047200090914A1A21E02093871740E060E00E94B0
:10473000AE640C94B82B0E94A74A7B018C0120E840
:1047400031E541E050E00E94FFF6C9016DE671E0FD
:104750000E9415FA4B015C01C801B70120E13EE05F
:1047600040E050E00E94FFF6CA01B90128E130E0C4
:1047700040E050E00E94FFF6762E672EC62ED72E20
:104780009CE3292E312C412C512CC801B701A201E8
:1047900091010E94FFF6F62EE72ECA01B901A2018F
:1047A00091010E94FFF6CB018E010F5F1F4F811414
:1047B000910499F0EF92FF927F936F936F927F92A3
:1047C000BF92AF929F928F928AE794E09F938F93CC
:1047D0001F930F930E945DF013C0A114B104B1F0B8
:1047E000EF92FF927F936F936F927F92BF92AF92FF
:1047F0008AE694E09F938F931F930F930E945DF03E
:104800000FB6F894DEBF0FBECDBF30C0CD2879F013
:10481000EF92FF927F936F936F927F928EE594E079
:104820009F938F931F930F930E945DF0E9CF892B85
:1048300069F0EF92FF927F936F9386E594E09F93E8
:104840008F931F930F930E945DF0DACFEF92FF9248
:1048500082E594E09F938F931F930F930E945DF0E6
:104860000F900F900F900F900F900F9060E0C80185
:104870000E94ACABEEECFAE284917F019FEFE91A63
:10488000F90A882321F00E941532F701F5CFB8010B
:104890008EE894E00E946CC58AE00E94153268C7D9
:1048A00083E50E949330882309F462C70E94F72FA2
:1048B000E82E80E50E949330882331F00E94F72F84
:1048C000182F87FF02C054C71DE089E40E9493306F
:1048D000882339F00E9408308111FAC7E1EFF6E031
:1048E0000AC089E40E944A30F7CF3196A7E0E2324D
:1048F000FA0709F4EDC784911813F7CF86C70E9411
:10490000EAE036C70E940DE133C70E9422E130C7BA
:1049100088E690E00E94043381112AC78091B10A91
:1049200083FD26C783E50E9493308823C9F00E9447
:1049300017300E947FF870930A176093091780E080
:104940000E94EA430E94173020E030E04AEA52E435
:104950000E94C3F0181624F00E9422E10E94674BC7
:104960000E94B7C605C78EE40E949330882309F4DD
:10497000FFC60E94E72F60933B0F70933C0F80931C
:104980003D0F90933E0FF4C683E50E944A30882382
:1049900059F083E50E949330882319F00E94F72F85
:1049A00001C080E08093B10AEEECFAE284918F01BD
:1049B0000F5F1F4F811103C0E9EAF4E004C00E94B9
:1049C0001532F801F3CF84918F010F5F1F4F8823B9
:1049D00021F00E941532F801F6CF8091B10A8111C1
:1049E0001CCEE5EAF4E018C0BB24B394B20E222337
:1049F00019F08CE20E941532F60185919491FC0128
:104A000084918F010F5F1F4F882321F00E94153280
:104A1000F801F6CF2B2D13CE84918F010F5F1F4F1E
:104A2000882309F416CE0E941532F801F5CF80EBE9
:104A300094E00E94739F89E690E00E940433811104
:104A40005CC7E9EBF4E084918F010F5F1F4F88236F
:104A500021F00E941532F801F6CF0E94E4428AE06C
:104A60000E9415324AC783E50E949330882309F4D7
:104A70007FC60E94F72F182F8D3308F01CE3109388
:104A8000BD0F0E94A6D16B017C01212F30E0A8EE62
:104A9000B3E00E942BF7C60ED71EE81EF91EC09287
:104AA000B90FD092BA0FE092BB0FF092BC0F60C664
:104AB0000E942B355DC68091B10A83FD59C683E5FE
:104AC0000E949330882309F453C60E9417300E9435
:104AD0007FF86E36710514F06EE670E0709308177B
:104AE000609307170E949E4343C60E945A3340C6F4
:104AF00080E50E949330811106C083E50E949330C7
:104B0000882359F005C00E94F72F811131C6F5CFD7
:104B10000E94E72F6F3F710510F06FEF70E0709308
:104B20000C1760930B1724C680E50E949330811107
:104B300005C010920C1710920B171AC60E94E72F8F
:104B4000672B09F015C6F5CF10923D0311C681E021
:104B500080933D030DC683E50E949330882399F02E
:104B60000E94173020E030E04AE754E40E9428F128
:104B70000E9484F860933A0270933B0280933C0257
:104B800090933D02F5C588E50E944A30811110C618
:104B900089E50E944A3081110BC68AE50E944A309D
:104BA000811106C685E40E944A30811101C60E9427
:104BB000F661DEC583E50E944A30882309F4D8C532
:104BC0000E94173020E030E04AE754E40E9428F1C8
:104BD0000E9484F86093B50F7093B60F8093B70F5F
:104BE0009093B80FC5C5D6018D916D010E944A30D2
:104BF000882309F46DC0133009F063C00E94173098
:104C00004B015C0120E030E040EA51E40E94C3F037
:104C100087FF4EC0A50194016091A80F7091A90F64
:104C20008091AA0F9091AB0F0E9417F82B013C01C5
:104C30009B01AC016091980F7091990F80919A0F30
:104C400090919B0F0E9428F16093980F7093990F99
:104C500080939A0F90939B0FA30192016091CC16C1
:104C60007091CD168091CE169091CF160E9428F1AA
:104C70006093CC167093CD168093CE169093CF167A
:104C80006091E0107091E1108091E2109091E3103A
:104C90000E94C7F0A30192010E9428F10E9484F8AB
:104CA0006093E0107093E1108093E2109093E31012
:104CB0008092A80F9092A90FA092AA0FB092AB0F6A
:104CC00007C00E941730F70160837183828393834A
:104CD0001F5FF4E0EF0EF11C143009F084CF0E9446
:104CE0001CC846C50E94B96183E50E9493308823A1
:104CF00011F40C944C1E0E94E72F6230710511F0E4
:104D00000C944C1E0E94CFDE8BE50E941532609100
:104D1000D01A7091D11A8091D21A9091D31A42E090
:104D20000E9415374091D41A5091D51A6091D61A25
:104D30007091D71A81ED94E00E9436C54091D81A3F
:104D40005091D91A6091DA1A7091DB1A8EEC94E0C6
:104D50000E9436C58DE50E9415328AE00E94153208
:104D600007C584918F010F5F1F4F882321F00E9498
:104D70001532F801F6CF60E083EA95E00E94BF7833
:104D800061E08CE995E00E94BF7861E081E995E0FF
:104D90000E94BF7861E081E895E00E94BF7860E002
:104DA00088E795E00E94BF7861E08EE695E00E947A
:104DB000BF7860E084E695E00E94BF7860E08CE513
:104DC00095E00E94BF7861E08EE495E00E94BF7894
:104DD00060E080E495E00E94BF7860E081E395E0C8
:104DE0000E94BF7860E083E295E00E94BF7860E0B7
:104DF0008DE095E00E94BF7860E08CEF94E00E9427
:104E0000BF7860E087EE94E00E94BF7861E084EDB7
:104E100094E00E94BF78ACC48091491A90914A1ADC
:104E2000DC012C91222321F060E00E94ACABA0C4F5
:104E30000E94674B9DC40091491A10914A1A83E061
:104E4000D12C40E08150E1F0F8019081292F2B7F97
:104E50002134C1F721812133A9F7913421F0953410
:104E600021F441E002C0DD24D39498012E5F3F4F2E
:104E700089012F5F3F4FD8019C919032C9F3E2CF57
:104E8000442369F0EEECFAE284917F01BFEFEB1A64
:104E9000FB0A882321F00E941532F701F5CFDD20AF
:104EA00069F0EBE7F6E084917F012FEFE21AF20A56
:104EB000882321F00E941532F701F5CFD8018D919A
:104EC0008D01882309F4C5CB0E941532F7CF0E94CB
:104ED000B0C24EC481E080935D0380935C0348C4FC
:104EE00083E50E949330882319F00E94E72F02C0C7
:104EF00060E070E08B01112702301105D4F0E9E881
:104F0000F7E184918F010F5F1F4F811103C0EFE71D
:104F1000F6E004C00E941532F801F3CF84918F01AE
:104F20000F5F1F4F882309F423C40E941532F80134
:104F3000F5CF88E40E9493308823A1F00E94E72FE8
:104F40006A3A710534F0663F71052CF065EF70E048
:104F500002C06AEA70E0F801EE0FFF1FE658F04F5A
:104F60007183608386E40E9493308823A9F00E94B5
:104F7000E72FF801EE0FFF1FE258F04F71836083B7
:104F80006F3F710519F014F06FEF70E077FF02C00A
:104F900060E070E07183608382E40E949330882334
:104FA00009F4E6C30E94E72F6530710534F06036DE
:104FB00071052CF06FE570E002C065E070E0000F55
:104FC000111FF801EA58F04F71836083D1C388EC58
:104FD00090E00E9404338111CBC384E40E944A30E4
:104FE000882309F441C00E9417306B017C0111E055
:104FF00020E030E0A9010E94C3F0811101C010E05F
:105000001093B00F20E030E0A901C701B6010E9463
:10501000C3F0882349F10E941730E091330AB4E0CD
:10502000EB9FF0011124E455F04F6083718382837C
:10503000938320E030E0A9016091AC0F7091AD0F37
:105040008091AE0F9091AF0F0E94C3F081110CC000
:1050500080E090E0A0EEBFE38093AC0F9093AD0FA3
:10506000A093AE0FB093AF0F0E94845381C37EE430
:10507000E72E72E0F72E00ED16E1E0EECE2EE6E12F
:10508000DE2EF70181917F010E944A30882349F08A
:10509000CED70E9484F8D8016D937D938D939C9315
:1050A00013970C5F1F4FC016D10659F70E94E7C631
:1050B0005FC36EE4E62E62E0F62E00EC16E1F70127
:1050C00081917F01E7D7882339F0B1D7D8016D935B
:1050D0007D938D939C9313970C5F1F4FB6E1003D1A
:1050E0001B0769F745C383E50E949330882399F035
:1050F0009ED76093E8167093E9168093EA16909312
:10510000EB166093E0167093E1168093E21690938D
:10511000E31610E001C011E080E50E94933088237F
:1051200051F085D76093E8167093E9168093EA16DC
:105130009093EB1610E082E5F6D7882351F077D7ED
:105140006093E4167093E5168093E6169093E71645
:1051500010E084E5E8D7882351F069D76093E01622
:105160007093E1168093E2169093E31601C3112326
:1051700009F4FEC24091E8165091E9166091EA16D2
:105180007091EB1687EA96E00E9436C54091E416CE
:105190005091E5166091E6167091E71684EA96E064
:1051A0000E9436C54091E0165091E1166091E216DA
:1051B0007091E31681EA96E00E9436C58AE00E946B
:1051C0001532D6C281E566D7882349F0F0D66093C0
:1051D000AC0A7093AD0A8093AE0A9093AF0A83E550
:1051E00059D7882349F023D76093BC167093BD1616
:1051F0008093BE169093BF1684E54CD7882349F060
:1052000016D76093B8167093B9168093BA16909318
:10521000BB1688E53FD7882349F009D760938C0FE8
:1052200070938D0F80938E0F90938F0F89E532D7F7
:10523000882349F0FCD66093900F7093910F809370
:10524000920F9093930F8AE525D78823E9F0EFD644
:105250006093940F7093950F8093960F9093970F90
:105260002DEC3CEC4CEC5DE30E94C3F0181664F0AE
:10527000E7EBF6E084918F010F5F1F4F882321F049
:105280000E941532F801F6CF85E404D7882309F48B
:105290006FC2CDD66093980F7093990F80939A0F39
:1052A00090939B0F65C21F5FB4E0EB0EF11C1330AF
:1052B00011F40C944C1EF60181916F01EBD68823FA
:1052C00091F3B5D6D7016D937D938D939C931397EE
:1052D000812FE7D4E8CF0E94C0794AC20E94E177CB
:1052E00047C283E520D7882309F442C270D6709361
:1052F0004702609346023CC28DED90E00E94043369
:10530000811136C283E50FD7811103C0EEECFAE2BA
:1053100038C00091330A10E05AD6000F111FF8016F
:10532000EC5BFD4F718360838091330A90E07C01D8
:10533000EE0CFF1CEE0CFF1C8701005C1D4F880F5C
:10534000991FFC01EC5BFD4F60817181072E000C01
:10535000880B990B0E94C9F02AE037ED43E25CE329
:105360000E9428F1F701E956FF4E208131814281E8
:1053700053810E9428F1F8016083718382839383B3
:10538000F7C184918F010F5F1F4F882321F00E9486
:105390001532F801F6CF85E40E9415328091330A68
:1053A000805D0E941532E091330AF0E0EE0FFF1F9E
:1053B000EC5BFD4F6081718189EE96E00E9453C5E0
:1053C00085E20E9415328AE00E941532D1C180E543
:1053D00061D6882309F4CCC1FAD56B017C0183E541
:1053E000A2D6882319F0F3D58B0102C00FEF1FEF6F
:1053F000C8010196039708F0BBC1D7FCB9C18C2D39
:10540000E1EFF6E09491891709F4FFC1319627E0A6
:10541000E232F207B9F7FCC18AE585D6811120C2D4
:1054200083E581D681111CC2A3C183E57CD6882384
:1054300011F0CDD502C064E071E079A368A380E5E6
:1054400072D6882331F0C3D5693833E1730730F45D
:1054500002C068EE73E07A83698304C088E893E150
:105460009A838983BE01605E7F4FCE0101960E94C0
:10547000BD677EC185E457D681110EC080E50AD68E
:10548000882381F0D4D56093690F70936A0F80935D
:105490006B0F90936C0F06C0AAD5882379F3E9E8C7
:1054A000F7E16AC089E4F6D5882379F0C0D52CEA03
:1054B00035EC47E25EE30E9428F16093710F709330
:1054C000720F8093730F9093740F84E4E3D5882355
:1054D00079F0ADD52CEA35EC47E25EE30E9417F88F
:1054E00060936D0F70936E0F80936F0F9093700F9A
:1054F000EEECFAE284918F010F5F1F4F882319F0C1
:1055000094D7F801F7CF4091690F50916A0F6091DD
:105510006B0F70916C0F8AE297E00E9436C52CEAFF
:1055200035EC47E25EE36091710F7091720F8091EC
:10553000730F9091740F0E9417F8AB01BC0186E2C3
:1055400097E00E9436C52CEA35EC47E25EE36091B5
:105550006D0F70916E0F80916F0F9091700F0E9480
:1055600028F1AB01BC0182E297E00E9436C58AE0D7
:105570005CD7FEC05AD7F80184918F010F5F1F4F8F
:105580008111F8CFEEE2F7E084918F010F5F1F4F9A
:10559000882309F4EDC049D7F801F6CF83E57AD521
:1055A000182F882369F043D50E947FF87093170263
:1055B0006093160221E0672B09F020E02093B00AE7
:1055C00080E568D5882351F02091160230911702AA
:1055D000232B09F01DD58093B00ACAC01111C8C091
:1055E000EEECFAE284918F010F5F1F4F882319F0D0
:1055F0001CD7F801F7CF8091B00A882319F064E135
:1056000073E002C067E173E085E597E00E946CC536
:10561000609116027091170284E497E00E9453C5CE
:10562000E0E4F7E084918F010F5F1F4F882309F4B6
:105630009FC0FBD6F801F6CFF8D6F80184918F0110
:105640000F5F1F4F8111F8CFE8E6F7E084918F01DB
:105650000F5F1F4F882309F48BC0E7D6F801F6CF00
:105660000E94B96185C00E944B7B82C00E94EB8A78
:105670007FC00E94DBC27CC081E080938B0F0E94C0
:10568000368510928B0F882309F472C0EEECFAE293
:1056900084918F010F5F1F4F811103C0E7E7F7E08F
:1056A00003C0C3D6F801F4CF84918F010F5F1F4F61
:1056B000882309F45DC0B9D6F801F6CF81E0809364
:1056C00012021092E40A83E52ED5882331F0A0D48B
:1056D00081114EC00E9408DF4BC083E5DBD4F8CFB8
:1056E0000E941A6945C0F0904B1A0E94B96110914E
:1056F000540880E09AD1FF2001F1EEECFAE28491A7
:105700008F010F5F1F4F882319F08FD6F801F7CF55
:1057100084E58BD66F2D70E080E090E04AE009D7F9
:1057200080E283D6E4E9F7E084918F010F5F1F4F99
:105730008823F1F07AD6F801F7CF10925010812F1C
:1057400074D1EEECFAE284918F010F5F1F4F882332
:1057500019F06BD6F801F7CF6091501070E082E835
:1057600097E00E9453C58AE060D602C00E941A6981
:105770000E94EBDEC2C0E3D40E94EFDAF9CF111130
:105780000C94B5210C94AE210E948EA20C94D421CD
:105790001ED4AB01BC014093201A5093211A609390
:1057A000221A7093231A80E599E10E947B8FE0CF43
:1057B0000E94B96188E56ED4882331F05F9A8091A8
:1057C0005E038E7F80935E0389E564D4882331F085
:1057D0008A9A80915E038D7F80935E038AE55AD416
:1057E000882361F080910801809581708093060183
:1057F000479A80915E038B7F80935E0385E44AD451
:10580000882309F4B5CF129AB3CF0E94BDE1B0CF7F
:105810000E94B961BC2C60E08C2D0E946BD00F3FC0
:105820004FEF140759F48C2D0E9415D031E020E081
:10583000892B09F030E0032F122F05C0013011052C
:1058400061F401E010E08B2D0E9415D080179107C4
:1058500009F48ECF0E948EA2F6CF00E010E0F3CFC5
:10586000E6D320E030E040E050EC0E94C3F087FD3A
:1058700010C0DDD320E030E040E050E40E9461F948
:10588000181614F0D4D309C060E070E080E090E412
:1058900004C060E070E080E090EC20915E0322FFA5
:1058A00067CF00919510109196102091A40F309120
:1058B000A50F4091A60F5091A70F0E9428F10E94BA
:1058C0007FF8600F711F709396106093951050CF02
:1058D00061E0812F0E946BD06E2D812F0E943DD000
:1058E000F12CB701812F0E94A7D0193009F040CFC9
:1058F000F0920C17E0920B173BCFC559DF4F0FB654
:10590000F894DEBF0FBECDBFDF91CF911F910F91F5
:10591000FF90EF90DF90CF90BF90AF909F908F90CF
:105920007F906F905F904F903F902F9008950895D3
:1059300080E090E008950F931F93CF93DF93EC01E5
:105940000E94A6D10E811F81288539850115110578
:105950002105310559F52C852223A9F13A852150DD
:105960002C8721E0230F2A874D85241301C01A8636
:10597000FE0124E0329FE00DF11D112406851785FC
:10598000208931890A831B832C833D83DC01CB0171
:10599000800F911FA11DB11D8E839F83A887B9879A
:1059A0008C819D81892B79F0409A0DC0DC01CB015F
:1059B000801B910BA20BB30BB7FD05C040981E8254
:1059C0001F8218861986DF91CF911F910F9108953C
:1059D000EF92FF921F93CF93DF938BEAE82E80E143
:1059E000F82E13E0C0E0D0E020E030E0A901F7019C
:1059F000EC0FFD1F60817181828193810E94C3F051
:105A000081110CC02496CC30D10571F711508CE077
:105A1000E80EF11C1111E6CF80E001C081E0DF91BA
:105A2000CF911F91FF90EF900895CF9390915408DC
:105A30009817C9F0C82F0E94B961C11112C04DEE6C
:105A40005AE069EE7AE085EE9AE00E94346280E0E6
:105A500080935408882339F085EE9AE0CF910C9416
:105A600087C5B6DFF5CFCF910895CF92DF92EF9241
:105A7000FF920F931F93CF93DF93CDB7DEB72C9791
:105A80000FB6F894DEBF0FBECDBF7B018C01D42EC4
:105A90009B01AC01609150087091510880915208AF
:105AA000909153080E94C3F0882309F494C0C090D9
:105AB000540880E0BADF20E030E0A901B701C80156
:105AC0000E9461F9181624F0E12CF12C00E010E09E
:105AD000C701D8018093500890935108A0935208B1
