:100000000C9412160C9443160C9443160C9443163D
:100010000C9443160C9443160C9443160C944316FC
:100020000C9443160C9443160C9443160C944316EC
:100030000C9443160C9443160C9443160C944316DC
:100040000C9443160C94BCD50C9443160C94431694
:100050000C9443160C9443160C945D9E0C946FCF35
:100060000C9443160C9434400C9443160C94431691
:100070000C9443160C9443160C9443160C9443169C
:100080000C9443160C9443160C9443160C9443168C
:100090000C9443160C9443160C9443160C9443167C
:1000A0000C9443160C9443160C9443160C9443166C
:1000B0000C9443160C9443160C9443160C9443165C
:1000C0000C9443160C9443160C9443160C9443164C
:1000D0000C9443160C9443160C9443160C9443163C
:1000E0000C944316A4CCA7CC96CC9ACCA0CCDECC56
:1000F000ABCCAFCCB5CCB9CCBDCCC3CCC7CCCBCCC6
:10010000DECCD1CCD5CCD9CC8BCE90CE95CE9FCEDB
:10011000A9CE22CFB3CEBBCEC3CECDCED7CEE1CEED
:10012000F0CEFACE22CF04CF0ECF18CF084AD73B5D
:100130003BCE016E84BCBFFDC12F3D6C74319ABDB6
:1001400056833DDA3D00C77F11BED9E4BB4C3E91DA
:100150006BAAAABE000000803F05A84CCDB2D44EC9
:10016000B93836A9020C50B9918688083CA6AAAACB
:100170002ABE000000803F004E414E494E4954596E
:10018000494E46CDCCCC3D0AD7233C17B7D1387762
:10019000CC2B329595E6241FB14F0A000020410078
:1001A00000C84200401C4620BCBE4CCA1B0E5AAEC2
:1001B000C59D7400407A10F35A00A0724E180900D1
:1001C00010A5D4E80000E87648170000E40B5402BC
:1001D0000000CA9A3B000000E1F5050000809698F7
:1001E00000000040420F000000A086010000001047
:1001F0002700000000E80300000000640000000089
:10020000000A00000000000100000000002C76D869
:1002100088DC674F0823DFC1DFAE59E1B1B796E54F
:10022000E3E453C63AE651997696E8E6C28426EBB3
:10023000898C9B62ED407C6FFCEFBC9C9F40F2BAC6
:10024000A56FA5F490055A2AF75C936B6CF9676D5E
:10025000C11BFCE0E40D47FEF520E6B500D0ED90B3
:100260002E0300943577050080841E080000204E80
:100270000A000000C80C333333330F986E12831119
:1002800041EF8D2114893BE65516CFFEE6DB18D1F0
:10029000844B381BF77C1D901DA4BBE424203284C2
:1002A000725E228100C9F124ECA1E53D27434F4D48
:1002B0004D554E49434154494F4E004452595255B1
:1002C0004E004552524F525300494E464F0045434F
:1002D000484F00536C6565702E2E2E004D65736877
:1002E00020706F696E742063616E6E6F742062653A
:1002F000207265736F6C7665640A00286E6F2066E5
:10030000696C6529005344207072696E74696E6768
:10031000206279746520004E6F74205344207072FF
:10032000696E74696E670A0043757272656E742037
:1003300066696C653A20002569730025696D202582
:100340006973002569682025696D2025697300257A
:100350006964202569682025696D20256973002559
:10036000697920256964202569682025696D202523
:100370006973005072696E742074696D653A20006B
:10038000CE02C902C202BB02AD026F6666004445DE
:100390004255473A004B494C4C45442E20006F6B68
:1003A0000020573A004520436F6F6C696E672E2E10
:1003B0002E00452048656174696E672E2E2E002040
:1003C000573A0042656420636F6F6C696E672E2E2A
:1003D0002E004265642068656174696E672E2E2E5A
:1003E00000416E7963756269632069332B204F6623
:1003F000662E002C20002C2000544845524D414CC4
:100400005F50524F54454354494F4E004155544F4D
:100410005245504F52545F53445F535441545553C7
:1004200000454D455247454E43595F504152534553
:100430005200434153455F4C494748545F4252493B
:100440004748544E45535300544F47474C455F4C23
:10045000494748545300534F4654574152455F5003
:100460004F574552004255494C445F504552434511
:100470004E54004C4556454C494E475F444154410B
:10048000005A5F50524F4245004155544F4C45561B
:10049000454C005052494E545F4A4F420050524F13
:1004A0004752455353004155544F5245504F5254B3
:1004B0005F54454D5000564F4C554D45545249439D
:1004C00000454550524F4D0053455249414C5F58ED
:1004D0004F4E5F584F4646004649524D5741524590
:1004E0005F4E414D453A4D61726C696E20312E313F
:1004F0002E3920284769746875622920534F555258
:1005000043455F434F44455F55524C3A687474709D
:10051000733A2F2F6769746875622E636F6D2F4D64
:1005200061726C696E4669726D776172652F4D619B
:10053000726C696E2050524F544F434F4C5F56457A
:100540005253494F4E3A312E30204D414348494E87
:10055000455F545950453A416E796375626963202D
:1005600069332B2045585452554445525F434F55EB
:100570004E543A3120555549443A636564653261B9
:1005800032662D343161322D343734382D396231B1
:10059000322D6335356336326633363766660A0088
:1005A0002F2F20004D31343520533C696E6465781F
:1005B0003E206F7574206F662072616E676520281B
:1005C000302D31290A002054002052004163636518
:1005D0006C65726174696F6E3A2050005741524EDB
:1005E000494E4721204C6F77205A204A65726B2074
:1005F0006D6179206C65616420746F20756E776120
:100600006E746564207061757365732E0A00486F9F
:100610006D652025732573257320666972737400D8
:100620002066697273740A005A0059005800486FB6
:100630006D6520004F666673657473206170706C21
:10064000696564004572723A20546F6F206661726A
:100650002100546F6F206661722066726F6D207288
:1006600065666572656E636520706F696E740A00F9
:10067000205A00205900580020204D61783A20006F
:10068000205A00205900580020204D696E3A200061
:100690004F6E20004F666600536F667420656E646F
:1006A00073746F70733A200020466C6F773A2000A5
:1006B000000136372603FFFFFF353C3D380EFFFFB4
:1006C000FF312E303E12FFFFFFFF28FF0C0809FF0D
:1006D000FF071A1C18FFFF2A08440AFF4324221EA2
:1006E0002C20643A0020693A0020703A00496E7666
:1006F000616C69642065787472756465720A004380
:10070000290A0061626C656420286D696E20746539
:100710006D702000436F6C64206578747275646539
:100720007320617265200023646566696E652044EC
:10073000454641554C545F4B64200023646566690F
:100740006E652044454641554C545F4B692000235B
:10075000646566696E652044454641554C545F4B5F
:10076000702000504944204175746F74756E652087
:1007700066696E69736865642120507574207468B9
:1007800065206C617374204B702C204B6920616E66
:1007900064204B6420636F6E7374616E74732066A3
:1007A000726F6D2062656C6F7720696E746F204385
:1007B0006F6E66696775726174696F6E2E680A0084
:1007C000504944204175746F74756E652066616987
:1007D0006C6564212074696D656F75740A0045311C
:1007E00020544845524D414C2052554E4157415995
:1007F00000546865726D616C2052756E6177617925
:100800000045312048656174696E67206661696CD6
:1008100065640048656174696E67206661696C652E
:100820006400504944204175746F74756E6520668C
:1008300061696C6564212054656D706572617475C1
:10084000726520746F6F20686967680A00204B64C6
:100850003A2000204B693A2000204B703A20000AD1
:1008600020436C617373696320504944200A00205F
:1008700054753A2000204B753A2000206D61783A7B
:100880002000206D696E3A200020643A200020622A
:100890006961733A2000504944204175746F747542
:1008A0006E65206661696C65642120426164206523
:1008B00078747275646572206E756D6265720A0077
:1008C000504944204175746F74756E65207374616E
:1008D00072740A004E6F2063617365206C696768EB
:1008E000740A004F66660A004661646520486569BF
:1008F0006768742000426564204C6576656C696E9B
:100900006720004661696C656420746F20656E61C4
:10091000626C6520426564204C6576656C696E6723
:100920000A004D65736820426564204C6576656CED
:1009300020646174613A0A004D65736820706F69C4
:100940006E742063616E6E6F7420626520726573D1
:100950006F6C7665640A004D34323120696E636FC6
:10096000727265637420706172616D657465722066
:1009700075736167650A00454550524F4D206469A3
:100980007361626C65640A00416374697665204531
:10099000787472756465723A2000496E76616C698C
:1009A000642065787472756465720A00656E71758D
:1009B000657565696E672022004D33310053442010
:1009C00072656164206572726F720A00446F6E65B1
:1009D000207072696E74696E672066696C650A00C2
:1009E0004E6F20436865636B73756D20776974681B
:1009F000206C696E65206E756D6265722C204C618D
:100A00007374204C696E653A20004B494C4C454448
:100A10002E200053544F505045442E2000507269F0
:100A20006E7465722073746F707065642064756590
:100A300020746F206572726F72732E204669782061
:100A4000746865206572726F7220616E64207573C0
:100A500065204D39393920746F2072657374617265
:100A6000742E202854656D706572617475726520EE
:100A700069732072657365742E20536574206974E0
:100A80002061667465722072657374617274696E38
:100A900067290A004E6F20436865636B73756D208C
:100AA00077697468206C696E65206E756D62657219
:100AB0002C204C617374204C696E653A2000636889
:100AC00065636B73756D206D69736D617463682CFC
:100AD000204C617374204C696E653A20004C696E3D
:100AE00065204E756D626572206973206E6F74208B
:100AF0004C617374204C696E65204E756D62657231
:100B00002B312C204C617374204C696E653A2000A7
:100B10004D3131300020496E76616C696420657812
:100B2000747275646572200000000000000000000F
:100B30000000000000005C4300005C4300007A43BA
:100B4000486F6D696E67206661696C656400473245
:100B50002F47332062616420706172616D65746536
:100B600072730A00206E6F7420656E74657265641E
:100B70002E0A004B494C4C45442E2000202D204984
:100B80006E76616C69642065787472756465722034
:100B90006E756D62657220210A00001C1F11111F05
:100BA00000000006191803130C00040E1F041C009B
:100BB0000000000E1315110E00001C10181705067A
:100BC0000500040A0A0A0A11110E0C12120C000088
:100BD0000000001F1511151F00002D2D2D2D2D2D8E
:100BE000007C4D61726C696E7C002D2D2D2D2D2D9C
:100BF00000687474703A2F2F6D61726C696E66773D
:100C00002E6F726700687474703A2F2F6D61726C6A
:100C1000696E66772E6F72670020312E312E390093
:100C2000494E56414C49442044415441004D3234D0
:100C30002053256C642054256C64004D32332025EC
:100C400073004739322E30205A2573204525730012
:100C50004D34323020532569205A257300473238ED
:100C600020523020582059004731205A320047394D
:100C7000322E30205A30004D343230205330205A3A
:100C800030002020506C616E6E657242756666653C
:100C90007242797465733A20002046726565204D72
:100CA000656D6F72793A2000436F6D70696C656491
:100CB0003A204A616E20313820323031390A002022
:100CC0007C20417574686F723A20546F6269617359
:100CD0002052656974686D656965720A0032303149
:100CE000382D30382D303100204C61737420557010
:100CF00064617465643A2000312E312E390A004D4A
:100D000061726C696E0020536F6674776172652042
:100D100052657365740A00205761746368646F6775
:100D20002052657365740A002042726F776E206FDF
:100D300075742052657365740A0020457874657275
:100D40006E616C2052657365740A00506F7765722E
:100D500055700A0073746172740A006175746F25AE
:100D6000692E67006572726F722077726974696E9E
:100D70006720746F2066696C650A00456E64737441
:100D80006F70732025632025632025632025630071
:100D9000205A3A0020593A0020583A00656E647390
:100DA000746F7073206869743A2000446F6E652018
:100DB000736176696E672066696C652E0A004D3234
:100DC00039004D6F766520302E316D6D004D6F7698
:100DD0006520316D6D004D6F76652031306D6D0091
:100DE0004D6F76652061786973004578747275641B
:100DF0006572004D6F7665205A004D6F76652059FB
:100E0000004D6F7665205800457874727564657280
:100E1000004D6F7665205A004D6F76652059004D64
:100E20006F7665205800507265706172650052657A
:100E300073746F7265206661696C736166650046E4
:100E4000696C616D656E74004D6F74696F6E0054EE
:100E5000656D7065726174757265004D61696E00D3
:100E6000507265686561742041425320636F6E66FD
:100E7000005072656865617420504C4120636F6E4C
:100E800066005049442D44005049442D44005049C7
:100E9000442D49005049442D49005049442D5000EB
:100EA0005049442D50002002204661637400200206
:100EB0002046616374002002204D617800200220EA
:100EC0004D6178002002204D6178002002204D699C
:100ED0006E002002204D696E002002204D696E00D8
:100EE0004F6666004F6E20004175746F74656D70BB
:100EF0000046616E2073706565640046616E207304
:100F0000706565640042656400426564004E6F7AF6
:100F10007A6C65004E6F7A7A6C6500436F6E7472FE
:100F20006F6C0042656400426564004E6F7A7A6CB3
:100F300065004E6F7A7A6C650046616E207370654D
:100F400065640046616E2073706565640054656D6C
:100F50007065726174757265004D3234004D3233C4
:100F600020257300556E6B6E6F776E20636F6D6D0D
:100F7000616E643A2022006F70656E206661696C54
:100F800065642C2046696C653A2000577269746963
:100F90006E6720746F2066696C653A200000004817
:100FA00042000048420000804000000000534420FE
:100FB00063617264206F6B0A006F70656E526F6FB1
:100FC00074206661696C65640A00766F6C756D6586
:100FD0002E696E6974206661696C65640A00534409
:100FE00020696E6974206661696C0A0057726974C1
:100FF000696E6720746F2066696C653A20006F70B7
:10100000656E206661696C65642C2046696C653A82
:1010100020006F70656E206661696C65642C2046E7
:10102000696C653A200046696C652073656C656380
:101030007465640A002053697A653A200046696C39
:1010400065206F70656E65643A20002066696C6586
:101050003A2000646F696E67006672657368004EBF
:101060006F772000454E4420535542524F55544906
:101070004E450A002220706F730022207061726555
:101080006E743A2200535542524F5554494E4520F2
:1010900043414C4C207461726765743A22004B499D
:1010A0004C4C45442E2000747279696E6720746F31
:1010B0002063616C6C207375622D67636F646520BB
:1010C00066696C6573207769746820746F6F206D32
:1010D000616E79206C6576656C732E204D415820C9
:1010E0006C6576656C2069733A0043616E6E6F744F
:1010F000206F70656E20737562646972200065638D
:10110000686F3A0024F4D43050C38E20C2A2401736
:10111000828B7011127A910D816CD90AA861E10855
:10112000C7586607615143061E4B5D05C145A704BC
:101130001A411104093D9803713931034036DB022D
:1011400065339102D4305402802E1D02632CEE01CF
:10115000752AC501B028A001102781018F256401DF
:101160002B244B01E0223401AC211F018D200D0105
:10117000801FFC00841EED00971DDF00B81CD2000C
:10118000E61BC600201BBC00641AB200B219A800FE
:101190000A19A0006A189900D117910040178B0016
:1011A000B516840031167E00B31579003A15730028
:1011B000C7146F0058146A00EE13660088136300AA
:1011C00025135E00C7125B006C1257001512540005
:1011D000C111510070114F0021114B00D610490070
:1011E0008D1047004610440002104200C00F40001E
:1011F000800F3E00420F3C00060F3B00CB0E380034
:10120000930E37005C0E3500270E3400F30D3200CC
:10121000C10D3100900D3000600D2E00320D2D00FB
:10122000050D2C00D90C2B00AE0C2900850C2900D3
:101230005C0C2700350C27000E0C2600E80B240060
:10124000C40B2400A00B23007D0B23005A0B2100AC
:10125000390B2100180B2000F80A1F00D90A1E00C4
:10126000BB0A1E009D0A1D00800A1D00630A1C00A7
:10127000470A1B002C0A1B00110A1A00F7091A0062
:10128000DD091900C4091900AB09190092091700FA
:101290007B091800630917004C091600360916006F
:1012A000200916000A091500F5081500E0081400C9
:1012B000CC081400B8081400A40814009008130007
:1012C0007D0812006B08130058081200460812002F
:1012D0003408110023081100120811000108110040
:1012E000F0071000E0071000D0071000C007100042
:1012F000B0070F00A107100091070E0083070F0031
:1013000074070F0065070E0057070E0049070E000F
:101310003B070D002E070E0020070D0013070D00E0
:1013200006070D00F9060C00ED060D00E0060C00A6
:10133000D4060C00C8060C00BC060C00B0060C005D
:10134000A4060B0099060C008D060B0082060B000C
:1013500077060B006C060B0061060A0057060B00AF
:101360004C060A0042060A0038060A002E060A0049
:1013700024060A001A060A001006090007060A00D9
:10138000FD050900F4050900EB050900E205090067
:10139000D9050900D0050900C7050900BE050900E7
:1013A000B5050800AD050800A50509009C05080065
:1013B000940508008C050800840508007C050800D9
:1013C000740508006C050700650508005D05070049
:1013D000560508004E0507004705070040050800B0
:1013E00038050700310507002A0507002305070017
:1013F0001C050600160507000F0507000805060076
:1014000002050700FB040600F5040700EE040600D1
:10141000E8040600E2040700DB040600D504060029
:10142000CF040600C9040600C3040600BD0406007C
:10143000B7040600B1040500AC040600A6040600CB
:10144000A00405009B040600950405009004060016
:101450008A04050085040500800406007A0405005E
:1014600075040500700405006B04050066040500A2
:10147000610405005C0405005704050052040500E2
:101480004D04050048040500430405003E04040023
:101490003A04050035040500300404002C0405005E
:1014A00027040400230405001E0404001A04040099
:1014B00016040500110404000D04040009040500CD
:1014C0000404040000040400FC030400F803040006
:1014D000F4030400F0030400EC030400E803040038
:1014E000E4030400E0030400DC030400D803040068
:1014F000D4030400D0030400CC030400C803030099
:10150000C503030024F404D9201BC40C5C0E98040A
:10151000C4095F0265077101F405F900FB04B3001B
:1015200048048700C10369005803550003034500C0
:10153000BE023A008402310053022A00290225002B
:1015400004022000E4011C00C8011900AF011700CB
:101550009801140084011300710110006101100052
:1015600051010E0043010D0036010B002B010B0051
:1015700020010B00150109000C01090003010800FE
:10158000FB000800F3000800EB000700E400060081
:10159000DE000600D8000600D2000600CC000500E0
:1015A000C7000500C2000500BD000400B90004002A
:1015B000B5000400B1000400AD000400A90004005F
:1015C000A5000300A20003009F0004009B0003008D
:1015D00098000300950002009300030090000300B0
:1015E0008D0002008B0003008800020086000200CC
:1015F00084000300810002007F0002007D000200E1
:101600007B000200790002007700010076000200F2
:101610007400020072000100710002006F000200FD
:101620006D0001006C0002006A0001006900020008
:10163000670001006600010065000100640002000F
:101640006200010061000100600001005F00020013
:101650005D0001005C0001005B0001005A00010018
:101660005900010058000100570001005600010018
:101670005500010054000100530000005300010018
:101680005200010051000100500001004F00010014
:101690004E0000004E0001004D0001004C00010012
:1016A0004B0000004B0001004A000100490001000E
:1016B000480000004800010047000100460000000B
:1016C0004600010045000000450001004400010003
:1016D00043000000430001004200000042000100FE
:1016E0004100000041000100400001003F000000F7
:1016F0003F0001003E0000003E0001003D000000F0
:101700003D0001003C0000003C0000003C000100E6
:101710003B0000003B0001003A0000003A000100DD
:1017200039000000390001003800000038000000D6
:1017300038000100370000003700010036000000CB
:1017400036000000360001003500000035000000C2
:1017500035000100340000003400000034000100B6
:1017600033000000330000003300010032000000AD
:1017700032000000320001003100000031000000A2
:101780003100010030000000300000003000010096
:101790002F0000002F0000002F0000002F0001008C
:1017A0002E0000002E0000002E0001002D00000081
:1017B0002D0000002D0000002D0001002C00000075
:1017C0002C0000002C0000002C0001002B00000069
:1017D0002B0000002B0000002B0001002A0000005D
:1017E0002A0000002A0000002A0001002900000051
:1017F0002900000029000000290000002900010044
:101800002800000028000000280000002800000038
:10181000280001002700000027000000270000002A
:10182000270000002700010026000000260000001D
:101830002600000026000000260001002500000010
:101840002500000025000000250000002500000004
:1018500025000100240000002400000024000000F6
:1018600024000000240001002300000023000000E9
:1018700023000000230000002300000023000000DC
:1018800023000100220000002200000022000000CE
:1018900022000000220000002200010021000000C0
:1018A00021000000210000002100000021000000B4
:1018B00021000000210001002000000020000000A5
:1018C0002000000020000000200000002000000098
:1018D00020000000200001001F0000001F00000089
:1018E0001F0000001F0000001F0000001F0000007C
:1018F0001F0001001E0000001E0000001E0000006E
:101900001E00000039300000332500008719000058
:10191000B00F0000DB080000BD04000074020000EE
:101920003F01000050726568656174204142532098
:10193000456E6400507265686561742041425320B1
:1019400042656400507265686561742041425300CD
:1019500050726570617265004261636B004E65781C
:101960007420636F726E6572004C6576656C696E8B
:101970006720446F6E6521004D6F7665205A0047E1
:101980003239205332004E65787420506F696E747E
:10199000002569202F20257500473239205331005A
:1019A00047323920533200436C69636B20746F20D7
:1019B000426567696E00486F6D696E672058595AB5
:1019C00000473238004C6576656C20636F726E6537
:1019D000727300426564205A00426564205A0046D2
:1019E00061646520486569676874004661646520C4
:1019F000486569676874004F6666004F6E20004254
:101A00006564204C6576656C696E67004C6576652B
:101A10006C206265640050726570617265004D34BF
:101A20003238005072656865617420504C41004343
:101A30006F6F6C646F776E005072656865617420BB
:101A40004142530044697361626C65207374657030
:101A500070657273004D38340053657420686F6D83
:101A600065206F66667365747300426564204C651B
:101A700076656C696E67004175746F20686F6D657F
:101A800000473238004D6F76652061786973004DEC
:101A900061696E004D6F76652058004D6F76652048
:101AA00059004D6F7665205A0045787472756465EB
:101AB000720020746F6F206C6F6E6720657874728F
:101AC0007573696F6E2070726576656E7465640AF1
:101AD0000020636F6C6420657874727573696F6E33
:101AE0002070726576656E7465640A005053553ACD
:101AF0002047656E657269630050726F746F636F23
:101B00006C3A20312E3000426175643A2032353013
:101B10003030300052414D505320312E33004D654E
:101B20007368204C6576656C696E670045787472E1
:101B300075646572733A203100687474703A2F2F9F
:101B40006D61726C696E66772E6F726700416E7997
:101B500063756269632069332B00323031382D3070
:101B6000382D303100312E312E39004D61726C69C3
:101B70006E00546865726D6973746F727300426FA2
:101B800061726420496E666F005072696E7465728E
:101B900020496E666F004D61696E0043617264207A
:101BA00072656D6F766564004361726420696E735F
:101BB0006572746564004D313036205025692053BC
:101BC0002569004D31303920532569004D313930B8
:101BD00020532569004D3432302053300A473238C3
:101BE0002052302058205900526573756D65207061
:101BF00072696E740053746F70207072696E740035
:101C0000506F7765722D4C6F7373205265636F76DA
:101C1000657279005072696E742061626F727465CA
:101C200064004E6F205344206361726400507269F7
:101C30006E742066726F6D2053440053746F702071
:101C40007072696E7400526573756D65207072698B
:101C50006E740041626F7574205072696E746572A3
:101C6000005061757365207072696E7400436F6E09
:101C700074726F6C00507265706172650054756E9D
:101C80006500496E666F2073637265656E00426120
:101C9000627973746570205A004261627973746569
:101CA00070205A00466C6F7700466C6F7700466173
:101CB0006E2073706565640046616E2073706565A3
:101CC000640042656400426564004E6F7A7A6C6518
:101CD000004E6F7A7A6C65004661646520486569DC
:101CE00067687400466164652048656967687400C8
:101CF000426564205A00426564205A00537065654D
:101D000064005370656564004D61696E00507265D2
:101D10006865617420504C4120456E6400507265C6
:101D20006865617420504C412042656400507265C2
:101D30006865617420504C41005072657061726535
:101D40000056652D6A65726B0056652D6A65726B6B
:101D50000056652D6A65726B00567A2D6A65726B46
:101D600000567A2D6A65726B0056792D6A65726B22
:101D70000056792D6A65726B0056792D6A65726B13
:101D80000056782D6A65726B0056782D6A65726B05
:101D90000056782D6A65726B004D6F74696F6E0026
:101DA0004573746570732F6D6D0045737465707342
:101DB0002F6D6D005A73746570732F6D6D005A73BB
:101DC000746570732F6D6D005973746570732F6D2A
:101DD0006D005973746570732F6D6D005873746561
:101DE00070732F6D6D005873746570732F6D6D0077
:101DF0004D6F74696F6E0053746570732F6D6D0055
:101E00004A65726B00416363656C65726174696FEA
:101E10006E0056656C6F6369747900436F6E7472FF
:101E20006F6C0046696C2E204469612E0046696C17
:101E30002E204469612E004F6666004F6E200045DB
:101E400020696E206D6D3300436F6E74726F6C008D
:101E500043616E6E6F7420656E7465722073756277
:101E60006469723A2000052E2E004D61696E004DA6
:101E700061782054656D703A20313130004D696EC3
:101E80002054656D703A203500544265643A4550DF
:101E9000434F53203130304B004D61782054656DF5
:101EA000703A20323630004D696E2054656D703ABC
:101EB00020350054303A204550434F5320313030C4
:101EC0004B0070012C0190012701B0012201C001DB
:101ED0001D01F00118011002130130020E01600211
:101EE000090190020401C002FF000003FA00400350
:101EF000F5008003F000D003EB002004E60070043E
:101F0000E100E004DC004005D700C005D200400637
:101F1000CD00D006C8008007C3003008BE00F0081E
:101F2000B900C009B400B00AAF00B00BAA00D00CD1
:101F3000A500000EA000500F9B00C010960050128C
:101F4000910000148C00C0158700B0178200B019F2
:101F50007D00D01B7800001E730040206E00902290
:101F60006900F024640040275F0090295A00E02BAC
:101F70005500102E500020304B0010324600E03348
:101F8000410090353C001037370070383200A039DE
:101F90002D00B03A2800A03B2300603C1E00103DFD
:101FA0001900903D1400103E0F00703E0A00C03E24
:101FB0000500003F0000403FFBFF803FF6FFC03FB1
:101FC000F1FF2042403A0020403A0025753A253082
:101FD000327500253032753A25303275002D2D2DA1
:101FE000005344002020202020200020202020001A
:101FF000416E7963756269632069332B2052656194
:1020000064792E005072696E74696E672E2E2E00F0
:102010005072696E742070617573656400486172F6
:1020200064636F6465642044656661756C742053F5
:10203000657474696E6773204C6F616465640A002F
:10204000B80B0000B80B00003200000010270000A1
:1020500000009643000096430000C0400000C841C5
:102060000000A0420000A0420000C8433333B94240
:1020700020286D6D290020440020490020204D3388
:1020800030312050005049442073657474696E6784
:10209000733A0A0020460020420020480020204DCC
:1020A0003134352053004D6174657269616C20686C
:1020B000656174757020706172616D6574657273AD
:1020C0003A0A00205A002059002020473239205374
:1020D00033205800205A0020204D34323020530045
:1020E0004D65736820426564204C6576656C696E49
:1020F000673A0A00205A0020590020204D3230361D
:10210000205800486F6D65206F66667365743A0AE3
:1021100000204500205A002059002058002054007B
:1021200020530020204D32303520510020453C6D99
:1021300061785F655F6A65726B3E0020583C6D6137
:10214000785F785F6A65726B3E20593C6D61785F9D
:10215000795F6A65726B3E205A3C6D61785F7A5F89
:102160006A65726B3E00416476616E6365643A2015
:10217000513C6D696E5F7365676D656E745F746900
:102180006D655F75733E20533C6D696E5F66656576
:1021900064726174653E20543C6D696E5F74726157
:1021A00076656C5F66656564726174653E00205497
:1021B0000020520020204D32303420500041636313
:1021C000656C65726174696F6E2028756E697473D1
:1021D0002F7332293A20503C7072696E745F6163CC
:1021E00063656C3E20523C726574726163745F611A
:1021F0006363656C3E20543C74726176656C5F610C
:102200006363656C3E0A00204500205A0020590097
:1022100020204D3230312058004D6178696D756D48
:1022200020416363656C65726174696F6E20287507
:102230006E6974732F7332293A0A00204500205AC0
:102240000020590020204D3230332058004D617855
:10225000696D756D206665656472617465732028AB
:10226000756E6974732F73293A0A00204500205A4D
:102270000020590020204D393220580053746570D9
:10228000732070657220756E69743A0A0020204DC3
:102290003230302044300A0020204D32303020448B
:1022A000002044697361626C65640A0046696C6170
:1022B0006D656E742073657474696E67733A00207F
:1022C000204D3134392043203B20556E69747320F2
:1022D000696E2043656C736975730A00202047326C
:1022E00031202020203B006265640A002C20737995
:1022F0007374656D2073746F707065642120486518
:10230000617465725F49443A2000426564206865E3
:102310006174696E67206661696C65640048656117
:1023200074696E67206661696C6564004531204898
:10233000656174696E67206661696C6564004865F3
:102340006174696E67206661696C6564004531205F
:10235000544845524D414C2052554E415741590029
:1023600042454420544845524D414C2052554E411F
:1023700057415900546865726D616C2052756E61E9
:10238000776179004531204572723A204D415854A9
:10239000454D50004572723A204D415854454D50BC
:1023A00020424544004D415854454D5020747269B7
:1023B000676765726564004531204572723A204D49
:1023C000494E54454D50004572723A204D494E5485
:1023D000454D5020424544004D494E54454D5020F6
:1023E000747269676765726564004D3834205820DF
:1023F00059205A204500202F004B494C4C45442E73
:1024000020004B494C4C20636175736564206279F0
:10241000204B494C4C20627574746F6E2F70696E3E
:102420000A004B494C4C45442E20004B494C4C2053
:1024300063617573656420627920746F6F206D75B8
:10244000636820696E6163746976652074696D657F
:10245000202D2063757272656E7420636F6D6D61DF
:102460006E643A2000506C65617365207265736517
:1024700074005052494E5445522048414C544544F2
:10248000005072696E7465722068616C7465642EA8
:10249000206B696C6C28292063616C6C6564210A6F
:1024A0000000000000000000000000000057617202
:1024B0006E696E673A20486F6D696E672042756D70
:1024C000702044697669736F72203C20310A0002E3
:1024D00002030000A0400000A040000000400000F7
:1024E0005C4300005C4300007A43FFFFFF7C3C3EFE
:1024F0005E2B3D3F2F5B5D3B2C2A225C00457272B8
:102500006F723A0046696C652064656C6574656439
:102510003A0044656C6574696F6E206661696C652C
:10252000642C2046696C653A20006F70656E2066E9
:1025300061696C65642C2046696C653A2000206FE7
:102540006620004D424C2047323920706F696E740E
:10255000200059206F7574206F662072616E676568
:102560002028312D33292E0A0058206F7574206FD2
:10257000662072616E67652028312D33292E0A008E
:102580004D6573682070726F62696E6720646F6E4C
:10259000652E0A005374617274206D657368207033
:1025A000726F62696E6720776974682022473239DA
:1025B000205331222066697273742E0A0047323824
:1025C0000A4732392053320053746174653A20004F
:1025D0004D65736820626564206C6576656C696E14
:1025E0006720686173206E6F20646174612E0A0039
:1025F00053206F7574206F662072616E67652028A6
:10260000302D35292E0A00436C69636B20746F20CE
:10261000726573756D652E2E2E004E6F206D6F7670
:10262000652E00456E642066696C65206C69737464
:102630000A00426567696E2066696C65206C697383
:10264000740A0050726F7465637465642050696E1B
:102650000A00205A3A0020593A0020436F756E74E0
:1026600020583A0020453A00205A3A0020593A00B2
:10267000583A003A004361703A005654726176202D
:102680006D696E005654726176206D696E00565405
:10269000726176206D696E00566D696E00566D69C7
:1026A0006E00566D696E00566D6178204500566D5E
:1026B0006178204500566D6178204500566D61783F
:1026C000205A00566D6178205A00566D6178205A64
:1026D00000566D6178205900566D6178205900567A
:1026E0006D6178205900566D6178205800566D61F3
:1026F00078205800566D61782058004D6F74696FCE
:102700006E00416D6178204500416D617820450083
:10271000416D6178205A00416D6178205A00416D09
:102720006178205900416D6178205900416D6178D0
:10273000205800416D6178205800412D74726176F7
:10274000656C00412D74726176656C00412D726577
:10275000747261637400412D7265747261637400F8
:10276000416363656C00416363656C004D6F746920
:102770006F6E0000000000010204040000001C1C39
:102780000C04040402010000000000040810000012
:10279000000000545249474745524544006F706558
:1027A0006E003A20007A5F6D696E00795F6D696E28
:1027B00000785F6D696E005265706F7274696E6744
:1027C00020656E6473746F70207374617475730A1E
:1027D000000A4D6561737572656420706F696E746F
:1027E000733A0A005A206F66667365743A20004E89
:1027F000756D20582C593A20332C330A00FFFDFC0C
:10280000FAF8F6F4F2F0EEECEAE9E7E5E3E1E0DE0F
:10281000DCDAD9D7D5D4D2D0CFCDCBCAC8C7C5C3BF
:10282000C2C0BFBDBCBAB9B7B6B4B3B2B0AFADAC3D
:10283000AAA9A8A6A5A4A2A1A09E9D9C9A99989792
:1028400095949392908F8E8D8B8A898887868483C6
:102850008281807F7E7D7B7A7978777675747372DA
:1028600071706F6E6D6C6B6A6968676665646362D0
:1028700061605F5E5D5C5B5A5958585756555453BA
:10288000525150504F4E4D4C4B4A4A49484746468C
:10289000454443424241403F3E3E3D3C3B3B3A394A
:1028A000383837363535343332323130302F2E2EFA
:1028B0002D2C2B2B2A29292827272625252423239D
:1028C00022212120201F1E1E1D1C1C1B1B1A191932
:1028D0001818171616151514131312121111100FBC
:1028E0000F0E0E0D0D0C0C0B0A0A0909080807073C
:1028F00006060505040403030202010000000000AF
:102900000100000001000080005555550000004006
:102910000033333300AAAA2A004992240000002081
:1029200000C7711C0099991900D14517005555151C
:10293000003BB113002449120011111100000010D6
:10294000000F0F0F00E3380E0043790D00CCCC0CC4
:1029500000C3300C00E8A20B0064210B00AAAA0AF5
:1029600000703D0A009DD80900427B0900922409AD
:1029700000DCD30800888808001042080000000826
:1029800000F0C107008787070075500700711C071A
:10299000003EEB0600A1BC060069900600666606D4
:1029A00000703E06006118060017F4050074D1059A
:1029B000005BB00500B29005006272050055550538
:1029C0000078390500B81E0500050505004EEC0429
:1029D0000087D40400A1BD040090A704004992041C
:1029E00000C17D0400EE690400C75604004444049D
:1029F000005C3204000821040041100400000004BF
:102A0000003FF00300F8E0030026D20300C3C30335
:102A100000CCB503003AA803000A9B0300388E03DC
:102A200000C08103009F750300D0690300505E035E
:102A3000001D53030034480300913D03003333036A
:102A40000016290300381F030097150300300C03FC
:102A500000030303000BFA020049F10200BAE80286
:102A6000005CE002002DD802002DD0020059C802FF
:102A700000B0C0020031B90200DAB10200AAAA0215
:102A800000A0A30200BC9C0200FA9502005C8F0229
:102A900000DF88020082820200457C020027760265
:102AA0000027700200436A02007C640200D05E02CC
:102AB000003F590200C853020000002100240027F3
:102AC000002A002D0030003300010100000401073E
:102AD000010A0100002200250028002B002E0031F1
:102AE00000340002010000050108010B0100002074
:102AF000002300260029002C002F003200000100D6
:102B00000003010601090105050505070508080878
:102B100008020202020A0A0808040404040101016E
:102B20000101010101030303030303030304070776
:102B3000070C0C0C0C0C0C0C0C0202020206060614
:102B400006060606060B0B0B0B0B0B0B0B010210FC
:102B500020200808102040102040800201020108B7
:102B60000402010102040810204080804020100867
:102B700004020180040201804020100804020108C0
:102B80000402010102040810204080010204081020
:102B900020408000000A0B02090C0D0E08070304F8
:102BA0000100000000000000000000000000000024
:102BB0000000000000000000000000000000001203
:102BC00011100000000000000000000000000000E4
:102BD000000000000000000000526573656E643A5A
:102BE00020006F6B0020746F6F206C6F6E67206524
:102BF0007874727573696F6E2070726576656E7425
:102C000065640A0020636F6C642065787472757364
:102C1000696F6E2070726576656E7465640A000077
:102C200031E10CE111241FBECFEFD1E2DEBFCDBFF9
:102C300000E00CBF12E0A0E0B2E0E8E4F6EE01E054
:102C40000BBF02C007900D92A63BB107D9F72AE14E
:102C5000A6EBB2E001C01D92A839B207E1F716E178
:102C6000C1E1D6E100E006C021970109802FFE01F5
:102C70000E9476F2C031D10780E00807A9F70E94D0
:102C800042D90C9413F30C9400002F923F924F9270
:102C90005F926F927F928F929F92AF92BF92CF92EC
:102CA000DF92EF92FF920F931F93CF93DF93CDB7F5
:102CB000DEB7CE55D1090FB6F894DEBF0FBECDBF3B
:102CC00080910E148D3409F42BC1843511F40C94C9
:102CD000972C873411F00C94E12C20910C14309136
:102CE0000D142C31310509F476C06CF42430310513
:102CF00034F42230310544F537FF1FC00DC12430B4
:102D0000310559F109C12A35310509F4FCC04CF4EB
:102D10002D31310509F464C02A32310509F464C04B
:102D2000FBC02B35310509F4F2C02C35310509F013
:102D3000F3C00E94FDB80C94E32C80913C028111F9
:102D40000C94E62C0C94E32C81E02230310509F040
:102D500080E00E9410360C94E32C80E50E947434CD
:102D6000882329F00E94BA336B017C0103C0C12C77
:102D7000D12C760183E50E947434882361F00E948F
:102D8000FA3320E030E04AE754E40E9458E90E9418
:102D9000A2F06B017C010E9423748091FF098111D4
:102DA00005C060E083ED92E00E9479C70E9463CF86
:102DB000C60ED71EE81EF91E0E9463CFDC01CB01B0
:102DC0008C199D09AE09BF09B7FD02C00C94E32C14
:102DD0000E94BFA9F1CF80E00E9410350C94E32C33
:102DE0000E94DAB90C94E32C80913C02882311F400
:102DF0000C94E32C89E40E947434F82E882321F08B
:102E00000E94CA33062F01C000E08AE40E94743495
:102E1000E82E882331F00E94CA33162FF11004C027
:102E20000AC010E0FF20B1F0033010F40C944830D9
:102E3000ECEDF2E003C01330D8F70CC084918F01A1
:102E40000F5F1F4F882311F40C94E32C0E94F73579
:102E5000F801F4CF0E940635FF2091F024E0020231
:102E6000F0011124EB55FF4E80819181A281B38145
:102E70008093320E9093330EA093340EB093350EA0
:102E8000EE2091F034E01302F0011124E756FF4EDA
:102E900080819181A281B3818093360E9093370E09
:102EA000A093380EB093390E80E50E9474348823C5
:102EB00019F00E94EB3303C080E50E942D3486E4B4
:102EC0000E9474348823D9F00E94FA336B017C018C
:102ED00020E030E0A9010E947FF1181684F420E080
:102EE00030E040E752E4C701B6010E9435F060933C
:102EF00016027093170280931802909319020E9491
:102F0000BBCF0C94E32C1092BA020C94E32C81E01A
:102F10008093BA020C94E32C0E943B500C94E32C57
:102F200080910C1490910D148337910511F40C9439
:102F30006A200CF0D4C08B34910509F43EC40CF027
:102F400063C08831910509F4E1C18CF582319105A6
:102F500009F496C784F497FF02C00C94942C823035
:102F600091050CF4B4C1419711F00C94942C0E947B
:102F70006AB80C94E32C8531910509F4ACC144F492
:102F8000449711F00C94942C0E9412B80C94E32CEA
:102F90008631910509F4A3C1479711F00C94942C44
:102FA0000E947C49E0910A14F0910B14A2C18D316A
:102FB000910511F40C94E32CC4F48A31910509F4C1
:102FC0003BC20CF433C28B31910509F443C24C97D8
:102FD00011F00C94942C40E060E080910A149091E0
:102FE0000B140E94034C0C94E32C8F31910509F4CF
:102FF000F6C20CF4C9C28032910509F4D8C18A978F
:1030000009F493C30C94942C8836910509F4E1C318
:10301000F4F58235910509F42AC704F58D3491053C
:1030200009F4D3C30CF4CDC38135910511F00C9490
:10303000942C0E9481A00E9433741092F80910927F
:10304000F70968EE73E080E090E00E94C2C660E09D
:1030500081EE93E00E9479C70C94E32C84359105AE
:1030600009F40EC70CF407C78535910509F43DC76F
:103070008C35910511F00C94942C1EE4C12E12E0B5
:10308000D12E0BE4E02E0DE0F02E10E049C78D3676
:10309000910509F473C49CF48A36910509F4B7C606
:1030A0000CF42BC48B36910509F4CFC68C369105F0
:1030B00011F00C94942C109206020C94E32C8F3691
:1030C000910509F4C8C30CF4B3C38037910509F422
:1030D00010C48237910509F4A3C70C94942C823E46
:1030E000910511F40C94F2250CF075C08E3B9105FE
:1030F00009F4E3C584F58837910511F40C94262171
:103100007CF48637910511F40C94D62014F00C94BD
:1031100022218537910511F40C94C8200C94942C2D
:103120008C38910509F4C5C55CF48937910511F017
:103130000C94942C1092400310923F030C94E32CB7
:103140008139910511F40C942D218B39910509F4E5
:10315000EEC30C94942C8D3C910511F40C94A82290
:10316000CCF4893C910511F40C94EE213CF4883C9C
:10317000910511F40C94A6210C94942C8B3C910590
:1031800011F40C9411228C3C910511F40C94302212
:103190000C94942C833D910511F40C9497247CF4A9
:1031A0008E3C910511F00C94942C0EE4C02E02E09C
:1031B000D02E82E2E82E88E0F82E10E06FC78C3D1A
:1031C000910511F40C9477258D3D910511F40C9423
:1031D00084250C94942C843A41E0940711F40C94C7
:1031E0003B2AA4F58E32A1E09A0711F40C94F42640
:1031F00084F48C32E1E09E0711F40C942A2614F03A
:103200000C9453268232914011F40C941D260C9498
:10321000942C833631E0930711F40C941F2A3CF46C
:103220008F32914011F40C9448270C94942C8039DF
:10323000A1E09A0711F40C94382A8A39914011F0D0
:103240000C94942C0E94A8B60C94E32C863FE1E0E9
:103250009E0711F40C94752C04F58C3A21E092072A
:1032600011F40C9429233CF4853A914011F40C9408
:103270007D2B0C94942C843F51E0950711F40C9411
:103280005C2C853F914011F00C94942C0E94B098D6
:1032900080E00E945F940C94E32C8B38B3E09B0792
:1032A00011F40C94E32C3CF4873F914011F40C94FE
:1032B000782C0C94942C803A23E0920709F482C174
:1032C000873E934011F40C94822C0C94942C0E9411
:1032D00079B80C94E32C0E94804D0C94E32C10924E
:1032E000D1101092D2100C94E32C803209F4108289
:1032F000319680818111F9CF40E061E080910A141C
:1033000090910B140E94034C0C94E32C83E50E94D3
:103310007434882381F00E94CA33AB01BC0140930E
:10332000691350936A1360936B1370936C1389E95C
:1033300092E10E94CAAC8091D210882319F081E0FA
:103340008093D11084E50E947434882309F46AC004
:103350000E94CA3368966FAF689769967FAF699786
:103360006B968FAF6B976A969FAF6A970E941AA071
:1033700068966FAD689769967FAD69976B968FADCC
:103380006B976A969FAD6A976093BA0D7093BB0D69
:103390008093BC0D9093BD0D672B682B692B11F4A6
:1033A0000C94E32C81E080936B0D0C94E32C8091C2
:1033B000D11081110E9423748091D210882311F4BE
:1033C0000C94E32C80E50E947434882309F4F6C041
:1033D0000E94EB33182F482F61E080910A149091DE
:1033E0000B140E94034C83E50E947434882381F0FF
:1033F0000E94CA33AB01BC014093691350936A1316
:1034000060936B1370936C1389E992E10E94CAACCC
:103410008091D210882319F081E08093D11011118E
:103420000C94E32C0E9435A00C94E32C1092D11044
:103430000E9457A00C94E32C8091D210882311F4A1
:103440000C94E32C83E50E94743481110C94EA2CD3
:103450000C94E32C83E40E942D34882309F454C097
:10346000E8E2F3E084918F010F5F1F4F882321F082
:103470000E94F735F801F6CF80919C12882391F0D5
:10348000BE016F5F7F4F89E992E10E945CB28E01BD
:103490000F5F1F4FD8018D918D01882381F10E940C
:1034A000F735F8CFEBEFF2E084918F010F5F1F4FFC
:1034B000882329F10E94F735F801F6CF8091F50CA9
:1034C000882309F409C240E8C42E43E0D42EE12C3D
:1034D000F12C20E08091F50C90E00E2C02C0959527
:1034E00087950A94E2F780FDDFC1FFEFEF1AFF0A2C
:1034F00032E0C30ED11C45E0E416F10459F78AE02E
:103500000E94F7350C94E32C8091D210882371F13E
:103510008091D110882351F1E5E0F3E084918F018F
:103520000F5F1F4F882321F00E94F735F801F6CF77
:103530006091691370916A1380916B1390916C1371
:103540004AE00E94FD3E8FE20E94F73560916513CC
:103550007091661380916713909168134AE00E94FE
:10356000FD3E8AE00E94F7350C94E32CE7E1F3E09E
:1035700084918F010F5F1F4F882311F40C94E32C6B
:103580000E94F735F801F4CF8091D210882311F40E
:103590000C94E32C89E992E10E9487AC89E992E1DD
:1035A0000E94ACB21092D0101092CF1080910A14E9
:1035B00090910B140E94F2B40C94E32C80E50E94CD
:1035C0002D3408CF80910A1490910B1421E02093A0
:1035D000D01040E060E00E94034C0C94E32C0E9469
:1035E000E69F5CE3C52ED12CE12CF12CA7019601BE
:1035F0000E941DEF762E672ECA01B901A701960120
:103600000E941DEF6B017C01CA01B90128E130E085
:1036100040E050E00E941DEF4B015C01C9016DE6E6
:1036200071E00E9433F28E010F5F1F4F611571052B
:1036300099F06F927F92DF92CF929F928F929F9399
:103640008F937F936F938FE593E09F938F931F9357
:103650000F930E948CE812C00097B1F06F927F9296
:10366000DF92CF929F928F929F938F938FE493E0FC
:103670009F938F931F930F930E948CE80FB6F8943B
:10368000DEBF0FBECDBF36C081149104A104B104CA
:1036900079F06F927F92DF92CF929F928F9283E424
:1036A00093E09F938F931F930F930E948CE8E6CF34
:1036B000C114D104E104F10469F06F927F92DF92AA
:1036C000CF928BE393E09F938F931F930F930E946E
:1036D0008CE8D4CF6F927F9287E393E09F938F9390
:1036E0001F930F930E948CE80F900F900F900F90F4
:1036F0000F900F9060E0C8010E94B5C7EEEFF0E1B7
:1037000084917F019FEFE91AF90A882321F00E9432
:10371000F735F701F5CFB80183E793E00E9434D77E
:103720008AE00E94F7350C94E32C83E50E94743400
:10373000882311F40C94E32C0E94DA33E82E80E500
:103740000E947434882339F00E94DA33182F87FFDF
:1037500003C00C94E32C1DE089E40E947434882398
:1037600049F00E94EB33811111C0E0EBF6E081E3F8
:103770008E0F07C089E40E942D34F5CF31968E1745
:1037800029F094911913FACF0C94552E61E0812FF2
:103790000E9428CE6E2D812F0E94F9CDF12CB70109
:1037A000812F0E9464CE193011F00C94E32CF0921A
:1037B000F809E092F7090C94E32C0E9435A00C94D0
:1037C000E32C0E9457A00C94E32C0E946CA00C9454
:1037D000E32C88E690E00E94653F81110C94E32C75
:1037E0008091F50C83FF02C00C94E32C83E50E94CA
:1037F00074348823C9F00E94FA330E949DF07093BC
:10380000F6096093F50980E00E94DF9E0E94FA337A
:1038100020E030E04AEA52E40E94F3E8181624F06F
:103820000E946CA00E94288D0E941FE40C94E32C3F
:103830008EE40E947434882311F40C94E32C0E94CB
:10384000CA336093540E7093550E8093560E909326
:10385000570E0C94E32C83E50E942D34882359F0F5
:1038600083E50E947434882319F00E94DA3301C082
:1038700080E08093F50CEEEFF0E184918F010F5F13
:103880001F4F882321F00E94F735F801F6CFEEE8AC
:10389000F3E084918F010F5F1F4F882309F40ECE50
:1038A0000E94F735F801F5CFBB24B394B20E222362
:1038B00019F08CE20E94F735F60125913491F90157
:1038C000849189010F5F1F4F882321F00E94F735F3
:1038D0009801F5CF2B2D09CEEAE8F3E084918F0112
:1038E0000F5F1F4F882309F40ACE0E94F735F801B5
:1038F000F5CF85E993E00E946DA989E690E00E94EA
:10390000653F81110C944E30EEE9F3E084918F0114
:103910000F5F1F4F882321F00E94F735F801F6CF83
:103920000E94C4938AE00E94F7350C944E3083E5E0
:103930000E947434882311F40C94E32C0E94DA332F
:10394000182F8D3308F01CE31093250E0E9463CFCF
:103950006B017C01212F30E0A8EEB3E00E9449EF1B
:10396000C60ED71EE81EF91EC092210ED092220E5E
:10397000E092230EF092240E0C94E32C8DE690E05E
:103980000E94653F81110C94E32C8091F50C83FF1C
:1039900002C00C94E32C83E50E9474348A8F811159
:1039A00005C082E50E9474348823E1F10E94FA3355
:1039B0000E949DF07093F6096093F50980E00E94E3
:1039C000DF9E0E94FA3320E030E04AEA52E40E948F
:1039D000F3E8181614F40C94FA2C0E946CA00E94C0
:1039E000288D6091F5097091F609072E000C880B5F
:1039F000990B0E94F9E82091670D3091680D409174
:103A0000690D50916A0D0E947FF1181614F40C9400
:103A1000FE2C5A8D511105C085EA93E060E00E94AA
:103A200079C781E06B968FAF6B970E941FE46B960E
:103A30008FAD6B97882311F40C94E32C81E0809375
:103A400006021AA21BA21CA21DA21BA61CA61DA632
:103A50001EA61E8E1FA68CE388AB9CE199ABA6E444
:103A6000AAABC12CD12C20E8E22E3FEBF32E812C07
:103A7000912C54016091F5097091F609072E000C04
:103A8000880B990B0E94F9E8162F072F782E692EC4
:103A9000262F372F482F592FB601C7010E94F3E870
:103AA0008823C1F02091670D3091680D4091690D18
:103AB00050916A0D612F702F872D962D0E94F3E88B
:103AC000881F8827881F8E8FBA8DBB2339F08823E3
:103AD00029F093C11C2D0D2D7E2C6F2C0E9463CFDD
:103AE0006B017C01DC01CB012BA53CA54DA55EA59E
:103AF000821B930BA40BB50BB7FD3BC0D701C601CE
:103B000088519C4FAF4FBF4F8BA79CA7ADA7BEA7B7
:103B10000E94C493E1EAF3E084912F019FEF491AD8
:103B2000590A882321F00E94F735F201F5CF81145C
:103B30009104A104B104B9F0D501C401805F984D8E
:103B4000AF4FBF4FBC01CD016C197D098E099F0994
:103B500028EE33E040E050E00E941DEFCA01B901B9
:103B60000E94A63F03C08FE30E94F7358AE00E94BF
:103B7000F7350E94BFA90E9463CF6093190E70931E
:103B80001A0E80931B0E90931C0EA091670DAEA38E
:103B9000B091680DBFA3E091690DE8A7F0916A0D9F
:103BA000F9A79D01AF01612F702F872D962D0E94DF
:103BB00058EF1B012C0120E030E0A9010E947FF1A9
:103BC00087FF04C057FA509457F850948114910419
:103BD000A104B10459F420E030E040E85FE3C20101
:103BE000B1010E94F3E887FF0DC00AC020E030E079
:103BF00040E450E4C201B1010E947FF1181614F4B0
:103C0000460157012E8D2223C1F18AA19BA1ACA1AF
:103C1000BDA1892B8A2B8B2B61F0D701C6012AA16C
:103C20003BA14CA15DA1821B930BA40BB50BB7FD6F
:103C300024C02EA13FA148A559A56FA578A989A99F
:103C40009AA90E9458EF20E030E040EC5FE30E9428
:103C5000F3E887FDD2C0D701C601805A9541AF4F26
:103C6000BF4F8AA39BA3ACA3BDA39EA19FA7AFA157
:103C7000A8ABB8A5B9ABE9A5EAAB80910602882349
:103C800009F4BBC081149104A104B10429F4C12E2C
:103C9000D02EE72CF62CEECEF0E1CF1AF7E2DF0AB9
:103CA000E108F108C818D908EA08FB08F7FEA5C022
:103CB000EECF0E94F9B70C94E32C8091F50C83FFB2
:103CC00002C00C94E32C83E50E94743489A781110F
:103CD00007C082E50E947434882311F40C94E32C0D
:103CE0000E94FA330E949DF06E36710514F00C9418
:103CF000FB2D7093F4096093F3090E94949E0E9437
:103D0000FA3320E030E040EA50E40E947FF11816D8
:103D100014F40E9435A06091F3097091F409072E04
:103D2000000C880B990B0E94F9E82091630D3091EB
:103D3000640D4091650D5091660D0E947FF118163B
:103D400014F40C94022D83EC93E060E00E9479C798
:103D500081E0809306028091FF0C8093620D1E8E9D
:103D60001F8E18A219A21BA61CA61DA61EA61A8E7F
:103D70001FA62CE328AB3CE139AB46E44AABC12C8F
:103D8000D12C80E8E82E9FEBF92E812C912C540148
:103D90006091F3097091F409072E000C880B990BC0
:103DA0000E94F9E8162F072F782E692E262F372F1D
:103DB000482F592FB601C7010E94F3E8882311F458
:103DC0000C94062D2091630D3091640D4091650D8A
:103DD0005091660D612F702F872D962D0E94F3E86C
:103DE000881F8827881F8A8F59A5552311F40C94A2
:103DF0000A2D882311F40C940A2D80910602882341
:103E000011F40C94E32C0E94288D0C94E32C80E593
:103E10000E947434811106C083E50E9474348823A3
:103E200061F006C00E94DA3381110C94E32CF4CFC8
:103E30000E94CA336F3F710510F06FEF70E070930E
:103E4000F8096093F7090C94E32C80E50E94743420
:103E5000811106C01092F8091092F7090C94E32C16
:103E60000E94CA33672B11F00C94E32CF3CF10920D
:103E7000B9020C94E32C81E08093B9020C94E32CFA
:103E800083E50E9474348823A1F00E94FA3320E075
:103E900030E04AE754E40E9458E90E94A2F060939F
:103EA00040027093410280934202909343020C942B
:103EB000E32C88E50E942D3481110C94FF2D89E5B7
:103EC0000E942D3481110C94FF2D8AE50E942D341F
:103ED00081110C94FF2D85E40E942D3481110C94E6
:103EE000FF2D0E9433740C94E32C83E50E942D3443
:103EF000882311F40C94E32C0E94FA3320E030E084
:103F00004AE754E40E9458E90E94A2F060931D0E13
:103F100070931E0E80931F0E9093200E0C94E32C32
:103F2000D6018D916D010E942D34882309F46DC056
:103F3000133009F063C00E94FA334B015C0120E0AA
:103F400030E040EA51E40E94F3E887FF4EC0A5014B
:103F500094016091570D7091580D8091590D909179
:103F60005A0D0E9435F02B013C019B01AC01609180
:103F7000470D7091480D8091490D90914A0D0E9416
:103F800058E96093470D7093480D8093490D9093C5
:103F90004A0DA3019201609187137091881380915B
:103FA000891390918A130E9458E960938713709344
:103FB00088138093891390938A136091BA14709137
:103FC000BB148091BC149091BD140E94F7E8A3012A
:103FD00092010E9458E90E94A2F06093BA14709373
:103FE000BB148093BC149093BD148092570D909293
:103FF000580DA092590DB0925A0D07C00E94FA3385
:10400000F70160837183828393831F5FF4E0EF0E77
:10401000F11C143009F084CF0E94D1D80C94E32C09
:104020000E94237483E50E947434882309F44EC0EF
:104030000E94CA336230710509F048C00E9496D3CD
:104040008BE50E94F73560919114709192148091E4
:1040500093149091941442E00E94C13F40919514B2
:1040600050919614609197147091981486EF93E094
:104070000E94FED64091991450919A1460919B141D
:1040800070919C1483EF93E00E94FED68DE50E9410
:10409000F7358AE00E94F7350C94E32CF601819104
:1040A0006F010E942D34882359F00E94FA33D70102
:1040B0006D937D938D939C931397812F0E9466320D
:1040C0001F5FB4E0EB0EF11C133041F70E942EB7D6
:1040D0000C94E32CE8EDF4E084918F010F5F1F4F07
:1040E000882321F00E94F735F801F6CF60E088ECD4
:1040F00094E00E94EAB660E081EC94E00E94EAB6A7
:1041000061E086EB94E00E94EAB661E086EA94E022
:104110000E94EAB660E08DE994E00E94EAB661E0B0
:1041200083E994E00E94EAB660E089E894E00E94A6
:10413000EAB660E081E894E00E94EAB661E083E7D5
:1041400094E00E94EAB660E085E694E00E94EAB658
:1041500060E086E594E00E94EAB660E088E494E0DE
:104160000E94EAB660E082E394E00E94EAB660E072
:1041700081E294E00E94EAB660E08CE094E00E9464
:10418000EAB661E089EF93E00E94EAB60C94E32C72
:1041900080910A1490910B14DC012C91222309F4D4
:1041A00032CE60E00E94B5C70C94E32C00910A1453
:1041B00010910B1483E0D12C40E08150E1F0F80124
:1041C0009081292F2B7F2134C1F721812133A9F739
:1041D000913421F0953421F441E002C0DD24D394E0
:1041E00098012E5F3F4F89012F5F3F4FD8019C916F
:1041F0009032C9F3E2CF442369F0EEEFF0E184910D
:104200007F01BFEFEB1AFB0A882321F00E94F735EC
:10421000F701F5CFDD2069F0E0EAF5E084917F0158
:104220002FEFE21AF20A882321F00E94F735F701F6
:10423000F5CFD8018D918D01882309F460C90E94C2
:10424000F735F7CF0E945ECC0C94E32C81E080938D
:10425000400380933F030C94E32C83E50E94743465
:10426000882319F00E94CA3302C060E070E08B011D
:10427000112702301105D4F0EDEFF4E284918F01A3
:104280000F5F1F4F882321F00E94F735F801F6CF0A
:10429000E4EAF5E084918F010F5F1F4F882311F44A
:1042A0000C94E32C0E94F735F801F4CF88E40E94C7
:1042B00074348823A1F00E94CA336A3A710534F03D
:1042C000663F71052CF065EF70E002C06AEA70E0AD
:1042D000F801EE0FFF1FE053F64F7183608386E411
:1042E0000E9474348823A9F00E94CA33F801EE0FAB
:1042F000FF1FEC52F64F718360836F3F710519F019
:1043000014F06FEF70E077FF02C060E070E071833F
:10431000608382E40E947434882311F40C94E32CAB
:104320000E94CA336530710534F0603671052CF097
:104330006FE570E002C065E070E0000F111FF8014A
:10434000E453F64F718360830C94E32C88EC90E087
:104350000E94653F81110C94E32C84E40E942D346B
:104360008823C1F10E94FA3311E020E030E0A90176
:104370000E94F3E8811101C010E010935F0D11233A
:1043800049F10E94FA33E091620DB4E0EB9FF00135
:104390001124E55AF24F608371838283938320E076
:1043A00030E0A90160915B0D70915C0D80915D0D15
:1043B00090915E0D0E94F3E881110CC080E090E0C6
:1043C000A0EEBFE380935B0D90935C0DA0935D0D19
:1043D000B0935E0D0E9497630C94E32C3BE8E32EB0
:1043E00033E1F32E0EE412E044E0D42ED00EF801B7
:1043F00081918F010E942D34882351F00E94FA335D
:104400000E94A2F0D7016D937D938D939C93139797
:10441000B4E0EB0EF11CD012EACF0E948CD70C94C2
:10442000E32C9BE7E92E93E1F92E0EE412E024E061
:10443000D22ED00EF80181918F010E942D34882355
:1044400041F00E94FA33D7016D937D938D939C9335
:104450001397B4E0EB0EF11CD012ECCF0C94E32CCC
:1044600083E50E9474348823A1F00E94FA3360939C
:10447000A3137093A4138093A5139093A613609332
:104480009B1370939C1380939D1390939E1310E045
:1044900001C011E080E50E947434882359F00E9425
:1044A000FA336093A3137093A4138093A51390938E
:1044B000A61310E082E50E947434882359F00E940C
:1044C000FA3360939F137093A0138093A11390937A
:1044D000A21310E084E50E947434882361F00E94E6
:1044E000FA3360939B1370939C1380939D13909366
:1044F0009E130C94E32C112311F40C94E32C4091A3
:10450000A3135091A4136091A5137091A6138CEC82
:1045100095E00E94FED640919F135091A0136091A8
:10452000A1137091A21389EC95E00E94FED64091F0
:104530009B1350919C1360919D1370919E1386EC78
:1045400095E00E94FED68AE00E94F7350C94E32C99
:1045500081E50E942D34882351F00E94BA33609384
:10456000F00C7093F10C8093F20C9093F30C83E5B4
:104570000E942D34882351F00E94FA336093771300
:10458000709378138093791390937A1384E50E9443
:104590002D34882351F00E94FA3360937313709383
:1045A0007413809375139093761388E50E942D34CD
:1045B000882351F00E94FA3360933B0D70933C0DB9
:1045C00080933D0D90933E0D89E50E942D34882304
:1045D00051F00E94FA3360933F0D7093400D809329
:1045E000410D9093420D8AE50E942D348823F1F00D
:1045F0000E94FA336093430D7093440D8093450DF0
:104600009093460D2DEC3CEC4CEC5DE30E94F3E8FE
:10461000181664F0ECEDF5E084918F010F5F1F4FE9
:10462000882321F00E94F735F801F6CF85E40E9437
:104630002D34882311F40C94E32C0E94FA336093F8
:10464000470D7093480D8093490D90934A0D0C943B
:10465000E32C8091C90C082F017011E0012781FB28
:10466000FF24F0F8F12682FB882780F91827011132
:1046700002C0FF2019F0EEEFF0E115C01111FBCFE1
:1046800011EA812E14E2912E29E23AE03B8F2A8F23
:10469000AE014F5F5F4F5A010AEE14E21A0153E078
:1046A000500F5E8F7CC084916F012FEFC21AD20A27
:1046B000882321F00E94F735F601F5CFEEE2F6E00F
:1046C00084916F013FEFC31AD30A882321F00E941F
:1046D000F735F601F5CF002369F0ECE2F6E08491BE
:1046E0006F014FEFC41AD40A882321F00E94F735D6
:1046F000F601F5CFFF2069F0EAE2F6E084916F0160
:104700005FEFC51AD50A882321F00E94F735F6011C
:10471000F5CF111103C0E0E2F6E00DC0E8E2F6E0EB
:1047200084916F019FEFC91AD90A8823A1F30E94CF
:10473000F735F601F5CF84916F01AFEFCA1ADA0AA7
:10474000882321F00E94F735F601F5CF111103C03F
:104750004CE952E002C04CE852E0F11003C02CE9F1
:1047600032E002C02EE832E0011103C08CE992E091
:1047700002C080E992E05F934F933F932F939F9302
:104780008F938EE096E09F938F931F920E94E44F49
:104790000FB6F894DEBF0FBECDBF0C94E32CF4012E
:1047A0006591759185919491AA8DBB8DCD90DD9089
:1047B000ED90FD90BB8FAA8FA70196010E9458EF44
:1047C0002B013C0120E030E040EA51EC0E947FF1F7
:1047D00087FD10C020E030E040EA51E4C301B2019F
:1047E0000E94F3E8181634F0F1014082518262828F
:1047F00073820DC0F80184911816B4F7F7FAF0949B
:10480000F7F8F094F101C082D182E282F382D10103
:10481000CD90DD90ED90FD901D0120E030E040EA6C
:1048200051ECC701B6010E947FF187FF03C0EDEF95
:10483000F4E20BC020E030E040EA51E4C701B601E9
:104840000E94F3E818167CF5F2CF84918F010F5F78
:104850001F4F882321F00E94F735F801F6CFE2E5DB
:10486000F6E084918F010F5F1F4F882321F00E9493
:10487000F735F801F6CF61E084E496E00E9479C74D
:104880000E94FD8D88E290E09F8B8E8B88EC90E0FB
:10489000998F888FBE016A5E7F4FCE0148960E9435
:1048A000C24E0C94E32CB4E08B0E911C0F5F1F4F93
:1048B000EE8DE01374CFB2E2EB2EB8E0FB2E10E0E9
:1048C000F50181919191A191B1915F01F7018193DE
:1048D0009193A193B1937F01812F0E9466321F5F54
:1048E000133071F70E942EB760E084E396E00E94D7
:1048F00079C783E992E0998F888F04E610E01F8BD7
:104900000E8BBE01685E7F4FCE0146960E94C24E5E
:104910008AEB92E0998F888F1F8B0E8BBE01685EA9
:104920007F4FCE0146960E94C24E0C94E32CEEEFD0
:10493000F0E184918F010F5F1F4F882321F00E94C7
:10494000F735F801F6CF83E50E942D34882321F056
:104950000E94EB3380932F02E8E9F6E084918F0107
:104960000F5F1F4F882321F00E94F735F801F6CF23
:1049700080912F02811103C0E4E9F6E002C0E0E972
:10498000F6E084918F010F5F1F4F882321F00E9472
:10499000F735F801F6CFE8E8F6E084918F010F5F74
:1049A0001F4F882321F00E94F735F801F6CF2091A0
:1049B000D20C3091D30C4091D40C5091D50C609115
:1049C000DE0C7091DF0C8091E00C9091E10C0E9464
:1049D00059EFAB01BC0186E896E00E94FED620911B
:1049E000D60C3091D70C4091D80C5091D90C6091D5
:1049F000E20C7091E30C8091E40C9091E50C0E9424
:104A000059EFAB01BC0183E896E00E94FED62091ED
:104A1000DA0C3091DB0C4091DC0C5091DD0C609194
:104A2000E60C7091E70C8091E80C9091E90C0E94E3
:104A300059EFAB01BC0180E896E00E94FED6E8E7A2
:104A4000F6E084918F010F5F1F4F882321F00E94B1
:104A5000F735F801F6CF2091D20C3091D30C40916C
:104A6000D40C5091D50C6091230270912402809156
:104A70002502909126020E9459EFAB01BC0186E706
:104A800096E00E94FED62091D60C3091D70C409132
:104A9000D80C5091D90C6091270270912802809116
:104AA000290290912A020E9459EFAB01BC0183E7D1
:104AB00096E00E94FED62091DA0C3091DB0C4091FA
:104AC000DC0C5091DD0C60912B0270912C028091D6
:104AD0002D0290912E020E9459EFAB01BC0180E79C
:104AE00096E00E94FED68AE00E94F7356CC783E507
:104AF0000E947434882309F466C70E94CA337093F5
:104B00003B0260933A025FC78DED90E00E94653FE3
:104B1000811159C783E50E9474348823D9F100912B
:104B2000620D10E00E94CA33000F111FF801E85C0B
:104B3000FD4F718360838091620D90E08C01000FC6
:104B4000111F000F111F98012C5C3D4F7901880F38
:104B5000991FFC01E85CFD4F60817181072E000CFC
:104B6000880B990B0E94F9E82AE037ED43E25CE3F9
:104B70000E9458E9F801ED5CF24F208131814281B9
:104B800053810E9458E9D7016D937D938D939C9337
:104B9000139719C7EEEFF0E184918F010F5F1F4F5C
:104BA000882321F00E94F735F801F6CF85E40E94B2
:104BB000F7358091620D805D0E94F735E091620DBE
:104BC000F0E0EE0FFF1FE85CFD4F6081718188EA25
:104BD00096E00E941BD785E20E94F7358AE00E948A
:104BE000F735F1C680E50E942D34882309F4EBC621
:104BF0000E94CA336B017C0183E50E9474348823D0
:104C000021F00E94CA338B0102C00FEF1FEFC801D1
:104C10000196039708F0D7C6D7FCD5C69C2DE0EBCC
:104C2000F6E081E38E0F2491921711F40C94552E27
:104C300031968E13F8CF0C942D2E8AE50E94743491
:104C400081110C94582E83E50E94743481110C94C8
:104C5000582EB9C683E50E947434882319F00E9447
:104C6000CA3302C064E071E07F8B6E8B80E50E94E6
:104C70007434882339F00E94CA336938B3E17B0762
:104C800030F402C068EE73E07A83698304C088E878
:104C900093E19A838983BE016A5E7F4FCE010196BC
:104CA0000E94C24E90C685E40E947434811110C0E7
:104CB00080E50E942D34882391F00E94FA3360939E
:104CC000BF097093C0098093C1099093C20907C0BE
:104CD0000E94DA33882361F3EDEFF4E26EC089E4D9
:104CE0000E942D34882381F00E94FA332CEA35EC9F
:104CF00047E25EE30E9458E96093C7097093C809D0
:104D00008093C9099093CA0984E40E942D348823B2
:104D100081F00E94FA332CEA35EC47E25EE30E9410
:104D200035F06093C3097093C4098093C5099093CB
:104D3000C609EEEFF0E184918F010F5F1F4F8823CA
:104D400021F00E94F735F801F6CF4091BF0950914C
:104D5000C0096091C1097091C20989EE96E00E9474
:104D6000FED62CEA35EC47E25EE36091C70970910C
:104D7000C8098091C9099091CA090E9435F0AB0118
:104D8000BC0185EE96E00E94FED62CEA35EC47E2A7
:104D90005EE36091C3097091C4098091C509909147
:104DA000C6090E9458E9AB01BC0181EE96E00E9461
:104DB000FED68AE00E94F73506C684918F010F5F08
:104DC0001F4F882321F00E94F735F801F6CFEDEE52
:104DD000F6E084918F010F5F1F4F882309F4F3C51C
:104DE0000E94F735F801F5CF83E50E942D34182F86
:104DF000882371F00E94FA330E949DF07093310273
:104E00006093300221E0672B09F020E02093F40C3E
:104E100080E50E942D34882359F020913002309192
:104E20003102232B11F00E94EB338093F40CCBC59D
:104E30001111C9C5EEEFF0E184918F010F5F1F4F93
:104E4000882321F00E94F735F801F6CF8091F40C09
:104E5000811103C065E972E002C062E972E084E199
:104E600097E00E9434D7609130027091310283E064
:104E700097E00E941BD7EFEFF6E084918F010F5F60
:104E80001F4F882309F49FC50E94F735F801F5CF1D
:104E900085E40E947434882321F00E94CA337B0188
:104EA00002C0E12CF12C83E40E947434882321F0A9
:104EB0000E94CA336EAF02C025E02EAF85E50E9486
:104EC0007434882319F00E94EB3303C085E50E94F7
:104ED0002D342B968FAF2B97F7FC07C0812C912C8C
:104EE00056E1A52E53E4B52E06C0812C912C4CE83A
:104EF000A42E42E4B42E83E50E947434882321F06A
:104F00000E94FA334B015C01E114F10411F4109298
:104F1000620D0E9463CF2B013C01EE2069F0E6E9AF
:104F2000F8E084918F010F5F1F4F882309F44BC570
:104F30000E94F735F801F5CFE0ECF8E084917F01AD
:104F40003FEFE31AF30A882321F00E94F735F701B7
:104F5000F5CFC501B4010E949DF0072E000C880B0F
:104F6000990B0E94F9E86AA37EA38FA398A7D301A7
:104F7000C201805E914BAF4FBF4F67968CAF9DAF24
:104F8000AEAFBFAF67970E9481A08FE78093600D9F
:104F900081E08093060226964CAE5DAE6EAE7FAE8B
:104FA00026972F964CAE5DAE6EAE7FAE2F972296B3
:104FB0001FAE229763961CAE1DAE1EAE1FAE63974A
:104FC0001BA690E49FA7ACE1A8ABB6E4B9AB1AAAC4
:104FD0001BAA1CAA1DAA1AAE1BAE1CAE1DAE1EAA91
:104FE0001FAA18AE19AEC12CD12C76012FE730E0E4
:104FF00040E050E02E8F3F8F48A359A33FE7832E18
:10500000912CA12CB12C2A961CAE1DAE1EAE1FAE4B
:105010002A9731E021963FAF21971AA619A610E0F2
:10502000212C312C00E04EAD042E000C550B5FAF4F
:105030004EAF80910602882309F4C9C00E9463CF55
:105040006A8F7B8F8C8F9D8F8091BE0D882309F492
:10505000A2C00E94C69F1091670D2090680D3090ED
:10506000690D00916A0D212F322D432D502F6AA911
:105070007BA98CA99DA90E94F3E887FF04C01AAB05
:105080002BAA3CAA0DAB212F322D432D502F6BA5FF
:105090007FA588A999A90E947FF1181624F41BA75F
:1050A0002FA638AA09AB21965FAD21972AA13EA170
:1050B0004FA1552309F450C058A5612F722D832D9F
:1050C000902F0E947FF118160CF065C08A8D9B8D81
:1050D000AC8DBD8D84199509A609B7096F968CAF63
:1050E0009DAFAEAFBFAF6F9788589341A109B1098B
:1050F000B7FD51C0D501C4012E8D3F8D48A159A1E6
:10510000821B930BA40BB50BB595A7959795879527
:105110008093600D6F968CAD9DADAEADBFAD6F97BA
:105120002A968CAF9DAFAEAFBFAF2A979AA19AAB2C
:10513000AEA1ABABBFA1BCABE8A5EDAB2A8D3B8D5F
:105140004C8D5D8D26962CAF3DAF4EAF5FAF269751
:1051500021961FAE21971FC058A5612F722D832D58
:10516000902F0E94F3E887FF16C08A8D9B8DAC8D2F
:10517000BD8D26962CAD3DAD4EAD5FAD2697821B05
:10518000930BA40BB50BAC01BD0148585341610909
:10519000710977FFC5C520E030E040EA51E46AA11B
:1051A0007EA18FA198A50E9459EF9B01AC01612FB0
:1051B000722D832D902F0E947FF118167CF4E2E26D
:1051C000F8E084918F010F5F1F4F811103C00E948F
:1051D00081A0F9C30E94F735F801F3CF8A8D9B8D2A
:1051E000AC8DBD8D2F962CAD3DAD4EAD5FAD2F97E7
:1051F000821B930BA40BB50BB7FD90C00E94C49308
:105200008AE00E94F7358A8D9B8DAC8DBD8D8053D1
:10521000984FAF4FBF4F2F968CAF9DAFAEAFBFAF84
:105220002F9722969FAD229791115DC063962CAD6A
:105230003DAD4EAD5FAD6397612F722D832D902FE5
:105240000E947FF11816D4F520E030E040E050E4F1
:10525000612F722D832D902F0E9459EF63966CAFB2
:105260007DAF8EAF9FAF63972A8D3B8D4C8D5D8D4B
:10527000205E314B4F4F5F4F67962CAF3DAF4EAF27
:105280005FAF679720E030E040EC50E46AA17EA178
:105290008FA198A50E9458EF9B01AC0181E0229656
:1052A0008FAF2297612F722D832D902F0E947FF157
:1052B0001816A4F122961FAE229730C08A8D9B8DBE
:1052C000AC8DBD8D67962CAD3DAD4EAD5FAD679796
:1052D000821B930BA40BB50BB7FD20C041E058E037
:1052E00063E178E018C020E030E040EA51E46AA1D0
:1052F0007EA18FA198A50E9458EF9B01AC01612F60
:10530000722D832D902F0E94F3E887FF07C04EED8A
:1053100057E061EF77E080E00E94A4A08A8D9B8D2A
:10532000AC8DBD8D880F991FAA1FBB1F26962CAD73
:105330003DAD4EAD5FAD2697821B930BA40BB50B15
:1053400084199509A609B70981389F44A241B1057E
:1053500068F0E0ECF7E084918F010F5F1F4F882326
:1053600009F435CF0E94F735F801F5CF49A55AA5C4
:105370008EAD9FAD841795070CF05EC0E3E6F7E0B5
:1053800084918F010F5F1F4F882321F00E94F73512
:10539000F801F6CFB701A6018FE497E00E94FED690
:1053A0008AE00E94F7354EA95FA968AD79AD8BE31D
:1053B00097E00E94FED68AE00E94F7354AAD5BADC9
:1053C0006CAD7DAD87E297E00E94FED68AE00E9438
:1053D000F7352B969FAD2B97992309F4F4C2C09211
:1053E000BF09D092C009E092C109F092C2092CEA2B
:1053F00035EC47E25EE36EA97FA988AD99AD0E94C6
:1054000058E96093C7097093C8098093C9099093BC
:10541000CA092CEA35EC47E25EE36AAD7BAD8CADA0
:105420009DAD0E9435F06093C3097093C4098093C9
:10543000C5099093C609C7C20E94357BFACDEDEF2E
:10544000F4E284918F010F5F1F4F882321F00E94A7
:10545000F735F801F6CFE4EDF8E084918F010F5FA6
:105460001F4F882309F4AFC20E94F735F801F5CF2A
:105470000E942374A8C283E50E942D34882341F042
:105480000E94EB33082F811105C080E0E3D602C0F3
:10549000009137088091290A90912A0AA0912B0A3D
:1054A000B0912C0A89839A83AB83BC8380912D0AA7
:1054B00090912E0AA0912F0AB091300A8D839E837D
:1054C000AF83B8878091310A9091320AA091330A54
:1054D000B091340A89879A87AB87BC878BD688239B
:1054E00009F462C083E40E942D3481117AC55CC046
:1054F000F701AA8DEA0FF11DEE0FFF1FEE0FFF1F40
:10550000E254FC4E9080A180B280C380292D3A2DB8
:105510004B2D5C2D682D7D2D8E8D9AA10E947FF1E3
:10552000181624F4892CDA2CBE8ECAA2292D3A2D05
:105530004B2D5C2DB3018EA19FA10E94F3E887FF44
:1055400004C0692C7A2CBEA2CFA2BA8DB150BA8FFA
:10555000BF3F71F6111155C593014EA15FA1682D92
:105560007D2D8E8D9AA10E9459EF20E030E040E021
:105570005FE30E9458E9A20191010E9459EF4B019B
:105580005C012DEB37E346E855EB0E947FF187FD88
:1055900043C52DEB37E346E855E3C501B4010E944E
:1055A000F3E818160CF438C586E50E942D348823DC
:1055B00091F020D6882379F0E2E2F9E084917F012E
:1055C0002FEFE21AF20A882321F00E94F735F70143
:1055D000F5CF0E9440CB8AE50E942D34882321F02C
:1055E0000E94FA3340E056D6802F34D6011103C012
:1055F000EEEFF0E11CC0809137088111F9CFEDEF9B
:10560000F4E284918F010F5F1F4F882321F00E94E5
:10561000F735F801F6CFE3E0F9E084918F010F5FF1
:105620001F4F882329F30E94F735F801F6CF8491A4
:105630008F010F5F1F4F882321F00E94F735F8017B
:10564000F6CF80913708811103C06DE972E002C086
:1056500069E972E085EF98E00E9434D78AE00E9401
:10566000F735EEEFF0E184918F010F5F1F4F882334
:1056700021F00E94F735F801F6CFE8EEF8E08491CA
:105680008F010F5F1F4F882321F00E94F735F8012B
:10569000F6CFC0903308D0903408E0903508F090F1
:1056A000360820E030E0A901C701B6010E947FF171
:1056B00018164CF442E0C701B6010E94C13F8AE0CF
:1056C0000E94F7350CC0E3EEF8E084918F010F5F84
:1056D0001F4F882321F00E94F735F801F6CF4CE0E8
:1056E00050E069E27AE0CE0101960E949CF2892B9B
:1056F00009F469C10E942EB766C188E50E942D3465
:10570000B82E89E40E942D34A82E882319F00E9417
:10571000CA331AC0BB20D1F00E94FA3320E030E037
:1057200040E251E40E9458EF20E030E048E452E4C7
:105730000E9459EF2AE037ED43E25CE30E9458E90A
:105740000E949DF0633010F4F62E02C0FF24FA94FC
:1057500089E50E942D34E82E8AE40E942D34182F0A
:10576000882319F00E94CA331AC0EE20D1F00E949B
:10577000FA3320E030E040E251E40E9458EF20E0AC
:1057800030E048E452E40E9459EF2AE037ED43E26A
:105790005CE30E9458E90E949DF0633010F4062FEC
:1057A00001C00FEF8AE50E942D34C82E811105C07B
:1057B00081E50E942D34D82E01C0D12CA11001C04A
:1057C00010E0212F30E0B11001C0E12C2E0D311D71
:1057D0002130310519F0EDEFF4E205C0C1101AC017
:1057E000D11018C0F8CF84918F010F5F1F4F88230D
:1057F00021F00E94F735F801F6CFE7E5F9E0849152
:105800008F010F5F1F4F882309F4DDC00E94F73519
:10581000F801F5CFF7FE03C0EDEFF4E206C007FF95
:1058200017C0FACF0E94F735F80184918F010F5FFE
:105830001F4F8111F7CFE8E3F9E084918F010F5FEB
:105840001F4F882309F4BFC00E94F735F801F5CF38
:10585000D1D7A02F000FBB0B0F2DFF0C110BDD209C
:1058600091F0F801EE0FFF1FE00FF11FEA0FFB1F91
:10587000EE0FFF1FEE0FFF1FE254FC4E208131811F
:105880004281538103C020E030E0A901F801EE0F0E
:10589000FF1F0E0F1F1F0A0F1B1F000F111F000FEE
:1058A000111F02541C4E0E9459EFD8016D937D9335
:1058B0008D939C93139787C0EDEFF4E284918F0151
:1058C0000F5F1F4F882321F00E94F735F801F6CFB4
:1058D000E7E7F9E084918F010F5F1F4F882309F4F8
:1058E00072C00E94F735F801F5CF0E94B0986BC0E6
:1058F00083E5B3D7882319F06ED791E089270E94FA
:105900005F9461C081E080933C021092280A83E595
:10591000EBD7882331F05FD7811155C00E94F0D3B7
:1059200052C083E59AD7F8CF0E943B504CC0F0900C
:105930000C140E9423741091370880E08BD4FF2050
:1059400029F1EEEFF0E184918F010F5F1F4F882363
:1059500021F00E94F735F801F6CF84E50E94F73573
:105960006F2D70E080E090E04AE00E94FD3E80E212
:105970000E94F735EAE9F9E084918F010F5F1F4F2C
:10598000882309F10E94F735F801F6CF1092FF0C39
:10599000812F60D4EEEFF0E184918F010F5F1F4FF4
:1059A000882321F00E94F735F801F6CF6091FF0CB3
:1059B00070E088E899E00E941BD78AE00E94F735E2
:1059C00002C00E943B500E94D3D368C399D70E9463
:1059D000BBCFF9CFDFD6AB01BC0140936913509325
:1059E0006A1360936B1370936C1389E992E10E94C0
:1059F000CAACE9CF0E9435A00C94F11C82EB93E075
:105A00000C940E1D82ED93E00C94A51E1C2D0D2D03
:105A10007E2C6F2C0E9463CF6B017C01DC01CB01DB
:105A20002BA53CA54DA55EA5821B930BA40BB50B26
:105A3000B7FD3BC0D701C60188519C4FAF4FBF4F48
:105A40008BA79CA7ADA7BEA70E94C493EFEBF3E082
:105A500084912F019FEF491A590A882321F00E944F
:105A6000F735F201F5CF81149104A104B104B9F026
:105A7000D501C401805F984DAF4FBF4FBC01CD0130
:105A80006C197D098E099F0928EE33E040E050E053
:105A90000E941DEFCA01B9010E94A63F03C08FE317
:105AA0000E94F7358AE00E94F7350E94BFA90E9444
:105AB00063CF6093190E70931A0E80931B0E909310
:105AC0001C0EA091630DAAA3B091640DBEA3E0913A
:105AD000650DEFA3F091660DF8A79D01AF01612F51
