:100000000C94FC140C942D150C942D150C942D159A
:100010000C942D150C942D150C942D150C942D1558
:100020000C942D150C942D150C942D150C942D1548
:100030000C942D150C942D150C942D150C942D1538
:100040000C942D150C94985F0C942D150C942D1573
:100050000C942D150C942D150C9404AE0C946F700B
:100060000C942D150C94D8320C942D150C942D1540
:100070000C942D150C942D150C942D150C942D15F8
:100080000C942D150C942D150C942D150C942D15E8
:100090000C942D150C942D150C942D150C942D15D8
:1000A0000C942D150C942D150C942D150C942D15C8
:1000B0000C942D150C942D150C942D150C942D15B8
:1000C0000C942D150C942D150C942D150C942D15A8
:1000D0000C942D150C942D150C942D150C942D1598
:1000E0000C942D15CE96D196C096C496CA960897B4
:1000F000D596D996DF96E396E796ED96F196F59626
:100100000897FB96FF960397DF9CE49CE99CF39C81
:10011000FD9C769D079D0F9D179D219D2B9D359DD7
:10012000449D4E9D769D589D629D6C9D084AD73B8F
:100130003BCE016E84BCBFFDC12F3D6C74319ABDB6
:1001400056833DDA3D00C77F11BED9E4BB4C3E91DA
:100150006BAAAABE000000803F05A84CCDB2D44EC9
:10016000B93836A9020C50B9918688083CA6AAAACB
:100170002ABE000000803F004E414E494E4954596E
:10018000494E46CDCCCC3D0AD7233C17B7D1387762
:10019000CC2B329595E6241FB14F0A000020410078
:1001A00000C84200401C4620BCBE4CCA1B0E5AAEC2
:1001B000C59D74434F4D4D554E49434154494F4E93
:1001C0000044525952554E004552524F5253004925
:1001D0004E464F004543484F0047322F4733206279
:1001E000616420706172616D65746572730A005399
:1001F0006C6565702E2E2E00206F6620004D424CDF
:100200002047323920706F696E74200059206F7555
:1002100074206F662072616E67652028312D332946
:100220002E0A0058206F7574206F662072616E6709
:10023000652028312D33292E0A004D657368207002
:10024000726F62696E6720646F6E652E0A00537468
:10025000617274206D6573682070726F62696E6779
:100260002077697468202247323920533122206672
:10027000697273742E0A004732380A4732392053A4
:1002800032004732392053320053746174653A208A
:10029000004D65736820626564206C6576656C69E5
:1002A0006E6720686173206E6F20646174612E0A2E
:1002B0000053206F7574206F662072616E67652031
:1002C00028302D35292E0A004D65736820706F691E
:1002D0006E742063616E6E6F742062652072657348
:1002E0006F6C7665640A00526573756D696E672080
:1002F0007072696E7400416E79637562696320691A
:10030000332B2072656164792E00436C69636B2026
:10031000746F20726573756D652E2E2E004E6F20E2
:100320006D6F76652E00456E642066696C65206C85
:100330006973740A00426567696E2066696C65209E
:100340006C6973740A005344207072696E74696E2C
:1003500067206279746520004E6F742053442070CA
:1003600072696E74696E670A0046696C652064651F
:100370006C657465643A0044656C6574696F6E20E1
:100380006661696C65642C2046696C653A20006F73
:1003900070656E206661696C65642C2046696C65C9
:1003A0003A20002569730025696D202569730025B1
:1003B00069682025696D20256973002569642025F9
:1003C00069682025696D20256973002569792025D4
:1003D0006964202569682025696D202569730050AE
:1003E00072696E742074696D653A200050726F7482
:1003F00065637465642050696E0A006F6E2E0A0092
:100400006F66662E0A0047323620446562756720A3
:100410000045256920257300416E79637562696323
:100420002069332B2072656164792E00D401CF01DD
:10043000C801C101B3016F66660044454255473AA1
:10044000004B494C4C45442E20006F6B00426564C4
:1004500020646F6E652E0020573A00426564204884
:10046000656174696E672E00454D455247454E43A0
:10047000595F50415253455200434153455F4C49E7
:100480004748545F4252494748544E4553530054DD
:100490004F47474C455F4C494748545300534F46DC
:1004A00054574152455F504F574552004255494CB1
:1004B000445F50455243454E54004C4556454C49C7
:1004C0004E475F44415441005A5F50524F424500ED
:1004D0004155544F4C4556454C005052494E545F7F
:1004E0004A4F420050524F475245535300415554D2
:1004F0004F5245504F52545F54454D5000564F4C4B
:10050000554D455452494300454550524F4D0053B7
:10051000455249414C5F584F4E5F584F4646004642
:1005200049524D574152455F4E414D453A4D6172DA
:100530006C696E20312E312E37202847697468751A
:10054000622920534F555243455F434F44455F5501
:10055000524C3A68747470733A2F2F6769746875D7
:10056000622E636F6D2F4D61726C696E4669726D9C
:10057000776172652F4D61726C696E2050524F54D5
:100580004F434F4C5F56455253494F4E3A312E30F0
:10059000204D414348494E455F545950453A416EBC
:1005A0007963756269632069332B2045585452552D
:1005B0004445525F434F554E543A312055554944B6
:1005C0003A63656465326132662D343161322D34AF
:1005D0003734382D396231322D6335356336326622
:1005E00033363766660A002F2F20007A5F6D696EFA
:1005F0003A2000795F6D696E3A2000785F6D696E10
:100600003A20005265706F7274696E6720656E647F
:1006100073746F70207374617475730A004D313494
:100620003520533C696E6465783E206F7574206F89
:10063000662072616E67652028302D31290A00001E
:100640000136372603FF3C3D380EFF2E303E12FFA9
:10065000FF0C0809FFFF071A1C18FFFF08440AFFD8
:100660004324221EFFFFFFFFFFFF20643A002069A2
:100670003A0020703A0043290A0061626C656420E8
:10068000286D696E2074656D702000436F6C642066
:1006900065787472756465732061726520002364E7
:1006A0006566696E65202044454641554C545F4B54
:1006B00064200023646566696E65202044454641D8
:1006C000554C545F4B69200023646566696E652054
:1006D0002044454641554C545F4B702000504944DE
:1006E000204175746F74756E652066696E697368F4
:1006F0006564212050757420746865206C61737482
:10070000204B702C204B6920616E64204B64206369
:100710006F6E7374616E74732066726F6D206265A4
:100720006C6F7720696E746F20436F6E66696775B2
:10073000726174696F6E2E680A00504944204175D9
:10074000746F74756E65206661696C6564212074D0
:10075000696D656F75740A00544845524D414C20CF
:1007600052554E4157415900546865726D616C2075
:1007700052756E617761790048656174696E6720B2
:100780006661696C65640048656174696E672066BE
:1007900061696C656400504944204175746F7475DB
:1007A0006E65206661696C6564212054656D7065B5
:1007B00072617475726520746F6F20686967680A6A
:1007C00000204B643A2000204B693A2000204B70F7
:1007D0003A20000A20436C617373696320504944D6
:1007E000200A002054753A2000204B753A20002042
:1007F0006D61783A2000206D696E3A200020643ADD
:10080000200020626961733A20004F66660A004644
:1008100061646520486569676874200042656420EA
:100820004C6576656C696E6720004661696C65642D
:1008300020746F20656E61626C6520426564204C97
:100840006576656C696E670A004D65736820426560
:1008500064204C6576656C20646174613A0A004DD1
:1008600065736820706F696E742063616E6E6F745B
:10087000206265207265736F6C7665640A004D3482
:10088000323120696E636F727265637420706172B9
:10089000616D657465722075736167650A00454511
:1008A00050524F4D2064697361626C65640A004E5A
:1008B0006F2063617365206C696768740A00416327
:1008C000746976652045787472756465723A2000A3
:1008D000556E6B6E6F776E20636F6D6D616E643AEF
:1008E0002022004D6573682056616C6964617469EB
:1008F0006F6E2053746F707065642E00696E206D8A
:100900006F76655F746F282920666565645F766120
:100910006C756520666F722058593A004C65617697
:10092000696E672047323600473236204865617469
:10093000696E67204E6F7A7A6C652E0047323620DA
:1009400048656174696E67204265642E00446F6E6D
:1009500065205072696D696E6700446F6E65205046
:1009600072696D696E67004669786564204C656ED2
:10097000677468205072696D652E00557365722D1D
:10098000436F6E74726F6C6C6564205072696D6534
:10099000002C2065793D0029202D3E202865783DDA
:1009A000002C2073793D0020436F6E6E656374697F
:1009B0006E67207769746820766572746963616C0C
:1009C000206C696E65202873783D002C2065793D88
:1009D0000029202D3E202865783D002C2073793D8C
:1009E0000020436F6E6E656374696E67207769746B
:1009F0006820686F72697A6F6E74616C206C696EC2
:100A000065202873783D004C656176696E672047E4
:100A10003236002C2079693D00202020446F696E19
:100A20006720636972636C652061743A2028786975
:100A30003D003F53706563696669656420582C59B1
:100A400020636F6F7264696E617465206F757420C6
:100A50006F6620626F756E64732E0A003F285229FC
:100A600065706561742076616C7565206E6F7420A9
:100A7000706C61757369626C653B206D7573742071
:100A80006265206174206C6561737420312E0A00E8
:100A90003F537065636966696564206E6F7A7A6C2E
:100AA000652074656D7065726174757265206E6F16
:100AB0007420706C61757369626C652E0A003F5317
:100AC00070656369666965642066696C616D656EF1
:100AD000742073697A65206E6F7420706C61757311
:100AE00069626C652E0A003F5370656369666965CB
:100AF00064207072696D65206C656E677468206E25
:100B00006F7420706C61757369626C652E0A003FAA
:100B1000537065636966696564206E6F7A7A6C6587
:100B20002073697A65206E6F7420706C61757369CB
:100B3000626C652E0A003F5370656369666965647F
:100B40002052657472616374696F6E204D756C74A8
:100B500069706C696572206E6F7420706C6175735A
:100B600069626C652E0A003F526574726163746934
:100B70006F6E204D756C7469706C696572206D754F
:100B80007374206265207370656369666965642E9D
:100B90000A003F537065636966696564206C61791A
:100BA000657220686569676874206E6F7420706C68
:100BB00061757369626C652E0A003F5370656369E5
:100BC00066696564206265642074656D7065726134
:100BD00074757265206E6F7420706C6175736962D4
:100BE0006C652E0A0047323620636F6D6D616E644E
:100BF00020737461727465642E2057616974696E24
:100C00006720666F72206865617465722873292E8B
:100C10000A007C3C3E5E2B3D3F2F5B5D3B2C2A2235
:100C20005C0048617264636F64656420446566615A
:100C3000756C742053657474696E6773204C6F61B2
:100C40006465640A00B80B0000B80B0000320000B5
:100C5000001027000000009643000096430000C0EB
:100C6000400000C8410000A0420000A0420000C8AF
:100C7000433333B94220746F6F206C6F6E67206509
:100C80007874727573696F6E2070726576656E74B4
:100C900065640A0020636F6C6420657874727573F4
:100CA000696F6E2070726576656E7465640A0024E3
:100CB000F4D43050C38E20C2A24017828B70111220
:100CC0007A910D816CD90AA861E108C7586607615D
:100CD0005143061E4B5D05C145A7041A4111040985
:100CE0003D9803713931034036DB0265339102D4FC
:100CF000305402802E1D02632CEE01752AC501B00E
:100D000028A001102781018F2564012B244B01E0CD
:100D1000223401AC211F018D200D01801FFC0084B5
:100D20001EED00971DDF00B81CD200E61BC6002098
:100D30001BBC00641AB200B219A8000A19A0006A0C
:100D4000189900D117910040178B00B51684003117
:100D5000167E00B31579003A157300C7146F00585A
:100D6000146A00EE1366008813630025135E00C743
:100D7000125B006C12570015125400C11151007023
:100D8000114F0021114B00D61049008D104700462D
:100D900010440002104200C00F4000800F3E00428D
:100DA0000F3C00060F3B00CB0E3800930E37005C63
:100DB0000E3500270E3400F30D3200C10D310090C6
:100DC0000D3000600D2E00320D2D00050D2C00D9C8
:100DD0000C2B00AE0C2900850C29005C0C2700357B
:100DE0000C27000E0C2600E80B2400C40B2400A0E6
:100DF0000B23007D0B23005A0B2100390B21001817
:100E00000B2000F80A1F00D90A1E00BB0A1E009D15
:100E10000A1D00800A1D00630A1C00470A1B002CE3
:100E20000A1B00110A1A00F7091A00DD091900C48B
:100E3000091900AB091900920917007B0918006312
:100E40000917004C09160036091600200916000A79
:100E5000091500F5081500E0081400CC081400B8C6
:100E6000081400A4081400900813007D0812006BF9
:100E70000813005808120046081200340811002315
:100E80000811001208110001081100F0071000E01D
:100E9000071000D0071000C0071000B0070F00A116
:100EA00007100091070E0083070F0074070F0065FD
:100EB000070E0057070E0049070E003B070D002ED6
:100EC000070E0020070D0013070D0006070D00F99F
:100ED000060C00ED060D00E0060C00D4060C00C860
:100EE000060C00BC060C00B0060C00A4060B009912
:100EF000060C008D060B0082060B0077060B006CBB
:100F0000060B0061060A0057060B004C060A004259
:100F1000060A0038060A002E060A0024060A001AED
:100F2000060A001006090007060A00FD050900F47C
:100F3000050900EB050900E2050900D9050900D003
:100F4000050900C7050900BE050900B5050800AD83
:100F5000050800A50509009C050800940508008CFB
:100F6000050800840508007C050800740508006C6D
:100F7000050700650508005D050700560508004ED9
:100F80000507004705070040050800380507003140
:100F90000507002A050700230507001C05060016A3
:100FA0000507000F0507000805060002050700FBFE
:100FB000040600F5040700EE040600E8040600E25B
:100FC000040700DB040600D5040600CF040600C9B0
:100FD000040600C3040600BD040600B7040600B101
:100FE000040500AC040600A6040600A00405009B4E
:100FF00004060095040500900406008A0405008597
:10100000040500800406007A0405007504050070DC
:101010000405006B04050066040500610405005C1E
:1010200004050057040500520405004D040500485E
:10103000040500430405003E0404003A040500359D
:10104000040500300404002C0405002704040023D8
:101050000405001E0404001A04040016040500110F
:101060000404000D04040009040500040404000045
:10107000040400FC030400F8030400F4030400F07B
:10108000030400EC030400E8030400E4030400E0AC
:10109000030400DC030400D8030400D4030400D0DC
:1010A000030400CC030400C8030300C503030024A9
:1010B000F404D9201BC40C5C0E9804C4095F0265BB
:1010C000077101F405F900FB04B30048048700C16F
:1010D0000369005803550003034500BE023A00842B
:1010E00002310053022A002902250004022000E4F4
:1010F000011C00C8011900AF0117009801140084F9
:10110000011300710110006101100051010E004334
:10111000010D0036010B002B010B0020010B001507
:101120000109000C01090003010800FB000800F39D
:10113000000800EB000700E4000600DE000600D80F
:10114000000600D2000600CC000500C7000500C262
:10115000000500BD000400B9000400B5000400B1A2
:10116000000400AD000400A9000400A5000300A2D3
:101170000003009F0004009B0003009800030095FB
:1011800000020093000300900003008D0002008B1A
:101190000003008800020086000200840003008132
:1011A0000002007F0002007D0002007B0002007947
:1011B0000002007700010076000200740002007255
:1011C000000100710002006F0002006D0001006C60
:1011D0000002006A00010069000200670001006669
:1011E000000100650001006400020062000100616E
:1011F000000100600001005F0002005D0001005C72
:101200000001005B0001005A000100590001005874
:101210000001005700010056000100550001005474
:101220000001005300000053000100520001005172
:10123000000100500001004F0001004E0000004E70
:101240000001004D0001004C0001004B0000004B6C
:101250000001004A00010049000100480000004868
:101260000001004700010046000000460001004563
:10127000000000450001004400010043000000435D
:101280000001004200000042000100410000004156
:10129000000100400001003F0000003F0001003E4F
:1012A0000000003E0001003D0000003D0001003C48
:1012B0000000003C0000003C0001003B0000003B3F
:1012C0000001003A0000003A000100390000003936
:1012D000000100380000003800000038000100372D
:1012E0000000003700010036000000360000003624
:1012F0000001003500000035000000350001003419
:10130000000000340000003400010033000000330E
:101310000000003300010032000000320000003203
:1013200000010031000000310000003100010030F8
:1013300000000030000000300001002F0000002FEE
:101340000000002F0000002F0001002E0000002EE2
:101350000000002E0001002D0000002D0000002DD7
:101360000000002D0001002C0000002C0000002CCB
:101370000000002C0001002B0000002B0000002BBF
:101380000000002B0001002A0000002A0000002AB3
:101390000000002A000100290000002900000029A7
:1013A000000000290000002900010028000000289A
:1013B000000000280000002800000028000100278D
:1013C0000000002700000027000000270000002781
:1013D0000001002600000026000000260000002674
:1013E0000000002600010025000000250000002567
:1013F0000000002500000025000000250001002459
:10140000000000240000002400000024000000244C
:10141000000100230000002300000023000000233F
:101420000000002300000023000000230001002230
:101430000000002200000022000000220000002224
:101440000000002200010021000000210000002116
:101450000000002100000021000000210000002108
:1014600000010020000000200000002000000020FB
:1014700000000020000000200000002000000020EC
:101480000001001F0000001F0000001F0000001FDF
:101490000000001F0000001F0000001F0001001ED0
:1014A0000000001E0000001E0000001E0000004D95
:1014B000383420582059205A2045006265640A00BB
:1014C0002C2073797374656D2073746F707065640C
:1014D00021204865617465725F49443A200048657F
:1014E0006174696E67206661696C65640048656156
:1014F00074696E67206661696C6564004865617433
:10150000696E67206661696C65640048656174692D
:101510006E67206661696C656400204400204900A4
:1015200020204D33303120500050494420736574E1
:1015300074696E67733A0A00204600204200204812
:101540000020204D3134352053004D61746572699F
:10155000616C2068656174757020706172616D6581
:10156000746572733A0A00205A00205900202047FF
:101570003239205333205800205A0020204D343275
:10158000302053004D65736820426564204C6576B9
:10159000656C696E673A0A00205A002059002020C5
:1015A0004D323036205800486F6D65206F66667387
:1015B00065743A0A00204500205A0020590020583E
:1015C0000020420020540020204D323035205300AE
:1015D000416476616E6365643A20533C6D696E5F69
:1015E00066656564726174653E20543C6D696E5F2A
:1015F00074726176656C5F66656564726174653E80
:1016000020423C6D696E5F7365676D656E745F74D3
:10161000696D655F75733E20583C6D61785F7879C0
:101620005F6A65726B3E205A3C6D61785F7A5F6AD3
:1016300065726B3E20453C6D61785F655F6A6572DF
:101640006B3E0A0020540020520020204D323034DE
:10165000205000416363656C65726174696F6E2030
:1016600028756E6974732F7332293A20503C70725A
:10167000696E745F616363656C3E20523C72657491
:10168000726163745F616363656C3E20543C747285
:101690006176656C5F616363656C3E0A002045009E
:1016A000205A0020590020204D3230312058004D62
:1016B0006178696D756D20416363656C65726174F5
:1016C000696F6E2028756E6974732F7332293A0A18
:1016D00000204500205A0020590020204D32303390
:1016E0002058004D6178696D756D2066656564727E
:1016F000617465732028756E6974732F73293A0AB3
:1017000000204500205A0020590020204D39322069
:10171000580053746570732070657220756E69741B
:101720003A0A0020204D3230302044300A00202078
:101730004D3230302044002044697361626C65642E
:101740000A0046696C616D656E7420736574746916
:101750006E67733A0020204D3134392043203B20FE
:10176000556E69747320696E2043656C7369757377
:101770000A002020473231202020203B20556E696E
:10178000747320696E206D6D0A004B494C4C4544C2
:101790002E2000202D20496E76616C6964206578CA
:1017A000747275646572206E756D62657220210AAF
:1017B000002D2D2D2D2D2D007C4D61726C696E7CC0
:1017C000002D2D2D2D2D2D00687474703A2F2F6D46
:1017D00061726C696E66772E6F72670068747470E0
:1017E0003A2F2F6D61726C696E66772E6F7267008B
:1017F00020312E312E37002020506C616E6E6572C4
:1018000042756666657242797465733A20002046B7
:10181000726565204D656D6F72793A2000436F6D7A
:1018200070696C65643A204A616E2031382032302C
:1018300031390A00207C20417574686F723A205457
:101840006F626961732052656974686D656965725C
:101850000A00323031372D31322D31352031323AD4
:10186000303000204C61737420557064617465647D
:101870003A2000312E312E370A004D61726C696EAC
:101880000020536F667477617265205265736574CA
:101890000A00205761746368646F6720526573653E
:1018A000740A002042726F776E206F757420526543
:1018B0007365740A002045787465726E616C2052FD
:1018C000657365740A00506F77657255700A00730E
:1018D000746172740A006572726F72207772697433
:1018E000696E6720746F2066696C650A00456E64D6
:1018F00073746F7073202563202563202563202572
:101900006300205A3A0020593A0020583A00656E88
:101910006473746F7073206869743A2000446F6E4A
:101920006520736176696E672066696C652E0A00B2
:101930004D32390053442063617264206F6B0A009A
:101940006F70656E526F6F74206661696C65640AB2
:1019500000766F6C756D652E696E697420666169BD
:101960006C65640A00534420696E6974206661697D
:101970006C0A006175746F25692E67004D32340062
:101980004D32332025730057726974696E67207475
:101990006F2066696C653A20006F70656E20666125
:1019A000696C65642C2046696C653A20006F70652F
:1019B0006E206661696C65642C2046696C653A200E
:1019C0000046696C652073656C65637465640A0024
:1019D0002053697A653A200046696C65206F70650E
:1019E0006E65643A20006F70656E206661696C6593
:1019F000642C2046696C653A20002066696C653A63
:101A00002000646F696E67006672657368004E6FD0
:101A1000772000454E4420535542524F5554494E6D
:101A2000450A002220706F73002220706172656E7B
:101A3000743A2200535542524F5554494E45204363
:101A4000414C4C207461726765743A22004B494CDA
:101A50004C45442E2000747279696E6720746F20A3
:101A600063616C6C207375622D67636F64652066BB
:101A7000696C6573207769746820746F6F206D617D
:101A80006E79206C6576656C732E204D4158206C04
:101A90006576656C2069733A004572726F723A0020
:101AA00056652D6A65726B0056652D6A65726B000E
:101AB00056652D6A65726B00567A2D6A65726B00E9
:101AC000567A2D6A65726B0056792D6A65726B00C5
:101AD00056792D6A65726B0056792D6A65726B00B6
:101AE00056782D6A65726B0056782D6A65726B00A8
:101AF00056782D6A65726B004D6F74696F6E004584
:101B000073746570732F6D6D004573746570732FFA
:101B10006D6D005A73746570732F6D6D005A737418
:101B20006570732F6D6D005973746570732F6D6DD3
:101B3000005973746570732F6D6D00587374657000
:101B4000732F6D6D005873746570732F6D6D004D3C
:101B50006F74696F6E0053746570732F6D6D004AFA
:101B600065726B00416363656C65726174696F6E69
:101B70000056656C6F6369747900436F6E74726FA1
:101B80006C0046696C2E204469612E0046696C2EFB
:101B9000204469612E004F6666004F6E200045208C
:101BA000696E206D6D3300436F6E74726F6C00430D
:101BB000616E6E6F7420656E7465722073756264F9
:101BC00069723A2000052E2E004D61696E00436156
:101BD00072642072656D6F76656400436172642083
:101BE000696E7365727465640042616279737465CD
:101BF00070205A00466C6F7700466C6F7700466124
:101C00006E2073706565640046616E207370656553
:101C1000640042656400426564004E6F7A7A6C65C8
:101C2000004E6F7A7A6C6500426564205A00426506
:101C300064205A00537065656400537065656400E4
:101C40004D61696E005072656865617420504C4149
:101C500020456E64005072656865617420504C4187
:101C600020426564005072656865617420504C4183
:101C700000507265706172650050726568656174CC
:101C80002041425320456E6400507265686561745E
:101C9000204142532042656400507265686561745A
:101CA0002041425300507265706172650042616369
:101CB0006B004E65787420636F726E6572004C65C0
:101CC00076656C696E6720446F6E6521004D6F7696
:101CD00065205A00473239205332004E657874200F
:101CE000506F696E74002569202F202575004732DA
:101CF000392053310047323920533200436C696335
:101D00006B20746F20426567696E00486F6D696E65
:101D1000672058595A004732380045787472756404
:101D20006572004D6F7665205A004D6F76652059BB
:101D3000004D6F76652058005072657061726500C5
:101D4000526573746F7265206661696C7361666554
:101D50000046696C616D656E74004D6F74696F6EDD
:101D60000054656D7065726174757265004D6169CE
:101D70006E00507265686561742041425320636F44
:101D80006E66005072656865617420504C41206336
:101D90006F6E66005049442D44005049442D440064
:101DA0005049442D49005049442D49005049442D83
:101DB00050005049442D50002002204661637400B9
:101DC00020022046616374002002204D61780020CB
:101DD00002204D6178002002204D61780020022011
:101DE0004D696E002002204D696E002002204D6971
:101DF0006E004F6666004F6E20004175746F74650B
:101E00006D700046616E2073706565640046616E9A
:101E10002073706565640042656400426564004E2D
:101E20006F7A7A6C65004E6F7A7A6C6500436F6EDC
:101E300074726F6C0042656400426564004E6F7A94
:101E40007A6C65004E6F7A7A6C650046616E20731D
:101E5000706565640046616E20737065656400544A
:101E6000656D7065726174757265000000210024F3
:101E70000027002A002D003000330001010000047B
:101E80000107010A0100002200250028002B002E76
:101E9000003100340002010000050108010B0100BF
:101EA0000020002300260029002C002F0032000013
:101EB00001000003010601090105050505070508E4
:101EC000080808020202020A0A08080404040401BD
:101ED00001010101010101030303030303030304DF
:101EE0000707070C0C0C0C0C0C0C0C02020202066F
:101EF000060606060606060B0B0B0B0B0B0B0B015F
:101F0000021020200808102040102040800201020A
:101F100001080402010102040810204080804020D2
:101F2000100804020180040201804020100804020D
:101F3000010804020101020408102040800102048B
:101F4000081020408000000A0B02090C0D0E080743
:101F50000304010000000000000000000000000079
:101F60000000000000000000000000000000000071
:101F7000001211100000000000000000000000002E
:101F80000000000000000000000000486F6D6520A8
:101F90002573257325732066697273740020666942
:101FA0007273740A005A0059005800486F6D65201A
:101FB000000000484200004842000080400000004D
:101FC000004B494C4C45442E20004B494C4C20635F
:101FD0006175736564206279204B494C4C206275B1
:101FE00074746F6E2F70696E0A004B494C4C4544F7
:101FF0002E20004B494C4C20636175736564206250
:102000007920746F6F206D75636820696E616374E9
:102010006976652074696D65202D2063757272651F
:102020006E7420636F6D6D616E643A2000506C6554
:10203000617365207265736574005052494E544552
:10204000522048414C544544005072696E74657288
:102050002068616C7465642E206B696C6C28292083
:1020600063616C6C6564210A00656E7175657565E8
:10207000696E6720220000000000000000000000E0
:1020800000005761726E696E673A20486F6D696E25
:10209000672042756D702044697669736F72203CC9
:1020A00020310A000202030000A0400000A040000E
:1020B00000004000005C4300005C4300007A43FFE6
:1020C000FFFF25753A2530327500253032753A25E7
:1020D000303275002D2D2D005344005A0059005800
:1020E000005072696E7420706175736564000050F1
:1020F00072696E742061626F72746564004E6F2045
:1021000053442063617264005072696E7420667279
:102110006F6D2053440053746F70207072696E7439
:1021200000526573756D65207072696E740041624E
:102130006F7574205072696E7465720050617573AA
:1021400065207072696E7400436F6E74726F6C00FC
:10215000507265706172650054756E6500496E66F7
:102160006F2073637265656E004261627973746596
:1021700070205A0070012C0190012701B00122014A
:10218000C0011D01F00118011002130130020E01FF
:102190006002090190020401C002FF000003FA007E
:1021A0004003F5008003F000D003EB002004E600BC
:1021B0007004E100E004DC004005D700C005D20057
:1021C0004006CD00D006C8008007C3003008BE001E
:1021D000F008B900C009B400B00AAF00B00BAA0003
:1021E000D00CA500000EA000500F9B00C010960060
:1021F0005012910000148C00C0158700B0178200A7
:10220000B0197D00D01B7800001E730040206E00C6
:1022100090226900F024640040275F0090295A0052
:10222000E02B5500102E500020304B00103246009D
:10223000E033410090353C001037370070383200F1
:10224000A0392D00B03A2800A03B2300603C1E00BE
:10225000103D1900903D1400103E0F00703E0A0022
:10226000C03E0500003F0000403FFBFF803FF6FFFF
:10227000C03FF1FF544845524D414C2052554E410C
:1022800057415900546865726D616C2052756E61DA
:10229000776179004572723A204D494E54454D5050
:1022A00020424544004572723A204D494E54454DF6
:1022B00050004D494E54454D502074726967676512
:1022C000726564004572723A204D415854454D5034
:1022D00020424544004572723A204D415854454DC4
:1022E00050004D415854454D5020747269676765E0
:1022F00072656400202F002042403A0020403A00DE
:1023000000000000010204040000001C1C0C040476
:10231000040201000000000004081000000000009A
:10232000001C1F11111F00000006191803130C00D8
:10233000040E1F041C000000000E1315110E0000F7
:102340001C10181705060500040A0A0A0A11110EC6
:102350000C12120C00000000001F1511151F0000C8
:102360004C6576656C20636F726E657273004C65A8
:1023700076656C2062656400426564205A0042659F
:1023800064205A0046616465204865696768740086
:102390004661646520486569676874004F66660039
:1023A0004F6E2000426564204C6576656C696E67EF
:1023B0000050726570617265004D343238005072A1
:1023C000656865617420504C4100436F6F6C646FA9
:1023D000776E005072656865617420414253004415
:1023E000697361626C6520737465707065727300E7
:1023F0004D38340053657420686F6D65206F6666D4
:102400007365747300426564204C6576656C696E13
:1024100067004175746F20686F6D65004732380042
:102420004D6F76652061786973004D61696E004D6E
:102430006F76652058004D6F76652059004D6F7698
:1024400065205A004578747275646572004D6F7628
:102450006520302E316D6D004D6F766520316D6DCC
:10246000004D6F76652031306D6D004D6F766520C3
:1024700061786973004578747275646572004D6F98
:102480007665205A004D6F76652059004D6F766550
:102490002058004C696E65204E756D62657220692A
:1024A00073206E6F74204C617374204C696E6520CC
:1024B0004E756D6265722B312C204C617374204C0B
:1024C000696E653A20004B494C4C45442E20005320
:1024D000544F505045442E20005072696E746572FE
:1024E0002073746F707065642064756520746F204C
:1024F0006572726F72732E20466978207468652049
:102500006572726F7220616E6420757365204D393B
:10251000393920746F20726573746172742E2028AB
:1025200054656D706572617475726520697320728F
:10253000657365742E205365742069742061667418
:1025400065722072657374617274696E67290A001E
:102550004E6F20436865636B73756D20776974688F
:10256000206C696E65206E756D6265722C204C6101
:102570007374204C696E653A2000636865636B7301
:10258000756D206D69736D617463682C204C617387
:1025900074204C696E653A20004D313130004D3366
:1025A00031004D383420582059205A2045005344DA
:1025B0002072656164206572726F720A00446F6EEA
:1025C00065207072696E74696E672066696C650A51
:1025D0000020496E76616C69642065787472756458
:1025E00065722000000000000000000000000000F4
:1025F00000005C4300005C4300007A434D6178209A
:1026000054656D703A20313130004D696E2054654B
:102610006D703A203500544265643A4550434F533B
:10262000203130304B004D61782054656D703A2078
:10263000323630004D696E2054656D703A20350099
:1026400054303A204550434F53203130304B0050E6
:1026500053553A2047656E657269630050726F7416
:102660006F636F6C3A20312E3000426175643A20FE
:102670003235303030300052414D505320312E33FE
:10268000004D657368204C6576656C696E67004522
:1026900078747275646572733A203100687474706E
:1026A0003A2F2F6D61726C696E66772E6F726700BC
:1026B000416E7963756269632069332B0032303172
:1026C000372D31322D31352031323A303000312E34
:1026D000312E37004D61726C696E00546865726D01
:1026E0006973746F727300426F61726420496E6621
:1026F0006F005072696E74657220496E666F004D8E
:1027000061696E0043616E6E6F74206F70656E203C
:1027100073756264697220006563686F3A00206EA9
:102720006F7420656E74657265642E0A000A4D65CB
:1027300061737572656420706F696E74733A0A0014
:102740005A206F66667365743A20004E756D205886
:102750002C593A20332C330A0048656174696E673E
:1027600020646F6E652E0020573A004525692025AC
:102770007300416E7963756269632069332B20723F
:10278000656164792E00416E7963756269632069C1
:10279000332B204F66662E00205A3A0020593A000B
:1027A00020436F756E7420583A0020453A00205A35
:1027B0003A0020593A00583A004361703A00536594
:1027C0007474696E672054726176656C204163632E
:1027D000656C65726174696F6E3A2000536574743C
:1027E000696E67205265747261637420416363652A
:1027F0006C65726174696F6E3A2000536574746918
:102800006E67205072696E7420416363656C6572F7
:102810006174696F6E3A200053657474696E672045
:102820005072696E7420616E642054726176656CBA
:1028300020416363656C65726174696F6E3A200054
:10284000205A00205900580020204D61783A20007D
:10285000205A00205900580020204D696E3A20006F
:102860004F6E20004F666600536F667420656E647D
:1028700073746F70733A20004F66667365747320CB
:102880006170706C696564004572723A20546F6FB4
:10289000206661722100546F6F206661722066723B
:1028A0006F6D207265666572656E636520706F6915
:1028B0006E740A00526573656E643A20006F6B0097
:1028C00020746F6F206C6F6E6720657874727573FB
:1028D000696F6E2070726576656E7465640A00209B
:1028E000636F6C6420657874727573696F6E2070A5
:1028F000726576656E7465640A005654726176205E
:102900006D696E005654726176206D696E00565482
:10291000726176206D696E00566D696E00566D6944
:102920006E00566D696E00566D6178204500566DDB
:102930006178204500566D6178204500566D6178BC
:10294000205A00566D6178205A00566D6178205AE1
:1029500000566D6178205900566D617820590056F7
:102960006D6178205900566D6178205800566D6170
:1029700078205800566D61782058004D6F74696F4B
:102980006E00416D6178204500416D617820450001
:10299000416D6178205A00416D6178205A00416D87
:1029A0006178205900416D6178205900416D61784E
:1029B000205800416D6178205800412D7472617675
:1029C000656C00412D74726176656C00412D7265F5
:1029D000747261637400412D726574726163740076
:1029E000416363656C00416363656C004D6F74699E
:1029F0006F6E0000E1E7DBE611241FBECFEFD1E2EE
:102A0000DEBFCDBF00E00CBF13E0A0E0B2E0ECEB16
:102A1000FCEE01E00BBF02C007900D92A436B10797
:102A2000D9F723E1A4E6B3E001C01D92A735B207B0
:102A3000E1F714E1CBEFD4E100E006C021970109F2
:102A4000802FFE010E94B6F5CA3FD10780E008073B
:102A5000A9F70E94D1DF0C944DF60C9400002F9240
:102A60003F924F925F926F927F928F929F92AF921E
:102A7000BF92CF92DF92EF92FF920F931F93CF936B
:102A8000DF93CDB7DEB7C859D1090FB6F894DEBFD2
:102A90000FBECDBF809180128D3411F40C94C21EF4
:102AA000843511F40C94512E873411F00C948D2E32
:102AB00080917E1290917F128A31910509F440C66F
:102AC0007CF4843091053CF48230910594F597FFB5
:102AD00029C00C94A42E049709F4ECC50C94A42EE0
:102AE0008A32910511F40C94331E4CF48C3191050B
:102AF00009F42AC64D9709F42CC60C94A42E8B35E4
:102B0000910511F40C94B31D8C35910511F40C94BE
:102B1000B81D8A35910511F00C94A42E109269030A
:102B20000C94A42E80910D0281110C94A72E0C946C
:102B3000A42E20910D02222311F40C94A42E11E056
:102B4000029709F010E00E941DCC82E50E949733A5
:102B5000882309F45CC10E9431336B017C014090F1
:102B6000280B5090290B60902A0B70902B0B209112
:102B70002C0B30912D0B40912E0B50912F0B239647
:102B80002CAF3DAF4EAF5FAF239780914C0B909130
:102B90004D0BA0914E0BB0914F0B27968CAF9DAF74
:102BA000AEAFBFAF27972091500B3091510B4091A2
:102BB000520B5091530B63962CAF3DAF4EAF5FAFAE
:102BC000639720E030E0A901C701B6010E9497EEAB
:102BD000882309F455C5A301920127966CAD7DADFC
:102BE0008EAD9FAD27970E9497EE811111C023965D
:102BF0002CAD3DAD4EAD5FAD239763966CAD7DAD15
:102C00008EAD9FAD63970E9497EE882309F438C577
:102C100020E030E0A901C701B6010E9497EE881FAD
:102C20008827881F18130BC080E090E0A0E8BFE35E
:102C30006B968CAF9DAFAEAFBFAF6B970AC020E075
:102C400030E040E85FEB6B962CAF3DAF4EAF5FAF2F
:102C50006B97A301920127966CAD7DAD8EAD9FADB4
:102C600027970E94B9F22F966CAF7DAF8EAF9FAFC2
:102C70002F9723962CAD3DAD4EAD5FAD2397639658
:102C80006CAD7DAD8EAD9FAD63970E94B9F2679636
:102C90006CAF7DAF8EAF9FAF67972F962CAD3DADDC
:102CA0004EAD5FAD2F97CA01B9010E94FCEE4B01FA
:102CB0005C0167962CAD3DAD4EAD5FAD6797CA0127
:102CC000B9010E94FCEE9B01AC01C501B4010E9458
:102CD000BAF20E9425F52B966CAF7DAF8EAF9FAFF9
:102CE0002B9720E030E040E05FE30E94FCEE4B01D8
:102CF0005C01A7019601C701B6010E94FCEE6B01C1
:102D00007C01A5019401C501B4010E94FCEE9B0168
:102D1000AC01C701B6010E94B9F20E9425F59B01E2
:102D2000AC016B966CAD7DAD8EAD9FAD6B970E9487
:102D3000FCEE4B015C0127962CAD3DAD4EAD5FAD79
:102D40002797C301B2010E94BAF220E030E040E0D0
:102D50005FE30E94FCEE6B017C0167966CAD7DAD7C
:102D60008EAD9FAD679790582B962CAD3DAD4EAD77
:102D70005FAD2B970E9496F39B01AC01C501B40196
:102D80000E94FCEE9B01AC01C701B6010E94BAF2A1
:102D9000A30192010E94B9F26B017C0163962CADF4
:102DA0003DAD4EAD5FAD639723966CAD7DAD8EAD01
:102DB0009FAD23970E94BAF220E030E040E05FE34D
:102DC0000E94FCEE2B013C012B962CAD3DAD4EAD8F
:102DD0005FAD2B972F966CAD7DAD8EAD9FAD2F97D0
:102DE0000E9496F39B01AC01C501B4010E94FCEE68
:102DF0009B01AC01C301B2010E94BAF223962CAD33
:102E00003DAD4EAD5FAD23970E94B9F214C089E489
:102E10000E949733882329F00E9431336B017C0193
:102E200003C0C12CD12C76018AE40E9497338823F9
:102E3000F9F00E94313363966CAF7DAF8EAF9FAFD8
:102E4000639720E030E0A901C701B6010E9497EE28
:102E500081111EC020E030E0A90163966CAD7DAD0C
:102E60008EAD9FAD63970E9497EE811111C008C48B
:102E700020E030E0A901C701B6010E9497EE882347
:102E800009F4FEC363961CAE1DAE1EAE1FAE639763
:102E9000D701C601B05823968CAF9DAFAEAFBFAF80
:102EA000239763962CAD3DAD4EAD5FAD6397505803
:102EB00027962CAF3DAF4EAF5FAF27979C01AD017A
:102EC000BC01CD010E94FCEE4B015C0127962CADAC
:102ED0003DAD4EAD5FAD2797CA01B9010E94FCEE32
:102EE0009B01AC01C501B4010E94BAF20E9425F514
:102EF000AB966CAF7DAF8EAF9FAFAB978091280B39
:102F00009091290BA0912A0BB0912B0B2B968CAF93
:102F10009DAFAEAFBFAF2B97A7019601BC01CD010E
:102F20000E94BAF26B966CAF7DAF8EAF9FAF6B977E
:102F300020912C0B30912D0B40912E0B50912F0B8B
:102F400067962CAF3DAF4EAF5FAF679763962CADE2
:102F50003DAD4EAD5FAD639767966CAD7DAD8EAD0B
:102F60009FAD67970E94BAF26F966CAF7DAF8EAF40
:102F70009FAF6F9780914C0B90914D0BA0914E0B92
:102F8000B0914F0BA3968CAF9DAFAEAFBFAFA397E1
:102F90006B962CAD3DAD4EAD5FAD6B97BC01CD01D9
:102FA0000E94B9F26B017C012091500B3091510BC2
:102FB0004091520B5091530BA7962CAF3DAF4EAFA3
:102FC0005FAFA7976F962CAD3DAD4EAD5FAD6F97E0
:102FD000A7966CAD7DAD8EAD9FADA7970E94B9F25F
:102FE0004B015C018091300B9091310BA091320B21
:102FF000B091330BE3968CAF9DAFAEAFBFAFE3970D
:103000009C01AD016091540B7091550B8091560B52
:103010009091570B0E94B9F22F966CAF7DAF8EAF97
:103020009FAF2F972091580B3091590B40915A0B1D
:1030300050915B0BAF962CAF3DAF4EAF5FAFAF97EC
:103040008091340B9091350BA091360BB091370BDA
:10305000E7968CAF9DAFAEAFBFAFE797A7019601E4
:1030600023966CAD7DAD8EAD9FAD23970E94FCEE97
:103070002B013C01A501940127966CAD7DAD8EAD71
:103080009FAD27970E94FCEE9B01AC01C301B201EA
:103090000E94BAF22B013C01A501940123966CAD6C
:1030A0007DAD8EAD9FAD23970E94FCEE4B015C0180
:1030B000A701960127966CAD7DAD8EAD9FAD27978C
:1030C0000E94FCEE9B01AC01C501B4010E94B9F263
:1030D000A30192010E942DF36B017C0120E030E0FE
:1030E000A9010E9497EE87FF0AC02BED3FE049EC53
:1030F00050E4C701B6010E94BAF26B017C011123B2
:1031000051F02BED3FE049EC50E4C701B6010E94BD
:10311000B9F26B017C0120E030E0A901C701B601E2
:103120000E9497EE811128C0A3962CAD3DAD4EAD07
:103130005FADA3972B966CAD7DAD8EAD9FAD2B97FC
:103140000E9497EE811118C0A7962CAD3DAD4EADF3
:103150005FADA79767966CAD7DAD8EAD9FAD679760
:103160000E9497EE811108C04BEDC42E4FE0D42E83
:1031700049ECE42E40E4F42EAB962CAD3DAD4EADC3
:103180005FADAB97C701B6010E94FCEE9B01AC019D
:103190000E94FCEE4B015C012F962CAD3DAD4EAD77
:1031A0005FAD2F97CA01B9010E94FCEE9B01AC01F3
:1031B000C501B4010E94BAF20E9425F54B015C01E1
:1031C0002FE632E143E85AE30E9497EE87FD54C2AE
:1031D000C501B4010E942FF40E9403F41B01672B68
:1031E00019F422242394312CB10180E090E00E9454
:1031F0009BEE4B015C019B01AC01C701B6010E9433
:1032000096F32B966CAF7DAF8EAF9FAF2B97A5013A
:1032100094012F966CAD7DAD8EAD9FAD2F970E9422
:1032200096F3AB966CAF7DAF8EAF9FAFAB97E79643
:103230002CAD3DAD4EAD5FADE797AF966CAD7DADBE
:103240008EAD9FADAF970E94B9F2A50194010E9487
:1032500096F3AF966CAF7DAF8EAF9FAFAF972B96C7
:103260002CAD3DAD4EAD5FAD2B97CA01B9010E94AB
:10327000FCEE20E030E040E05FE30E94FCEE9B01CA
:10328000AC0160E070E080E89FE30E94B9F2A39691
:103290006CAF7DAF8EAF9FAFA397E3962CAD3DADE6
:1032A0004EAD5FADE39729873A874B875C87E796FA
:1032B0008CAD9DADAEADBFADE7978D879E87AF87D7
:1032C000B88B60911C0270911D02072E000C880BB8
:1032D000990B0E949DEE20916A0230916B02409101
:1032E0006C0250916D020E94FCEE2AE037ED43E241
:1032F0005CE30E94FCEE6BAF7CAF8DAF9EAF0E9493
:1033000063709B01AC0128533F4F4F4F5F4FA7960F
:103310002CAF3DAF4EAF5FAFA7974FAC21965FACE0
:10332000219722966FAC229723967FAC239741E09A
:1033300050E065965FAF4EAF659759E12C965FAF51
:103340002C976596AEADBFAD6597A215B30509F490
:1033500058C10E94E35D0E946370DC01CB01A79617
:103360002CAD3DAD4EAD5FADA797821B930BA40B6B
:10337000B50BB7FD10C00E9463709B01AC012853D0
:103380003F4F4F4F5F4FA7962CAF3DAF4EAF5FAF54
:10339000A7970E9430A22C963FAD2C9731502C96C7
:1033A0003FAF2C97332309F44BC0A3962CAD3DAD12
:1033B0004EAD5FADA39727966CAD7DAD8EAD9FAD45
:1033C00027970E94FCEE6B017C012B962CAD3DAD46
:1033D0004EAD5FAD2B97B201C3010E94FCEEA70179
:1033E00096010E94BAF27B018C01A3962CAD3DADF3
:1033F0004EAD5FADA397B201C3010E94FCEE4B013D
:103400005C012B962CAD3DAD4EAD5FAD2B97279655
:103410006CAD7DAD8EAD9FAD27970E94FCEE9B01FC
:10342000AC01C501B4010E94B9F22B013C01C701F6
:10343000D80127968CAF9DAFAEAFBFAF279761C0C5
:1034400065964EAD5FAD6597BA0180E090E00E9451
:103450009BEE2B962CAD3DAD4EAD5FAD2B970E94F4
:10346000FCEE4B015C010E9493F36B017C01C501F2
:10347000B4010E941BF54B015C01A7019601239644
:103480006CAD7DAD8EAD9FAD23970E94FCEE2B0100
:103490003C01A501940163966CAD7DAD8EAD9FADF1
:1034A00063970E94FCEE9B01AC01C301B2010E9434
:1034B000BAF22B013C01A501940123966CAD7DADC0
:1034C0008EAD9FAD23970E94FCEE4B015C01A701DE
:1034D000960163966CAD7DAD8EAD9FAD63970E94F6
:1034E000FCEE9B01AC01C501B4010E94B9F2279624
:1034F0006CAF7DAF8EAF9FAF279759E12C965FAF32
:103500002C979201A3016B966CAD7DAD8EAD9FADF6
:103510006B970E94BAF269837A838B839C83279688
:103520002CAD3DAD4EAD5FAD27976F966CAD7DADCB
:103530008EAD9FAD6F970E94BAF26D837E838F83AD
:103540009887AB962CAD3DAD4EAD5FADAB97698521
:103550007A858B859C850E94BAF269877A878B87EA
:103560009C87AF962CAD3DAD4EAD5FADAF976D85F1
:103570007E858F8598890E94BAF26D877E878F87B6
:10358000988B80918302882321F0CE0101960E94BE
:1035900038A0E090BD0D89819A81AB81BC8188A360
:1035A00099A3AAA3BBA38D819E81AF81B8858CA36B
:1035B0009DA3AEA3BFA389859A85AB85BC8588A74B
:1035C00099A7AAA7BBA7CE0180960E9455BD8E01E0
:1035D000055C1F4F9E01235F3F4FAE01485D5F4F6B
:1035E000BE016C5D7F4FCE0180960E94AD596596FD
:1035F0008EAD9FAD6597019665969FAF8EAF65972F
:10360000A0CEE090BD0D80914C0B90914D0BA09100
:103610004E0BB0914F0B88A399A3AAA3BBA3809193
:10362000500B9091510BA091520BB091530B8CA366
:103630009DA3AEA3BFA38091540B9091550BA09175
:10364000560BB091570B88A799A7AAA7BBA7CE0185
:1036500080960E9455BD8E01055C1F4F28E53BE01A
:10366000AE01485D5F4FBE016C5D7F4FCE0180961D
:103670000E94AD590E94EA340E945DBD0C94A42EB4
:10368000E9E9FAE184918F010F5F1F4F882321F050
:103690000E94B932F801F6CFE9EDF1E084918F0193
:1036A0000F5F1F4F882311F40C94A42E0E94B9328F
:1036B000F801F4CF80E50E949733882329F00E9417
:1036C00036BD6B017C0103C0C12CD12C760183E592
:1036D0000E949733882361F00E94313320E030E06C
:1036E0004AE754E40E94FCEE0E9403F46B017C0163
:1036F0000E948A5F80912D02811105C060E08FEEEB
:1037000091E00E949D850E945DBD8091170E909171
:10371000180EA091190EB0911A0EC80ED91EEA1EED
:10372000FB1E0E946370DC01CB018C199D09AE0960
:10373000BF09B7FD02C00C94A42E0E9430A2F1CFA5
:103740000E94F4340C94A42E80E00E944BCE0C9482
:10375000A42E83E50E949733882321F00E94113321
:10376000282F01C020E0022F10E00630110570F074
:10377000E1EBF2E084918F010F5F1F4F882311F47A
:103780000C94A42E0E94B932F801F4CF223009F42F
:103790004CC028F4222371F0213089F1C5C12430B6
:1037A00009F4B3C108F449C1253009F0BDC10E9434
:1037B0001CCFBAC18091B20E882399F08091B70EC8
:1037C000811103C06AEC72E002C066EC72E089E825
:1037D00092E00E94BE578AE00E94B9320E9402E93C
:1037E000A3C1E1E9F2E084917F01BFEFEB1AFB0A8C
:1037F000882309F499C10E94B932F701F4CF0E94DD
:10380000326B10920102109200028091BE0D811164
:1038100003C087E792E002C082E892E090936E0DC9
:1038200080936D0D0E94F0B97FC1409100025091CC
:10383000010257FF0EC0EEE4F2E084918F010F5FAA
:103840001F4F882311F40C94A42E0E94B932F80162
:10385000F4CF4115510529F48091830280936A03C6
:103860002FC08FEF840F63E00E9482F580FF02C0BB
:10387000291B922F292F990F330BF901EE0FFF1FF0
:10388000E20FF31FE80FF11D87FDFA95EE0FFF1F02
:10389000EE0FFF1FEF5CF64F8091300B9091310BD4
:1038A000A091320BB091330B80839183A283B383B9
:1038B00080916A0380938302493051050CF072C0F5
:1038C000842F63E00E9482F580FF03C022E0291B61
:1038D000922F4091300B5091310B6091320B7091CF
:1038E000330B4BAF5CAF6DAF7EAF19821A821B8278
:1038F0001C8240E050E060EA70E448A359A36AA348
:103900007BA3E4E08E0290011124A9014B57504F94
:103910006A0154E0950290011124C9018F56904F1D
:103920007C019E012F5F3F4FAE01405E5F4FB601AD
:103930000E94929819821A821B821C829E012F5F1C
:103940003F4FAE01455C5F4F6CE27BE088E29BE05D
:103950000E949298F70180819181A281B381809326
:10396000280B9093290BA0932A0BB0932B0BF601F5
:1039700080819181A281B38180932C0B90932D0B38
:10398000A0932E0BB0932F0B1092BE0D10928302BA
:103990008091000290910102019690930102809320
:1039A0000002C2C080E090E0A0EAB0E48093300B57
:1039B0009093310BA093320BB093330B0E9446B916
:1039C0000E948A5F8FEF9FEF909301028093000225
:1039D000EAE3F2E084917F012FEFE21AF20A8823F2
:1039E00021F00E94B932F701F5CF83E992E09A8382
:1039F0008983B4E6EB2EF12CF9A2E8A2BE016F5F39
:103A00007F4FCE0180960E94F1C68AEB92E09A83A6
:103A10008983F9A2E8A2BE016F5F7F4FCE01809635
:103A20000E94F1C681E08093B20E0E944BCE81E0ED
:103A30000E9430CE1092BE0D77C088E50E94973369
:103A40008823B1F00E940133FF24FA94F60E32E08D
:103A50003F15A8F4E3E2F2E084918F010F5F1F4F5E
:103A6000882311F40C94A42E0E94B932F801F4CFEB
:103A700088E50E94B9320E94B6E90C94A42E89E52B
:103A80000E9497338823B1F00E940133EE24EA9418
:103A9000E60E42E04E15A8F4ECE0F2E084918F01CE
:103AA0000F5F1F4F882311F40C94A42E0E94B9328B
:103AB000F801F4CF89E50E94B9320E94B6E90C946E
:103AC000A42E8AE50E9497338823C1F00E943133E7
:103AD0002F2D30E0F901EE0FFF1FE20FF31FEE0D67
:103AE000F11DE7FCFA95EE0FFF1FEE0FFF1FEF5CD5
:103AF000F64F608371838283938316C08AE50E94A8
:103B0000B9320E94B6E90C94A42E8AE50E9497333C
:103B10008823A1F30E9431336093B30E7093B40EE7
:103B20008093B50E9093B60E015011090230110525
:103B3000B0F460910002709101026A30710514F0D6
:103B400069E070E08DEF91E00E94A55769E070E0B8
:103B500088EF91E00E94A5578AE00E94B9320E9446
:103B6000E0D10C94A42E81E0809369030C94A42EE0
:103B70000E948A5F38E8232E32E0332E4FE1C42EB4
:103B80004EE0D42EE12CF12C00E010E01FAED1016C
:103B90008D911D010E949733882309F451C00E9422
:103BA00031334B015C010330110559F0F701EE5B35
:103BB000F14F20813181428153810E94B9F24B0142
:103BC0005C01F701E85DF44F20813181428153812E
:103BD000C501B4010E94B9F22B013C012DEB37E382
:103BE00046E855EB0E94E0F487FD0AC02DEB37E371
:103BF00046E855E3C301B2010E9497EE181604F59A
:103C00000330110559F48092340B9092350BA09239
:103C1000360BB092370BB1E0BFAF12C0A3019201D7
:103C2000F60160817181828193810E94BAF2D6018E
:103C30006D937D938D939C931397C8010E9493B9C4
:103C40000F5F1F4FB4E0CB0ED11CE4E0EE0EF11C71
:103C50000430110509F09BCFFFADFF2309F47FCF9E
:103C60000E9497777CCF80910D02882311F40C94E9
:103C7000A42E89E40E949733F82E882321F00E9415
:103C80000133062F01C000E08AE40E949733E82E3A
:103C9000882331F00E940133162FF11004C00AC0AE
:103CA00010E0FF20B1F0033010F40C94FB31E8EC8D
:103CB000F2E003C01330D8F70CC084918F010F5F7E
:103CC0001F4F882311F40C94A42E0E94B932F801DE
:103CD000F4CF0E94A333FF2091F024E00202F00110
:103CE0001124EF56F04F80819181A281B38180939E
:103CF0004C0B90934D0BA0934E0BB0934F0BEE20BB
:103D000091F034E01302F0011124EB57F04F808161
:103D10009181A281B3818093500B9093510BA0931A
:103D2000520BB093530B80E50E949733882319F010
:103D30000E94223303C080E50E94683386E40E941B
:103D400097338823D9F00E9431336B017C0120E046
:103D500030E0A9010E94E0F4181684F420E030E07D
:103D600040E752E4C701B6010E9496F360936A02ED
:103D700070936B0280936C0290936D020E94A7D4A3
:103D80000C94A42E80917E1290917F12823791051F
:103D900009F4C1C60CF0C7C08133910509F401C50F
:103DA0000CF066C08831910509F467C2ECF58231E8
:103DB000910509F4A8C6FCF497FF02C00C94A42E48
:103DC000823091050CF477C1419711F00C94A42E28
:103DD00060E08DE193E00E949D855F988A989FB78F
:103DE000F894809108018E7F809308019FBF4798C7
:103DF00012980C94A42E8531910509F423C23CF449
:103E0000449711F00C94A42EE5E3F3E0D8C1863179
:103E1000910509F41BC2479711F00C94A42EE09170
:103E20007C12F0917D121CC28C31910509F47AC28A
:103E300064F48A31910509F42BC20CF037C2109258
:103E4000CD0F0E94709A0C94A42E8F31910509F425
:103E5000C2C32CF44E9709F46FC20C94A42E803286
:103E6000910509F46CC38A9709F45BC40C94A42EE1
:103E70008C35910509F44BC64CF58135910509F453
:103E800035C68CF48C34910509F4B0C48D34910599
:103E900009F4B0C48B34910511F00C94A42E0E9447
:103EA000309A0C94A42E8335910509F427C60CF49E
:103EB00021C68435910509F426C68535910511F092
:103EC0000C94A42E0E948FD40C94A42E8C369105B1
:103ED00009F46FC5ACF48936910509F490C534F442
:103EE0008836910509F48AC40C94A42E8A3691056B
:103EF00009F4E6C58B36910509F4E6C50C94A42EA9
:103F00008E36910509F4D1C40CF4BAC58F369105EB
:103F100009F4DEC48037910511F00C94A42E81E4DD
:103F200094E00E94DFA18D3D910509F49CC70CF03F
:103F300055C08B39910509F47CC51CF5873791056F
:103F400009F489C674F48537910509F43CC60CF070
:103F500043C68337910511F00C94A42EEFE1F5E0F0
:103F6000E0C58937910509F4E3C60CF4DAC68C384C
:103F7000910509F426C58139910509F4DFC60C9431
:103F8000A42E8C3C910509F455C7C4F4883C9105D6
:103F900009F44AC734F48E3B910509F475C50C94B5
:103FA000A42E893C910509F442C78B3C910511F080
:103FB0000C94A42E0E9419D10C94A42E8E3C910531
:103FC00009F43EC70CF439C7833D910509F43BC79A
:103FD0008C3D910509F43AC70C94A42E8A3941E02E
:103FE000940709F4EAC474F58D32A1E09A0709F444
:103FF000E0C784F48232E1E09E0709F4A4C78C3262
:10400000F1E09F0709F4ACC7823E910511F00C94D2
:10401000A42E6FC78F3221E0920711F40C94CB28A5
:1040200014F40C947728833641E0940711F40C942F
:10403000282E8039914011F00C94A42E0E948A5FA2
:104040000C94A42E853FA1E09A0711F40C94152E30
:10405000ECF4853AE1E09E0711F40C942A2D3CF42F
:10406000843A914011F40C94622C0C94A42E8C3A56
:1040700031E0930711F40C94FD2D843F914011F031
:104080000C94A42EE9E9FAE10C94002E873F51E04C
:10409000950711F40C941E2E14F40C941B2E803AE8
:1040A000B3E09B0709F48AC2873E934011F40C9455
:1040B0003F2E0C94A42EA0907C12B0907D1280E52F
:1040C0000E949733882359F00E9436BD6B017C0112
:1040D00011E0672B682B692B31F410E004C010E06D
:1040E000C12CD12C760183E50E9497338823F1F00F
:1040F0000E94313320E030E04AE754E40E94FCEEB5
:104100000E9403F46B017C01111112C0672B682B14
:10411000692B71F4A114B10459F0D5018C91882355
:1041200039F061E0C5010E94BD8507C0112391F3FC
:1041300060E08AE093E00E949D8581E08093990D84
:104140000E948A5F0E945DBDC114D104E104F104A4
:10415000E9F08091170E9091180EA091190EB09170
:104160001A0EC80ED91EEA1EFB1E0E946370DC01E7
:10417000CB018C199D09AE09BF09B7FF1CC0809106
:10418000990D8823C1F00E9430A2EFCF8091990D44
:10419000882319F00E9430A2F9CF8091BD0F909131
:1041A000BE0F60E0029719F486EF92E002C087EE3E
:1041B00092E00E949D851092990D0C94A42E8491FA
:1041C0008F010F5F1F4F882321F00E94B932F80141
:1041D000F6CF109253121092521240E050E0BA0102
:1041E0008EEF9FE00E94F9438BE1EEEFFFE0DE01EE
:1041F000159601900D928A95E1F78091FC0F9091B0
:10420000FD0F9C838B8380EA92E09A83898340E050
:1042100050E0BE016F5F7F4F8CE493E00E94EDC7DA
:10422000CE0101960E94C5A1E6E2F3E084918F01E0
:104230000F5F1F4F882311F40C94A42E0E94B932F3
:10424000F801F4CF0E94B7750C94A42E1092CD0FF4
:104250001092CE0F0C94A42E803209F41082319665
:1042600080818111F9CF40E061E080917C129091D2
:104270007D120E9479720C94A42E8091CE0F882317
:1042800019F081E08093CD0F0E94309A0C94A42EF7
:104290008091CE0F882311F40C94A42E83E50E9404
:1042A000973381110C94AC2E0C94A42E8091CE0FD8
:1042B000882351F1E6E4F3E084918F010F5F1F4FF3
:1042C000882321F00E94B932F801F6CF609149129B
:1042D00070914A1280914B1290914C124AE00E94C8
:1042E00068BD8FE20E94B93260914512709146120A
:1042F00080914712909148124AE00E9468BD8AE07E
:104300000E94B9320C94A42EE8E5F3E084918F0169
:104310000F5F1F4F882311F40C94A42E0E94B93212
:10432000F801F4CF40E060E080917C1290917D1222
:104330000E9479720C94A42E8091CE0F882311F4E0
:104340000C94A42E88E991E10E94C74388E991E189
:104350000E94B99D1092CC0F1092CB0FE0907C126E
:10436000F0907D128091CE0F882311F40C94A42E2E
:104370000E946E72FE0131966F01CF010E94CE4104
:104380008AEF9FE090931A1080931910D7018C91B7
:104390008F3209F060C06FE270E0C7010E940AF638
:1043A0008C010F5F1F4F09F45CC06FE270E0C80121
:1043B0000E940AF65C01009709F454C00817190717
:1043C00008F050C04C01801A910AA401B801CE0136
:1043D00080960E9433F6E0E2F0E0EC0FFD1FE80D5E
:1043E000F91D10828E01005E1F4FF80181918F012F
:1043F000882319F00E94B932F8CF8AE00E94B932BE
:104400006091191070911A106115710511F06C5FAF
:104410007F4F21E0AE01405E5F4FCE0105960E94C6
:10442000DC49811112C0BE01605E7F4F8FE893E0CE
:104430000E94BE578EE20E94B9328AE00E94B932D1
:10444000C6010E94C5A10C94A42ED0921A10C0924D
:1044500019108501A6CF8BE190E190931A108093FB
:10446000191087016091191070911A10611571056A
:1044700011F06C5F7F4F18A21BA222E0A801CE01B1
:1044800080960E94DC49811102C0F12C14C0CE013B
:1044900080960E945BC78823C1F361E0CE018096BD
:1044A0000E94C29D009789F325EEDC012C931BA28C
:1044B0000E94D841F82ECE0180960E9446BDFF2072
:1044C00009F1E9E6F3E084917F01BFEFEB1AFB0A03
:1044D000882321F00E94B932F701F5CFF8018191CC
:1044E0008F01882319F00E94B932F8CF8AE00E9428
:1044F000B9321092491210924A1210924B12109235
:104500004C1218C0E7E7F3E084917F012FEFE21A25
:10451000F20A882321F00E94B932F701F5CFD801C1
:104520008D918D01882319F00E94B932F8CF8EE267
:104530000E94B932C6010E94C5A10C94A42E80919C
:10454000CD0F81110E948A5F8091CE0F882311F4D4
:104550000C94A42E80E50E949733882319F00E94C2
:10456000223303C080E50E946833182F482F61E092
:1045700080917C1290917D120E94797283E50E9455
:104580009733882381F00E940133AB01BC01409333
:10459000491250934A1260934B1270934C1288E95F
:1045A00091E10E94F9438091CE0F882319F081E0B8
:1045B0008093CD0F11110C94A42E66CE80917C12A5
:1045C00090917D1221E02093CC0F40E060E00E94AA
:1045D00079720C94A42E0E9425C72CE3C22ED12CF4
:1045E000E12CF12CA70196010E945CF2762E672E39
:1045F000CA01B901A70196010E945CF26B017C011E
:10460000CA01B90128E130E040E050E00E945CF2CC
:104610004B015C01C9016DE671E00E948FF58E01CE
:104620000F5F1F4F6115710599F06F927F92DF92B6
:10463000CF929F928F929F938F937F936F938BECE8
:1046400093E09F938F931F930F930E9430EE12C0BD
:104650000097B1F06F927F92DF92CF929F928F92EC
:104660009F938F938BEB93E09F938F931F930F9365
:104670000E9430EE0FB6F894DEBF0FBECDBF36C03D
:1046800081149104A104B10479F06F927F92DF92BA
:10469000CF929F928F928FEA93E09F938F931F9375
:1046A0000F930E9430EEE6CFC114D104E104F1046F
:1046B00069F06F927F92DF92CF9287EA93E09F93A7
:1046C0008F931F930F930E9430EED4CF6F927F92FF
:1046D00083EA93E09F938F931F930F930E9430EE92
:1046E0000F900F900F900F900F900F9060E0C80107
:1046F0000E94BD85E8E1F7E284917F019FEFE91A0E
:10470000F90A882321F00E94B932F701F5CFB801E8
:104710008FED93E00E94BE578AE00E94B9320C945C
:10472000A42E83E50E949733882311F40C94A42EC1
:104730000E941133E82E80E50E949733882341F0D0
:104740000E9401338B0177FF02C00C94A42E02C09B
:104750000DE010E0902FEFE3F6E08BE28E0F249156
:10476000921729F031968E13FACF0C94BC2EE9E9FA
:10477000FAE184918F010F5F1F4F882321F00E947F
:10478000B932F801F6CFECEEF3E084918F010F5FC0
:104790001F4F882311F40C94A42E0E94B932F80103
:1047A000F4CFF090640381E0F826F0926403E6E031
:1047B000F4E084918F010F5F1F4F882321F00E9446
:1047C000B932F801F6CFF11003C0E0E0F4E002C026
:1047D000EBEFF3E084918F010F5F1F4F882311F4FB
:1047E0000C94A42E0E94B932F801F4CF0E94709A62
:1047F0000C94A42E0E9419C60C94A42E88E690E076
:104800000E94D0BD81110C94A42E8091EA0383FFF5
:1048100002C00C94A42E83E50E949733882309F4E8
:1048200040C00E9431330E94FEF37093ED0D6093FF
:10483000EC0D80E00E9437B10E94313320E030E07F
:104840004AEA52E40E9497EE18163CF00E9419C6FC
:1048500060E088E194E00E949D850E9431332091C0
:104860003A0E30913B0E40913C0E50913D0E0E940D
:10487000E0F41816B4F481EE92E09F938F93809148
:10488000980E90E001969F938F9381E194E09F931F
:104890008F931F920E946A990FB6F894DEBF0FBEE5
:1048A000CDBF0E94E6570C94A42E8EE40E9497334D
:1048B000882311F40C94A42E0E94013360935E0BA4
:1048C00070935F0B8093600B9093610B0C94A42EFC
:1048D00083E50E946833882359F083E50E9497336B
:1048E000882319F00E94113301C080E08093EA030D
:1048F000E8E1F7E284918F010F5F1F4F882321F0D9
:104900000E94B932F801F6CFEAE3F4E084918F0116
:104910000F5F1F4F882321F00E94B932F801F6CFB4
:104920008091EA038823A1F10CE2C02E04E0D02E8E
:10493000E12CF12C20E08091EA0390E00E2C02C0E3
:10494000959587950A94E2F780FF17C0BB24B3942E
:10495000B20E222319F08CE20E94B932F6012591A1
:104960003491F901849189010F5F1F4F882321F051
:104970000E94B9329801F5CF2B2DFFEFEF1AFF0AF5
:1049800032E0C30ED11C45E0E416F104A1F60CC0E0
:10499000E6E3F4E084918F010F5F1F4F882321F03D
:1049A0000E94B932F801F6CF8AE00E94B9320C9425
:1049B000A42E109272020C94A42E0E9427CF0C9465
:1049C000A42E8091EA0383FF02C00C94A42E83E5F9
:1049D0000E949733882311F40C94A42E0E94313343
:1049E0000E94FEF36F36710514F06EE670E070936E
:1049F000EB0D6093EA0D0E94ECB00C94A42E89E6B6
:104A000090E00E94D0BD81110C942932EAE4F4E0D8
:104A100084918F010F5F1F4F882321F00E94B932CC
:104A2000F801F6CF0E9478AD8AE00E94B9320C946A
:104A3000293283E50E949733882311F40C94A42E25
:104A40000E941133182F8D3308F01CE31093140EBD
:104A50000E9463706B017C01212F30E0A8EEB3E06F
:104A60000E94AAF2C60ED71EE81EF91EC092100EB2
:104A7000D092110EE092120EF092130E0C94A42E0E
:104A80000E9434CA0C94A42E8091EA0383FF02C0D2
:104A90000C94A42E60E08BE594E00E949D8583E554
:104AA0000E94973360968FAF609781110C94D12E3E
:104AB00082E50E94973381110C94D12E0C94A42E80
:104AC0000E94FACB0C94A42E80E50E9497338111AA
:104AD00006C01092EF0D1092EE0D0C94A42E0E94C1
:104AE0000133672B11F00C94A42EF3CF0E941FCA40
:104AF0000C94A42E109268030C94A42E81E0809351
:104B000068030C94A42E0E94C5C90C94A42E0E9484
:104B1000F1D30C94A42E0E948A5F0E94E0D10C94E1
:104B2000A42E84918F010F5F1F4F882321F00E94D4
:104B3000B932F801F6CF60E08FE095E00E94A9D18C
:104B400060E088E095E00E94A9D161E08DEF94E0FB
:104B50000E94A9D161E08DEE94E00E94A9D160E0AD
:104B600084EE94E00E94A9D161E08AED94E00E9475
:104B7000A9D160E080ED94E00E94A9D160E088ECCA
:104B800094E00E94A9D161E08AEB94E00E94A9D14F
:104B900060E08CEA94E00E94A9D160E08DE994E0A5
:104BA0000E94A9D160E08FE894E00E94A9D160E062
:104BB00089E794E00E94A9D160E088E694E00E9431
:104BC000A9D10C94A42E60E080917C1290917D126A
:104BD0000E94BD850C94A42E85E40E9497338823FF
:104BE00019F00E94223303C085E40E9468338823B1
:104BF00061F0E8E1F7E284918F010F5F1F4F882396
:104C000021F00E94B932F801F6CF81E40E94973377
:104C1000882319F00E94223303C081E40E94683384
:104C2000882361F0E7EEF5E084918F010F5F1F4F5D
:104C3000882321F00E94B932F801F6CF00917C124E
:104C400010917D12D8018D918D01882309F4ACCE8D
:104C50000E94B932F7CFE3E0F6E084918F010F5F55
:104C60001F4F882321F00E94B932F801F6CFEBEFF5
:104C7000F5E084918F010F5F1F4F882321F00E9480
:104C8000B932F801F6CF659B03C00EEC12E002C00A
:104C900003ED12E0F80181918F01882319F00E9441
:104CA000B932F8CF8AE00E94B932E3EFF5E084919F
:104CB0008F010F5F1F4F882321F00E94B932F80146
:104CC000F6CF8091030181FF03C00EEC12E002C019
:104CD00003ED12E0D8018D918D01882319F00E9417
:104CE000B932F8CF8AE00E94B932EBEEF5E0849158
:104CF0008F010F5F1F4F882321F00E94B932F80106
:104D0000F6CF4B9B03C00EEC12E002C003ED12E0A5
:104D1000F80181918F01882309F446CE0E94B932AF
:104D2000F7CF81E080939E0F80939D0F0C94A42E6B
:104D300010929E0F10929D0F0C94A42E83E50E945A
:104D40009733882319F00E94013302C060E070E0BD
:104D50008B01112702301105CCF0E9E9FAE18491C9
:104D60008F010F5F1F4F882321F00E94B932F80195
:104D7000F6CFEDE1F6E084918F010F5F1F4F88239E
:104D800009F4E2C70E94B932F801F5CF88E40E9425
:104D900097338823A1F00E9401336A3A710534F0F9
:104DA000663F71052CF065EF70E002C06AEA70E0C2
:104DB000F801EE0FFF1FEA52F24F7183608386E421
:104DC0000E9497338823A9F00E940133F801EE0F67
:104DD000FF1FE652F24F718360836F3F710519F038
:104DE00014F06FEF70E077FF02C060E070E0718355
:104DF000608382E40E949733882309F4A5C70E9448
:104E000001336530710534F0603671052CF06FE5C3
:104E100070E002C065E070E0000F111FF801EE5273
:104E2000F24F7183608390C70E9460D18DC70E944A
:104E30003BD18AC70E94B0D087C70E9446D084C7A2
:104E40000E94C5D381C70E9468CF7EC783E50E94B8
:104E50009733882309F478C70E94013370931D02A9
:104E600060931C0271C78DED90E00E94D0BD81114E
:104E70006BC783E50E949733882309F465C70091C7
:104E8000980E10E00E940133000F111FF801E65E3A
:104E9000FD4F718360838091980E90E07C01EE0C51
:104EA000FF1CEE0CFF1C87010B54124F880F991F3B
:104EB000FC01E65EFD4F60817181072E000C880BBE
:104EC000990B0E949DEE2AE037ED43E25CE30E94DD
:104ED000FCEEF701E754F24F20813181428153818A
:104EE0000E94FCEED8016D937D938D939C93139754
:104EF0002BC780E50E946833882309F425C70E94E8
:104F000001336B017C0183E50E949733882321F0F4
:104F10000E9401338B0102C00FEF1FEFC801019601
:104F2000039708F011C7D7FC0FC79C2DEFE3F6E0FD
:104F30008BE28E0F2491921709F406C731968E13D7
:104F4000F9CF0C9401328AE50E94973381110C94B9
:104F5000323083E50E94973381110C943230F4C6CD
:104F600083E50E949733882319F00E94013302C021
:104F700064E071E079A368A380E50E9497338823F9
:104F800039F00E9401336938B3E17B0730F402C085
:104F900068EE73E07A83698304C088E893E19A83BA
:104FA0008983BE01605E7F4FCE0101960E94F1C6EB
:104FB000CBC685E40E949733811110C080E50E9422
:104FC0006833882391F00E9431336093C50D70934C
:104FD000C60D8093C70D9093C80D07C00E94113372
:104FE000882361F3E9E9FAE171C089E40E9468333A
:104FF000882381F00E9431332CEA35EC47E25EE3EE
:105000000E94FCEE6093CD0D7093CE0D8093CF0D7A
:105010009093D00D84E40E946833882381F00E942D
:1050200031332CEA35EC47E25EE30E9496F360935D
:10503000C90D7093CA0D8093CB0D9093CC0DE8E110
:10504000F7E284918F010F5F1F4F882321F00E94A8
:10505000B932F801F6CF4091C50D5091C60D60915F
:10506000C70D7091C80D82E796E00E9488572CEA20
:1050700035EC47E25EE36091CD0D7091CE0D8091ED
:10508000CF0D9091D00D0E9496F3AB01BC018EE63E
:1050900096E00E946B572CEA35EC47E25EE36091A4
:1050A000C90D7091CA0D8091CB0D9091CC0D0E94CD
:1050B000FCEEAB01BC018AE696E00E946B578AE0E9
:1050C0000E94B93241C60E94B932F80184918F0121
:1050D0000F5F1F4F8111F7CF0CEE12E0F8018191A5
:1050E0008F01882309F460CC0E94B932F7CF83E5A1
:1050F0000E946833182F882371F00E9431330E9478
:10510000FEF3709307026093060221E0672B09F01B
:1051100020E02093E50380E50E946833882359F05E
:105120002091060230910702232B11F00E942233B6
:105130008093E50309C6111107C6E8E1F7E28491FF
:105140008F010F5F1F4F882321F00E94B932F801B1
:10515000F6CF8091E503811103C06DED72E002C0CE
:1051600060ED72E08BE896E00E94BE576091060207
:10517000709107028AE796E00E94A557E6E7F6E0FD
:1051800084918F010F5F1F4F882309F4DDC50E94B2
:10519000B932F801F5CF85E40E949733882321F0D6
:1051A0000E9401337B0102C0E12CF12C83E40E94B8
:1051B0009733882341F00E940133C058DF4F688342
:1051C000C058D04006C025E0C058DF4F2883C058E3
:1051D000D04085E50E949733882319F00E9422333E
:1051E00003C085E50E946833C457DF4F8883CC58DD
:1051F000D040F7FC07C0812C912CB6E1AB2EB3E474
:10520000BB2E06C0812C912CACE8AA2EA2E4BA2EAB
:1052100083E50E949733882321F00E9431334B01AC
:105220005C01E114F10411F41092980E0E94637075
:105230002B013C01E11003C00DEF12E00BC000E1B7
:1052400013E0D8018D918D01882309F4ADCB0E9424
:10525000B932F7CFF80181918F01882319F00E94AC
:10526000B932F8CFC501B4010E94FEF3072E000C3D
:10527000880B990B0E949DEE60966FAF6097289601
:105280007FAF28972C968FAF2C9764969FAF64972B
:10529000A3019201205E314B4F4F5F4FCB56DF4F42
:1052A000288339834A835B83C559D0408AE00E94B2
:1052B000B9320E9482B18FE78093960E81E080938D
:1052C0007202CC57DF4F488259826A827B82C4586F
:1052D000D040C357DF4F488259826A827B82CD58C3
:1052E000D040CD57DF4F1882C358D040CF56DF4F44
:1052F000188219821A821B82C159D0406C961FAE47
:105300006C9730E4A0963FAFA0974CE1A4964FAFC6
:10531000A49756E4E0965FAFE097E4961FAEE4975B
:10532000A8961FAEA897AC961FAEAC97E8961FAE96
:10533000E897C458DF4F188219821A821B82CC5713
:10534000D040EC961CAE1DAE1EAE1FAEEC97C12C2D
:10535000D12C7601FFE78F2E912CA12CB12C8FE759
:1053600090E0A0E0B0E027968CAF9DAFAEAFBFAFAE
:105370002797C857DF4F188219821A821B82C85894
:10538000D04091E0CE57DF4F9883C258D040699605
:105390001FAE1EAE699710E0212C312C00E0C058E2
:1053A000DF4FA881C058D0400A2E000CBB0BC0585C
:1053B000DF4FB983A883C058D04080917202882300
:1053C00009F40CC10E94637023966CAF7DAF8EAF61
:1053D0009FAF23978091940E882309F4DBC00E942D
:1053E000535D10913A0E20903B0E30903C0E009190
:1053F0003D0E212F322D432D502FE4966FADE497B3
:10540000A8967FADA897AC968FADAC97E8969FAD68
:10541000E8970E9497EE87FF0CC0E4961FAFE497D1
:10542000A8962FAEA897AC963FAEAC97E8960FAF74
:10543000E897212F322D432D502F6C966FAD6C972E
:10544000A0967FADA097A4968FADA497E0969FAD50
:10545000E0970E94E0F4181664F46C961FAF6C9706
:10546000A0962FAEA097A4963FAEA497E0960FAF5C
:10547000E097CE57DF4FB881C258D04060962FAD2D
:10548000609728963FAD28972C964FAD2C97649641
:105490005FAD6497612F722D832D902FBB2309F48C
:1054A0005BC00E94E0F418160CF074C023964CAD5B
:1054B0005DAD6EAD7FAD2397441955096609770937
:1054C000DB01CA0188589341A109B109B7FD62C047
:1054D00027968CAD9DADAEADBFAD279788199909C4
:1054E000AA09BB09B595A795979587958093960EC0
:1054F000C857DF4F488359836A837B83C858D0409D
:105500006096EFAD6097E496EFAFE4972896FFAD15
:105510002897A896FFAFA8972C962FAD2C97AC96FE
:105520002FAFAC9764963FAD6497E8963FAFE8978E
:1055300023968CAD9DADAEADBFAD2397CC57DF4F5D
:1055400088839983AA83BB83C458D040CE57DF4F4A
:105550001882C258D0401EC00E9497EE87FF1AC022
:1055600023968CAD9DADAEADBFAD2397CC57DF4F2D
:10557000288139814A815B81C458D040821B930BBA
:10558000A40BB50BAC01BD01485853416109710929
:1055900077FFA1C520E030E040EA51E460966FADAE
:1055A000609728967FAD28972C968FAD2C976496A0
:1055B0009FAD64970E94BAF29B01AC01612F722DDE
:1055C000832D902F0E94E0F4181674F4E6E9F7E0BA
:1055D00084918F010F5F1F4F811103C00E9482B120
:1055E000B3C3C7D7F801F4CF23968CAD9DADAEAD54
:1055F000BFAD2397C357DF4F288139814A815B8133
:10560000CD58D040821B930BA40BB50BB7FDB6C091
:105610000E9478AD8AE0ADD723968CAD9DADAEAD3E
:10562000BFAD23978053984FAF4FBF4FC357DF4F46
:1056300088839983AA83BB83CD58D040CD57DF4F51
:105640009881C358D040911176C0CF56DF4F288142
:1056500039814A815B81C159D040612F722D832DE0
:10566000902F0E94E0F418160CF04CC020E030E0BF
:1056700040EC50E460966FAD609728967FAD289718
:105680002C968FAD2C9764969FAD64970E94B9F2CB
:105690009B01AC01A1E0CD57DF4FA883C358D04098
:1056A000612F722D832D902F0E94E0F418162CF09C
:1056B000CD57DF4F1882C358D04020E030E040E0A3
:1056C00050E4612F722D832D902F0E94BAF2CF5695
:1056D000DF4F688379838A839B83C159D0402396A7
:1056E0002CAD3DAD4EAD5FAD2397205E314B4F4F9E
:1056F0005F4FCB56DF4F288339834A835B83C5597D
:10570000D0403CC023968CAD9DADAEADBFAD2397D0
:10571000CB56DF4F288139814A815B81C559D04002
:10572000821B930BA40BB50BB7FD28C048E757E0CD
:1057300067E877E020C020E030E040EA51E460967E
:105740006FAD609728967FAD28972C968FAD2C97DC
:1057500064969FAD64970E94B9F29B01AC01612FE2
:10576000722D832D902F0E9497EE87FF07C048E58A
:1057700057E068E677E080E00E94765D23968CAD86
:105780009DADAEADBFAD2397880F991FAA1FBB1F5C
:10579000CC57DF4F288139814A815B81C458D04082
:1057A000821B930BA40BB50B84199509A609B709A5
:1057B00081389F44A241B10560F0EAE3F7E08491AB
:1057C0008F010F5F1F4F882309F408CFD2D6F8014D
:1057D000F6CF69964EAD5FAD6997C058DF4F8881AF
:1057E0009981C058D040841795070CF068C0EDED42
:1057F000F6E084918F010F5F1F4F882319F0B9D60F
:10580000F801F7CFB701A60188EC96E00E9488570F
:105810008AE0AFD6EC964CAD5DAD6EAD7FADEC974A
:1058200083EB96E00E9488578AE0A3D6C458DF4FE6
:10583000488159816A817B81CC57D0408EE996E0BE
:105840000E9488578AE095D6C457DF4F9881CC587C
:10585000D040992309F478C2C092C50DD092C60DEC
:10586000E092C70DF092C80D2CEA35EC47E25EE3FA
:10587000EC966CAD7DAD8EAD9FADEC970E94FCEECD
:105880006093CD0D7093CE0D8093CF0D9093D00D7E
:105890002CEA35EC47E25EE3C458DF4F688179813A
:1058A0008A819B81CC57D0400E9496F36093C90DAA
:1058B0007093CA0D8093CB0D9093CC0D45C20E947E
:1058C000CF857BCD8091280B9091290BA0912A0B3D
:1058D000B0912B0B89839A83AB83BC8380912C0B73
:1058E00090912D0BA0912E0BB0912F0B8D839E8349
:1058F000AF83B8878091300B9091310BA091320B20
:10590000B091330B89879A87AB87BC8786E5E0D651
:10591000882389F08091B20E882369F0E9E4F8E0E9
:1059200084918F010F5F1F4F882319F022D6F80151
:10593000F7CF0E9402E98AE5CBD6882321F091D6E1
:1059400040E00E9458CD83E5C3D6882329F07AD65B
:10595000182F0E9430CE01C010E0F090B70E111148
:1059600003C0E8E1F7E218C0F110FBCFE9E9FAE182
:1059700084918F010F5F1F4F882319F0FAD5F8012A
:10598000F7CFEAE2F8E084918F010F5F1F4F882381
:1059900041F3EFD5F801F7CF84918F010F5F1F4FCF
:1059A000882319F0E6D5F801F7CFF11003C06AECAF
:1059B00072E002C066EC72E08CE198E00E94BE5793
:1059C0008AE0D7D5E8E1F7E284918F010F5F1F4F9E
:1059D000882319F0CED5F801F7CFEFE0F8E08491F5
:1059E0008F010F5F1F4F882319F0C3D5F801F7CF40
:1059F000C090B80ED090B90EE090BA0EF090BB0EE9
:105A000020E030E0A901C701B6010E94E0F41816B9
:105A100044F442E0C701B6010E942CBE8AE0A9D539
:105A20000BC0EAE0F8E084918F010F5F1F4F8823DD
:105A300019F09FD5F801F7CF4CE050E068E27BE029
:105A4000CE0101960E94D6F5892B09F47DC10E94F2
:105A5000E0D17AC188E53CD6B82E89E439D6A82EA3
:105A6000882311F0CED519C0BB20C9F0FAD520E0AB
:105A700030E040E251E40E94B9F220E030E048E436
:105A800052E40E94BAF22AE037ED43E25CE30E945E
:105A9000FCEE0E94FEF3633010F4F62E02C0FF24E9
:105AA000FA9489E515D6E82E8AE412D6182F8823B1
:105AB00011F0A7D519C0EE20C9F0D3D520E030E011
:105AC00040E251E40E94B9F220E030E048E452E4C0
:105AD0000E94BAF22AE037ED43E25CE30E94FCEE5A
