:100000000C94F7140C9428150C9428150C942815AE
:100010000C9428150C9428150C9428150C9428156C
:100020000C9428150C9428150C9428150C9428155C
:100030000C9428150C9428150C9428150C9428154C
:100040000C9428150C94C4490C9428150C9428156C
:100050000C9428150C9428150C94B0800C94603FD7
:100060000C9428150C94A2310C9428150C94281586
:100070000C9428150C9428150C9428150C9428150C
:100080000C9428150C9428150C9428150C942815FC
:100090000C9428150C9428150C9428150C942815EC
:1000A0000C9428150C9428150C9428150C942815DC
:1000B0000C9428150C9428150C9428150C942815CC
:1000C0000C9428150C9428150C9428150C942815BC
:1000D0000C9428150C9428150C9428150C942815AC
:1000E0000C942815149B179B069B0A9B109B4E9BF8
:1000F0001B9B1F9B259B299B2D9B339B379B3B9BCE
:100100004E9B419B459B499B1DA122A127A131A14B
:100110003BA1B4A145A14DA155A15FA169A173A1C6
:1001200082A18CA1B4A196A1A0A1AAA1084AD73B03
:100130003BCE016E84BCBFFDC12F3D6C74319ABDB6
:1001400056833DDA3D00C77F11BED9E4BB4C3E91DA
:100150006BAAAABE000000803F05A84CCDB2D44EC9
:10016000B93836A9020C50B9918688083CA6AAAACB
:100170002ABE000000803F004E414E494E4954596E
:10018000494E46CDCCCC3D0AD7233C17B7D1387762
:10019000CC2B329595E6241FB14F0A000020410078
:1001A00000C84200401C4620BCBE4CCA1B0E5AAEC2
:1001B000C59D74434F4D4D554E49434154494F4E93
:1001C0000044525952554E004552524F5253004925
:1001D0004E464F004543484F0047322F4733206279
:1001E000616420706172616D65746572730A005399
:1001F0006C6565702E2E2E00206F6620004D424CDF
:100200002047323920706F696E74200059206F7555
:1002100074206F662072616E67652028312D332946
:100220002E0A0058206F7574206F662072616E6709
:10023000652028312D33292E0A004D657368207002
:10024000726F62696E6720646F6E652E0A00537468
:10025000617274206D6573682070726F62696E6779
:100260002077697468202247323920533122206672
:10027000697273742E0A004732380A4732392053A4
:1002800032004732392053320053746174653A208A
:10029000004D65736820626564206C6576656C69E5
:1002A0006E6720686173206E6F20646174612E0A2E
:1002B0000053206F7574206F662072616E67652031
:1002C00028302D35292E0A004D65736820706F691E
:1002D0006E742063616E6E6F742062652072657348
:1002E0006F6C7665640A00526573756D696E672080
:1002F0007072696E7400416E79637562696320691A
:10030000332B2072656164792E00436C69636B2026
:10031000746F20726573756D652E2E2E004E6F20E2
:100320006D6F76652E00456E642066696C65206C85
:100330006973740A00426567696E2066696C65209E
:100340006C6973740A005344207072696E74696E2C
:1003500067206279746520004E6F742053442070CA
:1003600072696E74696E670A0046696C652064651F
:100370006C657465643A0044656C6574696F6E20E1
:100380006661696C65642C2046696C653A20006F73
:1003900070656E206661696C65642C2046696C65C9
:1003A0003A20002569730025696D202569730025B1
:1003B00069682025696D20256973002569642025F9
:1003C00069682025696D20256973002569792025D4
:1003D0006964202569682025696D202569730050AE
:1003E00072696E742074696D653A200000013637B9
:1003F0002603FF3C3D380EFF2E303E12FFFF0C0857
:1004000009FFFF071A1C18FFFF08440AFF432422B4
:100410001EFFFFFFFFFFFF50726F7465637465641A
:100420002050696E0A006F6E2E0A006F66662E0AF3
:1004300000473236204465627567200045256920F3
:10044000257300416E7963756269632069332B20DF
:1004500072656164792E00D401CF01C801C101B376
:10046000016F66660044454255473A004B494C4C83
:1004700045442E20006F6B0048656174696E6720EB
:10048000646F6E652E0020573A004525692025735C
:1004900000416E7963756269632069332B20726550
:1004A0006164792E0042656420646F6E652E0020C1
:1004B000573A004265642048656174696E672E0092
:1004C000416E7963756269632069332B204F6666DC
:1004D0002E00454D455247454E43595F50415253BA
:1004E000455200434153455F4C494748545F42528F
:1004F000494748544E45535300544F47474C455F76
:100500004C494748545300534F4654574152455F56
:10051000504F574552004255494C445F5045524355
:10052000454E54004C4556454C494E475F44415456
:1005300041005A5F50524F4245004155544F4C457F
:1005400056454C005052494E545F4A4F420050525B
:100550004F4752455353004155544F5245504F5207
:10056000545F54454D5000564F4C554D45545249DB
:100570004300454550524F4D0053455249414C5F51
:10058000584F4E5F584F4646004649524D574152CC
:10059000455F4E414D453A4D61726C696E20312E7A
:1005A000312E3820284769746875622920534F55C9
:1005B0005243455F434F44455F55524C3A6874740B
:1005C00070733A2F2F6769746875622E636F6D2F91
:1005D0004D61726C696E4669726D776172652F4DFF
:1005E00061726C696E2050524F544F434F4C5F56AE
:1005F000455253494F4E3A312E30204D41434849E0
:100600004E455F545950453A416E7963756269634E
:100610002069332B2045585452554445525F434F6F
:10062000554E543A3120555549443A636564653214
:100630006132662D343161322D343734382D3962D0
:1006400031322D6335356336326633363766660AA6
:10065000002F2F20007A5F6D696E3A2000795F6D60
:10066000696E3A2000785F6D696E3A2000526570BD
:100670006F7274696E6720656E6473746F70207337
:1006800074617475730A004D31343520533C696EC2
:100690006465783E206F7574206F662072616E67A6
:1006A000652028302D31290A0053657474696E67FE
:1006B0002054726176656C20416363656C6572617C
:1006C00074696F6E3A200053657474696E672052C6
:1006D00065747261637420416363656C65726174F3
:1006E000696F6E3A200053657474696E67205072AA
:1006F000696E7420416363656C65726174696F6EC5
:100700003A200053657474696E67205072696E7484
:1007100020616E642054726176656C20416363656C
:100720006C65726174696F6E3A20004F66660A00EC
:1007300046616465204865696768742000426564A5
:10074000204C6576656C696E6720004661696C6552
:100750006420746F20656E61626C65204265642060
:100760004C6576656C696E670A004D65736820425A
:100770006564204C6576656C20646174613A0A009A
:100780004D65736820706F696E742063616E6E6F63
:1007900074206265207265736F6C7665640A004D23
:1007A00034323120696E636F7272656374207061D8
:1007B00072616D657465722075736167650A004FBB
:1007C000666673657473206170706C69656400455A
:1007D00072723A20546F6F206661722100546F6FFD
:1007E000206661722066726F6D2072656665726543
:1007F0006E636520706F696E740A00454550524FF4
:100800004D2064697361626C65640A004E6F2063F9
:10081000617365206C696768740A00416374697666
:10082000652045787472756465723A2000556E6B68
:100830006E6F776E20636F6D6D616E643A2022007B
:100840004D6573682056616C69646174696F6E20D0
:1008500053746F707065642E00696E206D6F7665DD
:100860005F746F282920666565645F76616C7565C5
:1008700020666F722058593A004C656176696E6740
:1008800020473236004732362048656174696E670A
:10089000204E6F7A7A6C652E0047323620486561AB
:1008A00074696E67204265642E00446F6E65205047
:1008B00072696D696E6700446F6E65205072696D74
:1008C000696E67004669786564204C656E67746878
:1008D000205072696D652E00557365722D436F6EE1
:1008E00074726F6C6C6564205072696D65002C20A9
:1008F00065793D0029202D3E202865783D002C207B
:1009000073793D0020436F6E6E656374696E672076
:100910007769746820766572746963616C206C69AC
:100920006E65202873783D002C2065793D002920D4
:100930002D3E202865783D002C2073793D00204312
:100940006F6E6E656374696E67207769746820687E
:100950006F72697A6F6E74616C206C696E652028A5
:1009600073783D004C656176696E672047323600CA
:100970002C2079693D00202020446F696E67206338
:100980006972636C652061743A202878693D003F84
:1009900053706563696669656420582C5920636FDC
:1009A0006F7264696E617465206F7574206F662064
:1009B000626F756E64732E0A003F28522965706558
:1009C00061742076616C7565206E6F7420706C6147
:1009D000757369626C653B206D7573742062652068
:1009E0006174206C6561737420312E0A003F53706E
:1009F00065636966696564206E6F7A7A6C652074D8
:100A0000656D7065726174757265206E6F742070AB
:100A10006C61757369626C652E0A003F5370656383
:100A200069666965642066696C616D656E742073C2
:100A3000697A65206E6F7420706C61757369626C81
:100A4000652E0A003F5370656369666965642070AE
:100A500072696D65206C656E677468206E6F7420B6
:100A6000706C61757369626C652E0A003F53706526
:100A7000636966696564206E6F7A7A6C6520736954
:100A80007A65206E6F7420706C61757369626C6535
:100A90002E0A003F5370656369666965642052657C
:100AA0007472616374696F6E204D756C7469706CDB
:100AB000696572206E6F7420706C61757369626C09
:100AC000652E0A003F52657472616374696F6E200F
:100AD0004D756C7469706C696572206D75737420E6
:100AE0006265207370656369666965642E0A003FFC
:100AF000537065636966696564206C61796572200D
:100B0000686569676874206E6F7420706C617573B6
:100B100069626C652E0A003F53706563696669659A
:100B200064206265642074656D70657261747572AD
:100B300065206E6F7420706C61757369626C652ED0
:100B40000A0047323620636F6D6D616E64207374E6
:100B500061727465642E2057616974696E672066DE
:100B60006F72206865617465722873292E0A004BC4
:100B7000494C4C45442E2000202D20496E76616C56
:100B80006964206578747275646572206E756D6233
:100B9000657220210A002D2D2D2D2D2D007C4D61FB
:100BA000726C696E7C002D2D2D2D2D2D00687474B6
:100BB000703A2F2F6D61726C696E66772E6F726757
:100BC00000687474703A2F2F6D61726C696E66776D
:100BD0002E6F72670020312E312E38002020506C8D
:100BE000616E6E6572427566666572427974657390
:100BF0003A20002046726565204D656D6F72793A26
:100C00002000436F6D70696C65643A204A616E2004
:100C1000313820323031390A00207C204175746827
:100C20006F723A20546F626961732052656974680B
:100C30006D656965720A00323031372D31322D32DF
:100C4000352031323A303000204C617374205570B9
:100C500064617465643A2000312E312E380A004DEB
:100C600061726C696E0020536F66747761726520E3
:100C700052657365740A00205761746368646F6716
:100C80002052657365740A002042726F776E206F80
:100C900075742052657365740A0020457874657216
:100CA0006E616C2052657365740A00506F776572CF
:100CB00055700A0073746172740A006572726F7203
:100CC0002077726974696E6720746F2066696C653D
:100CD0000A00456E6473746F70732025632025636A
:100CE00020256320256300205A3A0020593A00202D
:100CF000583A00656E6473746F7073206869743A53
:100D00002000446F6E6520736176696E67206669A6
:100D10006C652E0A004D3239007C3C3E5E2B3D3F17
:100D20002F5B5D3B2C2A225C0024F4D43050C38E10
:100D300020C2A24017828B7011127A910D816CD95A
:100D40000AA861E108C7586607615143061E4B5D5A
:100D500005C145A7041A411104093D9803713931B1
:100D6000034036DB0265339102D4305402802E1DDD
:100D700002632CEE01752AC501B028A0011027815D
:100D8000018F2564012B244B01E0223401AC211F8B
:100D9000018D200D01801FFC00841EED00971DDFDA
:100DA00000B81CD200E61BC600201BBC00641AB2AF
:100DB00000B219A8000A19A0006A189900D1179169
:100DC0000040178B00B516840031167E00B31579EC
:100DD000003A157300C7146F0058146A00EE1366CA
:100DE000008813630025135E00C7125B006C125766
:100DF0000015125400C111510070114F0021114B08
:100E000000D61049008D10470046104400021042E1
:100E100000C00F4000800F3E00420F3C00060F3B19
:100E200000CB0E3800930E37005C0E3500270E34D1
:100E300000F30D3200C10D3100900D3000600D2E19
:100E400000320D2D00050D2C00D90C2B00AE0C2905
:100E500000850C29005C0C2700350C27000E0C26A1
:100E600000E80B2400C40B2400A00B23007D0B23FF
:100E7000005A0B2100390B2100180B2000F80A1F23
:100E800000D90A1E00BB0A1E009D0A1D00800A1D13
:100E900000630A1C00470A1B002C0A1B00110A1AD7
:100EA00000F7091A00DD091900C4091900AB091976
:100EB00000920917007B091800630917004C0916F6
:100EC0000036091600200916000A091500F5081554
:100ED00000E0081400CC081400B8081400A408149A
:100EE00000900813007D0812006B081300580812C8
:100EF00000460812003408110023081100120811DE
:100F00000001081100F0071000E0071000D00710E2
:100F100000C0071000B0070F00A107100091070ED6
:100F20000083070F0074070F0065070E0057070EB8
:100F30000049070E003B070D002E070E0020070D8D
:100F40000013070D0006070D00F9060C00ED060D55
:100F500000E0060C00D4060C00C8060C00BC060C11
:100F600000B0060C00A4060B0099060C008D060BC1
:100F70000082060B0077060B006C060B0061060A68
:100F80000057060B004C060A0042060A0038060A03
:100F9000002E060A0024060A001A060A0010060996
:100FA0000007060A00FD050900F4050900EB050924
:100FB00000E2050900D9050900D0050900C70509A7
:100FC00000BE050900B5050800AD050800A5050926
:100FD000009C050800940508008C0508008405089D
:100FE000007C050800740508006C0507006505080D
:100FF000005D050700560508004E05070047050778
:10100000004005080038050700310507002A0507DC
:1010100000230507001C050600160507000F05073D
:10102000000805060002050700FB040600F504079A
:1010300000EE040600E8040600E2040700DB0406F4
:1010400000D5040600CF040600C9040600C3040648
:1010500000BD040600B7040600B1040500AC040698
:1010600000A6040600A00405009B040600950405E4
:1010700000900406008A040500850405008004062B
:10108000007A04050075040500700405006B040572
:101090000066040500610405005C040500570405B2
:1010A00000520405004D04050048040500430405F2
:1010B000003E0404003A0405003504050030040431
:1010C000002C04050027040400230405001E04046A
:1010D000001A04040016040500110404000D0404A1
:1010E00000090405000404040000040400FC0304D7
:1010F00000F8030400F4030400F0030400EC03040C
:1011000000E8030400E4030400E0030400DC03043B
:1011100000D8030400D4030400D0030400CC03046B
:1011200000C8030300C503030024F404D9201BC432
:101130000C5C0E9804C4095F0265077101F405F99F
:1011400000FB04B30048048700C10369005803553D
:101150000003034500BE023A008402310053022A14
:10116000002902250004022000E4011C00C8011926
:1011700000AF0117009801140084011300710110E1
:10118000006101100051010E0043010D0036010BFA
:10119000002B010B0020010B00150109000C0109B7
:1011A0000003010800FB000800F3000800EB000743
:1011B00000E4000600DE000600D8000600D20006AB
:1011C00000CC000500C7000500C2000500BD0004FA
:1011D00000B9000400B5000400B1000400AD000433
:1011E00000A9000400A5000300A20003009F000462
:1011F000009B000300980003009500020093000389
:1012000000900003008D0002008B000300880002A4
:10121000008600020084000300810002007F0002BB
:10122000007D0002007B00020079000200770001CF
:1012300000760002007400020072000100710002DA
:10124000006F0002006D0001006C0002006A0001E6
:1012500000690002006700010066000100650001EE
:1012600000640002006200010061000100600001F2
:10127000005F0002005D0001005C0001005B0001F6
:10128000005A0001005900010058000100570001F8
:1012900000560001005500010054000100530000F9
:1012A00000530001005200010051000100500001F4
:1012B000004F0001004E0000004E0001004D0001F3
:1012C000004C0001004B0000004B0001004A0001EF
:1012D00000490001004800000048000100470001EB
:1012E00000460000004600010045000000450001E6
:1012F00000440001004300000043000100420000E0
:1013000000420001004100000041000100400001D6
:10131000003F0000003F0001003E0000003E0001D1
:10132000003D0000003D0001003C0000003C0000CA
:10133000003C0001003B0000003B0001003A0000BF
:10134000003A0001003900000039000100380000B7
:1013500000380000003800010037000000370001AD
:1013600000360000003600000036000100350000A5
:10137000003500000035000100340000003400009A
:10138000003400010033000000330000003300018E
:101390000032000000320000003200010031000085
:1013A000003100000031000100300000003000007A
:1013B00000300001002F0000002F0000002F00006F
:1013C000002F0001002E0000002E0000002E000162
:1013D000002D0000002D0000002D0000002D000158
:1013E000002C0000002C0000002C0000002C00014C
:1013F000002B0000002B0000002B0000002B000140
:10140000002A0000002A0000002A0000002A000133
:101410000029000000290000002900000029000028
:10142000002900010028000000280000002800001A
:10143000002800000028000100270000002700000D
:101440000027000000270000002700010026000000
:1014500000260000002600000026000000260001F3
:1014600000250000002500000025000000250000E8
:1014700000250000002500010024000000240000D9
:1014800000240000002400000024000100230000CC
:1014900000230000002300000023000000230000C0
:1014A00000230000002300010022000000220000B1
:1014B00000220000002200000022000000220001A3
:1014C0000021000000210000002100000021000098
:1014D0000021000000210000002100010020000088
:1014E000002000000020000000200000002000007C
:1014F000002000000020000000200001001F00006C
:10150000001F0000001F0000001F0000001F00005F
:10151000001F0000001F0001001E0000001E000050
:10152000001E0000001E0000004D383420582059D5
:10153000205A2045000000000001020404000000C1
:101540001C1C0C040404020100000000000408102C
:101550000000000000001C1F11111F0000000619F0
:101560001803130C00040E1F041C000000000E13CF
:1015700015110E00001C10181705060500040A0AB4
:101580000A0A11110E0C12120C00000000001F15A7
:1015900011151F000025753A2530327500253032AF
:1015A000753A25303275002D2D2D005344005A0018
:1015B000590058005072696E7420706175736564CB
:1015C00000005072696E742061626F72746564000D
:1015D0004E6F2053442063617264005072696E74D0
:1015E0002066726F6D2053440053746F70207072C8
:1015F000696E7400526573756D65207072696E74E2
:101600000041626F7574205072696E74657200508B
:1016100061757365207072696E7400436F6E7472C9
:101620006F6C00507265706172650054756E650074
:10163000496E666F2073637265656E004261627900
:1016400073746570205A004C696E65204E756D622A
:101650006572206973206E6F74204C617374204C26
:10166000696E65204E756D6265722B312C204C6160
:101670007374204C696E653A20004B494C4C4544CC
:101680002E200053544F505045442E200050726974
:101690006E7465722073746F707065642064756514
:1016A00020746F206572726F72732E2046697820E5
:1016B000746865206572726F7220616E6420757344
:1016C00065204D39393920746F20726573746172E9
:1016D000742E202854656D70657261747572652072
:1016E00069732072657365742E2053657420697464
:1016F0002061667465722072657374617274696EBC
:1017000067290A004E6F20436865636B73756D200F
:1017100077697468206C696E65206E756D6265729C
:101720002C204C617374204C696E653A200063680C
:1017300065636B73756D206D69736D617463682C7F
:10174000204C617374204C696E653A20004D313134
:1017500030004D333100534420726561642065725E
:10176000726F720A00446F6E65207072696E7469E0
:101770006E672066696C650A0020496E76616C6947
:101780006420657874727564657220000000000042
:10179000000000000000000000005C4300005C430B
:1017A00000007A43206E6F7420656E746572656404
:1017B0002E0A000A4D6561737572656420706F6949
:1017C0006E74733A0A005A206F66667365743A2025
:1017D000004E756D20582C593A20332C330A00489E
:1017E000617264636F6465642044656661756C74DE
:1017F0002053657474696E6773204C6F616465640F
:101800000A00B80B0000B80B0000320000001027DF
:10181000000000009643000096430000C040000016
:10182000C8410000A0420000A0420000C84333337A
:10183000B94220440020490020204D33303120504F
:10184000005049442073657474696E67733A0A00E6
:1018500020460020420020480020204D3134352011
:1018600053004D6174657269616C206865617475BF
:101870007020706172616D65746572733A0A002040
:101880005A00205900202047323920533320580075
:10189000205A0020204D3432302053004D657368AB
:1018A00020426564204C6576656C696E673A0A0073
:1018B000205A0020590020204D3230362058004850
:1018C0006F6D65206F66667365743A0A0020450087
:1018D000205A0020590020580020420020540020A7
:1018E000204D323035205300416476616E6365646B
:1018F0003A20533C6D696E5F66656564726174651C
:101900003E20543C6D696E5F74726176656C5F66F3
:10191000656564726174653E20423C6D696E5F73FB
:1019200065676D656E745F74696D655F75733E2084
:10193000583C6D61785F78795F6A65726B3E205ABA
:101940003C6D61785F7A5F6A65726B3E20453C6DE5
:1019500061785F655F6A65726B3E0A002054002003
:10196000520020204D323034205000416363656CBA
:1019700065726174696F6E2028756E6974732F7358
:1019800032293A20503C7072696E745F61636365FE
:101990006C3E20523C726574726163745F61636374
:1019A000656C3E20543C74726176656C5F61636364
:1019B000656C3E0A00204500205A00205900202076
:1019C0004D3230312058004D6178696D756D204180
:1019D0006363656C65726174696F6E2028756E69EA
:1019E00074732F7332293A0A00204500205A0020D0
:1019F000590020204D3230332058004D6178696DF8
:101A0000756D206665656472617465732028756EF6
:101A10006974732F73293A0A00204500205A002068
:101A2000590020204D3932205800537465707320BE
:101A300070657220756E69743A0A0020204D32304C
:101A4000302044300A0020204D3230302044002025
:101A500044697361626C65640A0046696C616D6516
:101A60006E742073657474696E67733A0020204D3C
:101A70003134392043203B20556E69747320696EE0
:101A80002043656C736975730A002020473231204A
:101A90002020203B20556E69747320696E206D6D87
:101AA0000A00205A3A0020593A0020436F756E749C
:101AB00020583A0020453A00205A3A0020593A006E
:101AC000583A003A004361703A00205A0020590009
:101AD000580020204D61783A2000205A00205900FB
:101AE000580020204D696E3A20004F6E20004F664E
:101AF0006600536F667420656E6473746F70733A1A
:101B0000200020643A0020693A0020703A004329FE
:101B10000A0061626C656420286D696E2074656DD1
:101B2000702000436F6C642065787472756465730F
:101B300020617265200023646566696E652020441B
:101B4000454641554C545F4B6420002364656669EB
:101B50006E65202044454641554C545F4B6920003A
:101B600023646566696E65202044454641554C54A2
:101B70005F4B702000504944204175746F74756E3E
:101B8000652066696E6973686564212050757420EC
:101B9000746865206C617374204B702C204B692035
:101BA000616E64204B6420636F6E7374616E747336
:101BB0002066726F6D2062656C6F7720696E746F3E
:101BC00020436F6E66696775726174696F6E2E6807
:101BD0000A00504944204175746F74756E65206623
:101BE00061696C6564212074696D656F75740A00A4
:101BF000544845524D414C2052554E415741590091
:101C0000546865726D616C2052756E617761790000
:101C100048656174696E67206661696C6564004837
:101C2000656174696E67206661696C65640050491E
:101C300044204175746F74756E65206661696C65CA
:101C400064212054656D70657261747572652074CD
:101C50006F6F20686967680A00204B643A20002093
:101C60004B693A2000204B703A20000A20436C61F7
:101C70007373696320504944200A002054753A2048
:101C800000204B753A2000206D61783A2000206DCD
:101C9000696E3A200020643A200020626961733A3C
:101CA000200053442063617264206F6B0A006F70E0
:101CB000656E526F6F74206661696C65640A0076A8
:101CC0006F6C756D652E696E6974206661696C65EF
:101CD000640A00534420696E6974206661696C0A65
:101CE000006175746F25692E67004D3234004D32E6
:101CF000332025730057726974696E6720746F20F2
:101D000066696C653A20006F70656E206661696C6B
:101D100065642C2046696C653A20006F70656E2002
:101D20006661696C65642C2046696C653A200046E2
:101D3000696C652073656C65637465640A00205383
:101D4000697A653A200046696C65206F70656E653A
:101D5000643A20006F70656E206661696C65642C62
:101D60002046696C653A20002066696C653A20005F
:101D7000646F696E67006672657368004E6F7720E6
:101D800000454E4420535542524F5554494E450A42
:101D9000002220706F73002220706172656E743AA9
:101DA0002200535542524F5554494E452043414C11
:101DB0004C207461726765743A22004B494C4C4563
:101DC000442E2000747279696E6720746F206361FD
:101DD0006C6C207375622D67636F64652066696C37
:101DE0006573207769746820746F6F206D616E79F8
:101DF000206C6576656C732E204D4158206C65769D
:101E0000656C2069733A004572726F723A006265C0
:101E1000640A002C2073797374656D2073746F707D
:101E200070656421204865617465725F49443A2099
:101E30000048656174696E67206661696C6564005D
:101E400048656174696E67206661696C6564004805
:101E5000656174696E67206661696C6564004865D8
:101E60006174696E67206661696C65640070012C3D
:101E70000190012701B0012201C0011D01F00118EC
:101E8000011002130130020E0160020901900204E8
:101E900001C002FF000003FA004003F5008003F0D8
:101EA00000D003EB002004E6007004E100E004DC55
:101EB000004005D700C005D2004006CD00D006C8BE
:101EC000008007C3003008BE00F008B900C009B4A4
:101ED00000B00AAF00B00BAA00D00CA500000EA005
:101EE00000500F9B00C01096005012910000148CFF
:101EF00000C0158700B0178200B0197D00D01B7894
:101F000000001E730040206E0090226900F02464DF
:101F10000040275F0090295A00E02B5500102E50FA
:101F20000020304B0010324600E033410090353C39
:101F3000001037370070383200A0392D00B03A2831
:101F400000A03B2300603C1E00103D1900903D1492
:101F500000103E0F00703E0A00C03E0500003F002A
:101F600000403FFBFF803FF6FFC03FF1FF54484574
:101F7000524D414C2052554E4157415900546865CD
:101F8000726D616C2052756E617761790045727275
:101F90003A204D494E54454D50204245440045722B
:101FA000723A204D494E54454D50004D494E5445CE
:101FB0004D5020747269676765726564004572727E
:101FC0003A204D415854454D5020424544004572F9
:101FD000723A204D415854454D50004D415854459A
:101FE0004D502074726967676572656400202F0028
:101FF0002042403A0020403A0056652D6A65726BD7
:102000000056652D6A65726B0056652D6A65726BA8
:1020100000567A2D6A65726B00567A2D6A65726B6E
:102020000056792D6A65726B0056792D6A65726B60
:102030000056792D6A65726B0056782D6A65726B51
:102040000056782D6A65726B0056782D6A65726B42
:10205000004D6F74696F6E004573746570732F6DFA
:102060006D004573746570732F6D6D005A737465E0
:1020700070732F6D6D005A73746570732F6D6D00E2
:102080005973746570732F6D6D0059737465707337
:102090002F6D6D005873746570732F6D6D005873DC
:1020A000746570732F6D6D004D6F74696F6E0053A2
:1020B000746570732F6D6D004A65726B00416363C8
:1020C000656C65726174696F6E0056656C6F6369EB
:1020D000747900436F6E74726F6C0046696C2E20C9
:1020E0004469612E0046696C2E204469612E004FC0
:1020F0006666004F6E20004520696E206D6D3300CE
:10210000436F6E74726F6C0043616E6E6F74206506
:102110006E746572207375626469723A2000052ED0
:102120002E004D61696E00426162797374657020A2
:102130005A00466C6F7700466C6F770046616E20E0
:1021400073706565640046616E2073706565640038
:1021500042656400426564004E6F7A7A6C65004E99
:102160006F7A7A6C6500426564205A00426564208B
:102170005A005370656564005370656564004D6175
:10218000696E005072656865617420504C4120454D
:102190006E64005072656865617420504C41204245
:1021A0006564005072656865617420504C41005050
:1021B0007265706172650050726568656174204176
:1021C000425320456E640050726568656174204119
:1021D0004253204265640050726568656174204115
:1021E00042530050726570617265004261636B001A
:1021F0004E65787420636F726E6572004C6576650B
:102200006C696E6720446F6E6521004D6F766520A6
:102210005A00473239205332004E65787420506F8F
:10222000696E74002569202F2025750047323920FA
:1022300053310047323920533200436C69636B20BD
:10224000746F20426567696E00486F6D696E672024
:1022500058595A004732380045787472756465726F
:10226000004D6F7665205A004D6F76652059004D00
:102270006F76652058005072657061726500526516
:1022800073746F7265206661696C73616665004680
:10229000696C616D656E74004D6F74696F6E00548A
:1022A000656D7065726174757265004D61696E006F
:1022B000507265686561742041425320636F6E6699
:1022C000005072656865617420504C4120636F6EE8
:1022D00066005049442D44005049442D4400504963
:1022E000442D49005049442D49005049442D500087
:1022F0005049442D500020022046616374002002A2
:102300002046616374002002204D61780020022085
:102310004D6178002002204D6178002002204D6937
:102320006E002002204D696E002002204D696E0073
:102330004F6666004F6E20004175746F74656D7056
:102340000046616E2073706565640046616E20739F
:10235000706565640042656400426564004E6F7A92
:102360007A6C65004E6F7A7A6C6500436F6E74729A
:102370006F6C0042656400426564004E6F7A7A6C4F
:1023800065004E6F7A7A6C650046616E20737065E9
:1023900065640046616E2073706565640054656D08
:1023A0007065726174757265000000210024002759
:1023B000002A002D00300033000101000004010755
:1023C000010A0100002200250028002B002E003108
:1023D00000340002010000050108010B010000208B
:1023E000002300260029002C002F003200000100ED
:1023F0000003010601090105050505070508080890
:1024000008020202020A0A08080404040401010185
:10241000010101010103030303030303030407078D
:10242000070C0C0C0C0C0C0C0C020202020606062B
:1024300006060606060B0B0B0B0B0B0B0B01021013
:1024400020200808102040102040800201020108CE
:10245000040201010204081020408080402010087E
:1024600004020180040201804020100804020108D7
:102470000402010102040810204080010204081037
:1024800020408000000A0B02090C0D0E080703040F
:10249000010000000000000000000000000000003B
:1024A000000000000000000000000000000000121A
:1024B00011100000000000000000000000000000FB
:1024C000000000000000000000486F6D65202573CB
:1024D00025732573206669727374002066697273B0
:1024E000740A005A0059005800486F6D65200000BA
:1024F00000484200004842000080400000000043C5
:102500006172642072656D6F766564004361726408
:1025100020696E7365727465640020746F6F206C3F
:102520006F6E6720657874727573696F6E20707254
:102530006576656E7465640A0020636F6C6420655F
:102540007874727573696F6E2070726576656E74DB
:1025500065640A004B494C4C45442E20004B494CC5
:102560004C20636175736564206279204B494C4C43
:1025700020627574746F6E2F70696E0A004B494C3F
:102580004C45442E20004B494C4C206361757365CB
:102590006420627920746F6F206D75636820696EA6
:1025A0006163746976652074696D65202D2063759B
:1025B0007272656E7420636F6D6D616E643A200097
:1025C000506C656173652072657365740050524983
:1025D0004E5445522048414C544544005072696E57
:1025E0007465722068616C7465642E206B696C6C14
:1025F00028292063616C6C6564210A00656E717521
:10260000657565696E67202200000000000000000B
:1026100000000000005761726E696E673A20486FD3
:102620006D696E672042756D702044697669736FBD
:1026300072203C20310A000202030000A04000008A
:10264000A0400000004000005C4300005C4300002C
:102650007A43FFFFFF4C6576656C20636F726E6591
:102660007273004C6576656C206265640042656437
:10267000205A00426564205A00466164652048651E
:1026800069676874004661646520486569676874B5
:10269000004F6666004F6E2000426564204C6576F0
:1026A000656C696E670050726570617265004D34CB
:1026B0003238005072656865617420504C410043A7
:1026C0006F6F6C646F776E0050726568656174201F
:1026D0004142530044697361626C65207374657094
:1026E00070657273004D38340053657420686F6DE7
:1026F00065206F66667365747300426564204C657F
:1027000076656C696E67004175746F20686F6D65E2
:1027100000473238004D6F76652061786973004D4F
:1027200061696E004D6F76652058004D6F766520AB
:1027300059004D6F7665205A00457874727564654E
:1027400072004D6F766520302E316D6D004D6F76C5
:102750006520316D6D004D6F76652031306D6D00F7
:102760004D6F766520617869730045787472756481
:102770006572004D6F7665205A004D6F7665205961
:10278000004D6F766520580043616E6E6F74206F48
:1027900070656E2073756264697220006563686F8E
:1027A0003A004D61782054656D703A203131300027
:1027B0004D696E2054656D703A2035005442656451
:1027C0003A4550434F53203130304B004D61782013
:1027D00054656D703A20323630004D696E20546574
:1027E0006D703A20350054303A204550434F532005
:1027F0003130304B005053553A2047656E65726951
:10280000630050726F746F636F6C3A20312E30002A
:10281000426175643A203235303030300052414DDB
:10282000505320312E33004D657368204C6576651A
:102830006C696E67004578747275646572733A20CE
:102840003100687474703A2F2F6D61726C696E6616
:10285000772E6F726700416E7963756269632069D4
:10286000332B00323031372D31322D323520313299
:102870003A303000312E312E38004D61726C696E65
:1028800000546865726D6973746F727300426F6192
:10289000726420496E666F005072696E74657220B2
:1028A000496E666F004D61696E0020746F6F206C19
:1028B0006F6E6720657874727573696F6E207072C1
:1028C0006576656E7465640A0020636F6C642065CC
:1028D0007874727573696F6E2070726576656E7448
:1028E00065640A005654726176206D696E00565414
:1028F000726176206D696E005654726176206D6942
:102900006E00566D696E00566D696E00566D696E8B
:1029100000566D6178204500566D6178204500565F
:102920006D6178204500566D6178205A00566D61C2
:1029300078205A00566D6178205A00566D617820D3
:102940005900566D6178205900566D617820590004
:10295000566D6178205800566D6178205800566D8C
:1029600061782058004D6F74696F6E00416D617819
:10297000204500416D6178204500416D6178205A05
:1029800000416D6178205A00416D61782059004105
:102990006D6178205900416D6178205800416D616A
:1029A00078205800412D74726176656C00412D7459
:1029B000726176656C00412D72657472616374009A
:1029C000412D7265747261637400416363656C00CC
:1029D000416363656C004D6F74696F6E005265737F
:1029E000656E643A20006F6B0000AFE68EE611243E
:1029F0001FBECFEFD1E2DEBFCDBF00E00CBF13E0C2
:102A0000A0E0B2E0E4EBFAEE01E00BBF02C00790F9
:102A10000D92A836B107D9F723E1A8E6B3E001C0CB
:102A20001D92A735B207E1F714E1C6EFD4E100E04B
:102A300006C021970109802FFE010E94B2F4C53F14
:102A4000D10780E00807A9F70E947EDE0C9449F5C3
:102A50000C9400002F923F924F925F926F927F9260
:102A60008F929F92AF92BF92CF92DF92EF92FF929E
:102A70000F931F93CF93DF93CDB7DEB7C657D1091E
:102A80000FB6F894DEBF0FBECDBF8091C2128D3459
:102A900011F40C94BD1E843511F40C94202C873451
:102AA00011F00C945A2C8091C0129091C1128A316D
:102AB000910509F440C67CF4843091053CF48230E1
:102AC000910594F597FF29C00C94712C049709F493
:102AD000ECC50C94712C8A32910511F40C942E1EC5
:102AE0004CF48C31910509F42AC64D9709F42CC693
:102AF0000C94712C8B35910511F40C94AE1D8C3512
:102B0000910511F40C94B31D8A35910511F00C94C4
:102B1000712C10926D030C94712C80911202811112
:102B20000C94742C0C94712C20911202222311F419
:102B30000C94712C11E0029709F010E00E948F5C58
:102B400082E50E946132882309F45CC10E94FB3156
:102B50006B017C0140907D0B50907E0B60907F0B51
:102B60007090800B2091810B3091820B4091830BF0
:102B70005091840B23962CAF3DAF4EAF5FAF2397A0
:102B80008091A10B9091A20BA091A30BB091A40BEB
:102B900027968CAF9DAFAEAFBFAF27972091A50B07
:102BA0003091A60B4091A70B5091A80B63962CAFC8
:102BB0003DAF4EAF5FAF639720E030E0A901C701A2
:102BC000B6010E9493ED882309F455C5A301920133
:102BD00027966CAD7DAD8EAD9FAD27970E9493ED8E
:102BE000811111C023962CAD3DAD4EAD5FAD239745
:102BF00063966CAD7DAD8EAD9FAD63970E9493EDF6
:102C0000882309F438C520E030E0A901C701B601E6
:102C10000E9493ED881F8827881F18130BC080E03F
:102C200090E0A0E8BFE36B968CAF9DAFAEAFBFAFB7
:102C30006B970AC020E030E040E85FEB6B962CAF6A
:102C40003DAF4EAF5FAF6B97A301920127966CAD7E
:102C50007DAD8EAD9FAD27970E94B5F12F966CAFDD
:102C60007DAF8EAF9FAF2F9723962CAD3DAD4EAD70
:102C70005FAD239763966CAD7DAD8EAD9FAD6397D1
:102C80000E94B5F167966CAF7DAF8EAF9FAF67972F
:102C90002F962CAD3DAD4EAD5FAD2F97CA01B9015A
:102CA0000E94F8ED4B015C0167962CAD3DAD4EAD39
:102CB0005FAD6797CA01B9010E94F8ED9B01AC01B5
:102CC000C501B4010E94B6F10E9421F42B966CAFAD
:102CD0007DAF8EAF9FAF2B9720E030E040E05FE309
:102CE0000E94F8ED4B015C01A7019601C701B601F6
:102CF0000E94F8ED6B017C01A5019401C501B401AE
:102D00000E94F8ED9B01AC01C701B6010E94B5F12C
:102D10000E9421F49B01AC016B966CAD7DAD8EAD34
:102D20009FAD6B970E94F8ED4B015C0127962CAD8F
:102D30003DAD4EAD5FAD2797C301B2010E94B6F124
:102D400020E030E040E05FE30E94F8ED6B017C01A1
:102D500067966CAD7DAD8EAD9FAD679790582B9605
:102D60002CAD3DAD4EAD5FAD2B970E9492F29B0115
:102D7000AC01C501B4010E94F8ED9B01AC01C70193
:102D8000B6010E94B6F1A30192010E94B5F16B0158
:102D90007C0163962CAD3DAD4EAD5FAD6397239640
:102DA0006CAD7DAD8EAD9FAD23970E94B6F120E056
:102DB00030E040E05FE30E94F8ED2B013C012B96F0
:102DC0002CAD3DAD4EAD5FAD2B972F966CAD7DAD6F
:102DD0008EAD9FAD2F970E9492F29B01AC01C50171
:102DE000B4010E94F8ED9B01AC01C301B2010E9445
:102DF000B6F123962CAD3DAD4EAD5FAD23970E944D
:102E0000B5F114C089E40E946132882329F00E9440
:102E1000FB316B017C0103C0C12CD12C76018AE40B
:102E20000E9461328823F9F00E94FB3163966CAFF7
:102E30007DAF8EAF9FAF639720E030E0A901C7015F
:102E4000B6010E9493ED81111EC020E030E0A9017F
:102E500063966CAD7DAD8EAD9FAD63970E9493ED93
:102E6000811111C008C420E030E0A901C701B601FA
:102E70000E9493ED882309F4FEC363961CAE1DAE39
:102E80001EAE1FAE6397D701C601B05823968CAF14
:102E90009DAFAEAFBFAF239763962CAD3DAD4EADAA
:102EA0005FAD6397505827962CAF3DAF4EAF5FAFE5
:102EB00027979C01AD01BC01CD010E94F8ED4B01AB
:102EC0005C0127962CAD3DAD4EAD5FAD2797CA0195
:102ED000B9010E94F8ED9B01AC01C501B4010E944B
:102EE000B6F10E9421F4AB966CAF7DAF8EAF9FAF71
:102EF000AB9780917D0B90917E0BA0917F0BB09151
:102F0000800B2B968CAF9DAFAEAFBFAF2B97A701B9
:102F10009601BC01CD010E94B6F16B966CAF7DAFFE
:102F20008EAF9FAF6B972091810B3091820B4091B8
:102F3000830B5091840B67962CAF3DAF4EAF5FAFC4
:102F4000679763962CAD3DAD4EAD5FAD63976796C9
:102F50006CAD7DAD8EAD9FAD67970E94B6F16F965B
:102F60006CAF7DAF8EAF9FAF6F978091A10B9091AB
:102F7000A20BA091A30BB091A40BA3968CAF9DAF15
:102F8000AEAFBFAFA3976B962CAD3DAD4EAD5FAD71
:102F90006B97BC01CD010E94B5F16B017C012091C2
:102FA000A50B3091A60B4091A70B5091A80BA796AB
:102FB0002CAF3DAF4EAF5FAFA7976F962CAD3DAD39
:102FC0004EAD5FAD6F97A7966CAD7DAD8EAD9FADED
:102FD000A7970E94B5F14B015C018091850B909100
:102FE000860BA091870BB091880BE3968CAF9DAFB9
:102FF000AEAFBFAFE3979C01AD016091A90B70919B
:10300000AA0B8091AB0B9091AC0B0E94B5F12F965F
:103010006CAF7DAF8EAF9FAF2F972091AD0B3091EE
:10302000AE0B4091AF0B5091B00BAF962CAF3DAFB4
:103030004EAF5FAFAF978091890B90918A0BA091B3
:103040008B0BB0918C0BE7968CAF9DAFAEAFBFAF43
:10305000E797A701960123966CAD7DAD8EAD9FAD30
:1030600023970E94F8ED2B013C01A50194012796BE
:103070006CAD7DAD8EAD9FAD27970E94F8ED9B01A5
:10308000AC01C301B2010E94B6F12B013C01A501C4
:10309000940123966CAD7DAD8EAD9FAD23970E94BC
:1030A000F8ED4B015C01A701960127966CAD7DAD53
:1030B0008EAD9FAD27970E94F8ED9B01AC01C50135
:1030C000B4010E94B5F1A30192010E9429F26B01A3
:1030D0007C0120E030E0A9010E9493ED87FF0AC047
:1030E0002BED3FE049EC50E4C701B6010E94B6F178
:1030F0006B017C01112351F02BED3FE049EC50E4D2
:10310000C701B6010E94B5F16B017C0120E030E0FF
:10311000A901C701B6010E9493ED811128C0A396B1
:103120002CAD3DAD4EAD5FADA3972B966CAD7DAD97
:103130008EAD9FAD2B970E9493ED811118C0A7967D
:103140002CAD3DAD4EAD5FADA79767966CAD7DAD37
:103150008EAD9FAD67970E9493ED811108C04BED36
:10316000C42E4FE0D42E49ECE42E40E4F42EAB966E
:103170002CAD3DAD4EAD5FADAB97C701B6010E9422
:10318000F8ED9B01AC010E94F8ED4B015C012F961C
:103190002CAD3DAD4EAD5FAD2F97CA01B9010E9478
:1031A000F8ED9B01AC01C501B4010E94B6F10E948B
:1031B00021F44B015C012FE632E143E85AE30E941F
:1031C00093ED87FD54C2C501B4010E942BF30E9408
:1031D000FFF21B01672B19F422242394312CB10137
:1031E00080E090E00E9497ED4B015C019B01AC01F7
:1031F000C701B6010E9492F22B966CAF7DAF8EAFE5
:103200009FAF2B97A50194012F966CAD7DAD8EAD30
:103210009FAD2F970E9492F2AB966CAF7DAF8EAFB1
:103220009FAFAB97E7962CAD3DAD4EAD5FADE79749
:10323000AF966CAD7DAD8EAD9FADAF970E94B5F1F1
:10324000A50194010E9492F2AF966CAF7DAF8EAF54
:103250009FAFAF972B962CAD3DAD4EAD5FAD2B978D
:10326000CA01B9010E94F8ED20E030E040E05FE3E0
:103270000E94F8ED9B01AC0160E070E080E89FE304
:103280000E94B5F1A3966CAF7DAF8EAF9FAFA397B1
:10329000E3962CAD3DAD4EAD5FADE39729873A8700
:1032A0004B875C87E7968CAD9DADAEADBFADE79724
:1032B0008D879E87AF87B88B60911D0270911E022B
:1032C000072E000C880B990B0E9499ED20916B0240
:1032D00030916C0240916D0250916E020E94F8EDA7
:1032E0002AE037ED43E25CE30E94F8ED6BAF7CAF80
:1032F0008DAF9EAF0E94543F9B01AC0128533F4FBE
:103300004F4F5F4FA7962CAF3DAF4EAF5FAFA79724
:103310004FAC21965FAC219722966FAC22972396F3
:103320007FAC239741E050E065965FAF4EAF659765
:1033300059E12C965FAF2C976596AEADBFAD659702
:10334000A215B30509F458C10E9493830E94543F0B
:10335000DC01CB01A7962CAD3DAD4EAD5FADA7977F
:10336000821B930BA40BB50BB7FD10C00E94543FFA
:103370009B01AC0128533F4F4F4F5F4FA7962CAF97
:103380003DAF4EAF5FAFA7970E94B8AC2C963FAD54
:103390002C9731502C963FAF2C97332309F44BC018
:1033A000A3962CAD3DAD4EAD5FADA39727966CAD0A
:1033B0007DAD8EAD9FAD27970E94F8ED6B017C012E
:1033C0002B962CAD3DAD4EAD5FAD2B97B201C30139
:1033D0000E94F8EDA70196010E94B6F17B018C01D5
:1033E000A3962CAD3DAD4EAD5FADA397B201C30129
:1033F0000E94F8ED4B015C012B962CAD3DAD4EAD1E
:103400005FAD2B9727966CAD7DAD8EAD9FAD2797A9
:103410000E94F8ED9B01AC01C501B4010E94B5F119
:103420002B013C01C701D80127968CAF9DAFAEAFF1
:10343000BFAF279761C065964EAD5FAD6597BA0186
:1034400080E090E00E9497ED2B962CAD3DAD4EAD07
:103450005FAD2B970E94F8ED4B015C010E948FF24B
:103460006B017C01C501B4010E9417F44B015C01A2
:10347000A701960123966CAD7DAD8EAD9FAD2397D0
:103480000E94F8ED2B013C01A501940163966CADFF
:103490007DAD8EAD9FAD63970E94F8ED9B01AC01B1
:1034A000C301B2010E94B6F12B013C01A5019401B8
:1034B00023966CAD7DAD8EAD9FAD23970E94F8ED48
:1034C0004B015C01A701960163966CAD7DAD8EAD9D
:1034D0009FAD63970E94F8ED9B01AC01C501B4015B
:1034E0000E94B5F127966CAF7DAF8EAF9FAF279747
:1034F00059E12C965FAF2C979201A3016B966CADAE
:103500007DAD8EAD9FAD6B970E94B6F169837A83D6
:103510008B839C8327962CAD3DAD4EAD5FAD279739
:103520006F966CAD7DAD8EAD9FAD6F970E94B6F17D
:103530006D837E838F839887AB962CAD3DAD4EAD6A
:103540005FADAB9769857A858B859C850E94B6F1C6
:1035500069877A878B879C87AF962CAD3DAD4EAD42
:103560005FADAF976D857E858F8598890E94B6F196
:103570006D877E878F87988B80918102882321F0C9
:10358000CE0101960E94C1AAE090420E89819A81E3
:10359000AB81BC8188A399A3AAA3BBA38D819E8183
:1035A000AF81B8858CA39DA3AEA3BFA389859A855F
:1035B000AB85BC8588A799A7AAA7BBA7CE01809693
:1035C0000E947F308E01055C1F4F9E01235F3F4F9D
:1035D000AE01485D5F4FBE016C5D7F4FCE018096AE
:1035E0000E94EF5265968EAD9FAD659701966596E8
:1035F0009FAF8EAF6597A0CEE090420E8091A10B59
:103600009091A20BA091A30BB091A40B88A399A3B6
:10361000AAA3BBA38091A50B9091A60BA091A70B89
:10362000B091A80B8CA39DA3AEA3BFA38091A90BBF
:103630009091AA0BA091AB0BB091AC0B88A799A766
:10364000AAA7BBA7CE0180960E947F308E01055CA1
:103650001F4F2DEA3BE0AE01485D5F4FBE016C5D40
:103660007F4FCE0180960E94EF520E94B4330E9499
:1036700087300C94712CE7E0FEE184918F010F5F9D
:103680001F4F882321F00E949230F801F6CFE9ED18
:10369000F1E084918F010F5F1F4F882311F40C9488
:1036A000712C0E949230F801F4CF80E50E946132C3
:1036B000882329F00E94C3636B017C0103C0C12CE5
:1036C000D12C760183E50E946132882361F00E944B
:1036D000FB3120E030E04AE754E40E94F8ED0E941C
:1036E000FFF26B017C010E947A4980912E028111C8
:1036F00005C060E08FEE91E00E94D5A70E94873060
:103700008091C70E9091C80EA091C90EB091CA0EBB
:10371000C80ED91EEA1EFB1E0E94543FDC01CB01DD
:103720008C199D09AE09BF09B7FD02C00C94712C1C
:103730000E94B8ACF1CF0E94BE330C94712C80E093
:103740000E9477610C94712C83E50E94613288237A
:1037500021F00E94DB31282F01C020E0022F10E071
:103760000630110570F0E1EBF2E084918F010F5FFC
:103770001F4F882311F40C94712C0E949230F80191
:10378000F4CF223009F44CC028F4222371F0213008
:1037900089F1C5C1243009F4B3C108F449C1253009
:1037A00009F0BDC10E94415DBAC18091F50E882328
:1037B00099F08091FA0E811103C06EEC72E002C0A4
:1037C0006AEC72E089E892E00E942F518AE00E9440
:1037D00092300E948EE3A3C1E1E9F2E084917F017F
:1037E000BFEFEB1AFB0A882309F499C10E949230BB
:1037F000F701F4CF0E9471DA1092010210920002D8
:103800008091430E811103C087E792E002C082E8F5
:1038100092E09093C30D8093C20D0E94385E7FC1E9
:10382000409100025091010257FF0EC0EEE4F2E019
:1038300084918F010F5F1F4F882311F40C94712C1A
:103840000E949230F801F4CF4115510529F480917E
:10385000810280936E032FC08FEF840F63E00E947C
:103860007EF480FF02C0291B922F292F990F330B62
:10387000F901EE0FFF1FE20FF31FE80FF11D87FDA7
:10388000FA95EE0FFF1FEE0FFF1FE658FD4E8091D9
:10389000850B9091860BA091870BB091880B80834C
:1038A0009183A283B38380916E0380938102493018
:1038B00051050CF072C0842F63E00E947EF480FFFB
:1038C00003C022E0291B922F4091850B5091860B5B
:1038D0006091870B7091880B4BAF5CAF6DAF7EAF83
:1038E00019821A821B821C8240E050E060EA70E478
:1038F00048A359A36AA37BA3E4E08E02900111249C
:10390000A901475A504F6A0154E0950290011124D1
:10391000C9018B59904F7C019E012F5F3F4FAE0133
:10392000405E5F4FB6010E94D89C19821A821B82AA
:103930001C829E012F5F3F4FAE01455C5F4F61E8E7
:103940007BE08DE79BE00E94D89CF701808191810C
:10395000A281B38180937D0B90937E0BA0937F0B0C
:10396000B093800BF60180819181A281B381809315
:10397000810B9093820BA093830BB093840B1092D6
:10398000430E1092810280910002909101020196F3
:103990009093010280930002C2C080E090E0A0EA10
:1039A000B0E48093850B9093860BA093870BB09324
:1039B000880B0E944C5D0E947A498FEF9FEF909395
:1039C000010280930002EAE3F2E084917F012FEF8D
:1039D000E21AF20A882321F00E949230F701F5CF13
:1039E00083E992E09A83898384E6E82EF12CF9A298
:1039F000E8A2BE016F5F7F4FCE0180960E94CEBAD3
:103A00008AEB92E09A838983F9A2E8A2BE016F5FF4
:103A10007F4FCE0180960E94CEBA81E08093F50E52
:103A20000E94776181E00E94265D1092430E77C06C
:103A300088E50E9461328823B1F00E94CB31FF24D7
:103A4000FA94F60E32E03F15A8F4E3E2F2E0849136
:103A50008F010F5F1F4F882311F40C94712C0E946B
:103A60009230F801F4CF88E50E9492300E9442E43F
:103A70000C94712C89E50E9461328823B1F00E9478
:103A8000CB31EE24EA94E60E42E04E15A8F4ECE0C9
:103A9000F2E084918F010F5F1F4F882311F40C9483
:103AA000712C0E949230F801F4CF89E50E94923087
:103AB0000E9442E40C94712C8AE50E9461328823B2
:103AC000C1F00E94FB312F2D30E0F901EE0FFF1FF6
:103AD000E20FF31FEE0DF11DE7FCFA95EE0FFF1F4D
:103AE000EE0FFF1FE658FD4E608371838283938340
:103AF00016C08AE50E9492300E9442E40C94712C18
:103B00008AE50E9461328823A1F30E94FB31609311
:103B1000F60E7093F70E8093F80E9093F90E015005
:103B2000110902301105B0F4609100027091010298
:103B30006A30710514F069E070E08DEF91E00E9449
:103B4000165169E070E088EF91E00E9416518AE01A
:103B50000E9492300E9400740C94712C81E080933A
:103B60006D030C94712C0E947A496CE8262E62E059
:103B7000362E7FECC72E7EE0D72EE12CF12C00E014
:103B800010E01FAED1018D911D010E94613288238A
:103B900009F451C00E94FB314B015C010330110557
:103BA00059F0F701EA54F54F208131814281538168
:103BB0000E94B5F14B015C01F701E358F44F2081FD
:103BC000318142815381C501B4010E94B5F12B01BD
:103BD0003C012DEB37E346E855EB0E94DCF387FD13
:103BE0000AC02DEB37E346E855E3C301B2010E945A
:103BF00093ED181604F50330110559F48092890BE2
:103C000090928A0BA0928B0BB0928C0BB1E0BFAF5D
:103C100012C0A3019201F6016081718182819381BA
:103C20000E94B6F1D6016D937D938D939C9313976B
:103C3000C8010E94995D0F5F1F4FB4E0CB0ED11CED
:103C4000E4E0EE0EF11C0430110509F09BCFFFAD4E
:103C5000FF2309F47FCF0E94F57B7CCF8091120275
:103C6000882311F40C94712C89E40E946132F82E9F
:103C7000882321F00E94CB31062F01C000E08AE4A6
:103C80000E946132E82E882331F00E94CB31162F3A
:103C9000F11004C00AC010E0FF20B1F0033010F4AE
:103CA0000C94E92FE8ECF2E003C01330D8F70CC015
:103CB00084918F010F5F1F4F882311F40C94712C96
:103CC0000E949230F801F4CF0E946D32FF2091F0F3
:103CD00024E00202F0011124EB59F04F8081918120
:103CE000A281B3818093A10B9093A20BA093A30B0D
:103CF000B093A40BEE2091F034E01302F0011124F4
:103D0000E75AF04F80819181A281B3818093A50B06
:103D10009093A60BA093A70BB093A80B80E50E94ED
:103D20006132882319F00E94EC3103C080E50E94C3
:103D3000323286E40E9461328823D9F00E94FB313E
:103D40006B017C0120E030E0A9010E94DCF3181631
:103D500084F420E030E040E752E4C701B6010E945D
:103D600092F260936B0270936C0280936D02909359
:103D70006E020E9441AF0C94712C8091C012909100
:103D8000C1128237910509F4ECC70CF0C4C081332D
:103D9000910509F42BC50CF066C08831910509F432
:103DA0007CC2ECF58231910509F405C7FCF497FF5C
:103DB00002C00C94712C823091050CF48CC1419797
:103DC00011F00C94712C60E08DE193E00E94D5A776
:103DD0005F988A989FB7F894809108018E7F8093AE
:103DE00008019FBF479812980C94712C853191055A
:103DF00009F438C23CF4449711F00C94712CE5E3BB
:103E0000F3E0EDC18631910509F430C2479711F016
:103E10000C94712CE091BE12F091BF1231C28C3122
:103E2000910509F48FC264F48A31910509F440C206
:103E30000CF04CC21092A10F0E94B69E0C94712CF3
:103E40008F31910509F4ECC32CF44E9709F484C228
:103E50000C94712C8032910509F496C38A9709F469
:103E600085C40C94712C8C35910509F4F2C634F597
:103E70008135910509F482C68CF48C34910509F4DE
:103E8000DAC48D34910509F4DAC48B34910511F04C
:103E90000C94712C0E94769E0C94712C83359105A4
:103EA00009F485C60CF480C68435910509F483C6EF
:103EB0008535910509F4B4C60C94712C8C369105A6
:103EC00009F498C5ACF48936910509F4B4C534F405
:103ED0008836910509F4B7C40C94712C8A36910583
:103EE00009F419C68B36910509F438C60C94712C67
:103EF0008E36910509F4FDC40CF4DCC58F369105AE
:103F000009F408C58037910511F00C94712C8CE6EA
:103F100094E00E9468AC8D3D910511F40C942D291C
:103F20000CF066C08B39910509F49FC534F58737CD
:103F3000910509F4B3C774F48537910509F467C78F
:103F40000CF06DC78337910511F00C94712CE9E8E2
:103F5000F5E00CC78937910511F40C94BA2714F4D5
:103F60000C94B4278C38910509F44AC58139910520
:103F700011F40C94BF270C94712C8C3C910511F416
:103F80000C94B1280CF5883C910511F40C9435285B
:103F900034F48E3B910509F4A5C50C94712C893C31
:103FA000910511F40C947B288B3C910511F00C9435
:103FB000712C44E4E42E42E1F42E0CE812E054E0CB
:103FC000D52ED00E0C94A2288E3C910511F40C94A1
:103FD0001A2914F40C941729833D910511F40C94BB
:103FE0001D298C3D910511F40C9420290C94712C01
:103FF0008A3941E0940709F400C5A4F58D32A1E0A7
:104000009A0711F40C943E29ACF48232E1E09E0749
:1040100011F40C9430298C32F1E09F0711F40C94C8
:104020003B29823E910511F00C94712C0E94CF71B6
:104030000C94712C8F3221E0920711F40C944429D6
:1040400014F40C944129833641E0940711F40C9444
:10405000F72B8039914011F00C94712C0E947A4911
:104060000C94712C853FA1E09A0711F40C94E42B79
:10407000ECF4853AE1E09E0711F40C94132A3CF429
:10408000843A914011F40C9447290C94712C8C3A89
:1040900031E0930711F40C94E82A843F914011F029
:1040A0000C94712CE7E0FEE10C94CF2B873F51E09C
:1040B000950711F40C94ED2B14F40C94EA2B803A30
:1040C000B3E09B0709F49FC2873E934011F40C9420
:1040D0000E2C0C94712CA090BE12B090BF1280E5F3
:1040E0000E946132882359F00E94C3636B017C01F6
:1040F00011E0672B682B692B31F410E004C010E04D
:10410000C12CD12C760183E50E9461328823F1F025
:104110000E94FB3120E030E04AE754E40E94F8EDD1
:104120000E94FFF26B017C01111112C0672B682BFA
:10413000692B71F4A114B10459F0D5018C91882335
:1041400039F061E0C5010E94F5A707C0112391F382
:1041500060E08AE093E00E94D5A781E08093A40EFE
:104160000E947A490E948730C114D104E104F1040D
:10417000E9F08091C70E9091C80EA091C90EB09140
:10418000CA0EC80ED91EEA1EFB1E0E94543FDC0157
:10419000CB018C199D09AE09BF09B7FF1CC08091E6
:1041A000A40E8823C1F00E94B8ACEFCF8091A40E7A
:1041B000882319F00E94B8ACF9CF8091910F9091AB
:1041C000920F60E0029719F486EF92E002C087EE4A
:1041D00092E00E94D5A71092A40E0C94712C8491A9
:1041E0008F010F5F1F4F882321F00E949230F8014A
:1041F000F6CF109227121092261240E050E0BA013A
:1042000082ED9FE00E9434418BE1E2EDFFE0DE01B0
:10421000159601900D928A95E1F78091D00F9091BB
:10422000D10F9C838B8386EB92E09A83898340E055
:1042300050E0BE016F5F7F4F80E193E00E94CABBF8
:10424000CE0101960E944EACE6E2F3E084918F012C
:104250000F5F1F4F882311F40C94712C0E94923031
:10426000F801F4CF0E94127A0C94712C1092A10FD5
:104270001092A20F0C94712C803209F410823196A6
:1042800080818111F9CF40E061E08091BE12909170
:10429000BF120E94C9760C94712C8091A20F8823C2
:1042A00019F081E08093A10F0E94769E0C94712CEE
:1042B0008091A20F882311F40C94712C83E50E9445
:1042C000613281110C94792C0C94712C8091A20F85
:1042D000882351F1E6E4F3E084918F010F5F1F4FD3
:1042E000882321F00E949230F801F6CF60911D12D0
:1042F00070911E1280911F12909120124AE00E942C
:1043000099308FE20E9492306091191270911A12C6
:1043100080911B1290911C124AE00E9499308AE011
:104320000E9492300C94712CE8E5F3E084918F01A7
:104330000F5F1F4F882311F40C94712C0E94923050
:10434000F801F4CF40E060E08091BE129091BF127E
:104350000E94C9760C94712C8091A20F882311F4CD
:104360000C94712C8CE691E10E94F1408CE691E175
:104370000E946D421092A00F10929F0FE090BE120B
:10438000F090BF128091A20F882311F40C94712C2D
:104390000E94BE761D8218861C821B8286EB92E0EC
:1043A0009A8389838EEC9FE09093EE0F8093ED0FBC
:1043B000F70180818F3209F068C06FE270E0C701B9
:1043C0000E9406F58C010F5F1F4F9E012F5F3F4F2C
:1043D00049010115110509F45EC06FE270E0C801E2
:1043E0000E9406F56C01009709F456C008171907DA
:1043F00008F052C05C01A01AB10AA501B801CE01B3
:1044000080960E942FF5E0E2F0E0EC0FFD1FEA0D30
:10441000FB1D10828E01005E1F4FD8018D918D0112
:10442000882319F00E949230F8CF8AE00E949230DF
:104430006091ED0F7091EE0F6115710511F06C5FD9
:104440007F4F21E0AE01405E5F4FCE0105960E9496
:104450006E48811112C0BE01605E7F4F8FE893E00D
:104460000E942F518EE20E9492308AE00E94923088
:10447000C4010E944EAC0C94712C9092EE0F80926D
:10448000ED0F86010F5F1F4FA4CF8FEE9FE090933B
:10449000EE0F8093ED0F87016091ED0F7091EE0F9D
:1044A0006115710511F06C5F7F4F18A21BA222E00D
:1044B000A801CE0180960E946E48811102C0F12CA5
:1044C0001EC0CE0180960E9438BB8823C1F36CA524
:1044D0007DA58EA59FA541E00E941A6A882379F3E5
:1044E000E8A9B0E2EB9FF0011124E954F44F3097B2
:1044F00031F385EE80831BA20E94DA69F82ECE018B
:1045000080960E94D363FF2009F1E9E6F3E08491ED
:104510007F012FEFE21AF20A882321F00E949230E5
:10452000F701F5CFD8018D918D01882319F00E94F4
:104530009230F8CF8AE00E94923010921D121092B1
:104540001E1210921F121092201218C0E7E7F3E01B
:1045500084917F01BFEFEB1AFB0A882321F00E94B0
:104560009230F701F5CFF80181918F01882319F07E
:104570000E949230F8CF8EE20E949230CE010196D6
:104580000E944EAC0C94712C8091A10F81110E945D
:104590007A498091A20F882311F40C94712C80E544
:1045A0000E946132882319F00E94EC3103C080E53B
:1045B0000E943232182F482F61E08091BE129091F4
:1045C000BF120E94C97683E50E946132882381F080
:1045D0000E94CB31AB01BC0140931D1250931E12BF
:1045E00060931F12709320128CE691E10E94344177
:1045F0008091A20F882319F081E08093A10F1111FF
:104600000C94712C51CE8091BE129091BF1221E07A
:104610002093A00F40E060E00E94C9760C94712CBA
:104620000E9402BB5CE3C52ED12CE12CF12CA7012A
:1046300096010E9458F1762E672ECA01B901A70192
:1046400096010E9458F16B017C01CA01B90128E171
:1046500030E040E050E00E9458F14B015C01C9019C
:104660006DE671E00E948BF48E010F5F1F4F6115A4
:10467000710599F06F927F92DF92CF929F928F9205
:104680009F938F937F936F938BEC93E09F938F9384
:104690001F930F930E942CED12C00097B1F06F9200
:1046A0007F92DF92CF929F928F929F938F938BEB0B
:1046B00093E09F938F931F930F930E942CED0FB65F
:1046C000F894DEBF0FBECDBF36C081149104A104A3
:1046D000B10479F06F927F92DF92CF929F928F9286
:1046E0008FEA93E09F938F931F930F930E942CED7B
:1046F000E6CFC114D104E104F10469F06F927F9216
:10470000DF92CF9287EA93E09F938F931F930F934B
:104710000E942CEDD4CF6F927F9283EA93E09F9317
:104720008F931F930F930E942CED0F900F900F907B
:104730000F900F900F9060E0C8010E94F5A7ECE980
:10474000F7E284917F01BFEFEB1AFB0A882321F087
:104750000E949230F701F5CFB8018FED93E00E94EF
:104760002F518AE00E9492300C94712C83E50E94B4
:104770006132882311F40C94712C0E94DB31E82EF5
:1047800080E50E946132882341F00E94CB318B0189
:1047900077FF02C00C94712C02C00DE010E0902F46
:1047A000ECEEF3E08BE28E0F2491921729F0319614
:1047B0008E13FACF0C94892CE7E0FEE184918F01EF
:1047C0000F5F1F4F882321F00E949230F801F6CF2F
:1047D000E7E1F4E084918F010F5F1F4F882311F40C
:1047E0000C94712C0E949230F801F4CFF090680381
:1047F00081E0F826F0926803E1E3F4E084918F0110
:104800000F5F1F4F882321F00E949230F801F6CFEE
:10481000F11003C0EBE2F4E002C0E6E2F4E08491C0
:104820008F010F5F1F4F882311F40C94712C0E948D
:104830009230F801F4CF0E94B69E0C94712C0E9425
:10484000F6B90C94712C88E690E00E94DA5D811133
:104850000C94712C8091A60583FF02C00C94712CDE
:1048600083E50E946132882309F440C00E94FB3135
:104870000E94FAF27093720E6093710E80E00E94B3
:10488000117F0E94FB3120E030E04AEA52E40E94AE
:1048900093ED18163CF00E94F6B960E083E494E0D2
:1048A0000E94D5A70E94FB312091AE0A3091AF0A39
:1048B0004091B00A5091B10A0E94DCF31816B4F48A
:1048C00081EE92E09F938F938091D10D90E00196BD
:1048D0009F938F938CE394E09F938F931F920E94FA
:1048E000B09D0FB6F894DEBF0FBECDBF0E9445E36A
:1048F000F8C78EE40E946132882309F4F2C70E944F
:10490000CB316093B30B7093B40B8093B50B909342
:10491000B60BE7C783E50E943232882359F083E55E
:104920000E946132882319F00E94DB3101C080E0CF
:104930008093A605ECE9F7E284918F010F5F1F4F8A
:10494000882321F00E949230F801F6CFE5E6F4E0EA
:1049500084918F010F5F1F4F882321F00E949230B6
:10496000F801F6CF8091A6058823A1F147E5C42E72
:1049700044E0D42EE12CF12C20E08091A60590E0BB
:104980000E2C02C0959587950A94E2F780FF17C018
:10499000BB24B394B20E222319F08CE20E94923011
:1049A000F60125913491F901849189010F5F1F4F20
:1049B000882321F00E9492309801F5CF2B2DFFEF34
:1049C000EF1AFF0A32E0C30ED11C45E0E416F104F1
:1049D000A1F60CC0E1E6F4E084918F010F5F1F4F58
:1049E000882321F00E949230F801F6CF8AE00E94DD
:1049F000923077C71092110274C70E942B6C71C756
:104A00008091A60583FF01C06CC783E50E946132D7
:104A1000882309F466C70E94FB310E94FAF26F36C0
:104A2000710514F06EE670E07093700E60936F0E77
:104A30000E94C67E56C789E690E00E94DA5D811129
:104A40000C94EF2FE5E7F4E084918F010F5F1F4F87
:104A5000882321F00E949230F801F6CF0E943A7E1E
:104A60008AE00E9492300C94EF2F83E50E9461321D
:104A7000882309F436C70E94DB31182F8D3308F0E4
:104A80001CE31093C40E0E94543F6B017C01212F44
:104A900030E0A8EEB3E00E94A6F1C60ED71EE81ED5
:104AA000F91EC092C00ED092C10EE092C20EF092DA
:104AB000C30E17C78DE690E00E94DA5D811111C721
:104AC0008091A60583FD0DC783E50E946132609643
:104AD0008FAF6097811132C782E50E9461328111E8
:104AE0002DC7FFC68091A60583FDFBC660E083EB62
:104AF00094E00E94D5A783E50E94613260968FAF53
:104B0000609781110C942B2E82E50E9461328111F5
:104B10000C942B2EE6C680E50E946132811108C0FC
:104B200083E50E946132811108C03FEF20E009C097
:104B30000E94DB318111D5C6F3CF0E94CB31362FD5
:104B4000272F832F922F8F3F910519F010F08FEFB1
:104B500090E09093740E8093730EC3C680E50E941C
:104B60006132811105C01092740E1092730EB9C695
:104B70000E94CB31672B09F0B4C6F5CF0E945C7F51
:104B80000E947A490E9456AC1092740E1092730ED5
:104B900068EE73E080E090E00E9405A760E080ECA2
:104BA00094E00E94D5A79DC610926C039AC681E03E
:104BB00080936C0396C683E50E946132882399F046
:104BC0000E94FB3120E030E04AE754E40E94F8ED17
:104BD0000E94FFF2609371027093720280937302DD
:104BE000909374027EC688E50E94323281110C9443
:104BF0008A2F89E50E94323281110C948A2F8AE52E
:104C00000E94323281110C948A2F85E40E94323244
:104C100081110C948A2F0E947A490E9456AC61C679
:104C200083E50E943232882309F45BC60E94FB317F
:104C300020E030E04AE754E40E94F8ED0E94FFF2E1
:104C40006093CB0E7093CC0E8093CD0E9093CE0ECE
:104C500048C61CE8C12E12E0D12E0DE8E02E0BE074
:104C6000F02E10E0D6018D916D010E943232882322
:104C700009F46DC0133009F063C00E94FB314B0191
:104C80005C0120E030E040EA51E40E9493ED87FFB0
:104C90004EC0A50194016091990B70919A0B80917F
:104CA0009B0B90919C0B0E9492F22B013C019B016B
:104CB000AC016091300E7091310E8091320E909166
:104CC000330E0E94F8ED6093300E7093310E809396
:104CD000320E9093330EA3019201609150127091A5
:104CE000511280915212909153120E94F8ED6093EC
:104CF00050127093511280935212909353126091FC
:104D0000B7057091B8058091B9059091BA050E94D8
:104D100097EDA30192010E94F8ED0E94FFF26093CB
:104D2000B7057093B8058093B9059093BA05809242
:104D3000990B90929A0BA0929B0BB0929C0B07C080
:104D40000E94FB31F70160837183828393831F5F2D
:104D5000F4E0EF0EF11C143009F084CF0E9484526D
:104D6000C0C50E947A490E940074BBC584918F011E
:104D70000F5F1F4F882321F00E949230F801F6CF79
:104D800060E089E795E00E94BC7360E082E795E00F
:104D90000E94BC7361E087E695E00E94BC7361E00D
:104DA00087E595E00E94BC7360E08EE495E00E9488
:104DB000BC7361E084E495E00E94BC7360E08AE328
:104DC00095E00E94BC7360E082E395E00E94BC73B2
:104DD00061E084E295E00E94BC7360E086E195E0CA
:104DE0000E94BC7360E087E095E00E94BC7360E0C5
:104DF00089EF94E00E94BC7360E083EE94E00E942F
:104E0000BC7360E082ED94E00E94BC736AC560E010
:104E10008091BE129091BF120E94F5A762C585E4F1
:104E20000E946132882319F00E94EC3103C085E4AE
:104E30000E943232882361F0ECE9F7E284918F011D
:104E40000F5F1F4F882321F00E949230F801F6CFA8
:104E500081E40E946132882319F00E94EC3103C082
:104E600081E40E943232882361F0E1E5F6E084912A
:104E70008F010F5F1F4F882321F00E949230F801AD
:104E8000F6CF0091BE121091BF12D8018D918D0105
:104E9000882309F4ABCD0E949230F7CFEDE6F6E01F
:104EA00084918F010F5F1F4F882321F00E94923061
:104EB000F801F6CFE5E6F6E084918F010F5F1F4F12
:104EC000882321F00E949230F801F6CF659B03C041
:104ED00002ED12E002C007ED12E0F80181918F01AE
:104EE000882319F00E949230F8CF8AE00E94923015
:104EF000EDE5F6E084918F010F5F1F4F882321F0CD
:104F00000E949230F801F6CF8091030181FF03C027
:104F100002ED12E002C007ED12E0D8018D918D0183
:104F2000882319F00E949230F8CF8AE00E949230D4
:104F3000E5E5F6E084918F010F5F1F4F882321F094
:104F40000E949230F801F6CF4B9B03C002ED12E0B5
:104F500002C007ED12E0F80181918F01882309F466
:104F600045CD0E949230F7CF81E08093720F8093FD
:104F7000710FB7C41092720F1092710FB2C483E513
:104F80000E946132882319F00E94CB3102C060E098
:104F900070E08B01112702301105CCF0E7E0FEE153
:104FA00084918F010F5F1F4F882321F00E94923060
:104FB000F801F6CFE7E8F6E084918F010F5F1F4F0D
:104FC000882309F48EC40E949230F801F5CF88E45A
:104FD0000E9461328823A1F00E94CB316A3A7105A8
:104FE00034F0663F71052CF065EF70E002C06AEAAC
:104FF00070E0F801EE0FFF1FE55AF14F71836083F7
:1050000086E40E9461328823A9F00E94CB31F80126
:10501000EE0FFF1FE15AF14F718360836F3F7105FF
:1050200019F014F06FEF70E077FF02C060E070E0FD
:105030007183608382E40E946132882309F451C441
:105040000E94CB316530710534F0603671052CF06B
:105050006FE570E002C065E070E0000F111FF8011D
:10506000E95AF14F718360833CC488EC90E00E9460
:10507000DA5D811136C484E40E9432328823C1F1A2
:105080000E94FB3111E020E030E0A9010E9493ED85
:10509000811101C010E01093380E112349F10E94D4
:1050A000FB31E091D10D24E0E29FF0011124EC5C92
:1050B000F14F608371838283938320E030E0A90104
:1050C0006091340E7091350E8091360E9091370EAE
:1050D0000E9493ED81110CC080E090E0A0EEBFE350
:1050E0008093340E9093350EA093360EB093370E06
:1050F0000E942FC5F6C364E5E62E62E1F62E0CE8A9
:1051000012E074E0D72ED00ED8018D918D010E944F
:105110003232882349F00E94FB310E94FFF2F701EE
:105120006083718382839383F4E0EF0EF11CD012CD
:10513000EBCF0E945751D5C3F4E0EF0EF11CD0160F
:1051400009F4CFC3D8018D918D010E94323288239A
:1051500099F30E94FB31F70160837183828393830B
:10516000EBCF83E50E9432328823D1F00E94FB31DD
:10517000AB01BC0140936C1250936D1260936E12A0
:1051800070936F124093641250936512609366128D
:105190007093671283E097E00E94F9508AE0C2D7CB
:1051A00080E50E943232882391F00E94FB31AB01EE
:1051B000BC0140936C1250936D1260936E12709309
:1051C0006F1286EE96E00E94F9508AE0ABD782E536
:1051D0000E943232882391F00E94FB31AB01BC0166
:1051E000409368125093691260936A1270936B1225
:1051F00087EC96E00E94F9508AE094D784E50E94FB
:105200003232882309F46DC30E94FB31AB01BC012B
:105210004093641250936512609366127093671204
:1052200089EA96E00E94F9508AE07CD75AC30E942E
:10523000527357C30E94DD7454C30E94747251C3E9
:1052400083E50E946132882309F44BC30E94CB316D
:1052500070931E0260931D0244C30E942A7241C3D0
:105260008AE50E94613281117BC683E50E9461322A
:10527000811176C636C30E949A7133C30E94FD70B5
:1052800030C30E94A7702DC30E946C6C2AC380910A
:105290007D0B90917E0BA0917F0BB091800B898349
:1052A0009A83AB83BC838091810B9091820BA091F8
:1052B000830BB091840B8D839E83AF83B8878091DD
:1052C000850B9091860BA091870BB091880B8987F5
:1052D0009A87AB87BC8786E50E943232882389F0A3
:1052E0008091F50E882369F0EAE6F7E084918F015A
:1052F0000F5F1F4F882319F015D7F801F7CF0E94D1
:105300008EE38AE50E943232882329F00E94FB3125
:1053100040E00E94EB6283E50E943232882331F044
:105320000E94EC31182F0E94265D01C010E0F09021
:10533000FA0E111103C0ECE9F7E218C0F110FBCF2F
:10534000E7E0FEE184918F010F5F1F4F882319F082
:10535000E9D6F801F7CFEBE4F7E084918F010F5F16
:105360001F4F882341F3DED6F801F7CF84918F01D8
:105370000F5F1F4F882319F0D5D6F801F7CFF11032
:1053800003C06EEC72E002C06AEC72E08DE397E05D
:105390000E942F518AE0C6D6ECE9F7E284918F0192
:1053A0000F5F1F4F882319F0BDD6F801F7CFE0E358
:1053B000F7E084918F010F5F1F4F882319F0B2D659
:1053C000F801F7CFC090FB0ED090FC0EE090FD0EE0
:1053D000F090FE0E20E030E0A901C701B6010E9466
:1053E000DCF318163CF442E0C701B60122D78AE08C
:1053F00099D60BC0EBE2F7E084918F010F5F1F4F4E
:10540000882319F08FD6F801F7CF4CE050E06DE714
:105410007BE0CE0101960E94D2F4892B09F461C28F
:105420000E9400745EC288E50E943232B82E89E480
:105430000E943232A82E882311F0ADD719C0BB20AC
:10544000C9F0D9D720E030E040E251E40E94B5F144
:1054500020E030E048E452E40E94B6F12AE037ED63
:1054600043E25CE30E94F8ED0E94FAF2633010F42C
:10547000F62E02C0FF24FA9489E5F4D7E82E8AE4D8
:10548000F1D7182F882311F086D719C0EE20C9F064
:10549000B2D720E030E040E251E40E94B5F120E0D4
:1054A00030E048E452E40E94B6F12AE037ED43E2EE
:1054B0005CE30E94F8ED0E94FAF2633010F4062FCC
:1054C00001C00FEF8AE5CED7C82E811104C081E557
:1054D000C9D7D82E01C0D12CA11001C010E0212FB6
:1054E00030E0B11002C090E001C09E2D290F311DA7
:1054F0002130310519F0E7E0FEE105C0C11018C008
:10550000D11016C0F8CF84918F010F5F1F4F8823F1
:1055100019F008D6F801F7CFEFE9F7E084918F0191
:105520000F5F1F4F882309F4DCC1FCD5F801F6CFCB
:10553000F7FE03C0E7E0FEE105C007FF15C0FACFA4
:10554000F1D5F80184918F010F5F1F4F8111F8CFC2
:10555000E0E8F7E084918F010F5F1F4F882309F483
:10556000C0C1E0D5F801F6CF46D7A02F000FBB0B86
:105570000F2DFF0C110BDD2091F0F801EE0FFF1F36
:10558000E00FF11FEA0FFB1FEE0FFF1FEE0FFF1FD3
:10559000E658FD4E208131814281538103C020E0D5
:1055A00030E0A901F801EE0FFF1F0E0F1F1F0A0FB9
:1055B0001B1F000F111F000F111F06581D4E0E94C8
:1055C000B6F1D8016D937D938D939C93139789C108
:1055D0000E94CD9D811185C199E0A92E96E2B92E38
:1055E000EDE7FBE02196FFAFEEAF21979E012F5F25
:1055F0003F4F490102E516E2190133E0300F2496CE
:105600003FAF2497F501659175918591949121960D
:10561000AEADBFAD2197CD90DD90ED90FD90219680
:10562000BFAFAEAF2197A70196010E94B5F12B0144
:105630003C0120E030E040EA51EC0E94DCF387FDC1
:1056400010C020E030E040EA51E4C301B2010E9402
:1056500093ED181634F0F101408251826282738218
:105660000DC0F80184911816B4F7F7FAF094F7F822
:10567000F094F101C082D182E282F382D101CD9017
:10568000DD90ED90FD901D0120E030E040EA51EC0E
:10569000C701B6010E94DCF387FF03C0E7E0FEE12B
:1056A0000BC020E030E040EA51E4C701B6010E949F
:1056B00093ED181664F5F2CF84918F010F5F1F4FA1
:1056C000882319F02FD5F801F7CFEDEDF7E084919D
:1056D0008F010F5F1F4F882319F024D5F801F7CFF2
:1056E00061E08FEC97E00E94D5A70E943F5588E2C9
:1056F00090E099A388A388EC90E09CAF8BAFBE01AB
:10570000605E7F4FCE01CB960E94CEBAEAC0B4E075
:10571000AB0EB11C0F5F1F4F2496EFAD2497E01323
:1057200071CF8EEEE82E83E0F82E00E010E0F40159
:1057300081919191A191B1914F01F7018193919341
:10574000A193B1937F01C8010E94995D0F5F1F4F24
:105750000330110561F70E94007460E08FEB97E061
:105760000E94D5A783E992E09CAF8BAF04E610E0DE
:1057700019A308A3BE01655C7F4FCE0180960E94ED
:10578000CEBA8AEB92E09CAF8BAF19A308A3BE01FF
:10579000655C7F4FCE0180960E94CEBAA2C08491F4
:1057A0008F010F5F1F4F882319F0BCD4F801F7CF8A
:1057B000EBEFF7E084918F010F5F1F4F882309F40F
:1057C00090C0B0D4F801F6CF0E941A6880E00E9421
:1057D000F86387C00E941A6884C083E543D6882393
:1057E00019F0FAD591E089270E94F8637AC0E7E0C2
:1057F000FEE184918F010F5F1F4F882319F092D42F
:10580000F801F7CFECE0F8E084918F010F5F1F4FB4
:10581000882309F466C086D4F801F6CF81E080932E
:10582000120210928C0E83E54CD6882311F0D4D549
:1058300002C083E517D6811154C00E946CDB51C0B1
:10584000F090C012FF20F9F0ECE9F7E284918F01AB
:105850000F5F1F4F882319F065D4F801F7CF84E557
:1058600061D46F2D70E080E090E04AE062D480E285
:1058700059D40CEE12E0D8018D918D01882309F4E2
:10588000B5C850D4F8CF1092420EECE9F7E28491FB
:105890008F010F5F1F4F882319F044D4F801F7CF11
:1058A0006091420E70E08BE198E00E9416518AE010
:1058B00039D417C0ECE9F7E284918F010F5F1F4FD5
:1058C000882319F02FD4F801F7CF6091C50E70919D
:1058D000C60E8DE298E00E942F5182E223D48AE026
:1058E00021D40E944DDB7BC30E948F5C0E9441AF9C
:1058F000F8CF51D5AB01BC0140931D1250931E123D
:1059000060931F12709320128CE691E10E94344143
:10591000E8CF61E0802F0E94BAA06E2D802F0E94F8
:105920008BA0F12CB701802F0E94F6A00930110541
:10593000C1F6F092740EE092730ED3CF5CD50E9444
:10594000FAF27093720E6093710E80E00E94117FE4
:1059500052D520E030E04AEA52E40E9493ED181656
:1059600044F00E94F6B960E081E994E00E94D5A776
:1059700002C00E94769E6091710E7091720E072E89
:10598000000C880B990B0E9499ED2091AE0A309182
:10599000AF0A4091B00A5091B10A0E94DCF3181688
:1059A000B4F481EE92E09F938F938091D10D90E0BB
:1059B00001969F938F938AE894E09F938F931F9211
:1059C0000E94B09D0FB6F894DEBF0FBECDBF0E94FF
:1059D00045E381E08093110227961CAE1DAE1EAEFA
:1059E0001FAE27972B961CAE1DAE1EAE1FAE2B977B
:1059F0001FAE2C961FAE2C979CE364969FAF6497C6
:105A0000ACE16896AFAF6897B6E46C96BFAF6C97A1
:105A1000C12CD12C20E8E22E3FEBF32E812C912CCF
:105A200054016091710E7091720E072E000C880B5C
:105A3000990B0E9499ED162F072F782E692E262F8D
:105A4000372F482F592FB601C7010E9493ED8823A5
:105A500021F12091AE0A3091AF0A4091B00A5091E5
:105A6000B10A612F702F872D962D0E9493ED881F0C
:105A70008827881F8FAF6096EFAD6097EE2389F07F
:105A8000882379F080911102882309F42ACF60E0FD
:105A900088E794E00E94D5A724CF1C2D0D2D7E2CE5
:105AA0006F2C0E94543F6B017C01DC01CB012B96D3
:105AB0002CAD3DAD4EAD5FAD2B97821B930BA40B70
:105AC000B50BB7FD39C0D701C60188519C4FAF4F08
:105AD000BF4F2B968CAF9DAFAEAFBFAF2B970E9441
