:100000000C94F30F0C9424100C9424100C942410D2
:100010000C9424100C9424100C9424100C94241090
:100020000C9424100C9424100C9424100C94241080
:100030000C9424100C9424100C9424100C94241070
:100040000C9424100C94A3940C9424100C9424105D
:100050000C9424100C9424100C94FD3C0C949EA53C
:100060000C9424100C9445380C9424100C942410F7
:100070000C9424100C9424100C9424100C94241030
:100080000C9424100C9424100C9424100C94241020
:100090000C9424100C9424100C9424100C94241010
:1000A0000C9424100C9424100C9424100C94241000
:1000B0000C9424100C9424100C9424100C942410F0
:1000C0000C9424100C9424100C9424100C942410E0
:1000D0000C9424100C9424100C9424100C942410D0
:1000E0000C942410613D713D903DA03DBB3DC03D51
:1000F000C33DC83DCB3DD03DD33DD83DE23DEDA312
:10010000F0A3DFA3E3A3E9A327A4F4A3F8A3FEA32A
:1001100002A406A40CA410A414A427A41AA41EA428
:1001200022A4BAA4BFA4C4A4CEA4D8A451A5E2A476
:10013000EAA4F2A4FCA406A510A51FA529A551A513
:1001400033A53DA547A5084AD73B3BCE016E84BCED
:10015000BFFDC12F3D6C74319ABD56833DDA3D0021
:10016000C77F11BED9E4BB4C3E916BAAAABE00006A
:1001700000803F05A84CCDB2D44EB93836A9020C48
:1001800050B9918688083CA6AAAA2ABE0000008021
:100190003F004E414E494E495459494E46CDCCCC74
:1001A0003D0AD7233C17B7D13877CC2B329595E64B
:1001B000241FB14F0A000020410000C84200401C2B
:1001C0004620BCBE4CCA1B0E5AAEC59D74434F4D53
:1001D0004D554E49434154494F4E00445259525592
:1001E0004E004552524F525300494E464F00454330
:1001F000484F0020746F6F206C6F6E6720657874B5
:10020000727573696F6E2070726576656E74656461
:100210000A0020636F6C6420657874727573696F6F
:100220006E2070726576656E7465640A0047322FC1
:1002300047332062616420706172616D657465721C
:10024000730A00536C6565702E2E2E00414E594383
:10025000554249432049332B2072656164792E0051
:10026000526573756D696E67207072696E740057A0
:1002700061697420666F7220757365722E2E2E0070
:100280004E6F206D6F76652E00456E642066696C3A
:1002900065206C6973740A00426567696E2066693F
:1002A0006C65206C6973740A005344207072696E27
:1002B00074696E67206279746520004E6F742053F4
:1002C00044207072696E74696E670A0046696C65D5
:1002D0002064656C657465643A0044656C65746996
:1002E0006F6E206661696C65642C2046696C653AA6
:1002F00020006F70656E206661696C65642C204615
:10030000696C653A20002569730025696D202569AF
:1003100073002569682025696D20256973002569AA
:1003200064202569682025696D2025697300256989
:100330007920256964202569682025696D20256953
:1003400073005072696E742074696D653A200050B4
:10035000726F7465637465642050696E0A00486545
:100360006174696E672E2E2E00414E5943554249E5
:10037000432049332B2072656164792E00EE01E938
:1003800001E201DB01CD016F66660044454255473D
:100390003A004B494C4C45442E20006F6B00486599
:1003A0006174696E6720646F6E652E003F0A0020DD
:1003B000573A0048656174696E672E2E2E00414ED3
:1003C0005943554249432049332B20726561647972
:1003D0002E0042656420646F6E652E003F0A002087
:1003E000573A004265642048656174696E672E0063
:1003F000414E5943554249432049332B204F6666AD
:100400002E004649524D574152455F4E414D453AA7
:100410004D61726C696E20312E312E302D52433871
:1004200020284769746875622920534F5552434507
:100430005F434F44455F55524C3A68747470733A49
:100440002F2F6769746875622E636F6D2F4D61720F
:100450006C696E4669726D776172652F4D61726C61
:10046000696E2050524F544F434F4C5F5645525384
:10047000494F4E3A312E30204D414348494E455F59
:10048000545950453A414E59435542494320493306
:100490002B2045585452554445525F434F554E54B6
:1004A0003A3120555549443A636564653261326694
:1004B0002D343161322D343734382D396231322DBB
:1004C0006335356336326633363766660A007A5FDF
:1004D0006D696E3A2000795F6D696E3A2000785F31
:1004E0006D696E3A20005265706F7274696E672094
:1004F000656E6473746F70207374617475730A0031
:100500004D31343520533C696E6465783E206F75FB
:1005100074206F662072616E67652028302D312946
:100520000A0053657474696E672054726176656C55
:1005300020416363656C65726174696F6E3A200077
:1005400053657474696E67205265747261637420B8
:10055000416363656C65726174696F6E3A20005324
:10056000657474696E67205072696E7420416363AC
:10057000656C65726174696F6E3A200053657474BE
:10058000696E67205072696E7420616E64205472C7
:100590006176656C20416363656C65726174696F37
:1005A0006E3A2000205A00205900580020204D614A
:1005B000783A2000205A00205900580020204D6928
:1005C0006E3A20004F6E20004F666600536F6674CF
:1005D00020656E6473746F70733A200020643A0073
:1005E00020693A0020703A0043290A0061626C6574
:1005F0006420286D696E2074656D702000436F6CF7
:10060000642065787472756465732061726520007A
:1006100023646566696E65202044454641554C5407
:100620005F4B64200023646566696E652020444545
:100630004641554C545F4B69200023646566696EE2
:1006400065202044454641554C545F4B7020005076
:100650004944204175746F74756E652066696E69D2
:1006600073686564212050757420746865206C611E
:100670007374204B702C204B6920616E64204B6496
:1006800020636F6E7374616E74732066726F6D2079
:1006900062656C6F7720696E746F20436F6E666958
:1006A0006775726174696F6E2E680A005049442044
:1006B0004175746F74756E65206661696C6564213F
:1006C0002074696D656F75740A0050494420417546
:1006D000746F74756E65206661696C656421205461
:1006E000656D706572617475726520746F6F2068D6
:1006F0006967680A00204B643A2000204B693A2061
:1007000000204B703A20000A20436C6173736963C8
:1007100020504944200A002054753A2000204B758F
:100720003A2000206D61783A2000206D696E3A20F1
:100730000020643A200020626961733A200041631E
:10074000746976652045787472756465723A200024
:10075000556E6B6E6F776E20636F6D6D616E643A70
:100760002022004E6F204C696E65204E756D6265CB
:1007700072207769746820636865636B73756D2C8C
:10078000204C617374204C696E653A20004B494CD3
:100790004C45442E200053544F505045442E2000C9
:1007A0005072696E7465722073746F707065642026
:1007B00064756520746F206572726F72732E2046A7
:1007C000697820746865206572726F7220616E644A
:1007D00020757365204D39393920746F2072657327
:1007E000746172742E202854656D70657261747521
:1007F00072652069732072657365742E2053657469
:100800002069742061667465722072657374617208
:1008100074696E67290A004E6F20436865636B73C5
:10082000756D2077697468206C696E65206E756DD2
:100830006265722C204C617374204C696E653A209D
:1008400000636865636B73756D206D69736D6174AA
:1008500063682C204C617374204C696E653A2000EB
:100860004C696E65204E756D626572206973206EED
:100870006F74204C617374204C696E65204E756DE9
:100880006265722B312C204C617374204C696E654B
:100890003A20004D313130004D3331004D38342095
:1008A000582059205A204500534420726561642025
:1008B0006572726F720A00446F6E65207072696EA5
:1008C00074696E672066696C650A0020496E7661FE
:1008D0006C6964206578747275646572200000002C
:1008E0005C4300005C4300007A430000000000000D
:1008F0000000000000002042403A0020403A002062
:100900002F0020423A00202F0020543A00205A3A6B
:100910000020593A0020436F756E7420583A200029
:1009200020453A00205A3A0020593A00583A004FE0
:10093000666673657473206170706C6965640045E8
:1009400072723A20546F6F206661722100546F6F8B
:10095000206661722066726F6D20726566657265D1
:100960006E636520706F696E740A006265640A00C8
:100970002C2073797374656D2073746F7070656467
:1009800021204865617465725F49443A20005448EB
:1009900045524D414C2052554E41574159005468E3
:1009A00065726D616C2052756E6177617900486582
:1009B0006174696E67206661696C65640048656191
:1009C00074696E67206661696C6564004572723A8D
:1009D000204D415854454D502042454400457272C7
:1009E0003A204D415854454D50004D415854454DC5
:1009F0005020747269676765726564004572723A67
:100A0000204D494E54454D50204245440045727298
:100A10003A204D494E54454D50004D494E54454D98
:100A200050207472696767657265640025753A25A0
:100A300030327500253032753A25303275002D2D53
:100A40002D005344005A0059005800012000012095
:100A5000004B494C4C45442E2000202D20496E76F9
:100A6000616C6964206578747275646572206E7556
:100A70006D62657220210A00202020414E594355A5
:100A80004249432049332B0057656C636F6D650005
:100A900057656C636F6D650020312E312E302D52FD
:100AA0004338002020506C616E6E65724275666638
:100AB000657242797465733A20002046726565203C
:100AC0004D656D6F72793A2000436F6D70696C658A
:100AD000643A204A616E20313820323031390A00C0
:100AE000207C20417574686F723A2028414E59432A
:100AF000554249435F49335F584C2C206E6F6E65F9
:100B0000290A00323031362D31322D303620313243
:100B10003A303000204C6173742055706461746504
:100B2000643A2000312E312E302D5243380A004DC8
:100B300061726C696E0020536F6674776172652014
:100B400052657365740A00205761746368646F6747
:100B50002052657365740A002042726F776E206FB1
:100B600075742052657365740A0020457874657247
:100B70006E616C2052657365740A00506F77657200
:100B800055700A0073746172740A006572726F7234
:100B90002077726974696E6720746F2066696C656E
:100BA0000A00456E6473746F70732025632025639B
:100BB00020256320256300205A3A0020593A00205E
:100BC000583A00656E6473746F7073206869743A84
:100BD0002000446F6E6520736176696E67206669D8
:100BE0006C652E0A004D32390000002000230026DB
:100BF0000029002C002F0032000001000003010634
:100C00000109010505050507050808080802020293
:100C1000020A0A0808040404040101010101010197
:100C2000010303030303030303040707070C0C0C6E
:100C30000C0C0C0C0C020202020606060606060646
:100C4000060B0B0B0B0B0B0B0B01021020200808E3
:100C5000102040102040800201020108040201011E
:100C60000204081020408080402010080402018007
:100C7000040201804020100804020108040201015E
:100C80000204081020408001020408102040800067
:100C9000000A0B02090C0D0E0807030401000000F6
:100CA0000000000000000000000000000000000044
:100CB0000000000000000000000000121110000001
:100CC0000000000000000000000000000000000024
:100CD000000000000053442063617264206F6B0ABF
:100CE000006F70656E526F6F74206661696C656429
:100CF0000A00766F6C756D652E696E697420666189
:100D0000696C65640A00534420696E6974206661E9
:100D1000696C0A006175746F25692E67004D323465
:100D2000004D32332025730057726974696E672055
:100D3000746F2066696C653A20006F70656E20667E
:100D400061696C65642C2046696C653A20006F709F
:100D5000656E206661696C65642C2046696C653A35
:100D6000200046696C652073656C65637465640A70
:100D7000002053697A653A200046696C65206F70DF
:100D8000656E65643A20006F70656E206661696CFF
:100D900065642C2046696C653A20002066696C65A4
:100DA0003A20004E6F7720002220706F73002220BF
:100DB000706172656E743A2200535542524F555419
:100DC000494E452043414C4C207461726765743A2A
:100DD00022004B494C4C45442E2000747279696EB8
:100DE0006720746F2063616C6C207375622D67637C
:100DF0006F64652066696C65732077697468207418
:100E00006F6F206D616E79206C6576656C732E2036
:100E10004D4158206C6576656C2069733A004572C7
:100E2000726F723A004D6F76652058004D6F76658F
:100E30002059004D6F7665205A00457874727564AC
:100E40006572004578747275646572004D6F7665E1
:100E5000205A004D6F76652059004D6F76652058F9
:100E6000004D6F76652061786973004D6F7665205F
:100E7000302E316D6D004D6F766520316D6D004DFA
:100E80006F76652031306D6D0050726570617265EE
:100E900000526573746F7265206661696C73616678
:100EA00065004C6F6164206D656D6F7279005374DD
:100EB0006F7265206D656D6F72790046696C616D4A
:100EC000656E74004D6F74696F6E0054656D70656A
:100ED000726174757265004D61696E00507265686B
:100EE0006561742041425320636F6E6600507265E5
:100EF0006865617420504C4120636F6E66005049F4
:100F0000442D44005049442D44005049442D49008B
:100F10005049442D49005049442D50005049442D1A
:100F20005000200220466163740020022046616365
:100F300074002002204D6178002002204D6178006D
:100F40002002204D696E002002204D696E004F6620
:100F500066004F6E20004175746F74656D700046B9
:100F6000616E2073706565640046616E2073706504
:100F700065640042656400426564004E6F7A7A6C75
:100F800065004E6F7A7A6C6500436F6E74726F6C99
:100F90000053746F7265206D656D6F7279004265E4
:100FA0006400426564004E6F7A7A6C65004E6F7A19
:100FB0007A6C650046616E207370656564004661F9
:100FC0006E2073706565640054656D706572617440
:100FD000757265004E6F2053442063617264005047
:100FE00072696E742066726F6D2053440053746F83
:100FF00070207072696E7400526573756D65207033
:1010000072696E74005061757365207072696E74D8
:1010100000436F6E74726F6C005072657061726520
:101020000054756E6500496E666F20736372656566
:101030006E00466C6F7700466C6F770046616E20DD
:1010400073706565640046616E2073706565640049
:1010500042656400426564004E6F7A7A6C65004EAA
:101060006F7A7A6C650053706565640053706565CE
:1010700064004D61696E005072656865617420504E
:101080004C4120426564005072656865617420506F
:101090004C41005072657061726500507265686500
:1010A0006174204142532042656400507265686556
:1010B0006174204142530050726570617265004353
:1010C0006F6F6C646F776E00507265686561742035
:1010D000414253005072656865617420504C410074
:1010E0004D38340044697361626C652073746570B7
:1010F00070657273004D6F76652061786973004783
:101100003238004175746F20686F6D65004D6169FC
:101110006E007C3C3E5E2B3D3F2F5B5D3B2C2A22CC
:101120005C004572726F722077726974696E672015
:10113000746F20454550524F4D210A00206279744A
:101140006573290A0053657474696E67732053745C
:101150006F726564202800454550524F4D206368EA
:1011600065636B73756D206D69736D617463680A77
:1011700000206279746573290A002073746F7265A8
:10118000642073657474696E677320726574726924
:101190006576656420280048617264636F646564E5
:1011A0002044656661756C742053657474696E675C
:1011B00073204C6F616465640A0020204D3230302A
:1011C0002044300A0020204D32303020440020449A
:1011D000697361626C65640A0046696C616D656E75
:1011E000742073657474696E67733A00204400203C
:1011F000490020204D3330312050005049442073A5
:10120000657474696E67733A0A00204600204200D4
:1012100020480020204D3134352053004D61746545
:101220007269616C206865617475702070617261AB
:101230006D65746572733A0A00205A0020590020C7
:10124000204D323036205800486F6D65206F66663D
:1012500073657420286D6D290A00204500205A000E
:1012600020590020580020420020540020204D32F8
:101270003035205300416476616E63656420766189
:10128000726961626C65733A20533D4D696E2066E8
:101290006565647261746520286D6D2F73292C203B
:1012A000543D4D696E2074726176656C206665658B
:1012B000647261746520286D6D2F73292C20423D66
:1012C0006D696E696D756D207365676D656E7420EF
:1012D00074696D6520286D73292C20583D6D6178E7
:1012E000696D756D205859206A65726B20286D6D87
:1012F0002F73292C20205A3D6D6178696D756D2002
:101300005A206A65726B20286D6D2F73292C20205E
:10131000453D6D6178696D756D2045206A65726B1C
:1013200020286D6D2F73290A0020540020520020C0
:10133000204D323034205000416363656C6572612A
:1013400074696F6E733A20503D7072696E74696E85
:10135000672C20523D7265747261637420616E6403
:1013600020543D74726176656C0A00204500205A55
:101370000020590020204D3230312058004D617836
:10138000696D756D20416363656C65726174696F29
:101390006E20286D6D2F7332293A0A0020450020F7
:1013A0005A0020590020204D3230332058004D6122
:1013B00078696D756D20666565647261746573200A
:1013C000286D6D2F73293A0A00204500205A00200D
:1013D000590020204D393220580053746570732015
:1013E00070657220756E69743A0A004361726420F8
:1013F00072656D6F766564004361726420696E7317
:10140000657274656400526573656E643A20006F9E
:101410006B004B494C4C45442E20004B494C4C45ED
:10142000442E2000506C656173652072657365748D
:10143000005052494E5445522048414C54454400B6
:101440005072696E7465722068616C7465642E20D8
:101450006B696C6C28292063616C6C6564210A00DF
:10146000656E7175657565696E6720220000000004
:101470000000000000000000005761726E696E6796
:101480003A20486F6D696E672042756D702044691F
:101490007669736F72203C20310A000000A0400082
:1014A00000A0400000004000005C4300005C4300DE
:1014B000007A43FFFFFF70012C0190012701B0016A
:1014C0002201C0011D01F0011801100213013002B8
:1014D0000E016002090190020401C002FF00000336
:1014E000FA004003F5008003F000D003EB00200475
:1014F000E6007004E100E004DC004005D700C00510
:10150000D2004006CD00D006C8008007C3003008D6
:10151000BE00F008B900C009B400B00AAF00B00BBB
:10152000AA00D00CA500000EA000500F9B00C01018
:1015300096005012910000148C00C0158700B0175F
:101540008200B0197D00D01B7800001E730040207F
:101550006E0090226900F024640040275F0090290B
:101560005A00E02B5500102E500020304B00103256
:101570004600E033410090353C00103737007038AA
:101580003200A0392D00B03A2800A03B2300603C77
:101590001E00103D1900903D1400103E0F00703EDB
:1015A0000A00C03E0500003F000043616E6E6F748C
:1015B000206F70656E2073756264697220006563C8
:1015C000686F3A0020746F6F206C6F6E67206578CB
:1015D00074727573696F6E2070726576656E74656E
:1015E000640A0020636F6C64206578747275736997
:1015F0006F6E2070726576656E7465640A0024F4FF
:10160000D43050C38E20C2A24017828B7011127A40
:10161000910D816CD90AA861E108C758660761512C
:1016200043061E4B5D05C145A7041A411104093D3F
:101630009803713931034036DB0265339102D430AF
:101640005402802E1D02632CEE01752AC501B028BC
:10165000A001102781018F2564012B244B01E0227A
:101660003401AC211F018D200D01801FFC00841E60
:10167000ED00971DDF00B81CD200E61BC600201B42
:10168000BC00641AB200B219A8000A19A0006A18B6
:101690009900D117910040178B00B51684003116C0
:1016A0007E00B31579003A157300C7146F00581403
:1016B0006A00EE1366008813630025135E00C712EC
:1016C0005B006C12570015125400C11151007011CB
:1016D0004F0021114B00D61049008D1047004610D5
:1016E000440002104200C00F4000800F3E00420F35
:1016F0003C00060F3B00CB0E3800930E37005C0E0B
:101700003500270E3400F30D3200C10D3100900D6D
:101710003000600D2E00320D2D00050D2C00D90C6F
:101720002B00AE0C2900850C29005C0C2700350C21
:1017300027000E0C2600E80B2400C40B2400A00B8D
:1017400023007D0B23005A0B2100390B2100180BBD
:101750002000F80A1F00D90A1E00BB0A1E009D0ABD
:101760001D00800A1D00630A1C00470A1B002C0A8A
:101770001B00110A1A00F7091A00DD091900C40933
:101780001900AB091900920917007B0918006309B9
:1017900017004C09160036091600200916000A0920
:1017A0001500F5081500E0081400CC081400B8086E
:1017B0001400A4081400900813007D0812006B08A0
:1017C00013005808120046081200340811002308BC
:1017D00011001208110001081100F0071000E007C5
:1017E0001000D0071000C0071000B0070F00A107BD
:1017F000100091070E0083070F0074070F006507A4
:101800000E0057070E0049070E003B070D002E077C
:101810000E0020070D0013070D0006070D00F90646
:101820000C00ED060D00E0060C00D4060C00C80606
:101830000C00BC060C00B0060C00A4060B009906B8
:101840000C008D060B0082060B0077060B006C0661
:101850000B0061060A0057060B004C060A00420600
:101860000A0038060A002E060A0024060A001A0694
:101870000A001006090007060A00FD050900F40524
:101880000900EB050900E2050900D9050900D005AA
:101890000900C7050900BE050900B5050800AD052A
:1018A0000800A50509009C050800940508008C05A2
:1018B0000800840508007C050800740508006C0514
:1018C0000700650508005D050700560508004E0580
:1018D00007004705070040050800380507003105E7
:1018E00007002A050700230507001C05060016054A
:1018F00007000F0507000805060002050700FB04A6
:101900000600F5040700EE040600E8040600E20401
:101910000700DB040600D5040600CF040600C90456
:101920000600C3040600BD040600B7040600B104A7
:101930000500AC040600A6040600A00405009B04F4
:10194000060095040500900406008A04050085043D
:101950000500800406007A04050075040500700483
:1019600005006B04050066040500610405005C04C5
:10197000050057040500520405004D040500480405
:101980000500430405003E0404003A040500350444
:101990000500300404002C0405002704040023047F
:1019A00005001E0404001A040400160405001104B6
:1019B00004000D04040009040500040404000004EC
:1019C0000400FC030400F8030400F4030400F00323
:1019D0000400EC030400E8030400E4030400E00353
:1019E0000400DC030400D8030400D4030400D00383
:1019F0000400CC030400C8030300C503030024F45F
:101A000004D9201BC40C5C0E9804C4095F0265074E
:101A10007101F405F900FB04B30048048700C10319
:101A200069005803550003034500BE023A008402D2
:101A3000310053022A002902250004022000E4019B
:101A40001C00C8011900AF0117009801140084019F
:101A50001300710110006101100051010E004301DB
:101A60000D0036010B002B010B0020010B001501AE
:101A700009000C01090003010800FB000800F30045
:101A80000800EB000700E4000600DE000600D800B6
:101A90000600D2000600CC000500C7000500C20009
:101AA0000500BD000400B9000400B5000400B10049
:101AB0000400AD000400A9000400A5000300A2007A
:101AC00003009F0004009B000300980003009500A2
:101AD000020093000300900003008D0002008B00C1
:101AE00003008800020086000200840003008100D9
:101AF00002007F0002007D0002007B0002007900EE
:101B000002007700010076000200740002007200FB
:101B10000100710002006F0002006D0001006C0006
:101B200002006A000100690002006700010066000F
:101B30000100650001006400020062000100610014
:101B40000100600001005F0002005D0001005C0018
:101B500001005B0001005A0001005900010058001B
:101B6000010057000100560001005500010054001B
:101B70000100530000005300010052000100510019
:101B80000100500001004F0001004E0000004E0017
:101B900001004D0001004C0001004B0000004B0013
:101BA00001004A000100490001004800000048000F
:101BB000010047000100460000004600010045000A
:101BC0000000450001004400010043000000430004
:101BD00001004200000042000100410000004100FD
:101BE0000100400001003F0000003F0001003E00F6
:101BF00000003E0001003D0000003D0001003C00EF
:101C000000003C0000003C0001003B0000003B00E5
:101C100001003A0000003A000100390000003900DC
:101C200001003800000038000000380001003700D3
:101C300000003700010036000000360000003600CA
:101C400001003500000035000000350001003400BF
:101C500000003400000034000100330000003300B5
:101C600000003300010032000000320000003200AA
:101C7000010031000000310000003100010030009F
:101C8000000030000000300001002F0000002F0095
:101C900000002F0000002F0001002E0000002E0089
:101CA00000002E0001002D0000002D0000002D007E
:101CB00000002D0001002C0000002C0000002C0072
:101CC00000002C0001002B0000002B0000002B0066
:101CD00000002B0001002A0000002A0000002A005A
:101CE00000002A000100290000002900000029004E
:101CF0000000290000002900010028000000280041
:101D00000000280000002800000028000100270033
:101D10000000270000002700000027000000270027
:101D2000010026000000260000002600000026001A
:101D3000000026000100250000002500000025000D
:101D400000002500000025000000250001002400FF
:101D500000002400000024000000240000002400F3
:101D600001002300000023000000230000002300E6
:101D700000002300000023000000230001002200D7
:101D800000002200000022000000220000002200CB
:101D900000002200010021000000210000002100BD
:101DA00000002100000021000000210000002100AF
:101DB00001002000000020000000200000002000A2
:101DC0000000200000002000000020000000200093
:101DD00001001F0000001F0000001F0000001F0086
:101DE00000001F0000001F0000001F0001001E0077
:101DF00000001E0000001E0000001E0000004D3804
:101E00003420582059205A2045004573746570735A
:101E10002F6D6D004573746570732F6D6D005A736F
:101E2000746570732F6D6D005A73746570732F6DC8
:101E30006D005973746570732F6D6D0059737465FF
:101E400070732F6D6D005873746570732F6D6D0016
:101E50005873746570732F6D6D00412D74726176C7
:101E6000656C00412D74726176656C00412D726560
:101E7000747261637400412D7265747261637400E1
:101E8000416D6178204500416D6178204500416DCC
:101E90006178205A00416D6178205A00416D617867
:101EA000205900416D6178205900416D61782058BA
:101EB00000416D61782058005654726176206D693A
:101EC0006E005654726176206D696E00566D696EB3
:101ED00000566D696E00566D6178204500566D6143
:101EE00078204500566D6178205A00566D61782043
:101EF0005A00566D6178205900566D61782059005E
:101F0000566D6178205800566D61782058005665EE
:101F10002D6A65726B0056652D6A65726B00567A84
:101F20002D6A65726B00567A2D6A65726B00567960
:101F30002D6A65726B0056792D6A65726B00567852
:101F40002D6A65726B0056782D6A65726B0041636D
:101F500063656C00416363656C00436F6E74726F00
:101F60006C0046696C2E204469612E0046696C2E17
:101F7000204469612E004F6666004F6E20004520A8
:101F8000696E206D6D3300436F6E74726F6C004329
:101F9000616E6E6F7420656E746572207375626415
:101FA00069723A2000052E2E004D61696E00000016
:101FB0002100240027002A002D00300033000101F9
:101FC0000000040107010A0100002200250028008A
:101FD0002B002E0031003400020100000501080131
:101FE0000B012DAF0CAF11241FBECFEFD1E2DEBF2E
:101FF000CDBF00E00CBF14E0A0E0B2E0EAE9F8E7F2
:1020000001E00BBF02C007900D92AE36B107D9F7C1
:1020100022E1AEE6B4E001C01D92AA3DB207E1F7AD
:102020001FE0C2EFDFE000E006C021970109802F2A
:10203000FE010E94B6BBC13FD10780E00807A9F7A7
:102040000E9480A60C943CBC0C9400002F923F92FE
:102050004F925F926F927F928F929F92AF92BF92B8
:10206000CF92DF92EF92FF920F931F93CF93DF9364
:10207000CDB7DEB7CF58D1090FB6F894DEBF0FBE8B
:10208000CDBF0091650720E6029F800111240B510E
:102090001A4F10938404009383048091A40D80FF51
:1020A00018C0EEEBF5E184917F013FEFE31AF30AEC
:1020B000882321F00E945B31F701F5CFD8018D9183
:1020C0008D01882319F00E945B31F8CF8AE00E94CD
:1020D0005B312091830430918404F90180812F5F6A
:1020E0003F4F8032D1F3F0938404E09383048E3425
:1020F00069F0D0908304C09084046AE270E08D2D72
:102100009C2D0E9404BC0097D1F420C0818190EDE9
:10211000980F9A3010F08D3261F73296DF013196C8
:102120002C9120532A30D0F3CD01FC01019620815F
:102130002032D9F3F0938404E0938304DACFFC01D6
:1021400031968291803231F08A3221F0AD2DBC2D52
:102150009D9102C01082F5CFFD01808111968032E1
:10216000D9F380538A3010F00C949E2DE12CF12C81
:102170002AE02E9DB0012F9D700D11247B01B0E34C
:10218000EB1AF1088191E80EF11C87FDFA94808129
:1021900080538A3070F38F013196D8018C91803250
:1021A000D1F310937C0400937B049D3411F40C94C0
:1021B0008319943511F40C94992B973411F00C94E5
:1021C0009E2DB4E0EB16F10409F47BC640F4809137
:1021D0000502F2E0EF16F10408F00EC119C02AE57D
:1021E000E216F10409F4CFC738F44CE1E416F10427
:1021F00009F4A5C60C94C22B5BE5E516F10409F4BD
:10220000C6C78CE5E816F10409F4C6C70C94C22BC6
:10221000882311F40C94C22B0E94252F8EE79AE09C
:102220000E94F3800E9450318091A40D83FD93C0E1
:10223000C0908A0AD0908B0AE0908C0AF0908D0AA8
:102240002091C0053091C1054091C2055091C30550
:10225000C701B6010E9498B4882309F47CC080911C
:102260009F0D811134C02091C0023091C102409174
:10227000C2025091C3026091A40A7091A50A809194
:10228000A60A9091A70A0E9498B487FF20C0C09226
:10229000C005D092C105E092C205F092C305EEEBF5
:1022A000F5E184918F010F5F1F4F882321F00E9479
:1022B0005B31F801F6CFE2E1F2E084918F010F5F2C
:1022C0001F4F882321F00E945B31F801F6CFC090A8
:1022D0008A0AD0908B0AE0908C0AF0908D0A2091A7
:1022E000C0053091C1054091C2055091C305C70199
:1022F000B6010E94AEB80E94F3B997FF07C090954F
:102300008095709561957F4F8F4F9F4F693C710508
:102310008105910504F1C092C005D092C105E092FB
:10232000C205F092C305EEEBF5E184918F010F5FDA
:102330001F4F882321F00E945B31F801F6CFE3EFB5
:10234000F1E084918F010F5F1F4F882321F00E94DD
:102350005B31F801F6CF20917E0A30917F0A4091DF
:10236000800A5091810A6091B4057091B505809101
:10237000B6059091B7050E9498B481111DC02091B7
:10238000820A3091830A4091840A5091850A6091B3
:10239000B8057091B9058091BA059091BB050E946E
:1023A00098B4811109C0609100027091010280917E
:1023B0000202909103021AC060916E0270916F0246
:1023C000072E000C880B990B0E949EB420910002EE
:1023D0003091010240910202509103020E94FDB42B
:1023E0002AE037ED43E25CE30E94FDB40E94772EC1
:1023F0000E946D2E0C94C22B882311F40C94C22BD6
:1024000011E092E0E916F10409F010E00E94252F96
:1024100082E50E94AF2E882309F452C10E94FC2E4F
:102420006B017C014090B4055090B5056090B605F5
:102430007090B7052091B8053091B9054091BA0563
:102440005091BB052BAF3CAF4DAF5EAF80917E0A84
:1024500090917F0AA091800AB091810A23968CAF57
:102460009DAFAEAFBFAF23972091820A3091830A10
:102470004091840A5091850A2F962CAF3DAF4EAF04
:102480005FAF2F9720E030E0A901C701B6010E949D
:1024900098B4882309F4FBC4A301920123966CAD80
:1024A0007DAD8EAD9FAD23970E9498B481110FC072
:1024B0002BAD3CAD4DAD5EAD2F966CAD7DAD8EAD13
:1024C0009FAD2F970E9498B4882309F4E0C420E0C0
:1024D00030E0A901C701B6010E9498B4881F88277F
:1024E000881F18130BC080E090E0A0E8BFE3679658
:1024F0008CAF9DAFAEAFBFAF67970AC020E030E0B2
:1025000040E85FEB67962CAF3DAF4EAF5FAF67978C
:10251000A301920123966CAD7DAD8EAD9FAD239747
:102520000E94AEB82B966CAF7DAF8EAF9FAF2B974E
:102530002BAD3CAD4DAD5EAD2F966CAD7DAD8EAD92
:102540009FAD2F970E94AEB863966CAF7DAF8EAFF4
:102550009FAF63972B962CAD3DAD4EAD5FAD2B97E6
:10256000CA01B9010E94FDB44B015C0163962CAD18
:102570003DAD4EAD5FAD6397CA01B9010E94FDB498
:102580009B01AC01C501B4010E94AFB80E941ABB07
:1025900027966CAF7DAF8EAF9FAF279720E030E0DE
:1025A00040E05FE30E94FDB44B015C01A70196018E
:1025B000C701B6010E94FDB46B017C01A501940125
:1025C000C501B4010E94FDB49B01AC01C701B60175
:1025D0000E94AEB80E941ABB9B01AC0167966CAD1D
:1025E0007DAD8EAD9FAD67970E94FDB44B015C0140
:1025F00023962CAD3DAD4EAD5FAD2397C301B20127
:102600000E94AFB820E030E040E05FE30E94FDB4FC
:102610006B017C0163966CAD7DAD8EAD9FAD639714
:10262000905827962CAD3DAD4EAD5FAD27970E94DB
:102630008BB99B01AC01C501B4010E94FDB49B01A3
:10264000AC01C701B6010E94AFB8A30192010E947C
:10265000AEB86B017C012F962CAD3DAD4EAD5FAD9C
:102660002F976BAD7CAD8DAD9EAD0E94AFB820E0D5
:1026700030E040E05FE30E94FDB42B013C0127966F
:102680002CAD3DAD4EAD5FAD27972B966CAD7DADBE
:102690008EAD9FAD2B970E948BB99B01AC01C501FC
:1026A000B4010E94FDB49B01AC01C301B2010E94C0
:1026B000AFB82BAD3CAD4DAD5EAD0E94AEB814C011
:1026C00089E40E94AF2E882329F00E94FC2E6B0122
:1026D0007C0103C0C12CD12C76018AE40E94AF2E6C
:1026E0008823D9F00E94FC2E6BAF7CAF8DAF9EAFDC
:1026F00020E030E0A901C701B6010E9498B4811121
:102700001AC020E030E0A9016BAD7CAD8DAD9EAD6F
:102710000E9498B481110FC0BAC320E030E0A90133
:10272000C701B6010E9498B4882309F4B0C31BAE58
:102730001CAE1DAE1EAEA7019601C701B6010E94D8
:10274000FDB44B015C012BAD3CAD4DAD5EADCA019E
:10275000B9010E94FDB49B01AC01C501B4010E9406
:10276000AFB80E941ABBAF966CAF7DAF8EAF9FAF74
:10277000AF978091B4059091B505A091B605B09141
:10278000B70527968CAF9DAFAEAFBFAF2797A70118
:102790009601BC01CD010E94AFB867966CAF7DAFCA
:1027A0008EAF9FAF67972091B8053091B9054091E2
:1027B000BA055091BB0563962CAF3DAF4EAF5FAFEE
:1027C00063972BAD3CAD4DAD5EAD63966CAD7DAD0D
:1027D0008EAD9FAD63970E94AFB86B966CAF7DAF27
:1027E0008EAF9FAF6B978091BC059091BD05A09176
:1027F000BE05B091BF056F968CAF9DAFAEAFBFAFBA
:102800006F979C01AD016091860A7091870A809153
:10281000880A9091890A0E94AEB82B966CAF7DAF62
:102820008EAF9FAF2B9720918A0A30918B0A4091EF
:102830008C0A50918D0AE3962CAF3DAF4EAF5FAF3F
:10284000E3978091C0059091C105A091C205B09118
:10285000C305A3968CAF9DAFAEAFBFAFA397A70143
:102860009601505823962CAF3DAF4EAF5FAF2397E4
:102870008BAD9CADADADBEADB0582F968CAF9DAFBE
:10288000AEAFBFAF2F9720917E0A30917F0A409163
:10289000800A5091810AA7962CAF3DAF4EAF5FAF33
:1028A000A79767962CAD3DAD4EAD5FAD6797A796E8
:1028B0006CAD7DAD8EAD9FADA7970E94AEB86B019C
:1028C0007C018091820A9091830AA091840AB09140
:1028D000850AAB968CAF9DAFAEAFBFAFAB976B9693
:1028E0002CAD3DAD4EAD5FAD6B97BC01CD010E94EF
:1028F000AEB84B015C01A701960123966CAD7DAD8E
:102900008EAD9FAD23970E94FDB42B013C01A50124
:1029100094012F966CAD7DAD8EAD9FAD2F970E942B
:10292000FDB49B01AC01C301B2010E94AFB82B0101
:102930003C01A501940123966CAD7DAD8EAD9FAD9C
:1029400023970E94FDB44B015C01A70196012F96CD
:102950006CAD7DAD8EAD9FAD2F970E94FDB49B01F8
:10296000AC01C501B4010E94AEB8A30192010E945E
:1029700022B96B017C0120E030E0A9010E9498B4EB
:1029800087FF0AC02BED3FE049EC50E4C701B601D8
:102990000E94AFB86B017C01112351F02BED3FE099
:1029A00049EC50E4C701B6010E94AEB86B017C014E
:1029B00020E030E0A901C701B6010E9498B481115E
:1029C0002AC0A7962CAD3DAD4EAD5FADA79727961B
:1029D0006CAD7DAD8EAD9FAD27970E9498B48111EF
:1029E0001AC0AB962CAD3DAD4EAD5FADAB976396C7
:1029F0006CAD7DAD8EAD9FAD63970E9498B4811193
:102A00000AC02BED3FE049EC50E4C701B6010E943B
:102A1000AFB86B017C01AF962CAD3DAD4EAD5FAD57
:102A2000AF97C701B6010E94FDB49B01AC010E94A3
:102A3000FDB44B015C012B962CAD3DAD4EAD5FADB1
:102A40002B97CA01B9010E94FDB49B01AC01C501DD
:102A5000B4010E94AFB80E941ABB4B015C012FE683
:102A600032E143E85AE30E9498B487FD0CC2C501E5
:102A7000B4010E9424BA0E94F8B91B01672B19F413
:102A800022242394312CB10180E090E00E949CB478
:102A90004B015C019B01AC01C701B6010E948BB9DF
:102AA00027966CAF7DAF8EAF9FAF2797A50194019E
:102AB0002B966CAD7DAD8EAD9FAD2B970E948BB9E3
:102AC000AB966CAF7DAF8EAF9FAFAB97A3962CAD9F
:102AD0003DAD4EAD5FADA397E3966CAD7DAD8EADD4
:102AE0009FADE3970E94AEB8A50194010E948BB9F7
:102AF000AF966CAF7DAF8EAF9FAFAF9727962CADE3
:102B00003DAD4EAD5FAD2797CA01B9010E94FDB43E
:102B100020E030E040E05FE30E94FDB49B01AC01A7
:102B200060E070E080E89FE30E94AEB8A7966CAFCB
:102B30007DAF8EAF9FAFA7976F962CAD3DAD4EADDD
:102B40005FAD6F9729873A874B875C87A3968CADDB
:102B50009DADAEADBFADA3978D879E87AF87B88B78
:102B600060916E0270916F02072E000C880B990B1A
:102B70000E949EB420910002309101024091020215
:102B8000509103020E94FDB42AE037ED43E25CE37A
:102B90000E94FDB46F966CAF7DAF8EAF9FAF6F9705
:102BA0000E9492A59B01AC0128533F4F4F4F5F4FAE
:102BB000A3962CAF3DAF4EAF5FAFA3974FAC21961E
:102BC0005FAC219722966FAC229723967FAC239718
:102BD00041E050E061965FAF4EAF619728961FAE1F
:102BE00028976196AEADBFAD6197A215B30509F404
:102BF00036C10E947B3F0E9492A5DC01CB01A396C7
:102C00002CAD3DAD4EAD5FADA397821B930BA40BD6
:102C1000B50BB7FD10C00E9492A59B01AC012853D3
:102C20003F4F4F4F5F4FA3962CAF3DAF4EAF5FAFBF
:102C3000A3970E94AE7E28963FAD28973F5F2896C7
:102C40003FAF289739310CF04BC0A7962CAD3DAD66
:102C50004EAD5FADA7972F966CAD7DAD8EAD9FADA0
:102C60002F970E94FDB46B017C0127962CAD3DADE2
:102C70004EAD5FAD2797B201C3010E94FDB4A7011D
:102C800096010E94AFB86B017C01A7962CAD3DADBB
:102C90004EAD5FADA797B201C3010E94FDB44B01D9
:102CA0005C0127962CAD3DAD4EAD5FAD27972F96BD
:102CB0006CAD7DAD8EAD9FAD2F970E94FDB49B0195
:102CC000AC01C501B4010E94AEB82B013C01C601A4
:102CD000D7012F968CAF9DAFAEAFBFAF2F975CC023
:102CE00061964EAD5FAD6197BA0180E090E00E94C1
:102CF0009CB427962CAD3DAD4EAD5FAD27970E949D
:102D0000FDB44B015C010E9488B96B017C01C501D7
:102D1000B4010E9410BB4B015C01A70196012396F0
:102D20006CAD7DAD8EAD9FAD23970E94FDB42B01A0
:102D30003C01A50194016BAD7CAD8DAD9EAD0E94B3
:102D4000FDB49B01AC01C301B2010E94AFB82B01DD
:102D50003C01A501940123966CAD7DAD8EAD9FAD78
:102D600023970E94FDB44B015C01A70196016BAD56
:102D70007CAD8DAD9EAD0E94FDB49B01AC01C50143
:102D8000B4010E94AEB82F966CAF7DAF8EAF9FAFEF
:102D90002F9728961FAE28979201A30167966CADD6
:102DA0007DAD8EAD9FAD67970E94AFB869837A8382
:102DB0008B839C832F962CAD3DAD4EAD5FAD2F9791
:102DC0006B966CAD7DAD8EAD9FAD6B970E94AFB82D
:102DD0006D837E838F839887AB962CAD3DAD4EADD2
:102DE0005FADAB9769857A858B859C850E94AFB86E
:102DF00069877A878B879C87AF962CAD3DAD4EADAA
:102E00005FADAF976D857E858F8598890E94AFB83D
:102E10006D877E878F87988BCE0101960E94F38005
:102E2000C09075046F96ECACFDAC0EAD1FAD6F9706
:102E30009E01235F3F4FAE01475F5F4FBE016B5F57
:102E40007F4FCE0101960E94F98761968EAD9FADAE
:102E50006197019661969FAF8EAF6197C2CEC09089
:102E600075046F96ECACFDAC0EAD1FAD6F972AE804
:102E70003AE046E85AE062E87AE08EE79AE00E949B
:102E8000F9870E946D2E0E9450310C94C22BEEE106
:102E9000FEE084918F010F5F1F4F882321F00E9475
:102EA0005B31F801F6CFEDE2F2E084918F010F5F24
:102EB0001F4F882311F40C94C22B0E945B31F80140
:102EC000F4CF80E50E94AF2E882329F00E94F12ED6
:102ED0006B017C0103C0C12CD12C760183E50E94DB
:102EE000AF2E882321F00E94942F6B017C010E9459
:102EF0008F420E94503180916A0A90916B0AA09192
:102F00006C0AB0916D0AC80ED91EEA1EFB1E809194
:102F10008302811105C060E083E492E00E94217881
:102F20000E9492A5DC01CB018C199D09AE09BF0955
:102F3000B7FD02C00C94C22B0E94AE7EF1CF0E945E
:102F40008F42409000025090010260900202709007
:102F5000030240927F045092800460928104709238
:102F6000820480916E0290916F0290937E04809310
:102F70007D0484E690E090936F0280936E020E943D
:102F8000503181E080934F0288E50E94AF2E382EA9
:102F900089E50E94AF2E182F8AE50E94AF2E082FD8
:102FA000311005C0111105C091E0982705C011111D
:102FB00002C090E001C0982F9093040280E1E4EBFE
:102FC000F5E0AEE7BAE001900D928A95E1F7911134
:102FD00005C0311003C0112309F493C020E030E094
:102FE00040EA50E46091B0057091B1058091B2055E
:102FF0009091B3050E94AFB820917A0A30917B0A74
:1030000040917C0A50917D0A0E94AFB86B017C010F
:103010006093860A7093870A8093880A9093890A3E
:103020008090BC059090BD05A090BE05B090BF05F6
:10303000A50194010E94D5BA18160CF062C0A70130
:103040009601C501B4010E9498B487FF16C080E0C4
:1030500090E0A0E8B0E48093000290930102A09376
:103060000202B0930302C092BC05D092BD05E0926B
:10307000BE05F092BF050E94902E85E595E5A5E07E
:10308000B3E48093000290930102A0930202B093F4
:1030900003020E94902EC090860AD090870AE0908A
:1030A000880AF090890AA70196016091BC05709189
:1030B000BD058091BE059091BF050E94D5BA181636
:1030C000B4F480E090E0A0E8B0E480930002909334
:1030D0000102A0930202B0930302C092BC05D092F9
:1030E000BD05E092BE05F092BF050E94902E0E94A1
:1030F0008F4240920002509201026092020270924E
:10310000030280910402811102C0332021F080E08B
:1031100090E00E94307D80910402811102C0112351
:1031200021F081E090E00E94307D809104028111C5
:1031300002C0002321F082E090E00E94307D0E94D6
:103140001C308091C50980934F0280917F0490913B
:103150008004A0918104B091820480930002909336
:103160000102A0930202B093030280917D0490912A
:103170007E0490936F0280936E020E9450310E94F1
:10318000C2350C94C22B10927A040C94C22B81E0AD
:1031900080937A040C94C22B85E40E94AF2EB82E43
:1031A000811102C00E948F4231ED832E32E0932EB6
:1031B00044EBC42E45E0D42E52E7E52E5AE0F52E1E
:1031C00000E010E0A12CF40181914F010E94AF2E8C
:1031D000882309F44CC0D6012D913D914D915C910D
:1031E000C457DF4F2883CC58D040C357DF4F3883B4
:1031F000CD58D040C257DF4F4883CE58D040C1573A
:10320000DF4F5883CF58D0400E94FC2EF6016083D8
:10321000718382839383C457DF4F2881CC58D04079
:10322000C357DF4F3881CD58D040C257DF4F488158
:10323000CE58D040C157DF4F5881CF58D0400330CF
:103240001105A9F00E94AEB89B01AC01D7016D91A8
:103250007D918D919C910E94AFB8F701608371833D
:1032600082839383C8010E94DC30AA24A3940F5F59
:103270001F4FF4E0CF0ED11C24E0E20EF11C04300D
:10328000110509F0A0CFAA2019F00E941C3037C008
:10329000BB20A9F1C090C005D090C105E090C20547
:1032A000F090C30520917D1230917E1240917F12E3
:1032B00050918012C701B6010E94FDB40E94E0BA8D
:1032C0006093E00A7093E10A8093E20A9093E30A24
:1032D000C701B6010E94F3B92FB7F89460930805AF
:1032E0007093090580930A0590930B052FBF1092E8
:1032F000D00A1092D10A1092D20A1092D30A0E94D8
:10330000C2350C94C22B3FE6E316F10409F4B7C5AD
:1033100008F0D1C05AE2E516F10409F4F3C408F04C
:1033200068C097E1E916F10409F486C2A8F5B2E194
:10333000EB16F10411F40C945C23F0F4F2E0EF16B8
:10334000F10408F4B8C121E1E216F10411F00C9483
:10335000C22B60E080E892E00E9421785F988A9812
:103360009FB7F894809108018E7F809308019FBFDA
:10337000479812980C94C22B35E1E316F10409F436
:1033800051C208F053C254E1E516F10411F00C9457
:10339000C22BE8E9F2E003C28BE1E816F10409F47C
:1033A0006FC240F4A9E1EA16F10409F457C208F427
:1033B0004AC258C2EEE1EE16F10409F49DC268F467
:1033C0002CE1E216F10411F00C94C22B40E060E015
:1033D000C8010E94E5460C94C22B3FE1E316F104BC
:1033E00009F4E8C340E2E416F10409F493C30C9431
:1033F000C22B55E5E516F10411F40C948B2340F52E
:1034000091E5E916F10411F40C943E23A0F4BCE418
:10341000EB16F10409F4BEC4EDE4EE16F10409F470
:10342000D3C4FBE4EF16F10411F00C94C22B0E94FC
:10343000954B0C94C22B23E5E216F10411F40C9485
:10344000572310F00C945C23109279040C94C22B37
:103450004AE6E416F10411F40C940623C0F488E65D
:10346000E816F10409F4B4C408F090C5ACE5EA1616
:10347000F10411F00C94C22BB1EDCB2EB2E0DB2E97
:1034800011E7E12E12E1F12E10E00C949E23BCE630
:10349000EB16F10409F45FC510F40C942C23FDE63F
:1034A000EF16F10409F48CC52EE6E216F10409F4D6
:1034B000D3C40C94C22B33EDE316F10411F40C9435
:1034C000A42608F087C05CE8E516F10409F447C5B6
:1034D00098F595E7E916F10411F40C942D24B0F455
:1034E000B2E7EB16F10411F40C941D24E3E7EE1699
:1034F000F10411F40C942024F0E7EF16F10411F01C
:103500000C94C22B82E993E00E94707E28E7E216B9
:10351000F10411F40C94962439E7E316F10411F444
:103520000C949C2447E7E416F10411F00C94C22B90
:10353000E6EEF4E00C94322459ECE516F10411F4B3
:103540000C945E2598F49EEBE916F10409F4DBC6B1
:10355000A8ECEA16F10411F40C941525B1E9EB1668
:10356000F10411F00C94C22B0C94A124ECECEE1697
:10357000F10411F40C94962588F42BECE216F10476
:1035800011F00C94C22B91EAE92E92E1F92E01ED93
:1035900012E024E0D22ED00E0C9486253DECE316EA
:1035A000F10411F40C9400264EECE416F10411F031
:1035B0000C94C22B11EDA12E12E0B12E04EBC02E03
:1035C00005E0D02E88EAE82E85E0F82E00E010E035
:1035D0000C946B2650E9E51651E0F50611F40C94B5
:1035E000702B78F59CE2E91691E0F90611F40C9441
:1035F0008827A0F4BDEDEB16F10411F40C944727D5
:10360000E2EEEE16F10411F40C945F27FCEDEF16D8
:10361000F10411F00C94C22B0C943B272EE2E2161D
:1036200021E0F20611F40C94452810F40C94AC2718
:103630004FE2E41641E0F40611F40C94B3280C9424
:10364000C22B55EFE51651E0F50611F40C94792BD9
:10365000C8F49CEAE91691E0F90611F40C94732B76
:10366000A4EFEA16A1E0FA0611F40C94762BBAE95D
:10367000EB16B1E0FB0611F00C94C22B0E94263031
:103680000C94C22BE7EFEE16E1E0FE0611F40C9469
:103690007F2B10F40C947C2B20EAE21623E0F20638
:1036A00009F47EC237EEE31633E0F30611F40C940E
:1036B0008A2B0C94C22B80E50E94AF2E882361F0E8
:1036C0000E94F12E6B017C01BB24B394672B682B05
:1036D000692B31F4B12C04C0B12CC12CD12C760152
:1036E00083E50E94AF2E882399F00E94942F6B01EE
:1036F0007C01B1100FC0672B682B692B59F4D801DE
:103700008C91882339F061E0C8010E94367807C0A7
:10371000BB20A9F360E08FE692E00E94217881E06F
:103720008093D1090E948F420E945031C114D1046C
:10373000E104F104E9F080916A0A90916B0AA0918A
:103740006C0AB0916D0AC80ED91EEA1EFB1E0E94BB
:1037500092A5DC01CB018C199D09AE09BF09B7FF09
:103760001AC08091D1098823B1F00E94AE7EEFCFBC
:103770008091D109882319F00E94AE7EF9CF809103
:10378000140B60E0882319F080E692E002C08CE41C
:1037900092E00E9421781092D1090C94C22B84915E
:1037A0008F010F5F1F4F882321F00E945B31F801CA
:1037B000F6CF10929A0D1092990D40E050E0BA01A8
:1037C00085E49BE00E94AB5F8BE1E5E4FBE0DE017A
:1037D000159601900D928A95E1F78091430B909197
:1037E000440B9C838B838BEB93E09A83898340E02B
:1037F00050E0BE016F5F7F4F8DE694E00E94B6847B
:10380000CE0101960E94567EE9E8F2E084918F0194
:103810000F5F1F4F882311F40C94C22B0E945B3161
:10382000F801F4CF0E941A4A0C94C22B1092140B88
:103830001092150B0C94C22B40E061E0C8010E946D
:10384000E5460C94C22B8091150B882319F081E07A
:103850008093140B0E94954B0C94C22B1092140B66
:103860000C94C22B8091150B882311F40C94C22B5D
:1038700083E50E94AF2E81110C94C52B0C94C22BB2
:103880008091150B882351F1E9EAF2E084918F01D0
:103890000F5F1F4F882321F00E945B31F801F6CFA4
:1038A0006091900D7091910D8091920D9091930D7A
:1038B0004AE00E9488318FE20E945B3160918C0D5A
:1038C00070918D0D80918E0D90918F0D4AE00E9428
:1038D00088318AE00E945B310C94C22BEBEBF2E062
:1038E00084918F010F5F1F4F882311F40C94C22B1A
:1038F0000E945B31F801F4CF8091150B882311F4FD
:103900000C94C22B8FED9CE00E94795F8FED9CE0C0
:103910000E94AF7A1092130B1092120BE0907B046E
:10392000F0907C048091150B882311F40C94C22B29
:103930000E94BC821D8218861C821B828BEB93E046
:103940009A83898381E49BE09093610B8093600B61
:10395000F70180818F3209F068C06FE270E0C70123
:103960000E9404BC8C010F5F1F4F9E012F5F3F4FD1
:1039700049010115110509F45EC06FE270E0C8014C
:103980000E9404BC6C01009709F456C0081719077F
:1039900008F052C05C01A01AB10AA501B801CE011D
:1039A00080960E942DBCE0E2F0E0EC0FFD1FEA0DD6
:1039B000FB1D10828E01005E1F4FD8018D918D017D
:1039C000882319F00E945B31F8CF8AE00E945B31B6
:1039D0006091600B7091610B6115710511F06C5F66
:1039E0007F4F21E0AE01405E5F4FCE0105960E9401
:1039F0008E65811112C0BE01605E7F4F82EF92E042
:103A00000E9462318EE20E945B318AE00E945B314B
:103A1000C4010E94567E0C94C22B9092610B80923E
:103A2000600B86010F5F1F4FA4CF82E69BE090934F
:103A3000610B8093600B87016091600B7091610B4B
:103A40006115710511F06C5F7F4F18A21BA222E077
:103A5000A801CE0180960E948E65811102C0F12CD2
:103A600014C0CE0180960E942A828823C1F361E0AF
:103A7000CE0180960E94B87A009789F325EEFC016A
:103A800020831BA20E94895DF82ECE0180960E94A1
:103A90002731FF2009F1ECECF2E084917F012FEF58
:103AA000E21AF20A882321F00E945B31F701F5CF78
:103AB000D8018D918D01882319F00E945B31F8CFD8
:103AC0008AE00E945B311092900D1092910D10923D
:103AD000920D1092930D18C0EAEDF2E084917F01EF
:103AE000BFEFEB1AFB0A882321F00E945B31F7013C
:103AF000F5CFF80181918F01882319F00E945B3185
:103B0000F8CF8EE20E945B31CE0101960E94567E74
:103B10000C94C22B8091140B81110E948F42009152
:103B20007B0410917C0461E270E0C8010E9404BC37
:103B3000009719F08C010F5F1F4F80E50E94AF2E98
:103B4000882349F0FF24F39480916E0490916F04D0
:103B50008017910708F0F12C8091150B882311F440
:103B60000C94C22B4F2D61E0C8010E94E54683E50D
:103B70000E94AF2E882349F080916E0490916F04CB
:103B80008017910710F40C94D62B8091150B882385
:103B900019F081E08093140BF1100C94C22B5ACED3
:103BA00081E08093130B40E060E0C8010E94E5468D
:103BB0000C94C22B0E9480842CE3C22ED12CE12CC9
:103BC000F12CA70196010E9473B8762E672ECA01C8
:103BD000B901A70196010E9473B86B017C01CA016B
:103BE000B90128E130E040E050E00E9473B84B0199
:103BF0005C01C9016DE671E00E9473BB8E010F5F2D
:103C00001F4F6115710599F06F927F92DF92CF92ED
:103C10009F928F929F938F937F936F938EE293E007
:103C20009F938F931F930F930E9469B412C00097C4
:103C3000B1F06F927F92DF92CF929F928F929F937B
:103C40008F938EE193E09F938F931F930F930E9426
:103C500069B40FB6F894DEBF0FBECDBF36C0811475
:103C60009104A104B10479F06F927F92DF92CF9218
:103C70009F928F9282E193E09F938F931F930F9374
:103C80000E9469B4E6CFC114D104E104F10469F0E3
:103C90006F927F92DF92CF928AE093E09F938F930F
:103CA0001F930F930E9469B4D4CF6F927F9286E0E6
:103CB00093E09F938F931F930F930E9469B40F908B
:103CC0000F900F900F900F900F9060E0C8010E942E
:103CD0003678EEEBF5E184917F01BFEFEB1AFB0A3A
:103CE000882321F00E945B31F701F5CFB80182E40F
:103CF00093E00E9462318AE00E945B310E942D3184
:103D00000C94C22B83E50E94AF2E882311F40C94EF
:103D1000C22B0E9421A67C018F3F910519F010F063
:103D20000C94C22B80E50E94AF2E882339F00E94AC
:103D300021A68C0197FF04C00C94C22B0DE010E06B
:103D4000D02EE5EDF2E0C801992721913191281795
:103D5000390731F023E0EB32F207B9F70C94AF2BBF
:103D6000EEE1FEE084918F010F5F1F4F882321F069
:103D70000E945B31F801F6CFEFE4F3E084918F010C
:103D80000F5F1F4F882311F40C94C22B0E945B31EC
:103D9000F801F4CF8091040B9091050B019711F07D
:103DA0000C94C22B82E090E09093050B8093040B5F
:103DB0000E9492A560930E0B70930F0B8093100BD3
:103DC0009093110B0C94C22B0E9466830C94C22B0F
:103DD00088E690E00E94193581110C94C22B8091E5
:103DE000A40D83FF02C00C94C22B83E50E94AF2E6A
:103DF000882371F10E94FC2E0E94F3B97093A30AEC
:103E00006093A20A0E94DA810E94FC2E20E030E03A
:103E10004AEA52E40E9498B418163CF00E94668365
:103E200060E089E693E00E9421780E94FC2E2091B8
:103E3000A40A3091A50A4091A60A5091A70A0E94AF
:103E4000D5BA18162CF460E08EE593E00E94217834
:103E50000E942EB00C94C22B8EE40E94AF2E8823B9
:103E600011F40C94C22B0E942EA6609370047093E0
:103E7000710480937204909373040C94C22B83E5B5
:103E80000E94AF2E882319F00E94C22E01C080E04C
:103E90008093A40DEEEBF5E184918F010F5F1F4F2E
:103EA000882321F00E945B31F801F6CFEBE8F3E0C4
:103EB00084918F010F5F1F4F882321F00E945B3197
:103EC000F801F6CF8091A40D8823A1F19DE7C92EBA
:103ED00093E0D92EE12CF12C20E08091A40D90E00C
:103EE0000E2C02C0959587950A94E2F780FF17C0C3
:103EF000BB24B394B20E222319F08CE20E945B31F2
:103F0000F60125913491F901849189010F5F1F4FCA
:103F1000882321F00E945B319801F5CF2B2DFFEF14
:103F2000EF1AFF0A32E0C30ED11C45E0E416F1049B
:103F3000A1F60CC0E7E8F3E084918F010F5F1F4FFB
:103F4000882321F00E945B31F801F6CF8AE00E94BD
:103F50005B310C94C22B10926B020C94C22B80919B
:103F6000A40D83FF02C00C94C22B83E50E94AF2EE8
:103F7000882311F40C94C22B0E94FC2E0E94F3B9EA
:103F800070939709609396090C94C22B89E690E090
:103F90000E94193581110C94DB2DEBE9F3E084913B
:103FA0008F010F5F1F4F882321F00E945B31F801C2
:103FB000F6CF0E9493378AE00E945B310C94DB2D90
:103FC0008DE690E00E94193581110C94C22B8091EE
:103FD000A40D83FF02C00C94C22B83E50E94AF2E78
:103FE0002C968FAF2C97811105C082E50E94AF2ED1
:103FF0008823C1F10E94FC2E0E94F3B97093A30A9A
:104000006093A20A0E94DA810E94FC2E20E030E038
:104010004AEA52E40E9498B4181614F40C94E82B5F
:104020000E94668360E08EEB93E00E9421786091AD
:10403000A20A7091A30A072E000C880B990B0E940C
:104040009EB42091A40A3091A50A4091A60A5091ED
:10405000A70A0E94D5BA18162CF460E083EB93E00F
:104060000E9421780E942EB081E080936B022396FB
:104070001CAE1DAE1EAE1FAE239727961CAE1DAE06
:104080001EAE1FAE27971BAE28961FAE28975CE387
:1040900060965FAF60978CE164968FAF649796E40B
:1040A00068969FAF6897E12CF12C00E81FEB812CFC
:1040B000912C54016091A20A7091A30A072E000C62
:1040C000880B990B0E949EB4762E672E582E492E8F
:1040D000262F372F482F592FB701C8010E9498B4B7
:1040E000882331F12091A40A3091A50A4091A60AB3
:1040F0005091A70A672D762D852D942D0E9498B496
:10410000881F8827881F8BAF2C96AFAD2C97AA23CA
:1041100099F0882389F080916B02882311F40C9424
:10412000C22B60E08EE993E00E9421780C94C22BB0
:104130007E2C6F2C502E412E0E9492A56B017C018B
:10414000DC01CB0127962CAD3DAD4EAD5FAD279781
:10415000821B930BA40BB50BB7FD45C0D701C6015D
:1041600088519C4FAF4FBF4F27968CAF9DAFAEAFDE
:10417000BFAF27970E949337EFEAF3E084918F0156
:104180000F5F1F4F882321F00E945B31F801F6CFAB
:1041900081149104A104B104D1F0D501C401805F60
:1041A000984DAF4FBF4FBC01CD016C197D098E09F1
:1041B0009F0928EE33E040E050E00E9473B8CA0146
:1041C000B9010E9409328AE00E945B310CC0ECEA1E
:1041D000F3E084918F010F5F1F4F882321F00E942D
:1041E0005B31F801F6CF0E94AE7E0E9450312090E4
:1041F000A40A3090A50A0091A60A1091A70A91017D
:10420000A801672D762D852D942D0E94AEB89F773D
:1042100081149104A104B10449F420E030E040E8A5
:104220005FE30E9498B487FF0BC008C020E030E035
:1042300040E450E40E94D5BA181614F44601570120
:104240009BAD992309F443C023962CAD3DAD4EADF3
:104250005FAD2397211531054105510541F0D70187
:10426000C601821B930BA40BB50BB7FD30C09101A7
:10427000A80128966FAD289760967FAD60976496E9
:104280008FAD649768969FAD68970E94AEB820E0A6
:1042900030E040EC5FE30E9498B487FD3CCFD7014B
:1042A000C601805A9541AF4FBF4F23968CAF9DAF4B
:1042B000AEAFBFAF239728962FAE289760963FAE3C
:1042C000609764960FAF649768961FAF6897809168
:1042D0006B02882309F41FCF81149104A104B10457
:1042E00029F4E72CF62C052D142DE4CE90E1C91A03
:1042F00097E2D90AE108F108C818D908EA08FB08CA
:10430000F7FE09CFEECF8091A40D83FF02C00C947D
:10431000C22B60E083EE93E00E94217883E50E9447
:10432000AF2E2C968FAF2C97811105C082E50E948D
:10433000AF2E8823A1F00E94FC2E0E94F3B9709347
:104340009709609396090E94FC2E20E030E040EA35
:1043500050E40E94D5BA181614F40E94954B81E0DF
:1043600080936B02809175048093740423961CAE35
:104370001DAE1EAE1FAE239727961CAE1DAE1EAE01
:104380001FAE27971BAE28961FAE2897ACE360960A
:10439000AFAF6097BCE16496BFAF6497E6E4689600
:1043A000EFAF6897C12CD12C00E8E02E8FEBF82EF0
:1043B000812C912C54016091960970919709072ED8
:1043C000000C880B990B0E949EB4162F072F782E95
:1043D000692E262F372F482F592FB601C7010E946B
:1043E00098B4882331F12091120530911305409142
:1043F000140550911505612F702F872D962D0E9461
:1044000098B4881F8827881F8BAF2C96FFAD2C97F8
:10441000FF2399F0882389F080916B02882311F49F
:104420000C94C22B60E082ED93E00E9421780C9402
:10443000C22B1C2D0D2D7E2C6F2C0E9492A56B0182
:104440007C01DC01CB0127962CAD3DAD4EAD5FADBF
:104450002797821B930BA40BB50BB7FD47C0D70161
:10446000C60188519C4FAF4FBF4F27968CAF9DAF71
:10447000AEAFBFAF27970E949337EFEDF3E0849183
:104480002F019FEF491A590A882321F00E945B31BE
:10449000F201F5CF81149104A104B104D1F0D5014A
:1044A000C401805F984DAF4FBF4FBC01CD016C1967
:1044B0007D098E099F0928EE33E040E050E00E941C
:1044C00073B8CA01B9010E9409328AE00E945B31C7
:1044D0000DC0ECEDF3E084912F01AFEF4A1A5A0AB8
:1044E000882321F00E945B31F201F5CF0E94AE7E5D
:1044F0000E94503120901205309013054090140511
:10450000509015059101A201612F702F872D962DD6
:104510000E94AEB89F7781149104A104B10449F4BC
:1045200020E030E040E85FE30E9498B487FF0BC0D2
:1045300008C020E030E040E450E40E94D5BA1816EC
:1045400014F446015701BBADBB2309F443C02396C5
:104550002CAD3DAD4EAD5FAD239721153105410525
:10456000510541F0D701C601821B930BA40BB50B7B
:10457000B7FD30C09101A20128966FAD28976096D3
:104580007FAD609764968FAD649768969FAD68978E
:104590000E94AEB820E030E040EC5FE30E9498B4A7
:1045A00087FD3ACFD701C601805A9541AF4FBF4F23
:1045B00023968CAF9DAFAEAFBFAF239728962FAE9B
:1045C000289760963FAE609764964FAE6497689662
:1045D0005FAE689780916B02882309F41DCF811428
:1045E0009104A104B10429F4C12ED02EE72CF62C9D
:1045F000E2CE90E1C91A97E2D90AE108F108C81899
:10460000D908EA08FB08F7FE07CFEECF83E50E9442
:10461000AF2E882321F00E9414A68C0102C00FEF58
:1046200010E080E50E94AF2E882319F00E9414A6A6
:1046300002C080E090E098010F3F110519F010F0E2
:104640002FEF30E0892B11F00C94C22B3093950999
:10465000209394090C94C22B80E50E94AF2E811107
:1046600006C010929509109294090C94C22B0E94D6
:1046700014A6892B11F00C94C22BF3CF0E946C3C32
:104680000E948F420E945E7E1092950910929409BA
:1046900068EE73E080E090E00E945AA560E080EF51
:1046A00093E00E9421780E9447780C94C22B81E00D
:1046B000809379040C94C22B83E50E94AF2E88234B
:1046C00061F00E94942F60937F0270938002809328
:1046D0008102909382020C94C22B88E50E94AF2E37
:1046E00081110C94EC2B89E50E94AF2E81110C9462
:1046F000EC2B8AE50E94AF2E81110C94EC2B85E403
:104700000E94AF2E81110C94EC2B0E948F420E94CC
:104710005E7E0C94C22B83E50E94AF2E882311F499
:104720000C94C22B0E94942F60936E0A70936F0AB0
:104730008093700A9093710A0C94C22BD6018D91CC
:104740006D010E94AF2E882309F46DC0133009F06B
:1047500063C00E94FC2E4B015C0120E030E040EA87
:1047600051E40E9498B487FF4EC0A5019401609166
:104770007D1270917E1280917F12909180120E9422
:104780008BB92B013C019B01AC016091BD12709172
:10479000BE128091BF129091C0120E94FDB460932E
:1047A000BD127093BE128093BF129093C012A301EA
:1047B00092016091AD127091AE128091AF12909102
:1047C000B0120E94FDB46093AD127093AE1280934C
:1047D000AF129093B0126091B10D7091B20D8091B3
:1047E000B30D9091B40D0E949CB4A30192010E945C
:1047F000FDB40E94F8B96093B10D7093B20D80932F
:10480000B30D9093B40D80927D1290927E12A0927F
:104810007F12B092801207C00E94FC2EF7016083C5
:104820007183828393831F5FF4E0EF0EF11C1430D9
:1048300009F084CF0E94CF87A5C70E94C235A2C7C6
:10484000E2E0F4E084918F010F5F1F4F882309F4A9
:1048500099C70E945B31F801F5CF60E0C8010E9462
:10486000367890C784918F010F5F1F4F882321F006
:104870000E945B31F801F6CFEEEDF4E084918F01F8
:104880000F5F1F4F882321F00E945B31F801F6CFA4
:10489000659B03C00FEC13E002C004ED13E0D801E8
:1048A0008D918D01882319F00E945B31F8CF8AE049
:1048B0000E945B31E6EDF4E084918F010F5F1F4FA2
:1048C000882321F00E945B31F801F6CF809103012B
:1048D00081FF03C00FEC13E002C004ED13E0F80108
:1048E00081918F01882319F00E945B31F8CF8AE013
:1048F0000E945B31EEECF4E084918F010F5F1F4F5B
:10490000882321F00E945B31F801F6CF4B9B03C056
:104910000FEC13E002C004ED13E0D8018D918D017E
:10492000882309F413CB0E945B31F7CF81E0809399
:104930004F028093C50926C710924F021092C509F5
:1049400021C783E50E94AF2E8823F1F00E9421A6A3
:10495000182F8230D0F0EEE1FEE084918F010F5FDE
:104960001F4F882321F00E945B31F801F6CFE0E071
:10497000F5E084918F010F5F1F4F882309F402C770
:104980000E945B31F801F5CF10E088E40E94AF2E61
:104990008823B1F00E9421A6E12FF0E08A3A910528
:1049A0003CF08530B1E09B072CF084E091E002C040
:1049B0008AEA90E0EE0FFF1FE456F64F9183808362
:1049C00086E40E94AF2E8823A1F00E9421A6E12F49
:1049D000F0E0EE0FFF1FE056F64F8F3F910519F004
:1049E00014F08FEF90E097FF02C080E090E0918399
:1049F000808382E40E94AF2E882309F4C3C60E94FC
:104A000021A6E12FF0E08530910534F0883891053A
:104A10002CF087E890E002C085E090E0EE0FFF1FE9
:104A2000E856F64F91838083ADC688EC90E00E94F3
:104A300019358111A7C684E40E94AF2E882309F49A
:104A4000A1C60E94FC2E11E020E030E0A9010E94E6
:104A500098B4811101C010E01093C612112359F1CE
:104A60000091740410E00E94FC2E000F111F000F33
:104A7000111FF801E353FD4F608371838283938399
:104A800020E030E0A9016091CD027091CE028091CA
:104A9000CF029091D0020E9498B481110CC080E0A6
:104AA00090E0A0EEBFE38093CD029093CE02A0935E
:104AB000CF02B093D0020E94647A64C639E8E32E34
:104AC00032E1F32E01ED12E044E0D42ED00EF801D5
:104AD00081918F010E94AF2E882351F00E94FC2EFD
:104AE0000E94F8B9D7016D937D938D939C93139792
:104AF000B4E0EB0EF11CD012EACF0E94A28642C6AF
:104B0000B4E0EB0EF11CD01609F43CC6F80181911B
:104B10008F010E94AF2E882399F30E94FC2ED701AB
:104B20006D937D938D939C931397EACF83E50E94B9
:104B3000AF2E8823D9F00E94FC2EAB01BC0140931C
:104B4000C1125093C2126093C3127093C412409367
:104B500081125093821260938312709384128CE7B7
:104B600095E00E942A388AE00E945B3180E50E942D
:104B7000AF2E882399F00E94FC2EAB01BC0140931C
:104B8000C1125093C2126093C3127093C4128FE586
:104B900095E00E942A388AE00E945B3182E50E94FB
:104BA000AF2E882399F00E94FC2EAB01BC014093EC
:104BB000851250938612609387127093881280E456
:104BC00095E00E942A388AE00E945B3184E50E94C9
:104BD000AF2E882309F4D6C50E94FC2EAB01BC0180
:104BE00040938112509382126093831270938412C7
:104BF00082E295E00E942A388AE00E945B31C2C5B9
:104C000083E50E94AF2E882351F00E94FC2E609312
:104C10009D1270939E1280939F129093A01284E530
:104C20000E94AF2E882351F00E94FC2E60939912AF
:104C300070939A1280939B1290939C1282E40E942C
:104C4000AF2E882351F00E94F12E6093A00D709337
:104C5000A10D8093A20D9093A30D88E50E94AF2E25
:104C6000882351F00E94FC2E6093B1127093B2120F
:104C70008093B3129093B41289E50E94AF2E8823DB
:104C800051F00E94FC2E6093B5127093B61280937F
:104C9000B7129093B8128AE50E94AF2E882351F084
:104CA0000E94FC2E6093B9127093BA128093BB12CB
:104CB0009093BC1285E40E94AF2E882309F462C54C
:104CC0000E94FC2E6093BD127093BE128093BF129F
:104CD0009093C01257C5F50181915F010E94AF2EDC
:104CE000882311F10E94FC2E2B013C01D7012D914C
:104CF0003D914D915C910E94AEB89B01AC01F601D3
:104D000060817181828193810E94AFB8D6016D93D9
:104D10007D938D939C931397F70140825182628219
:104D20007382C8010E94DC300F5F1F4FF4E0CF0E8A
:104D3000D11C24E0E20EF11C0330110561F60E9443
:104D40001C300E94C2351EC5EEEBF5E184918F0147
:104D50000F5F1F4F882321F00E945B31F801F6CFCF
:104D600083E5FDD7882321F00E94E8A580937C028B
:104D7000ECECF5E084918F010F5F1F4F882321F049
:104D80000E945B31F801F6CF80917C02811103C053
:104D9000E8ECF5E002C0E4ECF5E084918F010F5FF0
:104DA0001F4F882321F00E945B31F801F6CFECEB16
:104DB000F5E084918F010F5F1F4F882321F00E943F
:104DC0005B31F801F6CF4091B2095091B30960917F
:104DD000B4097091B5098AEB95E00E942A38409198
:104DE000B6095091B7096091B8097091B90987EB7C
:104DF00095E00E942A384091BA095091BB09609110
:104E0000BC097091BD0984EB95E00E942A38ECEA58
:104E1000F5E084918F010F5F1F4F882321F00E94DE
:104E20005B31F801F6CF40917002509171026091B0
:104E30007202709173028AEA95E00E942A384091CA
:104E4000740250917502609176027091770287EA40
:104E500095E00E942A384091780250917902609141
:104E60007A0270917B0284EA95E00E942A388AE0F7
:104E70000E945B3187C483E572D7882309F482C41A
:104E80000E9421A690936F0280936E027BC48DEDE9
:104E900090E00E941935811175C483E560D788239D
:104EA00009F470C40091740410E00E9421A6000F60
:104EB000111FF801E459FD4F9183808363C480E59D
:104EC0004ED7882309F45EC40E9421A68C0183E595
:104ED00046D7882321F00E9421A67C0103C0EE243E
:104EE000EA94FE2CC7010196039708F04BC417FD06
:104EF00049C4E5EDF2E0C8019927219131912817C5
:104F0000390709F43FC433E0EB32F307B1F72BC69E
:104F100083E525D7882319F00E9414A602C084E0F7
:104F200091E099A388A380E51AD7882349F00E94CD
:104F300014A6893843E1940728F088E893E102C079
:104F400088EE93E09A838983BE01605E7F4FCE0135
:104F500001960E94614B16C485E401D781110EC0F1
:104F600080E5FDD6882391F047D760935302709374
:104F70005402809355029093560208C00E9421A6C5
:104F8000181619066CF7EEE1FEE06DC089E4E7D66D
:104F9000882379F031D72CE933E549E45EE30E94B8
:104FA000FDB460935B0270935C0280935D0290930A
:104FB0005E0284E4D4D6882379F01ED72CE933E549
:104FC00049E45EE30E948BB96093570270935802E4
:104FD0008093590290935A02EEEBF5E184918F0190
:104FE0000F5F1F4F882321F00E945B31F801F6CF3D
:104FF00040915302509154026091550270915602B3
:1050000084EE95E00E942A382CE933E549E45EE31A
:1050100060915B0270915C0280915D0290915E02F2
:105020000E948BB9AB01BC0180EE95E00E940F3865
:105030002CE933E549E45EE3609157027091580230
:105040008091590290915A020E94FDB4AB01BC01BB
:105050008CED95E00E940F388AE00E945B3192C38C
:105060000E945B31F80184918F010F5F1F4F811106
:10507000F7CF02EE13E0D8018D918D01882311F452
:105080000C94A61F0E945B31F6CF83E568D6082FEB
:10509000882399F0B1D66093C0027093C1028093C7
:1050A000C2029093C30211E020E030E0A9010E9407
:1050B00098B4811110E010939F0D80E550D6182F01
:1050C0008823A9F020E030E0A9016091C00270912E
:1050D000C1028091C2029091C3020E9498B48823B9
:1050E00019F00E94E8A5182F10939F0D4BC30111D2
:1050F00049C3EEEBF5E184918F010F5F1F4F8823C9
:1051000021F00E945B31F801F6CF80919F0D811153
:1051100003C06EED73E002C061ED73E08DEF95E0CA
:105120000E94623120E030E040E05FE36091C00225
:105130007091C1028091C2029091C3020E94AFB8E7
:105140000E94F3B98CEE95E00E940235E8EEF5E09E
:1051500084918F010F5F1F4F882309F413C30E94AE
:105160005B31F801F5CF85E4FAD5882321F00E9460
:1051700021A67C0102C0E12CF12C83E4F0D5882328
:1051800049F00E9421A6CB57DF4F99838883C558E9
:10519000D04008C0E5E0F0E0CB57DF4FF983E8836B
:1051A000C558D04085E5DBD5882341F00E94E8A5AD
:1051B000C957DF4F8883C758D04005C0C957DF4F54
:1051C0001882C758D04083E5CAD5882371F014D619
:1051D0002C966FAF2C9724967FAF249728968FAF8D
:1051E000289760969FAF609710C02C961FAE2C97A3
:1051F00024961FAE2497F7FC0EC0F6E12896FFAF69
:10520000289723E460962FAF6097E114F10459F4D6
:105210001092740408C03CE828963FAF289742E4F7
:1052200060964FAF60970E9492A54B015C01EF28FA
:1052300019F403EF13E00CC006E014E0D8018D91DF
:105240008D01882311F40C94A61F0E945B31F6CFC8
:10525000F80181918F01882319F00E945B31F8CF0A
:105260008AE00E945B310E946C3C8FE780930E05C0
:1052700081E080936B02C358DF4F88829982AA82B3
:10528000BB82CD57D040C857DF4F88829982AA820F
:10529000BB82C858D04068961FAE6897F0E46C9601
:1052A000FFAF6C972CE1A0962FAFA09736E4A496A1
:1052B0003FAFA497A8961FAEA897AC961FAEAC9729
:1052C000E0961FAEE097E4961FAEE497EC961CAE16
:1052D0001DAE1EAE1FAEEC97E8961CAE1DAE1EAE08
:1052E0001FAEE897C12CD12C7601FFE74F2E512C31
:1052F000612C712C8FE790E0A0E0B0E023968CAF9A
:105300009DAFAEAFBFAF2397CF57DF4F1882198243
:105310001A821B82C158D04091E0ED969FAFED9765
:1053200065961FAE1EAE659710E000E0312C212C73
:1053300080916B02882309F4CCC10E9492A56BAFC7
:105340007CAF8DAF9EAF80910C05882309F4D1C04E
:105350000E94593F1091A40A0091A50A3090A60A14
:105360002090A70A212F302F432D522DA8966FADE4
:10537000A897AC967FADAC97E0968FADE097E4969A
:105380009FADE4970E9498B487FF0CC0A8961FAF0A
:10539000A897AC960FAFAC97E0963FAEE097E49637
:1053A0002FAEE497212F302F432D522D68966FADED
:1053B00068976C967FAD6C97A0968FADA097A496DA
:1053C0009FADA4970E94D5BA181664F468961FAFD3
:1053D00068976C960FAF6C97A0963FAEA097A49677
:1053E0002FAEA497ED96AFADED972C962FAD2C97E1
:1053F00024963FAD249728964FAD289760965FADD1
:105400006097612F702F832D922DAA2309F455C028
:105410000E94D5BA18160CF06CC04BAD5CAD6DADEA
:105420007EAD481959096A097B09DB01CA01885810
:105430009341A109B109B7FD5CC023968CAD9DAD28
:10544000AEADBFAD239784199509A609B709B595E7
:10545000A7959795879580930E05CF57DF4F488383
:1054600059836A837B83C158D0402C96BFAD2C975B
:10547000A896BFAFA8972496EFAD2497AC96EFAF50
:10548000AC972896FFAD2897E096FFAFE09760961F
:105490002FAD6097E4962FAFE4978BAD9CADADAD8B
:1054A000BEADC358DF4F88839983AA83BB83CD5792
:1054B000D040ED961FAEED971CC00E9498B487FFB8
:1054C00018C08BAD9CADADADBEADC358DF4F2881CC
:1054D00039814A815B81CD57D040821B930BA40B4D
:1054E000B50BAC01BD01485853416109710977FF03
:1054F00099C120E030E040EA51E42C966FAD2C9742
:1055000024967FAD249728968FAD289760969FADFF
:1055100060970E94AFB89B01AC01612F702F832D63
:10552000922D0E94D5BA181664F4EAECF6E0849144
:105530008F010F5F1F4F882309F424C1BCD6F801E7
:10554000F6CF80E398EFAFEFBFEFC857DF4F28816A
:1055500039814A815B81C858D040821B930BA40BD0
:10556000B50B2BAD3CAD4DAD5EAD820F931FA41FAF
:10557000B51FB7FD10C00E9493378AE09CD68BAD53
:105580009CADADADBEADC857DF4F88839983AA836C
:10559000BB83C858D0408BAD9CADADADBEAD880FC0
:1055A000991FAA1FBB1FC358DF4F288139814A8129
:1055B0005B81CD57D040821B930BA40BB50B881990
:1055C0009909AA09BB0981389F44A241B10560F03D
:1055D000ECEAF6E084918F010F5F1F4F882309F4F6
:1055E000D1C069D6F801F6CF65964EAD5FAD65972F
:1055F000CB57DF4F88819981C558D04084179507D4
:105600000CF064C0EFE4F6E084918F010F5F1F4F50
:10561000882319F050D6F801F7CFB701A6018AE325
:1056200096E00E942A388AE046D6E8964CAD5DADF9
:105630006EAD7FADE89785E296E00E942A388AE059
:105640003AD6EC964CAD5DAD6EAD7FADEC9780E19A
:1056500096E00E942A388AE02ED6C957DF4F9881FB
:10566000C758D040992309F48DC0C0925302D092FC
:105670005402E0925502F09256022CE933E549E4D7
:105680005EE3E8966CAD7DAD8EAD9FADE8970E9470
:10569000FDB460935B0270935C0280935D02909313
:1056A0005E022CE933E549E45EE3EC966CAD7DAD3A
:1056B0008EAD9FADEC970E948BB9609357027093AB
:1056C00058028093590290935A025CC00E94477816
:1056D0002FCE80916B02811155C00E946C3C52C04C
:1056E0000E948F424FC00E9472364CC00E948E6F43
:1056F00049C00E94C56D46C00E94666C43C083E5E8
:105700002ED3882321F00E94E8A591E089270E94EA
:10571000106938C081E0809305021092D20983E5B8
:105720001ED3882309F407C20E94E8A581112AC06C
:1057300002C2E0927504EEEBF5E184918F010F5FF8
:105740001F4F882319F0B7D5F801F7CFB701772796
:105750008EE397E00E9402358AE0ADD513C061E088
:105760008D2D0E9457A46E2D8D2D0E9428A4B70167
:105770008D2D0E9493A40930110521F4F092950912
:10578000E09294090E94858116C20E942EA6AB0168
:10579000BC014093900D5093910D6093920D7093C6
:1057A000930D8FED9CE00E94AB5FECCF0E942EA684
:1057B000AB01BC014093900D5093910D6093920DFD
:1057C0007093930D8FED9CE00E94AB5F0C94C51D10
:1057D0000E94954B0C9417200E948F4288E5BFD2FF
:1057E000882319F05F9A1092A50589E5B8D288231D
:1057F00019F08A9A1092A6058AE5B1D2882359F049
:105800009FB7F894809108018160809308019FBF41
:10581000479A1092A70585E4A2D2882309F4B2CF53
:10582000129AB0CF65964EAD5FAD6597141615060A
:105830000CF047C1CF57DF4F88809980AA80BB808A
:10584000C158D040880E991EAA1EBB1ECF57DF4FED
:10585000288139814A815B81C158D040281B390B8E
:105860004A0B5B0BCA01B901A30192010E9464B803
:10587000A50194010E949ABB23964CAC5DAC6EAC22
:105880007FAC2397420E531E641E751E34E14316EF
:105890005104610471041CF14CEE4416510461047E
:1058A00071043CF450E845165104610471043CF164
:1058B00005C05BEE452E512C612C712C23964CAE0D
:1058C0005DAE6EAE7FAE23978EEF90E0A0E0B0E0CD
:1058D00084199509A609B7092C013D0116C024E1D8
:1058E00030E040E050E023962CAF3DAF4EAF5FAFCD
:1058F000239744E1442E512C612C712C06C0239631
:105900004CAE5DAE6EAE7FAE239723964CAD5DADD3
:105910006EAD7FAD239786E397E00E9439A6B30171
:10592000A20181E397E00E9439A668964FAD68977F
:105930006C965FAD6C97A0966FADA097A4967FAD67
:10594000A4978AE297E00E942A38A8964FADA897BC
:10595000AC965FADAC97E0966FADE097E4967FAD07
:10596000E49783E297E00E942A3865964EAD5FADDA
:105970006597433051050CF4A4C0C301B2010E94E5
:105980009EB420E030E040E850E40E94FDB46B019A
:105990007C0168962FAD68976C963FAD6C97A0968A
:1059A0004FADA097A4965FADA497A8966FADA897AA
:1059B000AC967FADAC97E0968FADE097E4969FAD47
:1059C000E4970E94AEB82BED3FE049E450E40E941A
:1059D000FDB420E030E040E05FE30E94FDB49B01B5
:1059E000AC01C701B6010E948BB96B017C01C501F6
:1059F000B4010E949EB42FE632E143E85AE30E94CC
:105A0000FDB44B015C01B701A6018DE197E00E9456
:105A10002A38B501A40187E197E00E942A382AE9D3
:105A200039E949E15FE3C701B6010E94FDB46B01AA
:105A30007C019B01AC010E94AFB8A50194010E94BA
:105A40008BB9E8966CAF7DAF8EAF9FAFE897A5019D
:105A50009401C701B6010E94FDB420E030E040E0AF
:105A60005EE30E94FDB4EC966CAF7DAF8EAF9FAF4E
:105A7000EC97E7E0F7E084915F015FEFA51AB50AC4
:105A8000882319F018D4F501F6CFB701A60181E0FB
:105A900097E00E942A38E8964CAD5DAD6EAD7FADC3
:105AA000E8978BEF96E00E942A38EC964CAD5DADFE
:105AB0006EAD7FADEC9785EF96E00E942A388AE0C4
:105AC000FAD323968CAD9DADAEADBFAD2397840DBB
:105AD000951DA61DB71DB595A7959795879580939C
